0REMESSANOTIFICACAO ELETRONICA        99999999999999BICBANCO                                AV. PAULISTA                            1048      12.ANDAR  BELA VISTA                    SAO PAULO                     01310100SP1121739360CORTINHAL                               COORDENADOR                             19042010                                                                                                                                                                                                                                                                                                                                                                                      000001
1037421004192COBR_CAUC_BIC  IBT IND. BRASILEIRA DE TELEVISORES      098102924001680DELTASUL UTILIDADES LTDA                AV PRESIDENTE CASTELO BRANCO,1025       STA CRUZ DO SUL                         96835666RS2169200001043751270692/4-A    15042010015PORTO ALEGRE        1407201000000000012720000CC                                                                                                                                                                                                                                                                                                                                                                                                         000002
1028421002921COBR_CAUC_COR  FRIGORIFICO MATABOI S/A                 004557157000335PREZUNIC COMERCIAL LTDA                 R DO ALPISTE 568                        RIO DE JANEIRO                          21011010RJ2169300001001177610001572101  15042010900BRADESCO S/A        1505201000000000024736791CC                                                                                                                                                                                                                                                                                                                                                                                                         000003
1014421012444COBR_CAUC_COR  HOTEIS OTHON S/A.                       007575651000310VRG LINHAS AEREAS S A                   PCA SEN SALGADO FILHO S N SALA 02       RIO DE JANEIRO                          20021971RJ2169400001000599971200175301  16042010900BRADESCO S/A        1705201000000000025048000CC                                                                                                                                                                                                                                                                                                                                                                                                         000004
1016421006424COBR_CAUC_COR  BOUTIN FERTILIZANTES LTDA               082069113000370DISTRIB PITANGUEIRAS PROD AGROP LT      GOV PARIGOT DE SOUZA ,160               ARAPOTI                                 84990000PR2169500001027371147221        13042010600HSBC BANK BRASIL    3010201000000000011175000CC                                                                                                                                                                                                                                                                                                                                                                                                         000005
1038421000764COBR_CAUC_BIC  METROPOLITAN LOGIST COMERCIAL LTDA      061068276002816UNILEVER BRASIL LTDA                    AV. JOSE LUIZ MAZZALI 450               LOUVEIRA                                13290000SP216960000108672285286145      14032010007PAULISTA            2805201000000000024815314CC                                                                                                                                                                                                                                                                                                                                                                                                         000006
1007421009131COBR_CAUC_COR  KASINSKI FABRICADORA DE VEIC LTDA       010289151000165MOTO NAUER COMERCIO DE MOTOS L          RUA NOEMIA GODINHO BITTENCOURT, 34      ITAPERUNA                               28300000RJ216970000109812040F01004658   31032010900BRADESCO S/A        3105201000000000013382944CC                                                                                                                                                                                                                                                                                                                                                                                                         000007
9000006                                                                                                                                                                                                                                                                                                                                                                                                                                                                                                                                                                                                                                                                                                               000008
