0REMESSANOTIFICACAO ELETRONICA        99999999999999BICBANCO                                AV. PAULISTA                            1048      12.ANDAR  BELA VISTA                    SAO PAULO                     01310100SP1121739360CORTINHAL                               COORDENADOR                             14052010                                                                                                                                                                                                                                                                                                                                                                                      000001
1021420930887COBR_CAUC_BIC  DEDINI S/A INDUSTRIAS DE BASE           002216876000286ANDRITZ HYDRO INEPAR DO BRASIL SA       RODOVIA MANOEL DE ABREU ZONA RURAL BR   ARARAQUARA                              14801970SP22134000010580064812184-1-1   30042010022RIBEIRAO PRETO      2805201000000000015033500CC                                                                                                                                                                                                                                                                                                                                                                                                         000002
1021420930887COBR_CAUC_COR  DEDINI S/A INDUSTRIAS DE BASE           008830263000130FATIMA DO SUL AGRO-ENERGETICA SA A      ROD OTR LINHA DO BARREIRINHO -LTS  2 ZONFATIMA DO SUL                           79700000MS221350000105800699110358-2-2  31032010900BRADESCO S/A        1506201000000000022573000CC                                                                                                                                                                                                                                                                                                                                                                                                         000003
1024420934410COBR_CAUC_BIC  INTERCOOP INT SUIN MED NORTE MT LTD     010578244000100GP INDUSTRIA SERVICOS E COMERCIO D      RUA MANOEL DUARTE ,167                  SAO GONCALO                             24430500RJ22136000010179697139031       12052010014RIO DE JANEIRO      0906201000000000012095691CC                                                                                                                                                                                                                                                                                                                                                                                                         000004
9000003                                                                                                                                                                                                                                                                                                                                                                                                                                                                                                                                                                                                                                                                                                               000005
