0REMESSANOTIFICACAO ELETRONICA        99999999999999BICBANCO                                AV. PAULISTA                            1048      12.ANDAR  BELA VISTA                    SAO PAULO                     01310100SP1121739360CORTINHAL                               COORDENADOR                             16042010                                                                                                                                                                                                                                                                                                                                                                                      000001
1022421004305COBR_CAUC_BIC  COOP.AGRIC.REGIAO DE ORLANDIA           000016391379807NELTON PAULO GUARNIERI                  PRACA DOM PEDRO II NR 382               IPUA                                    14610000SP2164800001038211610020001250  15042010022RIBEIRAO PRETO      2905201000000000017424000CC                                                                                                                                                                                                                                                                                                                                                                                                         000002
1037420933912COBR_CAUC_COR  COPPER 100 IND. COM. LTDA               075339051000141DOCOL METAIS SANITARIOS LTDA.           R.VISCONDE DE MAUA 67                   JOINVILLE                               89204500SC2164900001043738173554/1      15042010600HSBC BANK BRASIL    1407201000000000023720000CC                                                                                                                                                                                                                                                                                                                                                                                                         000003
1029421001656COBR_CAUC_BIC  FOCA EQUIPAMENTOS AUTOMOTIVOS LTDA      016701716000156FIAT AUTOMOVEIS S/A                     RODOV.FERNAO DIAS BR 381 KM 429,0       BETIM                                   32536000MG2165000001091903822661        08042010019BELO HORIZONTE      1006201000000000013000000CC                                                                                                                                                                                                                                                                                                                                                                                                         000004
1036421014416COBR_CAUC_COR  RONTAN ELETRO METALURGICA LTDA          016701716000156FIAT AUTOMOVEIS S.A. 65401              RUA FERNAO DIASBR381 KM429              BETIM                                   32560460MG216510000105694631040038-1    05042010900BRADESCO S/A        0705201000000000099394425CC                                                                                                                                                                                                                                                                                                                                                                                                         000005
1029141009096COBR_CAUC_BIC  CPS BRAZIL TOBACCO IMP E EXP LTDA       088124383000150BRASFUMO LTDA                           AV DAS INDUSTRIAS,130                   VENANCIO AIRES                          95800000RS2165200001091888924794N       15042010015PORTO ALEGRE        2405201000000000020000000TD                                                                                                                                                                                                                                                                                                                                                                                                         000006
1029141009096COBR_CAUC_BIC  CPS BRAZIL TOBACCO IMP E EXP LTDA       088124383000150BRASFUMO LTDA                           AV DAS INDUSTRIAS,130                   VENANCIO AIRES                          95800000RS21652000020918898132N         15042010015PORTO ALEGRE        2505201000000000011937039TD                                                                                                                                                                                                                                                                                                                                                                                                         000007
1007421016006COBR_CAUC_BIC  ONCOMED FARMACEUTICA LTDA               060552098000111SOC. BRAS.JAP.BEN.STA CRUZ-HOSP.ST      R. SANTA CRUZ, 398   IS ENT 0           SAO PAULO                               04122000SP2165300001098078012099181     15042010007PAULISTA            1406201000000000016190041CC                                                                                                                                                                                                                                                                                                                                                                                                         000008
1007421009131COBR_CAUC_BIC  KASINSKI FABRICADORA DE VEIC LTDA       010548031000305MOTOSHOW COMERCIO DE MOTOS LTD          AV HEITOR DIAS 293                      SALVADOR                                40313042BA216540000109807283F01004761   08042010013SALVADOR            3105201000000000010858027CC                                                                                                                                                                                                                                                                                                                                                                                                         000009
9000007                                                                                                                                                                                                                                                                                                                                                                                                                                                                                                                                                                                                                                                                                                               000010
