0REMESSANOTIFICACAO ELETRONICA        99999999999999BICBANCO                                AV. PAULISTA                            1048      12.ANDAR  BELA VISTA                    SAO PAULO                     01310100SP1121739360CORTINHAL                               COORDENADOR                             29032010                                                                                                                                                                                                                                                                                                                                                                                      000001
1007421035337COBR_CAUC_COR  COML IMP E EXP LA RIOJA LTDA            007399636002060ALIANCA ATAC SUP SA     PTA 160002      R SANTIAGO BALLESTEROS, 680             CONTAGEM                                32010050MG21250000010020983925480       25032010900BRADESCO S/A        2405201000000000015000300CC                                                                                                                                                                                                                                                                                                                                                                                                         000002
1013421003918DIR_CREDIT     JOTAGE ENGENHRIA COM. E INC. LTDA.      013927819000140P.M. DE LAURO DE FREITAS - BA           PRAÇA JOAO THIAGO DOS SANTOS, S/N       LAURO DE FREITAS                        42700000BA2126000001                                                                                                                                          481016300           211120050000012690409/05      26032010000404SERVIÇO DE LIMPEZA URBANA no município de Lauro de Freitas / Ba.                                                                                                                                                                                014828958000180              000003
1016421011762DIR_CREDIT     INSTITUTO CURITIBA DE INFORMATICA       076417005000186PM DE CURITIBA                          AV CANDIDO DE ABREU 815                 CURITIBA                                80530908PR2126700001                                                                                                                                          481014095           31012006000001098416558       26032010000404PRESTAÇÃO DE SERVIÇOS DE MANUTENÇÃO DO SISTEMA DE INFORMATIZAÇÃO DA SECRETARIA MUNICIPAL DE SAUDE .                                                                                                                                             002576670000186              000004
9000003                                                                                                                                                                                                                                                                                                                                                                                                                                                                                                                                                                                                                                                                                                               000005
