0REMESSANOTIFICACAO ELETRONICA        99999999999999BICBANCO                                AV. PAULISTA                            1048      12.ANDAR  BELA VISTA                    SAO PAULO                     01310100SP1121739360CORTINHAL                               COORDENADOR                             30042010                                                                                                                                                                                                                                                                                                                                                                                      000001
1018421019436COBR_CAUC_COR  ALVICTO OZORES NOGUEIRA E CIA LTDA      072589294000140NELY TRANSPORTES DE BRASILIA LTDA       STRC SUL TRECHO I CJ A LT 09,0          BRASILIA                                71200010DF219160000100000373039165 2    17032010900BRADESCO S/A        1705201000000000002092408CC                                                                                                                                                                                                                                                                                                                                                                                                         000002
1018421019436COBR_CAUC_COR  ALVICTO OZORES NOGUEIRA E CIA LTDA      072589294000140NELY TRANSPORTES DE BRASILIA LTDA       STRC SUL TRECHO I CJ A LT 09,0          BRASILIA                                71200010DF219160000200000381039165 3    17032010900BRADESCO S/A        1706201000000000002092408CC                                                                                                                                                                                                                                                                                                                                                                                                         000003
1018421019436COBR_CAUC_COR  ALVICTO OZORES NOGUEIRA E CIA LTDA      072589294000140NELY TRANSPORTES DE BRASILIA LTDA       STRC SUL TRECHO I CJ A LT 09,0          BRASILIA                                71200010DF219160000300000390039165 4    17032010900BRADESCO S/A        1707201000000000002092408CC                                                                                                                                                                                                                                                                                                                                                                                                         000004
1018421019436COBR_CAUC_COR  ALVICTO OZORES NOGUEIRA E CIA LTDA      072589294000140NELY TRANSPORTES DE BRASILIA LTDA       STRC SUL TRECHO I CJ A LT 09,0          BRASILIA                                71200010DF219160000400000403039165 5    17032010900BRADESCO S/A        1708201000000000002092408CC                                                                                                                                                                                                                                                                                                                                                                                                         000005
1018421019436COBR_CAUC_COR  ALVICTO OZORES NOGUEIRA E CIA LTDA      072589294000140NELY TRANSPORTES DE BRASILIA LTDA       STRC SUL TRECHO I CJ A LT 09,0          BRASILIA                                71200010DF219160000500000411039165 6    17032010900BRADESCO S/A        1709201000000000002092408CC                                                                                                                                                                                                                                                                                                                                                                                                         000006
1018421019436COBR_CAUC_COR  ALVICTO OZORES NOGUEIRA E CIA LTDA      072589294000140NELY TRANSPORTES DE BRASILIA LTDA       STRC SUL TRECHO I CJ A LT 09,0          BRASILIA                                71200010DF219160000600000446039164 3    17032010900BRADESCO S/A        1706201000000000002730770CC                                                                                                                                                                                                                                                                                                                                                                                                         000007
1018421019436COBR_CAUC_COR  ALVICTO OZORES NOGUEIRA E CIA LTDA      072589294000140NELY TRANSPORTES DE BRASILIA LTDA       STRC SUL TRECHO I CJ A LT 09,0          BRASILIA                                71200010DF219160000700000454039164 4    17032010900BRADESCO S/A        1707201000000000002730770CC                                                                                                                                                                                                                                                                                                                                                                                                         000008
1018421019436COBR_CAUC_COR  ALVICTO OZORES NOGUEIRA E CIA LTDA      072589294000140NELY TRANSPORTES DE BRASILIA LTDA       STRC SUL TRECHO I CJ A LT 09,0          BRASILIA                                71200010DF219160000800000462039164 5    17032010900BRADESCO S/A        1708201000000000002730770CC                                                                                                                                                                                                                                                                                                                                                                                                         000009
1018421019436COBR_CAUC_COR  ALVICTO OZORES NOGUEIRA E CIA LTDA      072589294000140NELY TRANSPORTES DE BRASILIA LTDA       STRC SUL TRECHO I CJ A LT 09,0          BRASILIA                                71200010DF219160000900000471039164 6    17032010900BRADESCO S/A        1709201000000000002730770CC                                                                                                                                                                                                                                                                                                                                                                                                         000010
1018421019436COBR_CAUC_COR  ALVICTO OZORES NOGUEIRA E CIA LTDA      072589294000140NELY TRANSPORTES DE BRASILIA LTDA       STRC SUL TRECHO I CJ A LT 09,0          BRASILIA                                71200010DF219160001000000497039164 2    17032010900BRADESCO S/A        1705201000000000002730770CC                                                                                                                                                                                                                                                                                                                                                                                                         000011
1018421016232COBR_CAUC_COR  LEITBOM S/A                             004180523000118CARVALHO ATACADO DE ALIM LTDA           AV DEP PAULO FERRAZ 4888                TERESINA                                64078820PI2188600001016398070019583001  28042010900BRADESCO S/A        1206201000000000034200000CC                                                                                                                                                                                                                                                                                                                                                                                                         000012
1008420935268COBR_CAUC_COR  SANTANA TEXTIL MATO GROSSO S/A          007728342000171B76 INDUSTRIA E COMERCIO DE ROUPAS      RUA COIMBRA 61                          SAO PAULO                               03052030SP218870000100234470141493*     28042010900BRADESCO S/A        2806201000000000011939700CC                                                                                                                                                                                                                                                                                                                                                                                                         000013
1007421036503COBR_CAUC_BIC  DVA AGRO DO BRASIL IMP. EXP. LTDA       023361306000764SIPCAM ISAGRO BRASIL S/A                ROD DE ACESSO A VIA ANHANGUERA 999B     IGARAPAVA                               14540000SP2188800001098284260000004411  29052009022RIBEIRAO PRETO      3005201000000000010575600CC                                                                                                                                                                                                                                                                                                                                                                                                         000014
1007421036503COBR_CAUC_BIC  DVA AGRO DO BRASIL IMP. EXP. LTDA       023361306000764SIPCAM ISAGRO BRASIL S/A                ROD DE ACESSO A VIA ANHANGUERA 999B     IGARAPAVA                               14540000SP2188800002098284340000004412  29052009022RIBEIRAO PRETO      3005201000000000010575600CC                                                                                                                                                                                                                                                                                                                                                                                                         000015
1007421036503COBR_CAUC_BIC  DVA AGRO DO BRASIL IMP. EXP. LTDA       023361306000764SIPCAM ISAGRO BRASIL S/A                ROD DE ACESSO A VIA ANHANGUERA 999B     IGARAPAVA                               14540000SP2188800003098284420000004413  29052009022RIBEIRAO PRETO      3005201000000000010575600CC                                                                                                                                                                                                                                                                                                                                                                                                         000016
9000004                                                                                                                                                                                                                                                                                                                                                                                                                                                                                                                                                                                                                                                                                                               000017
