01REMESSA01COBRANCA       00000000000004130991SISTEMA DE CARTÛRIO CERTIDıES 237BRADESCO       040515        MX0000768                                                                                                                                                                                                                                                                                     000001
1                   000902692011248461-15324                  0000000000000015324100000000002               0115324     28041500000005678190000000012N170415120000000000018930000000000000000000000000000000000000000000000262232889000190Banco Daycoval S/A                      Avenida Paulista ,1793-02∫ Andar                    01311200                                                            000002
1                   000902692011248461-15325                  0000000000000015325P00000000002               0115325     27041500000000234830000000012N170415120000000000000780000000000000000000000000000000000000000000000253283180000122Tesheiner Cavassani e Giacomazi AdvogadoRua Jo„o Adolfo,118-Conj. 405                       01050020                                                            000003
1                   000902692011248461-15326                  0000000000000015326800000000002               0115326     27041500000000180000000000012N170415120000000000000600000000000000000000000000000000000000000000000253283180000122Tesheiner Cavassani e Giacomazi AdvogadoRua Jo„o Adolfo,118-Conj. 405                       01050020                                                            000004
1                   000902692011248461-15328                  0000000000000015328400000000002               0115328     02051500000000709200000000012N220415120000000000002360000000000000000000000000000000000000000000000253283180000122Tesheiner Cavassani e Giacomazi AdvogadoRua Jo„o Adolfo,118-Conj. 405                       01050020                                                            000005
1                   000902692011248461-15329                  0000000000000015329200000000002               0115329     02051500000000264250000000012N220415120000000000000880000000000000000000000000000000000000000000000253283180000122Tesheiner Cavassani e Giacomazi AdvogadoRua Jo„o Adolfo,118-Conj. 405                       01050020                                                            000006
1                   000902692011248461-15330                  0000000000000015330600000000002               0115330     02051500000001467650000000012N220415120000000000004890000000000000000000000000000000000000000000000262232889000190Banco Daycoval S/A                      Avenida Paulista ,1793-02∫ Andar                    01311200                                                            000007
1                   000902692011248461-15331                  0000000000000015331400000000002               0115331     03051500000000100000000000012N230415120000000000000330000000000000000000000000000000000000000000000200360305098830CAIXA ECONOMICA FEDERAL                 Avenida Padre AntÙnio JosÈ dos Santos ,4            04563013                                                            000008
1                   000902692011248461-15332                  0000000000000015332200000000002               0115332     04051500000000750560000000012N2404151200000000000025000000000000000000000000000000000000000000000002000000006958231 Banco do Brasil S.A.                  Avenida Paulista,2300-8∫ Andar                      01310300                                                            000009
1                   000902692011248461-15333                  0000000000000015333000000000002               0115333     04051500000000180000000000012N240415120000000000000600000000000000000000000000000000000000000000000253283180000122Tesheiner Cavassani e Giacomazi AdvogadoRua Jo„o Adolfo,118-Conj. 405                       01050020                                                            000010
1                   000902692011248461-15334                  0000000000000015334900000000002               0115334     04051500000000784450000000012N240415120000000000002610000000000000000000000000000000000000000000000200360305063700104 Caixa EconÙmica Federal             AV: Rui Barbosa,281/287                             06311000                                                            000011
1                   000902692011248461-15335                  0000000000000015335700000000002               0115335     09051500000000266000000000012N290415120000000000000890000000000000000000000000000000000000000000000200360305025441104 Caixa EconÙmica Federal             Rua Joaquim Floriano,446                            04534002                                                            000012
1                   000902692011248461-15336                  0000000000000015336500000000002               0115336     09051500000000226000000000012N290415120000000000000750000000000000000000000000000000000000000000000200360305025441104 Caixa EconÙmica Federal             Rua Joaquim Floriano,446                            04534002                                                            000013
1                   000902692011248461-15337                  0000000000000015337300000000002               0115337     09051500000000452000000000012N290415120000000000001510000000000000000000000000000000000000000000000200360305025441104 Caixa EconÙmica Federal             Rua Joaquim Floriano ,446-5∫ andar                  04534002                                                            000014
1                   000902692011248461-15338                  0000000000000015338100000000002               0115338     09051500000000100000000000012N290415120000000000000330000000000000000000000000000000000000000000000200360305063700104 Caixa EconÙmica Federal             AV: Rui Barbosa,281/287                             06311000                                                            000015
1                   000902692011248461-15339                  0000000000000015339P00000000002               0115339     09051500000000360000000000012N290415120000000000001200000000000000000000000000000000000000000000000253283180000122Tesheiner Cavassani e Giacomazi AdvogadoRua Jo„o Adolfo,118-Conj. 405                       01050020                                                            000016
1                   000902692011248461-15340                  0000000000000015340300000000002               0115340     09051500000000180000000000012N290415120000000000000600000000000000000000000000000000000000000000000253283180000122Tesheiner Cavassani e Giacomazi AdvogadoRua Jo„o Adolfo,118-Conj. 405                       01050020                                                            000017
1                   000902692011248461-15341                  0000000000000015341100000000002               0115341     09051500000000180000000000012N290415120000000000000600000000000000000000000000000000000000000000000253283180000122Tesheiner Cavassani e Giacomazi AdvogadoRua Jo„o Adolfo,118-Conj. 405                       01050020                                                            000018
1                   000902692011248461-15342                  0000000000000015342P00000000002               0115342     09051500000000180000000000012N290415120000000000000600000000000000000000000000000000000000000000000205888414000112CREA«’ES MX FASHION LIMITADA            Rua AimorÈs - lado par,210                          01122010                                                            000019
1                   000902692011248461-15343                  0000000000000015343800000000002               0115343     09051500000000180000000000012N290415120000000000000600000000000000000000000000000000000000000000000253283180000122Tesheiner Cavassani e Giacomazi AdvogadoRua Jo„o Adolfo,118-Conj. 405                       01050020                                                            000020
1                   000902692011248461-15344                  0000000000000015344600000000002               0115344     09051500000000180000000000012N290415120000000000000600000000000000000000000000000000000000000000000253283180000122Tesheiner Cavassani e Giacomazi AdvogadoRua Jo„o Adolfo,118-Conj. 405                       01050020                                                            000021
1                   000902692011248461-15345                  0000000000000015345400000000002               0115345     09051500000000180000000000012N290415120000000000000600000000000000000000000000000000000000000000000253283180000122Tesheiner Cavassani e Giacomazi AdvogadoRua Jo„o Adolfo,118-Conj. 405                       01050020                                                            000022
1                   000902692011248461-15346                  0000000000000015346200000000002               0115346     04051500000007000000000000012N290415000000000000000000000000000000000000000000000000000000000000000220354043000182Clarice Lopes Moraes Marcheti - ME      Rua Ot·vio Nunes da Silva,57                        07021001Referente a negociaÁ„o do dÈb de Royalties. (09/14 ‡ 03/15) 000023
1                   000902692011248461-15347                  0000000000000015347000000000002               0115347     09051500000060000000000000012N300415000000000000000000000000000000000000000000000000000000000000000100079725651553Vanessa Guimaraes do Nascimento         Rua Astrozilso Sepulveda, 17 Conj. Ibrom            40340765TAXA DE FRANQUIA - SALVADOR/BA                              000024
1                   000902692011248461-15348                  0000000000000015348900000000002               0115348     08051500000000126950000000012N040515000000000000000420000000000000000000000000000000000000000000000111029315000188SUZAN CART CERTIDOES LTDA - ME          Rua Gal. Francisco GlicÈrio,1185                    08674003Protesto apÛs 5 dias                                        000025
1                   000902692011248461-15349                  0000000000000015349700000000002               0115349     08051500000000243500000000012N040515000000000000000810000000000000000000000000000000000000000000000111163439000151RF-SERVICOS DE DOCUMENTACAO LTDA.       Av. Mal. Castelo Branco,173-A                       65076090Protesto apÛs 5 dias                                        000026
1                   000902692011248461-15350                  0000000000000015350000000000002               0115350     08051500000001000000000000012N040515000000000000003330000000000000000000000000000000000000000000000110999668000148ASSESSORIA E CONSULTORIA DE DOCUMENTOS ER. Leopoldo Machado,242-Loja 02                     18035075Protesto apÛs 5 dias                                        000027
1                   000902692011248461-15351                  0000000000000015351900000000002               0115351     08051500000001300000000000012N040515000000000000004330000000000000000000000000000000000000000000000111165549000152D¥ VASQUEZ SERVI«OS CARTORARIOS LTDA - EAv. Dr. Jo„o Guilhermino,293                        12210131Protesto apÛs 5 dias                                        000028
1                   000902692011248461-15352                  0000000000000015352700000000002               0115352     08051500000001000000000000012N040515000000000000003330000000000000000000000000000000000000000000000111144435000126DOCK STATION INTERMEDIA«√O CARTOR¡RIA LTRua da Quitanda,20-4∫ andar ñ Sala 401              20011972Protesto apÛs 5 dias                                        000029
1                   000902692011248461-15353                  0000000000000015353500000000002               0115353     08051500000001000000000000012N040515000000000000003330000000000000000000000000000000000000000000000114816778000188Oliveira IntermediaÁ„o Cartor·ria LTDA MRua Delfino Cintra,500 AxB                          13020100Protesto apÛs 5 dias                                        000030
1                   000902692011248461-15354                  0000000000000015354300000000002               0115354     08051500000000500000000000012N040515000000000000001670000000000000000000000000000000000000000000000111253279000131¡GAPE SERVI«OS E INTERMEDIA«’ES CARTOR¡RR. Gov. Pedro de Toledo,569                         13400070Protesto apÛs 5 dias                                        000031
1                   000902692011248461-15355                  0000000000000015355100000000002               0115355     08051500000001000000000000012N040515000000000000003330000000000000000000000000000000000000000000000106058057000128CTPOST SERVI«OS LTDA ME                 R. Chaves Barcelos,131                              90030120Protesto apÛs 5 dias                                        000032
1                   000902692011248461-15356                  0000000000000015356P00000000002               0115356     08051500000000000000000000012N040515000000000000000000000000000000000000000000000000000000000000000113238744000190ARCHANJO TEIXEIRA PREPARA«√O DE DOCUMENTAv. Brasil,1586-Loja 06                             30140003Protesto apÛs 5 dias                                        000033
1                   000902692011248461-15357                  0000000000000015357800000000002               0115357     08051500000000000000000000012N040515000000000000000000000000000000000000000000000000000000000000000112761154000185MC PRESTADORA DE SERVI«OS ADMINISTRATIVORua Marechal JosÈ B. Bormann,164 E-Sala             89802120Protesto apÛs 5 dias                                        000034
1                   000902692011248461-15358                  0000000000000015358600000000002               0115358     08051500000000500000000000012N040515000000000000001670000000000000000000000000000000000000000000000111675298000156MORANDO & MORANDO SERV TRANSCRI«√O DOCUMRua TibiriÁ·,189                                    14010090Protesto apÛs 5 dias                                        000035
1                   000902692011248461-15359                  0000000000000015359400000000002               0115359     08051500000000000000000000012N040515000000000000000000000000000000000000000000000000000000000000000113329559000101FACIL SERVICOS ADMINISTRATIVOS LTDA ME  Av. das Emba˙bas,952                                78550222Protesto apÛs 5 dias                                        000036
1                   000902692011248461-15360                  0000000000000015360800000000002               0115360     08051500000000000000000000012N040515000000000000000000000000000000000000000000000000000000000000000111564744000155SARAIVA¥S CONSULTORIA EMPRESARIAL LTDA  Rua Prefeito JosÈ Santana Trigueiro,183             32604188Protesto apÛs 5 dias                                        000037
1                   000902692011248461-15361                  0000000000000015361600000000002               0115361     08051500000000000000000000012N040515000000000000000000000000000000000000000000000000000000000000000111425891000144MHG SERVI«OS ADMINISTRATIVOS EMPRESAS LTAv. Tocantins,1124                                  74075100Protesto apÛs 5 dias                                        000038
1                   000902692011248461-15362                  0000000000000015362400000000002               0115362     08051500000000500000000000012N040515000000000000001670000000000000000000000000000000000000000000000111479061000108ANDRADE SOARES LOPES LTDA               Rua Lehar David,05                                  45000445Protesto apÛs 5 dias                                        000039
1                   000902692011248461-15363                  0000000000000015363200000000002               0115363     08051500000000000000000000012N040515000000000000000000000000000000000000000000000000000000000000000111777632000182CFN ASSESSORIA EM DOCUMENTOS LTDA       R Prefeito Carlos JosÈ Carlson,226-CJ 01            09450000Protesto apÛs 5 dias                                        000040
1                   000902692011248461-15364                  0000000000000015364000000000002               0115364     08051500000000500000000000012N040515000000000000001670000000000000000000000000000000000000000000000111222886000134ELIDA ASSESSORIA EMPRESARIAL LTDA       R. Neo Alves Martins,2955-Sala 03                   87013060Protesto apÛs 5 dias                                        000041
1                   000902692011248461-15365                  0000000000000015365900000000002               0115365     08051500000000047500000000012N040515000000000000000160000000000000000000000000000000000000000000000111834699000101REGIS ORLANDINI ASSESSORIA CARTORARIA LTAv. Jo„o Naves de ¡vila,81                          38400600Protesto apÛs 5 dias                                        000042
1                   000902692011248461-15366                  0000000000000015366700000000002               0115366     08051500000000500000000000012N040515000000000000001670000000000000000000000000000000000000000000000119762311000116J. LOPES - ME                           Rua Luso Brasileira,4-44-SL 103                     17016230Protesto apÛs 5 dias                                        000043
1                   000902692011248461-15367                  0000000000000015367500000000002               0115367     08051500000000500000000000012N040515000000000000001670000000000000000000000000000000000000000000000111838860000115M.L. CARDOSO - PRESTA«√O DE SERVI«OS - ERua Luiz Pereira Barreto,304                        16010320Protesto apÛs 5 dias                                        000044
1                   000902692011248461-15368                  0000000000000015368300000000002               0115368     08051500000000500000000000012N040515000000000000001670000000000000000000000000000000000000000000000118433773000127MUZETI ASSESSORIA CARTORARIA LTDA ME    Rua 20,1022                                         14780070Protesto apÛs 5 dias                                        000045
1                   000902692011248461-15369                  0000000000000015369100000000002               0115369     08051500000000500000000000012N040515000000000000001670000000000000000000000000000000000000000000000119450025000115SAITO & SAITO ASSESSORIA E SERVI«OS LTDAAv. Francisco de Paula Leite,1699                   13344325Protesto apÛs 5 dias                                        000046
1                   000902692011248461-15370                  0000000000000015370500000000002               0115370     08051500000000500000000000012N040515000000000000001670000000000000000000000000000000000000000000000112443155000181ASSESSORIA E CONSULTORIA CARTORARIA DE DRua Santa Cruz,652                                  13300090Protesto apÛs 5 dias                                        000047
1                   000902692011248461-15371                  0000000000000015371300000000002               0115371     08051500000000500000000000012N040515000000000000001670000000000000000000000000000000000000000000000112632803000148RUBIANA SERVI«OS DE CARTORIO, CERTID’ES Rua das Esmeraldas,186                              09920520Protesto apÛs 5 dias                                        000048
1                   000902692011248461-15372                  0000000000000015372100000000002               0115372     08051500000000500000000000012N040515000000000000001670000000000000000000000000000000000000000000000102248702000114MOURA E MENEZES SERVI«OS ADMINISTRATIVOSRua Dr. Curvelo Cavalcante,189-Loja 101             23810201Protesto apÛs 5 dias                                        000049
1                   000902692011248461-15373                  0000000000000015373P00000000002               0115373     08051500000000500000000000012N040515000000000000001670000000000000000000000000000000000000000000000111619454000161ASSESSORIA CARTOR¡RIA DO NORDESTE LTDA  Rua AntÙnio de Castro,114-LJ 05                     52070080Protesto apÛs 5 dias                                        000050
1                   000902692011248461-15374                  0000000000000015374800000000002               0115374     08051500000000500000000000012N040515000000000000001670000000000000000000000000000000000000000000000112572498000146Alphacentral Documentos e ServiÁos LTDA Rua Cel. Siqueira de Moraes,125/127                 13201032Protesto apÛs 5 dias                                        000051
1                   000902692011248461-15375                  0000000000000015375600000000002               0115375     08051500000000500000000000012N040515000000000000001670000000000000000000000000000000000000000000000121117773000122JR CONSULTORIA INTERMEDIACAO CARTORARIA Rua Visconde de Sepetiba,935-SL 625                 24020206Protesto apÛs 5 dias                                        000052
1                   000902692011248461-15376                  0000000000000015376400000000002               0115376     08051500000000366150000000012N040515000000000000001220000000000000000000000000000000000000000000000112139078000170RW MARIZ ESTRUTURA CARTORAL LTDA        Av Epit·cio Pessoa,475-Sala 05                      58030906Protesto apÛs 5 dias                                        000053
1                   000902692011248461-15377                  0000000000000015377200000000002               0115377     08051500000001200000000000012N040515000000000000004000000000000000000000000000000000000000000000000113133167000172G I CART SERVI«OS ORGANIZACIONAIS LTDA  Rua dos Marianos,132                                06016050Protesto apÛs 5 dias                                        000054
1                   000902692011248461-15378                  0000000000000015378000000000002               0115378     08051500000000000000000000012N040515000000000000000000000000000000000000000000000000000000000000000113287999000143ASSESSORIA CARTOR¡RIA P¡DUA LTDA        Rua Tiradentes,112-SL 201                           28300000Protesto apÛs 5 dias                                        000055
1                   000902692011248461-15379                  0000000000000015379900000000002               0115379     08051500000000000000000000012N040515000000000000000000000000000000000000000000000000000000000000000113913099000164ERM ServiÁos Administrativos LTDA       Rua 7 de Setembro,1315                              89010203Protesto apÛs 5 dias                                        000056
1                   000902692011248461-15380                  0000000000000015380200000000002               0115380     08051500000000500000000000012N040515000000000000001670000000000000000000000000000000000000000000000113321680000197Ana Claudia Barbiere Alves Ferreira - MEAv. Brasil,326                                      14801050Protesto apÛs 5 dias                                        000057
1                   000902692011248461-15381                  0000000000000015381000000000002               0115381     08051500000000000000000000012N040515000000000000000000000000000000000000000000000000000000000000000117655488000198KAEL INTERMEDIA«’ES CARTOR¡RIAS LTDA ME Av. Monte Castelo,720                               13450032Protesto apÛs 5 dias                                        000058
1                   000902692011248461-15382                  0000000000000015382900000000002               0115382     08051500000000144250000000012N040515000000000000000480000000000000000000000000000000000000000000000113350598000190CP SERVI«OS ADMINISTRATIVO LTDA - ME    Rua Arnaldo Estev„o de Figueiredo,640               78700150Protesto apÛs 5 dias                                        000059
1                   000902692011248461-15383                  0000000000000015383700000000002               0115383     08051500000000000000000000012N040515000000000000000000000000000000000000000000000000000000000000000113585685000127ASSESSORIA CARTOR¡RIA LIMEIRA LTDA ME   Rua Deputado Octavio Lopes,304 B                    13480021Protesto apÛs 5 dias                                        000060
1                   000902692011248461-15384                  0000000000000015384500000000002               0115384     08051500000000069990000000012N040515000000000000000230000000000000000000000000000000000000000000000113406670000154RODRIGUES E VIEIRA LTDA.                104 SUL RUA SE 05 LOTE 23 | AC JK CAIXA             77006970Protesto apÛs 5 dias                                        000061
1                   000902692011248461-15385                  0000000000000015385300000000002               0115385     08051500000000350000000000012N040515000000000000001170000000000000000000000000000000000000000000000113743219000122Valentim e Silva ServiÁos               PraÁa AntÙnio Dias,584                              38700110Protesto apÛs 5 dias                                        000062
1                   000902692011248461-15386                  0000000000000015386100000000002               0115386     08051500000000300000000000012N040515000000000000001000000000000000000000000000000000000000000000000113433192000171CONSULT SERVICE ASSESSORIA CARTOR¡RIA LTRua Episcopal,1714-Loja 02                          13560570Protesto apÛs 5 dias                                        000063
1                   000902692011248461-15387                  0000000000000015387P00000000002               0115387     08051500000000005260000000012N040515000000000000000020000000000000000000000000000000000000000000000113576355000175LEME ASSESSORIA E CONSULTORIA DE DOCUMENRua Prudente de Moraes,933                          13320160Protesto apÛs 5 dias                                        000064
1                   000902692011248461-15388                  0000000000000015388800000000002               0115388     08051500000000000000000000012N040515000000000000000000000000000000000000000000000000000000000000000114495115000109MSC ASSESSORIA E CONSULTORIA CARTORARIA Rua Duque de Caxias,161                             06401010Protesto apÛs 5 dias                                        000065
1                   000902692011248461-15389                  0000000000000015389600000000002               0115389     08051500000000500000000000012N040515000000000000001670000000000000000000000000000000000000000000000113845551000106MACEDO & MELO INTERMEDIACOES CARTORARIASRUA LIZANDRO NOGUEIRA,1223-SALA 304                 64000200Protesto apÛs 5 dias                                        000066
1                   000902692011248461-15390                  0000000000000015390P00000000002               0115390     08051500000000000000000000012N040515000000000000000000000000000000000000000000000000000000000000000113800899000179TEIXEIRA CARREIRO INTERMEDIACAO CARTORARRua Alan Kardec,50-SL 712                           27541290Protesto apÛs 5 dias                                        000067
1                   000902692011248461-15391                  0000000000000015391800000000002               0115391     08051500000000500000000000012N040515000000000000001670000000000000000000000000000000000000000000000114142222000153Araujo Oliveira Assessoria Cartoraria LTAv. Radial B,60-LJ 02                               42807380Protesto apÛs 5 dias                                        000068
1                   000902692011248461-15392                  0000000000000015392600000000002               0115392     08051500000000000000000000012N040515000000000000000000000000000000000000000000000000000000000000000114041706000106HMR - EXPRESS DOCUMENTOS LTDA - ME      Rua Daniel de Oliveira Carvalho,253                 13660000Protesto apÛs 5 dias                                        000069
1                   000902692011248461-15393                  0000000000000015393400000000002               0115393     08051500000000000000000000012N040515000000000000000000000000000000000000000000000000000000000000000116806807000156M MARRAS SERVICOS E EVENTOS LTDA - ME   Rua Volunt·rios da Franca,453                       14405103Protesto apÛs 5 dias                                        000070
1                   000902692011248461-15394                  0000000000000015394200000000002               0115394     08051500000000500000000000012N040515000000000000001670000000000000000000000000000000000000000000000114456232000163ALVES & UEMURA ASSESSORIA COMERCIAL E INRua Juscelino K. de Oliveira,710-LJ 02              37580000Protesto apÛs 5 dias                                        000071
1                   000902692011248461-15395                  0000000000000015395000000000002               0115395     08051500000000500000000000012N040515000000000000001670000000000000000000000000000000000000000000000111834699000292REGIS ORLANDINI ASSESSORIA CARTOR¡RIA EPPraÁa Manoel Bonito,65                              38440076Protesto apÛs 5 dias                                        000072
1                   000902692011248461-15396                  0000000000000015396900000000002               0115396     08051500000000500000000000012N040515000000000000001670000000000000000000000000000000000000000000000115003436000101Via R·pida IntermediaÁ„o Cartor·ria LTDARua Vereador Juca Pena,10                           36400000Protesto apÛs 5 dias                                        000073
1                   000902692011248461-15397                  0000000000000015397700000000002               0115397     08051500000000500000000000012N040515000000000000001670000000000000000000000000000000000000000000000114467333000130Sirley Santos Niemic - ME               Av. Municipal,1779 A                                78250000Protesto apÛs 5 dias                                        000074
1                   000902692011248461-15398                  0000000000000015398500000000002               0115398     08051500000000500000000000012N040515000000000000001670000000000000000000000000000000000000000000000114567761000134ABEN INTERMEDIACAO CARTORARIA LTDA ME   Av. Leopoldino de Oliveira,4464-Ed. Diam            38060000Protesto apÛs 5 dias                                        000075
1                   000902692011248461-15399                  0000000000000015399300000000002               0115399     08051500000000500000000000012N040515000000000000001670000000000000000000000000000000000000000000000114547088000170SPEED FOX ASSESSORIA CARTORARIA LTDA ME Rua General Dionisio,410-LOJA                       25075095Protesto apÛs 5 dias                                        000076
1                   000902692011248461-15400                  0000000000000015400000000000002               0115400     08051500000000000000000000012N040515000000000000000000000000000000000000000000000000000000000000000114911193000147LOPES E LOPES INTERMEDIA√á√ÉO CARTOR√ÅRIRua Marechal Deodoro,444-loja 322                   36010904Protesto apÛs 5 dias                                        000077
1                   000902692011248461-15401                  0000000000000015401900000000002               0115401     08051500000000400000000000012N040515000000000000001330000000000000000000000000000000000000000000000115220454000226RENAULT ASSOCIADOS INTERMEDIACOES CARTORRua Benedito Valadares,520-LJ 03                    35660630Protesto apÛs 5 dias                                        000078
1                   000902692011248461-15402                  0000000000000015402700000000002               0115402     08051500000000500000000000012N040515000000000000001670000000000000000000000000000000000000000000000120019555000192SERV MASTER SERVICOS E LOGISTICA LTDA ñMRua Bar„o do Rio Branco,1089                        16200001Protesto apÛs 5 dias                                        000079
1                   000902692011248461-15403                  0000000000000015403500000000002               0115403     08051500000001000000000000012N040515000000000000003330000000000000000000000000000000000000000000000115447264000165CAMPDOC INTERMEDIA«√O CARTOR¡RIA LTDA ñ Av. Carlos de Ara˙jo Gobbi,325                      13034670Protesto apÛs 5 dias                                        000080
1                   000902692011248461-15404                  0000000000000015404300000000002               0115404     08051500000000000000000000012N040515000000000000000000000000000000000000000000000000000000000000000115425969000181JKIM SERVI«OS E INTERMEDIA«√O LTDA      Rua A,501-QD 08 LT 05                               68515000Protesto apÛs 5 dias                                        000081
1                   000902692011248461-15405                  0000000000000015405100000000002               0115405     08051500000000500000000000012N040515000000000000001670000000000000000000000000000000000000000000000120603641000148GUARAPARI SERVICOS CARTORARIOS LTDA - MERua Roberto Calmon,140                              29200340Protesto apÛs 5 dias                                        000082
1                   000902692011248461-15406                  0000000000000015406P00000000002               0115406     08051500000000500000000000012N040515000000000000001670000000000000000000000000000000000000000000000115328775000168Bagini e Okumura IntermediaÁıes Cartor·rRua Laurindo Borges,1494                            87303240Protesto apÛs 5 dias                                        000083
1                   000902692011248461-15407                  0000000000000015407800000000002               0115407     08051500000000500000000000012N040515000000000000001670000000000000000000000000000000000000000000000115523647000175TGD ASSESSORIA E CONSULTORIA LTDA       Rua Coronel Antonio Cardoso Pinto,34 A              37640000Protesto apÛs 5 dias                                        000084
1                   000902692011248461-15408                  0000000000000015408600000000002               0115408     08051500000000500000000000012N040515000000000000001670000000000000000000000000000000000000000000000116465255000160Tocantins IntermediaÁ„o Cartor·ria LTDA-RUA RODOVI¡RIA,193-SALA 01                          77805040Protesto apÛs 5 dias                                        000085
1                   000902692011248461-15409                  0000000000000015409400000000002               0115409     08051500000000500000000000012N040515000000000000001670000000000000000000000000000000000000000000000115731322000188MEIRELES SERVI«OS DE APOIO ADMINISTRATIVRua JosÈ Marcelino de Oliveira,374-BAIXO            67030170Protesto apÛs 5 dias                                        000086
1                   000902692011248461-15410                  0000000000000015410800000000002               0115410     08051500000001000000000000012N040515000000000000003330000000000000000000000000000000000000000000000115803475000193PEDRO, BASTOS & JONES SERVI«OS ASMINISTRRua Duque de Caxias,01-SL 31                        28613060Protesto apÛs 5 dias                                        000087
1                   000902692011248461-15411                  0000000000000015411600000000002               0115411     08051500000000500000000000012N040515000000000000001670000000000000000000000000000000000000000000000115872523000103HEITOR PIGHINI BARBADO ME               Rua Senador JosÈ Bonif·cio,312-B                    13800060Protesto apÛs 5 dias                                        000088
1                   000902692011248461-15412                  0000000000000015412400000000002               0115412     08051500000000500000000000012N040515000000000000001670000000000000000000000000000000000000000000000118997889000199CP CAMPO GRANDE INTERMEDIACOES CARTORARIRua Professor Castilhos,431-SL 514                  23045060Protesto apÛs 5 dias                                        000089
1                   000902692011248461-15413                  0000000000000015413200000000002               0115413     08051500000001000000000000012N040515000000000000003330000000000000000000000000000000000000000000000115703802000135Assecar Apoio Administrativo de MArilia Rua Carlos Gomes,343                                17501000Protesto apÛs 5 dias                                        000090
1                   000902692011248461-15414                  0000000000000015414000000000002               0115414     08051500000000500000000000012N040515000000000000001670000000000000000000000000000000000000000000000115665799000102OLIVEIRA E PEIXOTO LTDA                 Rua da It·lia,,7-1∫ andar                           45200191Protesto apÛs 5 dias                                        000091
1                   000902692011248461-15415                  0000000000000015415900000000002               0115415     08051500000000500000000000012N040515000000000000001670000000000000000000000000000000000000000000000116911487000102L & A INTERMEDIA«’ES CARTOR¡RIAS LTDA   Rua Marechal Deodoro,111                            48005020Protesto apÛs 5 dias                                        000092
1                   000902692011248461-15416                  0000000000000015416700000000002               0115416     08051500000000350000000000012N040515000000000000001170000000000000000000000000000000000000000000000116615091000100MEG INTERMEDIA«√O CARTOR¡RIA            Av. 13,625                                          13500340Protesto apÛs 5 dias                                        000093
1                   000902692011248461-15417                  0000000000000015417500000000002               0115417     08051500000000200000000000012N040515000000000000000670000000000000000000000000000000000000000000000115696350000101Almeida IntermediaÁ„o cartor·ria LTDA MERua JosÈ Brenha Ribeiro,23                          18130495Protesto apÛs 5 dias                                        000094
1                   000902692011248461-15418                  0000000000000015418300000000002               0115418     08051500000000500000000000012N040515000000000000001670000000000000000000000000000000000000000000000119373945000187MR Sistema de IntermediaÁ„o Cartor·ria LRua 29 de Abril,123                                 13256000Protesto apÛs 5 dias                                        000095
1                   000902692011248461-15419                  0000000000000015419100000000002               0115419     08051500000000500000000000012N040515000000000000001670000000000000000000000000000000000000000000000115761167000142DOC SERVICE SERVI«OS DOCUMENTAIS LTDA   Rua Marechal Floriano Peixoto,1562-Sala             85851020Protesto apÛs 5 dias                                        000096
1                   000902692011248461-15420                  0000000000000015420500000000002               0115420     08051500000000500000000000012N0405150000000000000016700000000000000000000000000000000000000000000001157926280001442 W V INTERMEDIA«√O CARTOR¡RIA LTDA-ME  Rua Marechal Deodoro,44                             12500210Protesto apÛs 5 dias                                        000097
1                   000902692011248461-15421                  0000000000000015421300000000002               0115421     08051500000000500000000000012N040515000000000000001670000000000000000000000000000000000000000000000115779486000185ANA LIDIA ANDRADE VASCONCELOS CISOTTO - Rua Angelo Gianotti,55-sala 4                       18550000Protesto apÛs 5 dias                                        000098
1                   000902692011248461-15422                  0000000000000015422100000000002               0115422     08051500000001000000000000012N040515000000000000003330000000000000000000000000000000000000000000000116651907000150COTIA CENTRAL - SERVI«OS ADMINISTRATIVOSRua Joaquim Nunes Filho,204                         06717180Protesto apÛs 5 dias                                        000099
1                   000902692011248461-15423                  0000000000000015423P00000000002               0115423     08051500000001650000000000012N040515000000000000005500000000000000000000000000000000000000000000000117013577000130RIBEIRO INTERMEDIA«√O CARTOR¡RIA LTDA.  Av. Presidente Marques,1212                         78045008Protesto apÛs 5 dias                                        000100
1                   000902692011248461-15424                  0000000000000015424800000000002               0115424     08051500000000500000000000012N040515000000000000001670000000000000000000000000000000000000000000000116455215000137MIM Consultoria, Assessoria e IntermediaRua Gal. Bacelar,504                                96200370Protesto apÛs 5 dias                                        000101
1                   000902692011248461-15425                  0000000000000015425600000000002               0115425     08051500000001000000000000012N040515000000000000003330000000000000000000000000000000000000000000000116988183000135MENEZES & AMARAL INTERMEDIA«√O CARTOR¡RIRua Israel Pinheiro,2500-LJ 1                       35020220Protesto apÛs 5 dias                                        000102
1                   000902692011248461-15426                  0000000000000015426400000000002               0115426     08051500000000500000000000012N040515000000000000001670000000000000000000000000000000000000000000000117163022000175DEFTHJ CONSULTORIA E ASSESSORIA CARTOR¡RR. Pedro ProcÛpio,48                                06501130Protesto apÛs 5 dias                                        000103
1                   000902692011248461-15427                  0000000000000015427200000000002               0115427     08051500000000500000000000012N040515000000000000001670000000000000000000000000000000000000000000000116943517000154SOUZA SERVI«OS DE DOCUMENTOS S/S LTDA EPR. Coronel Aureliano de Camargo,666                 18270170Protesto apÛs 5 dias                                        000104
1                   000902692011248461-15428                  0000000000000015428000000000002               0115428     08051500000001000000000000012N040515000000000000003330000000000000000000000000000000000000000000000117206713000109FABIO TOMAZ CARDOSO - ME                Rua Primeiro de Maio,202-SL 507                     09015030Protesto apÛs 5 dias                                        000105
1                   000902692011248461-15429                  0000000000000015429900000000002               0115429     08051500000000500000000000012N040515000000000000001670000000000000000000000000000000000000000000000120175159000154MARGARETE DOS SANTOS ñ MEI              Rua Santos Dumont,123                               38183187Protesto apÛs 5 dias                                        000106
1                   000902692011248461-15430                  0000000000000015430200000000002               0115430     08051500000000500000000000012N040515000000000000001670000000000000000000000000000000000000000000000116899904000130E. F. AURELIA NEGOCIOS E INTERMEDIA«√O CRua Liberdade,596                                   06853700Protesto apÛs 5 dias                                        000107
1                   000902692011248461-15431                  0000000000000015431000000000002               0115431     08051500000000500000000000012N040515000000000000001670000000000000000000000000000000000000000000000116949930000126CIRENO FILHO INTERMEDIA«√O CARTORARIA   Rua Carlos Eduardo Nichele,1382-LJ01                83833022Protesto apÛs 5 dias                                        000108
1                   000902692011248461-15432                  0000000000000015432900000000002               0115432     08051500000000500000000000012N040515000000000000001670000000000000000000000000000000000000000000000116811847000196TOLEDO & PEREIRA VASSALO LTDA ME        Rua Santos Pereira,212                              37500026Protesto apÛs 5 dias                                        000109
1                   000902692011248461-15433                  0000000000000015433700000000002               0115433     08051500000001000000000000012N040515000000000000003330000000000000000000000000000000000000000000000116819238000183CARLOS ALBERTO ROCHA DE MELO - ME       R. HermÛgenes Freire da Costa,02-LJ 05              28940000Protesto apÛs 5 dias                                        000110
1                   000902692011248461-15434                  0000000000000015434500000000002               0115434     08051500000000500000000000012N040515000000000000001670000000000000000000000000000000000000000000000116945793000151JLM INTERMEDIA«√O CARTOR¡RIA LTDA       Av. Tiradentes,618-LJ 03                            36307348Protesto apÛs 5 dias                                        000111
1                   000902692011248461-15435                  0000000000000015435300000000002               0115435     08051500000001750000000000012N040515000000000000005830000000000000000000000000000000000000000000000116927836000176C. M. MILROT CONSULTORIA E INTERMEDIA«√OAl. Ribeir„o Preto,551-SL 24                        01331001Protesto apÛs 5 dias                                        000112
1                   000902692011248461-15436                  0000000000000015436100000000002               0115436     08051500000000500000000000012N040515000000000000001670000000000000000000000000000000000000000000000116935668000160FLASH DOC INTERMEDIA«’ES CARTORARIAS    Av. Caetano Barrela,209                             06763460Protesto apÛs 5 dias                                        000113
1                   000902692011248461-15437                  0000000000000015437P00000000002               0115437     08051500000001100000000000012N040515000000000000003670000000000000000000000000000000000000000000000117829100000128JS & BOIM INTERMEDIA«√O CARTOR¡RIA LTDA Rua Tabatinguera,140-SL 409 e 410                   01020000Protesto apÛs 5 dias                                        000114
1                   000902692011248461-15438                  0000000000000015438800000000002               0115438     08051500000001000000000000012N040515000000000000003330000000000000000000000000000000000000000000000112587280000165RTC INTERMEDIA«√O CARTOR¡RIA LTDA - ME  Rua Montenegro,171 A                                11410040Protesto apÛs 5 dias                                        000115
1                   000902692011248461-15439                  0000000000000015439600000000002               0115439     08051500000000500000000000012N040515000000000000001670000000000000000000000000000000000000000000000116729531000150GOMES VERAS INTERMEDIA«√O CARTOR¡RIA LTDRua Maranh„o,763-Sala 17 R                          65901590Protesto apÛs 5 dias                                        000116
1                   000902692011248461-15440                  0000000000000015440P00000000002               0115440     08051500000002000000000000012N040515000000000000006670000000000000000000000000000000000000000000000116970183000108NR INTERMEDIA«√O CARTOR¡RIA LTDA        Av. Dom Luis,500-Piso L0, Loja 38, Shopp            60160196Protesto apÛs 5 dias                                        000117
1                   000902692011248461-15441                  0000000000000015441800000000002               0115441     08051500000000500000000000012N040515000000000000001670000000000000000000000000000000000000000000000117103695000210Vale Rio - IntermediaÁ„o Cartor·ria LtdaRua do ParaÌso,97-SL 29                             48903050Protesto apÛs 5 dias                                        000118
1                   000902692011248461-15442                  0000000000000015442600000000002               0115442     08051500000000500000000000012N040515000000000000001670000000000000000000000000000000000000000000000117103695000130VALE RIO - INTERMEDIA«√O CARTOR¡RIA LTDAPraÁa Pio XII,290-2∫ Andar, SL 01                   56304430Protesto apÛs 5 dias                                        000119
1                   000902692011248461-15443                  0000000000000015443400000000002               0115443     08051500000001000000000000012N040515000000000000003330000000000000000000000000000000000000000000000117488037000103LG INTERMEDIA«√O CARTOR¡RIA LTDA ME     Rua Rafael Nascimento,300 C                         75901290Protesto apÛs 5 dias                                        000120
1                   000902692011248461-15444                  0000000000000015444200000000002               0115444     08051500000000500000000000012N040515000000000000001670000000000000000000000000000000000000000000000117197147000116POSTCAR INTERMEDIA«√O CARTOR¡RIA LTDA   Rua Amaro Genari,40-Sala 33                         09810270Protesto apÛs 5 dias                                        000121
1                   000902692011248461-15445                  0000000000000015445000000000002               0115445     08051500000000300000000000012N040515000000000000001000000000000000000000000000000000000000000000000117216619000130F E M INTERMEDIA«√O CARTORARIA LTDA ME  Av. Dom Pedro II,135-Sala 22                        37470000Protesto apÛs 5 dias                                        000122
1                   000902692011248461-15446                  0000000000000015446900000000002               0115446     08051500000000500000000000012N040515000000000000001670000000000000000000000000000000000000000000000112762841000115SM GERENCIAMENTO DE CERTID’ES E DOCUMENTRua 18,81                                           76380000Protesto apÛs 5 dias                                        000123
1                   000902692011248461-15447                  0000000000000015447700000000002               0115447     08051500000000500000000000012N040515000000000000001670000000000000000000000000000000000000000000000118325368000195FERREIRA CAMPOS CONSULTORIA E INTERMEDIARua Joaquim Manuel,248                              46430000Protesto apÛs 5 dias                                        000124
1                   000902692011248461-15448                  0000000000000015448500000000002               0115448     08051500000001500000000000012N040515000000000000005000000000000000000000000000000000000000000000000117234137000103Postal Services - Assessoria e ServiÁos PÁ das Orquideas,186-SL 04 | 1∫ Andar               06453002Protesto apÛs 5 dias                                        000125
1                   000902692011248461-15449                  0000000000000015449300000000002               0115449     08051500000000500000000000012N040515000000000000001670000000000000000000000000000000000000000000000117344439000134Carneiro e Santana IntermediaÁ„o Cartor·Rua Brasil,210-SALA A                               19800100Protesto apÛs 5 dias                                        000126
1                   000902692011248461-15450                  0000000000000015450700000000002               0115450     08051500000000500000000000012N040515000000000000001670000000000000000000000000000000000000000000000117474125000156MAGAVIX INTERMEDIA«√O E LOGISTICA DE DISRua Amap·,1777                                      87704070Protesto apÛs 5 dias                                        000127
1                   000902692011248461-15451                  0000000000000015451500000000002               0115451     08051500000000500000000000012N040515000000000000001670000000000000000000000000000000000000000000000118726605000120OLIVEIRA CECHET INTERMEDIA«√O CARTOR¡RIARua Cleriston Andrade,132-QD 23 LT 03 SL            47850000Protesto apÛs 5 dias                                        000128
1                   000902692011248461-15452                  0000000000000015452300000000002               0115452     08051500000000500000000000012N040515000000000000001670000000000000000000000000000000000000000000000117569606000145RP SERVI«OS CARTORARIOS LTDA            Av. Santos Dumont,3257-Comercial MM501 L            42700000Protesto apÛs 5 dias                                        000129
1                   000902692011248461-15453                  0000000000000015453100000000002               0115453     08051500000000500000000000012N040515000000000000001670000000000000000000000000000000000000000000000118532030000104ASSESSORIA POSTAL LTDA - ME             Rua 22,1225                                         38300076Protesto apÛs 5 dias                                        000130
1                   000902692011248461-15454                  0000000000000015454P00000000002               0115454     08051500000000600000000000012N040515000000000000002000000000000000000000000000000000000000000000000109532074000143OTTIMIZA ASSESSORIA CARTORARIA LTDA - MERua Raimundo Chaves,1584                            59064390Protesto apÛs 5 dias                                        000131
1                   000902692011248461-15455                  0000000000000015455800000000002               0115455     08051500000000500000000000012N040515000000000000001670000000000000000000000000000000000000000000000118275563000158FEITOZA SERVI«OS POSTAL LTDA            Rua AntÙnio Guimar„es,604                           65631100Protesto apÛs 5 dias                                        000132
1                   000902692011248461-15456                  0000000000000015456600000000002               0115456     08051500000000500000000000012N040515000000000000001670000000000000000000000000000000000000000000000117497344000150VAP POSTAL INTERMEDIA«√O CARTOR¡RIA LTDARua Teodorico Tourinho,304                          39800010Protesto apÛs 5 dias                                        000133
1                   000902692011248461-15457                  0000000000000015457400000000002               0115457     08051500000000500000000000012N040515000000000000001670000000000000000000000000000000000000000000000113622593000170Moraes & Vessoni Serv. e Ass. CartorariaRua Paran·,629                                      19900021Protesto apÛs 5 dias                                        000134
1                   000902692011248461-15458                  0000000000000015458200000000002               0115458     08051500000000500000000000012N040515000000000000001670000000000000000000000000000000000000000000000121728568000101AndrÈ Luis Calderero Batista Pereira    Rua Vanor Junqueira Franco,300-Fundos               14701010Protesto apÛs 5 dias                                        000135
1                   000902692011248461-15459                  0000000000000015459000000000002               0115459     08051500000000000000000000012N040515000000000000000000000000000000000000000000000000000000000000000100000000000000FACILE ¿ FAIRE                          Rue HonorÈ Longtin,4-1090                           00000000Protesto apÛs 5 dias                                        000136
1                   000902692011248461-15460                  0000000000000015460400000000002               0115460     08051500000000700000000000012N040515000000000000002330000000000000000000000000000000000000000000000117966691000185GERENCIAMENTO DE CERTIDOES E DOCUMENTOS Rua Cincinato Pinto,297-SL 105                      57020670Protesto apÛs 5 dias                                        000137
1                   000902692011248461-15461                  0000000000000015461200000000002               0115461     08051500000000350000000000012N040515000000000000001170000000000000000000000000000000000000000000000117882102000180JK INTERMEDIA«’ES CARTOR¡RIAS           Av. Francisco Monteiro,95                           09400310Protesto apÛs 5 dias                                        000138
1                   000902692011248461-15462                  0000000000000015462000000000002               0115462     08051500000000350000000000012N040515000000000000001170000000000000000000000000000000000000000000000118268113000138LINS E SILVA INTERMEDIA«’ES CARTOR¡RIAS Rua Visconde de Campo Alegre,149-1∫ Anda            54505370Protesto apÛs 5 dias                                        000139
1                   000902692011248461-15463                  0000000000000015463900000000002               0115463     08051500000000500000000000012N040515000000000000001670000000000000000000000000000000000000000000000120794197000195ANH SERVI«OS CARTOR¡RIOS E DOCUMENTAIS LRua AntÙnio Teles de Menezes,41-SL 407              25520630Protesto apÛs 5 dias                                        000140
1                   000902692011248461-15464                  0000000000000015464700000000002               0115464     08051500000001000000000000012N040515000000000000003330000000000000000000000000000000000000000000000118133083000152MALTAURO BEZERRA CONSULTORIA E INTERMEDIAv. Tancredo Neves,1485-SL 408 | Ed. Esp            41820021Protesto apÛs 5 dias                                        000141
1                   000902692011248461-15465                  0000000000000015465500000000002               0115465     08051500000000750000000000012N040515000000000000002500000000000000000000000000000000000000000000000118384480000105INTERMEDIA«√O CARTOR¡RIA INTERLAGOS LTDAAv. Nossa Senhora do Sabar·,1687                    04685004Protesto apÛs 5 dias                                        000142
1                   000902692011248461-15466                  0000000000000015466300000000002               0115466     08051500000000500000000000012N040515000000000000001670000000000000000000000000000000000000000000000118209597000144T A Mendes ServiÁos Administrativos - MERua Visconde do Rio Branco,128                      13600080Protesto apÛs 5 dias                                        000143
1                   000902692011248461-15467                  0000000000000015467100000000002               0115467     08051500000000000000000000012N040515000000000000000000000000000000000000000000000000000000000000000100000008684515LILIAN FITZPATRICK LIMITED              17 Oak House,W10 4DZ                                0W10 4DZProtesto apÛs 5 dias                                        000144
1                   000902692011248461-15468                  0000000000000015468P00000000002               0115468     08051500000000500000000000012N040515000000000000001670000000000000000000000000000000000000000000000118117942000110Rocha OrÁai IntermediaÁ„o Cartor·ria LtdRua dos Leites,69-Sala 118, Galeria PÙr             28470000Protesto apÛs 5 dias                                        000145
1                   000902692011248461-15469                  0000000000000015469800000000002               0115469     08051500000000500000000000012N040515000000000000001670000000000000000000000000000000000000000000000118840724000109RM SERVI«OS DE INTERMEDIA«√O CARTOR¡RIA Av. Get˙lio Vargas,44                               48601260Protesto apÛs 5 dias                                        000146
1                   000902692011248461-15470                  0000000000000015470100000000002               0115470     08051500000001500000000000012N040515000000000000005000000000000000000000000000000000000000000000000118379292000180DOCUMENTUM BRASILIA LTDA - ME           CLN 316-BL E, LJ 06                                 70775550Protesto apÛs 5 dias                                        000147
1                   000902692011248461-15471                  0000000000000015471P00000000002               0115471     08051500000001000000000000012N040515000000000000003330000000000000000000000000000000000000000000000115007025000194FV RepresentaÁ„o Comercial LTDA         Alameda AbricÛ,1856-LJ 03                           28890254Protesto apÛs 5 dias                                        000148
1                   000902692011248461-15472                  0000000000000015472800000000002               0115472     08051500000000500000000000012N040515000000000000001670000000000000000000000000000000000000000000000118254685000168CASTELO BRANCO - INTERMEDIA«√O CART”RARIRua do Sol,382-Loja 06 - Centro Empresar            65300000Protesto apÛs 5 dias                                        000149
1                   000902692011248461-15473                  0000000000000015473600000000002               0115473     08051500000000500000000000012N040515000000000000001670000000000000000000000000000000000000000000000118354262000110BOFF E MULLER INTERMEDIA«√O CARTOR¡RIA LAv. J˙lio de Castilhos,1340-SL 05 - Cent            95010003Protesto apÛs 5 dias                                        000150
1                   000902692011248461-15474                  0000000000000015474400000000002               0115474     08051500000000500000000000012N040515000000000000001670000000000000000000000000000000000000000000000119503612000125BORGES & SARTORI SERVI«OS ADMINISTRATIVOAv. Presidente Kennedy,6920-SL 6                    11704100Protesto apÛs 5 dias                                        000151
1                   000902692011248461-15475                  0000000000000015475200000000002               0115475     08051500000000500000000000012N040515000000000000001670000000000000000000000000000000000000000000000118596649000182LHL SERVI«OS ADMINISTRATIVOS E INTERMEDIRua AssemblÈia de Deus,39-SL 411                    11500040Protesto apÛs 5 dias                                        000152
1                   000902692011248461-15476                  0000000000000015476000000000002               0115476     08051500000001500000000000012N040515000000000000005000000000000000000000000000000000000000000000000118354041000141By Trade IntermediaÁ„o Cartor·ria LTDA  Rua Pinto de Figueiredo,55-SL 605                   20511240Protesto apÛs 5 dias                                        000153
1                   000902692011248461-15477                  0000000000000015477900000000002               0115477     08051500000000000000000000012N040515000000000000000000000000000000000000000000000000000000000000000100008490178747Patricia Lobmaier GonÁalves Cunha       Dammstrasse,16                                      00008810Protesto apÛs 5 dias                                        000154
1                   000902692011248461-15478                  0000000000000015478700000000002               0115478     08051500000000500000000000012N040515000000000000001670000000000000000000000000000000000000000000000119490850000143VA VIOTTO INTERMEDIACAO CAROTARIA - ME  Av. Farid Miguel Safatle,509-LJ 01                  75701040Protesto apÛs 5 dias                                        000155
1                   000902692011248461-15479                  0000000000000015479500000000002               0115479     08051500000000500000000000012N040515000000000000001670000000000000000000000000000000000000000000000119289512000148P W INTERMEDIA«√O CARTOR¡RIA LTDA       Rua Bonaire,312                                     65930000Protesto apÛs 5 dias                                        000156
1                   000902692011248461-15480                  0000000000000015480900000000002               0115480     08051500000001000000000000012N040515000000000000003330000000000000000000000000000000000000000000000118758648000197CASANOVA E CAL INTERMEDIA«√O CARTOR¡RIA Rua Osvaldo Cruz,372-LJ 106                         41940000Protesto apÛs 5 dias                                        000157
1                   000902692011248461-15481                  0000000000000015481700000000002               0115481     08051500000000350000000000012N040515000000000000001170000000000000000000000000000000000000000000000118607091000193ROBERTA CORREA BUENO GOLO ME            PraÁa 9 de Julho,123                                13960000Protesto apÛs 5 dias                                        000158
1                   000902692011248461-15482                  0000000000000015482500000000002               0115482     08051500000000400000000000012N040515000000000000001330000000000000000000000000000000000000000000000103781158000134DESTRO & CABRAL INTERMEDIA«√O CARTOR¡RIAAv. da Saudade,246                                  14840000Protesto apÛs 5 dias                                        000159
1                   000902692011248461-15483                  0000000000000015483300000000002               0115483     08051500000000400000000000012N040515000000000000001330000000000000000000000000000000000000000000000118465701000161SANDRA RODRIGUES DE JESUS - EIRELI - ME Rua Tito FulgÍncio,164-SL 106, Galeria C            38500000Protesto apÛs 5 dias                                        000160
1                   000902692011248461-15484                  0000000000000015484100000000002               0115484     08051500000000500000000000012N040515000000000000001670000000000000000000000000000000000000000000000118950650000163NOVA ERA INTERMEDIA«√O CARTORARIA LTDA -Av. Rui Barbosa,72-SL 13                            11740970Protesto apÛs 5 dias                                        000161
1                   000902692011248461-15485                  0000000000000015485P00000000002               0115485     08051500000000500000000000012N040515000000000000001670000000000000000000000000000000000000000000000118536552000184CAMPOS DO JORDAO INTERMEDIACAO CARTORARIRua Brigadeiro Jord„o,636                           12460000Protesto apÛs 5 dias                                        000162
1                   000902692011248461-15486                  0000000000000015486800000000002               0115486     08051500000001000000000000012N040515000000000000003330000000000000000000000000000000000000000000000118758564000153M & M INTERMEDIA«√O CARTOR¡RIA LTDA - MERua Dom Luis Felipe de Orleans,1177                 02118001Protesto apÛs 5 dias                                        000163
1                   000902692011248461-15487                  0000000000000015487600000000002               0115487     08051500000001000000000000012N040515000000000000003330000000000000000000000000000000000000000000000119166528000163ESANNF ‚Äì SERVI√áOS DE APOIO AS EMPRESARua do Arroz,90-SL 451                              21011070Protesto apÛs 5 dias                                        000164
1                   000902692011248461-15488                  0000000000000015488400000000002               0115488     08051500000000500000000000012N040515000000000000001670000000000000000000000000000000000000000000000101507315000192MG BUSINARI                             Av. Brasil,1955-SL 4A                               13468000Protesto apÛs 5 dias                                        000165
1                   000902692011248461-15489                  0000000000000015489200000000002               0115489     08051500000000350000000000012N040515000000000000001170000000000000000000000000000000000000000000000118717359000140FAVARO INTERMEDIA«√O CARTOR¡RIA LTDA -MEAv. Cinco,300                                       14620000Protesto apÛs 5 dias                                        000166
1                   000902692011248461-15490                  0000000000000015490600000000002               0115490     08051500000000500000000000012N040515000000000000001670000000000000000000000000000000000000000000000118995227000180MM SERVI«O DE INTERMEDIA«√O DE NEGOCIO LAv. Coumbiara,4489                                  76940000Protesto apÛs 5 dias                                        000167
1                   000902692011248461-15491                  0000000000000015491400000000002               0115491     08051500000000500000000000012N040515000000000000001670000000000000000000000000000000000000000000000114445177000106Bruce Costa Vilafranca - ME             Rua Paschoal Gianfrancesco,60-Sal„o 10              13224700Protesto apÛs 5 dias                                        000168
1                   000902692011248461-15492                  0000000000000015492200000000002               0115492     08051500000000500000000000012N040515000000000000001670000000000000000000000000000000000000000000000119448391000130YANA SANTOS SOUTO MAIOR VIEIRA - ME     Av. Agamenon Magalh„es,444-SL 426                   55012290Protesto apÛs 5 dias                                        000169
1                   000902692011248461-15493                  0000000000000015493000000000002               0115493     08051500000000500000000000012N040515000000000000001670000000000000000000000000000000000000000000000119044805000165RB CONSULTORIA E ASSESSORIA EIRELI      Rua Eliseu Guilherme,724                            14025020Protesto apÛs 5 dias                                        000170
1                   000902692011248461-15494                  0000000000000015494900000000002               0115494     08051500000000500000000000012N040515000000000000001670000000000000000000000000000000000000000000000119716906000135MGM INTERMEDIA«√O CARTORARIA LTDA - ME  Rua Nabuco Araujo,74 B                              11025010Protesto apÛs 5 dias                                        000171
1                   000902692011248461-15495                  0000000000000015495700000000002               0115495     08051500000001000000000000012N040515000000000000003330000000000000000000000000000000000000000000000119137241000105OLIVEIRA E VALDEZ INTERMEDIA«’ES CARTOR¡Alameda Doutor Carlos de Carvalho,655-LJ            80430180Protesto apÛs 5 dias                                        000172
1                   000902692011248461-15496                  0000000000000015496500000000002               0115496     08051500000001000000000000012N040515000000000000003330000000000000000000000000000000000000000000000116990226000117E. ROFELD SERVI«OS ADMINISTRATIVOS ME   Av. AngÈlica,1814-CJ 606                            01228200Protesto apÛs 5 dias                                        000173
1                   000902692011248461-15497                  0000000000000015497300000000002               0115497     08051500000000500000000000012N040515000000000000001670000000000000000000000000000000000000000000000119219421000136OK INTERMEDIA«AO CARTORARIA LTDA        Rua Jeronimo Coelho,140-SL 04                       89201205Protesto apÛs 5 dias                                        000174
1                   000902692011248461-15498                  0000000000000015498100000000002               0115498     08051500000001000000000000012N040515000000000000003330000000000000000000000000000000000000000000000119344677000175Fontenelle, Viana & Santos IntermediaÁ„oRua Conde de Bonfim,310-Subsolo - LJ G              20520054Protesto apÛs 5 dias                                        000175
1                   000902692011248461-15499                  0000000000000015499P00000000002               0115499     08051500000000500000000000012N040515000000000000001670000000000000000000000000000000000000000000000119571061000137KAIROS PRESTA«√O DE SERVI«OS E INTERMEDIRua T,02-QD 02, Lote 09, Sala 08                    77064566Protesto apÛs 5 dias                                        000176
1                   000902692011248461-15500                  0000000000000015500700000000002               0115500     08051500000000500000000000012N040515000000000000001670000000000000000000000000000000000000000000000119376967000109INOVA«√O SERVI«OS DE APOIO ADMINISTRATIVRua Coronel Jo„o Urbano,85                          37002350Protesto apÛs 5 dias                                        000177
1                   000902692011248461-15501                  0000000000000015501500000000002               0115501     08051500000000500000000000012N040515000000000000001670000000000000000000000000000000000000000000000118939109000154J.B. NASCIMENTO INTERMEDIA«√O CARTORARIARua Par·,3222                                       15502236Protesto apÛs 5 dias                                        000178
1                   000902692011248461-15502                  0000000000000015502300000000002               0115502     08051500000001000000000000012N040515000000000000003330000000000000000000000000000000000000000000000119353380000176RODOPOSTALLE SERVICOS CARTORARIOS LTDA -Rua Flores do PiauÌ,99-SL 03, 1∫ Andar              08210200Protesto apÛs 5 dias                                        000179
1                   000902692011248461-15503                  0000000000000015503100000000002               0115503     08051500000000000000000000012N040515000000000000000000000000000000000000000000000000000000000000000119054315000140FERNANDA MUNDOSTOCK RAYMUNDO EPP        Av. JosÈ de Alencar,729                             90880481Protesto apÛs 5 dias                                        000180
1                   000902692011248461-15504                  0000000000000015504P00000000002               0115504     08051500000000500000000000012N040515000000000000001670000000000000000000000000000000000000000000000119318001000107SOBRAL INTERMEDIA«√O DE DOCUMENTOS LTDA Rua Tabeli„o Ildefonso Cavalcante,417               62010015Protesto apÛs 5 dias                                        000181
1                   000902692011248461-15505                  0000000000000015505800000000002               0115505     08051500000001000000000000012N040515000000000000003330000000000000000000000000000000000000000000000119451478000166MELLO 7 LEBLON SERVI«OS DE DESPACHANTES Av. Ataulfo de Paiva,1174-SL 05                     22440035Protesto apÛs 5 dias                                        000182
1                   000902692011248461-15506                  0000000000000015506600000000002               0115506     08051500000001000000000000012N040515000000000000003330000000000000000000000000000000000000000000000119667269000154ANDRADE CONSULTORIA E INTERMEDIA«√O CARTAv. Dantas Barreto,1090-5∫Andar, Edf. Sa            50020000Protesto apÛs 5 dias                                        000183
1                   000902692011248461-15507                  0000000000000015507400000000002               0115507     08051500000001000000000000012N040515000000000000003330000000000000000000000000000000000000000000000110329307000194MCDI INTERMEDIA«’ES CARTOR¡RIAS LTDA - MRua Sargento Jo„o Lopes,263                         21931420Protesto apÛs 5 dias                                        000184
1                   000902692011248461-15508                  0000000000000015508200000000002               0115508     08051500000000500000000000012N040515000000000000001670000000000000000000000000000000000000000000000108490584000132M.C. RABHA SERVI«OS ADMINISTRATIVOS     Rua da ConceiÁ„o,136-SL 201                         23900435Protesto apÛs 5 dias                                        000185
1                   000902692011248461-15509                  0000000000000015509000000000002               0115509     08051500000001000000000000012N040515000000000000003330000000000000000000000000000000000000000000000119780195000168FRAN«A E SOUZA INTERMEDIA«√O CARTOR¡RIA Av. Braz de Pina,2073-SL 204                        21235604Protesto apÛs 5 dias                                        000186
1                   000902692011248461-15510                  0000000000000015510400000000002               0115510     08051500000000350000000000012N040515000000000000001170000000000000000000000000000000000000000000000117961015000208ADALBERTO ROCHA THOBIAS - ME            Rua das Palmeiras,43                                17210120Protesto apÛs 5 dias                                        000187
1                   000902692011248461-15511                  0000000000000015511200000000002               0115511     08051500000001000000000000012N040515000000000000003330000000000000000000000000000000000000000000000116731938000111ANTTARES CONSULTORIA E INTERMEDIA«√O CARAv. Dr. Eduardo Cotching,1800 A                     03356000Protesto apÛs 5 dias                                        000188
1                   000902692011248461-15512                  0000000000000015512000000000002               0115512     08051500000000500000000000012N040515000000000000001670000000000000000000000000000000000000000000000119899797000139GESING E SILVA PREPARA«√O DE DOCUMENTOS Rua Alameda Aristiliano Ramos,768-SL 03             89160129Protesto apÛs 5 dias                                        000189
1                   000902692011248461-15513                  0000000000000015513900000000002               0115513     08051500000000500000000000012N040515000000000000001670000000000000000000000000000000000000000000000120853398000116ITABIRA SERVICOS CARTORARIOS LTDA       Rua Dom PrudÍncio,85 B-SL 02                        35900012Protesto apÛs 5 dias                                        000190
1                   000902692011248461-15514                  0000000000000015514700000000002               0115514     08051500000000500000000000012N040515000000000000001670000000000000000000000000000000000000000000000119725172000150CNF INTERMEDIA«√O CARTOR¡RIA ME         Rua Sete,2353                                       15700014Protesto apÛs 5 dias                                        000191
1                   000902692011248461-15515                  0000000000000015515500000000002               0115515     08051500000000500000000000012N040515000000000000001670000000000000000000000000000000000000000000000118101849000117ANA PAULA CALICCHIO FERRAZ ME           Av. Dr. Jo„o Carlos,14                              37800000Protesto apÛs 5 dias                                        000192
1                   000902692011248461-15516                  0000000000000015516300000000002               0115516     08051500000000500000000000012N040515000000000000001670000000000000000000000000000000000000000000000120063736000116RAHJ SOLU«’ES LTDA EPP                  Estrada Rio-S„o Paulo,17-LJ 19                      23898000Protesto apÛs 5 dias                                        000193
1                   000902692011248461-15517                  0000000000000015517100000000002               0115517     08051500000000350000000000012N040515000000000000001170000000000000000000000000000000000000000000000120175730000130FORMICOLI & ALVES LTDA                  Rua Porto Seguro,188                                87200258Protesto apÛs 5 dias                                        000194
1                   000902692011248461-15518                  0000000000000015518P00000000002               0115518     08051500000000500000000000012N040515000000000000001670000000000000000000000000000000000000000000000119756945000166MADAME¥S INTERMEDIA«√O CARTORARIA LTDA -Av. Caminho do Mar,3215                             09611000Protesto apÛs 5 dias                                        000195
1                   000902692011248461-15519                  0000000000000015519800000000002               0115519     08051500000000750000000000012N040515000000000000002500000000000000000000000000000000000000000000000119831382000123INTERMEDIA«√O CARTOR¡RIA GADINI LTDA - MRua Maria C‚ndida,1159-Sala 02                      02071012Protesto apÛs 5 dias                                        000196
1                   000902692011248461-15520                  0000000000000015520100000000002               0115520     08051500000001000000000000012N040515000000000000003330000000000000000000000000000000000000000000000120307190000100IRM√OS FINGOLO INTERMEDIA«√O CARTOR¡RIA Rua Tenente Coronel Cardoso,379                     28010280Protesto apÛs 5 dias                                        000197
1                   000902692011248461-15521                  0000000000000015521P00000000002               0115521     08051500000000500000000000012N040515000000000000001670000000000000000000000000000000000000000000000119955865000130V G M SERVI«OS E INTERMEDIA«√O CART”RARIRua Dr. Justo Pedrosa,380 A                         65800000Protesto apÛs 5 dias                                        000198
1                   000902692011248461-15522                  0000000000000015522800000000002               0115522     08051500000000500000000000012N040515000000000000001670000000000000000000000000000000000000000000000120284459000171FIGUEIREDO INTERMEDIA«√O CARTORARIA LTDARua Monsenhor Leite,200-LJ 02                       37170000Protesto apÛs 5 dias                                        000199
1                   000902692011248461-15523                  0000000000000015523600000000002               0115523     08051500000000500000000000012N040515000000000000001670000000000000000000000000000000000000000000000120062349000165MASTER INTERMEDIA«’ES CARTOR¡RIAS E SERVRua Salvador MendonÁa,51-SL 101                     24800161Protesto apÛs 5 dias                                        000200
1                   000902692011248461-15524                  0000000000000015524400000000002               0115524     08051500000000000000000000012N040515000000000000000000000000000000000000000000000000000000000000000115007025000194F V REPRESENTA«√O COMERCIAL LTDA        Rua Visconde de Quissam„,315-LJ 01                  27910020Protesto apÛs 5 dias                                        000201
1                   000902692011248461-15525                  0000000000000015525200000000002               0115525     08051500000000500000000000012N040515000000000000001670000000000000000000000000000000000000000000000119790066000150CAMARGO E JARABIZA LTDA - ME            Rua Raimundo Leonardi,1656-Sala 01                  85900110Protesto apÛs 5 dias                                        000202
1                   000902692011248461-15526                  0000000000000015526000000000002               0115526     08051500000000500000000000012N040515000000000000001670000000000000000000000000000000000000000000000120456184000106JULIO CESAR SILVA LUCAS ME              Rua General Neto,161-SL 404                         96400380Protesto apÛs 5 dias                                        000203
1                   000902692011248461-15527                  0000000000000015527900000000002               0115527     08051500000001000000000000012N040515000000000000003330000000000000000000000000000000000000000000000120354043000182Clarice Lopes Moraes Marcheti - ME      Rua Ot·vio Nunes da Silva,57                        07021001Protesto apÛs 5 dias                                        000204
1                   000902692011248461-15528                  0000000000000015528700000000002               0115528     08051500000000500000000000012N040515000000000000001670000000000000000000000000000000000000000000000120720960000133DN ASSESSORIA E INTERMEDIA«√O CARTOR¡RIAAv. Rio Branco,533-LJ 06, Subsolo                   88015201Protesto apÛs 5 dias                                        000205
1                   000902692011248461-15529                  0000000000000015529500000000002               0115529     08051500000001000000000000012N040515000000000000003330000000000000000000000000000000000000000000000120530368000179QUEIROZ & LAPORTA INTERMEDIA«√O CARTORARRua Jorge Augusto,83-SL 76                          03645000Protesto apÛs 5 dias                                        000206
1                   000902692011248461-15530                  0000000000000015530900000000002               0115530     08051500000000500000000000012N040515000000000000001670000000000000000000000000000000000000000000000120657511000198JOS… MIGUEL NOGUEIRA PIEMONTE ME        Av. Siqueira Campos,758                             19700000Protesto apÛs 5 dias                                        000207
1                   000902692011248461-15531                  0000000000000015531700000000002               0115531     08051500000001000000000000012N040515000000000000003330000000000000000000000000000000000000000000000114045659000179B. DE A. REBOU«AS SISTEMA DE INTERMEDIA«Rua Par·,215 A                                      69053575Protesto apÛs 5 dias                                        000208
1                   000902692011248461-15532                  0000000000000015532500000000002               0115532     08051500000000500000000000012N040515000000000000001670000000000000000000000000000000000000000000000120306428000174INTERMEDIA«√O CARTOR¡RIA GALLO ANDREAZZAAv. Minas Gerais,405                                75110770Protesto apÛs 5 dias                                        000209
1                   000902692011248461-15533                  0000000000000015533300000000002               0115533     08051500000000000000000000012N040515000000000000000000000000000000000000000000000000000000000000000120346515000155R. DE S. ELIAS - ME                     Av. Deputado Gast„o Mariz de Faria,210-S            59152110Protesto apÛs 5 dias                                        000210
1                   000902692011248461-15534                  0000000000000015534100000000002               0115534     08051500000000500000000000012N040515000000000000001670000000000000000000000000000000000000000000000120729032000130NISHINA FREITAS INTERMEDIA«√O CARTOR¡RIAPraÁa Desembargador Eduardo Campos Maia,            12401480Protesto apÛs 5 dias                                        000211
1                   000902692011248461-15535                  0000000000000015535P00000000002               0115535     08051500000000500000000000012N040515000000000000001670000000000000000000000000000000000000000000000121275478000102CATARIN INTERMEDIA«√O CARTORARIA LTDA - Rua Santa SÈ,123                                    85935000Protesto apÛs 5 dias                                        000212
1                   000902692011248461-15536                  0000000000000015536800000000002               0115536     08051500000000500000000000012N040515000000000000001670000000000000000000000000000000000000000000000120460981000167RICARDO OLIVA FERREIRA - INTERMEDIACAO CRua Carmine Di Genio,79                             04349030Protesto apÛs 5 dias                                        000213
1                   000902692011248461-15537                  0000000000000015537600000000002               0115537     08051500000000500000000000012N040515000000000000001670000000000000000000000000000000000000000000000120757719000189AMB SERVI«OS ESPECIALIZADOS DE APOIO ADMAv. Dezenove de Outubro,06-01                       64025140Protesto apÛs 5 dias                                        000214
1                   000902692011248461-15538                  0000000000000015538400000000002               0115538     08051500000000500000000000012N040515000000000000001670000000000000000000000000000000000000000000000112016343000123RICARDO CANDIOTA ROMANO 00351305980     Rua Arnoldo Candido Raulino,27-SL 103               88070710Protesto apÛs 5 dias                                        000215
1                   000902692011248461-15539                  0000000000000015539200000000002               0115539     08051500000001000000000000012N040515000000000000003330000000000000000000000000000000000000000000000120925860000143CARTEX INTERMEDIA«√O CARTOR¡RIA LTDA - MSHS - Quadra 01 - Bloco A,Loja 05-Galeri            70322900Protesto apÛs 5 dias                                        000216
1                   000902692011248461-15540                  0000000000000015540600000000002               0115540     08051500000000500000000000012N040515000000000000001670000000000000000000000000000000000000000000000121450571000106MELLO & GRANIERO INTERMEDIACAO CARTORARIRua Rio Grande do Sul,364 B                         09510020Protesto apÛs 5 dias                                        000217
1                   000902692011248461-15541                  0000000000000015541400000000002               0115541     08051500000001000000000000012N040515000000000000003330000000000000000000000000000000000000000000000120744410000154INTERMEDIACAO CARTORARIA LTDA - EPP     Av Dr Cristiano Guimaraes,1898                      31720300Protesto apÛs 5 dias                                        000218
1                   000902692011248461-15542                  0000000000000015542200000000002               0115542     08051500000000000000000000012N040515000000000000000000000000000000000000000000000000000000000000000100000470967420WORLDWIDE VISION SALES REPRESENTATIVE LL8421 South Orange Blosson Trail                     00032809Protesto apÛs 5 dias                                        000219
1                   000902692011248461-15543                  0000000000000015543000000000002               0115543     08051500000000500000000000012N040515000000000000001670000000000000000000000000000000000000000000000113031771000198NAVES ACESSORIA CARTORARIA E FINANCEIRA Rua Cesario Alvim,1519                              38740000Protesto apÛs 5 dias                                        000220
1                   000902692011248461-15544                  0000000000000015544900000000002               0115544     08051500000000500000000000012N040515000000000000001670000000000000000000000000000000000000000000000120665644000106LM SOLUCOES EM INTERMEDIA«AO CARTORARIA Av. Terceira,271-SL 01                              88330083Protesto apÛs 5 dias                                        000221
1                   000902692011248461-15545                  0000000000000015545700000000002               0115545     08051500000000500000000000012N040515000000000000001670000000000000000000000000000000000000000000000111198466000160INTERMEDIACAO CARTORARIA CAICARA CARAGUAAv. Prisciliana de Castilho,374-SL 06               11660330Protesto apÛs 5 dias                                        000222
1                   000902692011248461-15546                  0000000000000015546500000000002               0115546     08051500000000500000000000012N040515000000000000001670000000000000000000000000000000000000000000000120893589000101BUSINESS & BUSINESS INTELLIGENCE INTERMERua Vereador Romeu Lauro Werlang,1302-SL            85601020Protesto apÛs 5 dias                                        000223
1                   000902692011248461-15547                  0000000000000015547300000000002               0115547     08051500000000500000000000012N040515000000000000001670000000000000000000000000000000000000000000000111428156000194PHF JINKINGS INTERMEDIA«’ES CARTOR¡RIAS Rua Senador Vergueira,93-LJ 05                      22230000Protesto apÛs 5 dias                                        000224
1                   000902692011248461-15548                  0000000000000015548100000000002               0115548     08051500000000500000000000012N040515000000000000001670000000000000000000000000000000000000000000000120984606000116INTERMEDIA«√O CARTORARIA PEMAVI SANTA RIRua Joaquim Rodarte,22-LJ A                         35570000Protesto apÛs 5 dias                                        000225
1                   000902692011248461-15549                  0000000000000015549P00000000002               0115549     08051500000001000000000000012N040515000000000000003330000000000000000000000000000000000000000000000120918972000177MIRANDA PRATTES INTERMEDIACAO CARTORARIAAv. Pastor Marting Luther King Jr,126-BL            20765000Protesto apÛs 5 dias                                        000226
1                   000902692011248461-15550                  0000000000000015550300000000002               0115550     08051500000000500000000000012N040515000000000000001670000000000000000000000000000000000000000000000121294182000120ALESSANDRO STANCIK MULLER - ME          Rua Dr. Leoc·rdio,319-SL 2                          83203550Protesto apÛs 5 dias                                        000227
1                   000902692011248461-15551                  0000000000000015551100000000002               0115551     08051500000000500000000000012N040515000000000000001670000000000000000000000000000000000000000000000120674886000166THOMAZ INTERMEDIA«√O CARTOR¡RIA LTDA - MRua Prof. Luiz Nardy,137                            12900020Protesto apÛs 5 dias                                        000228
1                   000902692011248461-15552                  0000000000000015552P00000000002               0115552     08051500000000500000000000012N040515000000000000001670000000000000000000000000000000000000000000000120898737000180JK SERVI«OS DE INTERMEDIA«√O CARTOR¡RIA Rua Ponte Nova,86-1∫ Andar, SL 103                  35160017Protesto apÛs 5 dias                                        000229
1                   000902692011248461-15553                  0000000000000015553800000000002               0115553     08051500000000500000000000012N040515000000000000001670000000000000000000000000000000000000000000000121204452000165VASCONCELOS & LEIT√O LTDA - ME          Rua David Canabarro,37-SL 101                       93510020Protesto apÛs 5 dias                                        000230
1                   000902692011248461-15554                  0000000000000015554600000000002               0115554     08051500000000350000000000012N040515000000000000001170000000000000000000000000000000000000000000000120886551000101RODOLFO DOS SANTOS MACHADO - ME         Av. Santos Dumont,65                                39205000Protesto apÛs 5 dias                                        000231
1                   000902692011248461-15555                  0000000000000015555400000000002               0115555     08051500000000000000000000012N040515000000000000000000000000000000000000000000000000000000000000000120800411000179DOC FACIL INTERMEDIACAO CARTORARIA      Rua Saldanha Marinho,695/103                        95700000Protesto apÛs 5 dias                                        000232
1                   000902692011248461-15556                  0000000000000015556200000000002               0115556     08051500000000000000000000012N040515000000000000000000000000000000000000000000000000000000000000000120918935000169FREITAS E SILVA ASSESSORIA CARTORARIA EIAv. Presidente Jo„o Goulart,QD 2 LT 08/2            74968890Protesto apÛs 5 dias                                        000233
1                   000902692011248461-15557                  0000000000000015557000000000002               0115557     08051500000000500000000000012N040515000000000000001670000000000000000000000000000000000000000000000103689855000160LANTRONIC REPRESENTA«’ES COMERCIAIS LTDAAv. Alvares Cabral,1030-Sala 103                    30170001Protesto apÛs 5 dias                                        000234
1                   000902692011248461-15558                  0000000000000015558900000000002               0115558     08051500000000500000000000012N040515000000000000001670000000000000000000000000000000000000000000000121173788000108M&A INTERMEDIA«√O CARTOR¡RIA ME         Av. Affonso Trigo,941-SL 03                         14177090Protesto apÛs 5 dias                                        000235
1                   000902692011248461-15559                  0000000000000015559700000000002               0115559     08051500000000500000000000012N040515000000000000001670000000000000000000000000000000000000000000000121127993000137LUCIO & SANTANA INTERMEDIA«√O CARTOR¡RIAPraÁa Dom Pedro II,125-SL 38                        35300033Protesto apÛs 5 dias                                        000236
1                   000902692011248461-15560                  0000000000000015560000000000002               0115560     08051500000001000000000000012N040515000000000000003330000000000000000000000000000000000000000000000121060818000170MARTINS E ANDREZA INTERMEDIA«√O CARTOR¡RRua Berta,45                                        04120040Protesto apÛs 5 dias                                        000237
1                   000902692011248461-15561                  0000000000000015561900000000002               0115561     08051500000000300000000000012N040515000000000000001000000000000000000000000000000000000000000000000121352089000125MARACAS INTERMEDIACAO CARTORARIA LTDA - Av. Dr. Jo„o Pessoa,175                             45360000Protesto apÛs 5 dias                                        000238
1                   000902692011248461-15562                  0000000000000015562700000000002               0115562     08051500000000500000000000012N040515000000000000001670000000000000000000000000000000000000000000000121131878000136COLLINA INTERMEDIA«√O CARTORARIA LTDA - Rua Senador Flaquer,241-LJ 09 - Patio Se            09010160Protesto apÛs 5 dias                                        000239
1                   000902692011248461-15563                  0000000000000015563500000000002               0115563     08051500000000500000000000012N040515000000000000001670000000000000000000000000000000000000000000000121503662000154LIMOEIRO INTERMEDIA«√O CARTOR¡RIA LTDA MRua Doutor Jo„o NÛbrega,157-G                       55700000Protesto apÛs 5 dias                                        000240
1                   000902692011248461-15564                  0000000000000015564300000000002               0115564     08051500000000500000000000012N040515000000000000001670000000000000000000000000000000000000000000000121430108000194BELLO & FIUMARO INTERMEDIA«√O CARTOR¡RIARua Antonio Pereira de Camargo,60-SL 76             13170030Protesto apÛs 5 dias                                        000241
1                   000902692011248461-15565                  0000000000000015565100000000002               0115565     08051500000000000000000000012N040515000000000000000000000000000000000000000000000000000000000000000138873658000180Afr‚nio - PE                            Rua Francisco Rodrigues                             56361000Protesto apÛs 5 dias                                        000242
1                   000902692011248461-15566                  0000000000000015566P00000000002               0115566     08051500000000500000000000012N040515000000000000001670000000000000000000000000000000000000000000000121375580000171WE FACILITY CONSULTORIA E INTERMEDIA«√O Rua Francisco Alvarenga,73                          04417260Protesto apÛs 5 dias                                        000243
1                   000902692011248461-15567                  0000000000000015567800000000002               0115567     08051500000001000000000000012N040515000000000000003330000000000000000000000000000000000000000000000121762051000120ABF SOLU«’ES E SERVI«OS EMPRESARIAIS LTDRua Ayrton Senna,1850-COB 406                       22775003Protesto apÛs 5 dias                                        000244
1                   000902692011248461-15568                  0000000000000015568600000000002               0115568     08051500000000300000000000012N040515000000000000001000000000000000000000000000000000000000000000000121534481000195ANNY K S DE LUCENA INTERMEDIA«’ES CARTORRua Galdino Bezerra,88                              55125000Protesto apÛs 5 dias                                        000245
1                   000902692011248461-15569                  0000000000000015569400000000002               0115569     08051500000000500000000000012N040515000000000000001670000000000000000000000000000000000000000000000108906738000124DI INTERMEDIA«√O CARTOR¡RIA LTDA - ME   Av. Adolfo Pinheiro,384-LJ 51                       04734000Protesto apÛs 5 dias                                        000246
1                   000902692011248461-15570                  0000000000000015570800000000002               0115570     08051500000000500000000000012N040515000000000000001670000000000000000000000000000000000000000000000115776815000134RCA - PREST CART INTERMEDIA«√O CARTORARIRua Palmira Ninho,79-LJ 107                         24710440Protesto apÛs 5 dias                                        000247
1                   000902692011248461-15571                  0000000000000015571600000000002               0115571     08051500000000300000000000012N040515000000000000001000000000000000000000000000000000000000000000000121442794000113DUARTE PINHEIRO E RONCONI INTERMEDIA«√O Rua Jo„o de Castro,450                              88501160Protesto apÛs 5 dias                                        000248
1                   000902692011248461-15572                  0000000000000015572400000000002               0115572     08051500000000500000000000012N040515000000000000001670000000000000000000000000000000000000000000000116673008000159DRABIK & BELINI INTERMEDIA«√O CARTOR¡RIARua Souza Naves,3515                                85801120Protesto apÛs 5 dias                                        000249
