01REMESSA01COBRANCA       00000000000004130991SISTEMA DE CARTÛRIO CERTIDıES 237BRADESCO       050315        MX0000756                                                                                                                                                                                                                                                                                     000001
1                   000902692011248461-14294                  0000000000000014294000000000002               0114294     08031500000000135000000000012N260215120000000000000450000000000000000000000000000000000000000000000262232889000190Banco Daycoval S/A                      Avenida Paulista ,1793-02∫ Andar                    01311200                                                            000002
1                   000902692011248461-14295                  0000000000000014295900000000002               0114295     08031500000000390000000000012N260215120000000000001300000000000000000000000000000000000000000000000262232889000190Banco Daycoval S/A                      Avenida Paulista ,1793-02∫ Andar                    01311200                                                            000003
1                   000902692011248461-14297                  0000000000000014297500000000002               0114297     02031500000030000000000000012N270215000000000000000000000000000000000000000000000000000000000000000100060699671434FL¡VIO ROBERTO CORREIA DE BRITO         RUA PADRE LANDIN, 302  904                          50710470TAXA DE AQUISI«√O DE FRANQUIA                               000004
1                   000902692011248461-14298                  0000000000000014298300000000002               0114298     09031500000000200000000000012N270215120000000000000670000000000000000000000000000000000000000000000200360305181656104 Caixa EconÙmica Federal             Avenida Santo Amaro ,7237                           04701200                                                            000005
1                   000902692011248461-14299                  0000000000000014299100000000002               0114299     08031500000000234050000000012N020315000000000000000780000000000000000000000000000000000000000000000111029315000188SUZAN CART CERTIDOES LTDA - ME          Rua Gal. Francisco GlicÈrio,1185                    08674003Protesto apÛs 5 dias                                        000006
1                   000902692011248461-14300                  0000000000000014300900000000002               0114300     08031500000000281000000000012N020315000000000000000940000000000000000000000000000000000000000000000111163439000151RF-SERVICOS DE DOCUMENTACAO LTDA.       Av. Mal. Castelo Branco,173-A                       65076090Protesto apÛs 5 dias                                        000007
1                   000902692011248461-14301                  0000000000000014301700000000002               0114301     08031500000001800000000000012N020315000000000000006000000000000000000000000000000000000000000000000110999668000148ASSESSORIA E CONSULTORIA DE DOCUMENTOS ER. Leopoldo Machado,242-Loja 02                     18035075Protesto apÛs 5 dias                                        000008
1                   000902692011248461-14302                  0000000000000014302500000000002               0114302     08031500000001300000000000012N020315000000000000004330000000000000000000000000000000000000000000000111165549000152D¥ VASQUEZ SERVI«OS CARTORARIOS LTDA - EAv. Dr. Jo„o Guilhermino,293                        12210131Protesto apÛs 5 dias                                        000009
1                   000902692011248461-14303                  0000000000000014303300000000002               0114303     08031500000001000000000000012N020315000000000000003330000000000000000000000000000000000000000000000111144435000126DOCK STATION INTERMEDIA«√O CARTOR¡RIA LTRua da Quitanda,20-4∫ andar ñ Sala 401              20011972Protesto apÛs 5 dias                                        000010
1                   000902692011248461-14304                  0000000000000014304100000000002               0114304     08031500000001000000000000012N020315000000000000003330000000000000000000000000000000000000000000000114816778000188Oliveira IntermediaÁ„o Cartor·ria LTDA MRua Delfino Cintra,500 AxB                          13020100Protesto apÛs 5 dias                                        000011
1                   000902692011248461-14305                  0000000000000014305P00000000002               0114305     08031500000000500000000000012N020315000000000000001670000000000000000000000000000000000000000000000111253279000131¡GAPE SERVI«OS E INTERMEDIA«’ES CARTOR¡RR. Gov. Pedro de Toledo,569                         13400070Protesto apÛs 5 dias                                        000012
1                   000902692011248461-14306                  0000000000000014306800000000002               0114306     08031500000001000000000000012N020315000000000000003330000000000000000000000000000000000000000000000106058057000128CTPOST SERVI«OS LTDA ME                 R. Chaves Barcelos,131                              90030120Protesto apÛs 5 dias                                        000013
1                   000902692011248461-14307                  0000000000000014307600000000002               0114307     08031500000000005000000000012N020315000000000000000020000000000000000000000000000000000000000000000113238744000190ARCHANJO TEIXEIRA PREPARA«√O DE DOCUMENTAv. Brasil,1586-Loja 06                             30140003Protesto apÛs 5 dias                                        000014
1                   000902692011248461-14308                  0000000000000014308400000000002               0114308     08031500000000000000000000012N020315000000000000000000000000000000000000000000000000000000000000000112761154000185MC PRESTADORA DE SERVI«OS ADMINISTRATIVORua Marechal JosÈ B. Bormann,164 E-Sala             89802120Protesto apÛs 5 dias                                        000015
1                   000902692011248461-14309                  0000000000000014309200000000002               0114309     08031500000000500000000000012N020315000000000000001670000000000000000000000000000000000000000000000111675298000156MORANDO & MORANDO SERV TRANSCRI«√O DOCUMRua TibiriÁ·,189                                    14010090Protesto apÛs 5 dias                                        000016
1                   000902692011248461-14310                  0000000000000014310600000000002               0114310     08031500000000000000000000012N020315000000000000000000000000000000000000000000000000000000000000000113329559000101FACIL SERVICOS ADMINISTRATIVOS LTDA ME  Av. das Emba˙bas,952                                78550222Protesto apÛs 5 dias                                        000017
1                   000902692011248461-14311                  0000000000000014311400000000002               0114311     08031500000000005000000000012N020315000000000000000020000000000000000000000000000000000000000000000111564744000155SARAIVA¥S CONSULTORIA EMPRESARIAL LTDA  Rua Prefeito JosÈ Santana Trigueiro,183             32604188Protesto apÛs 5 dias                                        000018
1                   000902692011248461-14312                  0000000000000014312200000000002               0114312     08031500000000000000000000012N020315000000000000000000000000000000000000000000000000000000000000000111425891000144MHG SERVI«OS ADMINISTRATIVOS EMPRESAS LTAv. Tocantins,1124                                  74075100Protesto apÛs 5 dias                                        000019
1                   000902692011248461-14313                  0000000000000014313000000000002               0114313     08031500000000500000000000012N020315000000000000001670000000000000000000000000000000000000000000000111479061000108ANDRADE SOARES LOPES LTDA               Rua Lehar David,05                                  45000445Protesto apÛs 5 dias                                        000020
1                   000902692011248461-14314                  0000000000000014314900000000002               0114314     08031500000000009710000000012N020315000000000000000030000000000000000000000000000000000000000000000111777632000182CFN ASSESSORIA EM DOCUMENTOS LTDA       R Prefeito Carlos JosÈ Carlson,226-CJ 01            09450000Protesto apÛs 5 dias                                        000021
1                   000902692011248461-14315                  0000000000000014315700000000002               0114315     08031500000000500000000000012N020315000000000000001670000000000000000000000000000000000000000000000111222886000134ELIDA ASSESSORIA EMPRESARIAL LTDA       R. Neo Alves Martins,2955-Sala 03                   87013060Protesto apÛs 5 dias                                        000022
1                   000902692011248461-14316                  0000000000000014316500000000002               0114316     08031500000000003000000000012N020315000000000000000010000000000000000000000000000000000000000000000111834699000101REGIS ORLANDINI ASSESSORIA CARTORARIA LTAv. Jo„o Naves de ¡vila,81                          38400600Protesto apÛs 5 dias                                        000023
1                   000902692011248461-14317                  0000000000000014317300000000002               0114317     08031500000000500000000000012N020315000000000000001670000000000000000000000000000000000000000000000119762311000116J. LOPES - ME                           Rua Afonso Pena,5-47                                17060250Protesto apÛs 5 dias                                        000024
1                   000902692011248461-14318                  0000000000000014318100000000002               0114318     08031500000000500000000000012N020315000000000000001670000000000000000000000000000000000000000000000111838860000115M.L. CARDOSO - PRESTA«√O DE SERVI«OS - ERua Luiz Pereira Barreto,304                        16010320Protesto apÛs 5 dias                                        000025
1                   000902692011248461-14319                  0000000000000014319P00000000002               0114319     08031500000000500000000000012N020315000000000000001670000000000000000000000000000000000000000000000118433773000127MUZETI ASSESSORIA CARTORARIA LTDA ME    Rua 20,1022                                         14780070Protesto apÛs 5 dias                                        000026
1                   000902692011248461-14320                  0000000000000014320300000000002               0114320     08031500000000500000000000012N020315000000000000001670000000000000000000000000000000000000000000000119450025000115SAITO & SAITO ASSESSORIA E SERVI«OS LTDAAv. Francisco de Paula Leite,1699                   13344325Protesto apÛs 5 dias                                        000027
1                   000902692011248461-14321                  0000000000000014321100000000002               0114321     08031500000000000000000000012N020315000000000000000000000000000000000000000000000000000000000000000112462165000164Viviane Aparecida Henriques - EPP       Rua Rui Barbosa,164                                 19010260Protesto apÛs 5 dias                                        000028
1                   000902692011248461-14322                  0000000000000014322P00000000002               0114322     08031500000000500000000000012N020315000000000000001670000000000000000000000000000000000000000000000112443155000181ASSESSORIA E CONSULTORIA CARTORARIA DE DRua Santa Cruz,652                                  13300090Protesto apÛs 5 dias                                        000029
1                   000902692011248461-14323                  0000000000000014323800000000002               0114323     08031500000000500000000000012N020315000000000000001670000000000000000000000000000000000000000000000112632803000148RUBIANA SERVI«OS DE CARTORIO, CERTID’ES Rua das Esmeraldas,186                              09920520Protesto apÛs 5 dias                                        000030
1                   000902692011248461-14324                  0000000000000014324600000000002               0114324     08031500000000500000000000012N020315000000000000001670000000000000000000000000000000000000000000000102248702000114MOURA E MENEZES SERVI«OS ADMINISTRATIVOSRua Dr. Curvelo Cavalcante,189-Loja 101             23810201Protesto apÛs 5 dias                                        000031
1                   000902692011248461-14325                  0000000000000014325400000000002               0114325     08031500000000500000000000012N020315000000000000001670000000000000000000000000000000000000000000000111619454000161ASSESSORIA CARTOR¡RIA DO NORDESTE LTDA  Rua AntÙnio de Castro,114-LJ 05                     52070080Protesto apÛs 5 dias                                        000032
1                   000902692011248461-14326                  0000000000000014326200000000002               0114326     08031500000000500000000000012N020315000000000000001670000000000000000000000000000000000000000000000112572498000146Alphacentral Documentos e ServiÁos LTDA Rua Cel. Siqueira de Moraes,125/127                 13201032Protesto apÛs 5 dias                                        000033
1                   000902692011248461-14327                  0000000000000014327000000000002               0114327     08031500000000500000000000012N020315000000000000001670000000000000000000000000000000000000000000000121117773000122JR CONSULTORIA INTERMEDIACAO CARTORARIA Rua Visconde de Sepetiba,935-SL 625                 24020206Protesto apÛs 5 dias                                        000034
1                   000902692011248461-14328                  0000000000000014328900000000002               0114328     08031500000000359500000000012N020315000000000000001200000000000000000000000000000000000000000000000112139078000170RW MARIZ ESTRUTURA CARTORAL LTDA        Av Epit·cio Pessoa,475-Sala 05                      58030906Protesto apÛs 5 dias                                        000035
1                   000902692011248461-14329                  0000000000000014329700000000002               0114329     08031500000001200000000000012N020315000000000000004000000000000000000000000000000000000000000000000113133167000172G I CART SERVI«OS ORGANIZACIONAIS LTDA  Rua dos Marianos,132                                06016050Protesto apÛs 5 dias                                        000036
1                   000902692011248461-14330                  0000000000000014330000000000002               0114330     08031500000000005090000000012N020315000000000000000020000000000000000000000000000000000000000000000113287999000143ASSESSORIA CARTOR¡RIA P¡DUA LTDA        Rua Tiradentes,112-SL 201                           28300000Protesto apÛs 5 dias                                        000037
1                   000902692011248461-14331                  0000000000000014331900000000002               0114331     08031500000000000000000000012N020315000000000000000000000000000000000000000000000000000000000000000113913099000164ERM ServiÁos Administrativos LTDA       Rua 7 de Setembro,1315                              89010203Protesto apÛs 5 dias                                        000038
1                   000902692011248461-14332                  0000000000000014332700000000002               0114332     08031500000000000000000000012N020315000000000000000000000000000000000000000000000000000000000000000113321680000197Ana Claudia Barbiere Alves Ferreira - MEAv. Brasil,326                                      14801050Protesto apÛs 5 dias                                        000039
1                   000902692011248461-14333                  0000000000000014333500000000002               0114333     08031500000000000000000000012N020315000000000000000000000000000000000000000000000000000000000000000117655488000198KAEL INTERMEDIA«’ES CARTOR¡RIAS LTDA ME Av. Monte Castelo,720                               13450032Protesto apÛs 5 dias                                        000040
1                   000902692011248461-14334                  0000000000000014334300000000002               0114334     08031500000000026160000000012N020315000000000000000090000000000000000000000000000000000000000000000113350598000190CP SERVI«OS ADMINISTRATIVO LTDA - ME    Rua Arnaldo Estev„o de Figueiredo,640               78700150Protesto apÛs 5 dias                                        000041
1                   000902692011248461-14335                  0000000000000014335100000000002               0114335     08031500000000000000000000012N020315000000000000000000000000000000000000000000000000000000000000000113585685000127ASSESSORIA CARTOR¡RIA LIMEIRA LTDA ME   Rua Deputado Octavio Lopes,304 B                    13480021Protesto apÛs 5 dias                                        000042
1                   000902692011248461-14336                  0000000000000014336P00000000002               0114336     08031500000000055630000000012N020315000000000000000190000000000000000000000000000000000000000000000113406670000154RODRIGUES E VIEIRA LTDA.                104 SUL RUA SE 05 LOTE 23 | AC JK CAIXA             77006970Protesto apÛs 5 dias                                        000043
1                   000902692011248461-14337                  0000000000000014337800000000002               0114337     08031500000000350000000000012N020315000000000000001170000000000000000000000000000000000000000000000113743219000122Valentim e Silva ServiÁos               PraÁa AntÙnio Dias,584                              38700110Protesto apÛs 5 dias                                        000044
1                   000902692011248461-14338                  0000000000000014338600000000002               0114338     08031500000000300000000000012N020315000000000000001000000000000000000000000000000000000000000000000113433192000171CONSULT SERVICE ASSESSORIA CARTOR¡RIA LTRua Episcopal,1714-Loja 02                          13560570Protesto apÛs 5 dias                                        000045
1                   000902692011248461-14339                  0000000000000014339400000000002               0114339     08031500000000009740000000012N020315000000000000000030000000000000000000000000000000000000000000000113576355000175LEME ASSESSORIA E CONSULTORIA DE DOCUMENRua Prudente de Moraes,933                          13320160Protesto apÛs 5 dias                                        000046
1                   000902692011248461-14340                  0000000000000014340800000000002               0114340     08031500000000000000000000012N020315000000000000000000000000000000000000000000000000000000000000000114495115000109MSC ASSESSORIA E CONSULTORIA CARTORARIA Rua Duque de Caxias,161                             06401010Protesto apÛs 5 dias                                        000047
1                   000902692011248461-14341                  0000000000000014341600000000002               0114341     08031500000000500000000000012N020315000000000000001670000000000000000000000000000000000000000000000113845551000106MACEDO & MELO INTERMEDIACOES CARTORARIASRUA LIZANDRO NOGUEIRA,1223-SALA 304                 64000200Protesto apÛs 5 dias                                        000048
1                   000902692011248461-14342                  0000000000000014342400000000002               0114342     08031500000000000000000000012N020315000000000000000000000000000000000000000000000000000000000000000113800899000179TEIXEIRA CARREIRO INTERMEDIACAO CARTORARRua Alan Kardec,50-SL 712                           27541290Protesto apÛs 5 dias                                        000049
1                   000902692011248461-14343                  0000000000000014343200000000002               0114343     08031500000000500000000000012N020315000000000000001670000000000000000000000000000000000000000000000114142222000153Araujo Oliveira Assessoria Cartoraria LTAv. Radial B,60-LJ 02                               42807380Protesto apÛs 5 dias                                        000050
1                   000902692011248461-14344                  0000000000000014344000000000002               0114344     08031500000000000000000000012N020315000000000000000000000000000000000000000000000000000000000000000114041706000106HMR - EXPRESS DOCUMENTOS LTDA - ME      Rua Daniel de Oliveira Carvalho,253                 13660000Protesto apÛs 5 dias                                        000051
1                   000902692011248461-14345                  0000000000000014345900000000002               0114345     08031500000000000000000000012N020315000000000000000000000000000000000000000000000000000000000000000116806807000156M MARRAS SERVICOS E EVENTOS LTDA - ME   Rua Volunt·rios da Franca,453                       14405103Protesto apÛs 5 dias                                        000052
1                   000902692011248461-14346                  0000000000000014346700000000002               0114346     08031500000000500000000000012N020315000000000000001670000000000000000000000000000000000000000000000114456232000163ALVES & UEMURA ASSESSORIA COMERCIAL E INRua Juscelino K. de Oliveira,710-LJ 02              37580000Protesto apÛs 5 dias                                        000053
1                   000902692011248461-14347                  0000000000000014347500000000002               0114347     08031500000000300000000000012N020315000000000000001000000000000000000000000000000000000000000000000115779004000197BONESSO & GIANETTI LTDA ME              Rua Nove de Julho,430-Lj 03 - Galeria de            13280000Protesto apÛs 5 dias                                        000054
1                   000902692011248461-14348                  0000000000000014348300000000002               0114348     08031500000000500000000000012N020315000000000000001670000000000000000000000000000000000000000000000111834699000292REGIS ORLANDINI ASSESSORIA CARTOR¡RIA EPPraÁa Manoel Bonito,65                              38440076Protesto apÛs 5 dias                                        000055
1                   000902692011248461-14349                  0000000000000014349100000000002               0114349     08031500000000500000000000012N020315000000000000001670000000000000000000000000000000000000000000000115003436000101Via R·pida IntermediaÁ„o Cartor·ria LTDARua Vereador Juca Pena,10                           36400000Protesto apÛs 5 dias                                        000056
1                   000902692011248461-14350                  0000000000000014350500000000002               0114350     08031500000000500000000000012N020315000000000000001670000000000000000000000000000000000000000000000114467333000130Sirley Santos Niemic - ME               Av. Municipal,1779 A                                78250000Protesto apÛs 5 dias                                        000057
1                   000902692011248461-14351                  0000000000000014351300000000002               0114351     08031500000000500000000000012N020315000000000000001670000000000000000000000000000000000000000000000114567761000134ABEN INTERMEDIACAO CARTORARIA LTDA ME   Av. Leopoldino de Oliveira,4464-Ed. Diam            38060000Protesto apÛs 5 dias                                        000058
1                   000902692011248461-14352                  0000000000000014352100000000002               0114352     08031500000000500000000000012N020315000000000000001670000000000000000000000000000000000000000000000114547088000170SPEED FOX ASSESSORIA CARTORARIA LTDA ME Rua General Dionisio,410-LOJA                       25075095Protesto apÛs 5 dias                                        000059
1                   000902692011248461-14353                  0000000000000014353P00000000002               0114353     08031500000000029500000000012N020315000000000000000100000000000000000000000000000000000000000000000114911193000147LOPES E LOPES INTERMEDIA√á√ÉO CARTOR√ÅRIRua Marechal Deodoro,444-loja 322                   36010904Protesto apÛs 5 dias                                        000060
1                   000902692011248461-14354                  0000000000000014354800000000002               0114354     08031500000000400000000000012N020315000000000000001330000000000000000000000000000000000000000000000115220454000226RENAULT ASSOCIADOS INTERMEDIACOES CARTORRua Benedito Valadares,520-LJ 03                    35660630Protesto apÛs 5 dias                                        000061
1                   000902692011248461-14355                  0000000000000014355600000000002               0114355     08031500000000500000000000012N020315000000000000001670000000000000000000000000000000000000000000000120019555000192SERV MASTER SERVICOS E LOGISTICA LTDA ñMRua Bar„o do Rio Branco,1089                        16200001Protesto apÛs 5 dias                                        000062
1                   000902692011248461-14356                  0000000000000014356400000000002               0114356     08031500000001000000000000012N020315000000000000003330000000000000000000000000000000000000000000000115447264000165CAMPDOC INTERMEDIA«√O CARTOR¡RIA LTDA ñ Av. Carlos de Ara˙jo Gobbi,325                      13034670Protesto apÛs 5 dias                                        000063
1                   000902692011248461-14357                  0000000000000014357200000000002               0114357     08031500000000000000000000012N020315000000000000000000000000000000000000000000000000000000000000000115425969000181JKIM SERVI«OS E INTERMEDIA«√O LTDA      Rua A,501-QD 08 LT 05                               68515000Protesto apÛs 5 dias                                        000064
1                   000902692011248461-14358                  0000000000000014358000000000002               0114358     08031500000000500000000000012N030315000000000000001670000000000000000000000000000000000000000000000120603641000148GUARAPARI SERVICOS CARTORARIOS LTDA - MERua Roberto Calmon,140                              29200340Protesto apÛs 5 dias                                        000065
1                   000902692011248461-14359                  0000000000000014359900000000002               0114359     08031500000000500000000000012N030315000000000000001670000000000000000000000000000000000000000000000115328775000168Bagini e Okumura IntermediaÁıes Cartor·rRua Laurindo Borges,1494                            87303240Protesto apÛs 5 dias                                        000066
1                   000902692011248461-14360                  0000000000000014360200000000002               0114360     08031500000000500000000000012N030315000000000000001670000000000000000000000000000000000000000000000115523647000175TGD ASSESSORIA E CONSULTORIA LTDA       Rua Coronel Antonio Cardoso Pinto,34 A              37640000Protesto apÛs 5 dias                                        000067
1                   000902692011248461-14361                  0000000000000014361000000000002               0114361     08031500000000500000000000012N030315000000000000001670000000000000000000000000000000000000000000000116465255000160Tocantins IntermediaÁ„o Cartor·ria LTDA-RUA RODOVI¡RIA,193-SALA 01                          77805040Protesto apÛs 5 dias                                        000068
1                   000902692011248461-14362                  0000000000000014362900000000002               0114362     08031500000000500000000000012N030315000000000000001670000000000000000000000000000000000000000000000115731322000188MEIRELES SERVI«OS DE APOIO ADMINISTRATIVRua JosÈ Marcelino de Oliveira,374-BAIXO            67030170Protesto apÛs 5 dias                                        000069
1                   000902692011248461-14363                  0000000000000014363700000000002               0114363     08031500000001000000000000012N030315000000000000003330000000000000000000000000000000000000000000000115803475000193PEDRO, BASTOS & JONES SERVI«OS ASMINISTRRua Duque de Caxias,01-SL 31                        28613060Protesto apÛs 5 dias                                        000070
1                   000902692011248461-14364                  0000000000000014364500000000002               0114364     08031500000000500000000000012N030315000000000000001670000000000000000000000000000000000000000000000115872523000103HEITOR PIGHINI BARBADO ME               Rua Senador JosÈ Bonif·cio,312-B                    13800060Protesto apÛs 5 dias                                        000071
1                   000902692011248461-14365                  0000000000000014365300000000002               0114365     08031500000000500000000000012N030315000000000000001670000000000000000000000000000000000000000000000118997889000199CP CAMPO GRANDE INTERMEDIACOES CARTORARIRua Amaral Costa,408-LJ 01                          23050260Protesto apÛs 5 dias                                        000072
1                   000902692011248461-14366                  0000000000000014366100000000002               0114366     08031500000001000000000000012N030315000000000000003330000000000000000000000000000000000000000000000115703802000135Assecar Apoio Administrativo de MArilia Rua Carlos Gomes,343                                17501000Protesto apÛs 5 dias                                        000073
1                   000902692011248461-14367                  0000000000000014367P00000000002               0114367     08031500000000500000000000012N030315000000000000001670000000000000000000000000000000000000000000000115665799000102OLIVEIRA E PEIXOTO LTDA                 Rua da It·lia,,7-1∫ andar                           45200191Protesto apÛs 5 dias                                        000074
1                   000902692011248461-14368                  0000000000000014368800000000002               0114368     08031500000000500000000000012N030315000000000000001670000000000000000000000000000000000000000000000116911487000102L & A INTERMEDIA«’ES CARTOR¡RIAS LTDA   Rua Marechal Deodoro,111                            48005020Protesto apÛs 5 dias                                        000075
1                   000902692011248461-14369                  0000000000000014369600000000002               0114369     08031500000000350000000000012N030315000000000000001170000000000000000000000000000000000000000000000116615091000100MEG INTERMEDIA«√O CARTOR¡RIA            Av. 13,625                                          13500340Protesto apÛs 5 dias                                        000076
1                   000902692011248461-14370                  0000000000000014370P00000000002               0114370     08031500000000200000000000012N030315000000000000000670000000000000000000000000000000000000000000000115696350000101Almeida IntermediaÁ„o cartor·ria LTDA MERua JosÈ Brenha Ribeiro,23                          18130495Protesto apÛs 5 dias                                        000077
1                   000902692011248461-14371                  0000000000000014371800000000002               0114371     08031500000000500000000000012N030315000000000000001670000000000000000000000000000000000000000000000119373945000187MR Sistema de IntermediaÁ„o Cartor·ria LRua 29 de Abril,123                                 13256000Protesto apÛs 5 dias                                        000078
1                   000902692011248461-14372                  0000000000000014372600000000002               0114372     08031500000000500000000000012N030315000000000000001670000000000000000000000000000000000000000000000115761167000142DOC SERVICE SERVI«OS DOCUMENTAIS LTDA   Rua Marechal Floriano Peixoto,1562-Sala             85851020Protesto apÛs 5 dias                                        000079
1                   000902692011248461-14373                  0000000000000014373400000000002               0114373     08031500000000500000000000012N0303150000000000000016700000000000000000000000000000000000000000000001157926280001442 W V INTERMEDIA«√O CARTOR¡RIA LTDA-ME  Rua Marechal Deodoro,44                             12500210Protesto apÛs 5 dias                                        000080
1                   000902692011248461-14374                  0000000000000014374200000000002               0114374     08031500000000500000000000012N030315000000000000001670000000000000000000000000000000000000000000000115779486000185ANA LIDIA ANDRADE VASCONCELOS CISOTTO - Rua Angelo Gianotti,55-sala 4                       18550000Protesto apÛs 5 dias                                        000081
1                   000902692011248461-14375                  0000000000000014375000000000002               0114375     08031500000001000000000000012N030315000000000000003330000000000000000000000000000000000000000000000116651907000150COTIA CENTRAL - SERVI«OS ADMINISTRATIVOSRua Joaquim Nunes Filho,204                         06717180Protesto apÛs 5 dias                                        000082
1                   000902692011248461-14376                  0000000000000014376900000000002               0114376     08031500000001650000000000012N030315000000000000005500000000000000000000000000000000000000000000000117013577000130RIBEIRO INTERMEDIA«√O CARTOR¡RIA LTDA.  Av. Presidente Marques,1212                         78045008Protesto apÛs 5 dias                                        000083
1                   000902692011248461-14377                  0000000000000014377700000000002               0114377     08031500000000500000000000012N030315000000000000001670000000000000000000000000000000000000000000000116455215000137MIM Consultoria, Assessoria e IntermediaRua Gal. Bacelar,504                                96200370Protesto apÛs 5 dias                                        000084
1                   000902692011248461-14378                  0000000000000014378500000000002               0114378     08031500000000000000000000012N030315000000000000000000000000000000000000000000000000000000000000000116850829000113FORMAGIO & MILARE LTDA ME               Rua Princesa Izabel,994                             17900000Protesto apÛs 5 dias                                        000085
1                   000902692011248461-14379                  0000000000000014379300000000002               0114379     08031500000001000000000000012N030315000000000000003330000000000000000000000000000000000000000000000116988183000135MENEZES & AMARAL INTERMEDIA«√O CARTOR¡RIRua Israel Pinheiro,2500-LJ 1                       35020220Protesto apÛs 5 dias                                        000086
1                   000902692011248461-14380                  0000000000000014380700000000002               0114380     08031500000000500000000000012N030315000000000000001670000000000000000000000000000000000000000000000117163022000175DEFTHJ CONSULTORIA E ASSESSORIA CARTOR¡RR. Pedro ProcÛpio,48                                06501130Protesto apÛs 5 dias                                        000087
1                   000902692011248461-14381                  0000000000000014381500000000002               0114381     08031500000000500000000000012N030315000000000000001670000000000000000000000000000000000000000000000116943517000154SOUZA SERVI«OS DE DOCUMENTOS S/S LTDA EPR. Coronel Aureliano de Camargo,666                 18270170Protesto apÛs 5 dias                                        000088
1                   000902692011248461-14382                  0000000000000014382300000000002               0114382     08031500000001000000000000012N030315000000000000003330000000000000000000000000000000000000000000000117206713000109FABIO TOMAZ CARDOSO - ME                Rua Primeiro de Maio,202-SL 507                     09015030Protesto apÛs 5 dias                                        000089
1                   000902692011248461-14383                  0000000000000014383100000000002               0114383     08031500000000500000000000012N030315000000000000001670000000000000000000000000000000000000000000000120175159000154MARGARETE DOS SANTOS ñ MEI              Rua Santos Dumont,123                               38183187Protesto apÛs 5 dias                                        000090
1                   000902692011248461-14384                  0000000000000014384P00000000002               0114384     08031500000000500000000000012N030315000000000000001670000000000000000000000000000000000000000000000116899904000130E. F. AURELIA NEGOCIOS E INTERMEDIA«√O CRua Liberdade,596                                   06853700Protesto apÛs 5 dias                                        000091
1                   000902692011248461-14385                  0000000000000014385800000000002               0114385     08031500000000500000000000012N030315000000000000001670000000000000000000000000000000000000000000000116949930000126CIRENO FILHO INTERMEDIA«√O CARTORARIA   Rua Carlos Eduardo Nichele,1382-LJ01                83833022Protesto apÛs 5 dias                                        000092
1                   000902692011248461-14386                  0000000000000014386600000000002               0114386     08031500000000350000000000012N030315000000000000001170000000000000000000000000000000000000000000000116811847000196TOLEDO & PEREIRA VASSALO LTDA ME        Rua Santos Pereira,212                              37500026Protesto apÛs 5 dias                                        000093
1                   000902692011248461-14387                  0000000000000014387400000000002               0114387     08031500000001000000000000012N030315000000000000003330000000000000000000000000000000000000000000000116819238000183CARLOS ALBERTO ROCHA DE MELO - ME       R. HermÛgenes Freire da Costa,02-LJ 05              28940000Protesto apÛs 5 dias                                        000094
1                   000902692011248461-14388                  0000000000000014388200000000002               0114388     08031500000000500000000000012N030315000000000000001670000000000000000000000000000000000000000000000116945793000151JLM INTERMEDIA«√O CARTOR¡RIA LTDA       Av. Tiradentes,618-LJ 03                            36307348Protesto apÛs 5 dias                                        000095
1                   000902692011248461-14389                  0000000000000014389000000000002               0114389     08031500000001750000000000012N030315000000000000005830000000000000000000000000000000000000000000000116927836000176C. M. MILROT CONSULTORIA E INTERMEDIA«√OAl. Ribeir„o Preto,551-SL 24                        01331001Protesto apÛs 5 dias                                        000096
1                   000902692011248461-14390                  0000000000000014390400000000002               0114390     08031500000000500000000000012N030315000000000000001670000000000000000000000000000000000000000000000116935668000160FLASH DOC INTERMEDIA«’ES CARTORARIAS    Av. Caetano Barrela,209                             06763460Protesto apÛs 5 dias                                        000097
1                   000902692011248461-14391                  0000000000000014391200000000002               0114391     08031500000000500000000000012N030315000000000000001670000000000000000000000000000000000000000000000116964316000133CAMARGO & ESTRACINE INTERMEDIA«√O CARTORRua Miguel Anselmo,260                              15900000Protesto apÛs 5 dias                                        000098
1                   000902692011248461-14392                  0000000000000014392000000000002               0114392     08031500000001000000000000012N030315000000000000003330000000000000000000000000000000000000000000000117829100000128JS & BOIM INTERMEDIA«√O CARTOR¡RIA LTDA Rua Tabatinguera,140-SL 409 e 410                   01020000Protesto apÛs 5 dias                                        000099
1                   000902692011248461-14393                  0000000000000014393900000000002               0114393     08031500000001000000000000012N030315000000000000003330000000000000000000000000000000000000000000000112587280000165RTC INTERMEDIA«√O CARTOR¡RIA LTDA - ME  Rua Montenegro,171 A                                11410040Protesto apÛs 5 dias                                        000100
1                   000902692011248461-14394                  0000000000000014394700000000002               0114394     08031500000000500000000000012N030315000000000000001670000000000000000000000000000000000000000000000116729531000150GOMES VERAS INTERMEDIA«√O CARTOR¡RIA LTDRua Maranh„o,763-Sala 17 R                          65901590Protesto apÛs 5 dias                                        000101
1                   000902692011248461-14395                  0000000000000014395500000000002               0114395     08031500000002000000000000012N030315000000000000006670000000000000000000000000000000000000000000000116970183000108NR INTERMEDIA«√O CARTOR¡RIA LTDA        Av. Dom Luis,500-Piso L0, Loja 38, Shopp            60160196Protesto apÛs 5 dias                                        000102
1                   000902692011248461-14396                  0000000000000014396300000000002               0114396     08031500000000500000000000012N030315000000000000001670000000000000000000000000000000000000000000000117103695000210Vale Rio - IntermediaÁ„o Cartor·ria LtdaRua do ParaÌso,97-SL 29                             48903050Protesto apÛs 5 dias                                        000103
1                   000902692011248461-14397                  0000000000000014397100000000002               0114397     08031500000000500000000000012N030315000000000000001670000000000000000000000000000000000000000000000117103695000130VALE RIO - INTERMEDIA«√O CARTOR¡RIA LTDAPraÁa Pio XII,290-2∫ Andar, SL 01                   56304430Protesto apÛs 5 dias                                        000104
1                   000902692011248461-14398                  0000000000000014398P00000000002               0114398     08031500000001000000000000012N030315000000000000003330000000000000000000000000000000000000000000000117488037000103LG INTERMEDIA«√O CARTOR¡RIA LTDA ME     Rua Rafael Nascimento,300 C                         75901290Protesto apÛs 5 dias                                        000105
1                   000902692011248461-14399                  0000000000000014399800000000002               0114399     08031500000001000000000000012N030315000000000000003330000000000000000000000000000000000000000000000117197147000116POSTCAR INTERMEDIA«√O CARTOR¡RIA LTDA   Rua Amaro Genari,40-Sala 33                         09810270Protesto apÛs 5 dias                                        000106
1                   000902692011248461-14400                  0000000000000014400500000000002               0114400     08031500000000300000000000012N030315000000000000001000000000000000000000000000000000000000000000000117216619000130F E M INTERMEDIA«√O CARTORARIA LTDA ME  Av. Dom Pedro II,135-Sala 22                        37470000Protesto apÛs 5 dias                                        000107
1                   000902692011248461-14401                  0000000000000014401300000000002               0114401     08031500000000500000000000012N030315000000000000001670000000000000000000000000000000000000000000000112762841000115SM GERENCIAMENTO DE CERTID’ES E DOCUMENTRua 18,81                                           76380000Protesto apÛs 5 dias                                        000108
1                   000902692011248461-14402                  0000000000000014402100000000002               0114402     08031500000000500000000000012N030315000000000000001670000000000000000000000000000000000000000000000118325368000195FERREIRA CAMPOS CONSULTORIA E INTERMEDIARua Joaquim Manuel,248                              46430000Protesto apÛs 5 dias                                        000109
1                   000902692011248461-14403                  0000000000000014403P00000000002               0114403     08031500000001500000000000012N030315000000000000005000000000000000000000000000000000000000000000000117234137000103Postal Services - Assessoria e ServiÁos PÁ das Orquideas,186-SL 04 | 1∫ Andar               06453002Protesto apÛs 5 dias                                        000110
1                   000902692011248461-14404                  0000000000000014404800000000002               0114404     08031500000000500000000000012N030315000000000000001670000000000000000000000000000000000000000000000117344439000134Carneiro e Santana IntermediaÁ„o Cartor·Rua Brasil,210-SALA A                               19800100Protesto apÛs 5 dias                                        000111
1                   000902692011248461-14405                  0000000000000014405600000000002               0114405     08031500000000500000000000012N030315000000000000001670000000000000000000000000000000000000000000000117474125000156MAGAVIX INTERMEDIA«√O E LOGISTICA DE DISRua Amap·,1777                                      87704070Protesto apÛs 5 dias                                        000112
1                   000902692011248461-14406                  0000000000000014406400000000002               0114406     08031500000000500000000000012N030315000000000000001670000000000000000000000000000000000000000000000118726605000120OLIVEIRA CECHET INTERMEDIA«√O CARTOR¡RIARua Cleriston Andrade,132-QD 23 LT 03 SL            47850000Protesto apÛs 5 dias                                        000113
1                   000902692011248461-14407                  0000000000000014407200000000002               0114407     08031500000000500000000000012N030315000000000000001670000000000000000000000000000000000000000000000117569606000145RP SERVI«OS CARTORARIOS LTDA            Av. Santos Dumont,3257-Comercial MM501 L            42700000Protesto apÛs 5 dias                                        000114
1                   000902692011248461-14408                  0000000000000014408000000000002               0114408     08031500000000500000000000012N030315000000000000001670000000000000000000000000000000000000000000000118532030000104ASSESSORIA POSTAL LTDA - ME             Rua 22,1225                                         38300076Protesto apÛs 5 dias                                        000115
1                   000902692011248461-14409                  0000000000000014409900000000002               0114409     08031500000000600000000000012N030315000000000000002000000000000000000000000000000000000000000000000109532074000143OTTIMIZA ASSESSORIA CARTORARIA LTDA - MERua Raimundo Chaves,1584                            59064390Protesto apÛs 5 dias                                        000116
1                   000902692011248461-14410                  0000000000000014410200000000002               0114410     08031500000000500000000000012N030315000000000000001670000000000000000000000000000000000000000000000118275563000158FEITOZA SERVI«OS POSTAL LTDA            Rua AntÙnio Guimar„es,604                           65631100Protesto apÛs 5 dias                                        000117
1                   000902692011248461-14411                  0000000000000014411000000000002               0114411     08031500000000500000000000012N030315000000000000001670000000000000000000000000000000000000000000000117497344000150VAP POSTAL INTERMEDIA«√O CARTOR¡RIA LTDARua Teodorico Tourinho,304                          39800010Protesto apÛs 5 dias                                        000118
1                   000902692011248461-14412                  0000000000000014412900000000002               0114412     08031500000000500000000000012N030315000000000000001670000000000000000000000000000000000000000000000113622593000170Moraes & Vessoni Serv. e Ass. CartorariaRua Paran·,629                                      19900021Protesto apÛs 5 dias                                        000119
1                   000902692011248461-14413                  0000000000000014413700000000002               0114413     08031500000000500000000000012N030315000000000000001670000000000000000000000000000000000000000000000117736384000108JANAINA FERREIRA DE TOLEDO PEREIRA      Rua Vanor Junqueira Franco,300-Fundos               14701010Protesto apÛs 5 dias                                        000120
1                   000902692011248461-14414                  0000000000000014414500000000002               0114414     08031500000000000000000000012N030315000000000000000000000000000000000000000000000000000000000000000100000000000000FACILE ¿ FAIRE                          Rue HonorÈ Longtin,4-1090                           00000000Protesto apÛs 5 dias                                        000121
1                   000902692011248461-14415                  0000000000000014415300000000002               0114415     08031500000000700000000000012N030315000000000000002330000000000000000000000000000000000000000000000117966691000185GERENCIAMENTO DE CERTIDOES E DOCUMENTOS Rua Cincinato Pinto,297-SL 105                      57020670Protesto apÛs 5 dias                                        000122
1                   000902692011248461-14416                  0000000000000014416100000000002               0114416     08031500000000350000000000012N030315000000000000001170000000000000000000000000000000000000000000000117882102000180JK INTERMEDIA«’ES CARTOR¡RIAS           Av. Francisco Monteiro,95                           09400310Protesto apÛs 5 dias                                        000123
1                   000902692011248461-14417                  0000000000000014417P00000000002               0114417     08031500000000350000000000012N030315000000000000001170000000000000000000000000000000000000000000000118268113000138LINS E SILVA INTERMEDIA«’ES CARTOR¡RIAS Rua Visconde de Campo Alegre,149-1∫ Anda            54505370Protesto apÛs 5 dias                                        000124
1                   000902692011248461-14418                  0000000000000014418800000000002               0114418     08031500000000500000000000012N030315000000000000001670000000000000000000000000000000000000000000000120794197000195ANH SERVI«OS CARTOR¡RIOS E DOCUMENTAIS LRua AntÙnio Teles de Menezes,41-SL 407              25520630Protesto apÛs 5 dias                                        000125
1                   000902692011248461-14419                  0000000000000014419600000000002               0114419     08031500000001000000000000012N030315000000000000003330000000000000000000000000000000000000000000000118133083000152MALTAURO BEZERRA CONSULTORIA E INTERMEDIAv. Tancredo Neves,1485-SL 408 | Ed. Esp            41820021Protesto apÛs 5 dias                                        000126
1                   000902692011248461-14420                  0000000000000014420P00000000002               0114420     08031500000000750000000000012N030315000000000000002500000000000000000000000000000000000000000000000118384480000105INTERMEDIA«√O CARTOR¡RIA INTERLAGOS LTDAAv. Nossa Senhora do Sabar·,1687                    04685004Protesto apÛs 5 dias                                        000127
1                   000902692011248461-14421                  0000000000000014421800000000002               0114421     08031500000000500000000000012N030315000000000000001670000000000000000000000000000000000000000000000118209597000144T A Mendes ServiÁos Administrativos - MERua Visconde do Rio Branco,128                      13600080Protesto apÛs 5 dias                                        000128
1                   000902692011248461-14422                  0000000000000014422600000000002               0114422     08031500000000000000000000012N030315000000000000000000000000000000000000000000000000000000000000000100000008684515LILIAN FITZPATRICK LIMITED              17 Oak House,W10 4DZ                                0W10 4DZProtesto apÛs 5 dias                                        000129
1                   000902692011248461-14423                  0000000000000014423400000000002               0114423     08031500000000500000000000012N030315000000000000001670000000000000000000000000000000000000000000000118117942000110Rocha OrÁai IntermediaÁ„o Cartor·ria LtdRua dos Leites,69-Sala 118, Galeria PÙr             28470000Protesto apÛs 5 dias                                        000130
1                   000902692011248461-14424                  0000000000000014424200000000002               0114424     08031500000000500000000000012N030315000000000000001670000000000000000000000000000000000000000000000118840724000109RM SERVI«OS DE INTERMEDIA«√O CARTOR¡RIA Av. Get˙lio Vargas,44                               48601260Protesto apÛs 5 dias                                        000131
1                   000902692011248461-14425                  0000000000000014425000000000002               0114425     08031500000001500000000000012N030315000000000000005000000000000000000000000000000000000000000000000118379292000180DOCUMENTUM BRASILIA LTDA - ME           CLN 316-BL E, LJ 06                                 70775550Protesto apÛs 5 dias                                        000132
1                   000902692011248461-14426                  0000000000000014426900000000002               0114426     08031500000001000000000000012N030315000000000000003330000000000000000000000000000000000000000000000115007025000194FV RepresentaÁ„o Comercial LTDA         Alameda AbricÛ,1856-LJ 03                           28890254Protesto apÛs 5 dias                                        000133
1                   000902692011248461-14427                  0000000000000014427700000000002               0114427     08031500000000500000000000012N030315000000000000001670000000000000000000000000000000000000000000000118254685000168CASTELO BRANCO - INTERMEDIA«√O CART”RARIRua do Sol,382-Loja 06 - Centro Empresar            65300000Protesto apÛs 5 dias                                        000134
1                   000902692011248461-14428                  0000000000000014428500000000002               0114428     08031500000000500000000000012N030315000000000000001670000000000000000000000000000000000000000000000118354262000110BOFF E MULLER INTERMEDIA«√O CARTOR¡RIA LAv. J˙lio de Castilhos,1340-SL 05 - Cent            95010003Protesto apÛs 5 dias                                        000135
1                   000902692011248461-14429                  0000000000000014429300000000002               0114429     08031500000000500000000000012N030315000000000000001670000000000000000000000000000000000000000000000119503612000125BORGES & SARTORI SERVI«OS ADMINISTRATIVOAv. Presidente Kennedy,6920-SL 6                    11704100Protesto apÛs 5 dias                                        000136
1                   000902692011248461-14430                  0000000000000014430700000000002               0114430     08031500000000500000000000012N030315000000000000001670000000000000000000000000000000000000000000000118596649000182LHL SERVI«OS ADMINISTRATIVOS E INTERMEDIRua AssemblÈia de Deus,39-SL 411                    11500040Protesto apÛs 5 dias                                        000137
1                   000902692011248461-14431                  0000000000000014431500000000002               0114431     08031500000000000000000000012N030315000000000000000000000000000000000000000000000000000000000000000118354041000141By Trade IntermediaÁ„o Cartor·ria LTDA  Rua Pinto de Figueiredo,55-SL 605                   20511240Protesto apÛs 5 dias                                        000138
1                   000902692011248461-14432                  0000000000000014432300000000002               0114432     08031500000000000000000000012N030315000000000000000000000000000000000000000000000000000000000000000100008490178747Patricia Lobmaier GonÁalves Cunha       Dammstrasse,16                                      00008810Protesto apÛs 5 dias                                        000139
1                   000902692011248461-14433                  0000000000000014433100000000002               0114433     08031500000000350000000000012N030315000000000000001170000000000000000000000000000000000000000000000119490850000143VA VIOTTO INTERMEDIACAO CAROTARIA - ME  Av. Farid Miguel Safatle,509-LJ 01                  75701040Protesto apÛs 5 dias                                        000140
1                   000902692011248461-14434                  0000000000000014434P00000000002               0114434     08031500000000500000000000012N030315000000000000001670000000000000000000000000000000000000000000000119289512000148P W INTERMEDIA«√O CARTOR¡RIA LTDA       Rua Bonaire,312                                     65930000Protesto apÛs 5 dias                                        000141
1                   000902692011248461-14435                  0000000000000014435800000000002               0114435     08031500000001000000000000012N030315000000000000003330000000000000000000000000000000000000000000000118758648000197CASANOVA E CAL INTERMEDIA«√O CARTOR¡RIA Rua Osvaldo Cruz,372-LJ 106                         41940000Protesto apÛs 5 dias                                        000142
1                   000902692011248461-14436                  0000000000000014436600000000002               0114436     08031500000000350000000000012N030315000000000000001170000000000000000000000000000000000000000000000118607091000193ROBERTA CORREA BUENO GOLO ME            PraÁa 9 de Julho,123                                13960000Protesto apÛs 5 dias                                        000143
1                   000902692011248461-14437                  0000000000000014437400000000002               0114437     08031500000000400000000000012N030315000000000000001330000000000000000000000000000000000000000000000103781158000134DESTRO & CABRAL INTERMEDIA«√O CARTOR¡RIAAv. da Saudade,246                                  14840000Protesto apÛs 5 dias                                        000144
1                   000902692011248461-14438                  0000000000000014438200000000002               0114438     08031500000000400000000000012N030315000000000000001330000000000000000000000000000000000000000000000118465701000161SANDRA RODRIGUES DE JESUS - EIRELI - ME Rua Tito FulgÍncio,164-SL 106, Galeria C            38500000Protesto apÛs 5 dias                                        000145
1                   000902692011248461-14439                  0000000000000014439000000000002               0114439     08031500000000500000000000012N030315000000000000001670000000000000000000000000000000000000000000000118950650000163NOVA ERA INTERMEDIA«√O CARTORARIA LTDA -Av. Rui Barbosa,72-SL 13                            11740970Protesto apÛs 5 dias                                        000146
1                   000902692011248461-14440                  0000000000000014440400000000002               0114440     08031500000000500000000000012N030315000000000000001670000000000000000000000000000000000000000000000118536552000184CAMPOS DO JORDAO INTERMEDIACAO CARTORARIRua Brigadeiro Jord„o,636                           12460000Protesto apÛs 5 dias                                        000147
1                   000902692011248461-14441                  0000000000000014441200000000002               0114441     08031500000001000000000000012N030315000000000000003330000000000000000000000000000000000000000000000118758564000153M & M INTERMEDIA«√O CARTOR¡RIA LTDA - MERua Dom Luis Felipe de Orleans,1177                 02118001Protesto apÛs 5 dias                                        000148
1                   000902692011248461-14442                  0000000000000014442000000000002               0114442     08031500000001000000000000012N030315000000000000003330000000000000000000000000000000000000000000000119166528000163ESANNF ‚Äì SERVI√áOS DE APOIO AS EMPRESARua do Arroz,90-SL 451                              21011070Protesto apÛs 5 dias                                        000149
1                   000902692011248461-14443                  0000000000000014443900000000002               0114443     08031500000000500000000000012N030315000000000000001670000000000000000000000000000000000000000000000101507315000192MG BUSINARI                             Av. Brasil,1955-SL 4A                               13468000Protesto apÛs 5 dias                                        000150
1                   000902692011248461-14444                  0000000000000014444700000000002               0114444     08031500000000350000000000012N030315000000000000001170000000000000000000000000000000000000000000000118717359000140FAVARO INTERMEDIA«√O CARTOR¡RIA LTDA -MEAv. Cinco,300                                       14620000Protesto apÛs 5 dias                                        000151
1                   000902692011248461-14445                  0000000000000014445500000000002               0114445     08031500000000500000000000012N030315000000000000001670000000000000000000000000000000000000000000000118995227000180MM SERVI«O DE INTERMEDIA«√O DE NEGOCIO LAv. Coumbiara,4489                                  76940000Protesto apÛs 5 dias                                        000152
1                   000902692011248461-14446                  0000000000000014446300000000002               0114446     08031500000000500000000000012N030315000000000000001670000000000000000000000000000000000000000000000114445177000106Bruce Costa Vilafranca - ME             Rua Paschoal Gianfrancesco,60-Sal„o 10              13224700Protesto apÛs 5 dias                                        000153
1                   000902692011248461-14447                  0000000000000014447100000000002               0114447     08031500000000500000000000012N030315000000000000001670000000000000000000000000000000000000000000000119448391000130YANA SANTOS SOUTO MAIOR VIEIRA - ME     Av. Agamenon Magalh„es,444-SL 426                   55012290Protesto apÛs 5 dias                                        000154
1                   000902692011248461-14448                  0000000000000014448P00000000002               0114448     08031500000000500000000000012N030315000000000000001670000000000000000000000000000000000000000000000119044805000165RB CONSULTORIA E ASSESSORIA EIRELI      Rua Eliseu Guilherme,724                            14025020Protesto apÛs 5 dias                                        000155
1                   000902692011248461-14449                  0000000000000014449800000000002               0114449     08031500000000500000000000012N030315000000000000001670000000000000000000000000000000000000000000000119716906000135MGM INTERMEDIA«√O CARTORARIA LTDA - ME  Rua Nabuco Araujo,74 B                              11025010Protesto apÛs 5 dias                                        000156
1                   000902692011248461-14450                  0000000000000014450100000000002               0114450     08031500000001000000000000012N030315000000000000003330000000000000000000000000000000000000000000000119137241000105OLIVEIRA E VALDEZ INTERMEDIA«’ES CARTOR¡Alameda Doutor Carlos de Carvalho,655-LJ            80430180Protesto apÛs 5 dias                                        000157
1                   000902692011248461-14451                  0000000000000014451P00000000002               0114451     08031500000001000000000000012N030315000000000000003330000000000000000000000000000000000000000000000116990226000117E. ROFELD SERVI«OS ADMINISTRATIVOS ME   Av. AngÈlica,1814-CJ 606                            01228200Protesto apÛs 5 dias                                        000158
1                   000902692011248461-14452                  0000000000000014452800000000002               0114452     08031500000001000000000000012N030315000000000000003330000000000000000000000000000000000000000000000113031763000141QUALY SERVI«OS CARTOR¡RIOS LTDA         Est. do Gabinal,313-LJ 215-216                      22760151Protesto apÛs 5 dias                                        000159
1                   000902692011248461-14453                  0000000000000014453600000000002               0114453     08031500000000500000000000012N030315000000000000001670000000000000000000000000000000000000000000000119219421000136OK INTERMEDIA«AO CARTORARIA LTDA        Rua Jeronimo Coelho,140-SL 04                       89201205Protesto apÛs 5 dias                                        000160
1                   000902692011248461-14454                  0000000000000014454400000000002               0114454     08031500000001000000000000012N030315000000000000003330000000000000000000000000000000000000000000000119344677000175Fontenelle, Viana & Santos IntermediaÁ„oRua Conde de Bonfim,310-Subsolo - LJ G              20520054Protesto apÛs 5 dias                                        000161
1                   000902692011248461-14455                  0000000000000014455200000000002               0114455     08031500000000350000000000012N030315000000000000001170000000000000000000000000000000000000000000000119152213000167MAIS FACIL INTERMEDIA«√O CARTORARIA     Av. Cel. Manoel InocÍncio,631-LJ 17                 12281010Protesto apÛs 5 dias                                        000162
1                   000902692011248461-14456                  0000000000000014456000000000002               0114456     08031500000000500000000000012N030315000000000000001670000000000000000000000000000000000000000000000119571061000137KAIROS PRESTA«√O DE SERVI«OS E INTERMEDIRua T,02-QD 02, Lote 09, Sala 08                    77064566Protesto apÛs 5 dias                                        000163
1                   000902692011248461-14457                  0000000000000014457900000000002               0114457     08031500000000500000000000012N030315000000000000001670000000000000000000000000000000000000000000000119376967000109INOVA«√O SERVI«OS DE APOIO ADMINISTRATIVRua Coronel Jo„o Urbano,85                          37002350Protesto apÛs 5 dias                                        000164
1                   000902692011248461-14458                  0000000000000014458700000000002               0114458     08031500000000500000000000012N030315000000000000001670000000000000000000000000000000000000000000000118939109000154J.B. NASCIMENTO INTERMEDIA«√O CARTORARIARua Par·,3222                                       15502236Protesto apÛs 5 dias                                        000165
1                   000902692011248461-14459                  0000000000000014459500000000002               0114459     08031500000001000000000000012N030315000000000000003330000000000000000000000000000000000000000000000119353380000176RODOPOSTALLE SERVICOS CARTORARIOS LTDA -Rua Flores do PiauÌ,99-SL 03, 1∫ Andar              08210200Protesto apÛs 5 dias                                        000166
1                   000902692011248461-14460                  0000000000000014460900000000002               0114460     08031500000000000000000000012N030315000000000000000000000000000000000000000000000000000000000000000119054315000140FERNANDA MUNDOSTOCK RAYMUNDO EPP        Av. JosÈ de Alencar,729                             90880481Protesto apÛs 5 dias                                        000167
1                   000902692011248461-14461                  0000000000000014461700000000002               0114461     08031500000000500000000000012N030315000000000000001670000000000000000000000000000000000000000000000119318001000107SOBRAL INTERMEDIA«√O DE DOCUMENTOS LTDA Rua Tabeli„o Ildefonso Cavalcante,417               62010015Protesto apÛs 5 dias                                        000168
1                   000902692011248461-14462                  0000000000000014462500000000002               0114462     08031500000001000000000000012N030315000000000000003330000000000000000000000000000000000000000000000119451478000166MELLO 7 LEBLON SERVI«OS DE DESPACHANTES Av. Ataulfo de Paiva,1174-SL 05                     22440035Protesto apÛs 5 dias                                        000169
1                   000902692011248461-14463                  0000000000000014463300000000002               0114463     08031500000001000000000000012N030315000000000000003330000000000000000000000000000000000000000000000119667269000154ANDRADE CONSULTORIA E INTERMEDIA«√O CARTAv. Dantas Barreto,1090-5∫Andar, Edf. Sa            50020000Protesto apÛs 5 dias                                        000170
1                   000902692011248461-14464                  0000000000000014464100000000002               0114464     08031500000001000000000000012N030315000000000000003330000000000000000000000000000000000000000000000110329307000194MCDI INTERMEDIA«’ES CARTOR¡RIAS LTDA - MRua Sargento Jo„o Lopes,263                         21931420Protesto apÛs 5 dias                                        000171
1                   000902692011248461-14465                  0000000000000014465P00000000002               0114465     08031500000000500000000000012N030315000000000000001670000000000000000000000000000000000000000000000108490584000132M.C. RABHA SERVI«OS ADMINISTRATIVOS     Rua da ConceiÁ„o,136-SL 201                         23900435Protesto apÛs 5 dias                                        000172
1                   000902692011248461-14466                  0000000000000014466800000000002               0114466     08031500000001000000000000012N030315000000000000003330000000000000000000000000000000000000000000000119780195000168FRAN«A E SOUZA INTERMEDIA«√O CARTOR¡RIA Av. Braz de Pina,2073-SL 204                        21235604Protesto apÛs 5 dias                                        000173
1                   000902692011248461-14467                  0000000000000014467600000000002               0114467     08031500000000350000000000012N030315000000000000001170000000000000000000000000000000000000000000000117961015000208ADALBERTO ROCHA THOBIAS - ME            Rua das Palmeiras,43                                17210120Protesto apÛs 5 dias                                        000174
1                   000902692011248461-14468                  0000000000000014468400000000002               0114468     08031500000001000000000000012N030315000000000000003330000000000000000000000000000000000000000000000116731938000111ANTTARES CONSULTORIA E INTERMEDIA«√O CARAv. Dr. Eduardo Cotching,1800 A                     03356000Protesto apÛs 5 dias                                        000175
1                   000902692011248461-14469                  0000000000000014469200000000002               0114469     08031500000000500000000000012N030315000000000000001670000000000000000000000000000000000000000000000119899797000139GESING E SILVA PREPARA«√O DE DOCUMENTOS Rua Alameda Aristiliano Ramos,768-SL 03             89160129Protesto apÛs 5 dias                                        000176
1                   000902692011248461-14470                  0000000000000014470600000000002               0114470     08031500000000500000000000012N030315000000000000001670000000000000000000000000000000000000000000000120853398000116ITABIRA SERVICOS CARTORARIOS LTDA       Rua Dom PrudÍncio,85 B-SL 02                        35900012Protesto apÛs 5 dias                                        000177
1                   000902692011248461-14471                  0000000000000014471400000000002               0114471     08031500000000500000000000012N030315000000000000001670000000000000000000000000000000000000000000000119725172000150CNF INTERMEDIA«√O CARTOR¡RIA ME         Rua Sete,2353                                       15700014Protesto apÛs 5 dias                                        000178
1                   000902692011248461-14472                  0000000000000014472200000000002               0114472     08031500000000500000000000012N030315000000000000001670000000000000000000000000000000000000000000000118101849000117ANA PAULA CALICCHIO FERRAZ ME           Av. Dr. Jo„o Carlos,14                              37800000Protesto apÛs 5 dias                                        000179
1                   000902692011248461-14473                  0000000000000014473000000000002               0114473     08031500000000500000000000012N030315000000000000001670000000000000000000000000000000000000000000000120063736000116RAHJ SOLU«’ES LTDA EPP                  Estrada Rio-S„o Paulo,17-LJ 19                      23898000Protesto apÛs 5 dias                                        000180
1                   000902692011248461-14474                  0000000000000014474900000000002               0114474     08031500000000350000000000012N030315000000000000001170000000000000000000000000000000000000000000000120175730000130FORMICOLI & ALVES LTDA                  Rua Porto Seguro,188                                87200258Protesto apÛs 5 dias                                        000181
1                   000902692011248461-14475                  0000000000000014475700000000002               0114475     08031500000001000000000000012N030315000000000000003330000000000000000000000000000000000000000000000119756945000166MADAME¥S INTERMEDIA«√O CARTORARIA LTDA -Av. Caminho do Mar,3215                             09611000Protesto apÛs 5 dias                                        000182
1                   000902692011248461-14476                  0000000000000014476500000000002               0114476     08031500000001000000000000012N030315000000000000003330000000000000000000000000000000000000000000000119831382000123INTERMEDIA«√O CARTOR¡RIA GADINI LTDA - MRua Maria C‚ndida,1159-Sala 02                      02071012Protesto apÛs 5 dias                                        000183
1                   000902692011248461-14477                  0000000000000014477300000000002               0114477     08031500000001000000000000012N030315000000000000003330000000000000000000000000000000000000000000000120307190000100IRM√OS FINGOLO INTERMEDIA«√O CARTOR¡RIA Rua Tenente Coronel Cardoso,379                     28010280Protesto apÛs 5 dias                                        000184
1                   000902692011248461-14478                  0000000000000014478100000000002               0114478     08031500000000500000000000012N030315000000000000001670000000000000000000000000000000000000000000000119955865000130V G M SERVI«OS E INTERMEDIA«√O CART”RARIRua Dr. Justo Pedrosa,380 A                         65800000Protesto apÛs 5 dias                                        000185
1                   000902692011248461-14479                  0000000000000014479P00000000002               0114479     08031500000000500000000000012N030315000000000000001670000000000000000000000000000000000000000000000120284459000171FIGUEIREDO INTERMEDIA«√O CARTORARIA LTDARua Monsenhor Leite,200-LJ 02                       37170000Protesto apÛs 5 dias                                        000186
1                   000902692011248461-14480                  0000000000000014480300000000002               0114480     08031500000000500000000000012N030315000000000000001670000000000000000000000000000000000000000000000120062349000165MASTER INTERMEDIA«’ES CARTOR¡RIAS E SERVRua Salvador MendonÁa,51-SL 101                     24800161Protesto apÛs 5 dias                                        000187
1                   000902692011248461-14481                  0000000000000014481100000000002               0114481     08031500000000000000000000012N030315000000000000000000000000000000000000000000000000000000000000000115007025000194F V REPRESENTA«√O COMERCIAL LTDA        Rua Visconde de Quissam„,315-LJ 01                  27910020Protesto apÛs 5 dias                                        000188
1                   000902692011248461-14482                  0000000000000014482P00000000002               0114482     08031500000000500000000000012N030315000000000000001670000000000000000000000000000000000000000000000120348170000179PIMENTEL INTERMEDIA«’ES CARTORARIAS     Av. Padre Anchieta,2522-LJ 02                       11750000Protesto apÛs 5 dias                                        000189
1                   000902692011248461-14483                  0000000000000014483800000000002               0114483     08031500000000500000000000012N030315000000000000001670000000000000000000000000000000000000000000000119790066000150CAMARGO E JARABIZA LTDA - ME            Rua Raimundo Leonardi,1656-Sala 01                  85900110Protesto apÛs 5 dias                                        000190
1                   000902692011248461-14484                  0000000000000014484600000000002               0114484     08031500000000500000000000012N030315000000000000001670000000000000000000000000000000000000000000000120269810000155FACILISDOCUMENTUM INTERMEDIA«√O CARTOR¡RRua AmbrÛsio,12                                     26580250Protesto apÛs 5 dias                                        000191
1                   000902692011248461-14485                  0000000000000014485400000000002               0114485     08031500000000500000000000012N030315000000000000001670000000000000000000000000000000000000000000000120456184000106JULIO CESAR SILVA LUCAS ME              Rua General Neto,161-SL 404                         96400380Protesto apÛs 5 dias                                        000192
1                   000902692011248461-14486                  0000000000000014486200000000002               0114486     08031500000001000000000000012N030315000000000000003330000000000000000000000000000000000000000000000120354043000182Clarice Lopes Moraes Marcheti - ME      Rua Ot·vio Nunes da Silva,57                        07021001Protesto apÛs 5 dias                                        000193
1                   000902692011248461-14487                  0000000000000014487000000000002               0114487     08031500000000500000000000012N030315000000000000001670000000000000000000000000000000000000000000000120720960000133DN ASSESSORIA E INTERMEDIA«√O CARTOR¡RIAAv. Rio Branco,533-LJ 06, Subsolo                   88015201Protesto apÛs 5 dias                                        000194
1                   000902692011248461-14488                  0000000000000014488900000000002               0114488     08031500000001000000000000012N030315000000000000003330000000000000000000000000000000000000000000000120530368000179QUEIROZ & LAPORTA INTERMEDIA«√O CARTORARRua Jorge Augusto,83-SL 76                          03645000Protesto apÛs 5 dias                                        000195
1                   000902692011248461-14489                  0000000000000014489700000000002               0114489     08031500000001000000000000012N030315000000000000003330000000000000000000000000000000000000000000000114045659000179B. DE A. REBOU«AS SISTEMA DE INTERMEDIA«Rua Par·,215 A                                      69053575Protesto apÛs 5 dias                                        000196
1                   000902692011248461-14490                  0000000000000014490000000000002               0114490     08031500000000500000000000012N030315000000000000001670000000000000000000000000000000000000000000000120306428000174INTERMEDIA«√O CARTOR¡RIA GALLO ANDREAZZAAv. Minas Gerais,405                                75110770Protesto apÛs 5 dias                                        000197
1                   000902692011248461-14491                  0000000000000014491900000000002               0114491     08031500000000500000000000012N030315000000000000001670000000000000000000000000000000000000000000000120346515000155R. DE S. ELIAS - ME                     Av. Deputado Gast„o Mariz de Faria,210-S            59152110Protesto apÛs 5 dias                                        000198
1                   000902692011248461-14492                  0000000000000014492700000000002               0114492     08031500000000500000000000012N030315000000000000001670000000000000000000000000000000000000000000000120729032000130NISHINA FREITAS INTERMEDIA«√O CARTOR¡RIAPraÁa Desembargador Eduardo Campos Maia,            12401480Protesto apÛs 5 dias                                        000199
1                   000902692011248461-14493                  0000000000000014493500000000002               0114493     08031500000000500000000000012N030315000000000000001670000000000000000000000000000000000000000000000120460981000167RICARDO OLIVA FERREIRA - INTERMEDIACAO CRua Carmine Di Genio,79                             04349030Protesto apÛs 5 dias                                        000200
1                   000902692011248461-14494                  0000000000000014494300000000002               0114494     08031500000000500000000000012N030315000000000000001670000000000000000000000000000000000000000000000120757719000189AMB SERVI«OS ESPECIALIZADOS DE APOIO ADMAv. Dezenove de Outubro,06-01                       64025140Protesto apÛs 5 dias                                        000201
1                   000902692011248461-14495                  0000000000000014495100000000002               0114495     08031500000000500000000000012N030315000000000000001670000000000000000000000000000000000000000000000112016343000123RICARDO CANDIOTA ROMANO 00351305980     Rua Arnoldo Candido Raulino,27-SL 103               88070710Protesto apÛs 5 dias                                        000202
1                   000902692011248461-14496                  0000000000000014496P00000000002               0114496     08031500000001000000000000012N030315000000000000003330000000000000000000000000000000000000000000000120925860000143CARTEX INTERMEDIA«√O CARTOR¡RIA LTDA - MSQS QD 01 BL A,LOJA 05                              70322900Protesto apÛs 5 dias                                        000203
1                   000902692011248461-14497                  0000000000000014497800000000002               0114497     08031500000000500000000000012N030315000000000000001670000000000000000000000000000000000000000000000121450571000106MELLO & GRANIERO INTERMEDIACAO CARTORARIRua Rio Grande do Sul,364 B                         09510020Protesto apÛs 5 dias                                        000204
1                   000902692011248461-14498                  0000000000000014498600000000002               0114498     08031500000001000000000000012N030315000000000000003330000000000000000000000000000000000000000000000120744410000154INTERMEDIACAO CARTORARIA LTDA - EPP     Av Dr Cristiano Guimaraes,1898                      31720300Protesto apÛs 5 dias                                        000205
1                   000902692011248461-14499                  0000000000000014499400000000002               0114499     08031500000000000000000000012N030315000000000000000000000000000000000000000000000000000000000000000100000470967420WORLDWIDE VISION SALES REPRESENTATIVE LL8421 South Orange Blosson Trail                     00032809Protesto apÛs 5 dias                                        000206
1                   000902692011248461-14500                  0000000000000014500100000000002               0114500     08031500000000500000000000012N030315000000000000001670000000000000000000000000000000000000000000000113031771000198NAVES ACESSORIA CARTORARIA E FINANCEIRA Rua Cesario Alvim,1519                              38740000Protesto apÛs 5 dias                                        000207
1                   000902692011248461-14501                  0000000000000014501P00000000002               0114501     08031500000000500000000000012N030315000000000000001670000000000000000000000000000000000000000000000120665644000106LM SOLUCOES EM INTERMEDIA«AO CARTORARIA Av. Terceira,271-SL 01                              88330083Protesto apÛs 5 dias                                        000208
1                   000902692011248461-14502                  0000000000000014502800000000002               0114502     08031500000000500000000000012N030315000000000000001670000000000000000000000000000000000000000000000111198466000160INTERMEDIACAO CARTORARIA CAICARA CARAGUAAv. Prisciliana de Castilho,374-SL 06               11660330Protesto apÛs 5 dias                                        000209
1                   000902692011248461-14503                  0000000000000014503600000000002               0114503     08031500000000500000000000012N030315000000000000001670000000000000000000000000000000000000000000000120893589000101BUSINESS & BUSINESS INTELLIGENCE INTERMERua Vereador Romeu Lauro Werlang,1302-SL            85601020Protesto apÛs 5 dias                                        000210
1                   000902692011248461-14504                  0000000000000014504400000000002               0114504     08031500000000500000000000012N030315000000000000001670000000000000000000000000000000000000000000000111428156000194PHF JINKINGS INTERMEDIA«’ES CARTOR¡RIAS Rua Senador Vergueira,93-LJ 05                      22230000Protesto apÛs 5 dias                                        000211
1                   000902692011248461-14505                  0000000000000014505200000000002               0114505     08031500000000500000000000012N030315000000000000001670000000000000000000000000000000000000000000000120984606000116INTERMEDIA«√O CARTORARIA PEMAVI SANTA RIRua Joaquim Rodarte,22-LJ A                         35570000Protesto apÛs 5 dias                                        000212
1                   000902692011248461-14506                  0000000000000014506000000000002               0114506     08031500000001000000000000012N030315000000000000003330000000000000000000000000000000000000000000000120918972000177MIRANDA PRATTES INTERMEDIACAO CARTORARIAAv. Pastor Marting Luther King Jr,126-BL            20765000Protesto apÛs 5 dias                                        000213
1                   000902692011248461-14507                  0000000000000014507900000000002               0114507     08031500000000500000000000012N030315000000000000001670000000000000000000000000000000000000000000000121294182000120ALESSANDRO STANCIK MULLER - ME          Rua Dr. Leoc·rdio,319-SL 2                          83203550Protesto apÛs 5 dias                                        000214
1                   000902692011248461-14508                  0000000000000014508700000000002               0114508     08031500000000500000000000012N030315000000000000001670000000000000000000000000000000000000000000000120674886000166THOMAZ INTERMEDIA«√O CARTOR¡RIA LTDA - MRua Prof. Luiz Nardy,137                            12900020Protesto apÛs 5 dias                                        000215
1                   000902692011248461-14509                  0000000000000014509500000000002               0114509     08031500000000500000000000012N030315000000000000001670000000000000000000000000000000000000000000000120898737000180JK SERVI«OS DE INTERMEDIA«√O CARTOR¡RIA Rua Ponte Nova,86-1∫ Andar, SL 103                  35160017Protesto apÛs 5 dias                                        000216
1                   000902692011248461-14510                  0000000000000014510900000000002               0114510     08031500000000500000000000012N030315000000000000001670000000000000000000000000000000000000000000000121204452000165VASCONCELOS & LEIT√O LTDA - ME          Rua David Canabarro,37-SL 101                       93510020Protesto apÛs 5 dias                                        000217
1                   000902692011248461-14511                  0000000000000014511700000000002               0114511     08031500000000350000000000012N030315000000000000001170000000000000000000000000000000000000000000000120886551000101RODOLFO DOS SANTOS MACHADO - ME         Av. Santos Dumont,65                                39205000Protesto apÛs 5 dias                                        000218
1                   000902692011248461-14512                  0000000000000014512500000000002               0114512     08031500000000000000000000012N030315000000000000000000000000000000000000000000000000000000000000000120800411000179DOC FACIL INTERMEDIACAO CARTORARIA      Rua Saldanha Marinho,695/103                        95700000Protesto apÛs 5 dias                                        000219
1                   000902692011248461-14513                  0000000000000014513300000000002               0114513     08031500000000000000000000012N030315000000000000000000000000000000000000000000000000000000000000000120918935000169FREITAS E SILVA ASSESSORIA CARTORARIA EIAv. Presidente Jo„o Goulart,QD 2 LT 08/2            74968890Protesto apÛs 5 dias                                        000220
1                   000902692011248461-14514                  0000000000000014514100000000002               0114514     08031500000000500000000000012N030315000000000000001670000000000000000000000000000000000000000000000103689855000160LANTRONIC REPRESENTA«’ES COMERCIAIS LTDAAv. Alvares Cabral,1030-Sala 103                    30170001Protesto apÛs 5 dias                                        000221
1                   000902692011248461-14515                  0000000000000014515P00000000002               0114515     08031500000000500000000000012N030315000000000000001670000000000000000000000000000000000000000000000121173788000108M&A INTERMEDIA«√O CARTOR¡RIA ME         Av. Affonso Trigo,941-SL 03                         14177090Protesto apÛs 5 dias                                        000222
1                   000902692011248461-14516                  0000000000000014516800000000002               0114516     08031500000000500000000000012N030315000000000000001670000000000000000000000000000000000000000000000121127993000137LUCIO & SANTANA INTERMEDIA«√O CARTOR¡RIAPraÁa Dom Pedro II,125-SL 38                        35300033Protesto apÛs 5 dias                                        000223
1                   000902692011248461-14517                  0000000000000014517600000000002               0114517     08031500000001000000000000012N030315000000000000003330000000000000000000000000000000000000000000000121060818000170MARTINS E ANDREZA INTERMEDIA«√O CARTOR¡RRua Berta,45                                        04120040Protesto apÛs 5 dias                                        000224
1                   000902692011248461-14518                  0000000000000014518400000000002               0114518     08031500000000300000000000012N030315000000000000001000000000000000000000000000000000000000000000000121352089000125MARACAS INTERMEDIACAO CARTORARIA LTDA - Av. Dr. Jo„o Pessoa,175                             45360000Protesto apÛs 5 dias                                        000225
1                   000902692011248461-14519                  0000000000000014519200000000002               0114519     08031500000000500000000000012N030315000000000000001670000000000000000000000000000000000000000000000121131878000136COLLINA INTERMEDIA«√O CARTORARIA LTDA - Rua Senador Flaquer,241-LJ 09 - Patio Se            09010160Protesto apÛs 5 dias                                        000226
1                   000902692011248461-14520                  0000000000000014520600000000002               0114520     08031500000000500000000000012N030315000000000000001670000000000000000000000000000000000000000000000121430108000194BELLO & FIUMARO INTERMEDIA«√O CARTOR¡RIARua Antonio Pereira de Camargo,60-SL 76             13170030Protesto apÛs 5 dias                                        000227
1                   000902692011248461-14521                  0000000000000014521400000000002               0114521     08031500000000000000000000012N030315000000000000000000000000000000000000000000000000000000000000000138873658000180Afr‚nio - PE                            Rua Francisco Rodrigues                             56361000Protesto apÛs 5 dias                                        000228
1                   000902692011248461-14522                  0000000000000014522200000000002               0114522     08031500000000500000000000012N030315000000000000001670000000000000000000000000000000000000000000000121375580000171WE FACILITY CONSULTORIA E INTERMEDIA«√O Rua Francisco Alvarenga,73                          04417260Protesto apÛs 5 dias                                        000229
1                   000902692011248461-14523                  0000000000000014523000000000002               0114523     08031500000000300000000000012N030315000000000000001000000000000000000000000000000000000000000000000121534481000195ANNY K S DE LUCENA INTERMEDIA«’ES CARTORRua Galdino Bezerra,88                              55125000Protesto apÛs 5 dias                                        000230
1                   000902692011248461-14524                  0000000000000014524900000000002               0114524     08031500000000500000000000012N030315000000000000001670000000000000000000000000000000000000000000000115776815000134RCA - PREST CART INTERMEDIA«√O CARTORARIRua Palmira Ninho,79-LJ 107                         24710440Protesto apÛs 5 dias                                        000231
1                   000902692011248461-14525                  0000000000000014525700000000002               0114525     13031500000000738750000000012N030315120000000000002460000000000000000000000000000000000000000000000262232889000190Banco Daycoval S/A                      Avenida Paulista ,1793-02∫ Andar                    01311200                                                            000232
1                   000902692011248461-14526                  0000000000000014526500000000002               0114526     13031500000000500000000000012N030315120000000000001670000000000000000000000000000000000000000000000262232889000190Banco Daycoval S/A                      Avenida Paulista ,1793-02∫ Andar                    01311200                                                            000233
1                   000902692011248461-14527                  0000000000000014527300000000002               0114527     13031500000000748600000000012N030315120000000000002500000000000000000000000000000000000000000000000262232889000190Banco Daycoval S/A                      Avenida Paulista ,1793-02∫ Andar                    01311200                                                            000234
1                   000902692011248461-14528                  0000000000000014528100000000002               0114528     13031500000000748600000000012N030315120000000000002500000000000000000000000000000000000000000000000262232889000190Banco Daycoval S/A                      Avenida Paulista ,1793-02∫ Andar                    01311200                                                            000235
1                   000902692011248461-14529                  0000000000000014529P00000000002               0114529     13031500000000100000000000012N030315120000000000000330000000000000000000000000000000000000000000000200360305098830CAIXA ECONOMICA FEDERAL                 Avenida Padre AntÙnio JosÈ dos Santos ,4            04563011                                                            000236
1                   000902692011248461-14530                  0000000000000014530300000000002               0114530     27031500000000470800000000012N030315120000000000001570000000000000000000000000000000000000000000000208347261000194ANGAR¡ INVESTIMENTOS IMOBILI¡RIOS LTDA. Avenida Engenheiro Luiz Carlos Berrini ,            04571010                                                            000237
1                   000902692011248461-14531                  0000000000000014531100000000002               0114531     27031500000000291950000000012N030315120000000000000970000000000000000000000000000000000000000000000208346093000112ARARAJUBA EMPREENDIMENTO IMOBILI¡RIO SPEAvenida Paulista,1374-13∫ e 14∫ andar               01310100                                                            000238
1                   000902692011248461-14532                  0000000000000014532P00000000002               0114532     27031500000000440550000000012N030315120000000000001470000000000000000000000000000000000000000000000208537658000149BR¡S EMPREENDIMENTO IMOBILI¡RIO SPE LTDAAvenida Engenheiro Luiz Carlos Berrini,1            04571010                                                            000239
1                   000902692011248461-14533                  0000000000000014533800000000002               0114533     27031500000000061600000000012N030315120000000000000210000000000000000000000000000000000000000000000207698561000155CONDESSA EMPREENDIMENTOS IMOBILI¡RIOS  LAvenida Engenheiro Luiz Carlos Berrini ,            04571010                                                            000240
1                   000902692011248461-14534                  0000000000000014534600000000002               0114534     27031500000000093940000000012N030315120000000000000310000000000000000000000000000000000000000000000208536102000138CONQUISTA EMPREENDIMENTO IMOBILI¡RIO SPEAvenida Engenheiro Luiz Carlos Berrini,1            04571010                                                            000241
1                   000902692011248461-14535                  0000000000000014535400000000002               0114535     27031500000000093940000000012N030315120000000000000310000000000000000000000000000000000000000000000208188603000170ELTANIN INCORPORADORA LTDA              Avenida Engenheiro Luiz Carlos Berrini,1            04571010                                                            000242
1                   000902692011248461-14536                  0000000000000014536200000000002               0114536     27031500000000375760000000012N030315120000000000001250000000000000000000000000000000000000000000000208982379000194GOLD ACRE EMPREENDIMENTOS IMOBILI¡RIOS SAvenida Engenheiro Luiz Carlos Berrini,1            04571010                                                            000243
1                   000902692011248461-14537                  0000000000000014537000000000002               0114537     27031500000000061600000000012N030315120000000000000210000000000000000000000000000000000000000000000209312936000122GOLD BEIGE EMPREEENDIMENTOS IMOBILI¡RIOSAvenida Engenheiro Luiz Carlos Berrini,1            04571010                                                            000244
1                   000902692011248461-14538                  0000000000000014538900000000002               0114538     27031500000000061600000000012N030315120000000000000210000000000000000000000000000000000000000000000210899967000100GOLD LEROS EMPREENDIMENTOS IMOBILI¡RIOS Avenida Engenheiro Luiz Carlos Berrini ,            04571010                                                            000245
1                   000902692011248461-14539                  0000000000000014539700000000002               0114539     27031500000000061600000000012N030315120000000000000210000000000000000000000000000000000000000000000211405508000196GOLDFARB 19  EMPREENDIMENTO IMOBILI¡RIO Avenida Engenheiro Luiz Carlos Berrini ,            04571010                                                            000246
1                   000902692011248461-14540                  0000000000000014540000000000002               0114540     27031500000001028870000000012N030315120000000000003430000000000000000000000000000000000000000000000211405518000121GOLDFARB 25 EMPREENDIMENTO IMOBILI¡RIO LAvenida Paulista,1374-13∫ e 14∫ andar               01310100                                                            000247
1                   000902692011248461-14541                  0000000000000014541900000000002               0114541     27031500000000056000000000012N030315120000000000000190000000000000000000000000000000000000000000000211444236000133GOLDFARB 36 EMPREENDIMENTO IMOBILIARIO LAvenida Paulista,1374-13∫ e 14∫ andar               01310100                                                            000248
1                   000902692011248461-14542                  0000000000000014542700000000002               0114542     27031500000000147000000000012N030315120000000000000490000000000000000000000000000000000000000000000211444235000199GOLDFARB 38 EMPREENDIMENTOS IMOBILI¡RIOSAvenida Paulista,1374-13∫ e 14∫ andar               01310100                                                            000249
