01REMESSA01COBRANCA       00000000000004130991SISTEMA DE CARTóRIO CERTIDõES 237BRADESCO       060215        MX0000753                                                                                                                                                                                                                                                                                     000001
1                   000902692011248461-13865                  0000000000000013865P00000000002               0113865     30011500000001179280000000012N280115000000000000000000000000000000000000000000000000000000000000000201701201034830HSBC BANK BRASIL S.A. - BANCO MULTIPLO  Rua Paula Sousa, 315                                01027001Referente as custas da ordem 343173/1                       000002
1                   000902692011248461-13866                  0000000000000013866800000000002               0113866     07021500000000500000000000012N280115120000000000001670000000000000000000000000000000000000000000000200360305025441104 Caixa Econômica Federal             Rua Joaquim Floriano,446                            04534002                                                            000003
1                   000902692011248461-13867                  0000000000000013867600000000002               0113867     07021500000000689500000000012N280115120000000000002300000000000000000000000000000000000000000000000200360305025441104 Caixa Econômica Federal             Rua Joaquim Floriano,446                            04534002                                                            000004
1                   000902692011248461-13868                  0000000000000013868400000000002               0113868     07021500000000100000000000012N280115120000000000000330000000000000000000000000000000000000000000000200360305025441104 Caixa Econômica Federal             Rua Joaquim Floriano,446                            04534002                                                            000005
1                   000902692011248461-13869                  0000000000000013869200000000002               0113869     09021500000000110000000000012N300115120000000000000370000000000000000000000000000000000000000000000260910932000101D´Urso e Borges Advogados Associados    Rua Nestor Pestana,125-CJ. 63                       01303010                                                            000006
1                   000902692011248461-13870                  0000000000000013870600000000002               0113870     06021500000000305000000000012N3001150000000000000000000000000000000000000000000000000000000000000002000000005070911 Banco do Brasil S.A.                  Rua Doutor César, 530 - 11º andar                   02013002Referente as custas da ordem 340736/1                       000007
1                   000902692011248461-13871                  0000000000000013871400000000002               0113871     26021500000000374700000000012N020215120000000000001250000000000000000000000000000000000000000000000208537658000149BRÁS EMPREENDIMENTO IMOBILIÁRIO SPE LTDAAv Paulista,1374-13º andar                          01013100                                                            000008
1                   000902692011248461-13872                  0000000000000013872200000000002               0113872     26021500000000056000000000012N020215120000000000000190000000000000000000000000000000000000000000000208421706000139COLORE EMPREENDIMENTO IMOBILIÁRIO SPE S/Avenida Paulista,1374-13º e 14º andar               01310100                                                            000009
1                   000902692011248461-13873                  0000000000000013873000000000002               0113873     26021500000000409550000000012N020215120000000000001370000000000000000000000000000000000000000000000207698561000155CONDESSA EMPREENDIMENTOS IMOBILIÁRIOS  LAvenida Paulista,1374-13º e 14º andar               01310100                                                            000010
1                   000902692011248461-13874                  0000000000000013874900000000002               0113874     26021500000000093940000000012N020215120000000000000310000000000000000000000000000000000000000000000208188603000170ELTANIN INCORPORADORA LTDA              Avenida Engenheiro Luiz Carlos Berrini ,            04571010                                                            000011
1                   000902692011248461-13875                  0000000000000013875700000000002               0113875     26021500000000093940000000012N020215120000000000000310000000000000000000000000000000000000000000000208982379000194GOLD ACRE EMPREENDIMENTOS IMOBILIÁRIOS SAvenida Engenheiro Luiz Carlos Berrini,1            04571010                                                            000012
1                   000902692011248461-13876                  0000000000000013876500000000002               0113876     26021500000000056000000000012N020215120000000000000190000000000000000000000000000000000000000000000209312936000122GOLD BEIGE EMPREEENDIMENTOS IMOBILIÁRIOSAvenida Paulista,1374-13º e 14º andar               01310100                                                            000013
1                   000902692011248461-13877                  0000000000000013877300000000002               0113877     26021500000000061600000000012N020215120000000000000210000000000000000000000000000000000000000000000210899967000100GOLD LEROS EMPREENDIMENTOS IMOBILIÁRIOS Avenida Engenheiro Luiz Carlos Berrini ,            04571010                                                            000014
1                   000902692011248461-13878                  0000000000000013878100000000002               0113878     26021500000000168000000000012N020215120000000000000560000000000000000000000000000000000000000000000209185079000147GOLD NIGÉRIA EMPREENDIMENTOS IMOBILIARIOAvenida Paulista,1374-13º e 14º andar               01310100                                                            000015
1                   000902692011248461-13879                  0000000000000013879P00000000002               0113879     26021500000000123200000000012N020215120000000000000410000000000000000000000000000000000000000000000208537658000149BRÁS EMPREENDIMENTO IMOBILIÁRIO SPE LTDAAvenida Engenheiro Luiz Carlos Berrini ,            04571010                                                            000016
1                   000902692011248461-13880                  0000000000000013880300000000002               0113880     26021500000000211540000000012N020215120000000000000710000000000000000000000000000000000000000000000211405518000121GOLDFARB 25 EMPREENDIMENTO IMOBILIÁRIO LAvenida Paulista,1374-13º e 14º andar               01310100                                                            000017
1                   000902692011248461-13881                  0000000000000013881100000000002               0113881     26021500000000061600000000012N020215120000000000000210000000000000000000000000000000000000000000000211444236000133GOLDFARB 36 EMPREENDIMENTO IMOBILIARIO LAvenida Engenheiro Luiz Carlos Berrini ,            04571010                                                            000018
1                   000902692011248461-13882                  0000000000000013882P00000000002               0113882     26021500000001067000000000012N020215120000000000003560000000000000000000000000000000000000000000000207979199000190ILHAS GREGAS INCORPORADORA SPE LTDA     Av Paulista,1374-13º Andar                          01310100                                                            000019
1                   000902692011248461-13883                  0000000000000013883800000000002               0113883     26021500000001195150000000012N020215120000000000003980000000000000000000000000000000000000000000000207421434000104JARDIM DAS VERTENTES INCORPORADORA SPE LAvenida Paulista,1374-13º e 14º andar               01310100                                                            000020
1                   000902692011248461-13884                  0000000000000013884600000000002               0113884     26021500000001047300000000012N020215120000000000003490000000000000000000000000000000000000000000000211864661000181PDG SP 15 INCORPORAÇÕES SPE LTDA        Avenida Paulista,1374-13º e 14º andar               01310100                                                            000021
1                   000902692011248461-13885                  0000000000000013885400000000002               0113885     26021500000000061600000000012N020215120000000000000210000000000000000000000000000000000000000000000211837131000144PDG SP 2 INCORPORAÇÕES SPE LTDA         Avenida Engenheiro Luiz Carlos Berrini ,            04571010                                                            000022
1                   000902692011248461-13886                  0000000000000013886200000000002               0113886     26021500000000056000000000012N020215120000000000000190000000000000000000000000000000000000000000000211837193000156PDG SP 6 INCORPORAÇÃOES SPE LTDA        Avenida Paulista,1374-13º e 14º andar               01310100                                                            000023
1                   000902692011248461-13887                  0000000000000013887000000000002               0113887     26021500000000112000000000012N020215120000000000000370000000000000000000000000000000000000000000000214068577000140PDG SPE 15 EMPREENDIMENTOS IMOBILIÁRIOS Avenida Paulista,1374-13º e 14º andar               01310100                                                            000024
1                   000902692011248461-13888                  0000000000000013888900000000002               0113888     26021500000000061600000000012N020215120000000000000210000000000000000000000000000000000000000000000213077777000104PDG SPE 17 EMPREENDIMENTOS IMOBILIÁRIOS Avenida Engenheiro Luiz Carlos Berrini ,            04571010                                                            000025
1                   000902692011248461-13889                  0000000000000013889700000000002               0113889     26011500000000224750000000012N020215120000000000000750000000000000000000000000000000000000000000000208156644000185PENIDRE ADMINISTRAÇÃO DE BENS LTDA      Avenida Paulista,1374-13º e 14º andar               01310100                                                            000026
1                   000902692011248461-13890                  0000000000000013890000000000002               0113890     26021500000000783130000000012N020215120000000000002610000000000000000000000000000000000000000000000207273982000134PEREIRA BARRETO EMPREENDIMENTOS IMOBILIÁAvenida Paulista,1374-13º e 14º andar               01310100                                                            000027
1                   000902692011248461-13891                  0000000000000013891900000000002               0113891     26021500000000056000000000012N020215120000000000000190000000000000000000000000000000000000000000000205404026000119AGRA CYRELA SPE LTDA                    Avenida Paulista,1374-13º e 14º andar               01310100                                                            000028
1                   000902692011248461-13892                  0000000000000013892700000000002               0113892     26021500000000521550000000012N020215120000000000001740000000000000000000000000000000000000000000000208346093000112ARARAJUBA EMPREENDIMENTO IMOBILIÁRIO SPEAvenida Paulista,1374-13º e 14º andar               01310100                                                            000029
1                   000902692011248461-13893                  0000000000000013893500000000002               0113893     08021500000000235620000000012N030215000000000000000790000000000000000000000000000000000000000000000111029315000188SUZAN CART CERTIDOES LTDA - ME          Rua Gal. Francisco Glicério,1185                    08674003Protesto após 5 dias                                        000030
1                   000902692011248461-13894                  0000000000000013894300000000002               0113894     08021500000000235620000000012N030215000000000000000790000000000000000000000000000000000000000000000111029315000188SUZAN CART CERTIDOES LTDA - ME          Rua Gal. Francisco Glicério,1185                    08674003Protesto após 5 dias                                        000031
1                   000902692011248461-13895                  0000000000000013895100000000002               0113895     08021500000000235620000000012N030215000000000000000790000000000000000000000000000000000000000000000111029315000188SUZAN CART CERTIDOES LTDA - ME          Rua Gal. Francisco Glicério,1185                    08674003Protesto após 5 dias                                        000032
1                   000902692011248461-13896                  0000000000000013896P00000000002               0113896     08021500000000235620000000012N030215000000000000000790000000000000000000000000000000000000000000000111029315000188SUZAN CART CERTIDOES LTDA - ME          Rua Gal. Francisco Glicério,1185                    08674003Protesto após 5 dias                                        000033
1                   000902692011248461-13897                  0000000000000013897800000000002               0113897     08021500000000302600000000012N030215000000000000001010000000000000000000000000000000000000000000000111163439000151RF-SERVICOS DE DOCUMENTACAO LTDA.       Av. Mal. Castelo Branco,173-A                       65076090Protesto após 5 dias                                        000034
1                   000902692011248461-13898                  0000000000000013898600000000002               0113898     08021500000000302600000000012N030215000000000000001010000000000000000000000000000000000000000000000111163439000151RF-SERVICOS DE DOCUMENTACAO LTDA.       Av. Mal. Castelo Branco,173-A                       65076090Protesto após 5 dias                                        000035
1                   000902692011248461-13899                  0000000000000013899400000000002               0113899     08021500000001800000000000012N030215000000000000006000000000000000000000000000000000000000000000000110999668000148ASSESSORIA E CONSULTORIA DE DOCUMENTOS ER. Leopoldo Machado,242-Loja 02                     18035075Protesto após 5 dias                                        000036
1                   000902692011248461-13900                  0000000000000013900100000000002               0113900     08021500000001800000000000012N030215000000000000006000000000000000000000000000000000000000000000000110999668000148ASSESSORIA E CONSULTORIA DE DOCUMENTOS ER. Leopoldo Machado,242-Loja 02                     18035075Protesto após 5 dias                                        000037
1                   000902692011248461-13901                  0000000000000013901P00000000002               0113901     08021500000001300000000000012N030215000000000000004330000000000000000000000000000000000000000000000111165549000152D´ VASQUEZ SERVIÇOS CARTORARIOS LTDA - EAv. Dr. João Guilhermino,293                        12210131Protesto após 5 dias                                        000038
1                   000902692011248461-13902                  0000000000000013902800000000002               0113902     08021500000001300000000000012N030215000000000000004330000000000000000000000000000000000000000000000111165549000152D´ VASQUEZ SERVIÇOS CARTORARIOS LTDA - EAv. Dr. João Guilhermino,293                        12210131Protesto após 5 dias                                        000039
1                   000902692011248461-13903                  0000000000000013903600000000002               0113903     08021500000001000000000000012N030215000000000000003330000000000000000000000000000000000000000000000111144435000126DOCK STATION INTERMEDIAÇÃO CARTORÁRIA LTRua da Quitanda,20-4º andar – Sala 401              20011972Protesto após 5 dias                                        000040
1                   000902692011248461-13904                  0000000000000013904400000000002               0113904     08021500000001000000000000012N030215000000000000003330000000000000000000000000000000000000000000000111144435000126DOCK STATION INTERMEDIAÇÃO CARTORÁRIA LTRua da Quitanda,20-4º andar – Sala 401              20011972Protesto após 5 dias                                        000041
1                   000902692011248461-13905                  0000000000000013905200000000002               0113905     08021500000001000000000000012N030215000000000000003330000000000000000000000000000000000000000000000114816778000188Oliveira Intermediação Cartorária LTDA MRua Delfino Cintra,500 AxB                          13020100Protesto após 5 dias                                        000042
1                   000902692011248461-13906                  0000000000000013906000000000002               0113906     08021500000001000000000000012N030215000000000000003330000000000000000000000000000000000000000000000114816778000188Oliveira Intermediação Cartorária LTDA MRua Delfino Cintra,500 AxB                          13020100Protesto após 5 dias                                        000043
1                   000902692011248461-13907                  0000000000000013907900000000002               0113907     08021500000000500000000000012N030215000000000000001670000000000000000000000000000000000000000000000111253279000131ÁGAPE SERVIÇOS E INTERMEDIAÇÕES CARTORÁRR. Gov. Pedro de Toledo,569                         13400070Protesto após 5 dias                                        000044
1                   000902692011248461-13908                  0000000000000013908700000000002               0113908     08021500000000500000000000012N030215000000000000001670000000000000000000000000000000000000000000000111253279000131ÁGAPE SERVIÇOS E INTERMEDIAÇÕES CARTORÁRR. Gov. Pedro de Toledo,569                         13400070Protesto após 5 dias                                        000045
1                   000902692011248461-13909                  0000000000000013909500000000002               0113909     08021500000001000000000000012N030215000000000000003330000000000000000000000000000000000000000000000106058057000128CTPOST SERVIÇOS LTDA ME                 R. Chaves Barcelos,131                              90030120Protesto após 5 dias                                        000046
1                   000902692011248461-13910                  0000000000000013910900000000002               0113910     08021500000001000000000000012N030215000000000000003330000000000000000000000000000000000000000000000106058057000128CTPOST SERVIÇOS LTDA ME                 R. Chaves Barcelos,131                              90030120Protesto após 5 dias                                        000047
1                   000902692011248461-13911                  0000000000000013911700000000002               0113911     08021500000000000000000000012N030215000000000000000000000000000000000000000000000000000000000000000113238744000190ARCHANJO TEIXEIRA PREPARAÇÃO DE DOCUMENTAv. Brasil,1586-Loja 06                             30140003Protesto após 5 dias                                        000048
1                   000902692011248461-13912                  0000000000000013912500000000002               0113912     08021500000000000000000000012N030215000000000000000000000000000000000000000000000000000000000000000113238744000190ARCHANJO TEIXEIRA PREPARAÇÃO DE DOCUMENTAv. Brasil,1586-Loja 06                             30140003Protesto após 5 dias                                        000049
1                   000902692011248461-13913                  0000000000000013913300000000002               0113913     08021500000000000000000000012N030215000000000000000000000000000000000000000000000000000000000000000112761154000185MC PRESTADORA DE SERVIÇOS ADMINISTRATIVORua Marechal José B. Bormann,164 E-Sala             89802120Protesto após 5 dias                                        000050
1                   000902692011248461-13914                  0000000000000013914100000000002               0113914     08021500000000000000000000012N030215000000000000000000000000000000000000000000000000000000000000000112761154000185MC PRESTADORA DE SERVIÇOS ADMINISTRATIVORua Marechal José B. Bormann,164 E-Sala             89802120Protesto após 5 dias                                        000051
1                   000902692011248461-13915                  0000000000000013915P00000000002               0113915     08021500000000500000000000012N030215000000000000001670000000000000000000000000000000000000000000000111675298000156MORANDO & MORANDO SERV TRANSCRIÇÃO DOCUMRua Tibiriçá,189                                    14010090Protesto após 5 dias                                        000052
1                   000902692011248461-13916                  0000000000000013916800000000002               0113916     08021500000000500000000000012N030215000000000000001670000000000000000000000000000000000000000000000111675298000156MORANDO & MORANDO SERV TRANSCRIÇÃO DOCUMRua Tibiriçá,189                                    14010090Protesto após 5 dias                                        000053
1                   000902692011248461-13917                  0000000000000013917600000000002               0113917     08021500000000000000000000012N030215000000000000000000000000000000000000000000000000000000000000000113329559000101FACIL SERVICOS ADMINISTRATIVOS LTDA ME  Av. das Embaúbas,952                                78550222Protesto após 5 dias                                        000054
1                   000902692011248461-13918                  0000000000000013918400000000002               0113918     08021500000000000000000000012N030215000000000000000000000000000000000000000000000000000000000000000113329559000101FACIL SERVICOS ADMINISTRATIVOS LTDA ME  Av. das Embaúbas,952                                78550222Protesto após 5 dias                                        000055
1                   000902692011248461-13919                  0000000000000013919200000000002               0113919     08021500000000008500000000012N030215000000000000000030000000000000000000000000000000000000000000000111564744000155SARAIVA´S CONSULTORIA EMPRESARIAL LTDA  Rua Prefeito José Santana Trigueiro,183             32604188Protesto após 5 dias                                        000056
1                   000902692011248461-13920                  0000000000000013920600000000002               0113920     08021500000000008500000000012N030215000000000000000030000000000000000000000000000000000000000000000111564744000155SARAIVA´S CONSULTORIA EMPRESARIAL LTDA  Rua Prefeito José Santana Trigueiro,183             32604188Protesto após 5 dias                                        000057
1                   000902692011248461-13921                  0000000000000013921400000000002               0113921     08021500000000000000000000012N030215000000000000000000000000000000000000000000000000000000000000000111425891000144MHG SERVIÇOS ADMINISTRATIVOS EMPRESAS LTAv. Tocantins,1124                                  74075100Protesto após 5 dias                                        000058
1                   000902692011248461-13922                  0000000000000013922200000000002               0113922     08021500000000000000000000012N030215000000000000000000000000000000000000000000000000000000000000000111425891000144MHG SERVIÇOS ADMINISTRATIVOS EMPRESAS LTAv. Tocantins,1124                                  74075100Protesto após 5 dias                                        000059
1                   000902692011248461-13923                  0000000000000013923000000000002               0113923     08021500000000500000000000012N030215000000000000001670000000000000000000000000000000000000000000000111479061000108ANDRADE SOARES LOPES LTDA               Rua Lehar David,05                                  45000445Protesto após 5 dias                                        000060
1                   000902692011248461-13924                  0000000000000013924900000000002               0113924     08021500000000500000000000012N030215000000000000001670000000000000000000000000000000000000000000000111479061000108ANDRADE SOARES LOPES LTDA               Rua Lehar David,05                                  45000445Protesto após 5 dias                                        000061
1                   000902692011248461-13925                  0000000000000013925700000000002               0113925     08021500000000000000000000012N030215000000000000000000000000000000000000000000000000000000000000000111777632000182CFN ASSESSORIA EM DOCUMENTOS LTDA       R Prefeito Carlos José Carlson,226-CJ 01            09450000Protesto após 5 dias                                        000062
1                   000902692011248461-13926                  0000000000000013926500000000002               0113926     08021500000000000000000000012N030215000000000000000000000000000000000000000000000000000000000000000111777632000182CFN ASSESSORIA EM DOCUMENTOS LTDA       R Prefeito Carlos José Carlson,226-CJ 01            09450000Protesto após 5 dias                                        000063
1                   000902692011248461-13927                  0000000000000013927300000000002               0113927     08021500000000500000000000012N030215000000000000001670000000000000000000000000000000000000000000000111222886000134ELIDA ASSESSORIA EMPRESARIAL LTDA       R. Neo Alves Martins,2955-Sala 03                   87013060Protesto após 5 dias                                        000064
1                   000902692011248461-13928                  0000000000000013928100000000002               0113928     08021500000000500000000000012N030215000000000000001670000000000000000000000000000000000000000000000111222886000134ELIDA ASSESSORIA EMPRESARIAL LTDA       R. Neo Alves Martins,2955-Sala 03                   87013060Protesto após 5 dias                                        000065
1                   000902692011248461-13929                  0000000000000013929P00000000002               0113929     08021500000000090000000000012N030215000000000000000300000000000000000000000000000000000000000000000111834699000101REGIS ORLANDINI ASSESSORIA CARTORARIA LTAv. João Naves de Ávila,81                          38400600Protesto após 5 dias                                        000066
1                   000902692011248461-13930                  0000000000000013930300000000002               0113930     08021500000000090000000000012N030215000000000000000300000000000000000000000000000000000000000000000111834699000101REGIS ORLANDINI ASSESSORIA CARTORARIA LTAv. João Naves de Ávila,81                          38400600Protesto após 5 dias                                        000067
1                   000902692011248461-13931                  0000000000000013931100000000002               0113931     08021500000000500000000000012N030215000000000000001670000000000000000000000000000000000000000000000119762311000116J. LOPES - ME                           Rua Afonso Pena,5-47                                17060250Protesto após 5 dias                                        000068
1                   000902692011248461-13932                  0000000000000013932P00000000002               0113932     08021500000000500000000000012N030215000000000000001670000000000000000000000000000000000000000000000119762311000116J. LOPES - ME                           Rua Afonso Pena,5-47                                17060250Protesto após 5 dias                                        000069
1                   000902692011248461-13933                  0000000000000013933800000000002               0113933     08021500000000500000000000012N030215000000000000001670000000000000000000000000000000000000000000000111838860000115M.L. CARDOSO - PRESTAÇÃO DE SERVIÇOS - ERua Luiz Pereira Barreto,304                        16010320Protesto após 5 dias                                        000070
1                   000902692011248461-13934                  0000000000000013934600000000002               0113934     08021500000000500000000000012N030215000000000000001670000000000000000000000000000000000000000000000111838860000115M.L. CARDOSO - PRESTAÇÃO DE SERVIÇOS - ERua Luiz Pereira Barreto,304                        16010320Protesto após 5 dias                                        000071
1                   000902692011248461-13935                  0000000000000013935400000000002               0113935     08021500000000500000000000012N030215000000000000001670000000000000000000000000000000000000000000000118433773000127MUZETI ASSESSORIA CARTORARIA LTDA ME    Rua 20,1022                                         14780070Protesto após 5 dias                                        000072
1                   000902692011248461-13936                  0000000000000013936200000000002               0113936     08021500000000500000000000012N030215000000000000001670000000000000000000000000000000000000000000000118433773000127MUZETI ASSESSORIA CARTORARIA LTDA ME    Rua 20,1022                                         14780070Protesto após 5 dias                                        000073
1                   000902692011248461-13937                  0000000000000013937000000000002               0113937     08021500000000500000000000012N030215000000000000001670000000000000000000000000000000000000000000000119450025000115SAITO & SAITO ASSESSORIA E SERVIÇOS LTDAAv. Francisco de Paula Leite,1699                   13344325Protesto após 5 dias                                        000074
1                   000902692011248461-13938                  0000000000000013938900000000002               0113938     08021500000000500000000000012N030215000000000000001670000000000000000000000000000000000000000000000119450025000115SAITO & SAITO ASSESSORIA E SERVIÇOS LTDAAv. Francisco de Paula Leite,1699                   13344325Protesto após 5 dias                                        000075
1                   000902692011248461-13939                  0000000000000013939700000000002               0113939     08021500000000000000000000012N030215000000000000000000000000000000000000000000000000000000000000000112462165000164Viviane Aparecida Henriques - EPP       Rua Rui Barbosa,164                                 19010260Protesto após 5 dias                                        000076
1                   000902692011248461-13940                  0000000000000013940000000000002               0113940     08021500000000000000000000012N030215000000000000000000000000000000000000000000000000000000000000000112462165000164Viviane Aparecida Henriques - EPP       Rua Rui Barbosa,164                                 19010260Protesto após 5 dias                                        000077
1                   000902692011248461-13941                  0000000000000013941900000000002               0113941     08021500000000500000000000012N030215000000000000001670000000000000000000000000000000000000000000000112443155000181ASSESSORIA E CONSULTORIA CARTORARIA DE DRua Santa Cruz,652                                  13300090Protesto após 5 dias                                        000078
1                   000902692011248461-13942                  0000000000000013942700000000002               0113942     08021500000000500000000000012N030215000000000000001670000000000000000000000000000000000000000000000112443155000181ASSESSORIA E CONSULTORIA CARTORARIA DE DRua Santa Cruz,652                                  13300090Protesto após 5 dias                                        000079
1                   000902692011248461-13943                  0000000000000013943500000000002               0113943     08021500000000501650000000012N030215000000000000001670000000000000000000000000000000000000000000000112632803000148RUBIANA SERVIÇOS DE CARTORIO, CERTIDÕES Rua das Esmeraldas,186                              09920520Protesto após 5 dias                                        000080
1                   000902692011248461-13944                  0000000000000013944300000000002               0113944     08021500000000501650000000012N030215000000000000001670000000000000000000000000000000000000000000000112632803000148RUBIANA SERVIÇOS DE CARTORIO, CERTIDÕES Rua das Esmeraldas,186                              09920520Protesto após 5 dias                                        000081
1                   000902692011248461-13945                  0000000000000013945100000000002               0113945     08021500000000500000000000012N030215000000000000001670000000000000000000000000000000000000000000000102248702000114MOURA E MENEZES SERVIÇOS ADMINISTRATIVOSRua Dr. Curvelo Cavalcante,189-Loja 101             23810201Protesto após 5 dias                                        000082
1                   000902692011248461-13946                  0000000000000013946P00000000002               0113946     08021500000000500000000000012N030215000000000000001670000000000000000000000000000000000000000000000102248702000114MOURA E MENEZES SERVIÇOS ADMINISTRATIVOSRua Dr. Curvelo Cavalcante,189-Loja 101             23810201Protesto após 5 dias                                        000083
1                   000902692011248461-13947                  0000000000000013947800000000002               0113947     08021500000000500000000000012N030215000000000000001670000000000000000000000000000000000000000000000111619454000161ASSESSORIA CARTORÁRIA DO NORDESTE LTDA  Rua Antônio de Castro,114-LJ 05                     52070080Protesto após 5 dias                                        000084
1                   000902692011248461-13948                  0000000000000013948600000000002               0113948     08021500000000500000000000012N030215000000000000001670000000000000000000000000000000000000000000000111619454000161ASSESSORIA CARTORÁRIA DO NORDESTE LTDA  Rua Antônio de Castro,114-LJ 05                     52070080Protesto após 5 dias                                        000085
1                   000902692011248461-13949                  0000000000000013949400000000002               0113949     08021500000000500000000000012N030215000000000000001670000000000000000000000000000000000000000000000112572498000146Alphacentral Documentos e Serviços LTDA Rua Cel. Siqueira de Moraes,125/127                 13201032Protesto após 5 dias                                        000086
1                   000902692011248461-13950                  0000000000000013950800000000002               0113950     08021500000000500000000000012N030215000000000000001670000000000000000000000000000000000000000000000112572498000146Alphacentral Documentos e Serviços LTDA Rua Cel. Siqueira de Moraes,125/127                 13201032Protesto após 5 dias                                        000087
1                   000902692011248461-13951                  0000000000000013951600000000002               0113951     08021500000000500000000000012N030215000000000000001670000000000000000000000000000000000000000000000121117773000122JR CONSULTORIA INTERMEDIACAO CARTORARIA Rua Visconde de Sepetiba,935-SL 625                 24020206Protesto após 5 dias                                        000088
1                   000902692011248461-13952                  0000000000000013952400000000002               0113952     08021500000000500000000000012N030215000000000000001670000000000000000000000000000000000000000000000121117773000122JR CONSULTORIA INTERMEDIACAO CARTORARIA Rua Visconde de Sepetiba,935-SL 625                 24020206Protesto após 5 dias                                        000089
1                   000902692011248461-13953                  0000000000000013953200000000002               0113953     08021500000000366600000000012N030215000000000000001220000000000000000000000000000000000000000000000112139078000170RW MARIZ ESTRUTURA CARTORAL LTDA        Av Epitácio Pessoa,475-Sala 05                      58030906Protesto após 5 dias                                        000090
1                   000902692011248461-13954                  0000000000000013954000000000002               0113954     08021500000000366600000000012N030215000000000000001220000000000000000000000000000000000000000000000112139078000170RW MARIZ ESTRUTURA CARTORAL LTDA        Av Epitácio Pessoa,475-Sala 05                      58030906Protesto após 5 dias                                        000091
1                   000902692011248461-13955                  0000000000000013955900000000002               0113955     08021500000000900000000000012N030215000000000000003000000000000000000000000000000000000000000000000113133167000172G I CART SERVIÇOS ORGANIZACIONAIS LTDA  Rua dos Marianos,132                                06016050Protesto após 5 dias                                        000092
1                   000902692011248461-13956                  0000000000000013956700000000002               0113956     08021500000000900000000000012N030215000000000000003000000000000000000000000000000000000000000000000113133167000172G I CART SERVIÇOS ORGANIZACIONAIS LTDA  Rua dos Marianos,132                                06016050Protesto após 5 dias                                        000093
1                   000902692011248461-13957                  0000000000000013957500000000002               0113957     08021500000000046080000000012N030215000000000000000150000000000000000000000000000000000000000000000113287999000143ASSESSORIA CARTORÁRIA PÁDUA LTDA        Rua Tiradentes,112-SL 201                           28300000Protesto após 5 dias                                        000094
1                   000902692011248461-13958                  0000000000000013958300000000002               0113958     08021500000000046080000000012N030215000000000000000150000000000000000000000000000000000000000000000113287999000143ASSESSORIA CARTORÁRIA PÁDUA LTDA        Rua Tiradentes,112-SL 201                           28300000Protesto após 5 dias                                        000095
1                   000902692011248461-13959                  0000000000000013959100000000002               0113959     08021500000000000000000000012N030215000000000000000000000000000000000000000000000000000000000000000113913099000164ERM Serviços Administrativos LTDA       Rua 7 de Setembro,1315                              89010203Protesto após 5 dias                                        000096
1                   000902692011248461-13960                  0000000000000013960500000000002               0113960     08021500000000000000000000012N030215000000000000000000000000000000000000000000000000000000000000000113913099000164ERM Serviços Administrativos LTDA       Rua 7 de Setembro,1315                              89010203Protesto após 5 dias                                        000097
1                   000902692011248461-13961                  0000000000000013961300000000002               0113961     08021500000000013300000000012N030215000000000000000040000000000000000000000000000000000000000000000113321680000197Ana Claudia Barbiere Alves Ferreira - MEAv. Brasil,326                                      14801050Protesto após 5 dias                                        000098
1                   000902692011248461-13962                  0000000000000013962100000000002               0113962     08021500000000013300000000012N030215000000000000000040000000000000000000000000000000000000000000000113321680000197Ana Claudia Barbiere Alves Ferreira - MEAv. Brasil,326                                      14801050Protesto após 5 dias                                        000099
1                   000902692011248461-13963                  0000000000000013963P00000000002               0113963     08021500000000000000000000012N030215000000000000000000000000000000000000000000000000000000000000000117655488000198KAEL INTERMEDIAÇÕES CARTORÁRIAS LTDA ME Av. Monte Castelo,720                               13450032Protesto após 5 dias                                        000100
1                   000902692011248461-13964                  0000000000000013964800000000002               0113964     08021500000000000000000000012N030215000000000000000000000000000000000000000000000000000000000000000117655488000198KAEL INTERMEDIAÇÕES CARTORÁRIAS LTDA ME Av. Monte Castelo,720                               13450032Protesto após 5 dias                                        000101
1                   000902692011248461-13965                  0000000000000013965600000000002               0113965     08021500000000020700000000012N030215000000000000000070000000000000000000000000000000000000000000000113350598000190CP SERVIÇOS ADMINISTRATIVO LTDA - ME    Rua Arnaldo Estevão de Figueiredo,640               78700150Protesto após 5 dias                                        000102
1                   000902692011248461-13966                  0000000000000013966400000000002               0113966     08021500000000020700000000012N030215000000000000000070000000000000000000000000000000000000000000000113350598000190CP SERVIÇOS ADMINISTRATIVO LTDA - ME    Rua Arnaldo Estevão de Figueiredo,640               78700150Protesto após 5 dias                                        000103
1                   000902692011248461-13967                  0000000000000013967200000000002               0113967     08021500000000032000000000012N030215000000000000000110000000000000000000000000000000000000000000000113585685000127ASSESSORIA CARTORÁRIA LIMEIRA LTDA ME   Rua Deputado Octavio Lopes,304 B                    13480021Protesto após 5 dias                                        000104
1                   000902692011248461-13968                  0000000000000013968000000000002               0113968     08021500000000032000000000012N030215000000000000000110000000000000000000000000000000000000000000000113585685000127ASSESSORIA CARTORÁRIA LIMEIRA LTDA ME   Rua Deputado Octavio Lopes,304 B                    13480021Protesto após 5 dias                                        000105
1                   000902692011248461-13969                  0000000000000013969900000000002               0113969     08021500000000123280000000012N030215000000000000000410000000000000000000000000000000000000000000000113406670000154RODRIGUES E VIEIRA LTDA.                104 SUL RUA SE 05 LOTE 23 | AC JK CAIXA             77006970Protesto após 5 dias                                        000106
1                   000902692011248461-13970                  0000000000000013970200000000002               0113970     08021500000000123280000000012N030215000000000000000410000000000000000000000000000000000000000000000113406670000154RODRIGUES E VIEIRA LTDA.                104 SUL RUA SE 05 LOTE 23 | AC JK CAIXA             77006970Protesto após 5 dias                                        000107
1                   000902692011248461-13971                  0000000000000013971000000000002               0113971     08021500000000500000000000012N030215000000000000001670000000000000000000000000000000000000000000000113743219000122Valentim e Silva Serviços               Praça Antônio Dias,584                              38700110Protesto após 5 dias                                        000108
1                   000902692011248461-13972                  0000000000000013972900000000002               0113972     08021500000000500000000000012N030215000000000000001670000000000000000000000000000000000000000000000113743219000122Valentim e Silva Serviços               Praça Antônio Dias,584                              38700110Protesto após 5 dias                                        000109
1                   000902692011248461-13973                  0000000000000013973700000000002               0113973     08021500000000300000000000012N030215000000000000001000000000000000000000000000000000000000000000000113433192000171CONSULT SERVICE ASSESSORIA CARTORÁRIA LTRua Episcopal,1714-Loja 02                          13560570Protesto após 5 dias                                        000110
1                   000902692011248461-13974                  0000000000000013974500000000002               0113974     08021500000000300000000000012N030215000000000000001000000000000000000000000000000000000000000000000113433192000171CONSULT SERVICE ASSESSORIA CARTORÁRIA LTRua Episcopal,1714-Loja 02                          13560570Protesto após 5 dias                                        000111
1                   000902692011248461-13975                  0000000000000013975300000000002               0113975     08021500000000003680000000012N030215000000000000000010000000000000000000000000000000000000000000000113576355000175LEME ASSESSORIA E CONSULTORIA DE DOCUMENRua Prudente de Moraes,933                          13320160Protesto após 5 dias                                        000112
1                   000902692011248461-13976                  0000000000000013976100000000002               0113976     08021500000000003680000000012N030215000000000000000010000000000000000000000000000000000000000000000113576355000175LEME ASSESSORIA E CONSULTORIA DE DOCUMENRua Prudente de Moraes,933                          13320160Protesto após 5 dias                                        000113
1                   000902692011248461-13977                  0000000000000013977P00000000002               0113977     08021500000000000000000000012N030215000000000000000000000000000000000000000000000000000000000000000114495115000109MSC ASSESSORIA E CONSULTORIA CARTORARIA Rua Duque de Caxias,161                             06401010Protesto após 5 dias                                        000114
1                   000902692011248461-13978                  0000000000000013978800000000002               0113978     08021500000000000000000000012N030215000000000000000000000000000000000000000000000000000000000000000114495115000109MSC ASSESSORIA E CONSULTORIA CARTORARIA Rua Duque de Caxias,161                             06401010Protesto após 5 dias                                        000115
1                   000902692011248461-13979                  0000000000000013979600000000002               0113979     08021500000000500000000000012N030215000000000000001670000000000000000000000000000000000000000000000113845551000106MACEDO & MELO INTERMEDIACOES CARTORARIASRUA LIZANDRO NOGUEIRA,1223-SALA 304                 64000200Protesto após 5 dias                                        000116
1                   000902692011248461-13980                  0000000000000013980P00000000002               0113980     08021500000000500000000000012N030215000000000000001670000000000000000000000000000000000000000000000113845551000106MACEDO & MELO INTERMEDIACOES CARTORARIASRUA LIZANDRO NOGUEIRA,1223-SALA 304                 64000200Protesto após 5 dias                                        000117
1                   000902692011248461-13981                  0000000000000013981800000000002               0113981     08021500000000000000000000012N030215000000000000000000000000000000000000000000000000000000000000000113800899000179TEIXEIRA CARREIRO INTERMEDIACAO CARTORARRua Alan Kardec,50-SL 712                           27541290Protesto após 5 dias                                        000118
1                   000902692011248461-13982                  0000000000000013982600000000002               0113982     08021500000000000000000000012N030215000000000000000000000000000000000000000000000000000000000000000113800899000179TEIXEIRA CARREIRO INTERMEDIACAO CARTORARRua Alan Kardec,50-SL 712                           27541290Protesto após 5 dias                                        000119
1                   000902692011248461-13983                  0000000000000013983400000000002               0113983     08021500000000500000000000012N030215000000000000001670000000000000000000000000000000000000000000000114142222000153Araujo Oliveira Assessoria Cartoraria LTAv. Radial B,60-LJ 02                               42807380Protesto após 5 dias                                        000120
1                   000902692011248461-13984                  0000000000000013984200000000002               0113984     08021500000000500000000000012N030215000000000000001670000000000000000000000000000000000000000000000114142222000153Araujo Oliveira Assessoria Cartoraria LTAv. Radial B,60-LJ 02                               42807380Protesto após 5 dias                                        000121
1                   000902692011248461-13985                  0000000000000013985000000000002               0113985     08021500000000004150000000012N030215000000000000000010000000000000000000000000000000000000000000000114041706000106HMR - EXPRESS DOCUMENTOS LTDA - ME      Rua Daniel de Oliveira Carvalho,253                 13660000Protesto após 5 dias                                        000122
1                   000902692011248461-13986                  0000000000000013986900000000002               0113986     08021500000000004150000000012N030215000000000000000010000000000000000000000000000000000000000000000114041706000106HMR - EXPRESS DOCUMENTOS LTDA - ME      Rua Daniel de Oliveira Carvalho,253                 13660000Protesto após 5 dias                                        000123
1                   000902692011248461-13987                  0000000000000013987700000000002               0113987     08021500000000000000000000012N030215000000000000000000000000000000000000000000000000000000000000000116806807000156M MARRAS SERVICOS E EVENTOS LTDA - ME   Rua Voluntários da Franca,453                       14405103Protesto após 5 dias                                        000124
1                   000902692011248461-13988                  0000000000000013988500000000002               0113988     08021500000000000000000000012N030215000000000000000000000000000000000000000000000000000000000000000116806807000156M MARRAS SERVICOS E EVENTOS LTDA - ME   Rua Voluntários da Franca,453                       14405103Protesto após 5 dias                                        000125
1                   000902692011248461-13989                  0000000000000013989300000000002               0113989     08021500000000500000000000012N030215000000000000001670000000000000000000000000000000000000000000000114456232000163ALVES & UEMURA ASSESSORIA COMERCIAL E INRua Juscelino K. de Oliveira,710-LJ 02              37580000Protesto após 5 dias                                        000126
1                   000902692011248461-13990                  0000000000000013990700000000002               0113990     08021500000000500000000000012N030215000000000000001670000000000000000000000000000000000000000000000114456232000163ALVES & UEMURA ASSESSORIA COMERCIAL E INRua Juscelino K. de Oliveira,710-LJ 02              37580000Protesto após 5 dias                                        000127
1                   000902692011248461-13991                  0000000000000013991500000000002               0113991     08021500000000300000000000012N030215000000000000001000000000000000000000000000000000000000000000000115779004000197BONESSO & GIANETTI LTDA ME              Rua Nove de Julho,430-Lj 03 - Galeria de            13280000Protesto após 5 dias                                        000128
1                   000902692011248461-13992                  0000000000000013992300000000002               0113992     08021500000000300000000000012N030215000000000000001000000000000000000000000000000000000000000000000115779004000197BONESSO & GIANETTI LTDA ME              Rua Nove de Julho,430-Lj 03 - Galeria de            13280000Protesto após 5 dias                                        000129
1                   000902692011248461-13993                  0000000000000013993100000000002               0113993     08021500000000500000000000012N030215000000000000001670000000000000000000000000000000000000000000000111834699000292REGIS ORLANDINI ASSESSORIA CARTORÁRIA EPPraça Manoel Bonito,65                              38440076Protesto após 5 dias                                        000130
1                   000902692011248461-13994                  0000000000000013994P00000000002               0113994     08021500000000500000000000012N030215000000000000001670000000000000000000000000000000000000000000000111834699000292REGIS ORLANDINI ASSESSORIA CARTORÁRIA EPPraça Manoel Bonito,65                              38440076Protesto após 5 dias                                        000131
1                   000902692011248461-13995                  0000000000000013995800000000002               0113995     08021500000000500000000000012N030215000000000000001670000000000000000000000000000000000000000000000115003436000101Via Rápida Intermediação Cartorária LTDARua Vereador Juca Pena,10                           36400000Protesto após 5 dias                                        000132
1                   000902692011248461-13996                  0000000000000013996600000000002               0113996     08021500000000500000000000012N030215000000000000001670000000000000000000000000000000000000000000000115003436000101Via Rápida Intermediação Cartorária LTDARua Vereador Juca Pena,10                           36400000Protesto após 5 dias                                        000133
1                   000902692011248461-13997                  0000000000000013997400000000002               0113997     08021500000000500000000000012N030215000000000000001670000000000000000000000000000000000000000000000114467333000130Sirley Santos Niemic - ME               Av. Municipal,1779 A                                78250000Protesto após 5 dias                                        000134
1                   000902692011248461-13998                  0000000000000013998200000000002               0113998     08021500000000500000000000012N030215000000000000001670000000000000000000000000000000000000000000000114467333000130Sirley Santos Niemic - ME               Av. Municipal,1779 A                                78250000Protesto após 5 dias                                        000135
1                   000902692011248461-13999                  0000000000000013999000000000002               0113999     08021500000000500000000000012N030215000000000000001670000000000000000000000000000000000000000000000114567761000134ABEN INTERMEDIACAO CARTORARIA LTDA ME   Av. Leopoldino de Oliveira,4464-Ed. Diam            38060000Protesto após 5 dias                                        000136
1                   000902692011248461-14000                  0000000000000014000P00000000002               0114000     08021500000000500000000000012N030215000000000000001670000000000000000000000000000000000000000000000114567761000134ABEN INTERMEDIACAO CARTORARIA LTDA ME   Av. Leopoldino de Oliveira,4464-Ed. Diam            38060000Protesto após 5 dias                                        000137
1                   000902692011248461-14001                  0000000000000014001800000000002               0114001     08021500000000500000000000012N030215000000000000001670000000000000000000000000000000000000000000000114547088000170SPEED FOX ASSESSORIA CARTORARIA LTDA ME Rua General Dionisio,410-LOJA                       25075095Protesto após 5 dias                                        000138
1                   000902692011248461-14002                  0000000000000014002600000000002               0114002     08021500000000500000000000012N030215000000000000001670000000000000000000000000000000000000000000000114547088000170SPEED FOX ASSESSORIA CARTORARIA LTDA ME Rua General Dionisio,410-LOJA                       25075095Protesto após 5 dias                                        000139
1                   000902692011248461-14003                  0000000000000014003400000000002               0114003     08021500000000004500000000012N030215000000000000000020000000000000000000000000000000000000000000000114911193000147LOPES E LOPES INTERMEDIAÃ‡ÃƒO CARTORÃRIRua Marechal Deodoro,444-loja 322                   36010904Protesto após 5 dias                                        000140
1                   000902692011248461-14004                  0000000000000014004200000000002               0114004     08021500000000004500000000012N030215000000000000000020000000000000000000000000000000000000000000000114911193000147LOPES E LOPES INTERMEDIAÃ‡ÃƒO CARTORÃRIRua Marechal Deodoro,444-loja 322                   36010904Protesto após 5 dias                                        000141
1                   000902692011248461-14005                  0000000000000014005000000000002               0114005     08021500000000400000000000012N030215000000000000001330000000000000000000000000000000000000000000000115220454000226RENAULT ASSOCIADOS INTERMEDIACOES CARTORRua Benedito Valadares,520-LJ 03                    35660630Protesto após 5 dias                                        000142
1                   000902692011248461-14006                  0000000000000014006900000000002               0114006     08021500000000400000000000012N030215000000000000001330000000000000000000000000000000000000000000000115220454000226RENAULT ASSOCIADOS INTERMEDIACOES CARTORRua Benedito Valadares,520-LJ 03                    35660630Protesto após 5 dias                                        000143
1                   000902692011248461-14007                  0000000000000014007700000000002               0114007     08021500000000500000000000012N030215000000000000001670000000000000000000000000000000000000000000000120019555000192SERV MASTER SERVICOS E LOGISTICA LTDA –MRua Barão do Rio Branco,1089                        16200001Protesto após 5 dias                                        000144
1                   000902692011248461-14008                  0000000000000014008500000000002               0114008     08021500000000500000000000012N030215000000000000001670000000000000000000000000000000000000000000000120019555000192SERV MASTER SERVICOS E LOGISTICA LTDA –MRua Barão do Rio Branco,1089                        16200001Protesto após 5 dias                                        000145
1                   000902692011248461-14009                  0000000000000014009300000000002               0114009     08021500000001000000000000012N030215000000000000003330000000000000000000000000000000000000000000000115447264000165CAMPDOC INTERMEDIAÇÃO CARTORÁRIA LTDA – Av. Carlos de Araújo Gobbi,325                      13034670Protesto após 5 dias                                        000146
1                   000902692011248461-14010                  0000000000000014010700000000002               0114010     08021500000001000000000000012N030215000000000000003330000000000000000000000000000000000000000000000115447264000165CAMPDOC INTERMEDIAÇÃO CARTORÁRIA LTDA – Av. Carlos de Araújo Gobbi,325                      13034670Protesto após 5 dias                                        000147
1                   000902692011248461-14011                  0000000000000014011500000000002               0114011     08021500000000000000000000012N030215000000000000000000000000000000000000000000000000000000000000000115425969000181JKIM SERVIÇOS E INTERMEDIAÇÃO LTDA      Rua A,501-QD 08 LT 05                               68515000Protesto após 5 dias                                        000148
1                   000902692011248461-14012                  0000000000000014012300000000002               0114012     08021500000000000000000000012N030215000000000000000000000000000000000000000000000000000000000000000115425969000181JKIM SERVIÇOS E INTERMEDIAÇÃO LTDA      Rua A,501-QD 08 LT 05                               68515000Protesto após 5 dias                                        000149
1                   000902692011248461-14013                  0000000000000014013100000000002               0114013     08021500000000500000000000012N030215000000000000001670000000000000000000000000000000000000000000000120603641000148GUARAPARI SERVICOS CARTORARIOS LTDA - MERua Roberto Calmon,140                              29200340Protesto após 5 dias                                        000150
1                   000902692011248461-14014                  0000000000000014014P00000000002               0114014     08021500000000500000000000012N030215000000000000001670000000000000000000000000000000000000000000000120603641000148GUARAPARI SERVICOS CARTORARIOS LTDA - MERua Roberto Calmon,140                              29200340Protesto após 5 dias                                        000151
1                   000902692011248461-14015                  0000000000000014015800000000002               0114015     08021500000000500000000000012N030215000000000000001670000000000000000000000000000000000000000000000115328775000168Bagini e Okumura Intermediações CartorárRua Laurindo Borges,1494                            87303240Protesto após 5 dias                                        000152
1                   000902692011248461-14016                  0000000000000014016600000000002               0114016     08021500000000500000000000012N030215000000000000001670000000000000000000000000000000000000000000000115328775000168Bagini e Okumura Intermediações CartorárRua Laurindo Borges,1494                            87303240Protesto após 5 dias                                        000153
1                   000902692011248461-14017                  0000000000000014017400000000002               0114017     08021500000000500000000000012N030215000000000000001670000000000000000000000000000000000000000000000115523647000175TGD ASSESSORIA E CONSULTORIA LTDA       Rua Coronel Antonio Cardoso Pinto,34 A              37640000Protesto após 5 dias                                        000154
1                   000902692011248461-14018                  0000000000000014018200000000002               0114018     08021500000000500000000000012N030215000000000000001670000000000000000000000000000000000000000000000115523647000175TGD ASSESSORIA E CONSULTORIA LTDA       Rua Coronel Antonio Cardoso Pinto,34 A              37640000Protesto após 5 dias                                        000155
1                   000902692011248461-14019                  0000000000000014019000000000002               0114019     08021500000000500000000000012N030215000000000000001670000000000000000000000000000000000000000000000116465255000160Tocantins Intermediação Cartorária LTDA-RUA RODOVIÁRIA,193-SALA 01                          77805040Protesto após 5 dias                                        000156
1                   000902692011248461-14020                  0000000000000014020400000000002               0114020     08021500000000500000000000012N030215000000000000001670000000000000000000000000000000000000000000000116465255000160Tocantins Intermediação Cartorária LTDA-RUA RODOVIÁRIA,193-SALA 01                          77805040Protesto após 5 dias                                        000157
1                   000902692011248461-14021                  0000000000000014021200000000002               0114021     08021500000000500000000000012N030215000000000000001670000000000000000000000000000000000000000000000115731322000188MEIRELES SERVIÇOS DE APOIO ADMINISTRATIVRua José Marcelino de Oliveira,374-BAIXO            67030170Protesto após 5 dias                                        000158
1                   000902692011248461-14022                  0000000000000014022000000000002               0114022     08021500000000500000000000012N030215000000000000001670000000000000000000000000000000000000000000000115731322000188MEIRELES SERVIÇOS DE APOIO ADMINISTRATIVRua José Marcelino de Oliveira,374-BAIXO            67030170Protesto após 5 dias                                        000159
1                   000902692011248461-14023                  0000000000000014023900000000002               0114023     08021500000001000000000000012N030215000000000000003330000000000000000000000000000000000000000000000115803475000193PEDRO, BASTOS & JONES SERVIÇOS ASMINISTRRua Duque de Caxias,01-SL 31                        28613060Protesto após 5 dias                                        000160
1                   000902692011248461-14024                  0000000000000014024700000000002               0114024     08021500000001000000000000012N030215000000000000003330000000000000000000000000000000000000000000000115803475000193PEDRO, BASTOS & JONES SERVIÇOS ASMINISTRRua Duque de Caxias,01-SL 31                        28613060Protesto após 5 dias                                        000161
1                   000902692011248461-14025                  0000000000000014025500000000002               0114025     08021500000000500000000000012N030215000000000000001670000000000000000000000000000000000000000000000115872523000103HEITOR PIGHINI BARBADO ME               Rua Senador José Bonifácio,312-B                    13800060Protesto após 5 dias                                        000162
1                   000902692011248461-14026                  0000000000000014026300000000002               0114026     08021500000000500000000000012N030215000000000000001670000000000000000000000000000000000000000000000115872523000103HEITOR PIGHINI BARBADO ME               Rua Senador José Bonifácio,312-B                    13800060Protesto após 5 dias                                        000163
1                   000902692011248461-14027                  0000000000000014027100000000002               0114027     08021500000000500000000000012N030215000000000000001670000000000000000000000000000000000000000000000115566079000190Marins Consultoria e Intermediação CartoAvenida Brasil,4140-Sala 13                         87503420Protesto após 5 dias                                        000164
1                   000902692011248461-14028                  0000000000000014028P00000000002               0114028     08021500000000500000000000012N030215000000000000001670000000000000000000000000000000000000000000000115566079000190Marins Consultoria e Intermediação CartoAvenida Brasil,4140-Sala 13                         87503420Protesto após 5 dias                                        000165
1                   000902692011248461-14029                  0000000000000014029800000000002               0114029     08021500000001000000000000012N030215000000000000003330000000000000000000000000000000000000000000000115703802000135Assecar Apoio Administrativo de MArilia Rua Carlos Gomes,343                                17501000Protesto após 5 dias                                        000166
1                   000902692011248461-14030                  0000000000000014030100000000002               0114030     08021500000001000000000000012N030215000000000000003330000000000000000000000000000000000000000000000115703802000135Assecar Apoio Administrativo de MArilia Rua Carlos Gomes,343                                17501000Protesto após 5 dias                                        000167
1                   000902692011248461-14031                  0000000000000014031P00000000002               0114031     08021500000000500000000000012N030215000000000000001670000000000000000000000000000000000000000000000115665799000102OLIVEIRA E PEIXOTO LTDA                 Rua da Itália,,7-1º andar                           45200191Protesto após 5 dias                                        000168
1                   000902692011248461-14032                  0000000000000014032800000000002               0114032     08021500000000500000000000012N030215000000000000001670000000000000000000000000000000000000000000000115665799000102OLIVEIRA E PEIXOTO LTDA                 Rua da Itália,,7-1º andar                           45200191Protesto após 5 dias                                        000169
1                   000902692011248461-14033                  0000000000000014033600000000002               0114033     08021500000000500000000000012N030215000000000000001670000000000000000000000000000000000000000000000116911487000102L & A INTERMEDIAÇÕES CARTORÁRIAS LTDA   Rua Marechal Deodoro,111                            48005020Protesto após 5 dias                                        000170
1                   000902692011248461-14034                  0000000000000014034400000000002               0114034     08021500000000500000000000012N030215000000000000001670000000000000000000000000000000000000000000000116911487000102L & A INTERMEDIAÇÕES CARTORÁRIAS LTDA   Rua Marechal Deodoro,111                            48005020Protesto após 5 dias                                        000171
1                   000902692011248461-14035                  0000000000000014035200000000002               0114035     08021500000000350000000000012N030215000000000000001170000000000000000000000000000000000000000000000116615091000100MEG INTERMEDIAÇÃO CARTORÁRIA            Av. 13,625                                          13500340Protesto após 5 dias                                        000172
1                   000902692011248461-14036                  0000000000000014036000000000002               0114036     08021500000000350000000000012N030215000000000000001170000000000000000000000000000000000000000000000116615091000100MEG INTERMEDIAÇÃO CARTORÁRIA            Av. 13,625                                          13500340Protesto após 5 dias                                        000173
1                   000902692011248461-14037                  0000000000000014037900000000002               0114037     08021500000000200000000000012N030215000000000000000670000000000000000000000000000000000000000000000115696350000101Almeida Intermediação cartorária LTDA MERua José Brenha Ribeiro,23                          18130495Protesto após 5 dias                                        000174
1                   000902692011248461-14038                  0000000000000014038700000000002               0114038     08021500000000200000000000012N030215000000000000000670000000000000000000000000000000000000000000000115696350000101Almeida Intermediação cartorária LTDA MERua José Brenha Ribeiro,23                          18130495Protesto após 5 dias                                        000175
1                   000902692011248461-14039                  0000000000000014039500000000002               0114039     08021500000000500000000000012N030215000000000000001670000000000000000000000000000000000000000000000119373945000187MR Sistema de Intermediação Cartorária LRua 29 de Abril,123                                 13256000Protesto após 5 dias                                        000176
1                   000902692011248461-14040                  0000000000000014040900000000002               0114040     08021500000000500000000000012N030215000000000000001670000000000000000000000000000000000000000000000119373945000187MR Sistema de Intermediação Cartorária LRua 29 de Abril,123                                 13256000Protesto após 5 dias                                        000177
1                   000902692011248461-14041                  0000000000000014041700000000002               0114041     08021500000000500000000000012N030215000000000000001670000000000000000000000000000000000000000000000115761167000142DOC SERVICE SERVIÇOS DOCUMENTAIS LTDA   Rua Marechal Floriano Peixoto,1562-Sala             85851020Protesto após 5 dias                                        000178
1                   000902692011248461-14042                  0000000000000014042500000000002               0114042     08021500000000500000000000012N030215000000000000001670000000000000000000000000000000000000000000000115761167000142DOC SERVICE SERVIÇOS DOCUMENTAIS LTDA   Rua Marechal Floriano Peixoto,1562-Sala             85851020Protesto após 5 dias                                        000179
1                   000902692011248461-14043                  0000000000000014043300000000002               0114043     08021500000000500000000000012N0302150000000000000016700000000000000000000000000000000000000000000001157926280001442 W V INTERMEDIAÇÃO CARTORÁRIA LTDA-ME  Rua Marechal Deodoro,44                             12500210Protesto após 5 dias                                        000180
1                   000902692011248461-14044                  0000000000000014044100000000002               0114044     08021500000000500000000000012N0302150000000000000016700000000000000000000000000000000000000000000001157926280001442 W V INTERMEDIAÇÃO CARTORÁRIA LTDA-ME  Rua Marechal Deodoro,44                             12500210Protesto após 5 dias                                        000181
1                   000902692011248461-14045                  0000000000000014045P00000000002               0114045     08021500000000500000000000012N030215000000000000001670000000000000000000000000000000000000000000000115779486000185ANA LIDIA ANDRADE VASCONCELOS CISOTTO - Rua Angelo Gianotti,55-sala 4                       18550000Protesto após 5 dias                                        000182
1                   000902692011248461-14046                  0000000000000014046800000000002               0114046     08021500000000500000000000012N030215000000000000001670000000000000000000000000000000000000000000000115779486000185ANA LIDIA ANDRADE VASCONCELOS CISOTTO - Rua Angelo Gianotti,55-sala 4                       18550000Protesto após 5 dias                                        000183
1                   000902692011248461-14047                  0000000000000014047600000000002               0114047     08021500000001000000000000012N030215000000000000003330000000000000000000000000000000000000000000000116566686000112SOMARX INTERMEDIAÇÃO CARTORÁRIA LTDA    QN 07 - AREA ESPECIAL 1 TERREO LOJA,11-R            71805731Protesto após 5 dias                                        000184
1                   000902692011248461-14048                  0000000000000014048400000000002               0114048     08021500000001000000000000012N030215000000000000003330000000000000000000000000000000000000000000000116566686000112SOMARX INTERMEDIAÇÃO CARTORÁRIA LTDA    QN 07 - AREA ESPECIAL 1 TERREO LOJA,11-R            71805731Protesto após 5 dias                                        000185
1                   000902692011248461-14049                  0000000000000014049200000000002               0114049     08021500000001000000000000012N030215000000000000003330000000000000000000000000000000000000000000000116651907000150COTIA CENTRAL - SERVIÇOS ADMINISTRATIVOSRua Joaquim Nunes Filho,204                         06717180Protesto após 5 dias                                        000186
1                   000902692011248461-14050                  0000000000000014050600000000002               0114050     08021500000001000000000000012N030215000000000000003330000000000000000000000000000000000000000000000116651907000150COTIA CENTRAL - SERVIÇOS ADMINISTRATIVOSRua Joaquim Nunes Filho,204                         06717180Protesto após 5 dias                                        000187
1                   000902692011248461-14051                  0000000000000014051400000000002               0114051     08021500000001500000000000012N030215000000000000005000000000000000000000000000000000000000000000000117013577000130RIBEIRO INTERMEDIAÇÃO CARTORÁRIA LTDA.  Av. Presidente Marques,1212                         78045008Protesto após 5 dias                                        000188
1                   000902692011248461-14052                  0000000000000014052200000000002               0114052     08021500000001500000000000012N030215000000000000005000000000000000000000000000000000000000000000000117013577000130RIBEIRO INTERMEDIAÇÃO CARTORÁRIA LTDA.  Av. Presidente Marques,1212                         78045008Protesto após 5 dias                                        000189
1                   000902692011248461-14053                  0000000000000014053000000000002               0114053     08021500000000500000000000012N030215000000000000001670000000000000000000000000000000000000000000000116455215000137MIM Consultoria, Assessoria e IntermediaRua Gal. Bacelar,504                                96200370Protesto após 5 dias                                        000190
1                   000902692011248461-14054                  0000000000000014054900000000002               0114054     08021500000000500000000000012N030215000000000000001670000000000000000000000000000000000000000000000116455215000137MIM Consultoria, Assessoria e IntermediaRua Gal. Bacelar,504                                96200370Protesto após 5 dias                                        000191
1                   000902692011248461-14055                  0000000000000014055700000000002               0114055     08021500000000500000000000012N030215000000000000001670000000000000000000000000000000000000000000000116850829000113FORMAGIO & MILARE LTDA ME               Rua Princesa Izabel,994                             17900000Protesto após 5 dias                                        000192
1                   000902692011248461-14056                  0000000000000014056500000000002               0114056     08021500000000500000000000012N030215000000000000001670000000000000000000000000000000000000000000000116850829000113FORMAGIO & MILARE LTDA ME               Rua Princesa Izabel,994                             17900000Protesto após 5 dias                                        000193
1                   000902692011248461-14057                  0000000000000014057300000000002               0114057     08021500000001000000000000012N030215000000000000003330000000000000000000000000000000000000000000000116988183000135MENEZES & AMARAL INTERMEDIAÇÃO CARTORÁRIRua Israel Pinheiro,2500-LJ 1                       35020220Protesto após 5 dias                                        000194
1                   000902692011248461-14058                  0000000000000014058100000000002               0114058     08021500000001000000000000012N030215000000000000003330000000000000000000000000000000000000000000000116988183000135MENEZES & AMARAL INTERMEDIAÇÃO CARTORÁRIRua Israel Pinheiro,2500-LJ 1                       35020220Protesto após 5 dias                                        000195
1                   000902692011248461-14059                  0000000000000014059P00000000002               0114059     08021500000000500000000000012N030215000000000000001670000000000000000000000000000000000000000000000117163022000175DEFTHJ CONSULTORIA E ASSESSORIA CARTORÁRR. Pedro Procópio,48                                06501130Protesto após 5 dias                                        000196
1                   000902692011248461-14060                  0000000000000014060300000000002               0114060     08021500000000500000000000012N030215000000000000001670000000000000000000000000000000000000000000000117163022000175DEFTHJ CONSULTORIA E ASSESSORIA CARTORÁRR. Pedro Procópio,48                                06501130Protesto após 5 dias                                        000197
1                   000902692011248461-14061                  0000000000000014061100000000002               0114061     08021500000000500000000000012N030215000000000000001670000000000000000000000000000000000000000000000116943517000154SOUZA SERVIÇOS DE DOCUMENTOS S/S LTDA EPR. Coronel Aureliano de Camargo,666                 18270170Protesto após 5 dias                                        000198
1                   000902692011248461-14062                  0000000000000014062P00000000002               0114062     08021500000000500000000000012N030215000000000000001670000000000000000000000000000000000000000000000116943517000154SOUZA SERVIÇOS DE DOCUMENTOS S/S LTDA EPR. Coronel Aureliano de Camargo,666                 18270170Protesto após 5 dias                                        000199
1                   000902692011248461-14063                  0000000000000014063800000000002               0114063     08021500000000500000000000012N030215000000000000001670000000000000000000000000000000000000000000000117206713000109FABIO TOMAZ CARDOSO - ME                Rua Primeiro de Maio,202-SL 507                     09015030Protesto após 5 dias                                        000200
1                   000902692011248461-14064                  0000000000000014064600000000002               0114064     08021500000000500000000000012N030215000000000000001670000000000000000000000000000000000000000000000117206713000109FABIO TOMAZ CARDOSO - ME                Rua Primeiro de Maio,202-SL 507                     09015030Protesto após 5 dias                                        000201
1                   000902692011248461-14065                  0000000000000014065400000000002               0114065     08021500000000500000000000012N030215000000000000001670000000000000000000000000000000000000000000000120175159000154MARGARETE DOS SANTOS – MEI              Rua Santos Dumont,123                               38183187Protesto após 5 dias                                        000202
1                   000902692011248461-14066                  0000000000000014066200000000002               0114066     08021500000000500000000000012N030215000000000000001670000000000000000000000000000000000000000000000120175159000154MARGARETE DOS SANTOS – MEI              Rua Santos Dumont,123                               38183187Protesto após 5 dias                                        000203
1                   000902692011248461-14067                  0000000000000014067000000000002               0114067     08021500000000500000000000012N030215000000000000001670000000000000000000000000000000000000000000000116899904000130E. F. AURELIA NEGOCIOS E INTERMEDIAÇÃO CRua Liberdade,596                                   06853700Protesto após 5 dias                                        000204
1                   000902692011248461-14068                  0000000000000014068900000000002               0114068     08021500000000500000000000012N030215000000000000001670000000000000000000000000000000000000000000000116899904000130E. F. AURELIA NEGOCIOS E INTERMEDIAÇÃO CRua Liberdade,596                                   06853700Protesto após 5 dias                                        000205
1                   000902692011248461-14069                  0000000000000014069700000000002               0114069     08021500000000500000000000012N030215000000000000001670000000000000000000000000000000000000000000000116949930000126CIRENO FILHO INTERMEDIAÇÃO CARTORARIA   Rua Carlos Eduardo Nichele,1382-LJ01                83833022Protesto após 5 dias                                        000206
1                   000902692011248461-14070                  0000000000000014070000000000002               0114070     08021500000000500000000000012N030215000000000000001670000000000000000000000000000000000000000000000116949930000126CIRENO FILHO INTERMEDIAÇÃO CARTORARIA   Rua Carlos Eduardo Nichele,1382-LJ01                83833022Protesto após 5 dias                                        000207
1                   000902692011248461-14071                  0000000000000014071900000000002               0114071     08021500000000350000000000012N030215000000000000001170000000000000000000000000000000000000000000000116811847000196TOLEDO & PEREIRA VASSALO LTDA ME        Rua Santos Pereira,212                              37500026Protesto após 5 dias                                        000208
1                   000902692011248461-14072                  0000000000000014072700000000002               0114072     08021500000000350000000000012N030215000000000000001170000000000000000000000000000000000000000000000116811847000196TOLEDO & PEREIRA VASSALO LTDA ME        Rua Santos Pereira,212                              37500026Protesto após 5 dias                                        000209
1                   000902692011248461-14073                  0000000000000014073500000000002               0114073     08021500000001000000000000012N030215000000000000003330000000000000000000000000000000000000000000000116819238000183CARLOS ALBERTO ROCHA DE MELO - ME       R. Hermógenes Freire da Costa,02-LJ 05              28940000Protesto após 5 dias                                        000210
1                   000902692011248461-14074                  0000000000000014074300000000002               0114074     08021500000001000000000000012N030215000000000000003330000000000000000000000000000000000000000000000116819238000183CARLOS ALBERTO ROCHA DE MELO - ME       R. Hermógenes Freire da Costa,02-LJ 05              28940000Protesto após 5 dias                                        000211
1                   000902692011248461-14075                  0000000000000014075100000000002               0114075     08021500000000500000000000012N030215000000000000001670000000000000000000000000000000000000000000000116945793000151JLM INTERMEDIAÇÃO CARTORÁRIA LTDA       Av. Tiradentes,618-LJ 03                            36307348Protesto após 5 dias                                        000212
1                   000902692011248461-14076                  0000000000000014076P00000000002               0114076     08021500000000500000000000012N030215000000000000001670000000000000000000000000000000000000000000000116945793000151JLM INTERMEDIAÇÃO CARTORÁRIA LTDA       Av. Tiradentes,618-LJ 03                            36307348Protesto após 5 dias                                        000213
1                   000902692011248461-14077                  0000000000000014077800000000002               0114077     08021500000001750000000000012N030215000000000000005830000000000000000000000000000000000000000000000116927836000176C. M. MILROT CONSULTORIA E INTERMEDIAÇÃOAl. Ribeirão Preto,551-SL 24                        01331001Protesto após 5 dias                                        000214
1                   000902692011248461-14078                  0000000000000014078600000000002               0114078     08021500000001750000000000012N030215000000000000005830000000000000000000000000000000000000000000000116927836000176C. M. MILROT CONSULTORIA E INTERMEDIAÇÃOAl. Ribeirão Preto,551-SL 24                        01331001Protesto após 5 dias                                        000215
1                   000902692011248461-14079                  0000000000000014079400000000002               0114079     08021500000000500000000000012N030215000000000000001670000000000000000000000000000000000000000000000116935668000160FLASH DOC INTERMEDIAÇÕES CARTORARIAS    Av. Caetano Barrela,209                             06763460Protesto após 5 dias                                        000216
1                   000902692011248461-14080                  0000000000000014080800000000002               0114080     08021500000000500000000000012N030215000000000000001670000000000000000000000000000000000000000000000116935668000160FLASH DOC INTERMEDIAÇÕES CARTORARIAS    Av. Caetano Barrela,209                             06763460Protesto após 5 dias                                        000217
1                   000902692011248461-14081                  0000000000000014081600000000002               0114081     08021500000000500000000000012N030215000000000000001670000000000000000000000000000000000000000000000116964316000133CAMARGO & ESTRACINE INTERMEDIAÇÃO CARTORRua Miguel Anselmo,260                              15900000Protesto após 5 dias                                        000218
1                   000902692011248461-14082                  0000000000000014082400000000002               0114082     08021500000000500000000000012N030215000000000000001670000000000000000000000000000000000000000000000116964316000133CAMARGO & ESTRACINE INTERMEDIAÇÃO CARTORRua Miguel Anselmo,260                              15900000Protesto após 5 dias                                        000219
1                   000902692011248461-14083                  0000000000000014083200000000002               0114083     08021500000001000000000000012N030215000000000000003330000000000000000000000000000000000000000000000117829100000128JS & BOIM INTERMEDIAÇÃO CARTORÁRIA LTDA Rua Tabatinguera,140-SL 409 e 410                   01020000Protesto após 5 dias                                        000220
1                   000902692011248461-14084                  0000000000000014084000000000002               0114084     08021500000001000000000000012N030215000000000000003330000000000000000000000000000000000000000000000117829100000128JS & BOIM INTERMEDIAÇÃO CARTORÁRIA LTDA Rua Tabatinguera,140-SL 409 e 410                   01020000Protesto após 5 dias                                        000221
1                   000902692011248461-14085                  0000000000000014085900000000002               0114085     08021500000001000000000000012N030215000000000000003330000000000000000000000000000000000000000000000112587280000165RTC INTERMEDIAÇÃO CARTORÁRIA LTDA - ME  Rua Montenegro,171 A                                11410040Protesto após 5 dias                                        000222
1                   000902692011248461-14086                  0000000000000014086700000000002               0114086     08021500000001000000000000012N030215000000000000003330000000000000000000000000000000000000000000000112587280000165RTC INTERMEDIAÇÃO CARTORÁRIA LTDA - ME  Rua Montenegro,171 A                                11410040Protesto após 5 dias                                        000223
1                   000902692011248461-14087                  0000000000000014087500000000002               0114087     08021500000000500000000000012N030215000000000000001670000000000000000000000000000000000000000000000116729531000150GOMES VERAS INTERMEDIAÇÃO CARTORÁRIA LTDRua Maranhão,763-Sala 17 R                          65901590Protesto após 5 dias                                        000224
1                   000902692011248461-14088                  0000000000000014088300000000002               0114088     08021500000000500000000000012N030215000000000000001670000000000000000000000000000000000000000000000116729531000150GOMES VERAS INTERMEDIAÇÃO CARTORÁRIA LTDRua Maranhão,763-Sala 17 R                          65901590Protesto após 5 dias                                        000225
1                   000902692011248461-14089                  0000000000000014089100000000002               0114089     08021500000002000000000000012N030215000000000000006670000000000000000000000000000000000000000000000116970183000108NR INTERMEDIAÇÃO CARTORÁRIA LTDA        Av. Dom Luis,500-Piso L0, Loja 38, Shopp            60160196Protesto após 5 dias                                        000226
1                   000902692011248461-14090                  0000000000000014090500000000002               0114090     08021500000002000000000000012N030215000000000000006670000000000000000000000000000000000000000000000116970183000108NR INTERMEDIAÇÃO CARTORÁRIA LTDA        Av. Dom Luis,500-Piso L0, Loja 38, Shopp            60160196Protesto após 5 dias                                        000227
1                   000902692011248461-14091                  0000000000000014091300000000002               0114091     08021500000000500000000000012N030215000000000000001670000000000000000000000000000000000000000000000117103695000210Vale Rio - Intermediação Cartorária LtdaRua do Paraíso,97-SL 29                             48903050Protesto após 5 dias                                        000228
1                   000902692011248461-14092                  0000000000000014092100000000002               0114092     08021500000000500000000000012N030215000000000000001670000000000000000000000000000000000000000000000117103695000210Vale Rio - Intermediação Cartorária LtdaRua do Paraíso,97-SL 29                             48903050Protesto após 5 dias                                        000229
1                   000902692011248461-14093                  0000000000000014093P00000000002               0114093     08021500000000500000000000012N030215000000000000001670000000000000000000000000000000000000000000000117103695000130VALE RIO - INTERMEDIAÇÃO CARTORÁRIA LTDAPraça Pio XII,290-2º Andar, SL 01                   56304430Protesto após 5 dias                                        000230
1                   000902692011248461-14094                  0000000000000014094800000000002               0114094     08021500000000500000000000012N030215000000000000001670000000000000000000000000000000000000000000000117103695000130VALE RIO - INTERMEDIAÇÃO CARTORÁRIA LTDAPraça Pio XII,290-2º Andar, SL 01                   56304430Protesto após 5 dias                                        000231
1                   000902692011248461-14095                  0000000000000014095600000000002               0114095     08021500000001000000000000012N030215000000000000003330000000000000000000000000000000000000000000000117488037000103LG INTERMEDIAÇÃO CARTORÁRIA LTDA ME     Rua Rafael Nascimento,300 C                         75901290Protesto após 5 dias                                        000232
1                   000902692011248461-14096                  0000000000000014096400000000002               0114096     08021500000001000000000000012N030215000000000000003330000000000000000000000000000000000000000000000117488037000103LG INTERMEDIAÇÃO CARTORÁRIA LTDA ME     Rua Rafael Nascimento,300 C                         75901290Protesto após 5 dias                                        000233
1                   000902692011248461-14097                  0000000000000014097200000000002               0114097     08021500000001000000000000012N030215000000000000003330000000000000000000000000000000000000000000000117197147000116POSTCAR INTERMEDIAÇÃO CARTORÁRIA LTDA   Rua Amaro Genari,40-Sala 33                         09810270Protesto após 5 dias                                        000234
1                   000902692011248461-14098                  0000000000000014098000000000002               0114098     08021500000001000000000000012N030215000000000000003330000000000000000000000000000000000000000000000117197147000116POSTCAR INTERMEDIAÇÃO CARTORÁRIA LTDA   Rua Amaro Genari,40-Sala 33                         09810270Protesto após 5 dias                                        000235
1                   000902692011248461-14099                  0000000000000014099900000000002               0114099     08021500000000300000000000012N030215000000000000001000000000000000000000000000000000000000000000000117216619000130F E M INTERMEDIAÇÃO CARTORARIA LTDA ME  Av. Dom Pedro II,135-Sala 22                        37470000Protesto após 5 dias                                        000236
1                   000902692011248461-14100                  0000000000000014100600000000002               0114100     08021500000000300000000000012N030215000000000000001000000000000000000000000000000000000000000000000117216619000130F E M INTERMEDIAÇÃO CARTORARIA LTDA ME  Av. Dom Pedro II,135-Sala 22                        37470000Protesto após 5 dias                                        000237
1                   000902692011248461-14101                  0000000000000014101400000000002               0114101     08021500000000500000000000012N030215000000000000001670000000000000000000000000000000000000000000000112762841000115SM GERENCIAMENTO DE CERTIDÕES E DOCUMENTRua 18,81                                           76380000Protesto após 5 dias                                        000238
1                   000902692011248461-14102                  0000000000000014102200000000002               0114102     08021500000000500000000000012N030215000000000000001670000000000000000000000000000000000000000000000112762841000115SM GERENCIAMENTO DE CERTIDÕES E DOCUMENTRua 18,81                                           76380000Protesto após 5 dias                                        000239
1                   000902692011248461-14103                  0000000000000014103000000000002               0114103     08021500000000500000000000012N030215000000000000001670000000000000000000000000000000000000000000000118325368000195FERREIRA CAMPOS CONSULTORIA E INTERMEDIARua Joaquim Manuel,248                              46430000Protesto após 5 dias                                        000240
1                   000902692011248461-14104                  0000000000000014104900000000002               0114104     08021500000000500000000000012N030215000000000000001670000000000000000000000000000000000000000000000118325368000195FERREIRA CAMPOS CONSULTORIA E INTERMEDIARua Joaquim Manuel,248                              46430000Protesto após 5 dias                                        000241
1                   000902692011248461-14105                  0000000000000014105700000000002               0114105     08021500000001500000000000012N030215000000000000005000000000000000000000000000000000000000000000000117234137000103Postal Services - Assessoria e Serviços Pç das Orquideas,186-SL 04 | 1º Andar               06453002Protesto após 5 dias                                        000242
1                   000902692011248461-14106                  0000000000000014106500000000002               0114106     08021500000001500000000000012N030215000000000000005000000000000000000000000000000000000000000000000117234137000103Postal Services - Assessoria e Serviços Pç das Orquideas,186-SL 04 | 1º Andar               06453002Protesto após 5 dias                                        000243
1                   000902692011248461-14107                  0000000000000014107300000000002               0114107     08021500000000500000000000012N030215000000000000001670000000000000000000000000000000000000000000000117344439000134Carneiro e Santana Intermediação CartoráRua Brasil,210-SALA A                               19800100Protesto após 5 dias                                        000244
1                   000902692011248461-14108                  0000000000000014108100000000002               0114108     08021500000000500000000000012N030215000000000000001670000000000000000000000000000000000000000000000117344439000134Carneiro e Santana Intermediação CartoráRua Brasil,210-SALA A                               19800100Protesto após 5 dias                                        000245
1                   000902692011248461-14109                  0000000000000014109P00000000002               0114109     08021500000000500000000000012N030215000000000000001670000000000000000000000000000000000000000000000117474125000156MAGAVIX INTERMEDIAÇÃO E LOGISTICA DE DISRua Amapá,1777                                      87704070Protesto após 5 dias                                        000246
1                   000902692011248461-14110                  0000000000000014110300000000002               0114110     08021500000000500000000000012N030215000000000000001670000000000000000000000000000000000000000000000117474125000156MAGAVIX INTERMEDIAÇÃO E LOGISTICA DE DISRua Amapá,1777                                      87704070Protesto após 5 dias                                        000247
1                   000902692011248461-14111                  0000000000000014111100000000002               0114111     08021500000000500000000000012N030215000000000000001670000000000000000000000000000000000000000000000118726605000120OLIVEIRA CECHET INTERMEDIAÇÃO CARTORÁRIARua Cleriston Andrade,132-QD 23 LT 03 SL            47850000Protesto após 5 dias                                        000248
1                   000902692011248461-14112                  0000000000000014112P00000000002               0114112     08021500000000500000000000012N030215000000000000001670000000000000000000000000000000000000000000000118726605000120OLIVEIRA CECHET INTERMEDIAÇÃO CARTORÁRIARua Cleriston Andrade,132-QD 23 LT 03 SL            47850000Protesto após 5 dias                                        000249
