01REMESSA01COBRANCA       00000000000004130991SISTEMA DE CARTÛRIO CERTIDıES 237BRADESCO       100415        MX0000765                                                                                                                                                                                                                                                                                     000001
1                   000902692011248461-14637                  0000000000000014637700000000002               0114637     10041500000000360000000000012N310315120000000000001200000000000000000000000000000000000000000000000253283180000122Tesheiner Cavassani e Giacomazi AdvogadoRua Jo„o Adolfo,118-Conj. 405                       01050020                                                            000002
1                   000902692011248461-14638                  0000000000000014638500000000002               0114638     10041500000000180000000000012N310315120000000000000600000000000000000000000000000000000000000000000253283180000122Tesheiner Cavassani e Giacomazi AdvogadoRua Jo„o Adolfo,118-Conj. 405                       01050020                                                            000003
1                   000902692011248461-14639                  0000000000000014639300000000002               0114639     08041500000000318600000000012N020415000000000000001060000000000000000000000000000000000000000000000111029315000188SUZAN CART CERTIDOES LTDA - ME          Rua Gal. Francisco GlicÈrio,1185                    08674003Protesto apÛs 5 dias                                        000004
1                   000902692011248461-14640                  0000000000000014640700000000002               0114640     08041500000000295000000000012N020415000000000000000980000000000000000000000000000000000000000000000111163439000151RF-SERVICOS DE DOCUMENTACAO LTDA.       Av. Mal. Castelo Branco,173-A                       65076090Protesto apÛs 5 dias                                        000005
1                   000902692011248461-14641                  0000000000000014641500000000002               0114641     08041500000001000000000000012N020415000000000000003330000000000000000000000000000000000000000000000110999668000148ASSESSORIA E CONSULTORIA DE DOCUMENTOS ER. Leopoldo Machado,242-Loja 02                     18035075Protesto apÛs 5 dias                                        000006
1                   000902692011248461-14642                  0000000000000014642300000000002               0114642     08041500000001300000000000012N020415000000000000004330000000000000000000000000000000000000000000000111165549000152D¥ VASQUEZ SERVI«OS CARTORARIOS LTDA - EAv. Dr. Jo„o Guilhermino,293                        12210131Protesto apÛs 5 dias                                        000007
1                   000902692011248461-14643                  0000000000000014643100000000002               0114643     12041500000000180000000000012N020415120000000000000600000000000000000000000000000000000000000000000253283180000122Tesheiner Cavassani e Giacomazi AdvogadoRua Jo„o Adolfo,118-Conj. 405                       01050020                                                            000008
1                   000902692011248461-14644                  0000000000000014644P00000000002               0114644     08041500000001000000000000012N020415000000000000003330000000000000000000000000000000000000000000000111144435000126DOCK STATION INTERMEDIA«√O CARTOR¡RIA LTRua da Quitanda,20-4∫ andar ñ Sala 401              20011972Protesto apÛs 5 dias                                        000009
1                   000902692011248461-14645                  0000000000000014645800000000002               0114645     08041500000001000000000000012N020415000000000000003330000000000000000000000000000000000000000000000114816778000188Oliveira IntermediaÁ„o Cartor·ria LTDA MRua Delfino Cintra,500 AxB                          13020100Protesto apÛs 5 dias                                        000010
1                   000902692011248461-14646                  0000000000000014646600000000002               0114646     08041500000000500000000000012N020415000000000000001670000000000000000000000000000000000000000000000111253279000131¡GAPE SERVI«OS E INTERMEDIA«’ES CARTOR¡RR. Gov. Pedro de Toledo,569                         13400070Protesto apÛs 5 dias                                        000011
1                   000902692011248461-14647                  0000000000000014647400000000002               0114647     08041500000001000000000000012N020415000000000000003330000000000000000000000000000000000000000000000106058057000128CTPOST SERVI«OS LTDA ME                 R. Chaves Barcelos,131                              90030120Protesto apÛs 5 dias                                        000012
1                   000902692011248461-14648                  0000000000000014648200000000002               0114648     08041500000000000000000000012N020415000000000000000000000000000000000000000000000000000000000000000113238744000190ARCHANJO TEIXEIRA PREPARA«√O DE DOCUMENTAv. Brasil,1586-Loja 06                             30140003Protesto apÛs 5 dias                                        000013
1                   000902692011248461-14649                  0000000000000014649000000000002               0114649     08041500000000000000000000012N020415000000000000000000000000000000000000000000000000000000000000000112761154000185MC PRESTADORA DE SERVI«OS ADMINISTRATIVORua Marechal JosÈ B. Bormann,164 E-Sala             89802120Protesto apÛs 5 dias                                        000014
1                   000902692011248461-14650                  0000000000000014650400000000002               0114650     08041500000000500000000000012N020415000000000000001670000000000000000000000000000000000000000000000111675298000156MORANDO & MORANDO SERV TRANSCRI«√O DOCUMRua TibiriÁ·,189                                    14010090Protesto apÛs 5 dias                                        000015
1                   000902692011248461-14651                  0000000000000014651200000000002               0114651     08041500000000000000000000012N020415000000000000000000000000000000000000000000000000000000000000000113329559000101FACIL SERVICOS ADMINISTRATIVOS LTDA ME  Av. das Emba˙bas,952                                78550222Protesto apÛs 5 dias                                        000016
1                   000902692011248461-14652                  0000000000000014652000000000002               0114652     12041500000000180000000000012N020415120000000000000600000000000000000000000000000000000000000000000253283180000122Tesheiner Cavassani e Giacomazi AdvogadoRua Jo„o Adolfo,118-Conj. 405                       01050020                                                            000017
1                   000902692011248461-14653                  0000000000000014653900000000002               0114653     08041500000000027250000000012N020415000000000000000090000000000000000000000000000000000000000000000111564744000155SARAIVA¥S CONSULTORIA EMPRESARIAL LTDA  Rua Prefeito JosÈ Santana Trigueiro,183             32604188Protesto apÛs 5 dias                                        000018
1                   000902692011248461-14654                  0000000000000014654700000000002               0114654     08041500000000000000000000012N020415000000000000000000000000000000000000000000000000000000000000000111425891000144MHG SERVI«OS ADMINISTRATIVOS EMPRESAS LTAv. Tocantins,1124                                  74075100Protesto apÛs 5 dias                                        000019
1                   000902692011248461-14655                  0000000000000014655500000000002               0114655     08041500000000500000000000012N020415000000000000001670000000000000000000000000000000000000000000000111479061000108ANDRADE SOARES LOPES LTDA               Rua Lehar David,05                                  45000445Protesto apÛs 5 dias                                        000020
1                   000902692011248461-14656                  0000000000000014656300000000002               0114656     08041500000000000000000000012N020415000000000000000000000000000000000000000000000000000000000000000111777632000182CFN ASSESSORIA EM DOCUMENTOS LTDA       R Prefeito Carlos JosÈ Carlson,226-CJ 01            09450000Protesto apÛs 5 dias                                        000021
1                   000902692011248461-14657                  0000000000000014657100000000002               0114657     08041500000000500000000000012N020415000000000000001670000000000000000000000000000000000000000000000111222886000134ELIDA ASSESSORIA EMPRESARIAL LTDA       R. Neo Alves Martins,2955-Sala 03                   87013060Protesto apÛs 5 dias                                        000022
1                   000902692011248461-14658                  0000000000000014658P00000000002               0114658     08041500000000006500000000012N020415000000000000000020000000000000000000000000000000000000000000000111834699000101REGIS ORLANDINI ASSESSORIA CARTORARIA LTAv. Jo„o Naves de ¡vila,81                          38400600Protesto apÛs 5 dias                                        000023
1                   000902692011248461-14659                  0000000000000014659800000000002               0114659     08041500000000500000000000012N020415000000000000001670000000000000000000000000000000000000000000000119762311000116J. LOPES - ME                           Rua Luso Brasileira,4-44-SL 103                     17016230Protesto apÛs 5 dias                                        000024
1                   000902692011248461-14660                  0000000000000014660100000000002               0114660     08041500000000500000000000012N020415000000000000001670000000000000000000000000000000000000000000000111838860000115M.L. CARDOSO - PRESTA«√O DE SERVI«OS - ERua Luiz Pereira Barreto,304                        16010320Protesto apÛs 5 dias                                        000025
1                   000902692011248461-14661                  0000000000000014661P00000000002               0114661     08041500000000500000000000012N020415000000000000001670000000000000000000000000000000000000000000000118433773000127MUZETI ASSESSORIA CARTORARIA LTDA ME    Rua 20,1022                                         14780070Protesto apÛs 5 dias                                        000026
1                   000902692011248461-14662                  0000000000000014662800000000002               0114662     08041500000000500000000000012N020415000000000000001670000000000000000000000000000000000000000000000119450025000115SAITO & SAITO ASSESSORIA E SERVI«OS LTDAAv. Francisco de Paula Leite,1699                   13344325Protesto apÛs 5 dias                                        000027
1                   000902692011248461-14663                  0000000000000014663600000000002               0114663     08041500000000000000000000012N020415000000000000000000000000000000000000000000000000000000000000000112462165000164Viviane Aparecida Henriques - EPP       Rua Rui Barbosa,164                                 19010260Protesto apÛs 5 dias                                        000028
1                   000902692011248461-14664                  0000000000000014664400000000002               0114664     08041500000000500000000000012N020415000000000000001670000000000000000000000000000000000000000000000112443155000181ASSESSORIA E CONSULTORIA CARTORARIA DE DRua Santa Cruz,652                                  13300090Protesto apÛs 5 dias                                        000029
1                   000902692011248461-14665                  0000000000000014665200000000002               0114665     08041500000000500000000000012N020415000000000000001670000000000000000000000000000000000000000000000112632803000148RUBIANA SERVI«OS DE CARTORIO, CERTID’ES Rua das Esmeraldas,186                              09920520Protesto apÛs 5 dias                                        000030
1                   000902692011248461-14666                  0000000000000014666000000000002               0114666     08041500000000500000000000012N020415000000000000001670000000000000000000000000000000000000000000000102248702000114MOURA E MENEZES SERVI«OS ADMINISTRATIVOSRua Dr. Curvelo Cavalcante,189-Loja 101             23810201Protesto apÛs 5 dias                                        000031
1                   000902692011248461-14667                  0000000000000014667900000000002               0114667     08041500000000500000000000012N020415000000000000001670000000000000000000000000000000000000000000000111619454000161ASSESSORIA CARTOR¡RIA DO NORDESTE LTDA  Rua AntÙnio de Castro,114-LJ 05                     52070080Protesto apÛs 5 dias                                        000032
1                   000902692011248461-14668                  0000000000000014668700000000002               0114668     08041500000000500000000000012N020415000000000000001670000000000000000000000000000000000000000000000112572498000146Alphacentral Documentos e ServiÁos LTDA Rua Cel. Siqueira de Moraes,125/127                 13201032Protesto apÛs 5 dias                                        000033
1                   000902692011248461-14669                  0000000000000014669500000000002               0114669     08041500000000500000000000012N020415000000000000001670000000000000000000000000000000000000000000000121117773000122JR CONSULTORIA INTERMEDIACAO CARTORARIA Rua Visconde de Sepetiba,935-SL 625                 24020206Protesto apÛs 5 dias                                        000034
1                   000902692011248461-14670                  0000000000000014670900000000002               0114670     08041500000000299750000000012N020415000000000000001000000000000000000000000000000000000000000000000112139078000170RW MARIZ ESTRUTURA CARTORAL LTDA        Av Epit·cio Pessoa,475-Sala 05                      58030906Protesto apÛs 5 dias                                        000035
1                   000902692011248461-14671                  0000000000000014671700000000002               0114671     08041500000001200000000000012N020415000000000000004000000000000000000000000000000000000000000000000113133167000172G I CART SERVI«OS ORGANIZACIONAIS LTDA  Rua dos Marianos,132                                06016050Protesto apÛs 5 dias                                        000036
1                   000902692011248461-14672                  0000000000000014672500000000002               0114672     08041500000000000000000000012N020415000000000000000000000000000000000000000000000000000000000000000113287999000143ASSESSORIA CARTOR¡RIA P¡DUA LTDA        Rua Tiradentes,112-SL 201                           28300000Protesto apÛs 5 dias                                        000037
1                   000902692011248461-14673                  0000000000000014673300000000002               0114673     08041500000000000000000000012N020415000000000000000000000000000000000000000000000000000000000000000113913099000164ERM ServiÁos Administrativos LTDA       Rua 7 de Setembro,1315                              89010203Protesto apÛs 5 dias                                        000038
1                   000902692011248461-14674                  0000000000000014674100000000002               0114674     08041500000000500000000000012N020415000000000000001670000000000000000000000000000000000000000000000113321680000197Ana Claudia Barbiere Alves Ferreira - MEAv. Brasil,326                                      14801050Protesto apÛs 5 dias                                        000039
1                   000902692011248461-14675                  0000000000000014675P00000000002               0114675     08041500000000000000000000012N020415000000000000000000000000000000000000000000000000000000000000000117655488000198KAEL INTERMEDIA«’ES CARTOR¡RIAS LTDA ME Av. Monte Castelo,720                               13450032Protesto apÛs 5 dias                                        000040
1                   000902692011248461-14676                  0000000000000014676800000000002               0114676     08041500000000017500000000012N020415000000000000000060000000000000000000000000000000000000000000000113350598000190CP SERVI«OS ADMINISTRATIVO LTDA - ME    Rua Arnaldo Estev„o de Figueiredo,640               78700150Protesto apÛs 5 dias                                        000041
1                   000902692011248461-14677                  0000000000000014677600000000002               0114677     08041500000000012750000000012N020415000000000000000040000000000000000000000000000000000000000000000113585685000127ASSESSORIA CARTOR¡RIA LIMEIRA LTDA ME   Rua Deputado Octavio Lopes,304 B                    13480021Protesto apÛs 5 dias                                        000042
1                   000902692011248461-14678                  0000000000000014678400000000002               0114678     08041500000000114380000000012N020415000000000000000380000000000000000000000000000000000000000000000113406670000154RODRIGUES E VIEIRA LTDA.                104 SUL RUA SE 05 LOTE 23 | AC JK CAIXA             77006970Protesto apÛs 5 dias                                        000043
1                   000902692011248461-14679                  0000000000000014679200000000002               0114679     08041500000000350000000000012N020415000000000000001170000000000000000000000000000000000000000000000113743219000122Valentim e Silva ServiÁos               PraÁa AntÙnio Dias,584                              38700110Protesto apÛs 5 dias                                        000044
1                   000902692011248461-14680                  0000000000000014680600000000002               0114680     08041500000000300000000000012N020415000000000000001000000000000000000000000000000000000000000000000113433192000171CONSULT SERVICE ASSESSORIA CARTOR¡RIA LTRua Episcopal,1714-Loja 02                          13560570Protesto apÛs 5 dias                                        000045
1                   000902692011248461-14681                  0000000000000014681400000000002               0114681     08041500000000018940000000012N020415000000000000000060000000000000000000000000000000000000000000000113576355000175LEME ASSESSORIA E CONSULTORIA DE DOCUMENRua Prudente de Moraes,933                          13320160Protesto apÛs 5 dias                                        000046
1                   000902692011248461-14682                  0000000000000014682200000000002               0114682     08041500000000000000000000012N020415000000000000000000000000000000000000000000000000000000000000000114495115000109MSC ASSESSORIA E CONSULTORIA CARTORARIA Rua Duque de Caxias,161                             06401010Protesto apÛs 5 dias                                        000047
1                   000902692011248461-14683                  0000000000000014683000000000002               0114683     08041500000000500000000000012N020415000000000000001670000000000000000000000000000000000000000000000113845551000106MACEDO & MELO INTERMEDIACOES CARTORARIASRUA LIZANDRO NOGUEIRA,1223-SALA 304                 64000200Protesto apÛs 5 dias                                        000048
1                   000902692011248461-14684                  0000000000000014684900000000002               0114684     08041500000000000000000000012N020415000000000000000000000000000000000000000000000000000000000000000113800899000179TEIXEIRA CARREIRO INTERMEDIACAO CARTORARRua Alan Kardec,50-SL 712                           27541290Protesto apÛs 5 dias                                        000049
1                   000902692011248461-14685                  0000000000000014685700000000002               0114685     08041500000000500000000000012N020415000000000000001670000000000000000000000000000000000000000000000114142222000153Araujo Oliveira Assessoria Cartoraria LTAv. Radial B,60-LJ 02                               42807380Protesto apÛs 5 dias                                        000050
1                   000902692011248461-14686                  0000000000000014686500000000002               0114686     08041500000000000000000000012N020415000000000000000000000000000000000000000000000000000000000000000114041706000106HMR - EXPRESS DOCUMENTOS LTDA - ME      Rua Daniel de Oliveira Carvalho,253                 13660000Protesto apÛs 5 dias                                        000051
1                   000902692011248461-14687                  0000000000000014687300000000002               0114687     08041500000000000000000000012N020415000000000000000000000000000000000000000000000000000000000000000116806807000156M MARRAS SERVICOS E EVENTOS LTDA - ME   Rua Volunt·rios da Franca,453                       14405103Protesto apÛs 5 dias                                        000052
1                   000902692011248461-14688                  0000000000000014688100000000002               0114688     08041500000000500000000000012N020415000000000000001670000000000000000000000000000000000000000000000114456232000163ALVES & UEMURA ASSESSORIA COMERCIAL E INRua Juscelino K. de Oliveira,710-LJ 02              37580000Protesto apÛs 5 dias                                        000053
1                   000902692011248461-14689                  0000000000000014689P00000000002               0114689     08041500000000500000000000012N020415000000000000001670000000000000000000000000000000000000000000000111834699000292REGIS ORLANDINI ASSESSORIA CARTOR¡RIA EPPraÁa Manoel Bonito,65                              38440076Protesto apÛs 5 dias                                        000054
1                   000902692011248461-14690                  0000000000000014690300000000002               0114690     08041500000000500000000000012N020415000000000000001670000000000000000000000000000000000000000000000115003436000101Via R·pida IntermediaÁ„o Cartor·ria LTDARua Vereador Juca Pena,10                           36400000Protesto apÛs 5 dias                                        000055
1                   000902692011248461-14691                  0000000000000014691100000000002               0114691     08041500000000500000000000012N020415000000000000001670000000000000000000000000000000000000000000000114467333000130Sirley Santos Niemic - ME               Av. Municipal,1779 A                                78250000Protesto apÛs 5 dias                                        000056
1                   000902692011248461-14692                  0000000000000014692P00000000002               0114692     08041500000000318600000000012N020415000000000000001060000000000000000000000000000000000000000000000111029315000188SUZAN CART CERTIDOES LTDA - ME          Rua Gal. Francisco GlicÈrio,1185                    08674003Protesto apÛs 5 dias                                        000057
1                   000902692011248461-14693                  0000000000000014693800000000002               0114693     08041500000000500000000000012N020415000000000000001670000000000000000000000000000000000000000000000114567761000134ABEN INTERMEDIACAO CARTORARIA LTDA ME   Av. Leopoldino de Oliveira,4464-Ed. Diam            38060000Protesto apÛs 5 dias                                        000058
1                   000902692011248461-14694                  0000000000000014694600000000002               0114694     08041500000000295000000000012N020415000000000000000980000000000000000000000000000000000000000000000111163439000151RF-SERVICOS DE DOCUMENTACAO LTDA.       Av. Mal. Castelo Branco,173-A                       65076090Protesto apÛs 5 dias                                        000059
1                   000902692011248461-14695                  0000000000000014695400000000002               0114695     08041500000000500000000000012N020415000000000000001670000000000000000000000000000000000000000000000114547088000170SPEED FOX ASSESSORIA CARTORARIA LTDA ME Rua General Dionisio,410-LOJA                       25075095Protesto apÛs 5 dias                                        000060
1                   000902692011248461-14696                  0000000000000014696200000000002               0114696     08041500000001000000000000012N020415000000000000003330000000000000000000000000000000000000000000000110999668000148ASSESSORIA E CONSULTORIA DE DOCUMENTOS ER. Leopoldo Machado,242-Loja 02                     18035075Protesto apÛs 5 dias                                        000061
1                   000902692011248461-14697                  0000000000000014697000000000002               0114697     08041500000000000000000000012N020415000000000000000000000000000000000000000000000000000000000000000114911193000147LOPES E LOPES INTERMEDIA√á√ÉO CARTOR√ÅRIRua Marechal Deodoro,444-loja 322                   36010904Protesto apÛs 5 dias                                        000062
1                   000902692011248461-14698                  0000000000000014698900000000002               0114698     08041500000001300000000000012N020415000000000000004330000000000000000000000000000000000000000000000111165549000152D¥ VASQUEZ SERVI«OS CARTORARIOS LTDA - EAv. Dr. Jo„o Guilhermino,293                        12210131Protesto apÛs 5 dias                                        000063
1                   000902692011248461-14699                  0000000000000014699700000000002               0114699     08041500000000400000000000012N020415000000000000001330000000000000000000000000000000000000000000000115220454000226RENAULT ASSOCIADOS INTERMEDIACOES CARTORRua Benedito Valadares,520-LJ 03                    35660630Protesto apÛs 5 dias                                        000064
1                   000902692011248461-14700                  0000000000000014700400000000002               0114700     08041500000001000000000000012N020415000000000000003330000000000000000000000000000000000000000000000111144435000126DOCK STATION INTERMEDIA«√O CARTOR¡RIA LTRua da Quitanda,20-4∫ andar ñ Sala 401              20011972Protesto apÛs 5 dias                                        000065
1                   000902692011248461-14701                  0000000000000014701200000000002               0114701     08041500000000500000000000012N020415000000000000001670000000000000000000000000000000000000000000000120019555000192SERV MASTER SERVICOS E LOGISTICA LTDA ñMRua Bar„o do Rio Branco,1089                        16200001Protesto apÛs 5 dias                                        000066
1                   000902692011248461-14702                  0000000000000014702000000000002               0114702     08041500000001000000000000012N020415000000000000003330000000000000000000000000000000000000000000000114816778000188Oliveira IntermediaÁ„o Cartor·ria LTDA MRua Delfino Cintra,500 AxB                          13020100Protesto apÛs 5 dias                                        000067
1                   000902692011248461-14703                  0000000000000014703900000000002               0114703     08041500000001000000000000012N020415000000000000003330000000000000000000000000000000000000000000000115447264000165CAMPDOC INTERMEDIA«√O CARTOR¡RIA LTDA ñ Av. Carlos de Ara˙jo Gobbi,325                      13034670Protesto apÛs 5 dias                                        000068
1                   000902692011248461-14704                  0000000000000014704700000000002               0114704     08041500000000500000000000012N020415000000000000001670000000000000000000000000000000000000000000000111253279000131¡GAPE SERVI«OS E INTERMEDIA«’ES CARTOR¡RR. Gov. Pedro de Toledo,569                         13400070Protesto apÛs 5 dias                                        000069
1                   000902692011248461-14705                  0000000000000014705500000000002               0114705     08041500000000000000000000012N020415000000000000000000000000000000000000000000000000000000000000000115425969000181JKIM SERVI«OS E INTERMEDIA«√O LTDA      Rua A,501-QD 08 LT 05                               68515000Protesto apÛs 5 dias                                        000070
1                   000902692011248461-14706                  0000000000000014706300000000002               0114706     08041500000001000000000000012N020415000000000000003330000000000000000000000000000000000000000000000106058057000128CTPOST SERVI«OS LTDA ME                 R. Chaves Barcelos,131                              90030120Protesto apÛs 5 dias                                        000071
1                   000902692011248461-14707                  0000000000000014707100000000002               0114707     08041500000000500000000000012N020415000000000000001670000000000000000000000000000000000000000000000120603641000148GUARAPARI SERVICOS CARTORARIOS LTDA - MERua Roberto Calmon,140                              29200340Protesto apÛs 5 dias                                        000072
1                   000902692011248461-14708                  0000000000000014708P00000000002               0114708     08041500000000000000000000012N020415000000000000000000000000000000000000000000000000000000000000000113238744000190ARCHANJO TEIXEIRA PREPARA«√O DE DOCUMENTAv. Brasil,1586-Loja 06                             30140003Protesto apÛs 5 dias                                        000073
1                   000902692011248461-14709                  0000000000000014709800000000002               0114709     08041500000000500000000000012N020415000000000000001670000000000000000000000000000000000000000000000115328775000168Bagini e Okumura IntermediaÁıes Cartor·rRua Laurindo Borges,1494                            87303240Protesto apÛs 5 dias                                        000074
1                   000902692011248461-14710                  0000000000000014710100000000002               0114710     08041500000000000000000000012N020415000000000000000000000000000000000000000000000000000000000000000112761154000185MC PRESTADORA DE SERVI«OS ADMINISTRATIVORua Marechal JosÈ B. Bormann,164 E-Sala             89802120Protesto apÛs 5 dias                                        000075
1                   000902692011248461-14711                  0000000000000014711P00000000002               0114711     08041500000000500000000000012N020415000000000000001670000000000000000000000000000000000000000000000115523647000175TGD ASSESSORIA E CONSULTORIA LTDA       Rua Coronel Antonio Cardoso Pinto,34 A              37640000Protesto apÛs 5 dias                                        000076
1                   000902692011248461-14712                  0000000000000014712800000000002               0114712     08041500000000500000000000012N020415000000000000001670000000000000000000000000000000000000000000000111675298000156MORANDO & MORANDO SERV TRANSCRI«√O DOCUMRua TibiriÁ·,189                                    14010090Protesto apÛs 5 dias                                        000077
1                   000902692011248461-14713                  0000000000000014713600000000002               0114713     08041500000000500000000000012N020415000000000000001670000000000000000000000000000000000000000000000116465255000160Tocantins IntermediaÁ„o Cartor·ria LTDA-RUA RODOVI¡RIA,193-SALA 01                          77805040Protesto apÛs 5 dias                                        000078
1                   000902692011248461-14714                  0000000000000014714400000000002               0114714     08041500000000000000000000012N020415000000000000000000000000000000000000000000000000000000000000000113329559000101FACIL SERVICOS ADMINISTRATIVOS LTDA ME  Av. das Emba˙bas,952                                78550222Protesto apÛs 5 dias                                        000079
1                   000902692011248461-14715                  0000000000000014715200000000002               0114715     08041500000000500000000000012N020415000000000000001670000000000000000000000000000000000000000000000115731322000188MEIRELES SERVI«OS DE APOIO ADMINISTRATIVRua JosÈ Marcelino de Oliveira,374-BAIXO            67030170Protesto apÛs 5 dias                                        000080
1                   000902692011248461-14716                  0000000000000014716000000000002               0114716     08041500000000027250000000012N020415000000000000000090000000000000000000000000000000000000000000000111564744000155SARAIVA¥S CONSULTORIA EMPRESARIAL LTDA  Rua Prefeito JosÈ Santana Trigueiro,183             32604188Protesto apÛs 5 dias                                        000081
1                   000902692011248461-14717                  0000000000000014717900000000002               0114717     08041500000001000000000000012N020415000000000000003330000000000000000000000000000000000000000000000115803475000193PEDRO, BASTOS & JONES SERVI«OS ASMINISTRRua Duque de Caxias,01-SL 31                        28613060Protesto apÛs 5 dias                                        000082
1                   000902692011248461-14718                  0000000000000014718700000000002               0114718     08041500000000000000000000012N020415000000000000000000000000000000000000000000000000000000000000000111425891000144MHG SERVI«OS ADMINISTRATIVOS EMPRESAS LTAv. Tocantins,1124                                  74075100Protesto apÛs 5 dias                                        000083
1                   000902692011248461-14719                  0000000000000014719500000000002               0114719     08041500000000500000000000012N020415000000000000001670000000000000000000000000000000000000000000000115872523000103HEITOR PIGHINI BARBADO ME               Rua Senador JosÈ Bonif·cio,312-B                    13800060Protesto apÛs 5 dias                                        000084
1                   000902692011248461-14720                  0000000000000014720900000000002               0114720     08041500000000500000000000012N020415000000000000001670000000000000000000000000000000000000000000000111479061000108ANDRADE SOARES LOPES LTDA               Rua Lehar David,05                                  45000445Protesto apÛs 5 dias                                        000085
1                   000902692011248461-14721                  0000000000000014721700000000002               0114721     08041500000000500000000000012N020415000000000000001670000000000000000000000000000000000000000000000118997889000199CP CAMPO GRANDE INTERMEDIACOES CARTORARIRua Professor Castilhos,431-SL 514                  23045060Protesto apÛs 5 dias                                        000086
1                   000902692011248461-14722                  0000000000000014722500000000002               0114722     08041500000000000000000000012N020415000000000000000000000000000000000000000000000000000000000000000111777632000182CFN ASSESSORIA EM DOCUMENTOS LTDA       R Prefeito Carlos JosÈ Carlson,226-CJ 01            09450000Protesto apÛs 5 dias                                        000087
1                   000902692011248461-14723                  0000000000000014723300000000002               0114723     08041500000001000000000000012N020415000000000000003330000000000000000000000000000000000000000000000115703802000135Assecar Apoio Administrativo de MArilia Rua Carlos Gomes,343                                17501000Protesto apÛs 5 dias                                        000088
1                   000902692011248461-14724                  0000000000000014724100000000002               0114724     08041500000000500000000000012N020415000000000000001670000000000000000000000000000000000000000000000111222886000134ELIDA ASSESSORIA EMPRESARIAL LTDA       R. Neo Alves Martins,2955-Sala 03                   87013060Protesto apÛs 5 dias                                        000089
1                   000902692011248461-14725                  0000000000000014725P00000000002               0114725     08041500000000500000000000012N020415000000000000001670000000000000000000000000000000000000000000000115665799000102OLIVEIRA E PEIXOTO LTDA                 Rua da It·lia,,7-1∫ andar                           45200191Protesto apÛs 5 dias                                        000090
1                   000902692011248461-14726                  0000000000000014726800000000002               0114726     08041500000000006500000000012N020415000000000000000020000000000000000000000000000000000000000000000111834699000101REGIS ORLANDINI ASSESSORIA CARTORARIA LTAv. Jo„o Naves de ¡vila,81                          38400600Protesto apÛs 5 dias                                        000091
1                   000902692011248461-14727                  0000000000000014727600000000002               0114727     08041500000000500000000000012N020415000000000000001670000000000000000000000000000000000000000000000116911487000102L & A INTERMEDIA«’ES CARTOR¡RIAS LTDA   Rua Marechal Deodoro,111                            48005020Protesto apÛs 5 dias                                        000092
1                   000902692011248461-14728                  0000000000000014728400000000002               0114728     12041500000000658800000000012N020415120000000000002200000000000000000000000000000000000000000000000100017683448842LUIS MARTINS NETTO                      Rua J˙lio Ribeiro,243-LOJA 224                      03010030                                                            000093
1                   000902692011248461-14729                  0000000000000014729200000000002               0114729     08041500000000500000000000012N020415000000000000001670000000000000000000000000000000000000000000000119762311000116J. LOPES - ME                           Rua Luso Brasileira,4-44-SL 103                     17016230Protesto apÛs 5 dias                                        000094
1                   000902692011248461-14730                  0000000000000014730600000000002               0114730     08041500000000350000000000012N020415000000000000001170000000000000000000000000000000000000000000000116615091000100MEG INTERMEDIA«√O CARTOR¡RIA            Av. 13,625                                          13500340Protesto apÛs 5 dias                                        000095
1                   000902692011248461-14731                  0000000000000014731400000000002               0114731     08041500000000500000000000012N020415000000000000001670000000000000000000000000000000000000000000000111838860000115M.L. CARDOSO - PRESTA«√O DE SERVI«OS - ERua Luiz Pereira Barreto,304                        16010320Protesto apÛs 5 dias                                        000096
1                   000902692011248461-14732                  0000000000000014732200000000002               0114732     08041500000000200000000000012N020415000000000000000670000000000000000000000000000000000000000000000115696350000101Almeida IntermediaÁ„o cartor·ria LTDA MERua JosÈ Brenha Ribeiro,23                          18130495Protesto apÛs 5 dias                                        000097
1                   000902692011248461-14733                  0000000000000014733000000000002               0114733     08041500000000500000000000012N020415000000000000001670000000000000000000000000000000000000000000000118433773000127MUZETI ASSESSORIA CARTORARIA LTDA ME    Rua 20,1022                                         14780070Protesto apÛs 5 dias                                        000098
1                   000902692011248461-14734                  0000000000000014734900000000002               0114734     08041500000000500000000000012N020415000000000000001670000000000000000000000000000000000000000000000119373945000187MR Sistema de IntermediaÁ„o Cartor·ria LRua 29 de Abril,123                                 13256000Protesto apÛs 5 dias                                        000099
1                   000902692011248461-14735                  0000000000000014735700000000002               0114735     08041500000000500000000000012N020415000000000000001670000000000000000000000000000000000000000000000119450025000115SAITO & SAITO ASSESSORIA E SERVI«OS LTDAAv. Francisco de Paula Leite,1699                   13344325Protesto apÛs 5 dias                                        000100
1                   000902692011248461-14736                  0000000000000014736500000000002               0114736     08041500000000500000000000012N020415000000000000001670000000000000000000000000000000000000000000000115761167000142DOC SERVICE SERVI«OS DOCUMENTAIS LTDA   Rua Marechal Floriano Peixoto,1562-Sala             85851020Protesto apÛs 5 dias                                        000101
1                   000902692011248461-14737                  0000000000000014737300000000002               0114737     08041500000000500000000000012N0204150000000000000016700000000000000000000000000000000000000000000001157926280001442 W V INTERMEDIA«√O CARTOR¡RIA LTDA-ME  Rua Marechal Deodoro,44                             12500210Protesto apÛs 5 dias                                        000102
1                   000902692011248461-14738                  0000000000000014738100000000002               0114738     08041500000000000000000000012N020415000000000000000000000000000000000000000000000000000000000000000112462165000164Viviane Aparecida Henriques - EPP       Rua Rui Barbosa,164                                 19010260Protesto apÛs 5 dias                                        000103
1                   000902692011248461-14739                  0000000000000014739P00000000002               0114739     08041500000000500000000000012N020415000000000000001670000000000000000000000000000000000000000000000112443155000181ASSESSORIA E CONSULTORIA CARTORARIA DE DRua Santa Cruz,652                                  13300090Protesto apÛs 5 dias                                        000104
1                   000902692011248461-14740                  0000000000000014740300000000002               0114740     08041500000000500000000000012N020415000000000000001670000000000000000000000000000000000000000000000115779486000185ANA LIDIA ANDRADE VASCONCELOS CISOTTO - Rua Angelo Gianotti,55-sala 4                       18550000Protesto apÛs 5 dias                                        000105
1                   000902692011248461-14741                  0000000000000014741100000000002               0114741     08041500000001000000000000012N020415000000000000003330000000000000000000000000000000000000000000000116651907000150COTIA CENTRAL - SERVI«OS ADMINISTRATIVOSRua Joaquim Nunes Filho,204                         06717180Protesto apÛs 5 dias                                        000106
1                   000902692011248461-14742                  0000000000000014742P00000000002               0114742     08041500000000500000000000012N020415000000000000001670000000000000000000000000000000000000000000000112632803000148RUBIANA SERVI«OS DE CARTORIO, CERTID’ES Rua das Esmeraldas,186                              09920520Protesto apÛs 5 dias                                        000107
1                   000902692011248461-14743                  0000000000000014743800000000002               0114743     08041500000000500000000000012N020415000000000000001670000000000000000000000000000000000000000000000102248702000114MOURA E MENEZES SERVI«OS ADMINISTRATIVOSRua Dr. Curvelo Cavalcante,189-Loja 101             23810201Protesto apÛs 5 dias                                        000108
1                   000902692011248461-14744                  0000000000000014744600000000002               0114744     08041500000001650000000000012N020415000000000000005500000000000000000000000000000000000000000000000117013577000130RIBEIRO INTERMEDIA«√O CARTOR¡RIA LTDA.  Av. Presidente Marques,1212                         78045008Protesto apÛs 5 dias                                        000109
1                   000902692011248461-14745                  0000000000000014745400000000002               0114745     08041500000000500000000000012N020415000000000000001670000000000000000000000000000000000000000000000111619454000161ASSESSORIA CARTOR¡RIA DO NORDESTE LTDA  Rua AntÙnio de Castro,114-LJ 05                     52070080Protesto apÛs 5 dias                                        000110
1                   000902692011248461-14746                  0000000000000014746200000000002               0114746     08041500000000500000000000012N020415000000000000001670000000000000000000000000000000000000000000000116455215000137MIM Consultoria, Assessoria e IntermediaRua Gal. Bacelar,504                                96200370Protesto apÛs 5 dias                                        000111
1                   000902692011248461-14747                  0000000000000014747000000000002               0114747     08041500000001000000000000012N020415000000000000003330000000000000000000000000000000000000000000000116988183000135MENEZES & AMARAL INTERMEDIA«√O CARTOR¡RIRua Israel Pinheiro,2500-LJ 1                       35020220Protesto apÛs 5 dias                                        000112
1                   000902692011248461-14748                  0000000000000014748900000000002               0114748     08041500000000500000000000012N020415000000000000001670000000000000000000000000000000000000000000000112572498000146Alphacentral Documentos e ServiÁos LTDA Rua Cel. Siqueira de Moraes,125/127                 13201032Protesto apÛs 5 dias                                        000113
1                   000902692011248461-14749                  0000000000000014749700000000002               0114749     08041500000000500000000000012N020415000000000000001670000000000000000000000000000000000000000000000117163022000175DEFTHJ CONSULTORIA E ASSESSORIA CARTOR¡RR. Pedro ProcÛpio,48                                06501130Protesto apÛs 5 dias                                        000114
1                   000902692011248461-14750                  0000000000000014750000000000002               0114750     08041500000000500000000000012N020415000000000000001670000000000000000000000000000000000000000000000121117773000122JR CONSULTORIA INTERMEDIACAO CARTORARIA Rua Visconde de Sepetiba,935-SL 625                 24020206Protesto apÛs 5 dias                                        000115
1                   000902692011248461-14751                  0000000000000014751900000000002               0114751     08041500000000500000000000012N020415000000000000001670000000000000000000000000000000000000000000000116943517000154SOUZA SERVI«OS DE DOCUMENTOS S/S LTDA EPR. Coronel Aureliano de Camargo,666                 18270170Protesto apÛs 5 dias                                        000116
1                   000902692011248461-14752                  0000000000000014752700000000002               0114752     08041500000000299750000000012N020415000000000000001000000000000000000000000000000000000000000000000112139078000170RW MARIZ ESTRUTURA CARTORAL LTDA        Av Epit·cio Pessoa,475-Sala 05                      58030906Protesto apÛs 5 dias                                        000117
1                   000902692011248461-14753                  0000000000000014753500000000002               0114753     08041500000001000000000000012N020415000000000000003330000000000000000000000000000000000000000000000117206713000109FABIO TOMAZ CARDOSO - ME                Rua Primeiro de Maio,202-SL 507                     09015030Protesto apÛs 5 dias                                        000118
1                   000902692011248461-14754                  0000000000000014754300000000002               0114754     08041500000001200000000000012N020415000000000000004000000000000000000000000000000000000000000000000113133167000172G I CART SERVI«OS ORGANIZACIONAIS LTDA  Rua dos Marianos,132                                06016050Protesto apÛs 5 dias                                        000119
1                   000902692011248461-14755                  0000000000000014755100000000002               0114755     08041500000000500000000000012N020415000000000000001670000000000000000000000000000000000000000000000120175159000154MARGARETE DOS SANTOS ñ MEI              Rua Santos Dumont,123                               38183187Protesto apÛs 5 dias                                        000120
1                   000902692011248461-14756                  0000000000000014756P00000000002               0114756     08041500000000000000000000012N020415000000000000000000000000000000000000000000000000000000000000000113287999000143ASSESSORIA CARTOR¡RIA P¡DUA LTDA        Rua Tiradentes,112-SL 201                           28300000Protesto apÛs 5 dias                                        000121
1                   000902692011248461-14757                  0000000000000014757800000000002               0114757     08041500000000500000000000012N020415000000000000001670000000000000000000000000000000000000000000000116899904000130E. F. AURELIA NEGOCIOS E INTERMEDIA«√O CRua Liberdade,596                                   06853700Protesto apÛs 5 dias                                        000122
1                   000902692011248461-14758                  0000000000000014758600000000002               0114758     08041500000000000000000000012N020415000000000000000000000000000000000000000000000000000000000000000113913099000164ERM ServiÁos Administrativos LTDA       Rua 7 de Setembro,1315                              89010203Protesto apÛs 5 dias                                        000123
1                   000902692011248461-14759                  0000000000000014759400000000002               0114759     08041500000000500000000000012N020415000000000000001670000000000000000000000000000000000000000000000116949930000126CIRENO FILHO INTERMEDIA«√O CARTORARIA   Rua Carlos Eduardo Nichele,1382-LJ01                83833022Protesto apÛs 5 dias                                        000124
1                   000902692011248461-14760                  0000000000000014760800000000002               0114760     08041500000000500000000000012N020415000000000000001670000000000000000000000000000000000000000000000113321680000197Ana Claudia Barbiere Alves Ferreira - MEAv. Brasil,326                                      14801050Protesto apÛs 5 dias                                        000125
1                   000902692011248461-14761                  0000000000000014761600000000002               0114761     08041500000000500000000000012N020415000000000000001670000000000000000000000000000000000000000000000116811847000196TOLEDO & PEREIRA VASSALO LTDA ME        Rua Santos Pereira,212                              37500026Protesto apÛs 5 dias                                        000126
1                   000902692011248461-14762                  0000000000000014762400000000002               0114762     08041500000000000000000000012N020415000000000000000000000000000000000000000000000000000000000000000117655488000198KAEL INTERMEDIA«’ES CARTOR¡RIAS LTDA ME Av. Monte Castelo,720                               13450032Protesto apÛs 5 dias                                        000127
1                   000902692011248461-14763                  0000000000000014763200000000002               0114763     08041500000001000000000000012N020415000000000000003330000000000000000000000000000000000000000000000116819238000183CARLOS ALBERTO ROCHA DE MELO - ME       R. HermÛgenes Freire da Costa,02-LJ 05              28940000Protesto apÛs 5 dias                                        000128
1                   000902692011248461-14764                  0000000000000014764000000000002               0114764     08041500000000017500000000012N020415000000000000000060000000000000000000000000000000000000000000000113350598000190CP SERVI«OS ADMINISTRATIVO LTDA - ME    Rua Arnaldo Estev„o de Figueiredo,640               78700150Protesto apÛs 5 dias                                        000129
1                   000902692011248461-14765                  0000000000000014765900000000002               0114765     08041500000000500000000000012N020415000000000000001670000000000000000000000000000000000000000000000116945793000151JLM INTERMEDIA«√O CARTOR¡RIA LTDA       Av. Tiradentes,618-LJ 03                            36307348Protesto apÛs 5 dias                                        000130
1                   000902692011248461-14766                  0000000000000014766700000000002               0114766     08041500000000012750000000012N020415000000000000000040000000000000000000000000000000000000000000000113585685000127ASSESSORIA CARTOR¡RIA LIMEIRA LTDA ME   Rua Deputado Octavio Lopes,304 B                    13480021Protesto apÛs 5 dias                                        000131
1                   000902692011248461-14767                  0000000000000014767500000000002               0114767     08041500000001750000000000012N020415000000000000005830000000000000000000000000000000000000000000000116927836000176C. M. MILROT CONSULTORIA E INTERMEDIA«√OAl. Ribeir„o Preto,551-SL 24                        01331001Protesto apÛs 5 dias                                        000132
1                   000902692011248461-14768                  0000000000000014768300000000002               0114768     08041500000000114380000000012N020415000000000000000380000000000000000000000000000000000000000000000113406670000154RODRIGUES E VIEIRA LTDA.                104 SUL RUA SE 05 LOTE 23 | AC JK CAIXA             77006970Protesto apÛs 5 dias                                        000133
1                   000902692011248461-14769                  0000000000000014769100000000002               0114769     08041500000001000000000000012N020415000000000000003330000000000000000000000000000000000000000000000116935668000160FLASH DOC INTERMEDIA«’ES CARTORARIAS    Av. Caetano Barrela,209                             06763460Protesto apÛs 5 dias                                        000134
1                   000902692011248461-14770                  0000000000000014770500000000002               0114770     08041500000000350000000000012N020415000000000000001170000000000000000000000000000000000000000000000113743219000122Valentim e Silva ServiÁos               PraÁa AntÙnio Dias,584                              38700110Protesto apÛs 5 dias                                        000135
1                   000902692011248461-14771                  0000000000000014771300000000002               0114771     08041500000001100000000000012N020415000000000000003670000000000000000000000000000000000000000000000117829100000128JS & BOIM INTERMEDIA«√O CARTOR¡RIA LTDA Rua Tabatinguera,140-SL 409 e 410                   01020000Protesto apÛs 5 dias                                        000136
1                   000902692011248461-14772                  0000000000000014772100000000002               0114772     08041500000000300000000000012N020415000000000000001000000000000000000000000000000000000000000000000113433192000171CONSULT SERVICE ASSESSORIA CARTOR¡RIA LTRua Episcopal,1714-Loja 02                          13560570Protesto apÛs 5 dias                                        000137
1                   000902692011248461-14773                  0000000000000014773P00000000002               0114773     12041500000000498600000000012N020415120000000000001660000000000000000000000000000000000000000000000205888414000112CREA«’ES MX FASHION LIMITADA            Rua AimorÈs - lado par,210                          01122010                                                            000138
1                   000902692011248461-14774                  0000000000000014774800000000002               0114774     08041500000001000000000000012N020415000000000000003330000000000000000000000000000000000000000000000112587280000165RTC INTERMEDIA«√O CARTOR¡RIA LTDA - ME  Rua Montenegro,171 A                                11410040Protesto apÛs 5 dias                                        000139
1                   000902692011248461-14775                  0000000000000014775600000000002               0114775     08041500000000018940000000012N020415000000000000000060000000000000000000000000000000000000000000000113576355000175LEME ASSESSORIA E CONSULTORIA DE DOCUMENRua Prudente de Moraes,933                          13320160Protesto apÛs 5 dias                                        000140
1                   000902692011248461-14776                  0000000000000014776400000000002               0114776     08041500000000500000000000012N020415000000000000001670000000000000000000000000000000000000000000000116729531000150GOMES VERAS INTERMEDIA«√O CARTOR¡RIA LTDRua Maranh„o,763-Sala 17 R                          65901590Protesto apÛs 5 dias                                        000141
1                   000902692011248461-14777                  0000000000000014777200000000002               0114777     08041500000000000000000000012N020415000000000000000000000000000000000000000000000000000000000000000114495115000109MSC ASSESSORIA E CONSULTORIA CARTORARIA Rua Duque de Caxias,161                             06401010Protesto apÛs 5 dias                                        000142
1                   000902692011248461-14778                  0000000000000014778000000000002               0114778     08041500000002000000000000012N020415000000000000006670000000000000000000000000000000000000000000000116970183000108NR INTERMEDIA«√O CARTOR¡RIA LTDA        Av. Dom Luis,500-Piso L0, Loja 38, Shopp            60160196Protesto apÛs 5 dias                                        000143
1                   000902692011248461-14779                  0000000000000014779900000000002               0114779     08041500000000500000000000012N020415000000000000001670000000000000000000000000000000000000000000000113845551000106MACEDO & MELO INTERMEDIACOES CARTORARIASRUA LIZANDRO NOGUEIRA,1223-SALA 304                 64000200Protesto apÛs 5 dias                                        000144
1                   000902692011248461-14780                  0000000000000014780200000000002               0114780     08041500000000500000000000012N020415000000000000001670000000000000000000000000000000000000000000000117103695000210Vale Rio - IntermediaÁ„o Cartor·ria LtdaRua do ParaÌso,97-SL 29                             48903050Protesto apÛs 5 dias                                        000145
1                   000902692011248461-14781                  0000000000000014781000000000002               0114781     08041500000000000000000000012N020415000000000000000000000000000000000000000000000000000000000000000113800899000179TEIXEIRA CARREIRO INTERMEDIACAO CARTORARRua Alan Kardec,50-SL 712                           27541290Protesto apÛs 5 dias                                        000146
1                   000902692011248461-14782                  0000000000000014782900000000002               0114782     08041500000000500000000000012N020415000000000000001670000000000000000000000000000000000000000000000117103695000130VALE RIO - INTERMEDIA«√O CARTOR¡RIA LTDAPraÁa Pio XII,290-2∫ Andar, SL 01                   56304430Protesto apÛs 5 dias                                        000147
1                   000902692011248461-14783                  0000000000000014783700000000002               0114783     08041500000000500000000000012N020415000000000000001670000000000000000000000000000000000000000000000114142222000153Araujo Oliveira Assessoria Cartoraria LTAv. Radial B,60-LJ 02                               42807380Protesto apÛs 5 dias                                        000148
1                   000902692011248461-14784                  0000000000000014784500000000002               0114784     08041500000001000000000000012N020415000000000000003330000000000000000000000000000000000000000000000117488037000103LG INTERMEDIA«√O CARTOR¡RIA LTDA ME     Rua Rafael Nascimento,300 C                         75901290Protesto apÛs 5 dias                                        000149
1                   000902692011248461-14785                  0000000000000014785300000000002               0114785     08041500000000000000000000012N020415000000000000000000000000000000000000000000000000000000000000000114041706000106HMR - EXPRESS DOCUMENTOS LTDA - ME      Rua Daniel de Oliveira Carvalho,253                 13660000Protesto apÛs 5 dias                                        000150
1                   000902692011248461-14786                  0000000000000014786100000000002               0114786     08041500000000500000000000012N020415000000000000001670000000000000000000000000000000000000000000000117197147000116POSTCAR INTERMEDIA«√O CARTOR¡RIA LTDA   Rua Amaro Genari,40-Sala 33                         09810270Protesto apÛs 5 dias                                        000151
1                   000902692011248461-14787                  0000000000000014787P00000000002               0114787     08041500000000000000000000012N020415000000000000000000000000000000000000000000000000000000000000000116806807000156M MARRAS SERVICOS E EVENTOS LTDA - ME   Rua Volunt·rios da Franca,453                       14405103Protesto apÛs 5 dias                                        000152
1                   000902692011248461-14788                  0000000000000014788800000000002               0114788     08041500000000300000000000012N020415000000000000001000000000000000000000000000000000000000000000000117216619000130F E M INTERMEDIA«√O CARTORARIA LTDA ME  Av. Dom Pedro II,135-Sala 22                        37470000Protesto apÛs 5 dias                                        000153
1                   000902692011248461-14789                  0000000000000014789600000000002               0114789     08041500000000500000000000012N020415000000000000001670000000000000000000000000000000000000000000000114456232000163ALVES & UEMURA ASSESSORIA COMERCIAL E INRua Juscelino K. de Oliveira,710-LJ 02              37580000Protesto apÛs 5 dias                                        000154
1                   000902692011248461-14790                  0000000000000014790P00000000002               0114790     08041500000000318600000000012N020415000000000000001060000000000000000000000000000000000000000000000111029315000188SUZAN CART CERTIDOES LTDA - ME          Rua Gal. Francisco GlicÈrio,1185                    08674003Protesto apÛs 5 dias                                        000155
1                   000902692011248461-14791                  0000000000000014791800000000002               0114791     08041500000000500000000000012N020415000000000000001670000000000000000000000000000000000000000000000112762841000115SM GERENCIAMENTO DE CERTID’ES E DOCUMENTRua 18,81                                           76380000Protesto apÛs 5 dias                                        000156
1                   000902692011248461-14792                  0000000000000014792600000000002               0114792     08041500000000500000000000012N020415000000000000001670000000000000000000000000000000000000000000000111834699000292REGIS ORLANDINI ASSESSORIA CARTOR¡RIA EPPraÁa Manoel Bonito,65                              38440076Protesto apÛs 5 dias                                        000157
1                   000902692011248461-14793                  0000000000000014793400000000002               0114793     08041500000000295000000000012N020415000000000000000980000000000000000000000000000000000000000000000111163439000151RF-SERVICOS DE DOCUMENTACAO LTDA.       Av. Mal. Castelo Branco,173-A                       65076090Protesto apÛs 5 dias                                        000158
1                   000902692011248461-14794                  0000000000000014794200000000002               0114794     08041500000000500000000000012N020415000000000000001670000000000000000000000000000000000000000000000118325368000195FERREIRA CAMPOS CONSULTORIA E INTERMEDIARua Joaquim Manuel,248                              46430000Protesto apÛs 5 dias                                        000159
1                   000902692011248461-14795                  0000000000000014795000000000002               0114795     08041500000000500000000000012N020415000000000000001670000000000000000000000000000000000000000000000115003436000101Via R·pida IntermediaÁ„o Cartor·ria LTDARua Vereador Juca Pena,10                           36400000Protesto apÛs 5 dias                                        000160
1                   000902692011248461-14796                  0000000000000014796900000000002               0114796     08041500000001000000000000012N020415000000000000003330000000000000000000000000000000000000000000000110999668000148ASSESSORIA E CONSULTORIA DE DOCUMENTOS ER. Leopoldo Machado,242-Loja 02                     18035075Protesto apÛs 5 dias                                        000161
1                   000902692011248461-14797                  0000000000000014797700000000002               0114797     08041500000001500000000000012N020415000000000000005000000000000000000000000000000000000000000000000117234137000103Postal Services - Assessoria e ServiÁos PÁ das Orquideas,186-SL 04 | 1∫ Andar               06453002Protesto apÛs 5 dias                                        000162
1                   000902692011248461-14798                  0000000000000014798500000000002               0114798     08041500000000500000000000012N020415000000000000001670000000000000000000000000000000000000000000000114467333000130Sirley Santos Niemic - ME               Av. Municipal,1779 A                                78250000Protesto apÛs 5 dias                                        000163
1                   000902692011248461-14799                  0000000000000014799300000000002               0114799     08041500000001300000000000012N020415000000000000004330000000000000000000000000000000000000000000000111165549000152D¥ VASQUEZ SERVI«OS CARTORARIOS LTDA - EAv. Dr. Jo„o Guilhermino,293                        12210131Protesto apÛs 5 dias                                        000164
1                   000902692011248461-14800                  0000000000000014800000000000002               0114800     08041500000000500000000000012N020415000000000000001670000000000000000000000000000000000000000000000117344439000134Carneiro e Santana IntermediaÁ„o Cartor·Rua Brasil,210-SALA A                               19800100Protesto apÛs 5 dias                                        000165
1                   000902692011248461-14801                  0000000000000014801900000000002               0114801     08041500000000500000000000012N020415000000000000001670000000000000000000000000000000000000000000000114567761000134ABEN INTERMEDIACAO CARTORARIA LTDA ME   Av. Leopoldino de Oliveira,4464-Ed. Diam            38060000Protesto apÛs 5 dias                                        000166
1                   000902692011248461-14802                  0000000000000014802700000000002               0114802     08041500000001000000000000012N020415000000000000003330000000000000000000000000000000000000000000000111144435000126DOCK STATION INTERMEDIA«√O CARTOR¡RIA LTRua da Quitanda,20-4∫ andar ñ Sala 401              20011972Protesto apÛs 5 dias                                        000167
1                   000902692011248461-14803                  0000000000000014803500000000002               0114803     08041500000000500000000000012N020415000000000000001670000000000000000000000000000000000000000000000117474125000156MAGAVIX INTERMEDIA«√O E LOGISTICA DE DISRua Amap·,1777                                      87704070Protesto apÛs 5 dias                                        000168
1                   000902692011248461-14804                  0000000000000014804300000000002               0114804     08041500000000500000000000012N020415000000000000001670000000000000000000000000000000000000000000000114547088000170SPEED FOX ASSESSORIA CARTORARIA LTDA ME Rua General Dionisio,410-LOJA                       25075095Protesto apÛs 5 dias                                        000169
1                   000902692011248461-14805                  0000000000000014805100000000002               0114805     08041500000001000000000000012N020415000000000000003330000000000000000000000000000000000000000000000114816778000188Oliveira IntermediaÁ„o Cartor·ria LTDA MRua Delfino Cintra,500 AxB                          13020100Protesto apÛs 5 dias                                        000170
1                   000902692011248461-14806                  0000000000000014806P00000000002               0114806     08041500000000500000000000012N020415000000000000001670000000000000000000000000000000000000000000000118726605000120OLIVEIRA CECHET INTERMEDIA«√O CARTOR¡RIARua Cleriston Andrade,132-QD 23 LT 03 SL            47850000Protesto apÛs 5 dias                                        000171
1                   000902692011248461-14807                  0000000000000014807800000000002               0114807     08041500000000000000000000012N020415000000000000000000000000000000000000000000000000000000000000000114911193000147LOPES E LOPES INTERMEDIA√á√ÉO CARTOR√ÅRIRua Marechal Deodoro,444-loja 322                   36010904Protesto apÛs 5 dias                                        000172
1                   000902692011248461-14808                  0000000000000014808600000000002               0114808     08041500000000500000000000012N020415000000000000001670000000000000000000000000000000000000000000000111253279000131¡GAPE SERVI«OS E INTERMEDIA«’ES CARTOR¡RR. Gov. Pedro de Toledo,569                         13400070Protesto apÛs 5 dias                                        000173
1                   000902692011248461-14809                  0000000000000014809400000000002               0114809     08041500000000500000000000012N020415000000000000001670000000000000000000000000000000000000000000000117569606000145RP SERVI«OS CARTORARIOS LTDA            Av. Santos Dumont,3257-Comercial MM501 L            42700000Protesto apÛs 5 dias                                        000174
1                   000902692011248461-14810                  0000000000000014810800000000002               0114810     08041500000000400000000000012N020415000000000000001330000000000000000000000000000000000000000000000115220454000226RENAULT ASSOCIADOS INTERMEDIACOES CARTORRua Benedito Valadares,520-LJ 03                    35660630Protesto apÛs 5 dias                                        000175
1                   000902692011248461-14811                  0000000000000014811600000000002               0114811     08041500000001000000000000012N020415000000000000003330000000000000000000000000000000000000000000000106058057000128CTPOST SERVI«OS LTDA ME                 R. Chaves Barcelos,131                              90030120Protesto apÛs 5 dias                                        000176
1                   000902692011248461-14812                  0000000000000014812400000000002               0114812     08041500000000500000000000012N020415000000000000001670000000000000000000000000000000000000000000000118532030000104ASSESSORIA POSTAL LTDA - ME             Rua 22,1225                                         38300076Protesto apÛs 5 dias                                        000177
1                   000902692011248461-14813                  0000000000000014813200000000002               0114813     08041500000000500000000000012N020415000000000000001670000000000000000000000000000000000000000000000120019555000192SERV MASTER SERVICOS E LOGISTICA LTDA ñMRua Bar„o do Rio Branco,1089                        16200001Protesto apÛs 5 dias                                        000178
1                   000902692011248461-14814                  0000000000000014814000000000002               0114814     08041500000000000000000000012N020415000000000000000000000000000000000000000000000000000000000000000113238744000190ARCHANJO TEIXEIRA PREPARA«√O DE DOCUMENTAv. Brasil,1586-Loja 06                             30140003Protesto apÛs 5 dias                                        000179
1                   000902692011248461-14815                  0000000000000014815900000000002               0114815     08041500000000600000000000012N020415000000000000002000000000000000000000000000000000000000000000000109532074000143OTTIMIZA ASSESSORIA CARTORARIA LTDA - MERua Raimundo Chaves,1584                            59064390Protesto apÛs 5 dias                                        000180
1                   000902692011248461-14816                  0000000000000014816700000000002               0114816     08041500000001000000000000012N020415000000000000003330000000000000000000000000000000000000000000000115447264000165CAMPDOC INTERMEDIA«√O CARTOR¡RIA LTDA ñ Av. Carlos de Ara˙jo Gobbi,325                      13034670Protesto apÛs 5 dias                                        000181
1                   000902692011248461-14817                  0000000000000014817500000000002               0114817     08041500000000000000000000012N020415000000000000000000000000000000000000000000000000000000000000000112761154000185MC PRESTADORA DE SERVI«OS ADMINISTRATIVORua Marechal JosÈ B. Bormann,164 E-Sala             89802120Protesto apÛs 5 dias                                        000182
1                   000902692011248461-14818                  0000000000000014818300000000002               0114818     08041500000000500000000000012N020415000000000000001670000000000000000000000000000000000000000000000118275563000158FEITOZA SERVI«OS POSTAL LTDA            Rua AntÙnio Guimar„es,604                           65631100Protesto apÛs 5 dias                                        000183
1                   000902692011248461-14819                  0000000000000014819100000000002               0114819     08041500000000000000000000012N020415000000000000000000000000000000000000000000000000000000000000000115425969000181JKIM SERVI«OS E INTERMEDIA«√O LTDA      Rua A,501-QD 08 LT 05                               68515000Protesto apÛs 5 dias                                        000184
1                   000902692011248461-14820                  0000000000000014820500000000002               0114820     08041500000000500000000000012N020415000000000000001670000000000000000000000000000000000000000000000111675298000156MORANDO & MORANDO SERV TRANSCRI«√O DOCUMRua TibiriÁ·,189                                    14010090Protesto apÛs 5 dias                                        000185
1                   000902692011248461-14821                  0000000000000014821300000000002               0114821     08041500000000500000000000012N020415000000000000001670000000000000000000000000000000000000000000000117497344000150VAP POSTAL INTERMEDIA«√O CARTOR¡RIA LTDARua Teodorico Tourinho,304                          39800010Protesto apÛs 5 dias                                        000186
1                   000902692011248461-14822                  0000000000000014822100000000002               0114822     08041500000000500000000000012N020415000000000000001670000000000000000000000000000000000000000000000120603641000148GUARAPARI SERVICOS CARTORARIOS LTDA - MERua Roberto Calmon,140                              29200340Protesto apÛs 5 dias                                        000187
1                   000902692011248461-14823                  0000000000000014823P00000000002               0114823     08041500000000000000000000012N020415000000000000000000000000000000000000000000000000000000000000000113329559000101FACIL SERVICOS ADMINISTRATIVOS LTDA ME  Av. das Emba˙bas,952                                78550222Protesto apÛs 5 dias                                        000188
1                   000902692011248461-14824                  0000000000000014824800000000002               0114824     08041500000000500000000000012N020415000000000000001670000000000000000000000000000000000000000000000113622593000170Moraes & Vessoni Serv. e Ass. CartorariaRua Paran·,629                                      19900021Protesto apÛs 5 dias                                        000189
1                   000902692011248461-14825                  0000000000000014825600000000002               0114825     08041500000000500000000000012N020415000000000000001670000000000000000000000000000000000000000000000115328775000168Bagini e Okumura IntermediaÁıes Cartor·rRua Laurindo Borges,1494                            87303240Protesto apÛs 5 dias                                        000190
1                   000902692011248461-14826                  0000000000000014826400000000002               0114826     08041500000000027250000000012N020415000000000000000090000000000000000000000000000000000000000000000111564744000155SARAIVA¥S CONSULTORIA EMPRESARIAL LTDA  Rua Prefeito JosÈ Santana Trigueiro,183             32604188Protesto apÛs 5 dias                                        000191
1                   000902692011248461-14827                  0000000000000014827200000000002               0114827     08041500000000500000000000012N020415000000000000001670000000000000000000000000000000000000000000000121728568000101AndrÈ Luis Calderero Batista Pereira    Rua Vanor Junqueira Franco,300-Fundos               14701010Protesto apÛs 5 dias                                        000192
1                   000902692011248461-14828                  0000000000000014828000000000002               0114828     08041500000000500000000000012N020415000000000000001670000000000000000000000000000000000000000000000115523647000175TGD ASSESSORIA E CONSULTORIA LTDA       Rua Coronel Antonio Cardoso Pinto,34 A              37640000Protesto apÛs 5 dias                                        000193
1                   000902692011248461-14829                  0000000000000014829900000000002               0114829     08041500000000000000000000012N020415000000000000000000000000000000000000000000000000000000000000000111425891000144MHG SERVI«OS ADMINISTRATIVOS EMPRESAS LTAv. Tocantins,1124                                  74075100Protesto apÛs 5 dias                                        000194
1                   000902692011248461-14830                  0000000000000014830200000000002               0114830     08041500000000000000000000012N020415000000000000000000000000000000000000000000000000000000000000000100000000000000FACILE ¿ FAIRE                          Rue HonorÈ Longtin,4-1090                           00000000Protesto apÛs 5 dias                                        000195
1                   000902692011248461-14831                  0000000000000014831000000000002               0114831     08041500000000500000000000012N020415000000000000001670000000000000000000000000000000000000000000000116465255000160Tocantins IntermediaÁ„o Cartor·ria LTDA-RUA RODOVI¡RIA,193-SALA 01                          77805040Protesto apÛs 5 dias                                        000196
1                   000902692011248461-14832                  0000000000000014832900000000002               0114832     08041500000000500000000000012N020415000000000000001670000000000000000000000000000000000000000000000111479061000108ANDRADE SOARES LOPES LTDA               Rua Lehar David,05                                  45000445Protesto apÛs 5 dias                                        000197
1                   000902692011248461-14833                  0000000000000014833700000000002               0114833     08041500000000700000000000012N020415000000000000002330000000000000000000000000000000000000000000000117966691000185GERENCIAMENTO DE CERTIDOES E DOCUMENTOS Rua Cincinato Pinto,297-SL 105                      57020670Protesto apÛs 5 dias                                        000198
1                   000902692011248461-14834                  0000000000000014834500000000002               0114834     08041500000000500000000000012N020415000000000000001670000000000000000000000000000000000000000000000115731322000188MEIRELES SERVI«OS DE APOIO ADMINISTRATIVRua JosÈ Marcelino de Oliveira,374-BAIXO            67030170Protesto apÛs 5 dias                                        000199
1                   000902692011248461-14835                  0000000000000014835300000000002               0114835     08041500000000000000000000012N020415000000000000000000000000000000000000000000000000000000000000000111777632000182CFN ASSESSORIA EM DOCUMENTOS LTDA       R Prefeito Carlos JosÈ Carlson,226-CJ 01            09450000Protesto apÛs 5 dias                                        000200
1                   000902692011248461-14836                  0000000000000014836100000000002               0114836     08041500000000350000000000012N020415000000000000001170000000000000000000000000000000000000000000000117882102000180JK INTERMEDIA«’ES CARTOR¡RIAS           Av. Francisco Monteiro,95                           09400310Protesto apÛs 5 dias                                        000201
1                   000902692011248461-14837                  0000000000000014837P00000000002               0114837     08041500000001000000000000012N020415000000000000003330000000000000000000000000000000000000000000000115803475000193PEDRO, BASTOS & JONES SERVI«OS ASMINISTRRua Duque de Caxias,01-SL 31                        28613060Protesto apÛs 5 dias                                        000202
1                   000902692011248461-14838                  0000000000000014838800000000002               0114838     08041500000000500000000000012N020415000000000000001670000000000000000000000000000000000000000000000111222886000134ELIDA ASSESSORIA EMPRESARIAL LTDA       R. Neo Alves Martins,2955-Sala 03                   87013060Protesto apÛs 5 dias                                        000203
1                   000902692011248461-14839                  0000000000000014839600000000002               0114839     08041500000000350000000000012N020415000000000000001170000000000000000000000000000000000000000000000118268113000138LINS E SILVA INTERMEDIA«’ES CARTOR¡RIAS Rua Visconde de Campo Alegre,149-1∫ Anda            54505370Protesto apÛs 5 dias                                        000204
1                   000902692011248461-14840                  0000000000000014840P00000000002               0114840     08041500000000500000000000012N020415000000000000001670000000000000000000000000000000000000000000000115872523000103HEITOR PIGHINI BARBADO ME               Rua Senador JosÈ Bonif·cio,312-B                    13800060Protesto apÛs 5 dias                                        000205
1                   000902692011248461-14841                  0000000000000014841800000000002               0114841     08041500000000006500000000012N020415000000000000000020000000000000000000000000000000000000000000000111834699000101REGIS ORLANDINI ASSESSORIA CARTORARIA LTAv. Jo„o Naves de ¡vila,81                          38400600Protesto apÛs 5 dias                                        000206
1                   000902692011248461-14842                  0000000000000014842600000000002               0114842     08041500000000500000000000012N020415000000000000001670000000000000000000000000000000000000000000000120794197000195ANH SERVI«OS CARTOR¡RIOS E DOCUMENTAIS LRua AntÙnio Teles de Menezes,41-SL 407              25520630Protesto apÛs 5 dias                                        000207
1                   000902692011248461-14843                  0000000000000014843400000000002               0114843     08041500000000500000000000012N020415000000000000001670000000000000000000000000000000000000000000000118997889000199CP CAMPO GRANDE INTERMEDIACOES CARTORARIRua Professor Castilhos,431-SL 514                  23045060Protesto apÛs 5 dias                                        000208
1                   000902692011248461-14844                  0000000000000014844200000000002               0114844     08041500000000500000000000012N020415000000000000001670000000000000000000000000000000000000000000000119762311000116J. LOPES - ME                           Rua Luso Brasileira,4-44-SL 103                     17016230Protesto apÛs 5 dias                                        000209
1                   000902692011248461-14845                  0000000000000014845000000000002               0114845     08041500000001000000000000012N020415000000000000003330000000000000000000000000000000000000000000000118133083000152MALTAURO BEZERRA CONSULTORIA E INTERMEDIAv. Tancredo Neves,1485-SL 408 | Ed. Esp            41820021Protesto apÛs 5 dias                                        000210
1                   000902692011248461-14846                  0000000000000014846900000000002               0114846     08041500000001000000000000012N020415000000000000003330000000000000000000000000000000000000000000000115703802000135Assecar Apoio Administrativo de MArilia Rua Carlos Gomes,343                                17501000Protesto apÛs 5 dias                                        000211
1                   000902692011248461-14847                  0000000000000014847700000000002               0114847     08041500000000500000000000012N020415000000000000001670000000000000000000000000000000000000000000000111838860000115M.L. CARDOSO - PRESTA«√O DE SERVI«OS - ERua Luiz Pereira Barreto,304                        16010320Protesto apÛs 5 dias                                        000212
1                   000902692011248461-14848                  0000000000000014848500000000002               0114848     08041500000000750000000000012N020415000000000000002500000000000000000000000000000000000000000000000118384480000105INTERMEDIA«√O CARTOR¡RIA INTERLAGOS LTDAAv. Nossa Senhora do Sabar·,1687                    04685004Protesto apÛs 5 dias                                        000213
1                   000902692011248461-14849                  0000000000000014849300000000002               0114849     08041500000000500000000000012N020415000000000000001670000000000000000000000000000000000000000000000115665799000102OLIVEIRA E PEIXOTO LTDA                 Rua da It·lia,,7-1∫ andar                           45200191Protesto apÛs 5 dias                                        000214
1                   000902692011248461-14850                  0000000000000014850700000000002               0114850     08041500000000500000000000012N020415000000000000001670000000000000000000000000000000000000000000000118433773000127MUZETI ASSESSORIA CARTORARIA LTDA ME    Rua 20,1022                                         14780070Protesto apÛs 5 dias                                        000215
1                   000902692011248461-14851                  0000000000000014851500000000002               0114851     08041500000000500000000000012N020415000000000000001670000000000000000000000000000000000000000000000118209597000144T A Mendes ServiÁos Administrativos - MERua Visconde do Rio Branco,128                      13600080Protesto apÛs 5 dias                                        000216
1                   000902692011248461-14852                  0000000000000014852300000000002               0114852     08041500000000500000000000012N020415000000000000001670000000000000000000000000000000000000000000000116911487000102L & A INTERMEDIA«’ES CARTOR¡RIAS LTDA   Rua Marechal Deodoro,111                            48005020Protesto apÛs 5 dias                                        000217
1                   000902692011248461-14853                  0000000000000014853100000000002               0114853     08041500000000500000000000012N020415000000000000001670000000000000000000000000000000000000000000000119450025000115SAITO & SAITO ASSESSORIA E SERVI«OS LTDAAv. Francisco de Paula Leite,1699                   13344325Protesto apÛs 5 dias                                        000218
1                   000902692011248461-14854                  0000000000000014854P00000000002               0114854     08041500000000000000000000012N020415000000000000000000000000000000000000000000000000000000000000000100000008684515LILIAN FITZPATRICK LIMITED              17 Oak House,W10 4DZ                                0W10 4DZProtesto apÛs 5 dias                                        000219
1                   000902692011248461-14855                  0000000000000014855800000000002               0114855     08041500000000350000000000012N020415000000000000001170000000000000000000000000000000000000000000000116615091000100MEG INTERMEDIA«√O CARTOR¡RIA            Av. 13,625                                          13500340Protesto apÛs 5 dias                                        000220
1                   000902692011248461-14856                  0000000000000014856600000000002               0114856     08041500000000000000000000012N020415000000000000000000000000000000000000000000000000000000000000000112462165000164Viviane Aparecida Henriques - EPP       Rua Rui Barbosa,164                                 19010260Protesto apÛs 5 dias                                        000221
1                   000902692011248461-14857                  0000000000000014857400000000002               0114857     08041500000000500000000000012N020415000000000000001670000000000000000000000000000000000000000000000118117942000110Rocha OrÁai IntermediaÁ„o Cartor·ria LtdRua dos Leites,69-Sala 118, Galeria PÙr             28470000Protesto apÛs 5 dias                                        000222
1                   000902692011248461-14858                  0000000000000014858200000000002               0114858     08041500000000200000000000012N020415000000000000000670000000000000000000000000000000000000000000000115696350000101Almeida IntermediaÁ„o cartor·ria LTDA MERua JosÈ Brenha Ribeiro,23                          18130495Protesto apÛs 5 dias                                        000223
1                   000902692011248461-14859                  0000000000000014859000000000002               0114859     08041500000000500000000000012N020415000000000000001670000000000000000000000000000000000000000000000112443155000181ASSESSORIA E CONSULTORIA CARTORARIA DE DRua Santa Cruz,652                                  13300090Protesto apÛs 5 dias                                        000224
1                   000902692011248461-14860                  0000000000000014860400000000002               0114860     08041500000000500000000000012N020415000000000000001670000000000000000000000000000000000000000000000118840724000109RM SERVI«OS DE INTERMEDIA«√O CARTOR¡RIA Av. Get˙lio Vargas,44                               48601260Protesto apÛs 5 dias                                        000225
1                   000902692011248461-14861                  0000000000000014861200000000002               0114861     08041500000000500000000000012N020415000000000000001670000000000000000000000000000000000000000000000119373945000187MR Sistema de IntermediaÁ„o Cartor·ria LRua 29 de Abril,123                                 13256000Protesto apÛs 5 dias                                        000226
1                   000902692011248461-14862                  0000000000000014862000000000002               0114862     08041500000000500000000000012N020415000000000000001670000000000000000000000000000000000000000000000112632803000148RUBIANA SERVI«OS DE CARTORIO, CERTID’ES Rua das Esmeraldas,186                              09920520Protesto apÛs 5 dias                                        000227
1                   000902692011248461-14863                  0000000000000014863900000000002               0114863     08041500000001500000000000012N020415000000000000005000000000000000000000000000000000000000000000000118379292000180DOCUMENTUM BRASILIA LTDA - ME           CLN 316-BL E, LJ 06                                 70775550Protesto apÛs 5 dias                                        000228
1                   000902692011248461-14864                  0000000000000014864700000000002               0114864     08041500000000500000000000012N020415000000000000001670000000000000000000000000000000000000000000000115761167000142DOC SERVICE SERVI«OS DOCUMENTAIS LTDA   Rua Marechal Floriano Peixoto,1562-Sala             85851020Protesto apÛs 5 dias                                        000229
1                   000902692011248461-14865                  0000000000000014865500000000002               0114865     08041500000000500000000000012N020415000000000000001670000000000000000000000000000000000000000000000102248702000114MOURA E MENEZES SERVI«OS ADMINISTRATIVOSRua Dr. Curvelo Cavalcante,189-Loja 101             23810201Protesto apÛs 5 dias                                        000230
1                   000902692011248461-14866                  0000000000000014866300000000002               0114866     08041500000001000000000000012N020415000000000000003330000000000000000000000000000000000000000000000115007025000194FV RepresentaÁ„o Comercial LTDA         Alameda AbricÛ,1856-LJ 03                           28890254Protesto apÛs 5 dias                                        000231
1                   000902692011248461-14867                  0000000000000014867100000000002               0114867     08041500000000500000000000012N0204150000000000000016700000000000000000000000000000000000000000000001157926280001442 W V INTERMEDIA«√O CARTOR¡RIA LTDA-ME  Rua Marechal Deodoro,44                             12500210Protesto apÛs 5 dias                                        000232
1                   000902692011248461-14868                  0000000000000014868P00000000002               0114868     08041500000000500000000000012N020415000000000000001670000000000000000000000000000000000000000000000111619454000161ASSESSORIA CARTOR¡RIA DO NORDESTE LTDA  Rua AntÙnio de Castro,114-LJ 05                     52070080Protesto apÛs 5 dias                                        000233
1                   000902692011248461-14869                  0000000000000014869800000000002               0114869     08041500000000500000000000012N020415000000000000001670000000000000000000000000000000000000000000000118254685000168CASTELO BRANCO - INTERMEDIA«√O CART”RARIRua do Sol,382-Loja 06 - Centro Empresar            65300000Protesto apÛs 5 dias                                        000234
1                   000902692011248461-14870                  0000000000000014870100000000002               0114870     08041500000000500000000000012N020415000000000000001670000000000000000000000000000000000000000000000115779486000185ANA LIDIA ANDRADE VASCONCELOS CISOTTO - Rua Angelo Gianotti,55-sala 4                       18550000Protesto apÛs 5 dias                                        000235
1                   000902692011248461-14871                  0000000000000014871P00000000002               0114871     08041500000000500000000000012N020415000000000000001670000000000000000000000000000000000000000000000112572498000146Alphacentral Documentos e ServiÁos LTDA Rua Cel. Siqueira de Moraes,125/127                 13201032Protesto apÛs 5 dias                                        000236
1                   000902692011248461-14872                  0000000000000014872800000000002               0114872     08041500000000500000000000012N020415000000000000001670000000000000000000000000000000000000000000000118354262000110BOFF E MULLER INTERMEDIA«√O CARTOR¡RIA LAv. J˙lio de Castilhos,1340-SL 05 - Cent            95010003Protesto apÛs 5 dias                                        000237
1                   000902692011248461-14873                  0000000000000014873600000000002               0114873     08041500000001000000000000012N020415000000000000003330000000000000000000000000000000000000000000000116651907000150COTIA CENTRAL - SERVI«OS ADMINISTRATIVOSRua Joaquim Nunes Filho,204                         06717180Protesto apÛs 5 dias                                        000238
1                   000902692011248461-14874                  0000000000000014874400000000002               0114874     08041500000000500000000000012N020415000000000000001670000000000000000000000000000000000000000000000121117773000122JR CONSULTORIA INTERMEDIACAO CARTORARIA Rua Visconde de Sepetiba,935-SL 625                 24020206Protesto apÛs 5 dias                                        000239
1                   000902692011248461-14875                  0000000000000014875200000000002               0114875     08041500000000500000000000012N020415000000000000001670000000000000000000000000000000000000000000000119503612000125BORGES & SARTORI SERVI«OS ADMINISTRATIVOAv. Presidente Kennedy,6920-SL 6                    11704100Protesto apÛs 5 dias                                        000240
1                   000902692011248461-14876                  0000000000000014876000000000002               0114876     08041500000001650000000000012N020415000000000000005500000000000000000000000000000000000000000000000117013577000130RIBEIRO INTERMEDIA«√O CARTOR¡RIA LTDA.  Av. Presidente Marques,1212                         78045008Protesto apÛs 5 dias                                        000241
1                   000902692011248461-14877                  0000000000000014877900000000002               0114877     08041500000000299750000000012N020415000000000000001000000000000000000000000000000000000000000000000112139078000170RW MARIZ ESTRUTURA CARTORAL LTDA        Av Epit·cio Pessoa,475-Sala 05                      58030906Protesto apÛs 5 dias                                        000242
1                   000902692011248461-14878                  0000000000000014878700000000002               0114878     08041500000000500000000000012N020415000000000000001670000000000000000000000000000000000000000000000118596649000182LHL SERVI«OS ADMINISTRATIVOS E INTERMEDIRua AssemblÈia de Deus,39-SL 411                    11500040Protesto apÛs 5 dias                                        000243
1                   000902692011248461-14879                  0000000000000014879500000000002               0114879     08041500000000500000000000012N020415000000000000001670000000000000000000000000000000000000000000000116455215000137MIM Consultoria, Assessoria e IntermediaRua Gal. Bacelar,504                                96200370Protesto apÛs 5 dias                                        000244
1                   000902692011248461-14880                  0000000000000014880900000000002               0114880     08041500000001200000000000012N020415000000000000004000000000000000000000000000000000000000000000000113133167000172G I CART SERVI«OS ORGANIZACIONAIS LTDA  Rua dos Marianos,132                                06016050Protesto apÛs 5 dias                                        000245
1                   000902692011248461-14881                  0000000000000014881700000000002               0114881     08041500000000000000000000012N020415000000000000000000000000000000000000000000000000000000000000000118354041000141By Trade IntermediaÁ„o Cartor·ria LTDA  Rua Pinto de Figueiredo,55-SL 605                   20511240Protesto apÛs 5 dias                                        000246
1                   000902692011248461-14882                  0000000000000014882500000000002               0114882     08041500000001000000000000012N020415000000000000003330000000000000000000000000000000000000000000000116988183000135MENEZES & AMARAL INTERMEDIA«√O CARTOR¡RIRua Israel Pinheiro,2500-LJ 1                       35020220Protesto apÛs 5 dias                                        000247
1                   000902692011248461-14883                  0000000000000014883300000000002               0114883     08041500000000000000000000012N020415000000000000000000000000000000000000000000000000000000000000000113287999000143ASSESSORIA CARTOR¡RIA P¡DUA LTDA        Rua Tiradentes,112-SL 201                           28300000Protesto apÛs 5 dias                                        000248
1                   000902692011248461-14884                  0000000000000014884100000000002               0114884     08041500000000000000000000012N020415000000000000000000000000000000000000000000000000000000000000000100008490178747Patricia Lobmaier GonÁalves Cunha       Dammstrasse,16                                      00008810Protesto apÛs 5 dias                                        000249
