01REMESSA01COBRANCA       00000000000004130991SISTEMA DE CARTÛRIO CERTIDıES 237BRADESCO       140115        MX0000750                                                                                                                                                                                                                                                                                     000001
1                   000902692011248461-13097                  0000000000000013097700000000002               0113097     14121400000000714000000000012N0412141200000000000023800000000000000000000000000000000000000000000002000000005070911 Banco do Brasil S.A.                  Rua Doutor CÈsar,530-11∫ andar                      02013002                                                            000002
1                   000902692011248461-13098                  0000000000000013098500000000002               0113098     14121400000000840840000000012N0412140000000000000000000000000000000000000000000000000000000000000002000000005070911 Banco do Brasil S.A. 3340-5 Ag        Rua Doutor CÈsar, 530 - 11∫ andar                   02013002Referente as custas adicionais das ordens 335193            000003
1                   000902692011248461-13099                  0000000000000013099300000000002               0113099     08121400000000244300000000012N041214000000000000000810000000000000000000000000000000000000000000000111029315000188SUZAN CART CERTIDOES LTDA - ME          Rua Gal. Francisco GlicÈrio,1185                    08674003Protesto apÛs 5 dias                                        000004
1                   000902692011248461-13100                  0000000000000013100000000000002               0113100     08121400000000321300000000012N041214000000000000001070000000000000000000000000000000000000000000000111163439000151RF-SERVICOS DE DOCUMENTACAO LTDA.       Av. Mal. Castelo Branco,173-A                       65076090Protesto apÛs 5 dias                                        000005
1                   000902692011248461-13101                  0000000000000013101900000000002               0113101     08121400000001800000000000012N041214000000000000006000000000000000000000000000000000000000000000000110999668000148ASSESSORIA E CONSULTORIA DE DOCUMENTOS ER. Leopoldo Machado,242-Loja 02                     18035075Protesto apÛs 5 dias                                        000006
1                   000902692011248461-13102                  0000000000000013102700000000002               0113102     08121400000001300000000000012N041214000000000000004330000000000000000000000000000000000000000000000111165549000152D¥ VASQUEZ SERVI«OS CARTORARIOS LTDA - EAv. Dr. Jo„o Guilhermino,293                        12210131Protesto apÛs 5 dias                                        000007
1                   000902692011248461-13103                  0000000000000013103500000000002               0113103     08121400000000500000000000012N041214000000000000001670000000000000000000000000000000000000000000000111144435000126DOCK STATION INTERMEDIA«√O CARTOR¡RIA LTRua da Quitanda,20-4∫ andar ñ Sala 401              20011972Protesto apÛs 5 dias                                        000008
1                   000902692011248461-13104                  0000000000000013104300000000002               0113104     08121400000001000000000000012N041214000000000000003330000000000000000000000000000000000000000000000114816778000188Oliveira IntermediaÁ„o Cartor·ria LTDA MRua Delfino Cintra,500 AxB                          13020100Protesto apÛs 5 dias                                        000009
1                   000902692011248461-13105                  0000000000000013105100000000002               0113105     08121400000000500000000000012N041214000000000000001670000000000000000000000000000000000000000000000111253279000131¡GAPE SERVI«OS E INTERMEDIA«’ES CARTOR¡RR. Gov. Pedro de Toledo,569                         13400070Protesto apÛs 5 dias                                        000010
1                   000902692011248461-13106                  0000000000000013106P00000000002               0113106     08121400000001000000000000012N041214000000000000003330000000000000000000000000000000000000000000000106058057000128CTPOST SERVI«OS LTDA ME                 R. Chaves Barcelos,131                              90030120Protesto apÛs 5 dias                                        000011
1                   000902692011248461-13107                  0000000000000013107800000000002               0113107     08121400000000013000000000012N041214000000000000000040000000000000000000000000000000000000000000000113238744000190ARCHANJO TEIXEIRA PREPARA«√O DE DOCUMENTAv. Brasil,1586-Loja 06                             30140003Protesto apÛs 5 dias                                        000012
1                   000902692011248461-13108                  0000000000000013108600000000002               0113108     08121400000000015500000000012N041214000000000000000050000000000000000000000000000000000000000000000111564744000155SARAIVA¥S CONSULTORIA EMPRESARIAL LTDA  Rua Prefeito JosÈ Santana Trigueiro,183             32604188Protesto apÛs 5 dias                                        000013
1                   000902692011248461-13109                  0000000000000013109400000000002               0113109     08121400000000500000000000012N041214000000000000001670000000000000000000000000000000000000000000000111479061000108ANDRADE SOARES LOPES LTDA               Rua Lehar David,05                                  45000445Protesto apÛs 5 dias                                        000014
1                   000902692011248461-13110                  0000000000000013110800000000002               0113110     08121400000000008360000000012N041214000000000000000030000000000000000000000000000000000000000000000111777632000182CFN ASSESSORIA EM DOCUMENTOS LTDA       R Prefeito Carlos JosÈ Carlson,226-CJ 01            09450000Protesto apÛs 5 dias                                        000015
1                   000902692011248461-13111                  0000000000000013111600000000002               0113111     08121400000000500000000000012N041214000000000000001670000000000000000000000000000000000000000000000111222886000134ELIDA ASSESSORIA EMPRESARIAL LTDA       R. Neo Alves Martins,2955-Sala 03                   87013060Protesto apÛs 5 dias                                        000016
1                   000902692011248461-13112                  0000000000000013112400000000002               0113112     08121400000000665700000000012N041214000000000000002220000000000000000000000000000000000000000000000111834699000101REGIS ORLANDINI ASSESSORIA CARTORARIA LTAv. Jo„o Naves de ¡vila,81                          38400600Protesto apÛs 5 dias                                        000017
1                   000902692011248461-13113                  0000000000000013113200000000002               0113113     08121400000000500000000000012N041214000000000000001670000000000000000000000000000000000000000000000119762311000116J. LOPES - ME                           Rua Afonso Pena,5-47                                17060250Protesto apÛs 5 dias                                        000018
1                   000902692011248461-13114                  0000000000000013114000000000002               0113114     08121400000000500000000000012N041214000000000000001670000000000000000000000000000000000000000000000111838860000115M.L. CARDOSO - PRESTA«√O DE SERVI«OS - ERua Luiz Pereira Barreto,304                        16010320Protesto apÛs 5 dias                                        000019
1                   000902692011248461-13115                  0000000000000013115900000000002               0113115     08121400000000500000000000012N041214000000000000001670000000000000000000000000000000000000000000000118433773000127MUZETI ASSESSORIA CARTORARIA LTDA ME    Rua 20,1022                                         14780070Protesto apÛs 5 dias                                        000020
1                   000902692011248461-13116                  0000000000000013116700000000002               0113116     08121400000000500000000000012N041214000000000000001670000000000000000000000000000000000000000000000119450025000115SAITO & SAITO ASSESSORIA E SERVI«OS LTDAAv. Francisco de Paula Leite,1699                   13344325Protesto apÛs 5 dias                                        000021
1                   000902692011248461-13117                  0000000000000013117500000000002               0113117     08121400000000500000000000012N041214000000000000001670000000000000000000000000000000000000000000000112443155000181ASSESSORIA E CONSULTORIA CARTORARIA DE DRua Santa Cruz,652                                  13300090Protesto apÛs 5 dias                                        000022
1                   000902692011248461-13118                  0000000000000013118300000000002               0113118     08121400000000500000000000012N041214000000000000001670000000000000000000000000000000000000000000000112632803000148RUBIANA SERVI«OS DE CARTORIO, CERTID’ES Rua das Esmeraldas,186                              09920520Protesto apÛs 5 dias                                        000023
1                   000902692011248461-13119                  0000000000000013119100000000002               0113119     08121400000000500000000000012N041214000000000000001670000000000000000000000000000000000000000000000102248702000114MOURA E MENEZES SERVI«OS ADMINISTRATIVOSRua Dr. Curvelo Cavalcante,189-Loja 101             23810201Protesto apÛs 5 dias                                        000024
1                   000902692011248461-13120                  0000000000000013120500000000002               0113120     08121400000000500000000000012N041214000000000000001670000000000000000000000000000000000000000000000111619454000161ASSESSORIA CARTOR¡RIA DO NORDESTE LTDA  Rua AntÙnio de Castro,114-LJ 05                     52070080Protesto apÛs 5 dias                                        000025
1                   000902692011248461-13121                  0000000000000013121300000000002               0113121     08121400000000500000000000012N041214000000000000001670000000000000000000000000000000000000000000000112572498000146Alphacentral Documentos e ServiÁos LTDA Rua Cel. Siqueira de Moraes,125/127                 13201032Protesto apÛs 5 dias                                        000026
1                   000902692011248461-13122                  0000000000000013122100000000002               0113122     08121400000000500000000000012N041214000000000000001670000000000000000000000000000000000000000000000121117773000122JR CONSULTORIA INTERMEDIACAO CARTORARIA Rua Visconde de Sepetiba,935-SL 625                 24020206Protesto apÛs 5 dias                                        000027
1                   000902692011248461-13123                  0000000000000013123P00000000002               0113123     08121400000000318850000000012N041214000000000000001060000000000000000000000000000000000000000000000112139078000170RW MARIZ ESTRUTURA CARTORAL LTDA        Av Epit·cio Pessoa,475-Sala 05                      58030906Protesto apÛs 5 dias                                        000028
1                   000902692011248461-13124                  0000000000000013124800000000002               0113124     08121400000000900000000000012N041214000000000000003000000000000000000000000000000000000000000000000113133167000172G I CART SERVI«OS ORGANIZACIONAIS LTDA  Rua dos Marianos,132                                06016050Protesto apÛs 5 dias                                        000029
1                   000902692011248461-13125                  0000000000000013125600000000002               0113125     08121400000000022910000000012N041214000000000000000080000000000000000000000000000000000000000000000113287999000143ASSESSORIA CARTOR¡RIA P¡DUA LTDA        Rua Tiradentes,112-SL 201                           28300000Protesto apÛs 5 dias                                        000030
1                   000902692011248461-13126                  0000000000000013126400000000002               0113126     08121400000000049150000000012N041214000000000000000160000000000000000000000000000000000000000000000113321680000197Ana Claudia Barbiere Alves Ferreira - MEAv. Brasil,326                                      14801050Protesto apÛs 5 dias                                        000031
1                   000902692011248461-13127                  0000000000000013127200000000002               0113127     08121400000000010500000000012N041214000000000000000040000000000000000000000000000000000000000000000113585685000127ASSESSORIA CARTOR¡RIA LIMEIRA LTDA ME   Rua Deputado Octavio Lopes,304 B                    13480021Protesto apÛs 5 dias                                        000032
1                   000902692011248461-13128                  0000000000000013128000000000002               0113128     08121400000000125750000000012N041214000000000000000420000000000000000000000000000000000000000000000113406670000154RODRIGUES E VIEIRA LTDA.                104 SUL RUA SE 05 LOTE 23 | AC JK CAIXA             77006970Protesto apÛs 5 dias                                        000033
1                   000902692011248461-13129                  0000000000000013129900000000002               0113129     08121400000000500000000000012N041214000000000000001670000000000000000000000000000000000000000000000113743219000122Valentim e Silva ServiÁos               PraÁa AntÙnio Dias,584                              38700110Protesto apÛs 5 dias                                        000034
1                   000902692011248461-13130                  0000000000000013130200000000002               0113130     08121400000000300000000000012N041214000000000000001000000000000000000000000000000000000000000000000113433192000171CONSULT SERVICE ASSESSORIA CARTOR¡RIA LTRua Episcopal,1714-Loja 02                          13560570Protesto apÛs 5 dias                                        000035
1                   000902692011248461-13131                  0000000000000013131000000000002               0113131     08121400000000009950000000012N041214000000000000000030000000000000000000000000000000000000000000000113576355000175LEME ASSESSORIA E CONSULTORIA DE DOCUMENRua Prudente de Moraes,933                          13320160Protesto apÛs 5 dias                                        000036
1                   000902692011248461-13132                  0000000000000013132900000000002               0113132     08121400000000500000000000012N041214000000000000001670000000000000000000000000000000000000000000000113845551000106MACEDO & MELO INTERMEDIACOES CARTORARIASRUA LIZANDRO NOGUEIRA,1223-SALA 304                 64000200Protesto apÛs 5 dias                                        000037
1                   000902692011248461-13133                  0000000000000013133700000000002               0113133     08121400000000020800000000012N041214000000000000000070000000000000000000000000000000000000000000000113800899000179TEIXEIRA CARREIRO INTERMEDIACAO CARTORARRua Alan Kardec,50-SL 712                           27541290Protesto apÛs 5 dias                                        000038
1                   000902692011248461-13134                  0000000000000013134500000000002               0113134     08121400000000500000000000012N041214000000000000001670000000000000000000000000000000000000000000000114142222000153Araujo Oliveira Assessoria Cartoraria LTAv. Radial B,60-LJ 02                               42807380Protesto apÛs 5 dias                                        000039
1                   000902692011248461-13135                  0000000000000013135300000000002               0113135     08121400000000500000000000012N041214000000000000001670000000000000000000000000000000000000000000000114456232000163ALVES & UEMURA ASSESSORIA COMERCIAL E INRua Juscelino K. de Oliveira,710-LJ 02              37580000Protesto apÛs 5 dias                                        000040
1                   000902692011248461-13136                  0000000000000013136100000000002               0113136     08121400000000500000000000012N041214000000000000001670000000000000000000000000000000000000000000000115779004000197BONESSO & GIANETTI LTDA ME              Rua Nove de Julho,430-Lj 03 - Galeria de            13280000Protesto apÛs 5 dias                                        000041
1                   000902692011248461-13137                  0000000000000013137P00000000002               0113137     08121400000000500000000000012N041214000000000000001670000000000000000000000000000000000000000000000111834699000292REGIS ORLANDINI ASSESSORIA CARTOR¡RIA EPPraÁa Manoel Bonito,65                              38440076Protesto apÛs 5 dias                                        000042
1                   000902692011248461-13138                  0000000000000013138800000000002               0113138     08121400000000500000000000012N041214000000000000001670000000000000000000000000000000000000000000000115003436000101Via R·pida IntermediaÁ„o Cartor·ria LTDARua Vereador Juca Pena,10                           36400000Protesto apÛs 5 dias                                        000043
1                   000902692011248461-13139                  0000000000000013139600000000002               0113139     08121400000000500000000000012N041214000000000000001670000000000000000000000000000000000000000000000114467333000130Sirley Santos Niemic - ME               Av. Municipal,1779 A                                78250000Protesto apÛs 5 dias                                        000044
1                   000902692011248461-13140                  0000000000000013140P00000000002               0113140     08121400000000500000000000012N041214000000000000001670000000000000000000000000000000000000000000000114567761000134ABEN INTERMEDIACAO CARTORARIA LTDA ME   Av. Leopoldino de Oliveira,4464-Ed. Diam            38060000Protesto apÛs 5 dias                                        000045
1                   000902692011248461-13141                  0000000000000013141800000000002               0113141     08121400000000500000000000012N041214000000000000001670000000000000000000000000000000000000000000000114547088000170SPEED FOX ASSESSORIA CARTORARIA LTDA ME Rua General Dionisio,410-LOJA                       25075095Protesto apÛs 5 dias                                        000046
1                   000902692011248461-13142                  0000000000000013142600000000002               0113142     08121400000000025500000000012N041214000000000000000090000000000000000000000000000000000000000000000114911193000147LOPES E LOPES INTERMEDIA√á√ÉO CARTOR√ÅRIRua Marechal Deodoro,444-loja 322                   36010904Protesto apÛs 5 dias                                        000047
1                   000902692011248461-13143                  0000000000000013143400000000002               0113143     08121400000000400000000000012N041214000000000000001330000000000000000000000000000000000000000000000115220454000226RENAULT ASSOCIADOS INTERMEDIACOES CARTORRua Benedito Valadares,520-LJ 03                    35660630Protesto apÛs 5 dias                                        000048
1                   000902692011248461-13144                  0000000000000013144200000000002               0113144     08121400000000500000000000012N041214000000000000001670000000000000000000000000000000000000000000000120019555000192SERV MASTER SERVICOS E LOGISTICA LTDA ñMRua Bar„o do Rio Branco,1089                        16200001Protesto apÛs 5 dias                                        000049
1                   000902692011248461-13145                  0000000000000013145000000000002               0113145     08121400000001000000000000012N041214000000000000003330000000000000000000000000000000000000000000000115447264000165CAMPDOC INTERMEDIA«√O CARTOR¡RIA LTDA ñ Av. Carlos de Ara˙jo Gobbi,325                      13034670Protesto apÛs 5 dias                                        000050
1                   000902692011248461-13146                  0000000000000013146900000000002               0113146     08121400000000500000000000012N041214000000000000001670000000000000000000000000000000000000000000000120603641000148GUARAPARI SERVICOS CARTORARIOS LTDA - MERua Roberto Calmon,140                              29200340Protesto apÛs 5 dias                                        000051
1                   000902692011248461-13147                  0000000000000013147700000000002               0113147     08121400000000500000000000012N041214000000000000001670000000000000000000000000000000000000000000000115328775000168Bagini e Okumura IntermediaÁıes Cartor·rRua Laurindo Borges,1494                            87303240Protesto apÛs 5 dias                                        000052
1                   000902692011248461-13148                  0000000000000013148500000000002               0113148     08121400000000500000000000012N041214000000000000001670000000000000000000000000000000000000000000000115523647000175TGD ASSESSORIA E CONSULTORIA LTDA       Rua Coronel Antonio Cardoso Pinto,34 A              37640000Protesto apÛs 5 dias                                        000053
1                   000902692011248461-13149                  0000000000000013149300000000002               0113149     08121400000000500000000000012N041214000000000000001670000000000000000000000000000000000000000000000116465255000160Tocantins IntermediaÁ„o Cartor·ria LTDA-RUA RODOVI¡RIA,193-SALA 01                          77805040Protesto apÛs 5 dias                                        000054
1                   000902692011248461-13150                  0000000000000013150700000000002               0113150     08121400000000500000000000012N041214000000000000001670000000000000000000000000000000000000000000000115731322000188MEIRELES SERVI«OS DE APOIO ADMINISTRATIVRua JosÈ Marcelino de Oliveira,374-BAIXO            67030170Protesto apÛs 5 dias                                        000055
1                   000902692011248461-13151                  0000000000000013151500000000002               0113151     08121400000001000000000000012N041214000000000000003330000000000000000000000000000000000000000000000115803475000193PEDRO, BASTOS & JONES SERVI«OS ASMINISTRRua Duque de Caxias,01-SL 31                        28613060Protesto apÛs 5 dias                                        000056
1                   000902692011248461-13152                  0000000000000013152300000000002               0113152     08121400000000500000000000012N041214000000000000001670000000000000000000000000000000000000000000000115872523000103HEITOR PIGHINI BARBADO ME               Rua Senador JosÈ Bonif·cio,312-B                    13800060Protesto apÛs 5 dias                                        000057
1                   000902692011248461-13153                  0000000000000013153100000000002               0113153     08121400000000500000000000012N041214000000000000001670000000000000000000000000000000000000000000000118997889000199CP CAMPO GRANDE INTERMEDIACOES CARTORARIRua Amaral Costa,408-LJ 01                          23050260Protesto apÛs 5 dias                                        000058
1                   000902692011248461-13154                  0000000000000013154P00000000002               0113154     08121400000000500000000000012N041214000000000000001670000000000000000000000000000000000000000000000115566079000190Marins Consultoria e IntermediaÁ„o CartoAvenida Brasil,4140-Sala 13                         87503420Protesto apÛs 5 dias                                        000059
1                   000902692011248461-13155                  0000000000000013155800000000002               0113155     08121400000001000000000000012N041214000000000000003330000000000000000000000000000000000000000000000115703802000135Assecar Apoio Administrativo de MArilia Rua Carlos Gomes,343                                17501000Protesto apÛs 5 dias                                        000060
1                   000902692011248461-13156                  0000000000000013156600000000002               0113156     08121400000000500000000000012N041214000000000000001670000000000000000000000000000000000000000000000115723896000104Walter Shuji Kishi eireli-ME            Avenida Presidente Get˙io Vargas,2214-Lo            45990289Protesto apÛs 5 dias                                        000061
1                   000902692011248461-13157                  0000000000000013157400000000002               0113157     08121400000000500000000000012N041214000000000000001670000000000000000000000000000000000000000000000115665799000102OLIVEIRA E PEIXOTO LTDA                 Rua Barbosa de Sousa,25-SL 006 - Centro             45203640Protesto apÛs 5 dias                                        000062
1                   000902692011248461-13158                  0000000000000013158200000000002               0113158     08121400000000500000000000012N041214000000000000001670000000000000000000000000000000000000000000000116911487000102L & A INTERMEDIA«’ES CARTOR¡RIAS LTDA   Rua Marechal Deodoro,111                            48005020Protesto apÛs 5 dias                                        000063
1                   000902692011248461-13159                  0000000000000013159000000000002               0113159     08121400000000500000000000012N041214000000000000001670000000000000000000000000000000000000000000000116615091000100MEG INTERMEDIA«√O CARTOR¡RIA            Av. 13,625                                          13500340Protesto apÛs 5 dias                                        000064
1                   000902692011248461-13160                  0000000000000013160400000000002               0113160     08121400000000200000000000012N041214000000000000000670000000000000000000000000000000000000000000000115696350000101Almeida IntermediaÁ„o cartor·ria LTDA MERua JosÈ Brenha Ribeiro,23                          18130495Protesto apÛs 5 dias                                        000065
1                   000902692011248461-13161                  0000000000000013161200000000002               0113161     08121400000000500000000000012N041214000000000000001670000000000000000000000000000000000000000000000119373945000187MR Sistema de IntermediaÁ„o Cartor·ria LRua 29 de Abril,123                                 13256000Protesto apÛs 5 dias                                        000066
1                   000902692011248461-13162                  0000000000000013162000000000002               0113162     08121400000000500000000000012N041214000000000000001670000000000000000000000000000000000000000000000115761167000142DOC SERVICE SERVI«OS DOCUMENTAIS LTDA   Rua Marechal Floriano Peixoto,1562-Sala             85851020Protesto apÛs 5 dias                                        000067
1                   000902692011248461-13163                  0000000000000013163900000000002               0113163     08121400000000500000000000012N0412140000000000000016700000000000000000000000000000000000000000000001157926280001442 W V INTERMEDIA«√O CARTOR¡RIA LTDA-ME  Rua Marechal Deodoro,44                             12500210Protesto apÛs 5 dias                                        000068
1                   000902692011248461-13164                  0000000000000013164700000000002               0113164     08121400000000500000000000012N041214000000000000001670000000000000000000000000000000000000000000000115779486000185ANA LIDIA ANDRADE VASCONCELOS CISOTTO - Rua M·rio Pedro Vercellino,411                      18550000Protesto apÛs 5 dias                                        000069
1                   000902692011248461-13165                  0000000000000013165500000000002               0113165     08121400000001000000000000012N041214000000000000003330000000000000000000000000000000000000000000000116566686000112SOMARX INTERMEDIA«√O CARTOR¡RIA LTDA    QN 07 - AREA ESPECIAL 1 TERREO LOJA,11-R            71805731Protesto apÛs 5 dias                                        000070
1                   000902692011248461-13166                  0000000000000013166300000000002               0113166     08121400000001000000000000012N041214000000000000003330000000000000000000000000000000000000000000000116651907000150COTIA CENTRAL - SERVI«OS ADMINISTRATIVOSRua Joaquim Nunes Filho,204                         06717180Protesto apÛs 5 dias                                        000071
1                   000902692011248461-13167                  0000000000000013167100000000002               0113167     08121400000001500000000000012N041214000000000000005000000000000000000000000000000000000000000000000117013577000130RIBEIRO INTERMEDIA«√O CARTOR¡RIA LTDA.  Av. Presidente Marques,1212                         78045008Protesto apÛs 5 dias                                        000072
1                   000902692011248461-13168                  0000000000000013168P00000000002               0113168     08121400000000500000000000012N041214000000000000001670000000000000000000000000000000000000000000000116455215000137MIM Consultoria, Assessoria e IntermediaRua Gal. Bacelar,504                                96200370Protesto apÛs 5 dias                                        000073
1                   000902692011248461-13169                  0000000000000013169800000000002               0113169     08121400000000500000000000012N041214000000000000001670000000000000000000000000000000000000000000000116850829000113FORMAGIO & MILARE LTDA ME               Rua Princesa Izabel,994                             17900000Protesto apÛs 5 dias                                        000074
1                   000902692011248461-13170                  0000000000000013170100000000002               0113170     08121400000001000000000000012N041214000000000000003330000000000000000000000000000000000000000000000116988183000135MENEZES & AMARAL INTERMEDIA«√O CARTOR¡RIRua Israel Pinheiro,2500-LJ 1                       35020220Protesto apÛs 5 dias                                        000075
1                   000902692011248461-13171                  0000000000000013171P00000000002               0113171     08121400000000500000000000012N041214000000000000001670000000000000000000000000000000000000000000000117163022000175DEFTHJ CONSULTORIA E ASSESSORIA CARTOR¡RR. Pedro ProcÛpio,48                                06501130Protesto apÛs 5 dias                                        000076
1                   000902692011248461-13172                  0000000000000013172800000000002               0113172     08121400000000500000000000012N041214000000000000001670000000000000000000000000000000000000000000000116943517000154SOUZA SERVI«OS DE DOCUMENTOS S/S LTDA EPR. Coronel Aureliano de Camargo,666                 18270170Protesto apÛs 5 dias                                        000077
1                   000902692011248461-13173                  0000000000000013173600000000002               0113173     08121400000000500000000000012N041214000000000000001670000000000000000000000000000000000000000000000117206713000109FABIO TOMAZ CARDOSO - ME                Rua Primeiro de Maio,202-SL 507                     09015030Protesto apÛs 5 dias                                        000078
1                   000902692011248461-13174                  0000000000000013174400000000002               0113174     08121400000000500000000000012N041214000000000000001670000000000000000000000000000000000000000000000111834699000373REGIS ORLANDINI ASSESSORIA CARTOR¡RIA EPRua Dr. Frankilin de Castro,238                     38183120Protesto apÛs 5 dias                                        000079
1                   000902692011248461-13175                  0000000000000013175200000000002               0113175     08121400000000500000000000012N041214000000000000001670000000000000000000000000000000000000000000000116899904000130E. F. AURELIA NEGOCIOS E INTERMEDIA«√O CRua Liberdade,596                                   06853700Protesto apÛs 5 dias                                        000080
1                   000902692011248461-13176                  0000000000000013176000000000002               0113176     08121400000000500000000000012N041214000000000000001670000000000000000000000000000000000000000000000116949930000126CIRENO FILHO INTERMEDIA«√O CARTORARIA   Rua Carlos Eduardo Nichele,1382-LJ01                83833022Protesto apÛs 5 dias                                        000081
1                   000902692011248461-13177                  0000000000000013177900000000002               0113177     08121400000000350000000000012N041214000000000000001170000000000000000000000000000000000000000000000116811847000196TOLEDO & PEREIRA VASSALO LTDA ME        Rua Santos Pereira,212                              37500026Protesto apÛs 5 dias                                        000082
1                   000902692011248461-13178                  0000000000000013178700000000002               0113178     08121400000001000000000000012N041214000000000000003330000000000000000000000000000000000000000000000116819238000183CARLOS ALBERTO ROCHA DE MELO - ME       R. HermÛgenes Freire da Costa,02-LJ 05              28940000Protesto apÛs 5 dias                                        000083
1                   000902692011248461-13179                  0000000000000013179500000000002               0113179     08121400000000500000000000012N041214000000000000001670000000000000000000000000000000000000000000000116945793000151JLM INTERMEDIA«√O CARTOR¡RIA LTDA       Av. Tiradentes,618-LJ 03                            36307348Protesto apÛs 5 dias                                        000084
1                   000902692011248461-13180                  0000000000000013180900000000002               0113180     08121400000001750000000000012N041214000000000000005830000000000000000000000000000000000000000000000116927836000176C. M. MILROT CONSULTORIA E INTERMEDIA«√OAl. Ribeir„o Preto,551-SL 24                        01331001Protesto apÛs 5 dias                                        000085
1                   000902692011248461-13181                  0000000000000013181700000000002               0113181     08121400000000500000000000012N041214000000000000001670000000000000000000000000000000000000000000000116935668000160FLASH DOC INTERMEDIA«’ES CARTORARIAS    Av. Caetano Barrela,209                             06763460Protesto apÛs 5 dias                                        000086
1                   000902692011248461-13182                  0000000000000013182500000000002               0113182     08121400000000500000000000012N041214000000000000001670000000000000000000000000000000000000000000000116964316000133CAMARGO & ESTRACINE INTERMEDIA«√O CARTORRua Miguel Anselmo,260                              15900000Protesto apÛs 5 dias                                        000087
1                   000902692011248461-13183                  0000000000000013183300000000002               0113183     08121400000001000000000000012N041214000000000000003330000000000000000000000000000000000000000000000117829100000128JS & BOIM INTERMEDIA«√O CARTOR¡RIA LTDA Rua Tabatinguera,140-SL 409 e 410                   01020000Protesto apÛs 5 dias                                        000088
1                   000902692011248461-13184                  0000000000000013184100000000002               0113184     08121400000001000000000000012N041214000000000000003330000000000000000000000000000000000000000000000112587280000165RTC INTERMEDIA«√O CARTOR¡RIA LTDA - ME  Rua Montenegro,171 A                                11410040Protesto apÛs 5 dias                                        000089
1                   000902692011248461-13185                  0000000000000013185P00000000002               0113185     08121400000000500000000000012N041214000000000000001670000000000000000000000000000000000000000000000116729531000150GOMES VERAS INTERMEDIA«√O CARTOR¡RIA LTDRua Maranh„o,763-Sala 17 R                          65901590Protesto apÛs 5 dias                                        000090
1                   000902692011248461-13186                  0000000000000013186800000000002               0113186     08121400000002000000000000012N041214000000000000006670000000000000000000000000000000000000000000000116970183000108NR INTERMEDIA«√O CARTOR¡RIA LTDA        Av. Dom Luis,500-Piso L0, Loja 38, Shopp            60160196Protesto apÛs 5 dias                                        000091
1                   000902692011248461-13187                  0000000000000013187600000000002               0113187     08121400000000500000000000012N041214000000000000001670000000000000000000000000000000000000000000000117103695000210Vale Rio - IntermediaÁ„o Cartor·ria LtdaRua do ParaÌso,97-SL 29                             48903050Protesto apÛs 5 dias                                        000092
1                   000902692011248461-13188                  0000000000000013188400000000002               0113188     08121400000000500000000000012N041214000000000000001670000000000000000000000000000000000000000000000117103695000130VALE RIO - INTERMEDIA«√O CARTOR¡RIA LTDAPraÁa Pio XII,290-2∫ Andar, SL 01                   56304430Protesto apÛs 5 dias                                        000093
1                   000902692011248461-13189                  0000000000000013189200000000002               0113189     08121400000001000000000000012N041214000000000000003330000000000000000000000000000000000000000000000117488037000103LG INTERMEDIA«√O CARTOR¡RIA LTDA ME     Rua Rafael Nascimento,300 C                         75901290Protesto apÛs 5 dias                                        000094
1                   000902692011248461-13190                  0000000000000013190600000000002               0113190     08121400000001000000000000012N041214000000000000003330000000000000000000000000000000000000000000000117197147000116POSTCAR INTERMEDIA«√O CARTOR¡RIA LTDA   Rua Amaro Genari,40-Sala 33                         09810270Protesto apÛs 5 dias                                        000095
1                   000902692011248461-13191                  0000000000000013191400000000002               0113191     08121400000000300000000000012N041214000000000000001000000000000000000000000000000000000000000000000117216619000130F E M INTERMEDIA«√O CARTORARIA LTDA ME  Av. Dom Pedro II,135-Sala 22                        37470000Protesto apÛs 5 dias                                        000096
1                   000902692011248461-13192                  0000000000000013192200000000002               0113192     08121400000000500000000000012N041214000000000000001670000000000000000000000000000000000000000000000112762841000115SM GERENCIAMENTO DE CERTID’ES E DOCUMENTRua 18,81                                           76380000Protesto apÛs 5 dias                                        000097
1                   000902692011248461-13193                  0000000000000013193000000000002               0113193     08121400000000500000000000012N041214000000000000001670000000000000000000000000000000000000000000000118325368000195FERREIRA CAMPOS CONSULTORIA E INTERMEDIARua Joaquim Manuel,248                              46430000Protesto apÛs 5 dias                                        000098
1                   000902692011248461-13194                  0000000000000013194900000000002               0113194     08121400000001500000000000012N041214000000000000005000000000000000000000000000000000000000000000000117234137000103Postal Services - Assessoria e ServiÁos PÁ das Orquideas,186-SL 04 | 1∫ Andar               06453002Protesto apÛs 5 dias                                        000099
1                   000902692011248461-13195                  0000000000000013195700000000002               0113195     08121400000000500000000000012N041214000000000000001670000000000000000000000000000000000000000000000117344439000134Carneiro e Santana IntermediaÁ„o Cartor·Rua Brasil,210-SALA A                               19800100Protesto apÛs 5 dias                                        000100
1                   000902692011248461-13196                  0000000000000013196500000000002               0113196     08121400000000500000000000012N041214000000000000001670000000000000000000000000000000000000000000000117474125000156MAGAVIX INTERMEDIA«√O E LOGISTICA DE DISRua Amap·,1777                                      87704070Protesto apÛs 5 dias                                        000101
1                   000902692011248461-13197                  0000000000000013197300000000002               0113197     08121400000000500000000000012N041214000000000000001670000000000000000000000000000000000000000000000118726605000120OLIVEIRA CECHET INTERMEDIA«√O CARTOR¡RIARua Cleriston Andrade,132-QD 23 LT 03 SL            47850000Protesto apÛs 5 dias                                        000102
1                   000902692011248461-13198                  0000000000000013198100000000002               0113198     08121400000000500000000000012N041214000000000000001670000000000000000000000000000000000000000000000117569606000145RP SERVI«OS CARTORARIOS LTDA            Av. Santos Dumont,3257-Comercial MM501 L            42700000Protesto apÛs 5 dias                                        000103
1                   000902692011248461-13199                  0000000000000013199P00000000002               0113199     08121400000000500000000000012N041214000000000000001670000000000000000000000000000000000000000000000118532030000104ASSESSORIA POSTAL LTDA - ME             Rua 22,1225                                         38300076Protesto apÛs 5 dias                                        000104
1                   000902692011248461-13200                  0000000000000013200700000000002               0113200     08121400000000400000000000012N041214000000000000001330000000000000000000000000000000000000000000000109532074000143OTTIMIZA ASSESSORIA CARTORARIA LTDA - MERua Raimundo Chaves,1584                            59064390Protesto apÛs 5 dias                                        000105
1                   000902692011248461-13201                  0000000000000013201500000000002               0113201     08121400000000500000000000012N041214000000000000001670000000000000000000000000000000000000000000000118275563000158FEITOZA SERVI«OS POSTAL LTDA            Rua AntÙnio Guimar„es,604                           65631100Protesto apÛs 5 dias                                        000106
1                   000902692011248461-13202                  0000000000000013202300000000002               0113202     08121400000000500000000000012N041214000000000000001670000000000000000000000000000000000000000000000117497344000150VAP POSTAL INTERMEDIA«√O CARTOR¡RIA LTDARua Teodorico Tourinho,304                          39800010Protesto apÛs 5 dias                                        000107
1                   000902692011248461-13203                  0000000000000013203100000000002               0113203     08121400000000500000000000012N041214000000000000001670000000000000000000000000000000000000000000000113622593000170Moraes & Vessoni Serv. e Ass. CartorariaRua Paran·,629                                      19900021Protesto apÛs 5 dias                                        000108
1                   000902692011248461-13204                  0000000000000013204P00000000002               0113204     08121400000000500000000000012N041214000000000000001670000000000000000000000000000000000000000000000117736384000108JANAINA FERREIRA DE TOLEDO PEREIRA      Rua Vanor Junqueira Franco,300-Fundos               14701010Protesto apÛs 5 dias                                        000109
1                   000902692011248461-13205                  0000000000000013205800000000002               0113205     08121400000000700000000000012N041214000000000000002330000000000000000000000000000000000000000000000117966691000185GERENCIAMENTO DE CERTIDOES E DOCUMENTOS Rua Cincinato Pinto,297-SL 105                      57020670Protesto apÛs 5 dias                                        000110
1                   000902692011248461-13206                  0000000000000013206600000000002               0113206     08121400000000350000000000012N041214000000000000001170000000000000000000000000000000000000000000000117882102000180JK INTERMEDIA«’ES CARTOR¡RIAS           Av. Francisco Monteiro,95                           09400310Protesto apÛs 5 dias                                        000111
1                   000902692011248461-13207                  0000000000000013207400000000002               0113207     08121400000000300000000000012N041214000000000000001000000000000000000000000000000000000000000000000118268113000138LINS E SILVA INTERMEDIA«’ES CARTOR¡RIAS Rua Visconde de Campo Alegre,149-1∫ Anda            54505370Protesto apÛs 5 dias                                        000112
1                   000902692011248461-13208                  0000000000000013208200000000002               0113208     08121400000000500000000000012N041214000000000000001670000000000000000000000000000000000000000000000120794197000195ANH SERVI«OS CARTOR¡RIOS E DOCUMENTAIS LRua AntÙnio Teles de Menezes,41-SL 407              25520630Protesto apÛs 5 dias                                        000113
1                   000902692011248461-13209                  0000000000000013209000000000002               0113209     08121400000001000000000000012N041214000000000000003330000000000000000000000000000000000000000000000118133083000152MALTAURO BEZERRA CONSULTORIA E INTERMEDIAv. Tancredo Neves,1485-SL 408 | Ed. Esp            41820021Protesto apÛs 5 dias                                        000114
1                   000902692011248461-13210                  0000000000000013210400000000002               0113210     08121400000000500000000000012N041214000000000000001670000000000000000000000000000000000000000000000118209597000144T A Mendes ServiÁos Administrativos - MERua Visconde do Rio Branco,128                      13600080Protesto apÛs 5 dias                                        000115
1                   000902692011248461-13211                  0000000000000013211200000000002               0113211     08121400000000500000000000012N041214000000000000001670000000000000000000000000000000000000000000000117961015000119ADALBERTO ROCHA THOBIAS - ME            Av. Paulista,259-Oeste                              17280000Protesto apÛs 5 dias                                        000116
1                   000902692011248461-13212                  0000000000000013212000000000002               0113212     08121400000000500000000000012N041214000000000000001670000000000000000000000000000000000000000000000118117942000110Rocha OrÁai IntermediaÁ„o Cartor·ria LtdRua dos Leites,69-Sala 118, Galeria PÙr             28470000Protesto apÛs 5 dias                                        000117
1                   000902692011248461-13213                  0000000000000013213900000000002               0113213     08121400000000500000000000012N041214000000000000001670000000000000000000000000000000000000000000000118840724000109RM SERVI«OS DE INTERMEDIA«√O CARTOR¡RIA Av. Get˙lio Vargas,44                               48601260Protesto apÛs 5 dias                                        000118
1                   000902692011248461-13214                  0000000000000013214700000000002               0113214     08121400000001500000000000012N041214000000000000005000000000000000000000000000000000000000000000000118379292000180DOCUMENTUM BRASILIA LTDA - ME           CLN 316-BL E, LJ 06                                 70775550Protesto apÛs 5 dias                                        000119
1                   000902692011248461-13215                  0000000000000013215500000000002               0113215     08121400000001000000000000012N041214000000000000003330000000000000000000000000000000000000000000000115007025000194FV RepresentaÁ„o Comercial LTDA         Alameda AbricÛ,1856-LJ 03                           28890254Protesto apÛs 5 dias                                        000120
1                   000902692011248461-13216                  0000000000000013216300000000002               0113216     08121400000000500000000000012N041214000000000000001670000000000000000000000000000000000000000000000118254685000168CASTELO BRANCO - INTERMEDIA«√O CART”RARIRua do Sol,382-Loja 06 - Centro Empresar            65300000Protesto apÛs 5 dias                                        000121
1                   000902692011248461-13217                  0000000000000013217100000000002               0113217     08121400000000500000000000012N041214000000000000001670000000000000000000000000000000000000000000000118354262000110BOFF E MULLER INTERMEDIA«√O CARTOR¡RIA LAv. J˙lio de Castilhos,1340-SL 05 - Cent            95010003Protesto apÛs 5 dias                                        000122
1                   000902692011248461-13218                  0000000000000013218P00000000002               0113218     08121400000000500000000000012N041214000000000000001670000000000000000000000000000000000000000000000119503612000125BORGES & SARTORI SERVI«OS ADMINISTRATIVOAv. Presidente Kennedy,6920-SL 6                    11704100Protesto apÛs 5 dias                                        000123
1                   000902692011248461-13219                  0000000000000013219800000000002               0113219     08121400000000500000000000012N041214000000000000001670000000000000000000000000000000000000000000000118596649000182LHL SERVI«OS ADMINISTRATIVOS E INTERMEDIRua AssemblÈia de Deus,39-SL 411                    11500040Protesto apÛs 5 dias                                        000124
1                   000902692011248461-13220                  0000000000000013220100000000002               0113220     08121400000000350000000000012N041214000000000000001170000000000000000000000000000000000000000000000119490850000143VA VIOTTO INTERMEDIACAO CAROTARIA - ME  Av. Farid Miguel Safatle,509-LJ 01                  75701040Protesto apÛs 5 dias                                        000125
1                   000902692011248461-13221                  0000000000000013221P00000000002               0113221     08121400000000500000000000012N041214000000000000001670000000000000000000000000000000000000000000000119289512000148P W INTERMEDIA«√O CARTOR¡RIA LTDA       Rua Bonaire,312                                     65930000Protesto apÛs 5 dias                                        000126
1                   000902692011248461-13222                  0000000000000013222800000000002               0113222     08121400000001000000000000012N041214000000000000003330000000000000000000000000000000000000000000000118758648000197CASANOVA E CAL INTERMEDIA«√O CARTOR¡RIA Rua Osvaldo Cruz,372-LJ 106                         41940000Protesto apÛs 5 dias                                        000127
1                   000902692011248461-13223                  0000000000000013223600000000002               0113223     08121400000000500000000000012N041214000000000000001670000000000000000000000000000000000000000000000118607091000193ROBERTA CORREA BUENO GOLO ME            PraÁa 9 de Julho,123                                13960000Protesto apÛs 5 dias                                        000128
1                   000902692011248461-13224                  0000000000000013224400000000002               0113224     08121400000000400000000000012N041214000000000000001330000000000000000000000000000000000000000000000103781158000134DESTRO & CABRAL INTERMEDIA«√O CARTOR¡RIAAv. da Saudade,246                                  14840000Protesto apÛs 5 dias                                        000129
1                   000902692011248461-13225                  0000000000000013225200000000002               0113225     08121400000000500000000000012N041214000000000000001670000000000000000000000000000000000000000000000118678770000153CHIMACHI E COGHI INTERMEDIA«√O CARTOR¡RIRua AntÙnio Mour„o,84-SL 03                         13610090Protesto apÛs 5 dias                                        000130
1                   000902692011248461-13226                  0000000000000013226000000000002               0113226     08121400000000500000000000012N041214000000000000001670000000000000000000000000000000000000000000000118465701000161SANDRA RODRIGUES DE JESUS - EIRELI - ME Rua Tito FulgÍncio,164-SL 106, Galeria C            38500000Protesto apÛs 5 dias                                        000131
1                   000902692011248461-13227                  0000000000000013227900000000002               0113227     08121400000000500000000000012N041214000000000000001670000000000000000000000000000000000000000000000118950650000163NOVA ERA INTERMEDIA«√O CARTORARIA LTDA -Av. Rui Barbosa,72-SL 13                            11740970Protesto apÛs 5 dias                                        000132
1                   000902692011248461-13228                  0000000000000013228700000000002               0113228     08121400000000500000000000012N041214000000000000001670000000000000000000000000000000000000000000000118536552000184CAMPOS DO JORDAO INTERMEDIACAO CARTORARIRua Brigadeiro Jord„o,636                           12460000Protesto apÛs 5 dias                                        000133
1                   000902692011248461-13229                  0000000000000013229500000000002               0113229     08121400000001000000000000012N041214000000000000003330000000000000000000000000000000000000000000000118758564000153M & M INTERMEDIA«√O CARTOR¡RIA LTDA - MERua Dom Luis Felipe de Orleans,1177                 02118001Protesto apÛs 5 dias                                        000134
1                   000902692011248461-13230                  0000000000000013230900000000002               0113230     08121400000001000000000000012N041214000000000000003330000000000000000000000000000000000000000000000119166528000163ESANNF ‚Äì SERVI√áOS DE APOIO AS EMPRESARua do Arroz,90-SL 451                              21011070Protesto apÛs 5 dias                                        000135
1                   000902692011248461-13231                  0000000000000013231700000000002               0113231     08121400000000500000000000012N041214000000000000001670000000000000000000000000000000000000000000000101507315000192MG BUSINARI                             Av. Brasil,1955-SL 4A                               13468000Protesto apÛs 5 dias                                        000136
1                   000902692011248461-13232                  0000000000000013232500000000002               0113232     08121400000000500000000000012N041214000000000000001670000000000000000000000000000000000000000000000118717359000140FAVARO INTERMEDIA«√O CARTOR¡RIA LTDA -MEAv. Cinco,300                                       14620000Protesto apÛs 5 dias                                        000137
1                   000902692011248461-13233                  0000000000000013233300000000002               0113233     08121400000000500000000000012N041214000000000000001670000000000000000000000000000000000000000000000118995227000180MM SERVI«O DE INTERMEDIA«√O DE NEGOCIO LAv. Coumbiara,4489                                  76940000Protesto apÛs 5 dias                                        000138
1                   000902692011248461-13234                  0000000000000013234100000000002               0113234     08121400000000244300000000012N041214000000000000000810000000000000000000000000000000000000000000000111029315000188SUZAN CART CERTIDOES LTDA - ME          Rua Gal. Francisco GlicÈrio,1185                    08674003Protesto apÛs 5 dias                                        000139
1                   000902692011248461-13235                  0000000000000013235P00000000002               0113235     08121400000000321300000000012N041214000000000000001070000000000000000000000000000000000000000000000111163439000151RF-SERVICOS DE DOCUMENTACAO LTDA.       Av. Mal. Castelo Branco,173-A                       65076090Protesto apÛs 5 dias                                        000140
1                   000902692011248461-13236                  0000000000000013236800000000002               0113236     08121400000001800000000000012N041214000000000000006000000000000000000000000000000000000000000000000110999668000148ASSESSORIA E CONSULTORIA DE DOCUMENTOS ER. Leopoldo Machado,242-Loja 02                     18035075Protesto apÛs 5 dias                                        000141
1                   000902692011248461-13237                  0000000000000013237600000000002               0113237     08121400000001300000000000012N041214000000000000004330000000000000000000000000000000000000000000000111165549000152D¥ VASQUEZ SERVI«OS CARTORARIOS LTDA - EAv. Dr. Jo„o Guilhermino,293                        12210131Protesto apÛs 5 dias                                        000142
1                   000902692011248461-13238                  0000000000000013238400000000002               0113238     08121400000000500000000000012N041214000000000000001670000000000000000000000000000000000000000000000111144435000126DOCK STATION INTERMEDIA«√O CARTOR¡RIA LTRua da Quitanda,20-4∫ andar ñ Sala 401              20011972Protesto apÛs 5 dias                                        000143
1                   000902692011248461-13239                  0000000000000013239200000000002               0113239     08121400000001000000000000012N041214000000000000003330000000000000000000000000000000000000000000000114816778000188Oliveira IntermediaÁ„o Cartor·ria LTDA MRua Delfino Cintra,500 AxB                          13020100Protesto apÛs 5 dias                                        000144
1                   000902692011248461-13240                  0000000000000013240600000000002               0113240     08121400000000500000000000012N041214000000000000001670000000000000000000000000000000000000000000000111253279000131¡GAPE SERVI«OS E INTERMEDIA«’ES CARTOR¡RR. Gov. Pedro de Toledo,569                         13400070Protesto apÛs 5 dias                                        000145
1                   000902692011248461-13241                  0000000000000013241400000000002               0113241     08121400000001000000000000012N041214000000000000003330000000000000000000000000000000000000000000000106058057000128CTPOST SERVI«OS LTDA ME                 R. Chaves Barcelos,131                              90030120Protesto apÛs 5 dias                                        000146
1                   000902692011248461-13242                  0000000000000013242200000000002               0113242     08121400000000013000000000012N041214000000000000000040000000000000000000000000000000000000000000000113238744000190ARCHANJO TEIXEIRA PREPARA«√O DE DOCUMENTAv. Brasil,1586-Loja 06                             30140003Protesto apÛs 5 dias                                        000147
1                   000902692011248461-13243                  0000000000000013243000000000002               0113243     08121400000000015500000000012N041214000000000000000050000000000000000000000000000000000000000000000111564744000155SARAIVA¥S CONSULTORIA EMPRESARIAL LTDA  Rua Prefeito JosÈ Santana Trigueiro,183             32604188Protesto apÛs 5 dias                                        000148
1                   000902692011248461-13244                  0000000000000013244900000000002               0113244     08121400000000500000000000012N041214000000000000001670000000000000000000000000000000000000000000000111479061000108ANDRADE SOARES LOPES LTDA               Rua Lehar David,05                                  45000445Protesto apÛs 5 dias                                        000149
1                   000902692011248461-13245                  0000000000000013245700000000002               0113245     08121400000000008360000000012N041214000000000000000030000000000000000000000000000000000000000000000111777632000182CFN ASSESSORIA EM DOCUMENTOS LTDA       R Prefeito Carlos JosÈ Carlson,226-CJ 01            09450000Protesto apÛs 5 dias                                        000150
1                   000902692011248461-13246                  0000000000000013246500000000002               0113246     08121400000000500000000000012N041214000000000000001670000000000000000000000000000000000000000000000111222886000134ELIDA ASSESSORIA EMPRESARIAL LTDA       R. Neo Alves Martins,2955-Sala 03                   87013060Protesto apÛs 5 dias                                        000151
1                   000902692011248461-13247                  0000000000000013247300000000002               0113247     08121400000000665700000000012N041214000000000000002220000000000000000000000000000000000000000000000111834699000101REGIS ORLANDINI ASSESSORIA CARTORARIA LTAv. Jo„o Naves de ¡vila,81                          38400600Protesto apÛs 5 dias                                        000152
1                   000902692011248461-13248                  0000000000000013248100000000002               0113248     08121400000000500000000000012N041214000000000000001670000000000000000000000000000000000000000000000119762311000116J. LOPES - ME                           Rua Afonso Pena,5-47                                17060250Protesto apÛs 5 dias                                        000153
1                   000902692011248461-13249                  0000000000000013249P00000000002               0113249     08121400000000500000000000012N041214000000000000001670000000000000000000000000000000000000000000000111838860000115M.L. CARDOSO - PRESTA«√O DE SERVI«OS - ERua Luiz Pereira Barreto,304                        16010320Protesto apÛs 5 dias                                        000154
1                   000902692011248461-13250                  0000000000000013250300000000002               0113250     08121400000000500000000000012N041214000000000000001670000000000000000000000000000000000000000000000118433773000127MUZETI ASSESSORIA CARTORARIA LTDA ME    Rua 20,1022                                         14780070Protesto apÛs 5 dias                                        000155
1                   000902692011248461-13251                  0000000000000013251100000000002               0113251     08121400000000500000000000012N041214000000000000001670000000000000000000000000000000000000000000000119450025000115SAITO & SAITO ASSESSORIA E SERVI«OS LTDAAv. Francisco de Paula Leite,1699                   13344325Protesto apÛs 5 dias                                        000156
1                   000902692011248461-13252                  0000000000000013252P00000000002               0113252     08121400000000500000000000012N041214000000000000001670000000000000000000000000000000000000000000000112443155000181ASSESSORIA E CONSULTORIA CARTORARIA DE DRua Santa Cruz,652                                  13300090Protesto apÛs 5 dias                                        000157
1                   000902692011248461-13253                  0000000000000013253800000000002               0113253     08121400000000500000000000012N041214000000000000001670000000000000000000000000000000000000000000000112632803000148RUBIANA SERVI«OS DE CARTORIO, CERTID’ES Rua das Esmeraldas,186                              09920520Protesto apÛs 5 dias                                        000158
1                   000902692011248461-13254                  0000000000000013254600000000002               0113254     08121400000000500000000000012N041214000000000000001670000000000000000000000000000000000000000000000102248702000114MOURA E MENEZES SERVI«OS ADMINISTRATIVOSRua Dr. Curvelo Cavalcante,189-Loja 101             23810201Protesto apÛs 5 dias                                        000159
1                   000902692011248461-13255                  0000000000000013255400000000002               0113255     08121400000000500000000000012N041214000000000000001670000000000000000000000000000000000000000000000111619454000161ASSESSORIA CARTOR¡RIA DO NORDESTE LTDA  Rua AntÙnio de Castro,114-LJ 05                     52070080Protesto apÛs 5 dias                                        000160
1                   000902692011248461-13256                  0000000000000013256200000000002               0113256     08121400000000500000000000012N041214000000000000001670000000000000000000000000000000000000000000000112572498000146Alphacentral Documentos e ServiÁos LTDA Rua Cel. Siqueira de Moraes,125/127                 13201032Protesto apÛs 5 dias                                        000161
1                   000902692011248461-13257                  0000000000000013257000000000002               0113257     08121400000000500000000000012N041214000000000000001670000000000000000000000000000000000000000000000121117773000122JR CONSULTORIA INTERMEDIACAO CARTORARIA Rua Visconde de Sepetiba,935-SL 625                 24020206Protesto apÛs 5 dias                                        000162
1                   000902692011248461-13258                  0000000000000013258900000000002               0113258     08121400000000318850000000012N041214000000000000001060000000000000000000000000000000000000000000000112139078000170RW MARIZ ESTRUTURA CARTORAL LTDA        Av Epit·cio Pessoa,475-Sala 05                      58030906Protesto apÛs 5 dias                                        000163
1                   000902692011248461-13259                  0000000000000013259700000000002               0113259     08121400000000900000000000012N041214000000000000003000000000000000000000000000000000000000000000000113133167000172G I CART SERVI«OS ORGANIZACIONAIS LTDA  Rua dos Marianos,132                                06016050Protesto apÛs 5 dias                                        000164
1                   000902692011248461-13260                  0000000000000013260000000000002               0113260     08121400000000022910000000012N041214000000000000000080000000000000000000000000000000000000000000000113287999000143ASSESSORIA CARTOR¡RIA P¡DUA LTDA        Rua Tiradentes,112-SL 201                           28300000Protesto apÛs 5 dias                                        000165
1                   000902692011248461-13261                  0000000000000013261900000000002               0113261     08121400000000049150000000012N041214000000000000000160000000000000000000000000000000000000000000000113321680000197Ana Claudia Barbiere Alves Ferreira - MEAv. Brasil,326                                      14801050Protesto apÛs 5 dias                                        000166
1                   000902692011248461-13262                  0000000000000013262700000000002               0113262     08121400000000010500000000012N041214000000000000000040000000000000000000000000000000000000000000000113585685000127ASSESSORIA CARTOR¡RIA LIMEIRA LTDA ME   Rua Deputado Octavio Lopes,304 B                    13480021Protesto apÛs 5 dias                                        000167
1                   000902692011248461-13263                  0000000000000013263500000000002               0113263     08121400000000125750000000012N041214000000000000000420000000000000000000000000000000000000000000000113406670000154RODRIGUES E VIEIRA LTDA.                104 SUL RUA SE 05 LOTE 23 | AC JK CAIXA             77006970Protesto apÛs 5 dias                                        000168
1                   000902692011248461-13264                  0000000000000013264300000000002               0113264     08121400000000500000000000012N041214000000000000001670000000000000000000000000000000000000000000000113743219000122Valentim e Silva ServiÁos               PraÁa AntÙnio Dias,584                              38700110Protesto apÛs 5 dias                                        000169
1                   000902692011248461-13265                  0000000000000013265100000000002               0113265     08121400000000300000000000012N041214000000000000001000000000000000000000000000000000000000000000000113433192000171CONSULT SERVICE ASSESSORIA CARTOR¡RIA LTRua Episcopal,1714-Loja 02                          13560570Protesto apÛs 5 dias                                        000170
1                   000902692011248461-13266                  0000000000000013266P00000000002               0113266     08121400000000009950000000012N041214000000000000000030000000000000000000000000000000000000000000000113576355000175LEME ASSESSORIA E CONSULTORIA DE DOCUMENRua Prudente de Moraes,933                          13320160Protesto apÛs 5 dias                                        000171
1                   000902692011248461-13267                  0000000000000013267800000000002               0113267     08121400000000500000000000012N041214000000000000001670000000000000000000000000000000000000000000000113845551000106MACEDO & MELO INTERMEDIACOES CARTORARIASRUA LIZANDRO NOGUEIRA,1223-SALA 304                 64000200Protesto apÛs 5 dias                                        000172
1                   000902692011248461-13268                  0000000000000013268600000000002               0113268     08121400000000020800000000012N041214000000000000000070000000000000000000000000000000000000000000000113800899000179TEIXEIRA CARREIRO INTERMEDIACAO CARTORARRua Alan Kardec,50-SL 712                           27541290Protesto apÛs 5 dias                                        000173
1                   000902692011248461-13269                  0000000000000013269400000000002               0113269     08121400000000500000000000012N041214000000000000001670000000000000000000000000000000000000000000000114142222000153Araujo Oliveira Assessoria Cartoraria LTAv. Radial B,60-LJ 02                               42807380Protesto apÛs 5 dias                                        000174
1                   000902692011248461-13270                  0000000000000013270800000000002               0113270     08121400000000500000000000012N041214000000000000001670000000000000000000000000000000000000000000000114456232000163ALVES & UEMURA ASSESSORIA COMERCIAL E INRua Juscelino K. de Oliveira,710-LJ 02              37580000Protesto apÛs 5 dias                                        000175
1                   000902692011248461-13271                  0000000000000013271600000000002               0113271     08121400000000500000000000012N041214000000000000001670000000000000000000000000000000000000000000000115779004000197BONESSO & GIANETTI LTDA ME              Rua Nove de Julho,430-Lj 03 - Galeria de            13280000Protesto apÛs 5 dias                                        000176
1                   000902692011248461-13272                  0000000000000013272400000000002               0113272     08121400000000500000000000012N041214000000000000001670000000000000000000000000000000000000000000000111834699000292REGIS ORLANDINI ASSESSORIA CARTOR¡RIA EPPraÁa Manoel Bonito,65                              38440076Protesto apÛs 5 dias                                        000177
1                   000902692011248461-13273                  0000000000000013273200000000002               0113273     08121400000000500000000000012N041214000000000000001670000000000000000000000000000000000000000000000115003436000101Via R·pida IntermediaÁ„o Cartor·ria LTDARua Vereador Juca Pena,10                           36400000Protesto apÛs 5 dias                                        000178
1                   000902692011248461-13274                  0000000000000013274000000000002               0113274     08121400000000500000000000012N041214000000000000001670000000000000000000000000000000000000000000000114467333000130Sirley Santos Niemic - ME               Av. Municipal,1779 A                                78250000Protesto apÛs 5 dias                                        000179
1                   000902692011248461-13275                  0000000000000013275900000000002               0113275     08121400000000500000000000012N041214000000000000001670000000000000000000000000000000000000000000000114567761000134ABEN INTERMEDIACAO CARTORARIA LTDA ME   Av. Leopoldino de Oliveira,4464-Ed. Diam            38060000Protesto apÛs 5 dias                                        000180
1                   000902692011248461-13276                  0000000000000013276700000000002               0113276     08121400000000500000000000012N041214000000000000001670000000000000000000000000000000000000000000000114547088000170SPEED FOX ASSESSORIA CARTORARIA LTDA ME Rua General Dionisio,410-LOJA                       25075095Protesto apÛs 5 dias                                        000181
1                   000902692011248461-13277                  0000000000000013277500000000002               0113277     08121400000000025500000000012N041214000000000000000090000000000000000000000000000000000000000000000114911193000147LOPES E LOPES INTERMEDIA√á√ÉO CARTOR√ÅRIRua Marechal Deodoro,444-loja 322                   36010904Protesto apÛs 5 dias                                        000182
1                   000902692011248461-13278                  0000000000000013278300000000002               0113278     08121400000000400000000000012N041214000000000000001330000000000000000000000000000000000000000000000115220454000226RENAULT ASSOCIADOS INTERMEDIACOES CARTORRua Benedito Valadares,520-LJ 03                    35660630Protesto apÛs 5 dias                                        000183
1                   000902692011248461-13279                  0000000000000013279100000000002               0113279     08121400000000500000000000012N041214000000000000001670000000000000000000000000000000000000000000000120019555000192SERV MASTER SERVICOS E LOGISTICA LTDA ñMRua Bar„o do Rio Branco,1089                        16200001Protesto apÛs 5 dias                                        000184
1                   000902692011248461-13280                  0000000000000013280500000000002               0113280     08121400000001000000000000012N041214000000000000003330000000000000000000000000000000000000000000000115447264000165CAMPDOC INTERMEDIA«√O CARTOR¡RIA LTDA ñ Av. Carlos de Ara˙jo Gobbi,325                      13034670Protesto apÛs 5 dias                                        000185
1                   000902692011248461-13281                  0000000000000013281300000000002               0113281     08121400000000500000000000012N041214000000000000001670000000000000000000000000000000000000000000000120603641000148GUARAPARI SERVICOS CARTORARIOS LTDA - MERua Roberto Calmon,140                              29200340Protesto apÛs 5 dias                                        000186
1                   000902692011248461-13282                  0000000000000013282100000000002               0113282     08121400000000500000000000012N041214000000000000001670000000000000000000000000000000000000000000000115328775000168Bagini e Okumura IntermediaÁıes Cartor·rRua Laurindo Borges,1494                            87303240Protesto apÛs 5 dias                                        000187
1                   000902692011248461-13283                  0000000000000013283P00000000002               0113283     08121400000000500000000000012N041214000000000000001670000000000000000000000000000000000000000000000115523647000175TGD ASSESSORIA E CONSULTORIA LTDA       Rua Coronel Antonio Cardoso Pinto,34 A              37640000Protesto apÛs 5 dias                                        000188
1                   000902692011248461-13284                  0000000000000013284800000000002               0113284     08121400000000500000000000012N041214000000000000001670000000000000000000000000000000000000000000000116465255000160Tocantins IntermediaÁ„o Cartor·ria LTDA-RUA RODOVI¡RIA,193-SALA 01                          77805040Protesto apÛs 5 dias                                        000189
1                   000902692011248461-13285                  0000000000000013285600000000002               0113285     08121400000000500000000000012N041214000000000000001670000000000000000000000000000000000000000000000115731322000188MEIRELES SERVI«OS DE APOIO ADMINISTRATIVRua JosÈ Marcelino de Oliveira,374-BAIXO            67030170Protesto apÛs 5 dias                                        000190
1                   000902692011248461-13286                  0000000000000013286400000000002               0113286     08121400000001000000000000012N041214000000000000003330000000000000000000000000000000000000000000000115803475000193PEDRO, BASTOS & JONES SERVI«OS ASMINISTRRua Duque de Caxias,01-SL 31                        28613060Protesto apÛs 5 dias                                        000191
1                   000902692011248461-13287                  0000000000000013287200000000002               0113287     08121400000000500000000000012N041214000000000000001670000000000000000000000000000000000000000000000115872523000103HEITOR PIGHINI BARBADO ME               Rua Senador JosÈ Bonif·cio,312-B                    13800060Protesto apÛs 5 dias                                        000192
1                   000902692011248461-13288                  0000000000000013288000000000002               0113288     08121400000000500000000000012N041214000000000000001670000000000000000000000000000000000000000000000118997889000199CP CAMPO GRANDE INTERMEDIACOES CARTORARIRua Amaral Costa,408-LJ 01                          23050260Protesto apÛs 5 dias                                        000193
1                   000902692011248461-13289                  0000000000000013289900000000002               0113289     08121400000000500000000000012N041214000000000000001670000000000000000000000000000000000000000000000115566079000190Marins Consultoria e IntermediaÁ„o CartoAvenida Brasil,4140-Sala 13                         87503420Protesto apÛs 5 dias                                        000194
1                   000902692011248461-13290                  0000000000000013290200000000002               0113290     08121400000001000000000000012N041214000000000000003330000000000000000000000000000000000000000000000115703802000135Assecar Apoio Administrativo de MArilia Rua Carlos Gomes,343                                17501000Protesto apÛs 5 dias                                        000195
1                   000902692011248461-13291                  0000000000000013291000000000002               0113291     08121400000000500000000000012N041214000000000000001670000000000000000000000000000000000000000000000115723896000104Walter Shuji Kishi eireli-ME            Avenida Presidente Get˙io Vargas,2214-Lo            45990289Protesto apÛs 5 dias                                        000196
1                   000902692011248461-13292                  0000000000000013292900000000002               0113292     08121400000000500000000000012N041214000000000000001670000000000000000000000000000000000000000000000115665799000102OLIVEIRA E PEIXOTO LTDA                 Rua Barbosa de Sousa,25-SL 006 - Centro             45203640Protesto apÛs 5 dias                                        000197
1                   000902692011248461-13293                  0000000000000013293700000000002               0113293     08121400000000500000000000012N041214000000000000001670000000000000000000000000000000000000000000000116911487000102L & A INTERMEDIA«’ES CARTOR¡RIAS LTDA   Rua Marechal Deodoro,111                            48005020Protesto apÛs 5 dias                                        000198
1                   000902692011248461-13294                  0000000000000013294500000000002               0113294     08121400000000500000000000012N041214000000000000001670000000000000000000000000000000000000000000000116615091000100MEG INTERMEDIA«√O CARTOR¡RIA            Av. 13,625                                          13500340Protesto apÛs 5 dias                                        000199
1                   000902692011248461-13295                  0000000000000013295300000000002               0113295     08121400000000200000000000012N041214000000000000000670000000000000000000000000000000000000000000000115696350000101Almeida IntermediaÁ„o cartor·ria LTDA MERua JosÈ Brenha Ribeiro,23                          18130495Protesto apÛs 5 dias                                        000200
1                   000902692011248461-13296                  0000000000000013296100000000002               0113296     08121400000000500000000000012N041214000000000000001670000000000000000000000000000000000000000000000119373945000187MR Sistema de IntermediaÁ„o Cartor·ria LRua 29 de Abril,123                                 13256000Protesto apÛs 5 dias                                        000201
1                   000902692011248461-13297                  0000000000000013297P00000000002               0113297     08121400000000500000000000012N041214000000000000001670000000000000000000000000000000000000000000000115761167000142DOC SERVICE SERVI«OS DOCUMENTAIS LTDA   Rua Marechal Floriano Peixoto,1562-Sala             85851020Protesto apÛs 5 dias                                        000202
1                   000902692011248461-13298                  0000000000000013298800000000002               0113298     08121400000000500000000000012N0412140000000000000016700000000000000000000000000000000000000000000001157926280001442 W V INTERMEDIA«√O CARTOR¡RIA LTDA-ME  Rua Marechal Deodoro,44                             12500210Protesto apÛs 5 dias                                        000203
1                   000902692011248461-13299                  0000000000000013299600000000002               0113299     08121400000000500000000000012N041214000000000000001670000000000000000000000000000000000000000000000115779486000185ANA LIDIA ANDRADE VASCONCELOS CISOTTO - Rua M·rio Pedro Vercellino,411                      18550000Protesto apÛs 5 dias                                        000204
1                   000902692011248461-13300                  0000000000000013300300000000002               0113300     08121400000001000000000000012N041214000000000000003330000000000000000000000000000000000000000000000116566686000112SOMARX INTERMEDIA«√O CARTOR¡RIA LTDA    QN 07 - AREA ESPECIAL 1 TERREO LOJA,11-R            71805731Protesto apÛs 5 dias                                        000205
1                   000902692011248461-13301                  0000000000000013301100000000002               0113301     08121400000001000000000000012N041214000000000000003330000000000000000000000000000000000000000000000116651907000150COTIA CENTRAL - SERVI«OS ADMINISTRATIVOSRua Joaquim Nunes Filho,204                         06717180Protesto apÛs 5 dias                                        000206
1                   000902692011248461-13302                  0000000000000013302P00000000002               0113302     08121400000001500000000000012N041214000000000000005000000000000000000000000000000000000000000000000117013577000130RIBEIRO INTERMEDIA«√O CARTOR¡RIA LTDA.  Av. Presidente Marques,1212                         78045008Protesto apÛs 5 dias                                        000207
1                   000902692011248461-13303                  0000000000000013303800000000002               0113303     08121400000000500000000000012N041214000000000000001670000000000000000000000000000000000000000000000116455215000137MIM Consultoria, Assessoria e IntermediaRua Gal. Bacelar,504                                96200370Protesto apÛs 5 dias                                        000208
1                   000902692011248461-13304                  0000000000000013304600000000002               0113304     08121400000000500000000000012N041214000000000000001670000000000000000000000000000000000000000000000116850829000113FORMAGIO & MILARE LTDA ME               Rua Princesa Izabel,994                             17900000Protesto apÛs 5 dias                                        000209
1                   000902692011248461-13305                  0000000000000013305400000000002               0113305     08121400000001000000000000012N041214000000000000003330000000000000000000000000000000000000000000000116988183000135MENEZES & AMARAL INTERMEDIA«√O CARTOR¡RIRua Israel Pinheiro,2500-LJ 1                       35020220Protesto apÛs 5 dias                                        000210
1                   000902692011248461-13306                  0000000000000013306200000000002               0113306     08121400000000500000000000012N041214000000000000001670000000000000000000000000000000000000000000000117163022000175DEFTHJ CONSULTORIA E ASSESSORIA CARTOR¡RR. Pedro ProcÛpio,48                                06501130Protesto apÛs 5 dias                                        000211
1                   000902692011248461-13307                  0000000000000013307000000000002               0113307     08121400000000500000000000012N041214000000000000001670000000000000000000000000000000000000000000000116943517000154SOUZA SERVI«OS DE DOCUMENTOS S/S LTDA EPR. Coronel Aureliano de Camargo,666                 18270170Protesto apÛs 5 dias                                        000212
1                   000902692011248461-13308                  0000000000000013308900000000002               0113308     08121400000000500000000000012N041214000000000000001670000000000000000000000000000000000000000000000117206713000109FABIO TOMAZ CARDOSO - ME                Rua Primeiro de Maio,202-SL 507                     09015030Protesto apÛs 5 dias                                        000213
1                   000902692011248461-13309                  0000000000000013309700000000002               0113309     08121400000000500000000000012N041214000000000000001670000000000000000000000000000000000000000000000111834699000373REGIS ORLANDINI ASSESSORIA CARTOR¡RIA EPRua Dr. Frankilin de Castro,238                     38183120Protesto apÛs 5 dias                                        000214
1                   000902692011248461-13310                  0000000000000013310000000000002               0113310     08121400000000500000000000012N041214000000000000001670000000000000000000000000000000000000000000000116899904000130E. F. AURELIA NEGOCIOS E INTERMEDIA«√O CRua Liberdade,596                                   06853700Protesto apÛs 5 dias                                        000215
1                   000902692011248461-13311                  0000000000000013311900000000002               0113311     08121400000000500000000000012N041214000000000000001670000000000000000000000000000000000000000000000116949930000126CIRENO FILHO INTERMEDIA«√O CARTORARIA   Rua Carlos Eduardo Nichele,1382-LJ01                83833022Protesto apÛs 5 dias                                        000216
1                   000902692011248461-13312                  0000000000000013312700000000002               0113312     08121400000000350000000000012N041214000000000000001170000000000000000000000000000000000000000000000116811847000196TOLEDO & PEREIRA VASSALO LTDA ME        Rua Santos Pereira,212                              37500026Protesto apÛs 5 dias                                        000217
1                   000902692011248461-13313                  0000000000000013313500000000002               0113313     08121400000001000000000000012N041214000000000000003330000000000000000000000000000000000000000000000116819238000183CARLOS ALBERTO ROCHA DE MELO - ME       R. HermÛgenes Freire da Costa,02-LJ 05              28940000Protesto apÛs 5 dias                                        000218
1                   000902692011248461-13314                  0000000000000013314300000000002               0113314     08121400000000500000000000012N041214000000000000001670000000000000000000000000000000000000000000000116945793000151JLM INTERMEDIA«√O CARTOR¡RIA LTDA       Av. Tiradentes,618-LJ 03                            36307348Protesto apÛs 5 dias                                        000219
1                   000902692011248461-13315                  0000000000000013315100000000002               0113315     08121400000001750000000000012N041214000000000000005830000000000000000000000000000000000000000000000116927836000176C. M. MILROT CONSULTORIA E INTERMEDIA«√OAl. Ribeir„o Preto,551-SL 24                        01331001Protesto apÛs 5 dias                                        000220
1                   000902692011248461-13316                  0000000000000013316P00000000002               0113316     08121400000000500000000000012N041214000000000000001670000000000000000000000000000000000000000000000116935668000160FLASH DOC INTERMEDIA«’ES CARTORARIAS    Av. Caetano Barrela,209                             06763460Protesto apÛs 5 dias                                        000221
1                   000902692011248461-13317                  0000000000000013317800000000002               0113317     08121400000000500000000000012N041214000000000000001670000000000000000000000000000000000000000000000116964316000133CAMARGO & ESTRACINE INTERMEDIA«√O CARTORRua Miguel Anselmo,260                              15900000Protesto apÛs 5 dias                                        000222
1                   000902692011248461-13318                  0000000000000013318600000000002               0113318     08121400000001000000000000012N041214000000000000003330000000000000000000000000000000000000000000000117829100000128JS & BOIM INTERMEDIA«√O CARTOR¡RIA LTDA Rua Tabatinguera,140-SL 409 e 410                   01020000Protesto apÛs 5 dias                                        000223
1                   000902692011248461-13319                  0000000000000013319400000000002               0113319     08121400000001000000000000012N041214000000000000003330000000000000000000000000000000000000000000000112587280000165RTC INTERMEDIA«√O CARTOR¡RIA LTDA - ME  Rua Montenegro,171 A                                11410040Protesto apÛs 5 dias                                        000224
1                   000902692011248461-13320                  0000000000000013320800000000002               0113320     08121400000000500000000000012N041214000000000000001670000000000000000000000000000000000000000000000116729531000150GOMES VERAS INTERMEDIA«√O CARTOR¡RIA LTDRua Maranh„o,763-Sala 17 R                          65901590Protesto apÛs 5 dias                                        000225
1                   000902692011248461-13321                  0000000000000013321600000000002               0113321     08121400000002000000000000012N041214000000000000006670000000000000000000000000000000000000000000000116970183000108NR INTERMEDIA«√O CARTOR¡RIA LTDA        Av. Dom Luis,500-Piso L0, Loja 38, Shopp            60160196Protesto apÛs 5 dias                                        000226
1                   000902692011248461-13322                  0000000000000013322400000000002               0113322     08121400000000500000000000012N041214000000000000001670000000000000000000000000000000000000000000000117103695000210Vale Rio - IntermediaÁ„o Cartor·ria LtdaRua do ParaÌso,97-SL 29                             48903050Protesto apÛs 5 dias                                        000227
1                   000902692011248461-13323                  0000000000000013323200000000002               0113323     08121400000000500000000000012N041214000000000000001670000000000000000000000000000000000000000000000117103695000130VALE RIO - INTERMEDIA«√O CARTOR¡RIA LTDAPraÁa Pio XII,290-2∫ Andar, SL 01                   56304430Protesto apÛs 5 dias                                        000228
1                   000902692011248461-13324                  0000000000000013324000000000002               0113324     08121400000001000000000000012N041214000000000000003330000000000000000000000000000000000000000000000117488037000103LG INTERMEDIA«√O CARTOR¡RIA LTDA ME     Rua Rafael Nascimento,300 C                         75901290Protesto apÛs 5 dias                                        000229
1                   000902692011248461-13325                  0000000000000013325900000000002               0113325     08121400000001000000000000012N041214000000000000003330000000000000000000000000000000000000000000000117197147000116POSTCAR INTERMEDIA«√O CARTOR¡RIA LTDA   Rua Amaro Genari,40-Sala 33                         09810270Protesto apÛs 5 dias                                        000230
1                   000902692011248461-13326                  0000000000000013326700000000002               0113326     08121400000000300000000000012N041214000000000000001000000000000000000000000000000000000000000000000117216619000130F E M INTERMEDIA«√O CARTORARIA LTDA ME  Av. Dom Pedro II,135-Sala 22                        37470000Protesto apÛs 5 dias                                        000231
1                   000902692011248461-13327                  0000000000000013327500000000002               0113327     08121400000000500000000000012N041214000000000000001670000000000000000000000000000000000000000000000112762841000115SM GERENCIAMENTO DE CERTID’ES E DOCUMENTRua 18,81                                           76380000Protesto apÛs 5 dias                                        000232
1                   000902692011248461-13328                  0000000000000013328300000000002               0113328     08121400000000500000000000012N041214000000000000001670000000000000000000000000000000000000000000000118325368000195FERREIRA CAMPOS CONSULTORIA E INTERMEDIARua Joaquim Manuel,248                              46430000Protesto apÛs 5 dias                                        000233
1                   000902692011248461-13329                  0000000000000013329100000000002               0113329     08121400000001500000000000012N041214000000000000005000000000000000000000000000000000000000000000000117234137000103Postal Services - Assessoria e ServiÁos PÁ das Orquideas,186-SL 04 | 1∫ Andar               06453002Protesto apÛs 5 dias                                        000234
1                   000902692011248461-13330                  0000000000000013330500000000002               0113330     08121400000000500000000000012N041214000000000000001670000000000000000000000000000000000000000000000117344439000134Carneiro e Santana IntermediaÁ„o Cartor·Rua Brasil,210-SALA A                               19800100Protesto apÛs 5 dias                                        000235
1                   000902692011248461-13331                  0000000000000013331300000000002               0113331     08121400000000500000000000012N041214000000000000001670000000000000000000000000000000000000000000000117474125000156MAGAVIX INTERMEDIA«√O E LOGISTICA DE DISRua Amap·,1777                                      87704070Protesto apÛs 5 dias                                        000236
1                   000902692011248461-13332                  0000000000000013332100000000002               0113332     08121400000000500000000000012N041214000000000000001670000000000000000000000000000000000000000000000118726605000120OLIVEIRA CECHET INTERMEDIA«√O CARTOR¡RIARua Cleriston Andrade,132-QD 23 LT 03 SL            47850000Protesto apÛs 5 dias                                        000237
1                   000902692011248461-13333                  0000000000000013333P00000000002               0113333     08121400000000500000000000012N041214000000000000001670000000000000000000000000000000000000000000000117569606000145RP SERVI«OS CARTORARIOS LTDA            Av. Santos Dumont,3257-Comercial MM501 L            42700000Protesto apÛs 5 dias                                        000238
1                   000902692011248461-13334                  0000000000000013334800000000002               0113334     08121400000000500000000000012N041214000000000000001670000000000000000000000000000000000000000000000118532030000104ASSESSORIA POSTAL LTDA - ME             Rua 22,1225                                         38300076Protesto apÛs 5 dias                                        000239
1                   000902692011248461-13335                  0000000000000013335600000000002               0113335     08121400000000400000000000012N041214000000000000001330000000000000000000000000000000000000000000000109532074000143OTTIMIZA ASSESSORIA CARTORARIA LTDA - MERua Raimundo Chaves,1584                            59064390Protesto apÛs 5 dias                                        000240
1                   000902692011248461-13336                  0000000000000013336400000000002               0113336     08121400000000500000000000012N041214000000000000001670000000000000000000000000000000000000000000000118275563000158FEITOZA SERVI«OS POSTAL LTDA            Rua AntÙnio Guimar„es,604                           65631100Protesto apÛs 5 dias                                        000241
1                   000902692011248461-13337                  0000000000000013337200000000002               0113337     08121400000000500000000000012N041214000000000000001670000000000000000000000000000000000000000000000117497344000150VAP POSTAL INTERMEDIA«√O CARTOR¡RIA LTDARua Teodorico Tourinho,304                          39800010Protesto apÛs 5 dias                                        000242
1                   000902692011248461-13338                  0000000000000013338000000000002               0113338     08121400000000500000000000012N041214000000000000001670000000000000000000000000000000000000000000000113622593000170Moraes & Vessoni Serv. e Ass. CartorariaRua Paran·,629                                      19900021Protesto apÛs 5 dias                                        000243
1                   000902692011248461-13339                  0000000000000013339900000000002               0113339     08121400000000500000000000012N041214000000000000001670000000000000000000000000000000000000000000000117736384000108JANAINA FERREIRA DE TOLEDO PEREIRA      Rua Vanor Junqueira Franco,300-Fundos               14701010Protesto apÛs 5 dias                                        000244
1                   000902692011248461-13340                  0000000000000013340200000000002               0113340     08121400000000700000000000012N041214000000000000002330000000000000000000000000000000000000000000000117966691000185GERENCIAMENTO DE CERTIDOES E DOCUMENTOS Rua Cincinato Pinto,297-SL 105                      57020670Protesto apÛs 5 dias                                        000245
1                   000902692011248461-13341                  0000000000000013341000000000002               0113341     08121400000000350000000000012N041214000000000000001170000000000000000000000000000000000000000000000117882102000180JK INTERMEDIA«’ES CARTOR¡RIAS           Av. Francisco Monteiro,95                           09400310Protesto apÛs 5 dias                                        000246
1                   000902692011248461-13342                  0000000000000013342900000000002               0113342     08121400000000300000000000012N041214000000000000001000000000000000000000000000000000000000000000000118268113000138LINS E SILVA INTERMEDIA«’ES CARTOR¡RIAS Rua Visconde de Campo Alegre,149-1∫ Anda            54505370Protesto apÛs 5 dias                                        000247
1                   000902692011248461-13343                  0000000000000013343700000000002               0113343     08121400000000500000000000012N041214000000000000001670000000000000000000000000000000000000000000000120794197000195ANH SERVI«OS CARTOR¡RIOS E DOCUMENTAIS LRua AntÙnio Teles de Menezes,41-SL 407              25520630Protesto apÛs 5 dias                                        000248
1                   000902692011248461-13344                  0000000000000013344500000000002               0113344     08121400000001000000000000012N041214000000000000003330000000000000000000000000000000000000000000000118133083000152MALTAURO BEZERRA CONSULTORIA E INTERMEDIAv. Tancredo Neves,1485-SL 408 | Ed. Esp            41820021Protesto apÛs 5 dias                                        000249
