0134CARTORIO POSTAL(RODRIGUES E VIEIRA LTDA)22052012BFOSDTTPR0000080008000800080000     00421721000                                                                                                                                                                                                                                                                                                                                                                                                                                                                                                                 0001
1134           0001                  RODRIGO BRAVO & IRMAOS LTDA                  RODRIGO BRAVO & IRMAOS LTDA03321060000102                     104 NORTE RUA NE 01 N 4177020542              PALMASTO               DMI     13313405072009050820090010000000000760000000000007600              PALMAS A1                     GISLANY RITA DOS SANTOS 00200098739948153                                  ACNE 02 CONJ. 03 LT 3077000000              PALMASTO00           000000000000000000 00000000                CENTRO0000000000000000000000000000000000000000000000000                                        0002
1134           0001                  RODRIGO BRAVO & IRMAOS LTDA                  RODRIGO BRAVO & IRMAOS LTDA03321060000102                     104 NORTE RUA NE 01 N 4177020542              PALMASTO               DMI     11476412082008120920080010000000000869000000000008690              PALMAS A1                  CARLOS CESAR COSTA DO CARMO00200001328125173                             607 NORTE AL 17 LT 16 QI 2277000000              PALMASTO00           000000000000000000 00000000                CENTRO0000000000000000000000000000000000000000000000000                                        0003
1134           0001                  RODRIGO BRAVO & IRMAOS LTDA                  RODRIGO BRAVO & IRMAOS LTDA03321060000102                     104 NORTE RUA NE 01 N 4177020542              PALMASTO               DMI     12497010112009101220090010000000000830000000000008300              PALMAS A1                 FRANCINEIDE PEREIRA DE SOUSA00200002203699175                             SANTO AMARO AL 02 LT 02QI H77000000              PALMASTO00           000000000000000000 00000000                CENTRO0000000000000000000000000000000000000000000000000                                        0004
1134           0001                  RODRIGO BRAVO & IRMAOS LTDA                  RODRIGO BRAVO & IRMAOS LTDA03321060000102                     104 NORTE RUA NE 01 N 4177020542              PALMASTO               DMI      7480630122009300120100010000000002820000000000028200              PALMAS A1                     LILIANE BEZERRA DE SOUSA00200069194670110                                ARSE 12 QI H LT 36 AL 0877000000              PALMASTO00           000000000000000000 00000000                CENTRO0000000000000000000000000000000000000000000000000                                        0005
1134           0001                  RODRIGO BRAVO & IRMAOS LTDA                  RODRIGO BRAVO & IRMAOS LTDA03321060000102                     104 NORTE RUA NE 01 N 4177020542              PALMASTO               DMI     11237115022009150320090010000000001070000000000010700              PALMAS A1              MARINEZ ALVES DA SILVA CARVALHO00200058880194100                                 405 N AL 15 QI 15 LT 0177000000              PALMASTO00           000000000000000000 00000000                CENTRO0000000000000000000000000000000000000000000000000                                        0006
1134           0001                  RODRIGO BRAVO & IRMAOS LTDA                  RODRIGO BRAVO & IRMAOS LTDA03321060000102                     104 NORTE RUA NE 01 N 4177020542              PALMASTO               DMI     12429720052009200620090010000000000400000000000004000              PALMAS A1                    WILACI DE OLIVEIRA SANTOS00200086189433120                              1306 SUL AL 05 LT 22 QI 0477000000              PALMASTO00           000000000000000000 00000000                CENTRO0000000000000000000000000000000000000000000000000                                        0007
1134           0001                  RODRIGO BRAVO & IRMAOS LTDA                  RODRIGO BRAVO & IRMAOS LTDA03321060000102                     104 NORTE RUA NE 01 N 4177020542              PALMASTO               DMI      8722328012009280220090010000000000857900000000008579              PALMAS A1                 JOAO BATISTA SALES NAZANERO 00200036424340106                              606 S AL HM 08 CS 09 LT 0377000000              PALMASTO00           000000000000000000 00000000                CENTRO0000000000000000000000000000000000000000000000000                                        0008
1134           0001                  RODRIGO BRAVO & IRMAOS LTDA                  RODRIGO BRAVO & IRMAOS LTDA03321060000102                     104 NORTE RUA NE 01 N 4177020542              PALMASTO               DMI     15113130112009301220090010000000000740000000000007400              PALMAS A1                      GRACIELY DINIZ OLIVEIRA00200098626159153                                     804 SUL AL 06 LT 6977000000              PALMASTO00           000000000000000000 00000000                CENTRO0000000000000000000000000000000000000000000000000                                        0009
9134CARTORIO POSTAL(RODRIGUES E VIEIRA LTDA)2205201200024000000000000083469                                                                                                                                                                                                                                                                                                                                                                                                                                                                                                                                         0010