0134CARTORIO POSTAL(RODRIGUES E VIEIRA LTDA)15052012BFOSDTTPR0000060229022902280001     00421721000                                                                                                                                                                                                                                                                                                                                                                                                                                                                                                                 0001
1134           0001                  RODRIGO BRAVO & IRMAOS LTDA                  RODRIGO BRAVO & IRMAOS LTDA03321060000366       AV TOCANTINS QD 16 LOTE 04  , SANTA FÉ77270000              PALMASTO               DMI   31786/0610082008100920080010000000000800000000000008000              PALMAS A1                         WILSON MOURA MARTINS00200000171353110                   RUA  CASTRO ALVES QD 13 LT 03 CASA 0477270000              PALMASTO00           000000000000000000 00000000                AURENY0000000000000000000000000000000000000000000000000                                        0002
1134           0001                  RODRIGO BRAVO & IRMAOS LTDA                  RODRIGO BRAVO & IRMAOS LTDA03321060000366       AV TOCANTINS QD 16 LOTE 04  , SANTA FÉ77270000              PALMASTO               DMI   27874/0306022008060320080010000000000610000000000006100              PALMAS A1                   WHANDERLAN MOREIRA BARBOSA00200071268782149                                   307 N AL 20 LT 27    77270000              PALMASTO00           000000000000000000 00000000                CENTRO0000000000000000000000000000000000000000000000000                                        0003
1134           0001                  RODRIGO BRAVO & IRMAOS LTDA                  RODRIGO BRAVO & IRMAOS LTDA03321060000366       AV TOCANTINS QD 16 LOTE 04  , SANTA FÉ77270000              PALMASTO               DMI   31093/0315042008150520080010000000001440000000000014400              PALMAS A1                      WESLEY MOREIRA DA SILVA00200002300799111                                     RUA 05 QD 30 LT 32A77270000              PALMASTO00           000000000000000000 00000000                AURENY0000000000000000000000000000000000000000000000000                                        0004
1134           0001                  RODRIGO BRAVO & IRMAOS LTDA                  RODRIGO BRAVO & IRMAOS LTDA03321060000366       AV TOCANTINS QD 16 LOTE 04  , SANTA FÉ77270000              PALMASTO               DMI   19238/0915122007150120080010000000001430000000000014300              PALMAS A1                         WESLEY ALVES DE MELO00200070072000104                              AV AMARALINA QD 25 A LT 3077270000              PALMASTO00           000000000000000000 00000000                AURENY0000000000000000000000000000000000000000000000000                                        0005
1134           0001                  RODRIGO BRAVO & IRMAOS LTDA                  RODRIGO BRAVO & IRMAOS LTDA03321060000366       AV TOCANTINS QD 16 LOTE 04  , SANTA FÉ77270000              PALMASTO               DMI   22065/0610122007100120080010000000000590000000000005900              PALMAS A1                      WELDON PAULO COSTA BRAZ00200002900702100                                      RUA 01 QD.43 LT.0877270000              PALMASTO00           000000000000000000 00000000                AURENY0000000000000000000000000000000000000000000000000                                        0006
1134           0001                  RODRIGO BRAVO & IRMAOS LTDA                  RODRIGO BRAVO & IRMAOS LTDA03321060000366       AV TOCANTINS QD 16 LOTE 04  , SANTA FÉ77270000              PALMASTO               DMI   35146/0605112008051220080010000000000520000000000005200              PALMAS A1                  WEKISON NOQUEIRA DOS SANTOS00200002069382176                                     RUA 24 QD 190 LT 0477270000              PALMASTO00           000000000000000000 00000000                AURENY0000000000000000000000000000000000000000000000000                                        0007
1134           0001                  RODRIGO BRAVO & IRMAOS LTDA                  RODRIGO BRAVO & IRMAOS LTDA03321060000366       AV TOCANTINS QD 16 LOTE 04  , SANTA FÉ77270000              PALMASTO               DMI   34428/0410092008101020080010000000000400000000000004000              PALMAS A1                 WECLEY WANDER CASTELO BRANCO00200002023596114                                    RUA T-19 QD 34 LT 0377270000              PALMASTO00           000000000000000000 00000000            TAQUARALTO0000000000000000000000000000000000000000000000000                                        0008
1134           0001                  RODRIGO BRAVO & IRMAOS LTDA                  RODRIGO BRAVO & IRMAOS LTDA03321060000366       AV TOCANTINS QD 16 LOTE 04  , SANTA FÉ77270000              PALMASTO               DMI   31666/0810102008101120080010000000000520000000000005200              PALMAS A1                     VIVIANE PEREIRA QUINTINO00200003748346107                                   RUA NC 12 QD 24 LT 1777270000              PALMASTO00           000000000000000000 00000000                AURENY0000000000000000000000000000000000000000000000000                                        0009
1134           0001                  RODRIGO BRAVO & IRMAOS LTDA                  RODRIGO BRAVO & IRMAOS LTDA03321060000366       AV TOCANTINS QD 16 LOTE 04  , SANTA FÉ77270000              PALMASTO               DMI   17159/1827022008270320080010000000001047500000000010475              PALMAS A1                         VILMAR DO NASCIMENTO00200097656291172                                     RUA 05 QD 31 LT 01B77270000              PALMASTO00           000000000000000000 00000000                AURENY0000000000000000000000000000000000000000000000000                                        0010
1134           0001                  RODRIGO BRAVO & IRMAOS LTDA                  RODRIGO BRAVO & IRMAOS LTDA03321060000366       AV TOCANTINS QD 16 LOTE 04  , SANTA FÉ77270000              PALMASTO               DMI   32380/0522072008220820080010000000000430000000000004300              PALMAS A1                       VALDONEZ AIRES RIBEIRO00200000608350109                                CHACARA MARA ROSA  KM 0677270000              PALMASTO00           000000000000000000 00000000                AURENY0000000000000000000000000000000000000000000000000                                        0011
1134           0001                  RODRIGO BRAVO & IRMAOS LTDA                  RODRIGO BRAVO & IRMAOS LTDA03321060000366       AV TOCANTINS QD 16 LOTE 04  , SANTA FÉ77270000              PALMASTO               DMI   34152/0230072008300620080010000000000810000000000008100              PALMAS A1                   VALDINEI PEREIRA GONÇALVES00200000596135130                 AV FRANCISCO GALVAO DA CRUZ QD 41 LT 1877270000              PALMASTO00           000000000000000000 00000000                AURENY0000000000000000000000000000000000000000000000000                                        0012
1134           0001                  RODRIGO BRAVO & IRMAOS LTDA                  RODRIGO BRAVO & IRMAOS LTDA03321060000366       AV TOCANTINS QD 16 LOTE 04  , SANTA FÉ77270000              PALMASTO               DMI   19715/1523072008230820080010000000000940000000000009400              PALMAS A1                   VALDENIZA LUCINDA DE MOURA00200002655866312                                    RUA 09 QD 26 LT 24 A77270000              PALMASTO00           000000000000000000 00000000                CENTRO0000000000000000000000000000000000000000000000000                                        0013
1134           0001                  RODRIGO BRAVO & IRMAOS LTDA                  RODRIGO BRAVO & IRMAOS LTDA03321060000366       AV TOCANTINS QD 16 LOTE 04  , SANTA FÉ77270000              PALMASTO               DMI   43792/0224112008241220080010000000001780000000000017800              PALMAS A1                     VALDEMIR OLIVERIA AMARAL00200001084147106                                     RUA T22 QD 38 LT 1877270000              PALMASTO00           000000000000000000 00000000                AURENY0000000000000000000000000000000000000000000000000                                        0014
1134           0001                  RODRIGO BRAVO & IRMAOS LTDA                  RODRIGO BRAVO & IRMAOS LTDA03321060000366       AV TOCANTINS QD 16 LOTE 04  , SANTA FÉ77270000              PALMASTO               DMI   18490/1015122007150120080010000000001845000000000018450              PALMAS A1                           VALDECI DA SILVA  00200001953511180                                           AV. TOCANTINS77270000              PALMASTO00           000000000000000000 00000000            TAQUARALTO0000000000000000000000000000000000000000000000000                                        0015
1134           0001                  RODRIGO BRAVO & IRMAOS LTDA                  RODRIGO BRAVO & IRMAOS LTDA03321060000366       AV TOCANTINS QD 16 LOTE 04  , SANTA FÉ77270000              PALMASTO               DMI   34202/0308072008080820080010000000000660000000000006600              PALMAS A1                     TRAGINO PEREIRA SANTIAGO00200026127830168                                    AV SALES QD 25 LT 0177270000              PALMASTO00           000000000000000000 00000000                AURENY0000000000000000000000000000000000000000000000000                                        0016
1134           0001                  RODRIGO BRAVO & IRMAOS LTDA                  RODRIGO BRAVO & IRMAOS LTDA03321060000366       AV TOCANTINS QD 16 LOTE 04  , SANTA FÉ77270000              PALMASTO               DMI   25390/1216092008161020080010000000001270000000000012700              PALMAS A1                       THELNI VELOSO DE SOUSA00200066334110144                                     RUA 38 QD 154 LT 1177270000              PALMASTO00           000000000000000000 00000000                AURENY0000000000000000000000000000000000000000000000000                                        0017
1134           0001                  RODRIGO BRAVO & IRMAOS LTDA                  RODRIGO BRAVO & IRMAOS LTDA03321060000366       AV TOCANTINS QD 16 LOTE 04  , SANTA FÉ77270000              PALMASTO               DMI   25559/0527022008270320080010000000000880000000000008800              PALMAS A1                     TEREZINHA LOPES DE SOUSA00200002552260128                                     RUA 35 QD 149 LT 1577270000              PALMASTO00           000000000000000000 00000000                AURENY0000000000000000000000000000000000000000000000000                                        0018
1134           0001                  RODRIGO BRAVO & IRMAOS LTDA                  RODRIGO BRAVO & IRMAOS LTDA03321060000366       AV TOCANTINS QD 16 LOTE 04  , SANTA FÉ77270000              PALMASTO               DMI   26241/0415022008150320080010000000000970000000000009700              PALMAS A1                 TELMA REGINA MOREIRA FREITAS00200012624521801                                     307 N AL 26 M LT 1277000000              PALMASTO00           000000000000000000 00000000                CENTRO0000000000000000000000000000000000000000000000000                                        0019
1134           0001                  RODRIGO BRAVO & IRMAOS LTDA                  RODRIGO BRAVO & IRMAOS LTDA03321060000366       AV TOCANTINS QD 16 LOTE 04  , SANTA FÉ77270000              PALMASTO               DMI   20100/0815122007150120080010000000002280000000000022800              PALMAS A1                      SIMONE SIMAO DOS SANTOS00200076844250134                                     RUA 32 QD 121 LT 2177270000              PALMASTO00           000000000000000000 00000000                AURENY0000000000000000000000000000000000000000000000000                                        0020
1134           0001                  RODRIGO BRAVO & IRMAOS LTDA                  RODRIGO BRAVO & IRMAOS LTDA03321060000366       AV TOCANTINS QD 16 LOTE 04  , SANTA FÉ77270000              PALMASTO               DMI   17569/1215012008150220080010000000000490000000000004900              PALMAS A1                         SIMONE FERREIRA LIMA00200002498897143                                 RUA MS 14 QD.08A LT.08D77270000              PALMASTO00           000000000000000000 00000000                CENTRO0000000000000000000000000000000000000000000000000                                        0021
1134           0001                  RODRIGO BRAVO & IRMAOS LTDA                  RODRIGO BRAVO & IRMAOS LTDA03321060000366       AV TOCANTINS QD 16 LOTE 04  , SANTA FÉ77270000              PALMASTO               DMI   22428/0825022008250320080010000000001480000000000014800              PALMAS A1                        SILVIO SOARES TURIBIO00200080722423187                                     RUA T-31 QD31 LT 0677270000              PALMASTO00           000000000000000000 00000000            TAQUARALTO0000000000000000000000000000000000000000000000000                                        0022
1134           0001                  RODRIGO BRAVO & IRMAOS LTDA                  RODRIGO BRAVO & IRMAOS LTDA03321060000366       AV TOCANTINS QD 16 LOTE 04  , SANTA FÉ77270000              PALMASTO               DMI   37529/0328082008280920080010000000000680000000000006800              PALMAS A1                SIDILENE CONCEICAO DE SANTANA00200003006958101                              RUA CIBIPIRUNA QD. 08 LT1477270000              PALMASTO00           000000000000000000 00000000                AURENY0000000000000000000000000000000000000000000000000                                        0023
1134           0001                  RODRIGO BRAVO & IRMAOS LTDA                  RODRIGO BRAVO & IRMAOS LTDA03321060000366       AV TOCANTINS QD 16 LOTE 04  , SANTA FÉ77270000              PALMASTO               DMI   34705/0514092008141020080010000000000360000000000003600              PALMAS A1                SERGIO ADRIANO BORGES RAMALHO00200001334046174                                      RUA 06 QD 03 LT 0977270000              PALMASTO00           000000000000000000 00000000                AURENY0000000000000000000000000000000000000000000000000                                        0024
1134           0001                  RODRIGO BRAVO & IRMAOS LTDA                  RODRIGO BRAVO & IRMAOS LTDA03321060000366       AV TOCANTINS QD 16 LOTE 04  , SANTA FÉ77270000              PALMASTO               DMI   26167/0915072008150820080010000000000740000000000007400              PALMAS A1                SELMA ALVES DE SOUSA LOURENÇO00200002233362110                         RUA DEP OLIVEIRA QD 36A LT 09  77270000              PALMASTO00           000000000000000000 00000000                AURENY0000000000000000000000000000000000000000000000000                                        0025
1134           0001                  RODRIGO BRAVO & IRMAOS LTDA                  RODRIGO BRAVO & IRMAOS LTDA03321060000366       AV TOCANTINS QD 16 LOTE 04  , SANTA FÉ77270000              PALMASTO               DMI   18388/1010012008100220080010000000000800000000000008000              PALMAS A1            SEBASTIAO MARQUES MENDES DE SOUZA00200038267527168                                      RUA 04 QD 46 LT 0577270000              PALMASTO00           000000000000000000 00000000                AURENY0000000000000000000000000000000000000000000000000                                        0026
1134           0001                  RODRIGO BRAVO & IRMAOS LTDA                  RODRIGO BRAVO & IRMAOS LTDA03321060000366       AV TOCANTINS QD 16 LOTE 04  , SANTA FÉ77270000              PALMASTO               DMI   34253/0210062008100720080010000000000260000000000002600              PALMAS A1               SEBASTIAO DE OLIVEIRA TEIXEIRA00200088934080159                                      RUA 08 QD 68 LT 0777270000              PALMASTO00           000000000000000000 00000000                AURENY0000000000000000000000000000000000000000000000000                                        0027
1134           0001                  RODRIGO BRAVO & IRMAOS LTDA                  RODRIGO BRAVO & IRMAOS LTDA03321060000366       AV TOCANTINS QD 16 LOTE 04  , SANTA FÉ77270000              PALMASTO               DMI   35529/0407092008071020080010000000000600000000000006000              PALMAS A1                 MANOEL RODRIGUES DE AMARANTE00200054695341115                             RUA GILSON REGO QD 29 LT 2477270000              PALMASTO00           000000000000000000 00000000                AURENY0000000000000000000000000000000000000000000000000                                        0028
1134           0001                  RODRIGO BRAVO & IRMAOS LTDA                  RODRIGO BRAVO & IRMAOS LTDA03321060000366       AV TOCANTINS QD 16 LOTE 04  , SANTA FÉ77270000              PALMASTO               DMI   34530/0409092008091020080010000000000340000000000003400              PALMAS A1                      ROSIVALDO MIRANDA SILVA00200005238597401                                   RUA 04 CHAC  28 LT 0677270000              PALMASTO00           000000000000000000 00000000                AURENY0000000000000000000000000000000000000000000000000                                        0029
1134           0001                  RODRIGO BRAVO & IRMAOS LTDA                  RODRIGO BRAVO & IRMAOS LTDA03321060000366       AV TOCANTINS QD 16 LOTE 04  , SANTA FÉ77270000              PALMASTO               DMI   30961/0210032008100420080010000000001250000000000012500              PALMAS A1                       ROSINEI DE ARAUJO MOTA00200003554396117                                    RUA P 02 QD 21 LT 1977270000              PALMASTO00           000000000000000000 00000000                AURENY0000000000000000000000000000000000000000000000000                                        0030
1134           0001                  RODRIGO BRAVO & IRMAOS LTDA                  RODRIGO BRAVO & IRMAOS LTDA03321060000366       AV TOCANTINS QD 16 LOTE 04  , SANTA FÉ77270000              PALMASTO               DMI   18213/1004122007040120080010000000000220000000000002200              PALMAS A1             ROSIMAR LIMA DA FONSECA MEIRELES00200001223061124                                    RUA BAHIA QSW08 LT2477270000              PALMASTO00           000000000000000000 00000000                AURENY0000000000000000000000000000000000000000000000000                                        0031
1134           0001                  RODRIGO BRAVO & IRMAOS LTDA                  RODRIGO BRAVO & IRMAOS LTDA03321060000366       AV TOCANTINS QD 16 LOTE 04  , SANTA FÉ77270000              PALMASTO               DMI   31559/0808102008081120080010000000002750000000000027500              PALMAS A1                    RODRIGO ALVES GOMES SILVA00200089015053120                                      RUA 19 QD 68 LT 2877270000              PALMASTO00           000000000000000000 00000000                AURENY0000000000000000000000000000000000000000000000000                                        0032
1134           0001                  RODRIGO BRAVO & IRMAOS LTDA                  RODRIGO BRAVO & IRMAOS LTDA03321060000366       AV TOCANTINS QD 16 LOTE 04  , SANTA FÉ77270000              PALMASTO               DMI   40457/0323102008231120080010000000000530000000000005300              PALMAS A1                ROBSON MASCARENHAS DOS SANTOS00200001297130154                                      RUA T25 QD30A LT0977270000              PALMASTO00           000000000000000000 00000000            TAQUARALTO0000000000000000000000000000000000000000000000000                                        0033
1134           0001                  RODRIGO BRAVO & IRMAOS LTDA                  RODRIGO BRAVO & IRMAOS LTDA03321060000366       AV TOCANTINS QD 16 LOTE 04  , SANTA FÉ77270000              PALMASTO               DMI   40660/0306112008061220080010000000000180000000000001800              PALMAS A1                       ROBERTH RODRIGUES LIMA00200003545446166                                     RUA 12 QD 70 LT 09 77270000              PALMASTO00           000000000000000000 00000000                AURENY0000000000000000000000000000000000000000000000000                                        0034
1134           0001                  RODRIGO BRAVO & IRMAOS LTDA                  RODRIGO BRAVO & IRMAOS LTDA03321060000366       AV TOCANTINS QD 16 LOTE 04  , SANTA FÉ77270000              PALMASTO               DMI   38926/0520112008201220080010000000000670000000000006700              PALMAS A1                        RAUER BORGES DE ASSIS00200056880324649            RUA STA CATARINA QSE 07 LT 11 CS 01 APTO 02.77270000              PALMASTO00           000000000000000000 00000000                AURENY0000000000000000000000000000000000000000000000000                                        0035
1134           0001                  RODRIGO BRAVO & IRMAOS LTDA                  RODRIGO BRAVO & IRMAOS LTDA03321060000366       AV TOCANTINS QD 16 LOTE 04  , SANTA FÉ77270000              PALMASTO               DMI   34051/0430082008300920080010000000000520000000000005200              PALMAS A1                         MABIL BARBOSA MENDES00200061546690387                                    T31 LT 07 LO 17 C 3177270000              PALMASTO00           000000000000000000 00000000            TAQUARALTO0000000000000000000000000000000000000000000000000                                        0036
1134           0001                  RODRIGO BRAVO & IRMAOS LTDA                  RODRIGO BRAVO & IRMAOS LTDA03321060000366       AV TOCANTINS QD 16 LOTE 04  , SANTA FÉ77270000              PALMASTO               DMI   16669/0820102008201120080010000000001515000000000015150              PALMAS A1                  RAIMUNDO JOSE ALMEIDA SOUSA00200078137306153                                  AV BRASIL  SW 04 LT 0877270000              PALMASTO00           000000000000000000 00000000            TAQUARALTO0000000000000000000000000000000000000000000000000                                        0037
1134           0001                  RODRIGO BRAVO & IRMAOS LTDA                  RODRIGO BRAVO & IRMAOS LTDA03321060000366       AV TOCANTINS QD 16 LOTE 04  , SANTA FÉ77270000              PALMASTO               DMI   23115/0728052008280620080010000000000850000000000008500              PALMAS A1           RAIMUNDA EURICLEIA VIEIRA DA ROCHA00200002350124169                                   RUA 18 QD.145 LT.13  77270000              PALMASTO00           000000000000000000 00000000                AURENY0000000000000000000000000000000000000000000000000                                        0038
1134           0001                  RODRIGO BRAVO & IRMAOS LTDA                  RODRIGO BRAVO & IRMAOS LTDA03321060000366       AV TOCANTINS QD 16 LOTE 04  , SANTA FÉ77270000              PALMASTO               DMI   15374/1521122007210120080010000000000840000000000008400              PALMAS A1                    RAILMA DE SOUZA CIRQUEIRA00200001843018152                                    RUA T 16 QD 19 LT 0677270000              PALMASTO00           000000000000000000 00000000            TAQUARALTO0000000000000000000000000000000000000000000000000                                        0039
1134           0001                  RODRIGO BRAVO & IRMAOS LTDA                  RODRIGO BRAVO & IRMAOS LTDA03321060000366       AV TOCANTINS QD 16 LOTE 04  , SANTA FÉ77270000              PALMASTO               DMI   33226/1110112008101220080010000000000918500000000009185              PALMAS A1                          RAFAEL PEREIRA LIMA00200001502692180                                RUA MARINGA QNW 15 LT 1877270000              PALMASTO00           000000000000000000 00000000                AURENY0000000000000000000000000000000000000000000000000                                        0040
1134           0001                  RODRIGO BRAVO & IRMAOS LTDA                  RODRIGO BRAVO & IRMAOS LTDA03321060000366       AV TOCANTINS QD 16 LOTE 04  , SANTA FÉ77270000              PALMASTO               DMI   31972/0620092008201020080010000000001550000000000015500              PALMAS A1                   PEDRO DOS REIS COELHO NETO00200076943240315                             RUA MATO GROSSO QD 21 LT 1177270000              PALMASTO00           000000000000000000 00000000                AURENY0000000000000000000000000000000000000000000000000                                        0041
1134           0001                  RODRIGO BRAVO & IRMAOS LTDA                  RODRIGO BRAVO & IRMAOS LTDA03321060000366       AV TOCANTINS QD 16 LOTE 04  , SANTA FÉ77270000              PALMASTO               DMI   28386/0105012008050220080010000000000610000000000006100              PALMAS A1                         PAULO CESAR DE SOUSA00200003397780160                              RUA 02 JULHO QD 07 LT 04  77270000              PALMASTO00           000000000000000000 00000000                AURENY0000000000000000000000000000000000000000000000000                                        0042
1134           0001                  RODRIGO BRAVO & IRMAOS LTDA                  RODRIGO BRAVO & IRMAOS LTDA03321060000366       AV TOCANTINS QD 16 LOTE 04  , SANTA FÉ77270000              PALMASTO               DMI   39991/0315102008151120080010000000001290000000000012900              PALMAS A1             PABLO HENRIQUE DO BRASIL PEREIRA00200083619216134                   904 SUL AL 02 LT 20 A CNJ.HM  CASA 0477000000              PALMASTO00           000000000000000000 00000000                CENTRO0000000000000000000000000000000000000000000000000                                        0043
1134           0001                  RODRIGO BRAVO & IRMAOS LTDA                  RODRIGO BRAVO & IRMAOS LTDA03321060000366       AV TOCANTINS QD 16 LOTE 04  , SANTA FÉ77270000              PALMASTO               DMI   34829/0520092008201020080010000000000880000000000008800              PALMAS A1                    NELIO DIONIZIO DE SANTANA00200092757707191                                      RUA 28 QD 75 LT 0677270000              PALMASTO00           000000000000000000 00000000                AURENY0000000000000000000000000000000000000000000000000                                        0044
1134           0001                  RODRIGO BRAVO & IRMAOS LTDA                  RODRIGO BRAVO & IRMAOS LTDA03321060000366       AV TOCANTINS QD 16 LOTE 04  , SANTA FÉ77270000              PALMASTO               DMI   23761/0524122007240120080010000000000710000000000007100              PALMAS A1                      MYLENA BARRETO CORDEIRO00200053429613191                                1203 S QI 02 LT 07 AL 0277000000              PALMASTO00           000000000000000000 00000000                CENTRO0000000000000000000000000000000000000000000000000                                        0045
1134           0001                  RODRIGO BRAVO & IRMAOS LTDA                  RODRIGO BRAVO & IRMAOS LTDA03321060000366       AV TOCANTINS QD 16 LOTE 04  , SANTA FÉ77270000              PALMASTO               DMI   18225/1005122007050120080010000000003400000000000034000              PALMAS A1                     MURILO BERNARDO SIQUEIRA00200003355116190                             RUA MATO GROSSO QD 34 LT 2077270000              PALMASTO00           000000000000000000 00000000                AURENY0000000000000000000000000000000000000000000000000                                        0046
1134           0001                  RODRIGO BRAVO & IRMAOS LTDA                  RODRIGO BRAVO & IRMAOS LTDA03321060000366       AV TOCANTINS QD 16 LOTE 04  , SANTA FÉ77270000              PALMASTO               DMI   28800/0507042008070520080010000000000340000000000003400              PALMAS A1                    MAX SAMOEL MODESTO MORAES00200001702586103                                AV.ARAGUAIA QD.107 LT.2677270000              PALMASTO00           000000000000000000 00000000                AURENY0000000000000000000000000000000000000000000000000                                        0047
1134           0001                  RODRIGO BRAVO & IRMAOS LTDA                  RODRIGO BRAVO & IRMAOS LTDA03321060000366       AV TOCANTINS QD 16 LOTE 04  , SANTA FÉ77270000              PALMASTO               DMI   19870/0915122007150120080010000000000240000000000002400              PALMAS A1                    MAURICIO ALVES DOS SANTOS00200002240816163                                      RUA 02 QD 46 LT 1777270000              PALMASTO00           000000000000000000 00000000                AURENY0000000000000000000000000000000000000000000000000                                        0048
1134           0001                  RODRIGO BRAVO & IRMAOS LTDA                  RODRIGO BRAVO & IRMAOS LTDA03321060000366       AV TOCANTINS QD 16 LOTE 04  , SANTA FÉ77270000              PALMASTO               DMI   26001/0317012008170220080010000000000320000000000003200              PALMAS A1                MARIZELDA MEDEIROS NASCIMENTO00200078060281100                                   RUA P-03 QD 23 LT 01B77270000              PALMASTO00           000000000000000000 00000000                AURENY0000000000000000000000000000000000000000000000000                                        0049
1134           0001                  RODRIGO BRAVO & IRMAOS LTDA                  RODRIGO BRAVO & IRMAOS LTDA03321060000366       AV TOCANTINS QD 16 LOTE 04  , SANTA FÉ77270000              PALMASTO               DMI   14321/1318032008180420080010000000001350000000000013500              PALMAS A1                    MARIVANIA CAMPOS DE SOUZA00200002286261105                          RUA CASTELO BRANCO QD 17 LT 1977270000              PALMASTO00           000000000000000000 00000000                AURENY0000000000000000000000000000000000000000000000000                                        0050
1134           0001                  RODRIGO BRAVO & IRMAOS LTDA                  RODRIGO BRAVO & IRMAOS LTDA03321060000366       AV TOCANTINS QD 16 LOTE 04  , SANTA FÉ77270000              PALMASTO               DMI   37692/0305092008051020080010000000000550000000000005500              PALMAS A1                     MARIA VAGNER ALVES ROCHA00200000013955136                                      RUA 05 QD 07 LT 1277270000              PALMASTO00           000000000000000000 00000000                AURENY0000000000000000000000000000000000000000000000000                                        0051
1134           0001                  RODRIGO BRAVO & IRMAOS LTDA                  RODRIGO BRAVO & IRMAOS LTDA03321060000366       AV TOCANTINS QD 16 LOTE 04  , SANTA FÉ77270000              PALMASTO               DMI   37616/0230072008300820080010000000000770000000000007700              PALMAS A1                         MARIA PEDRA DE JESUS00200000164544135                                      RUA P8 QD 04 LT 2277270000              PALMASTO00           000000000000000000 00000000                AURENY0000000000000000000000000000000000000000000000000                                        0052
1134           0001                  RODRIGO BRAVO & IRMAOS LTDA                  RODRIGO BRAVO & IRMAOS LTDA03321060000366       AV TOCANTINS QD 16 LOTE 04  , SANTA FÉ77270000              PALMASTO               DMI   31691/0607092008071020080010000000000460000000000004600              PALMAS A1                    MARIA JOSE RIBEIRO AMORIM00200022857818149                                      RUA 22 QD 23 LT 0477270000              PALMASTO00           000000000000000000 00000000                AURENY0000000000000000000000000000000000000000000000000                                        0053
1134           0001                  RODRIGO BRAVO & IRMAOS LTDA                  RODRIGO BRAVO & IRMAOS LTDA03321060000366       AV TOCANTINS QD 16 LOTE 04  , SANTA FÉ77270000              PALMASTO               DMI   26581/1815092008151020080010000000001174000000000011740              PALMAS A1                      MARIA IDELVANA DE SOUSA00200089132890168                      RUA RIO GRANDE DO SUL QD 27A LT 0877270000              PALMASTO00           000000000000000000 00000000                AURENY0000000000000000000000000000000000000000000000000                                        0054
1134           0001                  RODRIGO BRAVO & IRMAOS LTDA                  RODRIGO BRAVO & IRMAOS LTDA03321060000366       AV TOCANTINS QD 16 LOTE 04  , SANTA FÉ77270000              PALMASTO               DMI   27741/1321082008210920080010000000000614000000000006140              PALMAS A1                 MARIA EDVAN DE SOUZA FONSECA00200001002170109                                    RUA 30  QD 193 LT 0877270000              PALMASTO00           000000000000000000 00000000                AURENY0000000000000000000000000000000000000000000000000                                        0055
1134           0001                  RODRIGO BRAVO & IRMAOS LTDA                  RODRIGO BRAVO & IRMAOS LTDA03321060000366       AV TOCANTINS QD 16 LOTE 04  , SANTA FÉ77270000              PALMASTO               DMI   26118/0510042008100520080010000000000280000000000002800              PALMAS A1                       MARIA DOS REIS RIBEIRO00200088396401187                                      RUA 06 QD15 LT10  77270000              PALMASTO00           000000000000000000 00000000                AURENY0000000000000000000000000000000000000000000000000                                        0056
1134           0001                  RODRIGO BRAVO & IRMAOS LTDA                  RODRIGO BRAVO & IRMAOS LTDA03321060000366       AV TOCANTINS QD 16 LOTE 04  , SANTA FÉ77270000              PALMASTO               DMI   23448/0815032008150420080010000000000500000000000005000              PALMAS A1          MARIA DO SOCORRO RODRIGUES DA SILVA00200001151034142                                    RUA T 15 QD 29 LT 2977270000              PALMASTO00           000000000000000000 00000000            TAQUARALTO0000000000000000000000000000000000000000000000000                                        0057
1134           0001                  RODRIGO BRAVO & IRMAOS LTDA                  RODRIGO BRAVO & IRMAOS LTDA03321060000366       AV TOCANTINS QD 16 LOTE 04  , SANTA FÉ77270000              PALMASTO               DMI   43837/0225112008251220080010000000001000000000000010000              PALMAS A1            MARIA DO NASCIMENTO FERREIRA LIMA00200002851888102                                     RUA 38 QD. 79 LT 1177270000              PALMASTO00           000000000000000000 00000000                AURENY0000000000000000000000000000000000000000000000000                                        0058
1134           0001                  RODRIGO BRAVO & IRMAOS LTDA                  RODRIGO BRAVO & IRMAOS LTDA03321060000366       AV TOCANTINS QD 16 LOTE 04  , SANTA FÉ77270000              PALMASTO               DMI   19353/1115022008150320080010000000000800000000000008000              PALMAS A1          MARIA DE LOURDES MARQUES DAS CHAGAS00200080023762187                            RUA CASTRO ALVES QD 13 LT 1677270000              PALMASTO00           000000000000000000 00000000                AURENY0000000000000000000000000000000000000000000000000                                        0059
1134           0001                  RODRIGO BRAVO & IRMAOS LTDA                  RODRIGO BRAVO & IRMAOS LTDA03321060000366       AV TOCANTINS QD 16 LOTE 04  , SANTA FÉ77270000              PALMASTO               DMI   35955/0616112008161220080010000000000170000000000001700              PALMAS A1                 MARIA DE JESUS DA MOTA SOUSA00200064326810149                                     RUA 44 QD 126 LT 1077270000              PALMASTO00           000000000000000000 00000000                AURENY0000000000000000000000000000000000000000000000000                                        0060
1134           0001                  RODRIGO BRAVO & IRMAOS LTDA                  RODRIGO BRAVO & IRMAOS LTDA03321060000366       AV TOCANTINS QD 16 LOTE 04  , SANTA FÉ77270000              PALMASTO               DMI   19214/1621092008211020080010000000000912500000000009125              PALMAS A1                 MARIA DE JESUS ALVES BARBOSA00200085354864100                                   RUA 14 QD 10 LT 9 B  77270000              PALMASTO00           000000000000000000 00000000                AURENY0000000000000000000000000000000000000000000000000                                        0061
1134           0001                  RODRIGO BRAVO & IRMAOS LTDA                  RODRIGO BRAVO & IRMAOS LTDA03321060000366       AV TOCANTINS QD 16 LOTE 04  , SANTA FÉ77270000              PALMASTO               DMI   19246/1614062008140720080010000000000567000000000005670              PALMAS A1                    MARIA DA PAZ SOUSA CHAGAS00200054665051100                                    RUA T 09 QD 13 LT 1477270000              PALMASTO00           000000000000000000 00000000            TAQUARALTO0000000000000000000000000000000000000000000000000                                        0062
1134           0001                  RODRIGO BRAVO & IRMAOS LTDA                  RODRIGO BRAVO & IRMAOS LTDA03321060000366       AV TOCANTINS QD 16 LOTE 04  , SANTA FÉ77270000              PALMASTO               DMI   28973/0515052008150620080010000000000300000000000003000              PALMAS A1      MARIA DA CONCEIÇAO SILVA DE SOUZA ROCHA00200026681692249                                   RUA P-02 QD 06 LT 01A77270000              PALMASTO00           000000000000000000 00000000                AURENY0000000000000000000000000000000000000000000000000                                        0063
1134           0001                  RODRIGO BRAVO & IRMAOS LTDA                  RODRIGO BRAVO & IRMAOS LTDA03321060000366       AV TOCANTINS QD 16 LOTE 04  , SANTA FÉ77270000              PALMASTO               DMI   17648/1119122007190120080010000000000630000000000006300              PALMAS A1              MARIA BONFIM GONCALVES DE SOUSA00200000838200192                                      RUA 06 QD 47 LT 1077270000              PALMASTO00           000000000000000000 00000000                AURENY0000000000000000000000000000000000000000000000000                                        0064
1134           0001                  RODRIGO BRAVO & IRMAOS LTDA                  RODRIGO BRAVO & IRMAOS LTDA03321060000366       AV TOCANTINS QD 16 LOTE 04  , SANTA FÉ77270000              PALMASTO               DMI   26802/0620052008200620080010000000000550000000000005500              PALMAS A1            MARIA BERNADETH BENTES DOS SANTOS00200034131175215                               RUA AMETISTA QD.133 LT.0877270000              PALMASTO00           000000000000000000 00000000                AURENY0000000000000000000000000000000000000000000000000                                        0065
1134           0001                  RODRIGO BRAVO & IRMAOS LTDA                  RODRIGO BRAVO & IRMAOS LTDA03321060000366       AV TOCANTINS QD 16 LOTE 04  , SANTA FÉ77270000              PALMASTO               DMI   28280/1103102008031120080010000000000890000000000008900              PALMAS A1                       MARIA ANTONIA DE JESUS00200018081622187                            RUA P 03 QD 03A LT 17 CASA B77270000              PALMASTO00           000000000000000000 00000000                AURENY0000000000000000000000000000000000000000000000000                                        0066
1134           0001                  RODRIGO BRAVO & IRMAOS LTDA                  RODRIGO BRAVO & IRMAOS LTDA03321060000366       AV TOCANTINS QD 16 LOTE 04  , SANTA FÉ77270000              PALMASTO               DMI   25224/0310122007100120080010000000000460000000000004600              PALMAS A1               MARIA ANALIA PINHEIRO DA SILVA00200093094930115                                      RUA 01 QD 43 LT 2377270000              PALMASTO00           000000000000000000 00000000                AURENY0000000000000000000000000000000000000000000000000                                        0067
1134           0001                  RODRIGO BRAVO & IRMAOS LTDA                  RODRIGO BRAVO & IRMAOS LTDA03321060000366       AV TOCANTINS QD 16 LOTE 04  , SANTA FÉ77270000              PALMASTO               DNI   26145/0812062008120720080010000000001290000000000012900              PALMAS A1               MARCOS AURELIO FERREIRA DA LUZ00200077122615120                                     RUA 24 QD 191 LT 1877270000              PALMASTO00           000000000000000000 00000000                AURENY0000000000000000000000000000000000000000000000000                                        0068
1134           0001                  RODRIGO BRAVO & IRMAOS LTDA                  RODRIGO BRAVO & IRMAOS LTDA03321060000366       AV TOCANTINS QD 16 LOTE 04  , SANTA FÉ77270000              PALMASTO               DMI   34490/0210062008100720080010000000000660000000000006600              PALMAS A1                MARCO ANTONIO FERREIRA ARAUJO00200003704914169                                        CHACARA 83 KM 1777270000              PALMASTO00           000000000000000000 00000000            TAQUARALTO0000000000000000000000000000000000000000000000000                                        0069
1134           0001                  RODRIGO BRAVO & IRMAOS LTDA                  RODRIGO BRAVO & IRMAOS LTDA03321060000366       AV TOCANTINS QD 16 LOTE 04  , SANTA FÉ77270000              PALMASTO               DMI   23479/0520122007200120080010000000002060000000000020600              PALMAS A1                      MARCIO TEIXEIRA MACHADO00200099634015204                                    1004 SUL AL 6  LT 3477000000              PALMASTO00           000000000000000000 00000000                CENTRO0000000000000000000000000000000000000000000000000                                        0070
1134           0001                  RODRIGO BRAVO & IRMAOS LTDA                  RODRIGO BRAVO & IRMAOS LTDA03321060000366       AV TOCANTINS QD 16 LOTE 04  , SANTA FÉ77270000              PALMASTO               DMI   27333/0420022008200320080010000000000400000000000004000              PALMAS A1                 MARCILIA BATISTA DE OLIVEIRA00200002774365163                           AV. TOCANTINS QD 40- A CH 28477270000              PALMASTO00           000000000000000000 00000000            TAQUARALTO0000000000000000000000000000000000000000000000000                                        0071
1134           0001                  RODRIGO BRAVO & IRMAOS LTDA                  RODRIGO BRAVO & IRMAOS LTDA03321060000366       AV TOCANTINS QD 16 LOTE 04  , SANTA FÉ77270000              PALMASTO               DMI   28368/0619052008190620080010000000000420000000000004200              PALMAS A1                          MARCELO COSTA PRIMO00200099314924149                            RUA PROF RIBAMAR QD 16 LT 0377270000              PALMASTO00           000000000000000000 00000000                AURENY0000000000000000000000000000000000000000000000000                                        0072
1134           0001                  RODRIGO BRAVO & IRMAOS LTDA                  RODRIGO BRAVO & IRMAOS LTDA03321060000366       AV TOCANTINS QD 16 LOTE 04  , SANTA FÉ77270000              PALMASTO               DMI   38300/0410102008101120080010000000001660000000000016600              PALMAS A1                     MARCELI CRISTINA DE LIMA00200001056615117                         RUA PRAÇA BRASILIA QNW 01 LT 0877270000              PALMASTO00           000000000000000000 00000000                AURENY0000000000000000000000000000000000000000000000000                                        0073
1134           0001                  RODRIGO BRAVO & IRMAOS LTDA                  RODRIGO BRAVO & IRMAOS LTDA03321060000366       AV TOCANTINS QD 16 LOTE 04  , SANTA FÉ77270000              PALMASTO               DMI   35379/0311072008110820080010000000000320000000000003200              PALMAS A1                   LUZIMAR MASCARENHAS CHAGAS00200086016300144                            RUA MATO GROSSO QSW 10 LT 0277270000              PALMASTO00           000000000000000000 00000000                AURENY0000000000000000000000000000000000000000000000000                                        0074
1134           0001                  RODRIGO BRAVO & IRMAOS LTDA                  RODRIGO BRAVO & IRMAOS LTDA03321060000366       AV TOCANTINS QD 16 LOTE 04  , SANTA FÉ77270000              PALMASTO               DMI   40869/0302112008021220080010000000000950000000000009500              PALMAS A1                            LUIS SOUSA GUEDES00200004468088575                                    RUA 01 QD 42 LT 01  77270000              PALMASTO00           000000000000000000 00000000                AURENY0000000000000000000000000000000000000000000000000                                        0075
1134           0001                  RODRIGO BRAVO & IRMAOS LTDA                  RODRIGO BRAVO & IRMAOS LTDA03321060000366       AV TOCANTINS QD 16 LOTE 04  , SANTA FÉ77270000              PALMASTO               DMI   26961/0710062008100720080010000000000500000000000005000              PALMAS A1                     LUCIVANIA SOUSA CARVALHO00200000605809178            AV J  HM 01 ESQUINA C/ RUA 18 BLOCO C AP-10977270000              PALMASTO00           000000000000000000 00000000                AURENY0000000000000000000000000000000000000000000000000                                        0076
1134           0001                  RODRIGO BRAVO & IRMAOS LTDA                  RODRIGO BRAVO & IRMAOS LTDA03321060000366       AV TOCANTINS QD 16 LOTE 04  , SANTA FÉ77270000              PALMASTO               DMI   19349/0915122007150120080010000000000420000000000004200              PALMAS A1              LUCIENE LOPES CHAVES DOS SANTOS00200002555435140                                      RUA 28 QD.88 LT.0777270000              PALMASTO00           000000000000000000 00000000                AURENY0000000000000000000000000000000000000000000000000                                        0077
1134           0001                  RODRIGO BRAVO & IRMAOS LTDA                  RODRIGO BRAVO & IRMAOS LTDA03321060000366       AV TOCANTINS QD 16 LOTE 04  , SANTA FÉ77270000              PALMASTO               DMI   31034/0811102008111120080010000000000490000000000004900              PALMAS A1                      LUCIANO PEREIRA DESOUSA00200089947010104                                      QD 13 LT 13 RUA 1477270000              PALMASTO00           000000000000000000 00000000                AURENY0000000000000000000000000000000000000000000000000                                        0078
1134           0001                  RODRIGO BRAVO & IRMAOS LTDA                  RODRIGO BRAVO & IRMAOS LTDA03321060000366       AV TOCANTINS QD 16 LOTE 04  , SANTA FÉ77270000              PALMASTO               DMI   39841/0411112008111220080010000000000460000000000004600              PALMAS A1                     LUCIANE DE SOUZA BEZERRA00200004107054110                                      RUA 38 QD 50 LT 2177270000              PALMASTO00           000000000000000000 00000000                AURENY0000000000000000000000000000000000000000000000000                                        0079
1134           0001                  RODRIGO BRAVO & IRMAOS LTDA                  RODRIGO BRAVO & IRMAOS LTDA03321060000366       AV TOCANTINS QD 16 LOTE 04  , SANTA FÉ77270000              PALMASTO               DMI   23688/0420122007200120080010000000000360000000000003600              PALMAS A1                       LUCAS PONTES RODRIGUES00200002303950155                            RUA CASTRO ALVES QR 05 LT 2277270000              PALMASTO00           000000000000000000 00000000                AURENY0000000000000000000000000000000000000000000000000                                        0080
1134           0001                  RODRIGO BRAVO & IRMAOS LTDA                  RODRIGO BRAVO & IRMAOS LTDA03321060000366       AV TOCANTINS QD 16 LOTE 04  , SANTA FÉ77270000              PALMASTO               DMI   18430/0915122007150120080010000000001890000000000018900              PALMAS A1                    LUANA CAVALCANTE DA SILVA00200002566640130                                   RUA NC 08 QD 39 LT 0477270000              PALMASTO00           000000000000000000 00000000                AURENY0000000000000000000000000000000000000000000000000                                        0081
1134           0001                  RODRIGO BRAVO & IRMAOS LTDA                  RODRIGO BRAVO & IRMAOS LTDA03321060000366       AV TOCANTINS QD 16 LOTE 04  , SANTA FÉ77270000              PALMASTO               DMI   28450/0829072008290820080010000000001800000000000018000              PALMAS A1                      LINDOMAR GOMES DE SOUZA00200050811800334                           RUA PORTO ALEGRE QNW.12 LT.0977270000              PALMASTO00           000000000000000000 00000000                AURENY0000000000000000000000000000000000000000000000000                                        0082
1134           0001                  RODRIGO BRAVO & IRMAOS LTDA                  RODRIGO BRAVO & IRMAOS LTDA03321060000366       AV TOCANTINS QD 16 LOTE 04  , SANTA FÉ77270000              PALMASTO               DMI   25379/1322112008221220080010000000000448500000000004485              PALMAS A1                LILIAN DE SOUSA NOVAES SANTOS00200000098309366                  RUA ESPIRITO SANTO QNE 11A LT 25 CS 0177270000              PALMASTO00           000000000000000000 00000000                AURENY0000000000000000000000000000000000000000000000000                                        0083
1134           0001                  RODRIGO BRAVO & IRMAOS LTDA                  RODRIGO BRAVO & IRMAOS LTDA03321060000366       AV TOCANTINS QD 16 LOTE 04  , SANTA FÉ77270000              PALMASTO               DMI   20157/0825122007250120080010000000000980000000000009800              PALMAS A1           LILIA KATIELE SILVA DE VASCONCELOS00200003312513103                                  RUA MARANHÃO QD22 LT0777270000              PALMASTO00           000000000000000000 00000000                AURENY0000000000000000000000000000000000000000000000000                                        0084
1134           0001                  RODRIGO BRAVO & IRMAOS LTDA                  RODRIGO BRAVO & IRMAOS LTDA03321060000366       AV TOCANTINS QD 16 LOTE 04  , SANTA FÉ77270000              PALMASTO               DMI   29783/0528052008280620080010000000000910000000000009100              PALMAS A1                   LIDIANE PEREIRA DOS SANTOS00200000052354130                                    RUA 06 QD 20 LT 02  77270000              PALMASTO00           000000000000000000 00000000                AURENY0000000000000000000000000000000000000000000000000                                        0085
1134           0001                  RODRIGO BRAVO & IRMAOS LTDA                  RODRIGO BRAVO & IRMAOS LTDA03321060000366       AV TOCANTINS QD 16 LOTE 04  , SANTA FÉ77270000              PALMASTO               DMI   21691/1223042008230520080010000000001260000000000012600              PALMAS A1                             LEILA MOTA SOUSA00200088995100168                          RUA CASTELO BRANCO QD 17 LT 2177270000              PALMASTO00           000000000000000000 00000000                AURENY0000000000000000000000000000000000000000000000000                                        0086
1134           0001                  RODRIGO BRAVO & IRMAOS LTDA                  RODRIGO BRAVO & IRMAOS LTDA03321060000366       AV TOCANTINS QD 16 LOTE 04  , SANTA FÉ77270000              PALMASTO               DMI   43944/0229112008291220080010000000000540000000000005400              PALMAS A1                     LEIDIANE MOTA DOS SANTOS00200073023868115                             RUA NC 11 QD 33 LT 06 CS 0177270000              PALMASTO00           000000000000000000 00000000                AURENY0000000000000000000000000000000000000000000000000                                        0087
1134           0001                  RODRIGO BRAVO & IRMAOS LTDA                  RODRIGO BRAVO & IRMAOS LTDA03321060000366       AV TOCANTINS QD 16 LOTE 04  , SANTA FÉ77270000              PALMASTO               DMI   30532/0825082008250920080010000000000310000000000003100              PALMAS A1                    LEIDIANE DA SILVA PEREIRA00200000804005150                                RUA AMETISTA QD 08 LT 0377270000              PALMASTO00           000000000000000000 00000000                AURENY0000000000000000000000000000000000000000000000000                                        0088
1134           0001                  RODRIGO BRAVO & IRMAOS LTDA                  RODRIGO BRAVO & IRMAOS LTDA03321060000366       AV TOCANTINS QD 16 LOTE 04  , SANTA FÉ77270000              PALMASTO               DMI   37102/0328082008280920080010000000000570000000000005700              PALMAS A1    LEANDRO VINICIUS DE SOUSA MATTOS BENVINDO00200002967862177                                      RUA 32 QD.91 LT.1977270000              PALMASTO00           000000000000000000 00000000                AURENY0000000000000000000000000000000000000000000000000                                        0089
1134           0001                  RODRIGO BRAVO & IRMAOS LTDA                  RODRIGO BRAVO & IRMAOS LTDA03321060000366       AV TOCANTINS QD 16 LOTE 04  , SANTA FÉ77270000              PALMASTO               DMI   30079/0808092008081020080010000000000640000000000006400              PALMAS A1                         LEANDRO SANTOS SILVA00200001825896500                                      RUA 09 QD 18 LT 1577270000              PALMASTO00           000000000000000000 00000000                AURENY0000000000000000000000000000000000000000000000000                                        0090
1134           0001                  RODRIGO BRAVO & IRMAOS LTDA                  RODRIGO BRAVO & IRMAOS LTDA03321060000366       AV TOCANTINS QD 16 LOTE 04  , SANTA FÉ77270000              PALMASTO               DMI   25868/1012082008120920080010000000000220000000000002200              PAKMAS A1                        LAUDICEIA VAZ DE LIMA00200000642874166                            1306 SUL AL 05 A QI 05 LT 4277000000              PALMASTO00           000000000000000000 00000000                CENTRO0000000000000000000000000000000000000000000000000                                        0091
1134           0001                  RODRIGO BRAVO & IRMAOS LTDA                  RODRIGO BRAVO & IRMAOS LTDA03321060000366       AV TOCANTINS QD 16 LOTE 04  , SANTA FÉ77270000              PALMASTO               DMI   27823/1030092008301020080010000000001569000000000015690              PALMAS A1                               KLEBER ALMEIDA00200085285480159                                     RUA 33 QD 143 LT 1577270000              PALMASTO00           000000000000000000 00000000                AURENY0000000000000000000000000000000000000000000000000                                        0092
1134           0001                  RODRIGO BRAVO & IRMAOS LTDA                  RODRIGO BRAVO & IRMAOS LTDA03321060000366       AV TOCANTINS QD 16 LOTE 04  , SANTA FÉ77270000              PALMASTO               DMI   39096/0306102008061120080010000000001100000000000011000              PALMAS A1                    KEYLANE MARA CUNHA PESSOA00200004101764190                                   RUA NC 14 QD.19 LT.1577270000              PALMASTO00           000000000000000000 00000000                AURENY0000000000000000000000000000000000000000000000000                                        0093
1134           0001                  RODRIGO BRAVO & IRMAOS LTDA                  RODRIGO BRAVO & IRMAOS LTDA03321060000366       AV TOCANTINS QD 16 LOTE 04  , SANTA FÉ77270000              PALMASTO               DMI   36359/0415102008151120080010000000000419900000000004199              PALMAS A1                          KELLY MAMEDIO BRITO00200003576381155                                 RUA BAHIA QD SW09 LT 0777270000              PALMASTO00           000000000000000000 00000000                CENTRO0000000000000000000000000000000000000000000000000                                        0094
1134           0001                  RODRIGO BRAVO & IRMAOS LTDA                  RODRIGO BRAVO & IRMAOS LTDA03321060000366       AV TOCANTINS QD 16 LOTE 04  , SANTA FÉ77270000              PALMASTO               DMI   38115/0208082008080920080010000000000410000000000004100              PALMAS A1                          KEILA ALVES DE MELO00200000416250130                                 R NC 19, 0, LT 19 QD 1377270000              PALMASTO00           000000000000000000 00000000                AURENY0000000000000000000000000000000000000000000000000                                        0095
1134           0001                  RODRIGO BRAVO & IRMAOS LTDA                  RODRIGO BRAVO & IRMAOS LTDA03321060000366       AV TOCANTINS QD 16 LOTE 04  , SANTA FÉ77270000              PALMASTO               DMI   25603/0323122007230120080010000000001497000000000014970              PALMAS A1                      JUSTINO FURTADO PIMENTE00200021255954191                                   504 SUL AL 06 CASA 0877000000              PALMASTO00           000000000000000000 00000000                CENTRO0000000000000000000000000000000000000000000000000                                        0096
1134           0001                  RODRIGO BRAVO & IRMAOS LTDA                  RODRIGO BRAVO & IRMAOS LTDA03321060000366       AV TOCANTINS QD 16 LOTE 04  , SANTA FÉ77270000              PALMASTO               DMI   31116/0214032008140420080010000000000790000000000007900              PALMAS A1                     JUSCELINO LOPES DOS REIS00200086316222149                                       RUA 11 QD C1 LT2677270000              PALMASTO00           000000000000000000 00000000                AURENY0000000000000000000000000000000000000000000000000                                        0097
1134           0001                  RODRIGO BRAVO & IRMAOS LTDA                  RODRIGO BRAVO & IRMAOS LTDA03321060000366       AV TOCANTINS QD 16 LOTE 04  , SANTA FÉ77270000              PALMASTO               DMI   19515/1015012008150220080010000000000270000000000002700              PALMAS A1             JURANDY SOBRINHO DIAS NASCIMENTO00200056443650263                            RUA ANCHIETA , QD. 12 LT. 0277270000              PALMASTO00           000000000000000000 00000000                AURENY0000000000000000000000000000000000000000000000000                                        0098
1134           0001                  RODRIGO BRAVO & IRMAOS LTDA                  RODRIGO BRAVO & IRMAOS LTDA03321060000366       AV TOCANTINS QD 16 LOTE 04  , SANTA FÉ77270000              PALMASTO               DMI   19151/1014022008140320080010000000000590000000000005900              PALMAS A1                         JUCILENE ALVES FOLHA00200090878345191                                      RUA 40 QD 50 LT 0577270000              PALMASTO00           000000000000000000 00000000                AURENY0000000000000000000000000000000000000000000000000                                        0099
1134           0001                  RODRIGO BRAVO & IRMAOS LTDA                  RODRIGO BRAVO & IRMAOS LTDA03321060000366       AV TOCANTINS QD 16 LOTE 04  , SANTA FÉ77270000              PALMASTO               DMI   37578/0210082008100920080010000000000224800000000002248             PALMAS´ A1                     JOSIMAR ALVES DOS SANTOS00200025801619372               RUA 18 HM01 BL C APT 109 COND VALE DO SOL77000000              PALMASTO00           000000000000000000 00000000                CENTRO0000000000000000000000000000000000000000000000000                                        0100
1134           0001                  RODRIGO BRAVO & IRMAOS LTDA                  RODRIGO BRAVO & IRMAOS LTDA03321060000366       AV TOCANTINS QD 16 LOTE 04  , SANTA FÉ77270000              PALMASTO               DMI   35971/0507102008071120080010000000000120000000000001200              PALMAS A1                    JOSEFA OLIVEIRA DE MORAIS00200059033886120                                 RUA MS 15 QD 04A LT 37A77270000              PALMASTO00           000000000000000000 00000000                AURENY0000000000000000000000000000000000000000000000000                                        0101
1134           0001                  RODRIGO BRAVO & IRMAOS LTDA                  RODRIGO BRAVO & IRMAOS LTDA03321060000366       AV TOCANTINS QD 16 LOTE 04  , SANTA FÉ77270000              PALMASTO               DMI   27331/0815072008150820080010000000000210000000000002100              PALMAS A1                   JOSE WILTON PINHEIRO GOMES00200099438518134              QD HM1  17  APTO 215 BL D COND VILA DO SOL77000000              PALMASTO00           000000000000000000 00000000                CENTRO0000000000000000000000000000000000000000000000000                                        0102
1134           0001                  RODRIGO BRAVO & IRMAOS LTDA                  RODRIGO BRAVO & IRMAOS LTDA03321060000366       AV TOCANTINS QD 16 LOTE 04  , SANTA FÉ77270000              PALMASTO               DMI   18358/1412112008121220080010000000001335000000000013350              PALMAS A1                       JOSE WILSON DA SILVA  00200097386499353                                 RUA PARA QD.SW 07 LT.0777270000              PALMASTO00           000000000000000000 00000000                AURENY0000000000000000000000000000000000000000000000000                                        0103
1134           0001                  RODRIGO BRAVO & IRMAOS LTDA                  RODRIGO BRAVO & IRMAOS LTDA03321060000366       AV TOCANTINS QD 16 LOTE 04  , SANTA FÉ77270000              PALMASTO               DMI   24017/1529102008291120080010000000000580000000000005800              PALMAS A1                        JOSE RIBEIRO DA SILVA00200001194073530                                     RUA 36 QD 109 LT 2077270000              PALMASTO00           000000000000000000 00000000                AURENY0000000000000000000000000000000000000000000000000                                        0104
1134           0001                  RODRIGO BRAVO & IRMAOS LTDA                  RODRIGO BRAVO & IRMAOS LTDA03321060000366       AV TOCANTINS QD 16 LOTE 04  , SANTA FÉ77270000              PALMASTO               DMI   45905/0730072008300820080010000000001035000000000010350              PALMAS A1                        JOSE RIBAMAR DE SOUZA00200051727994353                                        ACSV-NO 61 LT.3277000000              PALMASTO00           000000000000000000 00000000                CENTRO0000000000000000000000000000000000000000000000000                                        0105
1134           0001                  RODRIGO BRAVO & IRMAOS LTDA                  RODRIGO BRAVO & IRMAOS LTDA03321060000366       AV TOCANTINS QD 16 LOTE 04  , SANTA FÉ77270000              PALMASTO               DMI   28779/0410032008100420080010000000000270000000000002700              PALMAS A1                 JOSE RAIMUNDO MAGALHAES LIMA00200001932515151                                       RUA 16 QD 58 LT2077270000              PALMASTO00           000000000000000000 00000000                AURENY0000000000000000000000000000000000000000000000000                                        0106
1134           0001                  RODRIGO BRAVO & IRMAOS LTDA                  RODRIGO BRAVO & IRMAOS LTDA03321060000366       AV TOCANTINS QD 16 LOTE 04  , SANTA FÉ77270000              PALMASTO               DMI   20199/0805122007050120080010000000001170000000000011700              PALMAS A1                   JOSE LUIZ PEREIRA CARVALHO00200095923454149                          RUA 15 DE NOVEMBRO QD 10 LT 3277270000              PALMASTO00           000000000000000000 00000000                AURENY0000000000000000000000000000000000000000000000000                                        0107
1134           0001                  RODRIGO BRAVO & IRMAOS LTDA                  RODRIGO BRAVO & IRMAOS LTDA03321060000366       AV TOCANTINS QD 16 LOTE 04  , SANTA FÉ77270000              PALMASTO               DMI   27826/1030092008301020080010000000000729000000000007290              PALMAS A1                        JOELMA DE SOUZA SILVA00200084959371153                               QD 05 LT 22 AV SANTA RITA77270000              PALMASTO00           000000000000000000 00000000            TAQUARALTO0000000000000000000000000000000000000000000000000                                        0108
1134           0001                  RODRIGO BRAVO & IRMAOS LTDA                  RODRIGO BRAVO & IRMAOS LTDA03321060000366       AV TOCANTINS QD 16 LOTE 04  , SANTA FÉ77270000              PALMASTO               DMI   38899/0520112008201220080010000000000350000000000003500              PALMAS A1                         JOAO DE SOUZA MACEDO00200002781848123                                    RUA 25 QD. 38 LT. 0177270000              PALMASTO00           000000000000000000 00000000                AURENY0000000000000000000000000000000000000000000000000                                        0109
1134           0001                  RODRIGO BRAVO & IRMAOS LTDA                  RODRIGO BRAVO & IRMAOS LTDA03321060000366       AV TOCANTINS QD 16 LOTE 04  , SANTA FÉ77270000              PALMASTO               DMI   21367/0611122007110120080010000000001890000000000018900              PALMAS A1                       JOAO ALVES DE MEDEIROS00200037020277420                           AV.E QI 61 LT07 (AV.ARAGUAIA)77270000              PALMASTO00           000000000000000000 00000000                AURENY0000000000000000000000000000000000000000000000000                                        0110
1134           0001                  RODRIGO BRAVO & IRMAOS LTDA                  RODRIGO BRAVO & IRMAOS LTDA03321060000366       AV TOCANTINS QD 16 LOTE 04  , SANTA FÉ77270000              PALMASTO               DMI   10226/1929122007290120080010000000001187000000000011870              PALMAS A1                     JERONIMO DEFENSOR AMARAL00200017979668553                             506 NORTE QI 11 LT 17 AL 0377000000              PALMASTO00           000000000000000000 00000000                CENTRO0000000000000000000000000000000000000000000000000                                        0111
1134           0001                  RODRIGO BRAVO & IRMAOS LTDA                  RODRIGO BRAVO & IRMAOS LTDA03321060000366       AV TOCANTINS QD 16 LOTE 04  , SANTA FÉ77270000              PALMASTO               DMI   38140/0310102008101120080010000000000800000000000008000              PALMAS A1                 JEFFERSON PEREIRA DOS SANTOS00200095574999153                                 AV ARAGUAIA QD 32 LT 0177270000              PALMASTO00           000000000000000000 00000000            TAQUARALTO0000000000000000000000000000000000000000000000000                                        0112
1134           0001                  RODRIGO BRAVO & IRMAOS LTDA                  RODRIGO BRAVO & IRMAOS LTDA03321060000366       AV TOCANTINS QD 16 LOTE 04  , SANTA FÉ77270000              PALMASTO               DMI   35895/0210072008100820080010000000000330000000000003300              PALMAS A1                              JARDEL DE SOUZA00200001267804394                           RUA DAS GAIVOTAS QD 06, LT 1277270000              PALMASTO00           000000000000000000 00000000                AURENY0000000000000000000000000000000000000000000000000                                        0113
1134           0001                  RODRIGO BRAVO & IRMAOS LTDA                  RODRIGO BRAVO & IRMAOS LTDA03321060000366       AV TOCANTINS QD 16 LOTE 04  , SANTA FÉ77270000              PALMASTO               DMI   43128/0215112008151220080010000000000240000000000002400              PALMAS A1           JARBAS JUNIOR FONTOURA DE CARVALHO00200077299370182                                      RUA 13 Q 11 LT. 4B77270000              PALMASTO00           000000000000000000 00000000                AURENY0000000000000000000000000000000000000000000000000                                        0114
1134           0001                  RODRIGO BRAVO & IRMAOS LTDA                  RODRIGO BRAVO & IRMAOS LTDA03321060000366       AV TOCANTINS QD 16 LOTE 04  , SANTA FÉ77270000              PALMASTO               DMI   18916/1103122007030120080010000000000856000000000008560              PALMAS A1                    JAQUES ARIANE ARSEGO LIMA00200066320283149                                   RUA NC 10 QD 37 LT 2477270000              PALMASTO00           000000000000000000 00000000                AURENY0000000000000000000000000000000000000000000000000                                        0115
1134           0001                  RODRIGO BRAVO & IRMAOS LTDA                  RODRIGO BRAVO & IRMAOS LTDA03321060000366       AV TOCANTINS QD 16 LOTE 04  , SANTA FÉ77270000              PALMASTO               DMI   20374/0815122007150120080010000000000457500000000004575              PALMAS A1                 JANIA MARIA REZENDE DA COSTA00200002506224165                                    RUA 02 QD. 46 LT. 1777270000              PALMASTO00           000000000000000000 00000000                AURENY0000000000000000000000000000000000000000000000000                                        0116
1134           0001                  RODRIGO BRAVO & IRMAOS LTDA                  RODRIGO BRAVO & IRMAOS LTDA03321060000366       AV TOCANTINS QD 16 LOTE 04  , SANTA FÉ77270000              PALMASTO               DMI   17862/0917122007170120080010000000000350000000000003500              PALMAS A1                      JANETE PEREIRA DE SOUSA00200075873800197                                    RUA NC 8 QD 11 LT 1177270000              PALMASTO00           000000000000000000 00000000                AURENY0000000000000000000000000000000000000000000000000                                        0117
1134           0001                  RODRIGO BRAVO & IRMAOS LTDA                  RODRIGO BRAVO & IRMAOS LTDA03321060000366       AV TOCANTINS QD 16 LOTE 04  , SANTA FÉ77270000              PALMASTO               DMI   20594/0814122007140120080010000000000610000000000006100              PALMAS A1                        JAMES MENDES DA SILVA00200003811226380              RUA RIO GRANDE DO SUL QD.SE 9 LT 12 CASA 177270000              PALMASTO00           000000000000000000 00000000                AURENY0000000000000000000000000000000000000000000000000                                        0118
1134           0001                  RODRIGO BRAVO & IRMAOS LTDA                  RODRIGO BRAVO & IRMAOS LTDA03321060000366       AV TOCANTINS QD 16 LOTE 04  , SANTA FÉ77270000              PALMASTO               DMI   17848/1024122007240120080010000000001170000000000011700              PALMAS A1                  JAIRO CASTANHEIRA RODRIGUES00200087183722104                           RUA PROF. RIBAMAR QD 16 LT 0377270000              PALMASTO00           000000000000000000 00000000                AURENY0000000000000000000000000000000000000000000000000                                        0119
1134           0001                  RODRIGO BRAVO & IRMAOS LTDA                  RODRIGO BRAVO & IRMAOS LTDA03321060000366       AV TOCANTINS QD 16 LOTE 04  , SANTA FÉ77270000              PALMASTO               DMI   39366/0204092008041020080010000000001150000000000011500              PALMAS A1                                   JACY PINTO00200003538832129                               RUA 28 QD 134 LT 19 CS 0177270000              PALMASTO00           000000000000000000 00000000                AURENY0000000000000000000000000000000000000000000000000                                        0120
1134           0001                  RODRIGO BRAVO & IRMAOS LTDA                  RODRIGO BRAVO & IRMAOS LTDA03321060000366       AV TOCANTINS QD 16 LOTE 04  , SANTA FÉ77270000              PALMASTO               DMI   29340/0320022008200320080010000000000800000000000008000              PALMAS A1                   JACKSON DA SILVA CONCEIÇÃO00200002807000169                                AV. ARAGUAIA QD 77 LT 2477270000              PALMASTO00           000000000000000000 00000000            TAQUARALTO0000000000000000000000000000000000000000000000000                                        0121
1134           0001                  RODRIGO BRAVO & IRMAOS LTDA                  RODRIGO BRAVO & IRMAOS LTDA03321060000366       AV TOCANTINS QD 16 LOTE 04  , SANTA FÉ77270000              PALMASTO               DMI   27762/1130092008301020080010000000001390000000000013900              PALMAS A1                      IZAEL DE OLIVEIRA SOUSA00200098130889153                                  RUA CEREJEIRAS QD5 LT677270000              PALMASTO00           000000000000000000 00000000                AURENY0000000000000000000000000000000000000000000000000                                        0122
1134           0001                  RODRIGO BRAVO & IRMAOS LTDA                  RODRIGO BRAVO & IRMAOS LTDA03321060000366       AV TOCANTINS QD 16 LOTE 04  , SANTA FÉ77270000              PALMASTO               DMI   17958/1010122007100120080010000000000870000000000008700              PALMAS A1             IVANILDE MENDES DE SOUSA MACARIO00200005801669612                             RUA MS 07 QD 23 A LT 18    77270000              PALMASTO00           000000000000000000 00000000                AURENY0000000000000000000000000000000000000000000000000                                        0123
1134           0001                  RODRIGO BRAVO & IRMAOS LTDA                  RODRIGO BRAVO & IRMAOS LTDA03321060000366       AV TOCANTINS QD 16 LOTE 04  , SANTA FÉ77270000              PALMASTO               DMI   36737/0215072008150820080010000000000190000000000001900              PALMAS A1                 IVANEIDE FERREIRA DOS SANTOS00200003399541163                               RUA FLORESTA  QD 07 LT 2477270000              PALMASTO00           000000000000000000 00000000                AURENY0000000000000000000000000000000000000000000000000                                        0124
1134           0001                  RODRIGO BRAVO & IRMAOS LTDA                  RODRIGO BRAVO & IRMAOS LTDA03321060000366       AV TOCANTINS QD 16 LOTE 04  , SANTA FÉ77270000              PALMASTO               DMI   37920/0410102008101120080010000000000610000000000006100              PALMAS A1                        IRACI DE ARAUJO ALVES00200035431270397                                     RUA 38 QD 154 LT 1277270000              PALMASTO00           000000000000000000 00000000                AURENY0000000000000000000000000000000000000000000000000                                        0125
1134           0001                  RODRIGO BRAVO & IRMAOS LTDA                  RODRIGO BRAVO & IRMAOS LTDA03321060000366       AV TOCANTINS QD 16 LOTE 04  , SANTA FÉ77270000              PALMASTO               DMI   20874/0823012008230220080010000000000720000000000007200              PALMAS A1                            IONE RIBEIRO TITO00200057515433191                                     RUA 08 QD 27 LT 22A77270000              PALMASTO00           000000000000000000 00000000                AURENY0000000000000000000000000000000000000000000000000                                        0126
1134           0001                  RODRIGO BRAVO & IRMAOS LTDA                  RODRIGO BRAVO & IRMAOS LTDA03321060000366       AV TOCANTINS QD 16 LOTE 04  , SANTA FÉ77270000              PALMASTO               DMI   30025/0710072008100820080010000000000280000000000002800              PALMAS A1                          IGLESIO MOURA DE SA00200016883659153                               FAZENDA BOUEIRAO DO CEDRO77270000              PALMAS  00           000000000000000000 00000000                AURENY0000000000000000000000000000000000000000000000000                                        0127
1134           0001                  RODRIGO BRAVO & IRMAOS LTDA                  RODRIGO BRAVO & IRMAOS LTDA03321060000366       AV TOCANTINS QD 16 LOTE 04  , SANTA FÉ77270000              PALMASTO               DMI   37349/0623112008231220080010000000000150000000000001500              PALMAS A1                          IEDA NERES DA SILVA00200002858248133                                  RUA S 01 QD 28 LT 04  77270000              PALMASTO00           000000000000000000 00000000                AURENY0000000000000000000000000000000000000000000000000                                        0128
1134           0001                  RODRIGO BRAVO & IRMAOS LTDA                  RODRIGO BRAVO & IRMAOS LTDA03321060000366       AV TOCANTINS QD 16 LOTE 04  , SANTA FÉ77270000              PALMASTO               DMI   36531/0615112008151220080010000000000760000000000007600              PALMAS A1                         IDELGMA SOUSA CALDAS00200089568290125                             RUA COPACABANA QD 76A LT 0177270000              PALMASTO00           000000000000000000 00000000                AURENY0000000000000000000000000000000000000000000000000                                        0129
1134           0001                  RODRIGO BRAVO & IRMAOS LTDA                  RODRIGO BRAVO & IRMAOS LTDA03321060000366       AV TOCANTINS QD 16 LOTE 04  , SANTA FÉ77270000              PALMASTO               DMI   19890/1310012008100220080010000000000456000000000004560              PALMAS A1                        HERLENE MAMEDIO BRITO00200088213978153                                RUA BAHIA QD SW 09 LT 0777270000              PALMASTO00           000000000000000000 00000000                AURENY0000000000000000000000000000000000000000000000000                                        0130
1134           0001                  RODRIGO BRAVO & IRMAOS LTDA                  RODRIGO BRAVO & IRMAOS LTDA03321060000366       AV TOCANTINS QD 16 LOTE 04  , SANTA FÉ77270000              PALMASTO               DMI   34950/0321082008210920080010000000000480000000000004800              PALMAS A1                      HERICA RIBEIRO MESQUITA00200003005899136                         RUA BELORIZONTE   QNW 06  LT 1277270000              PALMASTO00           000000000000000000 00000000                AURENY0000000000000000000000000000000000000000000000000                                        0131
1134           0001                  RODRIGO BRAVO & IRMAOS LTDA                  RODRIGO BRAVO & IRMAOS LTDA03321060000366       AV TOCANTINS QD 16 LOTE 04  , SANTA FÉ77270000              PALMASTO               DMI   29279/0216012008160220080010000000000970000000000009700              PALMAS A1                       HELIO PAIVA DOS SANTOS00200000672322137                                     RUA 26 QD.178 LT.2177270000              PALMASTO00           000000000000000000 00000000                AURENY0000000000000000000000000000000000000000000000000                                        0132
1134           0001                  RODRIGO BRAVO & IRMAOS LTDA                  RODRIGO BRAVO & IRMAOS LTDA03321060000366       AV TOCANTINS QD 16 LOTE 04  , SANTA FÉ77270000              PALMASTO               DMI   42258/0225112008251220080010000000000899800000000008998              PALMAS A1           HABITE PROGETOS E CONSTRUCOES LTDA00101638006000232                AV. JK ACSO I CONJ 01 LT 21 SL 21 S/N   77000000              PALMASTO00           000000000000000000 00000000                CENTRO0000000000000000000000000000000000000000000000000                                        0133
1134           0001                  RODRIGO BRAVO & IRMAOS LTDA                  RODRIGO BRAVO & IRMAOS LTDA03321060000366       AV TOCANTINS QD 16 LOTE 04  , SANTA FÉ77270000              PALMASTO               DMI   31343/0928112008281220080010000000000600000000000006000              PALMAS A1                GYL VIRGILIO BARRETO CORDEIRO00200088983625104                                    RUA 18 QD. 30 LT. 1377270000              PALMASTO00           000000000000000000 00000000                AURENY0000000000000000000000000000000000000000000000000                                        0134
1134           0001                  RODRIGO BRAVO & IRMAOS LTDA                  RODRIGO BRAVO & IRMAOS LTDA03321060000366       AV TOCANTINS QD 16 LOTE 04  , SANTA FÉ77270000              PALMASTO               DMI   23506/0920042008200520080010000000000810000000000008100              PALMAS A1                 GUSTAVO PERES MOREIRA BORGES00200001198304189                                      RUA SF1 QD 1 LT 2077270000              PALMASTO00           000000000000000000 00000000                AURENY0000000000000000000000000000000000000000000000000                                        0135
1134           0001                  RODRIGO BRAVO & IRMAOS LTDA                  RODRIGO BRAVO & IRMAOS LTDA03321060000366       AV TOCANTINS QD 16 LOTE 04  , SANTA FÉ77270000              PALMASTO               DMI   39516/0216092008161020080010000000002320000000000023200              PALMAS A1                    GREYCE PEREIRA DE ALMEIDA00200095514384187                          RUA SANTO ANGELO QD.04 LT.04  77270000              PALMASTO00           000000000000000000 00000000                AURENY0000000000000000000000000000000000000000000000000                                        0136
1134           0001                  RODRIGO BRAVO & IRMAOS LTDA                  RODRIGO BRAVO & IRMAOS LTDA03321060000366       AV TOCANTINS QD 16 LOTE 04  , SANTA FÉ77270000              PALMASTO               DMI   217779/726122007260120080010000000000650000000000006500              PALMAS A1                   GLEIDISON PEREIRA DE SOUZA00200001188260189                          RUA CASTELO BRANCO QD.17 LT.2477270000              PALMASTO00           000000000000000000 00000000                AURENY0000000000000000000000000000000000000000000000000                                        0137
1134           0001                  RODRIGO BRAVO & IRMAOS LTDA                  RODRIGO BRAVO & IRMAOS LTDA03321060000366       AV TOCANTINS QD 16 LOTE 04  , SANTA FÉ77270000              PALMASTO               DMI   44111/0229112008291220080010000000000590000000000005900              PALMAS A1                         GILVAIR SOUSA SANTOS00200097877379234                        AV. PERIMETRAL NORTE QD 43 LT 2877000000              PALMASTO00           000000000000000000 00000000                CENTRO0000000000000000000000000000000000000000000000000                                        0138
1134           0001                  RODRIGO BRAVO & IRMAOS LTDA                  RODRIGO BRAVO & IRMAOS LTDA03321060000366       AV TOCANTINS QD 16 LOTE 04  , SANTA FÉ77270000              PALMASTO               DMI   31819/0912112008121220080010000000000650000000000006500              PALMAS A1                           GILMAR SILVA CUNHA00200064525716134                                   RUA RN 10 QD.33 LT.3877270000              PALMASTO00           000000000000000000 00000000                AURENY0000000000000000000000000000000000000000000000000                                        0139
1134           0001                  RODRIGO BRAVO & IRMAOS LTDA                  RODRIGO BRAVO & IRMAOS LTDA03321060000366       AV TOCANTINS QD 16 LOTE 04  , SANTA FÉ77270000              PALMASTO               DMI   39582/0315102008151120080010000000000990000000000009900              PALMAS A1                    GERCINO BURJACK CIRQUEIRA00200090528034120                                          CHACARA 24 S/N77270000              PALMASTO00           000000000000000000 00000000                AURENY0000000000000000000000000000000000000000000000000                                        0140
1134           0001                  RODRIGO BRAVO & IRMAOS LTDA                  RODRIGO BRAVO & IRMAOS LTDA03321060000366       AV TOCANTINS QD 16 LOTE 04  , SANTA FÉ77270000              PALMASTO               DMI   27864/1413062008130720080010000000001872500000000018725              PALMAS A1                    GERALDO DE SOUSA MILHOMEM00200036372919320                                    RUA 20 QD. 177 LT 2477270000              PALMASTO00           000000000000000000 00000000                AURENY0000000000000000000000000000000000000000000000000                                        0141
1134           0001                  RODRIGO BRAVO & IRMAOS LTDA                  RODRIGO BRAVO & IRMAOS LTDA03321060000366       AV TOCANTINS QD 16 LOTE 04  , SANTA FÉ77270000              PALMASTO               DMI   38883/0219082008190920080010000000000890000000000008900              PALMAS A1                    FRANCIVALDO DA SILVA LIMA00200002709792125                                    409 NORTE AL.09 LT1677000000              PALMASTO00           000000000000000000 00000000                CENTRO0000000000000000000000000000000000000000000000000                                        0142
1134           0001                  RODRIGO BRAVO & IRMAOS LTDA                  RODRIGO BRAVO & IRMAOS LTDA03321060000366       AV TOCANTINS QD 16 LOTE 04  , SANTA FÉ77270000              PALMASTO               DMI   32622/0225052008250620080010000000001330000000000013300              PALMAS A1                  FRANCISCO GONÇALVES DE LIMA00200097484822191                                   804 SUL AL 12 LT 59  77000000              PALMASTO00           000000000000000000 00000000                CENTRO0000000000000000000000000000000000000000000000000                                        0143
1134           0001                  RODRIGO BRAVO & IRMAOS LTDA                  RODRIGO BRAVO & IRMAOS LTDA03321060000366       AV TOCANTINS QD 16 LOTE 04  , SANTA FÉ77270000              PALMASTO               DMI   33749/0317062008170720080010000000000250000000000002500              PALMAS A1                      FRANCISCO FURTADO LEMOS00200053705173391                                      RUA 02 QD 13 LT 0977270000              PALMASTO00           000000000000000000 00000000                AURENY0000000000000000000000000000000000000000000000000                                        0144
1134           0001                  RODRIGO BRAVO & IRMAOS LTDA                  RODRIGO BRAVO & IRMAOS LTDA03321060000366       AV TOCANTINS QD 16 LOTE 04  , SANTA FÉ77270000              PALMASTO               DMI   19363/0810122007100120080010000000000100000000000001000              PALMAS A1         FRANCISCO DAS CHAGAS DE MORAES ASSIS00200024933180300                                        AV D QD 33 LT 2177270000              PALMASTO00           000000000000000000 00000000                AURENY0000000000000000000000000000000000000000000000000                                        0145
1134           0001                  RODRIGO BRAVO & IRMAOS LTDA                  RODRIGO BRAVO & IRMAOS LTDA03321060000366       AV TOCANTINS QD 16 LOTE 04  , SANTA FÉ77270000              PALMASTO               DMI   24764/0522012008220220080010000000000470000000000004700              PALMAS A1             FRANCISCO ALAECIO ANJOS DE SOUSA00200008633782855                      AV PERIMETRAL  QD 11 LT.17 CASA 0277270000              PALMASTO00           000000000000000000 00000000                AURENY0000000000000000000000000000000000000000000000000                                        0146
1134           0001                  RODRIGO BRAVO & IRMAOS LTDA                  RODRIGO BRAVO & IRMAOS LTDA03321060000366       AV TOCANTINS QD 16 LOTE 04  , SANTA FÉ77270000              PALMASTO               DMI   26815/1313102008131120080010000000000810000000000008100              PALMAS A1       FRANCISCA MARIA PEREIRA  DO NASCIMENTO00200003006456190                                      RUA 32 QD 45 LT 0877270000              PALMASTO00           000000000000000000 00000000                AURENY0000000000000000000000000000000000000000000000000                                        0147
1134           0001                  RODRIGO BRAVO & IRMAOS LTDA                  RODRIGO BRAVO & IRMAOS LTDA03321060000366       AV TOCANTINS QD 16 LOTE 04  , SANTA FÉ77270000              PALMASTO               DMI   22895/1005052008050620080010000000000580000000000005800              PALMAS A1                 FRANCISCA DIAS DO NASCIMENTO00200090579321134                                     RUA NC 17 QD37 LT0777270000              PALMASTO00           000000000000000000 00000000                AURENY0000000000000000000000000000000000000000000000000                                        0148
1134           0001                  RODRIGO BRAVO & IRMAOS LTDA                  RODRIGO BRAVO & IRMAOS LTDA03321060000366       AV TOCANTINS QD 16 LOTE 04  , SANTA FÉ77270000              PALMASTO               DMI   20237/0812122007120120080010000000001070000000000010700              PALMAS A1                          FLAVIO BRITO FREIRE00200071786996120                                      RUA IP QD 29 LT 1577270000              PALMASTO00           000000000000000000 00000000                AURENY0000000000000000000000000000000000000000000000000                                        0149
1134           0001                  RODRIGO BRAVO & IRMAOS LTDA                  RODRIGO BRAVO & IRMAOS LTDA03321060000366       AV TOCANTINS QD 16 LOTE 04  , SANTA FÉ77270000              PALMASTO               DMI   40015/0330102008301120080010000000000430000000000004300              PALMAS A1                         FLAUSO PEREIRA DE SA00200020002705818                  HM1 BLC D APTO 225 COND. VILA DO SOL/ 77270000              PALMASTO00           000000000000000000 00000000              AURENY 30000000000000000000000000000000000000000000000000                                        0150
1134           0001                  RODRIGO BRAVO & IRMAOS LTDA                  RODRIGO BRAVO & IRMAOS LTDA03321060000366       AV TOCANTINS QD 16 LOTE 04  , SANTA FÉ77270000              PALMASTO               DMI   25139/0810052008100620080010000000000700000000000007000              PALMAS A1                 FERNANDO PEREIRA DE OLIVEIRA00200086065750115                            1206 SUL AL 26 LT 05 CASA 0277000000              PALMASTO00           000000000000000000 00000000                CENTRO0000000000000000000000000000000000000000000000000                                        0151
1134           0001                  RODRIGO BRAVO & IRMAOS LTDA                  RODRIGO BRAVO & IRMAOS LTDA03321060000366       AV TOCANTINS QD 16 LOTE 04  , SANTA FÉ77270000              PALMASTO               DMI   19196/0910122007100120080010000000001580000000000015800              PALMAS A1                         FERNANDO ALVES GOMES00200000957753152                                      RUA 12 QD 43 LT 0477270000              PALMASTO00           000000000000000000 00000000                AURENY0000000000000000000000000000000000000000000000000                                        0152
1134           0001                  RODRIGO BRAVO & IRMAOS LTDA                  RODRIGO BRAVO & IRMAOS LTDA03321060000366       AV TOCANTINS QD 16 LOTE 04  , SANTA FÉ77270000              PALMASTO               DMI   27485/0821072008210820080010000000000140000000000001400              PALMAS A1                          FELIX FERREIRA LIRA00200096893532172                                   RUA NC 04 QD 09 LT 0677270000              PALMASTO00           000000000000000000 00000000                AURENY0000000000000000000000000000000000000000000000000                                        0153
1134           0001                  RODRIGO BRAVO & IRMAOS LTDA                  RODRIGO BRAVO & IRMAOS LTDA03321060000366       AV TOCANTINS QD 16 LOTE 04  , SANTA FÉ77270000              PALMASTO               DMI   21744/0725122007250120080010000000000340000000000003400              PALMAS A1                         FABIO DA SILVA SOUZA00200001508468192                                        RUA 9 QD 2 LT13A77270000              PALMASTO00           000000000000000000 00000000                AURENY0000000000000000000000000000000000000000000000000                                        0154
1134           0001                  RODRIGO BRAVO & IRMAOS LTDA                  RODRIGO BRAVO & IRMAOS LTDA03321060000366       AV TOCANTINS QD 16 LOTE 04  , SANTA FÉ77270000              PALMASTO               DMI   26376/0920082008200920080010000000001430000000000014300              PALMAS A1                     FABIANA DOS SANTOS COSTA00200002800324120                                    RUA 02 QD 08A LT 15A77270000              PALMASTO00           000000000000000000 00000000                AURENY0000000000000000000000000000000000000000000000000                                        0155
1134           0001                  RODRIGO BRAVO & IRMAOS LTDA                  RODRIGO BRAVO & IRMAOS LTDA03321060000366       AV TOCANTINS QD 16 LOTE 04  , SANTA FÉ77270000              PALMASTO               DMI   32483/0225042008250520080010000000000400000000000004000              PALMAS A1                         FABIANA CARLOS LOPES00200098996185191                                        AV E QD 21 LT 2677270000              PALMASTO00           000000000000000000 00000000                AURENY0000000000000000000000000000000000000000000000000                                        0156
1134           0001                  RODRIGO BRAVO & IRMAOS LTDA                  RODRIGO BRAVO & IRMAOS LTDA03321060000366       AV TOCANTINS QD 16 LOTE 04  , SANTA FÉ77270000              PALMASTO               DMI   32917/0410072008100820080010000000000400000000000004000              PALMAS A1                EXPEDITO DOS SANTOS CONCEIÇAO00200066345375187                                    RUA T14  QD 28 LT 2077270000              PALMASTO00           000000000000000000 00000000                AURENY0000000000000000000000000000000000000000000000000                                        0157
1134           0001                  RODRIGO BRAVO & IRMAOS LTDA                  RODRIGO BRAVO & IRMAOS LTDA03321060000366       AV TOCANTINS QD 16 LOTE 04  , SANTA FÉ77270000              PALMASTO               DMI   20087/0830122007300120080010000000000460000000000004600              PALMAS A1                    EVA PEREIRA DO NASCIMENTO00200000485548127                                       AV D  QD 13 LT 2277270000              PALMASTO00           000000000000000000 00000000                AURENY0000000000000000000000000000000000000000000000000                                        0158
1134           0001                  RODRIGO BRAVO & IRMAOS LTDA                  RODRIGO BRAVO & IRMAOS LTDA03321060000366       AV TOCANTINS QD 16 LOTE 04  , SANTA FÉ77270000              PALMASTO               DMI   30682/0322042008220520080010000000000310000000000003100              PALMAS A1                  EUSDAQUES PEREIRA  DE SOUSA00200000154006114                                   RUA T- 16 QD 46 LT 0277270000              PALMASTO00           000000000000000000 00000000                AURENY0000000000000000000000000000000000000000000000000                                        0159
1134           0001                  RODRIGO BRAVO & IRMAOS LTDA                  RODRIGO BRAVO & IRMAOS LTDA03321060000366       AV TOCANTINS QD 16 LOTE 04  , SANTA FÉ77270000              PALMASTO               DMI   24821/0303122007030120080010000000000720000000000007200              PALMAS A1       EUCRISIA MARQUES GONÇALVES DE OLIVEIRA00200098815601104                          RUA MANGUBAS QD 11 LT 02 OU 1277270000              PALMASTO00           000000000000000000 00000000                AURENY0000000000000000000000000000000000000000000000000                                        0160
1134           0001                  RODRIGO BRAVO & IRMAOS LTDA                  RODRIGO BRAVO & IRMAOS LTDA03321060000366       AV TOCANTINS QD 16 LOTE 04  , SANTA FÉ77270000              PALMASTO               DMI   17992/1110122007100120080010000000001670000000000016700              PALMAS A1              ESTEVAO JACQUES DE PAULA JUNIOR00200099918498153                             106 NORTE ALA 09 QI G LT 1377000000              PALMASTO00           000000000000000000 00000000                CENTRO0000000000000000000000000000000000000000000000000                                        0161
1134           0001                  RODRIGO BRAVO & IRMAOS LTDA                  RODRIGO BRAVO & IRMAOS LTDA03321060000366       AV TOCANTINS QD 16 LOTE 04  , SANTA FÉ77270000              PALMASTO               DMI   32868/0510082008100920080010000000001050000000000010500              PALMAS A1                  ERMELSON GOVEIA DE CARVALHO00200003156637157                                    AV M QD 129A CHAC 3477270000              PALMASTO00           000000000000000000 00000000                AURENY0000000000000000000000000000000000000000000000000                                        0162
1134           0001                  RODRIGO BRAVO & IRMAOS LTDA                  RODRIGO BRAVO & IRMAOS LTDA03321060000366       AV TOCANTINS QD 16 LOTE 04  , SANTA FÉ77270000              PALMASTO               DMI   18249/1110122007100120080010000000000350000000000003500              PALMAS A1                          ERICA RIBEIRO ROCHA00200088499189172                                RUA AROEIRAS QD 06 LT 1877270000              PALMASTO00           000000000000000000 00000000                AURENY0000000000000000000000000000000000000000000000000                                        0163
1134           0001                  RODRIGO BRAVO & IRMAOS LTDA                  RODRIGO BRAVO & IRMAOS LTDA03321060000366       AV TOCANTINS QD 16 LOTE 04  , SANTA FÉ77270000              PALMASTO               DMI   21292/1020032008200420080010000000000860000000000008600              PALMAS A1                   ELIZANGELA BENICIO ALMEIDA00200088156591100                                    RUA 12 QD.07 LT 21  77270000              PALMASTO00           000000000000000000 00000000               AURENY 0000000000000000000000000000000000000000000000000                                        0164
1134           0001                  RODRIGO BRAVO & IRMAOS LTDA                  RODRIGO BRAVO & IRMAOS LTDA03321060000366       AV TOCANTINS QD 16 LOTE 04  , SANTA FÉ77270000              PALMASTO               DMI   25938/0610112008101220080010000000000540000000000005400              PALMAS A1                  ELIVANIA BATISTA DOS SANTOS00200000470889152                              AV.GOIAS  QD.33 LT.14     77270000              PALMASTO00           000000000000000000 00000000                AURENY0000000000000000000000000000000000000000000000000                                        0165
1134           0001                  RODRIGO BRAVO & IRMAOS LTDA                  RODRIGO BRAVO & IRMAOS LTDA03321060000366       AV TOCANTINS QD 16 LOTE 04  , SANTA FÉ77270000              PALMASTO               DMI   29401/1126102008261120080010000000001700000000000017000              PALMAS A1               ELIELZA MARIA DA SILVA E SOUZA00200001848409109                                    RUA 14 QD 10 LT 08 B77270000              PALMASTO00           000000000000000000 00000000                AURENY0000000000000000000000000000000000000000000000000                                        0166
