0134CARTORIO POSTAL(RODRIGUES E VIEIRA LTDA)26062012BFOSDTTPR0000130002000200020000     00421721000                                                                                                                                                                                                                                                                                                                                                                                                                                                                                                                 0001
1134           0001                CORES COMERCIO DE TINTAS LTDA                CORES COMERCIO DE TINTAS LTDA10396457000200           104 SUL RUA SE 05 LT 28/30 SALA 0477000000              PALMASTO               DMI    265980215032011150420110010000000001400000000000014000              PALMAS A1            JJM COM. DE PRODUTOS ALIMENTICIOS00112050818000106                      202 SUL AV TEOTONIO SEGURADO LT 1877000000              PALMASTO00           000000000000000000 00000000                CENTRO0000000000000000000000000000000000000000000000000                                        0002
1134           0001                CORES COMERCIO DE TINTAS LTDA                CORES COMERCIO DE TINTAS LTDA10396457000200           104 SUL RUA SE 05 LT 28/30 SALA 0477000000              PALMASTO               DMI    285360218042011180520110010000000006155400000000061554              PALMAS A1            JJM COM. DE PRODUTOS ALIMENTICIOS00112050818000106                      202 SUL AV TEOTONIO SEGURADO LT 1877000000              PALMASTO00           000000000000000000 00000000                CENTRO0000000000000000000000000000000000000000000000000                                        0003
9134CARTORIO POSTAL(RODRIGUES E VIEIRA LTDA)2606201200006000000000000075554                                                                                                                                                                                                                                                                                                                                                                                                                                                                                                                                         0004