0134CARTORIO POSTAL(RODRIGUES E VIEIRA LTDA)09042012BFOSDTTPR0000050436043004360000     00423500000                                                                                                                                                                                                                                                                                                                                                                                                                                                                                                                 0001
1134           0001                  RODRIGO BRAVO & IRMAOS LTDA                  RODRIGO BRAVO & IRMAOS LTDA03321060000102                     104 NORTE RUA NE 01 N 4177020542               2100017              0DMI      4880620022009200320090010000000000800000000000008000              PALMAS A1                        DELIO FIGUEIRA JUNIOR00200004377224140                                     504 SUL AL 06 LT 0900000000              PALMASTO00           000000000000000000 00000000                CENTRO0000000000000000000000000000000000000000000000000                                        0002
1134           0001                  RODRIGO BRAVO & IRMAOS LTDA                  RODRIGO BRAVO & IRMAOS LTDA03321060000102                     104 NORTE RUA NE 01 N 4177020542               2100017              0DMI     13202610092009101020090010000000001215000000000012150              PALMAS A1                    ELIANE RODRIGUES DA SILVA00200040193993368                                   404 NORTE AL 08 NR 2100000000              PALMASTO00           000000000000000000 00000000                CENTRO0000000000000000000000000000000000000000000000000                                        0003
1134           0001                  RODRIGO BRAVO & IRMAOS LTDA                  RODRIGO BRAVO & IRMAOS LTDA03321060000102                     104 NORTE RUA NE 01 N 4177020542               2100017              0DMI     12567610022009100320090010000000001124500000000011245              PALMAS A1                      FLAVIA PEREIRA CARNEIRO00200082678057100                              704 SUL AL 12 N 12 CASA 0300000000              PALMASTO00           000000000000000000 00000000                CENTRO0000000000000000000000000000000000000000000000000                                        0004
1134           0001                  RODRIGO BRAVO & IRMAOS LTDA                  RODRIGO BRAVO & IRMAOS LTDA03321060000102                     104 NORTE RUA NE 01 N 4177020542               2100017              0DMI     13313405072009050802090010000000000760000000000007600              PALMAS A1                     GISLANY RITA DOS SANTOS 00200098739948153                                  ACNE 02 CONJ. 03 LT 3000000000              PALMASTO00           000000000000000000 00000000                CENTRO0000000000000000000000000000000000000000000000000                                        0005
1134           0001                  RODRIGO BRAVO & IRMAOS LTDA                  RODRIGO BRAVO & IRMAOS LTDA03321060000102                     104 NORTE RUA NE 01 N 4177020542               2100017              0DMI     14705508082009080920090010000000000630000000000006300              PALMAS A1                           MILTON LIMA AGUIAR00200028045750200                             305 NORTE AL 19 QI 19 LT 0700000000              PALMASTO00           000000000000000000 00000000                CENTRO0000000000000000000000000000000000000000000000000                                        0006
1134           0001                  RODRIGO BRAVO & IRMAOS LTDA                  RODRIGO BRAVO & IRMAOS LTDA03321060000102                     104 NORTE RUA NE 01 N 4177020542               2100017              0DMI     12180315012009150220090010000000001220000000000012200              PALMAS A1           ROSA MARIA RIBEIRO DE ARAUJO COSTA00200052319148353                     407 NORTE AL 07 M 61 ( QI 22 LT 27)00000000              PALMASTO00           000000000000000000 00000000                CENTRO0000000000000000000000000000000000000000000000000                                        0007
1134           0001                  RODRIGO BRAVO & IRMAOS LTDA                  RODRIGO BRAVO & IRMAOS LTDA03321060000102                     104 NORTE RUA NE 01 N 4177020542               2100017              0DMI     12269515072009150820090010000000001920000000000019200              PALMAS A1                         WELMO GOMES CARVALHO00200097461245104                              1003 SUL QI 16 AL 26 LT 0200000000              PALMASTO00           000000000000000000 00000000                CENTRO0000000000000000000000000000000000000000000000000                                        0008
1134           0001                  RODRIGO BRAVO & IRMAOS LTDA                  RODRIGO BRAVO & IRMAOS LTDA03321060000102                     104 NORTE RUA NE 01 N 4177020542               2100017              0DMI     12617410082009100920090010000000000880000000000008800              PALMAS A1                         ACACIO RIBEIRO ROCHA00200002749746140                                  CHACARA 31 LT 05 QD 6700000000              PALMASTO00           000000000000000000 00000000                CENTRO0000000000000000000000000000000000000000000000000                                        0009
1134           0001                  RODRIGO BRAVO & IRMAOS LTDA                  RODRIGO BRAVO & IRMAOS LTDA03321060000102                     104 NORTE RUA NE 01 N 4177020542               2100017              0DMI     12172930062009300720090010000000000150000000000001500              PALMAS A1                      ADAILSON NOLETO BARBOSA00200076793966120                        CHAC 61 DEPOIS DO CLUBE DA ACCAD00000000              PALMASTO00           000000000000000000 00000000                CENTRO0000000000000000000000000000000000000000000000000                                        0010
1134           0001                  RODRIGO BRAVO & IRMAOS LTDA                  RODRIGO BRAVO & IRMAOS LTDA03321060000102                     104 NORTE RUA NE 01 N 4177020542               2100017              0DMI     13187608072009080820090010000000000490000000000004900              PALMAS A1                       ADAIR PEREIRA DA SILVA00200072083921100                              506 NORTE QI 08 LT 21 N 0600000000              PALMASTO00           000000000000000000 00000000                CENTRO0000000000000000000000000000000000000000000000000                                        0011
1134           0001                  RODRIGO BRAVO & IRMAOS LTDA                  RODRIGO BRAVO & IRMAOS LTDA03321060000102                     104 NORTE RUA NE 01 N 4177020542               2100017              0DMI     10120614122008140120090010000000001799000000000017990              PALMAS A1                    ADEBAR FERNANDES DA SILVA00200002803803640                             712 SUL QI 07 LT 18/20 N 3200000000              PALMASTO00           000000000000000000 00000000                CENTRO0000000000000000000000000000000000000000000000000                                        0012
1134           0001                  RODRIGO BRAVO & IRMAOS LTDA                  RODRIGO BRAVO & IRMAOS LTDA03321060000102                     104 NORTE RUA NE 01 N 4177020542               2100017              0DMI     12994803032009030420090010000000000700000000000007000              PALMAS A1                      ADELIA BARBOSA DA SILVA00200082172510106                               604 SUL AL 12 LT 01 CS 0100000000              PALMASTO00           000000000000000000 00000000                CENTRO0000000000000000000000000000000000000000000000000                                        0013
1134           0001                  RODRIGO BRAVO & IRMAOS LTDA                  RODRIGO BRAVO & IRMAOS LTDA03321060000102                     104 NORTE RUA NE 01 N 4177020542               2100017              0DMI     33866120022009200320090010000000001600000000000016000              PALMAS A1                             ADEMAR DE MORAIS00200002964566917                        612 SUL AL 06 QI 06 LT 110 CS 0400000000              PALMASTO00           000000000000000000 00000000                CENTRO0000000000000000000000000000000000000000000000000                                        0014
1134           0001                  RODRIGO BRAVO & IRMAOS LTDA                  RODRIGO BRAVO & IRMAOS LTDA03321060000102                     104 NORTE RUA NE 01 N 4177020542               2100017              0DMI     11827320062009200720090010000000001380000000000013800              PALMAS A1                   ADERALDO DE JESUS MONTEIRO00200090728980100                                 303 NORTE AL 07 CASA 1200000000              PALMASTO00           000000000000000000 00000000                CENTRO0000000000000000000000000000000000000000000000000                                        0015
1134           0001                  RODRIGO BRAVO & IRMAOS LTDA                  RODRIGO BRAVO & IRMAOS LTDA03321060000102                     104 NORTE RUA NE 01 N 4177020542               2100017              0DMI     13997120112009201220090010000000000750000000000007500              PALMAS A1                     ADRIANA CAETANO DE PADUA00200003004706148                                     806 SUL AL 17 LT 1800000000              PALMASTO00           000000000000000000 00000000                CENTRO0000000000000000000000000000000000000000000000000                                        0016
1134           0001                  RODRIGO BRAVO & IRMAOS LTDA                  RODRIGO BRAVO & IRMAOS LTDA03321060000102                     104 NORTE RUA NE 01 N 4177020542               2100017              0DMI     13001830072009300820090010000000000630000000000006300              PALMAS A1                ADRIANA RODRIGUES DOS SANTOS 00200073741264172                             607 NORTE AL 23 QI 21 LT 0200000000              PALMASTO00           000000000000000000 00000000                CENTRO0000000000000000000000000000000000000000000000000                                        0017
1134           0001                  RODRIGO BRAVO & IRMAOS LTDA                  RODRIGO BRAVO & IRMAOS LTDA03321060000102                     104 NORTE RUA NE 01 N 4177020542               2100017              0DMI     10915022122008220120090010000000000940000000000009400              PALMAS A1                     ADRIANA TAVARES DA SILVA00200001435018109                             RUA SO 1 QDR 22 LT 03 SL 0500000000              PALMASTO00           000000000000000000 00000000                CENTRO0000000000000000000000000000000000000000000000000                                        0018
1134           0001                  RODRIGO BRAVO & IRMAOS LTDA                  RODRIGO BRAVO & IRMAOS LTDA03321060000102                     104 NORTE RUA NE 01 N 4177020542               2100017              0DMI     13755510062009100720090010000000002000000000000020000              PALMAS A1                       AGILDO DE SOUSA SANTOS00200061500810282                                     603 SUL AL 04 LT 3000000000              PALMASTO00           000000000000000000 00000000                CENTRO0000000000000000000000000000000000000000000000000                                        0019
1134           0001                  RODRIGO BRAVO & IRMAOS LTDA                  RODRIGO BRAVO & IRMAOS LTDA03321060000102                     104 NORTE RUA NE 01 N 4177020542               2100017              0DMI     12617318072009180820090010000000000540000000000005400              PALMAS A                       ALBERTO DO CARMO ARAUJO00200061425257453                                     ARSO 23 AL 19 LT 1500000000              PALMASTO00           000000000000000000 00000000                CENTRO0000000000000000000000000000000000000000000000000                                        0020
1134           0001                  RODRIGO BRAVO & IRMAOS LTDA                  RODRIGO BRAVO & IRMAOS LTDA03321060000102                     104 NORTE RUA NE 01 N 4177020542               2100017              0DMI     11486010042009100520090010000000000210000000000002100              PALMAS A1              ALCYOMARA OLIVEIRA FERREIRA LUZ00200092710662191                        307 NORTE AL 29 N 66 QI 33 LT 0100000000              PALMASTO00           000000000000000000 00000000                CENTRO0000000000000000000000000000000000000000000000000                                        0021
1134           0001                  RODRIGO BRAVO & IRMAOS LTDA                  RODRIGO BRAVO & IRMAOS LTDA03321060000102                     104 NORTE RUA NE 01 N 4177020542               2100017              0DMI     13104530052009300620090010000000001130000000000011300              PALMAS A1                         ALDENE SANTANA BRAGA00200051751100120                                  404 SUL AV LO 11 LT 0700000000              PALMASTO00           000000000000000000 00000000                CENTRO0000000000000000000000000000000000000000000000000                                        0022
1134           0001                  RODRIGO BRAVO & IRMAOS LTDA                  RODRIGO BRAVO & IRMAOS LTDA03321060000102                     104 NORTE RUA NE 01 N 4177020542               2100017              0DMI     12878711032009110420090010000000000715000000000007150              PALMAS A1                  ALESSANDRO SUDARIO DA SILVA00200002888002655                 706 SUL AL 12 BL 16 HM 16 BC L  APTO 2200000000              PALMASTO00           000000000000000000 00000000                CENTRO0000000000000000000000000000000000000000000000000                                        0023
1134           0001                  RODRIGO BRAVO & IRMAOS LTDA                  RODRIGO BRAVO & IRMAOS LTDA03321060000102                     104 NORTE RUA NE 01 N 4177020542               2100017              0DMI     15011710102009101120090010000000002000000000000020000              PALMAS A1                   ALEXANDRE RIBEIRO DE MOURA00200026404123886                               207 SUL AL 07 QI 13 LT 3400000000              PALMASTO00           000000000000000000 00000000                CENTRO0000000000000000000000000000000000000000000000000                                        0024
1134           0001                  RODRIGO BRAVO & IRMAOS LTDA                  RODRIGO BRAVO & IRMAOS LTDA03321060000102                     104 NORTE RUA NE 01 N 4177020542               2100017              0DMI     13348630062009300720090010000000002469000000000024690              PALMAS A1                      ALMEIDA & BRAGAN큐 LTDA00103011534000101                            106 SUL AV JK SALA 102 LT 0900000000              PALMASTO00           000000000000000000 00000000                CENTRO0000000000000000000000000000000000000000000000000                                        0025
1134           0001                  RODRIGO BRAVO & IRMAOS LTDA                  RODRIGO BRAVO & IRMAOS LTDA03321060000102                     104 NORTE RUA NE 01 N 4177020542               2100017              0DMI     12781312072009120820090010000000004000000000000040000              PALMAS A1                       ALZENIRA PEREIRA DE SA00200064895190110                                   403 NORTE AL 04 LT 2200000000              PALMASTO00           000000000000000000 00000000                CENTRO0000000000000000000000000000000000000000000000000                                        0026
1134           0001                  RODRIGO BRAVO & IRMAOS LTDA                  RODRIGO BRAVO & IRMAOS LTDA03321060000102                     104 NORTE RUA NE 01 N 4177020542               2100017              0DMI     13240625072009250820090010000000001330000000000013300              PALMAS A1                       AMUZIA SILVIA DE SOUZA00200004398959440                                     711 SUL AL 01 QI LT00000000              PALMASTO00           000000000000000000 00000000                CENTRO0000000000000000000000000000000000000000000000000                                        0027
1134           0001                  RODRIGO BRAVO & IRMAOS LTDA                  RODRIGO BRAVO & IRMAOS LTDA03321060000102                     104 NORTE RUA NE 01 N 4177020542               2100017              0DMI     11813330052009300620090010000000000640000000000006400              PALMAS A1              ANA ISABEL BORGES RIBEIRO ALVES00200002858573123                                        AV E QD 53 LT 2000000000              PALMASTO00           000000000000000000 00000000             AURENY IV0000000000000000000000000000000000000000000000000                                        0028
1134           0001                  RODRIGO BRAVO & IRMAOS LTDA                  RODRIGO BRAVO & IRMAOS LTDA03321060000102                     104 NORTE RUA NE 01 N 4177020542               2100017              0DMI     12869710082009100920090010000000000220000000000002200              PALMAS A1                          ANA JOSE DOS SANTOS00200064075648168                             1012 SUL QI C LT 01 A AL 0300000000              PALMASTO00           000000000000000000 00000000                CENTRO0000000000000000000000000000000000000000000000000                                        0029
1134           0001                  RODRIGO BRAVO & IRMAOS LTDA                  RODRIGO BRAVO & IRMAOS LTDA03321060000102                     104 NORTE RUA NE 01 N 4177020542               2100017              0DMI     13790730062009300720090010000000000570000000000005700              PALMAS A1                    ANA LUCIA LOPES DE ARAUJO00200036084077153                                    1206 SUL AL 01 LT 1400000000              PALMASTO00           000000000000000000 00000000                CENTRO0000000000000000000000000000000000000000000000000                                        0030
1134           0001                  RODRIGO BRAVO & IRMAOS LTDA                  RODRIGO BRAVO & IRMAOS LTDA03321060000102                     104 NORTE RUA NE 01 N 4177020542               2100017              0DMI     10458815042009150520090010000000000154500000000001545              PALMAS A1                               ANA MAYLA GAMA00200001716391113                                   409 NORTE AL 19 LT 0200000000              PALMASTO00           000000000000000000 00000000                CENTRO0000000000000000000000000000000000000000000000000                                        0031
1134           0001                  RODRIGO BRAVO & IRMAOS LTDA                  RODRIGO BRAVO & IRMAOS LTDA03321060000102                     104 NORTE RUA NE 01 N 4177020542               2100017              0DMI     13303022072009220820090010000000001670000000000016700              PALMAS A1                       ANA PAULA DOS MARTIRES00200060541911104                                    303 NORTE AL 3 LT 3400000000              PALMASTO00           000000000000000000 00000000                CENTRO0000000000000000000000000000000000000000000000000                                        0032
1134           0001                  RODRIGO BRAVO & IRMAOS LTDA                  RODRIGO BRAVO & IRMAOS LTDA03321060000102                     104 NORTE RUA NE 01 N 4177020542               2100017              0DMI     12546512052009120620090010000000003030000000000030300              PALMAS A1                      ANADI PIRES DE OLIVEIRA00200034892435104                                  605 SUL AL 30 LT 19/2100000000              PALMASTO00           000000000000000000 00000000                CENTRO0000000000000000000000000000000000000000000000000                                        0033
1134           0001                  RODRIGO BRAVO & IRMAOS LTDA                  RODRIGO BRAVO & IRMAOS LTDA03321060000102                     104 NORTE RUA NE 01 N 4177020542               2100017              0DMI      7032305082009050920090010000000003230000000000032300              PALMAS A1                 ANDRE AIRTON MOURA DA SILVA 00200056052359072                              1005 SUL AL 21 QI 16 LT 2200000000              PALMASTO00           000000000000000000 00000000                CENTRO0000000000000000000000000000000000000000000000000                                        0034
1134           0001                  RODRIGO BRAVO & IRMAOS LTDA                  RODRIGO BRAVO & IRMAOS LTDA03321060000102                     104 NORTE RUA NE 01 N 4177020542               2100017              0DMI     13476712082009120920090010000000000470000000000004700              PALMAS A1                  ANTENOR TORRES RIBEIRO NETO00200034674020549                                 AV I QS 123 LT 16 CS 0200000000              PALMASTO00           000000000000000000 00000000                CENTRO0000000000000000000000000000000000000000000000000                                        0035
1134           0001                  RODRIGO BRAVO & IRMAOS LTDA                  RODRIGO BRAVO & IRMAOS LTDA03321060000102                     104 NORTE RUA NE 01 N 4177020542               2100017              0DMI     11913014112009141220090010000000001370000000000013700              PALMAS A1                     ANTONIA BARBOSA PEREIRA 00200089968620106                                       404 N AL 24 LT 1700000000              PALMASTO00           000000000000000000 00000000                CENTRO0000000000000000000000000000000000000000000000000                                        0036
1134           0001                  RODRIGO BRAVO & IRMAOS LTDA                  RODRIGO BRAVO & IRMAOS LTDA03321060000102                     104 NORTE RUA NE 01 N 4177020542               2100017              0DMI     11325730042009300520090010000000001310000000000013100              PALMAS A1                      ANTONIA DA CUNHA COSTA 00200071788328191                          804 SUL AV LO 21 LT 03 APTO 0100000000              PALMASTO00           000000000000000000 00000000                CENTRO0000000000000000000000000000000000000000000000000                                        0037
1134           0001                  RODRIGO BRAVO & IRMAOS LTDA                  RODRIGO BRAVO & IRMAOS LTDA03321060000102                     104 NORTE RUA NE 01 N 4177020542               2100017              0DMI     14285520082009200920090010000000001000000000000010000              PALMAS A1                       ANTONIO DA SILVA LOPES00200000120505126                             607 NORTE QI 15 LT 08 AL 1500000000              PALMASTO00           000000000000000000 00000000                CENTRO0000000000000000000000000000000000000000000000000                                        0038
1134           0001                  RODRIGO BRAVO & IRMAOS LTDA                  RODRIGO BRAVO & IRMAOS LTDA03321060000102                     104 NORTE RUA NE 01 N 4177020542               2100017              0DMI     12180030092009301020090010000000000580000000000005800              PALMAS A1              ANTONIO KENNEDY RAMOS DAMASCENO00200089242696153                                   409 NORTE AL 14 LT 0600000000              PALMASTO00           000000000000000000 00000000                CENTRO0000000000000000000000000000000000000000000000000                                        0039
1134           0001                  RODRIGO BRAVO & IRMAOS LTDA                  RODRIGO BRAVO & IRMAOS LTDA03321060000102                     104 NORTE RUA NE 01 N 4177020542               2100017              0DMI     10843810052009100620090010000000000212200000000002122              PALMAS A1         ANTONIO MARCIO ALMEIDA DO NASCIMENTO00200098421689134                                   407 NORTE AL 11 LT 2900000000              PALMASTO00           000000000000000000 00000000                CENTRO0000000000000000000000000000000000000000000000000                                        0040
1134           0001                  RODRIGO BRAVO & IRMAOS LTDA                  RODRIGO BRAVO & IRMAOS LTDA03321060000102                     104 NORTE RUA NE 01 N 4177020542               2100017              0DMI     14401611092009111020090010000000001370000000000013700              PALMAS A1                     ANTONIO PEREIRA DA SILVA00200019657978300                                   407 NORTE AL 10 N. 3300000000              PALMASTO00           000000000000000000 00000000                CENTRO0000000000000000000000000000000000000000000000000                                        0041
1134           0001                  RODRIGO BRAVO & IRMAOS LTDA                  RODRIGO BRAVO & IRMAOS LTDA03321060000102                     104 NORTE RUA NE 01 N 4177020542               2100017              0DMI     14397315072009150820090010000000000760000000000007600              PALMAS A1                     ANTONIO PEREIRA DE SOUSA00200083407251149                                    1206 SUL AL 45 LT 0300000000              PALMASTO00           000000000000000000 00000000                CENTRO0000000000000000000000000000000000000000000000000                                        0042
1134           0001                  RODRIGO BRAVO & IRMAOS LTDA                  RODRIGO BRAVO & IRMAOS LTDA03321060000102                     104 NORTE RUA NE 01 N 4177020542               2100017              0DMI     11349425052009250620090010000000000360000000000003600              PALMAS A1                 ANTONIO RODRIGUES DOS SANTOS00200036451401315                         403 SUL AL 09 QI 27 LT 12 CS 0400000000              PALMASTO00           000000000000000000 00000000                CENTRO0000000000000000000000000000000000000000000000000                                        0043
1134           0001                  RODRIGO BRAVO & IRMAOS LTDA                  RODRIGO BRAVO & IRMAOS LTDA03321060000102                     104 NORTE RUA NE 01 N 4177020542               2100017              0DMI     10341230042009300520090010000000000439100000000004391              PALMAS A1                        ARLENE ALVES DE SOUSA00200096598190134                             305 NORTE QI 01 LT 09 AL 0100000000              PALMASTO00           000000000000000000 00000000                CENTRO0000000000000000000000000000000000000000000000000                                        0044
1134           0001                  RODRIGO BRAVO & IRMAOS LTDA                  RODRIGO BRAVO & IRMAOS LTDA03321060000102                     104 NORTE RUA NE 01 N 4177020542               2100017              0DMI     12358016072009160820090010000000000800000000000008000              PALMAS A1               AURICELIA SANDES MARTINS SOUSA00200003775373144                                307 NORTE AV LO 10 LT 3500000000              PALMASTO00           000000000000000000 00000000                 CENTR0000000000000000000000000000000000000000000000000                                        0045
1134           0001                  RODRIGO BRAVO & IRMAOS LTDA                  RODRIGO BRAVO & IRMAOS LTDA03321060000102                     104 NORTE RUA NE 01 N 4177020542               2100017              0DMI     14716910082009100920090010000000000420000000000004200              PALMAS A1                         AURINA VIEIRA VIANA 00200078886910134                                    1204 SUL AL 10 LT 0700000000              PALMASTO00           000000000000000000 00000000                CENTRO0000000000000000000000000000000000000000000000000                                        0046
1134           0001                  RODRIGO BRAVO & IRMAOS LTDA                  RODRIGO BRAVO & IRMAOS LTDA03321060000102                     104 NORTE RUA NE 01 N 4177020542               2100017              0DMI     14109624092009241020090010000000000440000000000004400              PALMAS A1                             BERNARDINA LOPES00200041828097187                             1203 SUL AL 14 APM 12 LT 0700000000              PALMASTO00           000000000000000000 00000000                CENTRO0000000000000000000000000000000000000000000000000                                        0047
1134           0001                  RODRIGO BRAVO & IRMAOS LTDA                  RODRIGO BRAVO & IRMAOS LTDA03321060000102                     104 NORTE RUA NE 01 N 4177020542               2100017              0DMI     10783310022009100320090010000000000530000000000005300              PALMAS A1                   BETANIA GON큐LVES DA SILVA00200000948503130                        ASSENTAMENTO CAPIVARA CHACARA 3100000000              PALMASTO00           000000000000000000 00000000                CENTRO0000000000000000000000000000000000000000000000000                                        0048
1134           0001                  RODRIGO BRAVO & IRMAOS LTDA                  RODRIGO BRAVO & IRMAOS LTDA03321060000102                     104 NORTE RUA NE 01 N 4177020542               2100017              0DMI     11476412082009120920080010000000000869000000000008690              PALMAS A1                  CARLOS CESAR COSTA DO CARMO00200001328125173                             607 NORTE AL 17 LT 16 QI 2200000000              PALMASTO00           000000000000000000 00000000                CENTRO0000000000000000000000000000000000000000000000000                                        0049
1134           0001                  RODRIGO BRAVO & IRMAOS LTDA                  RODRIGO BRAVO & IRMAOS LTDA03321060000102                     104 NORTE RUA NE 01 N 4177020542               2100017              0DMI     11413407012009070220090010000000001090000000000010900              PALMAS A1            CARLOS EDUARDO DE CARVALHO CALDAS00200098888293191                      404 NORTE AL 06 N 3 ( QI 01 LT 04)00000000              PALMASTO00           000000000000000000 00000000                CENTRO0000000000000000000000000000000000000000000000000                                        0050
1134           0001                  RODRIGO BRAVO & IRMAOS LTDA                  RODRIGO BRAVO & IRMAOS LTDA03321060000102                     104 NORTE RUA NE 01 N 4177020542               2100017              0DMI     15928615112009151220090010000000001700000000000017000              PALMAS A1              CARLOS VENNER BARREIRA DE SOUSA00200070850160197                               404 SUL AL 02 QI 13 LT 2000000000              PALMASTO00           000000000000000000 00000000                CENTRO0000000000000000000000000000000000000000000000000                                        0051
1134           0001                  RODRIGO BRAVO & IRMAOS LTDA                  RODRIGO BRAVO & IRMAOS LTDA03321060000102                     104 NORTE RUA NE 01 N 4177020542               2100017              0DMI     12564914092009141020090010000000000390000000000003900              PALMAS A1           CARLOS VINICIUS GON큐LVES FERREIRA00200004766228758                                    106 NORTE AL 17 N 4900000000              PALMASTO00           000000000000000000 00000000                CENTRO0000000000000000000000000000000000000000000000000                                        0052
1134           0001                  RODRIGO BRAVO & IRMAOS LTDA                  RODRIGO BRAVO & IRMAOS LTDA03321060000102                     104 NORTE RUA NE 01 N 4177020542               2100017              0DMI     15128408082009080920090010000000002960000000000029600              PALMAS A1               CARMEM LUCIA DA SILVA PEDROSA 00200077143612120                               103 NORTE RUA NO 09 LT 1900000000              PALMASTO00           000000000000000000 00000000                CENTRO0000000000000000000000000000000000000000000000000                                        0053
1134           0001                  RODRIGO BRAVO & IRMAOS LTDA                  RODRIGO BRAVO & IRMAOS LTDA03321060000102                     104 NORTE RUA NE 01 N 4177020542               2100017              0DMI     14362420082009200920090010000000000410000000000004100              PALMAS A1               CASSILAS DE OLIVEIRA GUIMARAES00200015034879204                               AC. TOCANTINS QD 38 LT 2000000000              PALMASTO00           000000000000000000 00000000                CENTRO0000000000000000000000000000000000000000000000000                                        0054
1134           0001                  RODRIGO BRAVO & IRMAOS LTDA                  RODRIGO BRAVO & IRMAOS LTDA03321060000102                     104 NORTE RUA NE 01 N 4177020542               2100017              0DMI     11761016042009160520090010000000000100000000000001000              PALMAS A1                   CEZAR ADRIANO ALMEIDA LIMA00200002950587143                                    AV TIRADENTES N 298500000000              PALMASTO00           000000000000000000 00000000                CENTRO0000000000000000000000000000000000000000000000000                                        0055
1134           0001                  RODRIGO BRAVO & IRMAOS LTDA                  RODRIGO BRAVO & IRMAOS LTDA03321060000102                     104 NORTE RUA NE 01 N 4177020542               2100017              0DMI     13210220082009200920090010000000000700000000000007000              PALMAS A1                 CICERA CANTANHEDE DOS SANTOS00200076952509372                                      RUA 10 QD 22 LT 2700000000              PALMASTO00           000000000000000000 00000000                CENTRO0000000000000000000000000000000000000000000000000                                        0056
1134           0001                  RODRIGO BRAVO & IRMAOS LTDA                  RODRIGO BRAVO & IRMAOS LTDA03321060000102                     104 NORTE RUA NE 01 N 4177020542               2100017              0DMI      9862710032009100420090010000000000560000000000005600              PALMAS A1                       CILVANIO BISPO CORREIA00200000000858129                                   RUA 10 QD 16 LT 13 B 00000000              PALMASTO00           000000000000000000 00000000                CENTRO0000000000000000000000000000000000000000000000000                                        0057
1134           0001                  RODRIGO BRAVO & IRMAOS LTDA                  RODRIGO BRAVO & IRMAOS LTDA03321060000102                     104 NORTE RUA NE 01 N 4177020542               2100017              0DMI     11433805072009050820090010000000000700000000000007000              PALMAS A1                  CLAETE REGINA PEREIRA SOUSA00200096136740125                        607 NORTE AL 16 N 01 QI 22 LT 1500000000              PALMASTO00           000000000000000000 00000000                CENTRO0000000000000000000000000000000000000000000000000                                        0058
1134           0001                  RODRIGO BRAVO & IRMAOS LTDA                  RODRIGO BRAVO & IRMAOS LTDA03321060000102                     104 NORTE RUA NE 01 N 4177020542               2100017              0DMI      9038510122008100120090010000000000647000000000006470              PALMAS A1               CLAUDIA LUCIA CIPRIANO DE MELO00200085575526100                             603 NORTE AL 15 LT 20 QI 0800000000              PALMASTO00           000000000000000000 00000000                CENTRO0000000000000000000000000000000000000000000000000                                        0059
1134           0001                  RODRIGO BRAVO & IRMAOS LTDA                  RODRIGO BRAVO & IRMAOS LTDA03321060000102                     104 NORTE RUA NE 01 N 4177020542               2100017              0DMI     10932515062009150720090010000000001370000000000013700              PALMAS A1                    CLAUDIA MEDEIROS DA SILVA00200095342680115                             503 NORTE AL 05 QI 11 LT 0100000000              PALMASTO00           000000000000000000 00000000                CENTRO0000000000000000000000000000000000000000000000000                                        0060
1134           0001                  RODRIGO BRAVO & IRMAOS LTDA                  RODRIGO BRAVO & IRMAOS LTDA03321060000102                     104 NORTE RUA NE 01 N 4177020542               2100017              0DMI     13044505092009051020090010000000000500000000000005000              PALMAS A1               CLAUDIA REGINA DE BRITO ARAUJO00200001070667188                               RUA PRIMAVERA QD 64 LT 2200000000              PALMASTO00           000000000000000000 00000000                CENTRO0000000000000000000000000000000000000000000000000                                        0061
1134           0001                  RODRIGO BRAVO & IRMAOS LTDA                  RODRIGO BRAVO & IRMAOS LTDA03321060000102                     104 NORTE RUA NE 01 N 4177020542               2100017              0DMI     13302322062009220720090010000000000750000000000007500              PALMAS A1               CLAUDIANA OLIVEIRA DE CARVALHO00200089005228334                               504 SUL AL 02 LT 80 CS 0300000000              PALMASTO00           000000000000000000 00000000                CENTRO0000000000000000000000000000000000000000000000000                                        0062
1134           0001                  RODRIGO BRAVO & IRMAOS LTDA                  RODRIGO BRAVO & IRMAOS LTDA03321060000102                     104 NORTE RUA NE 01 N 4177020542               2100017              0DMI     13587711052009110620090010000000001299000000000012990              PALMAS A1                  CLAUDIMAR NOGUEIRA DA SILVA00200035819219104                                    1006 SUL AL 19 LT 9600000000              PALMASTO00           000000000000000000 00000000                CENTRO0000000000000000000000000000000000000000000000000                                        0063
1134           0001                  RODRIGO BRAVO & IRMAOS LTDA                  RODRIGO BRAVO & IRMAOS LTDA03321060000102                     104 NORTE RUA NE 01 N 4177020542               2100017              0DMI      9016630032009300420090010000000000690000000000006900              PALMAS A1                      CLAUDIO CONCEI큐O SILVA00200000990559106                             605 NORTE QI 02 AL 03 LT 0500000000              PALMASTO00           000000000000000000 00000000                CENTRO0000000000000000000000000000000000000000000000000                                        0064
1134           0001                  RODRIGO BRAVO & IRMAOS LTDA                  RODRIGO BRAVO & IRMAOS LTDA03321060000102                     104 NORTE RUA NE 01 N 4177020542               2100017              0DMI     11311510042009100520090010000000000340000000000003400              PALMAS A1                      CLEITON DA SILVA ARAUJO00200002465428101                              407 NORTE AL 10 N 04 CS 0200000000              PALMASTO00           000000000000000000 00000000                CENTRO0000000000000000000000000000000000000000000000000                                        0065
1134           0001                  RODRIGO BRAVO & IRMAOS LTDA                  RODRIGO BRAVO & IRMAOS LTDA03321060000102                     104 NORTE RUA NE 01 N 4177020542               2100017              0DMI     10941516022009160320090010000000000488000000000004880              PALMAS A1                   CLEITON LUIS BARREIRO CRUZ00200003667492189                              1306 SUL AL 07 QI 18 LT 3700000000              PALMASTO00           000000000000000000 00000000                CENTRO0000000000000000000000000000000000000000000000000                                        0066
1134           0001                  RODRIGO BRAVO & IRMAOS LTDA                  RODRIGO BRAVO & IRMAOS LTDA03321060000102                     104 NORTE RUA NE 01 N 4177020542               2100017              0DMI     12713120062009200720090010000000000670000000000006700              PALMAS A1                CLEONE GUEDES DA SILVA VIEIRA00200001531544118                              1106 SUL AL 14 CS 04 LT 1300000000              PALMASTO00           000000000000000000 00000000                CENTRO0000000000000000000000000000000000000000000000000                                        0067
1134           0001                  RODRIGO BRAVO & IRMAOS LTDA                  RODRIGO BRAVO & IRMAOS LTDA03321060000102                     104 NORTE RUA NE 01 N 4177020542               2100017              0DMI     10048308012009080220090010000000000150000000000001500              PALMAS A1                   CLEUDIMAR MARTINS DA SILVA00200065714970349                                   303 NORTE AL 10 LT 0500000000              PALMASTO00           000000000000000000 00000000                CENTRO0000000000000000000000000000000000000000000000000                                        0068
1134           0001                  RODRIGO BRAVO & IRMAOS LTDA                  RODRIGO BRAVO & IRMAOS LTDA03321060000102                     104 NORTE RUA NE 01 N 4177020542               2100017              0DMI     11139902092009021020090010000000001400000000000014000              PALMAS A                 CONCEI큐O DE FATIMA RODRIGUES00200038072815172                         303 N AL 15 N 13 ( QI 17 LT 13)00000000              PALMASTO00           000000000000000000 00000000                CENTRO0000000000000000000000000000000000000000000000000                                        0069
1134           0001                  RODRIGO BRAVO & IRMAOS LTDA                  RODRIGO BRAVO & IRMAOS LTDA03321060000102                     104 NORTE RUA NE 01 N 4177020542               2100017              0DMI     15892010112009101220090010000000000360000000000003600              PALMAS A1                   CREUSIANE DIONIZIA DA CRUZ00200001700206141                                 RUA MS 10 QD 23 A LT 0500000000              PALMASTO00           000000000000000000 00000000                CENTRO0000000000000000000000000000000000000000000000000                                        0070
1134           0001                  RODRIGO BRAVO & IRMAOS LTDA                  RODRIGO BRAVO & IRMAOS LTDA03321060000102                     104 NORTE RUA NE 01 N 4177020542               2100017              0DMI     10633015032009150420090010000000000130000000000001300              PALMAS A1                 CRISTIANE DA CRUZ MELQUIADES00200002798130158                                  QD T 32 CONJ. 26 LT 0900000000              PALMASTO00           000000000000000000 00000000                CENTRO0000000000000000000000000000000000000000000000000                                        0071
1134           0001                  RODRIGO BRAVO & IRMAOS LTDA                  RODRIGO BRAVO & IRMAOS LTDA03321060000102                     104 NORTE RUA NE 01 N 4177020542               2100017              0DMI      7038715022009150320090010000000000240000000000002400              PALMAS A1                           CRISTIANE DA SILVA00200002747917142                              RUA 32 QDR 181 LT 25 CS 0200000000              PALMASTO00           000000000000000000 00000000                CENTRO0000000000000000000000000000000000000000000000000                                        0072
1134           0001                  RODRIGO BRAVO & IRMAOS LTDA                  RODRIGO BRAVO & IRMAOS LTDA03321060000102                     104 NORTE RUA NE 01 N 4177020542               2100017              0DMI     14186710072009100820090010000000000300000000000003000              PALMAS A1                 CRISTIANE VERISSIMO DE SOUSA00200003019848164                             303 NORTE AL 01 LT 18 CS 0100000000              PALMASTO00           000000000000000000 00000000                CENTRO0000000000000000000000000000000000000000000000000                                        0073
1134           0001                  RODRIGO BRAVO & IRMAOS LTDA                  RODRIGO BRAVO & IRMAOS LTDA03321060000102                     104 NORTE RUA NE 01 N 4177020542               2100017              0DMI     11520404042009040520090010000000000303500000000003035              PALMAS A1                  DANIELLA PEREIRA NASCIMENTO00200004047170127                             305 NORTE AL 17 QI 25 LT 1600000000              PALMASTO00           000000000000000000 00000000                CENTRO0000000000000000000000000000000000000000000000000                                        0074
1134           0001                  RODRIGO BRAVO & IRMAOS LTDA                  RODRIGO BRAVO & IRMAOS LTDA03321060000102                     104 NORTE RUA NE 01 N 4177020542               2100017              0DMI     14169305092009051020090010000000000390000000000003900              PALMAS A             DAYANNE DE PAULA ALMEIDA DA SILVA00200070643105115                                   407 NORTE AL 07 CS 0900000000              PALMASTO00           000000000000000000 00000000                CENTRO0000000000000000000000000000000000000000000000000                                        0075
1134           0001                  RODRIGO BRAVO & IRMAOS LTDA                  RODRIGO BRAVO & IRMAOS LTDA03321060000102                     104 NORTE RUA NE 01 N 4177020542               2100017              0DMI     14020816072009160820090010000000000200000000000002000              PALMAS A1                    DEBLES RODRIGUES DA COSTA00200078901928191                                         T 22 CJ 9 LT 0800000000              PALMASTO00           000000000000000000 00000000                CENTRO0000000000000000000000000000000000000000000000000                                        0076
1134           0001                  RODRIGO BRAVO & IRMAOS LTDA                  RODRIGO BRAVO & IRMAOS LTDA03321060000102                     104 NORTE RUA NE 01 N 4177020542               2100017              0DMI      7041410122008100120090010000000002000000000000020000              PALMAS A1                       DEBORA CRISTINA COLLET00200097062154172                                     904 SUL AL 13 CS 5700000000              PALMASTO00           000000000000000000 00000000                CENTRO0000000000000000000000000000000000000000000000000                                        0077
1134           0001                  RODRIGO BRAVO & IRMAOS LTDA                  RODRIGO BRAVO & IRMAOS LTDA03321060000102                     104 NORTE RUA NE 01 N 4177020542               2100017              0DMI     10161117122008170120090010000000000180000000000001800              PALMAS A1                     DEBORA FERREIRA DA SILVA00200001575991322                             607 NORTE AL 16 LT 16 QI 1900000000              PALMASTO00           000000000000000000 00000000                CENTRO0000000000000000000000000000000000000000000000000                                        0078
1134           0001                  RODRIGO BRAVO & IRMAOS LTDA                  RODRIGO BRAVO & IRMAOS LTDA03321060000102                     104 NORTE RUA NE 01 N 4177020542               2100017              0DMI      9792315012009150220090010000000000683000000000006830              PALMAS A1                   DELZUITA VENANCIA FERREIRA00200000397537190                           QD 405 NORTE AL 11 QI 19 N 0500000000              PALMASTO00           000000000000000000 00000000                CENTRO0000000000000000000000000000000000000000000000000                                        0079
1134           0001                  RODRIGO BRAVO & IRMAOS LTDA                  RODRIGO BRAVO & IRMAOS LTDA03321060000102                     104 NORTE RUA NE 01 N 4177020542               2100017              0DMI     12504002052009020620090010000000001495100000000014951              PALMAS A1                       DEUSENE SANTOS PEREIRA00200092722431149                                      303 N  AL 07 LT 1400000000              PALMASTO00           000000000000000000 00000000                CENTRO0000000000000000000000000000000000000000000000000                                        0080
1134           0001                  RODRIGO BRAVO & IRMAOS LTDA                  RODRIGO BRAVO & IRMAOS LTDA03321060000102                     104 NORTE RUA NE 01 N 4177020542               2100017              0DMI     15238310112009101220090010000000000240000000000002400              PALMAS A1                     DEUSIVALDO COSTA BATISTA00200079518150125                             605 NORTE AL 15 QI 23 LT 2600000000              PALMASTO00           000000000000000000 00000000                CENTRO0000000000000000000000000000000000000000000000000                                        0081
1134           0001                  RODRIGO BRAVO & IRMAOS LTDA                  RODRIGO BRAVO & IRMAOS LTDA03321060000102                     104 NORTE RUA NE 01 N 4177020542               2100017              0DMI      7617912122008120120090010000000001390000000000013900              PALMAS A1                    DEUZA DE OLIVEIRA MIRANDA00200099699451653                             603 NORTE QI 06 LT 16 SL 0100000000              PALMASTO00           000000000000000000 00000000                CENTRO0000000000000000000000000000000000000000000000000                                        0082
1134           0001                  RODRIGO BRAVO & IRMAOS LTDA                  RODRIGO BRAVO & IRMAOS LTDA03321060000102                     104 NORTE RUA NE 01 N 4177020542               2100017              0DMI     14103505102009051120090010000000000800000000000008000              PALMAS A1                     DEUZIMAR LEONCO FERREIRA00200003734983657                                  303 NORTE  AL 14 LT 4000000000              PALMASTO00           000000000000000000 00000000                CENTRO0000000000000000000000000000000000000000000000000                                        0083
1134           0001                  RODRIGO BRAVO & IRMAOS LTDA                  RODRIGO BRAVO & IRMAOS LTDA03321060000102                     104 NORTE RUA NE 01 N 4177020542               2100017              0DMI      7109820122008200120090010000000000616000000000006160              PALMAS A1                 DIANGO DAVID DE MORAIS MELO 00200002460676166                                     1206 SUL AL 45 LT 100000000              PALMASTO00           000000000000000000 00000000                CENTRO0000000000000000000000000000000000000000000000000                                        0084
1134           0001                  RODRIGO BRAVO & IRMAOS LTDA                  RODRIGO BRAVO & IRMAOS LTDA03321060000102                     104 NORTE RUA NE 01 N 4177020542               2100017              0DMI     13003025112009251220090010000000000380000000000003800              PALMAS A1                      DILMA CARNEIRO DE SILVA00200098425986168                        603 NORTE AL 04 N 28 QI 30 LT 2300000000              PALMASTO00           000000000000000000 00000000                CENTRO0000000000000000000000000000000000000000000000000                                        0085
1134           0001                  RODRIGO BRAVO & IRMAOS LTDA                  RODRIGO BRAVO & IRMAOS LTDA03321060000102                     104 NORTE RUA NE 01 N 4177020542               2100017              0DMI     10309420052009200620090010000000001550000000000015500              PALMAS A1                   DIONAN FERREIRA LOPES LIMA00200094761515104                      1206 SUL AL 09 N 18 ( QI 13 LT 21)00000000              PALMASTO00           000000000000000000 00000000                CENTRO0000000000000000000000000000000000000000000000000                                        0086
1134           0001                  RODRIGO BRAVO & IRMAOS LTDA                  RODRIGO BRAVO & IRMAOS LTDA03321060000102                     104 NORTE RUA NE 01 N 4177020542               2100017              0DMI     13917610062009100720090010000000000760000000000007600              PALMAS A1                        DIRCEU GOMES DA COSTA00200088407420182                                 405 N AL 15 LT 16 QI 0700000000              PALMASTO00           000000000000000000 00000000                CENTRO0000000000000000000000000000000000000000000000000                                        0087
1134           0001                  RODRIGO BRAVO & IRMAOS LTDA                  RODRIGO BRAVO & IRMAOS LTDA03321060000102                     104 NORTE RUA NE 01 N 4177020542               2100017              0DMI      9148410122008100120090010000000000099000000000000990              PALMAS A1                       DJANES SOARES DOS REIS00200001336423137                                    1206 SUL AL 51 LT 0200000000              PALMASTO00           000000000000000000 00000000                CENTRO0000000000000000000000000000000000000000000000000                                        0088
1134           0001                  RODRIGO BRAVO & IRMAOS LTDA                  RODRIGO BRAVO & IRMAOS LTDA03321060000102                     104 NORTE RUA NE 01 N 4177020542               2100017              0DMI     12417520072009200820090010000000000560000000000005600              PALMAS A1                DJAYSON THIAGO DA COSTA ALVES00200090713656115                                     210 SUL AL 13 LT 3000000000              PALMASTO00           000000000000000000 00000000                CENTRO0000000000000000000000000000000000000000000000000                                        0089
1134           0001                  RODRIGO BRAVO & IRMAOS LTDA                  RODRIGO BRAVO & IRMAOS LTDA03321060000102                     104 NORTE RUA NE 01 N 4177020542               2100017              0DMI     12805912072009120820090010000000001000000000000010000              PALMAS A1            DOMINGOS RONALDO CORREIA ASSUN큐O00200083310010104                                   CHACARA TIUBA TO 20, 00000000              PALMASTO00           000000000000000000 00000000                CENTRO0000000000000000000000000000000000000000000000000                                        0090
1134           0001                  RODRIGO BRAVO & IRMAOS LTDA                  RODRIGO BRAVO & IRMAOS LTDA03321060000102                     104 NORTE RUA NE 01 N 4177020542               2100017              0DMI     15888130102009301120090010000000001420000000000014200              PALMAS A1                DORALICE AGUIAR PARENTE FRANK00200096378425191                             403 NORTE AL 05 LT 16 QI 0800000000              PALMASTO00           000000000000000000 00000000                CENTRO0000000000000000000000000000000000000000000000000                                        0091
1134           0001                  RODRIGO BRAVO & IRMAOS LTDA                  RODRIGO BRAVO & IRMAOS LTDA03321060000102                     104 NORTE RUA NE 01 N 4177020542               2100017              0DMI     11545212042009120520090010000000000260000000000002600              PALMAS A1                    DRIELLY CRISTINE DE SOUZA00200001354457102                             305 NORTE AL 07 QI 05 LT 0400000000              PALMASTO00           000000000000000000 00000000                CENTRO0000000000000000000000000000000000000000000000000                                        0092
1134           0001                  RODRIGO BRAVO & IRMAOS LTDA                  RODRIGO BRAVO & IRMAOS LTDA03321060000102                     104 NORTE RUA NE 01 N 4177020542               2100017              0DMI     12263716052009160620090010000000000780000000000007800              PALMAS A1                   EDIMILSON PEREIRA DA SILVA00200053224159120                                     RUA 11 QD 15 LT 1 B00000000              PALMASTO00           000000000000000000 00000000                CENTRO0000000000000000000000000000000000000000000000000                                        0093
1134           0001                  RODRIGO BRAVO & IRMAOS LTDA                  RODRIGO BRAVO & IRMAOS LTDA03321060000102                     104 NORTE RUA NE 01 N 4177020542               2100017              0DMI     14170129092009291020090010000000000510000000000005100              PALMAS A1                     EDIVALDO PEREIRA BARBOSA00200091336406100                                      RUA 28 QD 44 LT 2000000000              PALMASTO00           000000000000000000 00000000                CENTRO0000000000000000000000000000000000000000000000000                                        0094
1134           0001                  RODRIGO BRAVO & IRMAOS LTDA                  RODRIGO BRAVO & IRMAOS LTDA03321060000102                     104 NORTE RUA NE 01 N 4177020542               2100017              0DMI     13689805082009050920090010000000000550000000000005500              PALMAS A1                         EDNA DA SILVA MOURAO00200041343379334                                     RUA 5 A QD 07 LT 0400000000              PALMASTO00           000000000000000000 00000000                CENTRO0000000000000000000000000000000000000000000000000                                        0095
1134           0001                  RODRIGO BRAVO & IRMAOS LTDA                  RODRIGO BRAVO & IRMAOS LTDA03321060000102                     104 NORTE RUA NE 01 N 4177020542               2100017              0DMI     11529615052009150620090010000000001330000000000013300              PALMAS A1                    EDSON FERREIRA DE ALECRIM00200026116928153                                    1012 SUL AL 01 LT 0900000000              PALMASTO00           000000000000000000 00000000                CENTRO0000000000000000000000000000000000000000000000000                                        0096
1134           0001                  RODRIGO BRAVO & IRMAOS LTDA                  RODRIGO BRAVO & IRMAOS LTDA03321060000102                     104 NORTE RUA NE 01 N 4177020542               2100017              0DMI     11128505062009050720090010000000000400000000000004000              PALMAS A1           EDUARDO VINICIUS FERNANDES CARDOSO00200003017696138                              405 NORTE AL 13 QI 17 LT 100000000              PALMASTO00           000000000000000000 00000000                CENTRO0000000000000000000000000000000000000000000000000                                        0097
1134           0001                  RODRIGO BRAVO & IRMAOS LTDA                  RODRIGO BRAVO & IRMAOS LTDA03321060000102                     104 NORTE RUA NE 01 N 4177020542               2100017              0DMI     11464911012009110220090010000000001590000000000015900              PALMAS A1                      EDVALSON ALVES DOS REIS00200040946436134                                    RUA T 15 QI 19 LT 1700000000              PALMASTO00           000000000000000000 00000000        SETOR SANTA FE0000000000000000000000000000000000000000000000000                                        0098
1134           0001                  RODRIGO BRAVO & IRMAOS LTDA                  RODRIGO BRAVO & IRMAOS LTDA03321060000102                     104 NORTE RUA NE 01 N 4177020542               2100017              0DMI     12736920032009200420090010000000000740000000000007400              PALMAS A1                    ELIANE GON큐LVES DA SILVA00200001737925370                                   303 NORTE AL 24 LT 0200000000              PALMASTO00           000000000000000000 00000000                CENTRO0000000000000000000000000000000000000000000000000                                        0099
1134           0001                  RODRIGO BRAVO & IRMAOS LTDA                  RODRIGO BRAVO & IRMAOS LTDA03321060000102                     104 NORTE RUA NE 01 N 4177020542               2100017              0DMI     11807222072009220820090010000000000280000000000002800              PALMAS A1                        ELIANE MENDES BATISTA00200003005692116                                      RUA 16 QD 54 LT 2100000000              PALMASTO00           000000000000000000 00000000                CENTRO0000000000000000000000000000000000000000000000000                                        0100
1134           0001                  RODRIGO BRAVO & IRMAOS LTDA                  RODRIGO BRAVO & IRMAOS LTDA03321060000102                     104 NORTE RUA NE 01 N 4177020542               2100017              0DMI      1011116092009161020090010000000000131400000000001314              PALMAS A1                 ELESBAO OLIVEIRA CAVALCANTE 00200034247599100                                     1004 SUL AL 4 LT 1700000000              PALMASTO00           000000000000000000 00000000                CENTRO0000000000000000000000000000000000000000000000000                                        0101
1134           0001                  RODRIGO BRAVO & IRMAOS LTDA                  RODRIGO BRAVO & IRMAOS LTDA03321060000102                     104 NORTE RUA NE 01 N 4177020542               2100017              0DMI     11066705032009050420090010000000001700000000000017000              PALMAS A1                   ELIANE DE OLIVEIRA E SILVA00200001205827161                                     906 SUL AL 07 LT 1200000000              PALMASTO00           000000000000000000 00000000                CENTRO0000000000000000000000000000000000000000000000000                                        0102
1134           0001                  RODRIGO BRAVO & IRMAOS LTDA                  RODRIGO BRAVO & IRMAOS LTDA03321060000102                     104 NORTE RUA NE 01 N 4177020542               2100017              0DMI      9838218032009180420090010000000000812400000000008124              PALMAS A1                      ELIANI DE SOUZA ALMEIDA00200098606786187                 407 NORTE AL 10 QI 09 LT 16 KIT 01 N 3200000000              PALMASTO00           000000000000000000 00000000                CENTRO0000000000000000000000000000000000000000000000000                                        0103
1134           0001                  RODRIGO BRAVO & IRMAOS LTDA                  RODRIGO BRAVO & IRMAOS LTDA03321060000102                     104 NORTE RUA NE 01 N 4177020542               2100017              0DMI     12576016042009160520090010000000000400000000000004000              PALMAS A1                        ELIENE FREITA PEREIRA00200032820240372                 106 N AL 1 COND. RIO NEGRO  AP 113 VL D00000000              PALMASTO00           000000000000000000 00000000                CENTRO0000000000000000000000000000000000000000000000000                                        0104
1134           0001                  RODRIGO BRAVO & IRMAOS LTDA                  RODRIGO BRAVO & IRMAOS LTDA03321060000102                     104 NORTE RUA NE 01 N 4177020542               2100017              0DMI     11530905062009050720090010000000000790000000000007900              PALMAS A1                      ELINE DE CASSIA PEREIRA00200099203324100                                     208 SUL AL 03 NM 7500000000              PALMASTO00           000000000000000000 00000000                CENTRO0000000000000000000000000000000000000000000000000                                        0105
1134           0001                  RODRIGO BRAVO & IRMAOS LTDA                  RODRIGO BRAVO & IRMAOS LTDA03321060000102                     104 NORTE RUA NE 01 N 4177020542               2100017              0DMI     10520521012009210220090010000000000952400000000009524              PALMAS A1            ELISANGELA ARAUJO DE SOUSA SOARES00200087983958153                        1003 SUL AL 10 HM 02 LT 03 AP 0400000000              PALMASTO00           000000000000000000 00000000                CENTRO0000000000000000000000000000000000000000000000000                                        0106
1134           0001                  RODRIGO BRAVO & IRMAOS LTDA                  RODRIGO BRAVO & IRMAOS LTDA03321060000102                     104 NORTE RUA NE 01 N 4177020542               2100017              0DMI     12470824062009240720090010000000002326600000000023266              PALMAS A1                  ELISANGELA PEREIRA DA SILVA00200084606380144                             506 NORTE AL 03 QI 10 LT 0400000000              PALMASTO00           000000000000000000 00000000                CENTRO0000000000000000000000000000000000000000000000000                                        0107
1134           0001                  RODRIGO BRAVO & IRMAOS LTDA                  RODRIGO BRAVO & IRMAOS LTDA03321060000102                     104 NORTE RUA NE 01 N 4177020542               2100017              0DMI     12449220092009201020090010000000000239000000000002390              PALMAS A1                      ELIZABETH GOMES ALMEIDA00200078673160197                                         303N AL 03 LT 300000000              PALMASTO00           000000000000000000 00000000                CENTRO0000000000000000000000000000000000000000000000000                                        0108
1134           0001                  RODRIGO BRAVO & IRMAOS LTDA                  RODRIGO BRAVO & IRMAOS LTDA03321060000102                     104 NORTE RUA NE 01 N 4177020542               2100017              0DMI      8007220022009200320090010000000001000000000000010000              PALMAS A1                 ELIGANGELA RODRIGUES RIBEIRO00200093200366168                                    1206 S AL 04 LT 56 A00000000              PALMASTO00           000000000000000000 00000000                CENTRO0000000000000000000000000000000000000000000000000                                        0109
1134           0001                  RODRIGO BRAVO & IRMAOS LTDA                  RODRIGO BRAVO & IRMAOS LTDA03321060000102                     104 NORTE RUA NE 01 N 4177020542               2100017              0DMI     11172514032009140420090010000000000300000000000003000              PALMAS A1                       ELOIZA CARDOSO PEREIRA00200002582420190                                   404 NORTE AL 24 LT 1500000000              PALMASTO00           000000000000000000 00000000                CENTRO0000000000000000000000000000000000000000000000000                                        0110
1134           0001                  RODRIGO BRAVO & IRMAOS LTDA                  RODRIGO BRAVO & IRMAOS LTDA03321060000102                     104 NORTE RUA NE 01 N 4177020542               2100017              0DMI     12748426022009260320090010000000000149000000000001490              PALMAS A1EMANOEL MESSIAS DE JESUS RODRIGUES ALVES COST00200080740294334                                 106 N AL 16 LT 01 CS 0300000000              PALMASTO00           000000000000000000 00000000                CENTRO0000000000000000000000000000000000000000000000000                                        0111
1134           0001                  RODRIGO BRAVO & IRMAOS LTDA                  RODRIGO BRAVO & IRMAOS LTDA03321060000102                     104 NORTE RUA NE 01 N 4177020542               2100017              0DMI     12897715042009150520090010000000000630000000000006300              PALMAS A1               ERIKA REGINA FERREIRA MONTEIRO00200001718122128                                    1104 SUL AL 06 LT 1700000000              PALMASTO00           000000000000000000 00000000                CENTRO0000000000000000000000000000000000000000000000000                                        0112
1134           0001                  RODRIGO BRAVO & IRMAOS LTDA                  RODRIGO BRAVO & IRMAOS LTDA03321060000102                     104 NORTE RUA NE 01 N 4177020542               2100017              0DMI      8126015012009150220090010000000002670000000000026700              PALMAS A1                     ERMIDIO RODRIGUES COELHO00200057672024191                                       QD 23 AL 11 LT 0100000000              PALMASTO00           000000000000000000 00000000                CENTRO0000000000000000000000000000000000000000000000000                                        0113
1134           0001                  RODRIGO BRAVO & IRMAOS LTDA                  RODRIGO BRAVO & IRMAOS LTDA03321060000102                     104 NORTE RUA NE 01 N 4177020542               2100017              0DMI     15573810102009101120090010000000000370000000000003700              PALMAS A1                    ERONIDIO NASCIMENTO BRITO00200087094576153                              1306 SUL AL 03 QI 04 LT 3600000000              PALMASTO00           000000000000000000 00000000                CENTRO0000000000000000000000000000000000000000000000000                                        0114
1134           0001                  RODRIGO BRAVO & IRMAOS LTDA                  RODRIGO BRAVO & IRMAOS LTDA03321060000102                     104 NORTE RUA NE 01 N 4177020542               2100017              0DMI     12790302032009020420090010000000000410000000000004100              PALMAS A1                   ESPEDITO PEREIRA  DE SOUSA00200070629668191                                     604 SUL AL 04 LT 5400000000              PALMASTO00           000000000000000000 00000000                CENTRO0000000000000000000000000000000000000000000000000                                        0115
1134           0001                  RODRIGO BRAVO & IRMAOS LTDA                  RODRIGO BRAVO & IRMAOS LTDA03321060000102                     104 NORTE RUA NE 01 N 4177020542               2100017              0DMI     11548315062009150720090010000000001410000000000014100              PALMAS A1                 EUGENIO SOUZA BANDEIRA FILHO00200092559476134                                   RUA RN 02 QI 15 LT 2700000000              PALMASTO00           000000000000000000 00000000              AURENY 30000000000000000000000000000000000000000000000000                                        0116
1134           0001                  RODRIGO BRAVO & IRMAOS LTDA                  RODRIGO BRAVO & IRMAOS LTDA03321060000102                     104 NORTE RUA NE 01 N 4177020542               2100017              0DMI     11506810022009100320090010000000000320000000000003200              PALMAS A1                     EUSIRAN CAMPOS VALADARES00200060155949187                               508 N QI 05 LT 26 A CS 0500000000              PALMASTO00           000000000000000000 00000000                CENTRO0000000000000000000000000000000000000000000000000                                        0117
1134           0001                  RODRIGO BRAVO & IRMAOS LTDA                  RODRIGO BRAVO & IRMAOS LTDA03321060000102                     104 NORTE RUA NE 01 N 4177020542               2100017              0DMI     12026000000000300320090010000000000520000000000005200              PALMAS A1                           EVANGELISTA COELHO00200024862363415                             607 NORTE AL 14 QI 13 LT 1200000000              PALMASTO00           000000000000000000 00000000               CENTRO 0000000000000000000000000000000000000000000000000                                        0118
1134           0001                  RODRIGO BRAVO & IRMAOS LTDA                  RODRIGO BRAVO & IRMAOS LTDA03321060000102                     104 NORTE RUA NE 01 N 4177020542               2100017              0DMI     11620720012009200220090010000000000180000000000001800              PALMAS A1                   EVANI FRAGOSA DE OLIVEIRA 00200001116569159                                605 N T 21 CONJ 56 LT 2100000000              PALMASTO00           000000000000000000 00000000                CENTRO0000000000000000000000000000000000000000000000000                                        0119
1134           0001                  RODRIGO BRAVO & IRMAOS LTDA                  RODRIGO BRAVO & IRMAOS LTDA03321060000102                     104 NORTE RUA NE 01 N 4177020542               2100017              0DMI     10872515032009150420090010000000000366000000000003660              PALMAS A1                                EVERALDO ROSA00200002778153632                                  103 SUL AV. LO 01 N 5300000000              PALMASTO00           000000000000000000 00000000                CENTRO0000000000000000000000000000000000000000000000000                                        0120
1134           0001                  RODRIGO BRAVO & IRMAOS LTDA                  RODRIGO BRAVO & IRMAOS LTDA03321060000102                     104 NORTE RUA NE 01 N 4177020542               2100017              0DMI     14655910092009101020090010000000002620000000000026200              PALMAS A1          FABIA CHRISTHINA  DUARTE GAUDIE LEY00200053051289191                                       303 N AL 06 LT 2400000000              PALMASTO00           000000000000000000 00000000                CENTRO0000000000000000000000000000000000000000000000000                                        0121
1134           0001                  RODRIGO BRAVO & IRMAOS LTDA                  RODRIGO BRAVO & IRMAOS LTDA03321060000102                     104 NORTE RUA NE 01 N 4177020542               2100017              0DMI     11080710032009100420090010000000001840000000000018400              PALMAS A1                             FABIANO FAGUNDES00200088897621953                                    ARSE 111 AL 14 LT 7700000000              PALMASTO00           000000000000000000 00000000                CENTRO0000000000000000000000000000000000000000000000000                                        0122
1134           0001                  RODRIGO BRAVO & IRMAOS LTDA                  RODRIGO BRAVO & IRMAOS LTDA03321060000102                     104 NORTE RUA NE 01 N 4177020542               2100017              0DMI     10936920042009200520090010000000001560000000000015600              PALMAS A1                      FABIO ALEXANDRE PEREIRA00200015286519873                             305 NORTE AL 34 QI 35 LT 1300000000              PALMASTO00           000000000000000000 00000000                CENTRO0000000000000000000000000000000000000000000000000                                        0123
1134           0001                  RODRIGO BRAVO & IRMAOS LTDA                  RODRIGO BRAVO & IRMAOS LTDA03321060000102                     104 NORTE RUA NE 01 N 4177020542               2100017              0DMI     11996523022009230320090010000000000350000000000003500              PALMAS A1                 FABIO PINTO CASTRO DE AQUINO00200002729641157             702 SUL CONJ. 01 LT 12 AV TEOTONIO SEGURADO00000000              PALMASTO00           000000000000000000 00000000                CENTRO0000000000000000000000000000000000000000000000000                                        0124
1134           0001                  RODRIGO BRAVO & IRMAOS LTDA                  RODRIGO BRAVO & IRMAOS LTDA03321060000102                     104 NORTE RUA NE 01 N 4177020542               2100017              0DMI     11999520102009201120090010000000001460000000000014600              PALMAS A1                        FABIO VIEIRA DAMACENO00200000148192106                                         403 AL 02 LT 0300000000              PALMASTO00           000000000000000000 00000000                CENTRO0000000000000000000000000000000000000000000000000                                        0125
1134           0001                  RODRIGO BRAVO & IRMAOS LTDA                  RODRIGO BRAVO & IRMAOS LTDA03321060000102                     104 NORTE RUA NE 01 N 4177020542               2100017              0DMI     11371610072009100820090010000000001590000000000015900              PALMAS A1                     FERNANDA VIEIRA DA SILVA00200092659063168                            307 N AL 22 N 83 QI 03 LT 0200000000              PALMASTO00           000000000000000000 00000000               CENTRO 0000000000000000000000000000000000000000000000000                                        0126
1134           0001                  RODRIGO BRAVO & IRMAOS LTDA                  RODRIGO BRAVO & IRMAOS LTDA03321060000102                     104 NORTE RUA NE 01 N 4177020542               2100017              0DMI     11022425122008250120090010000000001150000000000011500              PALMAS A1           FERNANDO ANTONIO ALVES DE OLIVEIRA00200007700499748                                     204 SUL AL 08 LT 2700000000              PALMASTO00           000000000000000000 00000000                CENTRO0000000000000000000000000000000000000000000000000                                        0127
1134           0001                  RODRIGO BRAVO & IRMAOS LTDA                  RODRIGO BRAVO & IRMAOS LTDA03321060000102                     104 NORTE RUA NE 01 N 4177020542               2100017              0DMI     15199510092009101020090010000000000580000000000005800              PALMAS A1                    FLAVIA RODRIGUES MENDON큐00200004438740428                                       409 N AL 26 LT 1500000000              PALMASTO00           000000000000000000 00000000                CENTRO0000000000000000000000000000000000000000000000000                                        0128
1134           0001                  RODRIGO BRAVO & IRMAOS LTDA                  RODRIGO BRAVO & IRMAOS LTDA03321060000102                     104 NORTE RUA NE 01 N 4177020542               2100017              0DMI     11969625022009250320090010000000002090000000000020900              PALMAS A1              FLAVIO LEANDRO OLIVEIRA CARDOSO00200094924791172                              104 SUL AV LO 03 LT 2 N 7500000000              PALMASTO00           000000000000000000 00000000                CENTRO0000000000000000000000000000000000000000000000000                                        0129
1134           0001                  RODRIGO BRAVO & IRMAOS LTDA                  RODRIGO BRAVO & IRMAOS LTDA03321060000102                     104 NORTE RUA NE 01 N 4177020542               2100017              0DMI     13086007092009071020090010000000000260000000000002600              PALMAS A1                  FLAVIO MORAES COELHO LUCENA00200097260690178                                    1406 SUL AL 06 LT 0700000000              PALMASTO00           000000000000000000 00000000                CENTRO0000000000000000000000000000000000000000000000000                                        0130
1134           0001                  RODRIGO BRAVO & IRMAOS LTDA                  RODRIGO BRAVO & IRMAOS LTDA03321060000102                     104 NORTE RUA NE 01 N 4177020542               2100017              0DMI     12461923042009230520090010000000000527100000000005271              PALMAS A1             FLOR DE LIZ MARIA DE ARAUJO LIMA00200040155366300                               1106 SUL AL 08 LT 50 CS 500000000              PALMASTO00           000000000000000000 00000000                CENTRO0000000000000000000000000000000000000000000000000                                        0131
1134           0001                  RODRIGO BRAVO & IRMAOS LTDA                  RODRIGO BRAVO & IRMAOS LTDA03321060000102                     104 NORTE RUA NE 01 N 4177020542               2100017              0DMI     12497010112009101202090010000000000830000000000008300              PALMAS A1                 FRANCINEIDE PEREIRA DE SOUSA00200002203699175                             SANTO AMARO AL 02 LT 02QI H00000000              PALMASTO00           000000000000000000 00000000                CENTRO0000000000000000000000000000000000000000000000000                                        0132
1134           0001                  RODRIGO BRAVO & IRMAOS LTDA                  RODRIGO BRAVO & IRMAOS LTDA03321060000102                     104 NORTE RUA NE 01 N 4177020542               2100017              0DMI     13658316062009160720090010000000000290000000000002900              PALMAS A1                    FRANCIONE DE ARAUJO SOUZA00200001979359156                                    QDR 87 LT 08 CASA 0200000000              PALMASTO00           000000000000000000 00000000                CENTRO0000000000000000000000000000000000000000000000000                                        0133
1134           0001                  RODRIGO BRAVO & IRMAOS LTDA                  RODRIGO BRAVO & IRMAOS LTDA03321060000102                     104 NORTE RUA NE 01 N 4177020542               2100017              0DMI     10226215082009150920090010000000000549900000000005499              PALMAS A1                   FRANCISCA ALVES DOS SANTOS00200003127927193                                       504 N AL 01 LT 0400000000              PALMASTO00           000000000000000000 00000000                CENTRO0000000000000000000000000000000000000000000000000                                        0134
1134           0001                  RODRIGO BRAVO & IRMAOS LTDA                  RODRIGO BRAVO & IRMAOS LTDA03321060000102                     104 NORTE RUA NE 01 N 4177020542               2100017              0DMI     11911120022009200320090010000000000200000000000002000              PALMAS A1                 FRANCISCA DA CONCEI큐O PINTO00200099935490106                                 603 N AL 03 LT 03 CS 0400000000              PALMASTO00           000000000000000000 00000000                CENTRO0000000000000000000000000000000000000000000000000                                        0135
1134           0001                  RODRIGO BRAVO & IRMAOS LTDA                  RODRIGO BRAVO & IRMAOS LTDA03321060000102                     104 NORTE RUA NE 01 N 4177020542               2100017              0DMI     11336926032009260420090010000000000470000000000004700              PALMAS A1          FRANCISCA IOLANDA DA CONCEI큐O LIMA00200001861758332                                 603 N AL 23 QI 04 LT 0800000000               PAMASTO00           000000000000000000 00000000               CENTRO 0000000000000000000000000000000000000000000000000                                        0136
1134           0001                  RODRIGO BRAVO & IRMAOS LTDA                  RODRIGO BRAVO & IRMAOS LTDA03321060000102                     104 NORTE RUA NE 01 N 4177020542               2100017              0DMI     11785720012009200220090010000000000820000000000008200              PALMAS A1            FRANCISCA LUCIA CARDOSO FERNANDES00200004101544158                                             307 N AL 0700000000              PALMASTO00           000000000000000000 00000000                CENTRO0000000000000000000000000000000000000000000000000                                        0137
1134           0001                  RODRIGO BRAVO & IRMAOS LTDA                  RODRIGO BRAVO & IRMAOS LTDA03321060000102                     104 NORTE RUA NE 01 N 4177020542               2100017              0DMI      9041410012009100220090010000000001250000000000012500              PALMAS A1                    FRANCISCA MARIA DE JESUS 00200058544402100                                       407 N AL 06 LT 0300000000              PALMASTO00           000000000000000000 00000000                CENTRO0000000000000000000000000000000000000000000000000                                        0138
1134           0001                  RODRIGO BRAVO & IRMAOS LTDA                  RODRIGO BRAVO & IRMAOS LTDA03321060000102                     104 NORTE RUA NE 01 N 4177020542               2100017              0DMI     13092222062009220720090010000000001657500000000016575              PALMAS A1                      FRANCISCA MIRANDA GOMES00200091272874168                               1203 SUL Q 07 AL 02 LT 1600000000              PALMASTO00           000000000000000000 00000000                CENTRO0000000000000000000000000000000000000000000000000                                        0139
1134           0001                  RODRIGO BRAVO & IRMAOS LTDA                  RODRIGO BRAVO & IRMAOS LTDA03321060000102                     104 NORTE RUA NE 01 N 4177020542               2100017              0DMI     13423310052009100620090010000000001440000000000014400              PALMAS A1           FRANCISCO DAS CHAGAS LIMA FERREIRA00200092139116372                     503 NORTE AL 09 LT 16 QI 10 CASA 0700000000              PALMASTO00           000000000000000000 00000000                CENTRO0000000000000000000000000000000000000000000000000                                        0140
1134           0001                  RODRIGO BRAVO & IRMAOS LTDA                  RODRIGO BRAVO & IRMAOS LTDA03321060000102                     104 NORTE RUA NE 01 N 4177020542               2100017              0DMI      6752710022009100320090010000000000580000000000005800              PALMAS A1           FRANCISCO DAS CHAGAS ROCHA BEZERRA00200000989031101                                           QDR 147 LT 0600000000              PALMASTO00           000000000000000000 00000000              AURENY 30000000000000000000000000000000000000000000000000                                        0141
1134           0001                  RODRIGO BRAVO & IRMAOS LTDA                  RODRIGO BRAVO & IRMAOS LTDA03321060000102                     104 NORTE RUA NE 01 N 4177020542               2100017              0DMI      2601410042009100520090010000000003580000000000035800              PALMAS A1           FRANCISCO DE ASSIS ALVES DE ARAUJO00200065743326304                       612 SUL QI 07 AV LO 15 LT 08 CS 300000000              PALMASTO00           000000000000000000 00000000                CENTRO0000000000000000000000000000000000000000000000000                                        0142
1134           0001                  RODRIGO BRAVO & IRMAOS LTDA                  RODRIGO BRAVO & IRMAOS LTDA03321060000102                     104 NORTE RUA NE 01 N 4177020542               2100017              0DMI     12580806072009060820090010000000000131100000000001311              PALMAS A1                FRANCISCO DE ASSIS DOS SANTOS00200074733699115                                   407 NORTE AL 07 LT 2800000000              PALMASTO00           000000000000000000 00000000                CENTRO0000000000000000000000000000000000000000000000000                                        0143
1134           0001                  RODRIGO BRAVO & IRMAOS LTDA                  RODRIGO BRAVO & IRMAOS LTDA03321060000102                     104 NORTE RUA NE 01 N 4177020542               2100017              0DMI     10563320082009200920090010000000000910100000000009101              PALMAS A1                  FRANCISCO DE SOUSA CARVALHO00200001266437177                                   307 NORTE AL 28 LT 1900000000              PALMASTO00           000000000000000000 00000000               CENTRO 0000000000000000000000000000000000000000000000000                                        0144
1134           0001                  RODRIGO BRAVO & IRMAOS LTDA                  RODRIGO BRAVO & IRMAOS LTDA03321060000102                     104 NORTE RUA NE 01 N 4177020542               2100017              0DMI     10474923042009230520090010000000000700000000000007000              PALMAS A1                    FRANCISCO JAMERSON SOARES00200002047000190                                  CONDOMINIO SANTO AMARO00000000              PALMASTO00           000000000000000000 00000000               CENTRO 0000000000000000000000000000000000000000000000000                                        0145
1134           0001                  RODRIGO BRAVO & IRMAOS LTDA                  RODRIGO BRAVO & IRMAOS LTDA03321060000102                     104 NORTE RUA NE 01 N 4177020542               2100017              0DMI     11730826052009260620090010000000001030000000000010300              PALMAS A1              FRANCISCO JAMILSON FRAZAO SILVA00200040247325368                           QD 87 A RUA 22 LT 32 AURENY 300000000              PALMASTO00           000000000000000000 00000000                CENTRO0000000000000000000000000000000000000000000000000                                        0146
1134           0001                  RODRIGO BRAVO & IRMAOS LTDA                  RODRIGO BRAVO & IRMAOS LTDA03321060000102                     104 NORTE RUA NE 01 N 4177020542               2100017              0DMI     13482107052009070620090010000000000304000000000003040              PALMAS A1                       FRANCISCO PENHA ARAUJO00200025041843287                              605 NORTE AL 07 N 45 QI 0800000000              PALMASTO00           000000000000000000 00000000                CENTRO0000000000000000000000000000000000000000000000000                                        0147
1134           0001                  RODRIGO BRAVO & IRMAOS LTDA                  RODRIGO BRAVO & IRMAOS LTDA03321060000102                     104 NORTE RUA NE 01 N 4177020542               2100017              0DMI     13513918052009180620090010000000000564900000000005649              PALMAS A1                      FRANCISCO PEREIRA ALVES00200003253321347                                    RUA 26 QD 87 B LT 1900000000              PALMASTO00           000000000000000000 00000000               CENTRO 0000000000000000000000000000000000000000000000000                                        0148
1134           0001                  RODRIGO BRAVO & IRMAOS LTDA                  RODRIGO BRAVO & IRMAOS LTDA03321060000102                     104 NORTE RUA NE 01 N 4177020542               2100017              0DMI     13621215062009150720090010000000000390000000000003900              PALMAS A1                   FRANCISCO PEREIRA DA SILVA00200087515881100                                        AV QDR 33 LT 25 00000000              PALMASTO00           000000000000000000 00000000              AURENY 40000000000000000000000000000000000000000000000000                                        0149
1134           0001                  RODRIGO BRAVO & IRMAOS LTDA                  RODRIGO BRAVO & IRMAOS LTDA03321060000102                     104 NORTE RUA NE 01 N 4177020542               2100017              0DMI     10773610032009100420090010000000000176000000000001760              PALMAS A1                   FRANCISCO PEREIRA DA SILVA00200081944926372                  305 NORTE RUA 25 N 08 QI 25LT 05 CS 0600000000              PALMASTO00           000000000000000000 00000000                CENTRO0000000000000000000000000000000000000000000000000                                        0150
1134           0001                  RODRIGO BRAVO & IRMAOS LTDA                  RODRIGO BRAVO & IRMAOS LTDA03321060000102                     104 NORTE RUA NE 01 N 4177020542               2100017              0DMI     11526310032009100420090010000000000254000000000002540              PALMAS A1                              FRANCISCO RAMOS00200033160996387                                   307 NORTE AL 19 LT 6300000000              PALMASTO00           000000000000000000 00000000                CENTRO0000000000000000000000000000000000000000000000000                                        0151
1134           0001                  RODRIGO BRAVO & IRMAOS LTDA                  RODRIGO BRAVO & IRMAOS LTDA03321060000102                     104 NORTE RUA NE 01 N 4177020542               2100017              0DMI     13453620112009201220090010000000001290000000000012900              PALMAS A1                FRANCISCO RODRIGUES DE BARROS00200040776395300                                       506 N AL 06 LT 1900000000              PALMASTO00           000000000000000000 00000000                CENTRO0000000000000000000000000000000000000000000000000                                        0152
1134           0001                  RODRIGO BRAVO & IRMAOS LTDA                  RODRIGO BRAVO & IRMAOS LTDA03321060000102                     104 NORTE RUA NE 01 N 4177020542               2100017              0DMI     10077105042009050520090010000000000900000000000009000              PALMAS A1                   FRANCISCO XAVIER RODRIGUES00200009727116353                                     712 SUL AL 08 LT 0400000000              PALMASTO00           000000000000000000 00000000               CENTRO 0000000000000000000000000000000000000000000000000                                        0153
1134           0001                  RODRIGO BRAVO & IRMAOS LTDA                  RODRIGO BRAVO & IRMAOS LTDA03321060000102                     104 NORTE RUA NE 01 N 4177020542               2100017              0DMI     15625510102009101120090010000000000420000000000004200              PALMAS A1                   GABRIELA DA SILVA QUARESMA00200003719213170                                     210 SUL AL 05 LT 4100000000              PALMASTO00           000000000000000000 00000000                CENTRO0000000000000000000000000000000000000000000000000                                        0154
1134           0001                  RODRIGO BRAVO & IRMAOS LTDA                  RODRIGO BRAVO & IRMAOS LTDA03321060000102                     104 NORTE RUA NE 01 N 4177020542               2100017              0DMI     11104403032009030420090010000000001165000000000011650              PALMAS A1                              GERISMAR ARAUJO00200044089511100                                       404 N AL 08 LT 0600000000              PALMASTO00           000000000000000000 00000000                CENTRO0000000000000000000000000000000000000000000000000                                        0155
1134           0001                  RODRIGO BRAVO & IRMAOS LTDA                  RODRIGO BRAVO & IRMAOS LTDA03321060000102                     104 NORTE RUA NE 01 N 4177020542               2100017              0DMI     12980521102009211120090010000000000350000000000003500              PALMAS A1                      GILBERTO GOMES DA ROCHA00200008760748249                                  605 N AL 15 QI 15 LT 300000000              PALMASTO00           000000000000000000 00000000                CENTRO0000000000000000000000000000000000000000000000000                                        0156
1134           0001                  RODRIGO BRAVO & IRMAOS LTDA                  RODRIGO BRAVO & IRMAOS LTDA03321060000102                     104 NORTE RUA NE 01 N 4177020542               2100017              0DMI     14162612102009121120090010000000000700000000000007000              PALMAS A1                    GISLAINE SOARES RODRIGUES00200000583001122                           303 N AL 16 QI 01 LT 17 CS 3300000000              PALMASTO00           000000000000000000 00000000                CENTRO0000000000000000000000000000000000000000000000000                                        0157
1134           0001                  RODRIGO BRAVO & IRMAOS LTDA                  RODRIGO BRAVO & IRMAOS LTDA03321060000102                     104 NORTE RUA NE 01 N 4177020542               2100017              0DMI      9721808032009080420090010000000000361000000000003610              PALMAS A             GIULLIANO DE PAIVA ARAUJO PARENTE00200003044291127                                     403 SUL AL 06 LT 5100000000              PALMASTO00           000000000000000000 00000000                CENTRO0000000000000000000000000000000000000000000000000                                        0158
1134           0001                  RODRIGO BRAVO & IRMAOS LTDA                  RODRIGO BRAVO & IRMAOS LTDA03321060000102                     104 NORTE RUA NE 01 N 4177020542               2100017              0DMI     12263620042009200520090010000000000300000000000003000              PALMAS A1                     GIZELDA PEREIRA DA SILVA00200000800995139                                   504 NORTE AL 17 LT 5100000000              PALMASTO00           000000000000000000 00000000                CENTRO0000000000000000000000000000000000000000000000000                                        0159
1134           0001                  RODRIGO BRAVO & IRMAOS LTDA                  RODRIGO BRAVO & IRMAOS LTDA03321060000102                     104 NORTE RUA NE 01 N 4177020542               2100017              0DMI     12297715012009150220090010000000000570000000000005700              PALMAS A1                        GLAUCE KELLY DE SOUZA00200000365359319                                     806 SUL AL 07 LT 2700000000              PALMASTO00           000000000000000000 00000000                CENTRO0000000000000000000000000000000000000000000000000                                        0160
1134           0001                  RODRIGO BRAVO & IRMAOS LTDA                  RODRIGO BRAVO & IRMAOS LTDA03321060000102                     104 NORTE RUA NE 01 N 4177020542               2100017              0DMI     12360320042009200520090010000000000300000000000003000              PALMAS A1                    GLEICIELE NUNES DE MORAIS00200002251406166                                     106 SUL AL 12 LT 2800000000              PALMASTO00           000000000000000000 00000000                CENTRO0000000000000000000000000000000000000000000000000                                        0161
1134           0001                  RODRIGO BRAVO & IRMAOS LTDA                  RODRIGO BRAVO & IRMAOS LTDA03321060000102                     104 NORTE RUA NE 01 N 4177020542               2100017              0DMI      9508407122008070120090010000000000355000000000003550              PALMAS A1                      GLENDA OLIVEIRA LUSTOSA00200000782472176                                 104 NORTE AV LO 04 N 5600000000              PALMASTO00           000000000000000000 00000000                CENTRO0000000000000000000000000000000000000000000000000                                        0162
1134           0001                  RODRIGO BRAVO & IRMAOS LTDA                  RODRIGO BRAVO & IRMAOS LTDA03321060000102                     104 NORTE RUA NE 01 N 4177020542               2100017              0DMI     10758110122008100120090010000000000707000000000007070              PALMAS A1                  GON큐LO ALMEIDA GOMES PINHO00200019892594215                                       405 N QI 20 AL 0900000000              PALMASTO00           000000000000000000 00000000                CENTRO0000000000000000000000000000000000000000000000000                                        0163
1134           0001                  RODRIGO BRAVO & IRMAOS LTDA                  RODRIGO BRAVO & IRMAOS LTDA03321060000102                     104 NORTE RUA NE 01 N 4177020542               2100017              0DMI     12101227102009271120090010000000000290000000000002900              PALMAS A1                  GRACIELLE REGINA DE ALMEIDA00200002836253177                                 603 N AL 03 QI 23 LT 2700000000              PALMASTO00           000000000000000000 00000000                CENTRO0000000000000000000000000000000000000000000000000                                        0164
1134           0001                  RODRIGO BRAVO & IRMAOS LTDA                  RODRIGO BRAVO & IRMAOS LTDA03321060000102                     104 NORTE RUA NE 01 N 4177020542               2100017              0DMI     15113130112009301220090010000000000740000000000007400              PALMAS A1                      GRACIELY DINIZ OLIVEIRA00200000000000000                                     804 SUL AL 06 LT 6900000000              PALMASTO00           000000000000000000 00000000                CENTRO0000000000000000000000000000000000000000000000000                                        0165
1134           0001                  RODRIGO BRAVO & IRMAOS LTDA                  RODRIGO BRAVO & IRMAOS LTDA03321060000102                     104 NORTE RUA NE 01 N 4177020542               2100017              0DMI      9000927072009270820090010000000000480000000000004800              PALMAS A1                  HELENA FERNANDES DE ALMEIDA00200098241362153                CONDOMINIO SANTO AMARO QI 05 LT 20 AL 0100000000              PALMASTO00           000000000000000000 00000000                CENTRO0000000000000000000000000000000000000000000000000                                        0166
