0134CARTORIO POSTAL(RODRIGUES E VIEIRA LTDA)06072012BFOSDTTPR0000150004000400040000     00421721000                                                                                                                                                                                                                                                                                                                                                                                                                                                                                                                 0001
1134           0001                   MARCA MOTORS VEICULOS LTDA                   MARCA MOTORS VEICULOS LTDA04724715000148ACNO 1 (103 NORTE) CONJ 04 LT 01 E 04 ANEXO 177000000              PALMASTO               DMI    246440119022009210320090010000000009642400000000096424              PALMAS A1                            PERIM E REIS LTDA00109013727000188                            712 SUL AL 09 LT 08, 10 E 1277000000              PALMASTO00           000000000000000000 00000000                CENTRO0000000000000000000000000000000000000000000000000                                        0002
1134           0001                   MARCA MOTORS VEICULOS LTDA                   MARCA MOTORS VEICULOS LTDA04724715000148ACNO 1 (103 NORTE) CONJ 04 LT 01 E 04 ANEXO 177000000              PALMASTO               DMI    251820121032009200420090010000000002657400000000026574              PALMAS A1                            PERIM E REIS LTDA00109013727000188                            712 SUL AL 09 LT 08, 10 E 1277000000              PALMASTO00           000000000000000000 00000000                CENTRO0000000000000000000000000000000000000000000000000                                        0003
1134           0001                   MARCA MOTORS VEICULOS LTDA                   MARCA MOTORS VEICULOS LTDA04724715000148ACNO 1 (103 NORTE) CONJ 04 LT 01 E 04 ANEXO 177000000              PALMASTO               DMI    192740115042008150820080010000000005800000000000058000              PALMAS A1                      RENO DOUGLAS DE AZEVEDO00200032862822434                                    1004 SUL AL 06 LT 6577000000              PALMASTO00           000000000000000000 00000000                CENTRO0000000000000000000000000000000000000000000000000                                        0004
1134           0001                   MARCA MOTORS VEICULOS LTDA                   MARCA MOTORS VEICULOS LTDA04724715000148ACNO 1 (103 NORTE) CONJ 04 LT 01 E 04 ANEXO 177000000              PALMASTO               DMI    116990112052011260520110010000000035859800000000358598              PALMAS A1                AYRTON MARCELO BRANCO MARTINS00200044522258968                                108 SUL AL 08 LT 27 E 2877000000              PALMASTO00           000000000000000000 00000000                CENTRO0000000000000000000000000000000000000000000000000                                        0005
9134CARTORIO POSTAL(RODRIGUES E VIEIRA LTDA)0607201200012000000000000539596                                                                                                                                                                                                                                                                                                                                                                                                                                                                                                                                         0006