0134CARTORIO POSTAL(RODRIGUES E VIEIRA LTDA)03072012BFOSDTTPR0000120013001300130000     00421721000                                                                                                                                                                                                                                                                                                                                                                                                                                                                                                                 0001
1134           0001      SISTEMA DE COMUNICAÇÃO DO TOCANTINS S/A      SISTEMA DE COMUNICAÇÃO DO TOCANTINS S/A26937797000141                     ACSU NO 10 CONJ 02 LT 0777000000              PALMASTO               DMI       686110052012200520120010000000019047600000000190476              PALMAS A1                     UNI ORAL PALMAS ODONTOL.00109549203000106                                  206 SUL AV LO 05 LT 1277000000              PALMASTO00           000000000000000000 00000000                CENTRO0000000000000000000000000000000000000000000000000                                        0002
1134           0001      SISTEMA DE COMUNICAÇÃO DO TOCANTINS S/A      SISTEMA DE COMUNICAÇÃO DO TOCANTINS S/A26937797000141                     ACSU NO 10 CONJ 02 LT 0777000000              PALMASTO               DMI       681617052012200520120010000000005000000000000050000              PALMAS A1                          TEREZINHA APARECIDA00111629430000193                        107 NORTE SHOPPING CAPIM DOURADO77000000              PALMASTO00           000000000000000000 00000000                CENTRO0000000000000000000000000000000000000000000000000                                        0003
1134           0001      SISTEMA DE COMUNICAÇÃO DO TOCANTINS S/A      SISTEMA DE COMUNICAÇÃO DO TOCANTINS S/A26937797000141                     ACSU NO 10 CONJ 02 LT 0777000000              PALMASTO               DMI       681707052012200520120010000000005000000000000050000              PALMAS A1                 KERPEM DIAS COM. DE LENGERIE00112071830000199                        107 NORTE SHOPPING CAPIM DOURADO77000000              PALMASTO00           000000000000000000 00000000                CENTRO0000000000000000000000000000000000000000000000000                                        0004
1134           0001      SISTEMA DE COMUNICAÇÃO DO TOCANTINS S/A      SISTEMA DE COMUNICAÇÃO DO TOCANTINS S/A26937797000141                     ACSU NO 10 CONJ 02 LT 0777000000              PALMASTO               DMI       684508052012300520120010000000007906500000000079065              PALMAS A1                       MOREIRA E MOREIRA LTDA00105994719000109                           106 N AV JK LT 02 S/N SALA 0377000000              PALMASTO00           000000000000000000 00000000                CENTRO0000000000000000000000000000000000000000000000000                                        0005
1134           0001      SISTEMA DE COMUNICAÇÃO DO TOCANTINS S/A      SISTEMA DE COMUNICAÇÃO DO TOCANTINS S/A26937797000141                     ACSU NO 10 CONJ 02 LT 0777000000              PALMASTO               DMI       684808052012300520120010000000005000000000000050000              PALMAS A1                     ADRIANO AUGUSTO SANTIAGO00200094933855404                                  AV NS 02 CONJ 02 LT 0177000000              PALMASTO00           000000000000000000 00000000                CENTRO0000000000000000000000000000000000000000000000000                                        0006
1134           0001      SISTEMA DE COMUNICAÇÃO DO TOCANTINS S/A      SISTEMA DE COMUNICAÇÃO DO TOCANTINS S/A26937797000141                     ACSU NO 10 CONJ 02 LT 0777000000              PALMASTO               DMI       684908052012300520120010000000010000000000000100000              PALMAS A1               MEDCLIN LAB. ANALISES CLINICAS00113473832000177                          104 SUL RUA SE 07 CONJ 1 LT 3577000000              PALMASTO00           000000000000000000 00000000                CENTRO0000000000000000000000000000000000000000000000000                                        0007
1134           0001      SISTEMA DE COMUNICAÇÃO DO TOCANTINS S/A      SISTEMA DE COMUNICAÇÃO DO TOCANTINS S/A26937797000141                     ACSU NO 10 CONJ 02 LT 0777000000              PALMASTO               DMI       685008052012300520120010000000015000000000000150000              PALMAS A1         LUMILIGHT COM. MATERIAIS ILUMINAÇAO 00108059190000124                                  106 SUL AL 02 LT 38/4077000000              PALMASTO00           000000000000000000 00000000                CENTRO0000000000000000000000000000000000000000000000000                                        0008
1134           0001      SISTEMA DE COMUNICAÇÃO DO TOCANTINS S/A      SISTEMA DE COMUNICAÇÃO DO TOCANTINS S/A26937797000141                     ACSU NO 10 CONJ 02 LT 0777000000              PALMASTO               DMI       685508052012300520120010000000010000000000000100000              PALMAS A1            RADIOBUCAL CLINICA DE RADIOLOGIA 00126635128000115                             AV JK ACSE 12 LT 16 SALA 0577000000              PALMASTO00           000000000000000000 00000000                CENTRO0000000000000000000000000000000000000000000000000                                        0009
1134           0001      SISTEMA DE COMUNICAÇÃO DO TOCANTINS S/A      SISTEMA DE COMUNICAÇÃO DO TOCANTINS S/A26937797000141                     ACSU NO 10 CONJ 02 LT 0777000000              PALMASTO               DMI       688805062012150620120010000000041630000000000416300              PALMAS A1                         CLIMAX KOSMETIK LTDA00104270809000275                                    ARSE Q 65 QI 7 LT 3577000000              PALMASTO00           000000000000000000 00000000                CENTRO0000000000000000000000000000000000000000000000000                                        0010
1134           0001      SISTEMA DE COMUNICAÇÃO DO TOCANTINS S/A      SISTEMA DE COMUNICAÇÃO DO TOCANTINS S/A26937797000141                     ACSU NO 10 CONJ 02 LT 0777000000              PALMASTO               DMI       689105062012150620120010000000009000000000000090000              PALMAS A1          GURUFER IND. E COM. PRODUTOS SIDER.00103398583000220                              RUA SE 01 ASR SE 15 LT 20A77000000              PALMASTO00           000000000000000000 00000000                CENTRO0000000000000000000000000000000000000000000000000                                        0011
1134           0001      SISTEMA DE COMUNICAÇÃO DO TOCANTINS S/A      SISTEMA DE COMUNICAÇÃO DO TOCANTINS S/A26937797000141                     ACSU NO 10 CONJ 02 LT 0777000000              PALMASTO               DMI       690705062012150620120010000000039960100000000399601              PALMAS A1          COMERCIAL DE MOVEIS E ELETROD. LTDA00138131629000305            qd acse 01 rua se 01 cj 01 cj 02 lt 03 sl 0177000000              PALMASTO00           000000000000000000 00000000                CENTRO0000000000000000000000000000000000000000000000000                                        0012
1134           0001      SISTEMA DE COMUNICAÇÃO DO TOCANTINS S/A      SISTEMA DE COMUNICAÇÃO DO TOCANTINS S/A26937797000141                     ACSU NO 10 CONJ 02 LT 0777000000              PALMASTO               DMI       689005062012150620120010000000050923000000000509230              PALMAS A1         SINDICATO DE INDUSTRIA E CONT. CIVIL00126063306000118                      201 NORTE AC LO 04 CONJ 0 LT 06 AB77000000              PALMASTO00           000000000000000000 00000000                CENTRO0000000000000000000000000000000000000000000000000                                        0013
1134           0001      SISTEMA DE COMUNICAÇÃO DO TOCANTINS S/A      SISTEMA DE COMUNICAÇÃO DO TOCANTINS S/A26937797000141                     ACSU NO 10 CONJ 02 LT 0777000000              PALMASTO               DMI       689605062012150620120010000000014520000000000145200              PALMAS A1                          DOURADO E MAIA LTDA00113254540000143                          104 SUL AV LT 01 CONJ 04 LT 1977000000              PALMASTO00           000000000000000000 00000000                CENTRO0000000000000000000000000000000000000000000000000                                        0014
9134CARTORIO POSTAL(RODRIGUES E VIEIRA LTDA)0307201200039000000000002329872                                                                                                                                                                                                                                                                                                                                                                                                                                                                                                                                         0015