0134CARTORIO POSTAL(RODRIGUES E VIEIRA LTDA)06062012BFOSDTTPR0000090007000700070000     00421721000                                                                                                                                                                                                                                                                                                                                                                                                                                                                                                                 0001
1134           0001                CORES COMERCIO DE TINTAS LTDA                CORES COMERCIO DE TINTAS LTDA10396457000200                   104 SUL RUA SE 05 LT 28/3077000000              PALMASTO               DMI       803127052011270620110010000000005585000000000055850              PALMAS A1                     CONTRUTORA HONDA LTDA ME00112537363000140                               604 SUL AL 05 N 01 SALA 377000000              PALMASTO00           000000000000000000 00000000                CENTRO0000000000000000000000000000000000000000000000000                                        0002
1134           0001                CORES COMERCIO DE TINTAS LTDA                CORES COMERCIO DE TINTAS LTDA10396457000200                   104 SUL RUA SE 05 LT 28/3077000000              PALMASTO               DMI      1025826072011260820110010000000018235800000000182358              PALMAS A1                    CONSTRUTORA SKALA LTDA ME00104778509000110                        1304 SUL RUA 08 LT 20 QI 07 CS 277000000              PALMASTO00           000000000000000000 00000000                CENTRO0000000000000000000000000000000000000000000000000                                        0003
1134           0001                CORES COMERCIO DE TINTAS LTDA                CORES COMERCIO DE TINTAS LTDA10396457000200                   104 SUL RUA SE 05 LT 28/3077000000              PALMASTO               DMI      1034431072011310820110010000000001401300000000014013              PALMAS A1                    CONSTRUTORA SKALA LTDA ME00104778509000110                       1304 SUL RUA 08 LT 20 QI 07 CS 0277000000              PALMASTO00           000000000000000000 00000000                CENTRO0000000000000000000000000000000000000000000000000                                        0004
1134           0001                CORES COMERCIO DE TINTAS LTDA                CORES COMERCIO DE TINTAS LTDA10396457000200                   104 SUL RUA SE 05 LT 28/3077000000              PALMASTO               DMI      1050206082011060920110010000000001362900000000013629              PALMAS A1                    CONSTRUTORA SKALA LTDA ME00104778509000110                         1304 SUL RUA 08 LT 20 QI 7 CS 277000000              PALMASTO00           000000000000000000 00000000                CENTRO0000000000000000000000000000000000000000000000000                                        0005
1134           0001                CORES COMERCIO DE TINTAS LTDA                CORES COMERCIO DE TINTAS LTDA10396457000200                   104 SUL RUA SE 05 LT 28/3077000000              PALMASTO               DMI       808930052011300620110010000000001950000000000019500              PALMAS A1                         IHF CONSTRUTORA LTDA00110682156000153                                  103 SUL AV LO 01 LT 5877000000              PALMASTO00           000000000000000000 00000000                CENTRO0000000000000000000000000000000000000000000000000                                        0006
1134           0001                CORES COMERCIO DE TINTAS LTDA                CORES COMERCIO DE TINTAS LTDA10396457000200                   104 SUL RUA SE 05 LT 28/3077000000              PALMASTO               DMI       809030052011300620110010000000001980000000000019800              PALMAS A1                         IHF CONSTRUTORA LTDA00110682156000153                                103 SUL AV LO 01 LOTE 5877000000              PALMASTO00           000000000000000000 00000000                CENTRO0000000000000000000000000000000000000000000000000                                        0007
1134           0001                CORES COMERCIO DE TINTAS LTDA                CORES COMERCIO DE TINTAS LTDA10396457000200                   104 SUL RUA SE 05 LT 28/3077000000              PALMASTO               DMI4547400266006072011060820110010000000006451000000000064510              PALMAS A1                          IHF CONTRUTORA LTDA00110682156000153                                  103 SUL AV LO 01 LT 5877000000              PALMASTO00           000000000000000000 00000000                CENTRO0000000000000000000000000000000000000000000000000                                        0008
9134CARTORIO POSTAL(RODRIGUES E VIEIRA LTDA)0606201200021000000000000369660                                                                                                                                                                                                                                                                                                                                                                                                                                                                                                                                         0009