0134CARTORIO POSTAL(RODRIGUES E VIEIRA LTDA)02082012BFOSDTTPR0000230002000100010001     00421721000                                                                                                                                                                                                                                                                                                                                                                                                                                                                                                                 0001
1134       00000000       JOANA D ARC LOPES DE SOUZA E CIA LTDA        JOANA D ARC LOPES DE SOUZA E CIA LTDA         9364-2                    AV.TOCANTINS QD. 03 LT 0877000000             PALMAS TO                             00000000000000000000000000000000000000000000000                     A                                              00200000000000000                                                        00000000                      00           000000000000000000 00000000                      0000000000000000000000000000000000000000000000000                                        0002
1134       00000000       JOANA D ARC LOPES DE SOUZA E CIA LTDA        JOANA D ARC LOPES DE SOUZA E CIA LTDA         9364-2                    AV.TOCANTINS QD. 03 LT 0877000000             PALMAS TO               DMI   9211002018042012040620120000000000007680000000000076800              PALMAS A1                     FORTE MIL COMERCIAL LTDA00105860011000165                 QD 812 SUL ALAMEDA 7, PLANO DIRETOR SUL77000000              PALMASTO00           000000000000000000 00000000                CENTRO0000000000000000000000000000000000000000000000000                                        0003
9134CARTORIO POSTAL(RODRIGUES E VIEIRA LTDA)0208201200005000000000000076800                                                                                                                                                                                                                                                                                                                                                                                                                                                                                                                                         0004