0134CARTORIO POSTAL(RODRIGUES E VIEIRA LTDA)20062012BFOSDTTPR0000100003000300030000     00421721000                                                                                                                                                                                                                                                                                                                                                                                                                                                                                                                 0001
1134           0001                CORES COMERCIO DE TINTAS LTDA                CORES COMERCIO DE TINTAS LTDA10396457000200                   104 SUL RUA SE 05 LT 28/3077000000              PALMASTO               DMI    352810204082011040920110010000000002200000000000022000              PALMAS A1               WARRE ENGENHARIA E SANEAMENTO 00103314200000107                                        TO 030 KM 02 S/N77000000              PALMASTO00           000000000000000000 00000000                CENTRO0000000000000000000000000000000000000000000000000                                        0002
1134           0001                CORES COMERCIO DE TINTAS LTDA                CORES COMERCIO DE TINTAS LTDA10396457000200                   104 SUL RUA SE 05 LT 28/3077000000              PALMASTO               DMI    352340203082011030920110010000000018600000000000186000              PALMAS A1                WARRE ENGENHARIA E SANEAMENTO00103314200000107                                        TO 030 KM 02 S/N77000000              PALMASTO00           000000000000000000 00000000                CENTRO0000000000000000000000000000000000000000000000000                                        0003
1134           0001                CORES COMERCIO DE TINTAS LTDA                CORES COMERCIO DE TINTAS LTDA10396457000200                   104 SUL RUA SE 05 LT 28/3077000000              PALMASTO               DMI    352350203092011031020110010000000018600000000000186000              PALMAS A1                WARRE ENGENHARIA E SANEAMENTO00103314200000107                                        TO 030 KM 02 S/N77000000              PALMASTO00           000000000000000000 00000000                CENTRO0000000000000000000000000000000000000000000000000                                        0004
9134CARTORIO POSTAL(RODRIGUES E VIEIRA LTDA)2006201200009000000000000394000                                                                                                                                                                                                                                                                                                                                                                                                                                                                                                                                         0005