0381 CAMARA DOS DIRIGNTES LOJISTAS DE PALMAS20062012BFOSDTTPR0000090016001600160000     00421721000                                                                                                                                                                                                                                                                                                                                                                                                                                                                                                                 0001
1381       00000000         JOANA DARC LOPES DE SOUZA E CIA LTDA         JOANA DARC LOPES DE SOUZA E CIA LTDA12905176000171             AV TOCANTINS QD 03 LT 08 RUA T 477270000              PALMASTO               DMI     9401-215122011140120120010000000000399000000000003990              PALMAS A1                          LUCIA RIBEIRO SOUSA00200002913515142                               605 SUL AL 09 QD 17 LT 1277000000              PALMASTO00           000000000000000000 00000000                CENTRO0000000000000000000000000000000000000000000000000                                        0002
1381       00000000         JOANA DARC LOPES DE SOUZA E CIA LTDA         JOANA DARC LOPES DE SOUZA E CIA LTDA12905176000171             AV TOCANTINS QD 03 LT 08 RUA T 477270000              PALMASTO               DMI     9401-315122011130220120010000000000399000000000003990              PALMAS A1                          LUCIA RIBEIRO SOUSA00200002913515142                               605 SUL AL 09 QD 17 LT 1277000000              PALMASTO00           000000000000000000 00000000                CENTRO0000000000000000000000000000000000000000000000000                                        0003
1381       00000000         JOANA DARC LOPES DE SOUZA E CIA LTDA         JOANA DARC LOPES DE SOUZA E CIA LTDA12905176000171             AV TOCANTINS QD 03 LT 08 RUA T 477270000              PALMASTO               DMI     9401-415122011140320120010000000000399000000000003990              PALMAS A1                          LUCIA RIBEIRO SOUSA00200002913515142                               605 SUL AL 09 QD 17 LT 1277000000              PALMASTO00           000000000000000000 00000000                CENTRO0000000000000000000000000000000000000000000000000                                        0004
1381       00000000         JOANA DARC LOPES DE SOUZA E CIA LTDA         JOANA DARC LOPES DE SOUZA E CIA LTDA12905176000171             AV TOCANTINS QD 03 LT 08 RUA T 477270000              PALMASTO               DMI     9401-515122011130420120010000000000399000000000003990              PALMAS A1                          LUCIA RIBEIRO SOUSA00200002913515142                               605 SUL AL 09 QD 17 LT 1277000000              PALMASTO00           000000000000000000 00000000                CENTRO0000000000000000000000000000000000000000000000000                                        0005
1381       00000000         JOANA DARC LOPES DE SOUZA E CIA LTDA         JOANA DARC LOPES DE SOUZA E CIA LTDA12905176000171             AV TOCANTINS QD 03 LT 08 RUA T 477270000              PALMASTO               DMI     5189-313072011111020110010000000001113000000000011130              PALMAS A1                          CATIENE SILVA ANJOS00200076011496253                                  T 19 QS 35 LT 15 CS 0177270000              PALMASTO00           000000000000000000 00000000             SANTA FE 0000000000000000000000000000000000000000000000000                                        0006
1381       00000000         JOANA DARC LOPES DE SOUZA E CIA LTDA         JOANA DARC LOPES DE SOUZA E CIA LTDA12905176000171             AV TOCANTINS QD 03 LT 08 RUA T 477270000              PALMASTO               DMI     5189-413072011101120110010000000001113000000000011130              PALMAS A1                          CATIENE SILVA ANJOS00200076011496253                                  T 19 QS 35 LT 15 CS 0177270000              PALMASTO00           000000000000000000 00000000              SANTA FE0000000000000000000000000000000000000000000000000                                        0007
1381       00000000         JOANA DARC LOPES DE SOUZA E CIA LTDA         JOANA DARC LOPES DE SOUZA E CIA LTDA12905176000171             AV TOCANTINS QD 03 LT 08 RUA T 477270000              PALMASTO               DMI     5189-513072011101220110010000000001113000000000011130              PALMAS A1                          CATIENE SILVA ANJOS00200076011496253                                  T 19 QS 35 LT 15 CS 0177270000              PALMASTO00           000000000000000000 00000000              SANTA FE0000000000000000000000000000000000000000000000000                                        0008
1381       00000000         JOANA DARC LOPES DE SOUZA E CIA LTDA         JOANA DARC LOPES DE SOUZA E CIA LTDA12905176000171             AV TOCANTINS QD 03 LT 08 RUA T 477270000              PALMASTO               DMI     5189-613072011090120120010000000001113000000000011130              PALMAS A1                          CATIENE SILVA ANJOS00200076011496253                                  T 19 QS 35 LT 15 CS 0177270000              PALMASTO00           000000000000000000 00000000              SANTA FE0000000000000000000000000000000000000000000000000                                        0009
1381       00000000         JOANA DARC LOPES DE SOUZA E CIA LTDA         JOANA DARC LOPES DE SOUZA E CIA LTDA12905176000171             AV TOCANTINS QD 03 LT 08 RUA T 477270000              PALMASTO               DMI     5189-713072011120820110010000000001113000000000011130              PALMAS A1                          CATIENE SILVA ANJOS00200076011496253                                  T 19 QS 35 LT 15 CS 0177270000              PALMASTO00           000000000000000000 00000000              SANTA FE0000000000000000000000000000000000000000000000000                                        0010
1381       00000000         JOANA DARC LOPES DE SOUZA E CIA LTDA         JOANA DARC LOPES DE SOUZA E CIA LTDA12905176000171             AV TOCANTINS QD 03 LT 08 RUA T 477270000              PALMASTO               DMI     7707-111102011101120110010000000001312000000000013120              PALMAS A1                          CATIENE SILVA ANJOS00200076011496253                                  T 19 QS 35 LT 15 CS 0177270000              PALMASTO00           000000000000000000 00000000              SANTA FE0000000000000000000000000000000000000000000000000                                        0011
1381       00000000         JOANA DARC LOPES DE SOUZA E CIA LTDA         JOANA DARC LOPES DE SOUZA E CIA LTDA12905176000171             AV TOCANTINS QD 03 LT 08 RUA T 477270000              PALMASTO               DMI     7707-211102011101220110010000000001312000000000013120              PALMAS A1                          CATIENE SILVA ANJOS00200076011496253                                  T 19 QS 35 LT 15 CS 0177270000              PALMASTO00           000000000000000000 00000000              SANTA FE0000000000000000000000000000000000000000000000000                                        0012
1381       00000000         JOANA DARC LOPES DE SOUZA E CIA LTDA         JOANA DARC LOPES DE SOUZA E CIA LTDA12905176000171             AV TOCANTINS QD 03 LT 08 RUA T 477270000              PALMASTO               DMI     7707-311102011090120120010000000001312000000000013120              PALMAS A1                          CATIENE SILVA ANJOS00200076011496253                                  T 19 QS 35 LT 15 CS 0177270000              PALMASTO00           000000000000000000 00000000              SANTA FE0000000000000000000000000000000000000000000000000                                        0013
1381       00000000         JOANA DARC LOPES DE SOUZA E CIA LTDA         JOANA DARC LOPES DE SOUZA E CIA LTDA12905176000171             AV TOCANTINS QD 03 LT 08 RUA T 477270000              PALMASTO               DMI     7707-411102011080220120010000000001312000000000013120              PALMAS A1                          CATIENE SILVA ANJOS00200076011496253                                  T 19 QS 35 LT 15 CS 0177270000              PALMASTO00           000000000000000000 00000000              SANTA FE0000000000000000000000000000000000000000000000000                                        0014
1381       00000000         JOANA DARC LOPES DE SOUZA E CIA LTDA         JOANA DARC LOPES DE SOUZA E CIA LTDA12905176000171             AV TOCANTINS QD 03 LT 08 RUA T 477270000              PALMASTO               DMI     7707-511102011090320120010000000001312000000000013120              PALMAS A1                          CATIENE SILVA ANJOS00200076011496253                                  T 19 QS 35 LT 15 CS 0177270000              PALMASTO00           000000000000000000 00000000              SANTA FE0000000000000000000000000000000000000000000000000                                        0015
1381       00000000         JOANA DARC LOPES DE SOUZA E CIA LTDA         JOANA DARC LOPES DE SOUZA E CIA LTDA12905176000171             AV TOCANTINS QD 03 LT 08 RUA T 477270000              PALMASTO               DMI     7707-611102011080420120010000000001312000000000013120              PALMAS A1                          CATIENE SILVA ANJOS00200076011496253                                  T 19 QS 35 LT 15 CS 0177270000              PALMASTO00           000000000000000000 00000000              SANTA FE0000000000000000000000000000000000000000000000000                                        0016
1381       00000000         JOANA DARC LOPES DE SOUZA E CIA LTDA         JOANA DARC LOPES DE SOUZA E CIA LTDA12905176000171             AV TOCANTINS QD 03 LT 08 RUA T 477270000              PALMASTO               DMI     7707-711102011080520120010000000001314000000000013140              PALMAS A1                          CATIENE SILVA ANJOS00200076011496253                                  T 19 QS 35 LT 15 CS 0177270000              PALMASTO00           000000000000000000 00000000              SANTA FE0000000000000000000000000000000000000000000000000                                        0017
9381 CAMARA DOS DIRIGNTES LOJISTAS DE PALMAS2006201200048000000000000163470                                                                                                                                                                                                                                                                                                                                                                                                                                                                                                                                         0018