0381 CAMARA DOS DIRIGNTES LOJISTAS DE PALMAS11062012BFOSDTTPR0000080005000500050000     00421721000                                                                                                                                                                                                                                                                                                                                                                                                                                                                                                                 0001
1381       00000000         POLO MODAS COMERCIO DE CAL큐DOS LTDA         POLO MODAS COMERCIO DE CAL큐DOS LTDA03492546000103                   AV JK 106 NORTE LT 04 N 2177000000              PALMASTO               DMI        43508102008081220080010000000000538000000000005380              PALMAS A1                     LIDIANE SILVA DE ALMEIDA00200001476409110                                   303 NORTE AL 19 LT 0477000000              PALMASTO00           000000000000000000 00000000                CENTRO0000000000000000000000000000000000000000000000000                                        0002
1381       00000000         POLO MODAS COMERCIO DE CAL큐DOS LTDA         POLO MODAS COMERCIO DE CAL큐DOS LTDA03492546000103                   AV JK 106 NORTE LT 04 N 2177000000              PALMASTO               DMI       269930082006300920060010000000002212000000000022120              PALMAS A1                  NERCILENE DE CASTRO LACERDA00200053860918168                                      706 SUL AL 6 LT 0177000000              PALMASTO00           000000000000000000 00000000                CENTRO0000000000000000000000000000000000000000000000000                                        0003
1381       00000000         POLO MODAS COMERCIO DE CAL큐DOS LTDA         POLO MODAS COMERCIO DE CAL큐DOS LTDA03492546000103                   AV JK 106 NORTE LT 04 N 2177000000              PALMASTO               DMI        55215122007150220080010000000000400000000000004000              PALMAS A1                              ERICA SARDINHA 00200001868351165                                     ARNE 12 AL 03 CS 0977000000              PALMASTO00           000000000000000000 00000000                CENTRO0000000000000000000000000000000000000000000000000                                        0004
1381       00000000         POLO MODAS COMERCIO DE CAL큐DOS LTDA         POLO MODAS COMERCIO DE CAL큐DOS LTDA03492546000103                   AV JK 106 NORTE LT 04 N 2177000000              PALMASTO               DMI        40009052007090720070010000000000685300000000006853              PALMAS A1                HERLENE CAROLINA QUEIROZ REGO00200076814505134                                   106 NORTE AL 12 LT 1177000000              PALMASTO00           000000000000000000 00000000                CENTRO0000000000000000000000000000000000000000000000000                                        0005
1381       00000000         POLO MODAS COMERCIO DE CAL큐DOS LTDA         POLO MODAS COMERCIO DE CAL큐DOS LTDA03492546000103                   AV JK 106 NORTE LT 04 N 2177000000              PALMASTO               DMI         4227112007271220070010000000000573000000000005730              PALMAS A1                          DINAH PEREIRA VIDAL00200082184801100                                   105 NORTE QI 03 LT 5577000000              PALMASTO00           000000000000000000 00000000                CENTRO0000000000000000000000000000000000000000000000000                                        0006
9381 CAMARA DOS DIRIGNTES LOJISTAS DE PALMAS1106201200015000000000000044083                                                                                                                                                                                                                                                                                                                                                                                                                                                                                                                                         0007