0902MWCQ ASSESSORIA EMPRESARIAL E REPRESENTA27012010BFOSDTTPR0000200004000400000004     00423500000                                                                                                                                                                                                                                                                                                                                                                                                                                                                                                                 0001
1902 00000000000000                             BANCO FINASA S.A                             BANCO FINASA S.A57561615000104                        RUA JOSE ANTONIO 165479002401        CAMPO GRANDEMS              0 NP 367409223501092006010920060010000000081100600000000811006            SALVADOR N1                      ERALDO EVERTON DA SILVA00200008688830428                               POV. BAIXA DO MOSQUITO 1 47820000       SAO DESIDERIOBA00           000000000000000000 00000000         RODA VELHA II0000000000000000000000000000000000000000000000000                                        0002
1902 00000000000000                             BANCO FINASA S.A                             BANCO FINASA S.A57561615000104                        RUA JOSE ANTONIO 165479002401        CAMPO GRANDEMS              0 NP 367301790623012008230120080010000000104638400000001046384            SALVADOR N1                             RODRIGO IGNACIO 00200004763829556                        RUA DAS ROSEIRAS QD.98 LT 15 N1547820000       SAO DESIDERIOBA00           000000000000000000 00000000           RODA VELHA 0000000000000000000000000000000000000000000000000                                        0003
1902 00000000000000                             BANCO FINASA S.A                             BANCO FINASA S.A57561615000104                        RUA JOSE ANTONIO 165479002401        CAMPO GRANDEMS              0 NP 367018954404122007041220070010000000053294800000000532948            SALVADOR N1                      DANILO LIMA DE OLIVEIRA00200003557908585                                    FAZENDA BOA SORTE N145940000            IBIRAPUABA00           000000000000000000 00000000      VILA CAPICHABABA0000000000000000000000000000000000000000000000000                                        0004
1902 00000000000000                             BANCO FINASA S.A                             BANCO FINASA S.A57561615000104                        RUA JOSE ANTONIO 165479002401        CAMPO GRANDEMS              0 NP 367115031519122007191220070010000000104299600000001042996            SALVADOR N1                         JOSE DA SILVA SANTOS00200002598193520                                      RUA SECUNDARIA N0847820000       SAO DESIDERIOBA00           000000000000000000 00000000   SITIO DO RIO GRANDE0000000000000000000000000000000000000000000000000                                        0005
9902MWCQ ASSESSORIA EMPRESARIAL E REPRESENTA2701201000012000000000003433334                                                                                                                                                                                                                                                                                                                                                                                                                                                                                                                                         0006