0RETORNONOTIFICAÇÃO ELETRONICA        26072011CONF                                            000001
100002908000584091250720110058409125072011               0000000000000138230-1                000002
100002908300584092250720110058409225072011               0000000000000138230-2                000003
100002910300584093250720110058409325072011               0000000000000138230-3                000004
100002911000584094250720110058409425072011               0000000000000138230-4                000005
100002912800584095250720110058409525072011               0000000000000138230-5                000006
100002912900584096250720110058409625072011               0000000000000138230-6                000007
100002913700584097250720110058409725072011               0000000000000138230-7                000008
100002914200584098250720110058409825072011               0000000000000138230-8                000009
100002914300584099250720110058409925072011               0000000000000138230-9                000010
9000009                                                                                       000011
