0RETORNONOTIFICAÇÃO ELETRONICA        28112014CONF                                            000001
100005006601390130271120140139013027112014               0000000000000332614-1                000002
100005007501390131271120140139013127112014               0000000000000332614-2                000003
100005007901390132271120140139013227112014               0000000000000332614-3                000004
100005013501383794191120140138379419112014FA318280715BR  0000026112014333574-1                000005
100005013801383795191120140138379519112014               0000000000000333574-2                000006
100005013901383796191120140138379619112014               0000000000000333574-3                000007
100005014001383797191120140138379719112014FA318280746BR  0000026112014333574-4                000008
100005014101383798191120140138379819112014               0000000000000333574-17               000009
100005014201383799191120140138379919112014FA318280763BR  0000127112014333574-18               000010
100005014301383800191120140138380019112014               0000000000000333574-19               000011
100005014401383801191120140138380119112014               0000000000000333574-20               000012
100005015001385962241120140138596224112014               0000000000000334161-1                000013
100005015701385963241120140138596324112014               0000000000000334161-2                000014
100005015801385964241120140138596424112014               0000000000000334161-4                000015
100005015901385965241120140138596524112014               0000000000000334161-8                000016
100005016001385966241120140138596624112014               0000000000000334161-9                000017
100005009201385967241120140138596724112014               0000000000000334164-1                000018
100005009301385968241120140138596824112014               0000000000000334164-2                000019
100005010201385969241120140138596924112014               0000000000000334164-3                000020
100005013701385970241120140138597024112014               0000000000000334164-4                000021
100005015401385971241120140138597124112014               0000000000000334164-5                000022
100005016101385972241120140138597224112014               0000000000000334164-6                000023
100005016201385973241120140138597324112014               0000000000000334164-8                000024
100005016301385974241120140138597424112014               0000000000000334164-9                000025
100005016401385975241120140138597524112014               0000000000000334164-10               000026
100005016501385976241120140138597624112014               0000000000000334164-11               000027
100005016601385977241120140138597724112014               0000000000000334164-12               000028
100005016701385978241120140138597824112014               0000000000000334164-13               000029
100005017001385979241120140138597924112014               0000000000000334164-16               000030
100005017101385980241120140138598024112014               0000000000000334166-1                000031
100005017201385981241120140138598124112014               0000000000000334166-2                000032
100005017301390133271120140139013327112014               0000000000000334341-1                000033
100005017401390134271120140139013427112014               0000000000000334341-2                000034
100005017501390135271120140139013527112014               0000000000000334341-3                000035
100005017801390136271120140139013627112014               0000000000000334740-1                000036
100005017901390137271120140139013727112014               0000000000000334740-2                000037
100005018001390138271120140139013827112014               0000000000000334740-3                000038
100005018501390139271120140139013927112014               0000000000000334742-1                000039
100005018601390140271120140139014027112014               0000000000000334742-2                000040
100005018701390141271120140139014127112014               0000000000000334742-3                000041
100005018801390142271120140139014227112014               0000000000000334742-4                000042
100005019201390143271120140139014327112014               0000000000000334742-8                000043
9000042                                                                                       000044
