0RETORNONOTIFICAÇÃO ELETRONICA        05112010CONF                                            000001
100002479700423372041120100042337204112010               0000000000000114701-1                000002
100002479800423373041120100042337304112010               0000000000000114701-2                000003
100002480200423374041120100042337404112010               0000000000000114701-3                000004
100002480900423375041120100042337504112010               0000000000000114701-4                000005
100002481000423376041120100042337604112010               0000000000000114701-5                000006
100002481100423377041120100042337704112010               0000000000000114701-6                000007
100002481200423378041120100042337804112010               0000000000000114701-7                000008
100002481300423379041120100042337904112010               0000000000000114701-8                000009
100002481400423380041120100042338004112010               0000000000000114701-9                000010
100002481500423381041120100042338104112010               0000000000000114701-10               000011
100002481800423382041120100042338204112010               0000000000000114701-11               000012
100002481900423383041120100042338304112010               0000000000000114701-12               000013
100002482000423384041120100042338404112010               0000000000000114701-15               000014
100002482100423385041120100042338504112010               0000000000000114701-16               000015
100002482200423386041120100042338604112010               0000000000000114701-17               000016
100002482800423387041120100042338704112010               0000000000000114701-18               000017
100002483100423388041120100042338804112010               0000000000000114701-19               000018
100002483200423389041120100042338904112010               0000000000000114701-20               000019
100002483400423390041120100042339004112010               0000000000000114701-21               000020
100002483700423391041120100042339104112010               0000000000000114701-22               000021
100002483800423392041120100042339204112010               0000000000000114701-23               000022
100002483900423393041120100042339304112010               0000000000000114702-1                000023
100002484000423394041120100042339404112010               0000000000000114702-2                000024
100002485200423395041120100042339504112010               0000000000000114702-5                000025
100002485300423396041120100042339604112010               0000000000000114702-6                000026
100002487600423397041120100042339704112010               0000000000000114702-7                000027
100002484100423398041120100042339804112010               0000000000000114861-1                000028
100002484300423399041120100042339904112010               0000000000000114861-2                000029
100002485100423400041120100042340004112010               0000000000000114861-3                000030
100002487300423401041120100042340104112010               0000000000000114861-4                000031
100002487700423402041120100042340204112010               0000000000000114861-5                000032
100002487800423403041120100042340304112010               0000000000000114861-6                000033
100002487900423404041120100042340404112010               0000000000000114861-7                000034
100002488000423405041120100042340504112010               0000000000000114861-8                000035
100002488100423406041120100042340604112010               0000000000000114861-9                000036
100002488200423407041120100042340704112010               0000000000000114861-10               000037
100002488300423408041120100042340804112010               0000000000000114861-11               000038
100002488400423409041120100042340904112010               0000000000000114861-12               000039
9000038                                                                                       000040
