0RETORNONOTIFICAÇÃO ELETRONICA        26112010CONF                                            000001
100002508900430323251120100043032325112010               0000000000000116334-1                000002
100002512200430324251120100043032425112010               0000000000000116334-2                000003
100002512500430325251120100043032525112010               0000000000000116334-3                000004
100002512600430326251120100043032625112010               0000000000000116334-4                000005
100002512700430327251120100043032725112010               0000000000000116334-6                000006
100002512800430328251120100043032825112010               0000000000000116334-8                000007
100002512900430329251120100043032925112010               0000000000000116334-16               000008
100002513000430330251120100043033025112010               0000000000000116334-23               000009
9000008                                                                                       000010
