0RETORNONOTIFICAÇÃO ELETRONICA        29052012CONF                                            000001
100003537600768977240520120076897724052012               0000000000000175960-1                000002
100003538000768978240520120076897824052012               0000000000000175960-2                000003
100003546700768979240520120076897924052012               0000000000000175960-3                000004
100003546800768980240520120076898024052012               0000000000000175960-4                000005
100003546900768981240520120076898124052012               0000000000000175960-5                000006
100003547000768982240520120076898224052012               0000000000000175960-6                000007
100003547100768983240520120076898324052012               0000000000000175960-7                000008
100003548000768984240520120076898424052012               0000000000000175960-8                000009
100003548800768985240520120076898524052012               0000000000000175960-9                000010
100003549000768986240520120076898624052012               0000000000000175960-10               000011
100003549100768987240520120076898724052012               0000000000000175960-11               000012
100003549200770923280520120077092328052012               0000000000000176428-1                000013
100003549300770924280520120077092428052012               0000000000000176428-2                000014
100003549400770925280520120077092528052012               0000000000000176428-3                000015
100003549500770926280520120077092628052012               0000000000000176428-4                000016
100003549800770927280520120077092728052012               0000000000000176428-5                000017
100003550700770928280520120077092828052012               0000000000000176435-1                000018
100003550800770929280520120077092928052012               0000000000000176435-2                000019
100003550900770930280520120077093028052012               0000000000000176435-3                000020
100003551000770931280520120077093128052012               0000000000000176435-5                000021
100003551100770932280520120077093228052012               0000000000000176435-6                000022
100003551900770933280520120077093328052012               0000000000000176435-7                000023
100003552000770934280520120077093428052012               0000000000000176435-8                000024
100003552100770935280520120077093528052012               0000000000000176435-9                000025
100003552200770936280520120077093628052012               0000000000000176435-10               000026
100003552800770937280520120077093728052012               0000000000000176435-11               000027
100003552900770938280520120077093828052012               0000000000000176435-18               000028
100003553000770939280520120077093928052012               0000000000000176435-26               000029
100003553100770940280520120077094028052012               0000000000000176435-27               000030
100003553200770941280520120077094128052012               0000000000000176435-31               000031
100003553300770942280520120077094228052012               0000000000000176463-1                000032
100003553400770943280520120077094328052012               0000000000000176463-2                000033
100003554600770944280520120077094428052012               0000000000000176463-7                000034
100003555200770945280520120077094528052012               0000000000000176463-8                000035
100003555300770946280520120077094628052012               0000000000000176463-9                000036
9000035                                                                                       000037
