0RETORNONOTIFICAÇÃO ELETRONICA        08022013CONF                                            000001
100003944300885766100120130088576610012013FA063151418BR  0000018012013215013-1                000002
100003946200885516100120130088551610012013FA063148918BR  0000016012013215265-1                000003
100003946400885517100120130088551710012013               0000000000000215265-2                000004
100003946800885518100120130088551810012013FA063148935BR  0000018012013215265-3                000005
100003946700885519100120130088551910012013FA063148949BR  0000017012013215265-4                000006
100003946600885520100120130088552010012013               0000000000000215265-7                000007
100003946500885521100120130088552110012013FA063148966BR  0000017012013215265-10               000008
100003946900885522100120130088552210012013FA063148970BR  0000017012013215265-11               000009
100003946100885523100120130088552310012013               0000000000000215265-12               000010
100003946300885524100120130088552410012013               0000000000000215265-16               000011
100003946000885525100120130088552510012013FA063149003BR  0000018012013215265-17               000012
100003949400885526100120130088552610012013FA063149017BR  0000017012013215269-1                000013
100003945300885527100120130088552710012013FA063149025BR  0000030012013215269-3                000014
100003945100885528100120130088552810012013FA063149034BR  0000017012013215269-4                000015
100003943900885529100120130088552910012013FA063149048BR  0000017012013215269-5                000016
100003940000885530100120130088553010012013FA063149051BR  0000018012013215269-6                000017
100003941900885531100120130088553110012013FA063149065BR  0000021012013215269-7                000018
100003940400885532100120130088553210012013FA063149079BR  0000017012013215269-8                000019
100003950300885533100120130088553310012013FA063149082BR  0000017012013215273-1                000020
100003950100885534100120130088553410012013FA063149096BR  0000021012013215273-2                000021
100003950400885535100120130088553510012013               0000000000000215273-3                000022
100003950200885536100120130088553610012013FA063149119BR  0000021012013215273-4                000023
100003950500885537100120130088553710012013FA063149122BR  0000017012013215273-5                000024
100003952300885538100120130088553810012013FA063149136BR  0000018012013215278-1                000025
100003952500885539100120130088553910012013FA063149140BR  0000021012013215278-2                000026
100003951800885540100120130088554010012013FA063149153BR  0000021012013215278-3                000027
100003952800885541100120130088554110012013FA063149167BR  0000018012013215278-4                000028
100003951900885542100120130088554210012013FA063149175BR  0000021012013215278-5                000029
100003952200885543100120130088554310012013FA063149184BR  0000021012013215278-6                000030
100003952100885544100120130088554410012013               0000000000000215278-7                000031
100003952000885545100120130088554510012013FA063149207BR  0000021012013215278-8                000032
100003952600885546100120130088554610012013FA063149215BR  0000017012013215278-9                000033
100003952900885547100120130088554710012013FA063149224BR  0000017012013215278-10               000034
100003952400885548100120130088554810012013               0000000000000215278-11               000035
100003952700885549100120130088554910012013FA063149241BR  0000717012013215278-12               000036
100003954600885550100120130088555010012013               0000000000000215285-1                000037
100003954700885551100120130088555110012013FA063149269BR  0000025012013215285-2                000038
100003954800885552100120130088555210012013FA063149272BR  0000017012013215285-3                000039
100003954900885553100120130088555310012013FA063149286BR  0000018012013215285-4                000040
100003954500885554100120130088555410012013FA063149290BR  0000017012013215285-7                000041
100003955800885555100120130088555510012013FA063149309BR  0000016012013215289-1                000042
100003956000885556100120130088555610012013FA063149312BR  0000016012013215289-2                000043
100003955900885557100120130088555710012013FA063149326BR  0000016012013215289-3                000044
100003953500885558100120130088555810012013FA063149330BR  0000017012013215289-4                000045
100003958400885559100120130088555910012013FA063149343BR  0000017012013215290-1                000046
100003958500885560100120130088556010012013FA063149357BR  0000018012013215290-2                000047
100003958600885561100120130088556110012013FA063149365BR  0000018012013215290-3                000048
100003958700885562100120130088556210012013FA063149374BR  0000017012013215290-4                000049
100003958800885563100120130088556310012013FA063149388BR  0000018012013215290-5                000050
100003960800885564100120130088556410012013FA063149391BR  0000018012013215292-1                000051
100003960900885565100120130088556510012013FA063149405BR  0000018012013215292-2                000052
100003960700885566100120130088556610012013FA063149414BR  0002318012013215292-3                000053
100003960500885567100120130088556710012013FA063149428BR  0000017012013215292-4                000054
100003962300885568100120130088556810012013FA063149431BR  0000017012013215292-8                000055
100003961000885569100120130088556910012013FA063149445BR  0000016012013215292-9                000056
100003959800885570100120130088557010012013FA063149459BR  0000021012013215292-11               000057
100003960200885571100120130088557110012013FA063149462BR  0000021012013215292-12               000058
100003960100885572100120130088557210012013FA063149476BR  0000021012013215292-13               000059
100003960000885573100120130088557310012013FA063149480BR  0000021012013215292-14               000060
100003959900885574100120130088557410012013FA063149493BR  0000021012013215292-15               000061
100003961100885575100120130088557510012013               0000000000000215292-16               000062
100003960600885576100120130088557610012013               0000000000000215292-17               000063
100003962000885577100120130088557710012013FA063149520BR  0000018012013215292-18               000064
100003959700885578100120130088557810012013               0000000000000215292-19               000065
100003960400885579100120130088557910012013               0000000000000215292-20               000066
100003962400885580100120130088558010012013               0000000000000215294-1                000067
100003964200885581100120130088558110012013FA063149564BR  0000021012013215294-2                000068
100003964300885582100120130088558210012013FA063149578BR  0000017012013215294-3                000069
100003962500885583100120130088558310012013FA063149581BR  0000021012013215294-4                000070
100003962600885584100120130088558410012013FA063149595BR  0000016012013215294-6                000071
100003966900885585100120130088558510012013FA063149604BR  0000021012013215295-1                000072
100003964600885586100120130088558610012013FA063149618BR  0000017012013215295-2                000073
100003964700885587100120130088558710012013FA063149621BR  0000017012013215295-3                000074
100003964900885588100120130088558810012013FA063149635BR  0000018012013215295-5                000075
100003965100885589100120130088558910012013FA063149649BR  0000021012013215295-6                000076
100003965400885590100120130088559010012013FA063149652BR  0000017012013215295-8                000077
100003965300885591100120130088559110012013FA063149666BR  0000021012013215295-9                000078
100003965200885592100120130088559210012013FA063149670BR  0000017012013215295-11               000079
100003965000885593100120130088559310012013FA063149683BR  0000017012013215295-12               000080
100003964800885594100120130088559410012013FA063149697BR  0000017012013215295-13               000081
100003968800895087290120130089508729012013FA063240064BR  0000004022013218284-1                000082
100003967100895088290120130089508829012013FA063240078BR  0000004022013218284-2                000083
100003967000895089290120130089508929012013FA063240081BR  0000004022013218284-4                000084
100003967200895090290120130089509029012013FA063240095BR  0000004022013218284-5                000085
100003969200895091290120130089509129012013FA063240104BR  0000004022013218286-1                000086
100003969300895092290120130089509229012013FA063240118BR  0000007022013218286-2                000087
100003969100895093290120130089509329012013FA063240121BR  0000004022013218286-3                000088
100003969400895094290120130089509429012013FA063240135BR  0002306022013218286-4                000089
100003969500895095290120130089509529012013               0000000000000218286-5                000090
100003969000895096290120130089509629012013FA063240152BR  0000004022013218286-7                000091
100003971100895097290120130089509729012013FA063240166BR  0000004022013218288-1                000092
100003972800895098290120130089509829012013FA063240170BR  0000004022013218290-1                000093
100003972600895099290120130089509929012013FA063240183BR  0000008022013218290-2                000094
100003972700895100290120130089510029012013FA063240197BR  0000004022013218290-3                000095
100003972900895101290120130089510129012013FA063240206BR  0000004022013218290-5                000096
100003972100895102290120130089510229012013FA063240210BR  0000006022013218293-1                000097
100003973700895103290120130089510329012013               0000000000000218293-2                000098
100003974000895104290120130089510429012013FA063240237BR  0000004022013218293-3                000099
100003974300895105290120130089510529012013FA063240245BR  0000004022013218293-4                000100
100003972300895106290120130089510629012013FA063240254BR  0000008022013218293-5                000101
100003973200895107290120130089510729012013FA063240268BR  0000004022013218293-6                000102
100003973300895108290120130089510829012013FA063240271BR  0000008022013218293-7                000103
100003973400895109290120130089510929012013FA063240285BR  0000008022013218293-8                000104
100003971400895110290120130089511029012013               0000000000000218293-9                000105
100003974400895111290120130089511129012013FA063240308BR  0000004022013218293-10               000106
100003974500895112290120130089511229012013FA063240311BR  0000004022013218293-11               000107
100003975500895113290120130089511329012013FA063240325BR  0000007022013218293-12               000108
100003973100895114290120130089511429012013FA063240339BR  0000007022013218293-13               000109
100003974600895115290120130089511529012013FA063240342BR  0000008022013218293-14               000110
100003976600895116290120130089511629012013FA063240356BR  0000008022013218294-1                000111
100003976700895117290120130089511729012013FA063240360BR  0000008022013218294-2                000112
100003977400895118290120130089511829012013               0000000000000218297-1                000113
100003977600895119290120130089511929012013FA063240387BR  0000004022013218297-3                000114
100003977800895120290120130089512029012013FA063240395BR  0000004022013218297-4                000115
100003977700895121290120130089512129012013FA063240400BR  0000004022013218297-5                000116
100003977500895122290120130089512229012013FA063240413BR  0000004022013218297-7                000117
100003978000895123290120130089512329012013FA063240427BR  0000008022013218297-8                000118
100003978200895124290120130089512429012013FA063240435BR  0000004022013218297-9                000119
100003979100895125290120130089512529012013FA063240444BR  0000008022013218301-1                000120
100003979900895126290120130089512629012013FA063240458BR  0000007022013218301-2                000121
100003973500895127290120130089512729012013FA063240461BR  0000008022013218301-3                000122
100003979200895128290120130089512829012013FA063240475BR  0000004022013218301-4                000123
100003979300895129290120130089512929012013FA063240489BR  0000004022013218301-5                000124
100003979400895130290120130089513029012013FA063240492BR  0000004022013218301-6                000125
100003980000895131290120130089513129012013FA063240501BR  0000008022013218301-7                000126
100003980400895132290120130089513229012013               0000000000000218301-8                000127
100003980300895133290120130089513329012013FA063240529BR  0000106022013218301-9                000128
100003980200895134290120130089513429012013FA063240532BR  0000008022013218301-10               000129
100003980100895135290120130089513529012013FA063240546BR  0000008022013218301-11               000130
100003980800895136290120130089513629012013FA063240550BR  0000004022013218301-12               000131
100003980900895137290120130089513729012013FA063240563BR  0000004022013218301-13               000132
100003983600895138290120130089513829012013FA063240577BR  0000007022013218303-1                000133
100003981900895139290120130089513929012013FA063240585BR  0000508022013218303-2                000134
100003982000895140290120130089514029012013               0000000000000218303-3                000135
100003983400895141290120130089514129012013FA063240603BR  0000001022013218303-4                000136
100003981800895142290120130089514229012013FA063240617BR  0000008022013218303-5                000137
100003982100895143290120130089514329012013FA063240625BR  0000004022013218303-6                000138
100003983500895144290120130089514429012013               0000000000000218303-7                000139
100003983300895145290120130089514529012013               0000000000000218303-8                000140
100003981700895146290120130089514629012013FA063240651BR  0000004022013218303-9                000141
100003982400895147290120130089514729012013FA063240665BR  0000008022013218303-10               000142
100003984300895148290120130089514829012013               0000000000000218304-1                000143
100003983900895149290120130089514929012013FA063240682BR  0000007022013218304-3                000144
100003984000895150290120130089515029012013               0000000000000218304-4                000145
100003984100895151290120130089515129012013FA063240705BR  0000004022013218304-5                000146
100003983800895152290120130089515229012013FA063240719BR  0000004022013218304-7                000147
100003984400895153290120130089515329012013FA063240722BR  0000004022013218304-11               000148
100003984800895154290120130089515429012013FA063240736BR  0000006022013218304-12               000149
100003985400895155290120130089515529012013               0000000000000218304-13               000150
100003984200895156290120130089515629012013FA063240753BR  0000004022013218304-14               000151
100003984600895157290120130089515729012013FA063240767BR  0000007022013218304-15               000152
100003985000895158290120130089515829012013FA063240775BR  0000006022013218304-16               000153
100003985500895159290120130089515929012013FA063240784BR  0000004022013218305-1                000154
100003987400895160290120130089516029012013FA063240798BR  0000007022013218305-2                000155
100003987500895161290120130089516129012013FA063240807BR  0000007022013218305-3                000156
100003986000895162290120130089516229012013FA063240815BR  0000004022013218305-4                000157
100003986100895163290120130089516329012013FA063240824BR  0000004022013218305-5                000158
100003986400895164290120130089516429012013FA063240838BR  0000004022013218305-6                000159
100003986200895165290120130089516529012013FA063240841BR  0000004022013218305-7                000160
100003985800895166290120130089516629012013FA063240855BR  0000004022013218305-8                000161
100003987100895167290120130089516729012013FA063240869BR  0000004022013218305-9                000162
100003985900895168290120130089516829012013FA063240872BR  0000008022013218305-10               000163
100003985600895169290120130089516929012013FA063240886BR  0000004022013218305-11               000164
100003985700895170290120130089517029012013FA063240890BR  0000008022013218305-13               000165
100003988400900117050220130090011705022013               0000000000000219585-1                000166
100003988500900118050220130090011805022013               0000000000000219585-5                000167
100003988300900119050220130090011905022013               0000000000000219585-6                000168
100003990500900120050220130090012005022013               0000000000000219585-7                000169
100003988200900121050220130090012105022013               0000000000000219585-8                000170
100003982900900122050220130090012205022013               0000000000000219585-9                000171
100003991700900123050220130090012305022013               0000000000000219591-1                000172
100003991800900124050220130090012405022013               0000000000000219591-2                000173
100003994300900125050220130090012505022013               0000000000000219593-1                000174
100003994200900126050220130090012605022013               0000000000000219593-3                000175
100003994900900127050220130090012705022013               0000000000000219593-4                000176
100003994500900128050220130090012805022013               0000000000000219593-5                000177
100003994600900129050220130090012905022013               0000000000000219593-6                000178
100003995700900130050220130090013005022013               0000000000000219593-7                000179
100003994400900131050220130090013105022013               0000000000000219593-16               000180
100003994700900132050220130090013205022013FA063288464BR  0000008022013219593-17               000181
100003994800900133050220130090013305022013               0000000000000219593-18               000182
100003995600900134050220130090013405022013               0000000000000219593-19               000183
100003995100900135050220130090013505022013               0000000000000219593-20               000184
100003995200900136050220130090013605022013               0000000000000219593-21               000185
100003995800900137050220130090013705022013               0000000000000219603-1                000186
100003997500900138050220130090013805022013               0000000000000219603-2                000187
100003997600900139050220130090013905022013               0000000000000219603-3                000188
100003996400900140050220130090014005022013               0000000000000219603-4                000189
100003995900900141050220130090014105022013               0000000000000219603-5                000190
100004001400900142050220130090014205022013               0000000000000220041-1                000191
100003999000900143050220130090014305022013               0000000000000220041-3                000192
100003998900900144050220130090014405022013FA063288583BR  0000008022013220041-4                000193
100003998600900145050220130090014505022013               0000000000000220041-5                000194
100004000000900146050220130090014605022013               0000000000000220041-6                000195
100003999100900147050220130090014705022013               0000000000000220041-7                000196
100003998700900148050220130090014805022013               0000000000000220041-8                000197
100003999200900149050220130090014905022013               0000000000000220041-9                000198
100003998800900150050220130090015005022013               0000000000000220041-10               000199
100003999400900151050220130090015105022013               0000000000000220041-11               000200
100003998500900152050220130090015205022013               0000000000000220041-12               000201
100003999300900153050220130090015305022013               0000000000000220041-13               000202
100004001700900154050220130090015405022013               0000000000000220048-1                000203
100004001600900155050220130090015505022013               0000000000000220048-2                000204
100004003300900156050220130090015605022013               0000000000000220048-3                000205
100004001500900157050220130090015705022013               0000000000000220048-4                000206
100004002200900158050220130090015805022013               0000000000000220048-10               000207
100004003400900159050220130090015905022013               0000000000000220048-11               000208
100004003700900160050220130090016005022013               0000000000000220048-12               000209
100004003600900161050220130090016105022013               0000000000000220048-14               000210
100004003500900162050220130090016205022013               0000000000000220048-15               000211
100004002700900163050220130090016305022013               0000000000000220048-16               000212
100004002300900164050220130090016405022013               0000000000000220048-17               000213
100004002400900165050220130090016505022013               0000000000000220048-18               000214
100004003900900166050220130090016605022013               0000000000000220291-1                000215
100004003800900167050220130090016705022013               0000000000000220291-2                000216
9000215                                                                                       000217
