0RETORNONOTIFICAÇÃO ELETRONICA        23122013CONF                                            000001
100004570001098160201220130109816020122013               0000000000000274360-1                000002
100004570401098161201220130109816120122013               0000000000000274360-2                000003
100004570501098162201220130109816220122013               0000000000000274360-3                000004
100004569901098163201220130109816320122013               0000000000000274360-4                000005
100004570601098164201220130109816420122013               0000000000000274360-5                000006
100004570701098165201220130109816520122013               0000000000000274360-6                000007
100004570101098166201220130109816620122013               0000000000000274360-7                000008
100004570201098167201220130109816720122013               0000000000000274360-8                000009
100004570301098168201220130109816820122013               0000000000000274360-9                000010
100004572601098169201220130109816920122013               0000000000000274574-1                000011
100004572501098170201220130109817020122013               0000000000000274574-6                000012
100004572101098171201220130109817120122013               0000000000000274574-7                000013
100004572301098172201220130109817220122013               0000000000000274574-8                000014
100004572201098173201220130109817320122013               0000000000000274574-9                000015
100004572001098174201220130109817420122013               0000000000000274574-10               000016
100004572701098175201220130109817520122013               0000000000000274574-11               000017
100004572801098176201220130109817620122013               0000000000000274574-12               000018
100004572401098177201220130109817720122013               0000000000000274574-13               000019
100004574501098396201220130109839620122013               0000000000000274704-1                000020
100004574401098397201220130109839720122013               0000000000000274704-2                000021
100004574801098398201220130109839820122013               0000000000000274704-5                000022
100004574901098399201220130109839920122013               0000000000000274704-6                000023
100004574701098400201220130109840020122013               0000000000000274704-7                000024
100004574301098401201220130109840120122013               0000000000000274704-9                000025
100004575001098402201220130109840220122013               0000000000000274704-10               000026
100004574601098403201220130109840320122013               0000000000000274704-14               000027
9000026                                                                                       000028
