0RETORNONOTIFICAÇÃO ELETRONICA        06122012CONF                                            000001
100003898400869172051220120086917205122012               0000000000000208359-1                000002
100003899200869173051220120086917305122012               0000000000000208359-2                000003
100003899300869174051220120086917405122012               0000000000000208359-3                000004
100003894700869175051220120086917505122012               0000000000000208359-4                000005
100003901300869176051220120086917605122012               0000000000000208362-1                000006
100003902900869177051220120086917705122012               0000000000000208362-2                000007
100003906400869178051220120086917805122012               0000000000000208362-10               000008
100003906300869179051220120086917905122012               0000000000000208362-11               000009
100003906200869180051220120086918005122012               0000000000000208362-14               000010
100003906100869181051220120086918105122012               0000000000000208362-15               000011
100003906000869182051220120086918205122012               0000000000000208362-16               000012
100003905900869183051220120086918305122012               0000000000000208362-17               000013
100003905800869184051220120086918405122012               0000000000000208362-29               000014
100003905700869185051220120086918505122012               0000000000000208362-30               000015
100003905600869186051220120086918605122012               0000000000000208362-31               000016
100003905500869187051220120086918705122012               0000000000000208362-40               000017
100003905400869188051220120086918805122012               0000000000000208362-43               000018
100003905300869189051220120086918905122012               0000000000000208362-46               000019
100003905200869190051220120086919005122012               0000000000000208362-52               000020
100003905100869191051220120086919105122012               0000000000000208362-53               000021
100003905000869192051220120086919205122012               0000000000000208362-55               000022
100003904900869193051220120086919305122012               0000000000000208362-56               000023
100003904800869194051220120086919405122012               0000000000000208362-57               000024
100003904700869195051220120086919505122012               0000000000000208362-58               000025
100003904600869196051220120086919605122012               0000000000000208362-59               000026
100003904500869197051220120086919705122012               0000000000000208362-60               000027
100003904400869198051220120086919805122012               0000000000000208362-61               000028
100003904300869199051220120086919905122012               0000000000000208362-62               000029
100003904200869200051220120086920005122012               0000000000000208362-74               000030
100003904100869201051220120086920105122012               0000000000000208362-89               000031
100003904000869202051220120086920205122012               0000000000000208362-92               000032
100003903600869203051220120086920305122012               0000000000000208362-96               000033
100003903400869204051220120086920405122012               0000000000000208362-98               000034
100003903300869205051220120086920505122012               0000000000000208362-99               000035
100003903200869206051220120086920605122012               0000000000000208362-103              000036
100003903100869207051220120086920705122012               0000000000000208362-104              000037
100003903000869208051220120086920805122012               0000000000000208362-105              000038
100003901200869209051220120086920905122012               0000000000000208362-106              000039
100003901000869210051220120086921005122012               0000000000000208362-107              000040
100003901100869211051220120086921105122012               0000000000000208362-108              000041
100003907200869212051220120086921205122012               0000000000000208366-1                000042
100003906900869213051220120086921305122012               0000000000000208366-4                000043
100003907000869214051220120086921405122012               0000000000000208366-5                000044
100003906600869215051220120086921505122012               0000000000000208366-7                000045
100003906500869216051220120086921605122012               0000000000000208366-8                000046
100003907100869217051220120086921705122012               0000000000000208366-9                000047
100003906700869218051220120086921805122012               0000000000000208366-10               000048
100003906800869219051220120086921905122012               0000000000000208366-11               000049
100003909600869220051220120086922005122012               0000000000000208643-1                000050
100003909700869221051220120086922105122012               0000000000000208643-2                000051
100003909800869222051220120086922205122012               0000000000000208643-3                000052
100003909900869223051220120086922305122012               0000000000000208643-4                000053
100003909500869224051220120086922405122012               0000000000000208643-6                000054
100003910100869225051220120086922505122012               0000000000000208643-7                000055
100003909400869226051220120086922605122012               0000000000000208643-8                000056
100003910000869227051220120086922705122012               0000000000000208643-9                000057
9000056                                                                                       000058
