0RETORNONOTIFICAÇÃO ELETRONICA        07062013CONF                                            000001
100004174700957493150520130095749315052013FA105170137BR  0000024052013236350-1                000002
100004174100957494150520130095749415052013FA105170145BR  0000824052013236350-3                000003
100004174300957495150520130095749515052013FA105170154BR  0000021052013236350-4                000004
100004174200957496150520130095749615052013FA105170168BR  0000021052013236350-6                000005
100004174000957497150520130095749715052013FA105170171BR  0000021052013236350-9                000006
100004174800957498150520130095749815052013FA105170185BR  0000020052013236350-10               000007
100004174600957499150520130095749915052013FA105170199BR  0001224052013236350-11               000008
100004174400957500150520130095750015052013FA105170208BR  0000005062013236350-12               000009
100004174500957501150520130095750115052013FA105170211BR  0000023052013236350-13               000010
100004174900957502150520130095750215052013FA105170225BR  0000024052013236350-14               000011
100004177100957503150520130095750315052013FA105170239BR  0000023052013236351-1                000012
100004177800957504150520130095750415052013FA105170242BR  0000024052013236351-2                000013
100004177900957505150520130095750515052013FA105170256BR  0000020052013236351-3                000014
100004178000957506150520130095750615052013FA105170260BR  0000020052013236351-4                000015
100004177600957507150520130095750715052013FA105170273BR  0000005062013236351-5                000016
100004177700957508150520130095750815052013FA105170287BR  0000005062013236351-6                000017
100004176600957509150520130095750915052013FA105170295BR  0000020052013236351-8                000018
100004175000957510150520130095751015052013FA105170300BR  0000021052013236351-9                000019
100004179800957511150520130095751115052013               0000000000000236351-10               000020
100004177500957512150520130095751215052013FA105170327BR  0000021052013236351-11               000021
100004180000957513150520130095751315052013FA105170335BR  0000023052013236353-1                000022
100004180400957514150520130095751415052013FA105170344BR  0000021052013236353-2                000023
100004179900957515150520130095751515052013FA105170358BR  0000028052013236353-3                000024
100004180100957516150520130095751615052013FA105170361BR  0000020052013236353-4                000025
100004182200957517150520130095751715052013FA105170375BR  0000028052013236353-5                000026
100004187600957518150520130095751815052013FA105170389BR  0000722052013236353-6                000027
100004187500957519150520130095751915052013FA105170392BR  0000021052013236353-7                000028
100004187400957520150520130095752015052013FA105170401BR  0000023052013236353-9                000029
100004187300957521150520130095752115052013FA105170415BR  0000023052013236353-12               000030
100004187200957522150520130095752215052013FA105170429BR  0000021052013236353-14               000031
100004187100957523150520130095752315052013FA105170432BR  0000021052013236353-15               000032
100004187000957524150520130095752415052013FA105170446BR  0000023052013236353-19               000033
100004186900957525150520130095752515052013               0000000000000236353-23               000034
100004186800957526150520130095752615052013FA105170463BR  0000021052013236353-25               000035
100004186700957527150520130095752715052013FA105170477BR  0000028052013236353-26               000036
100004186600957528150520130095752815052013FA105170485BR  0000023052013236353-29               000037
100004186500957529150520130095752915052013FA105170494BR  0000023052013236353-31               000038
100004186400957530150520130095753015052013FA105170503BR  0000024052013236353-35               000039
100004186300957531150520130095753115052013FA105170517BR  0000023052013236353-36               000040
100004186200957532150520130095753215052013FA105170525BR  0000024052013236353-40               000041
100004186100957533150520130095753315052013FA105170534BR  0000028052013236353-44               000042
100004186000957534150520130095753415052013FA105170548BR  0000005062013236353-46               000043
100004185900957535150520130095753515052013FA105170551BR  0000024052013236353-49               000044
100004185800957536150520130095753615052013FA105170565BR  0000024052013236353-51               000045
100004185700957537150520130095753715052013               0000000000000236353-53               000046
100004185600957538150520130095753815052013FA105170582BR  0000023052013236353-55               000047
100004185500957539150520130095753915052013FA105170596BR  0000023052013236353-57               000048
100004185400957540150520130095754015052013FA105170605BR  0000023052013236353-59               000049
100004185300957541150520130095754115052013FA105170619BR  0000021052013236353-61               000050
100004185200957542150520130095754215052013FA105170622BR  0000024052013236353-63               000051
100004185100957543150520130095754315052013FA105170636BR  0000005062013236353-64               000052
100004185000957544150520130095754415052013FA105170640BR  0000020052013236353-72               000053
100004184900957545150520130095754515052013FA105170653BR  0000024052013236353-73               000054
100004184800957546150520130095754615052013FA105170667BR  0000028052013236353-75               000055
100004184700957547150520130095754715052013FA105170675BR  0000028052013236353-76               000056
100004184600957548150520130095754815052013FA105170684BR  0000023052013236353-83               000057
100004184500957549150520130095754915052013FA105170698BR  0000028052013236353-89               000058
100004184400957550150520130095755015052013               0000000000000236353-94               000059
100004184300957551150520130095755115052013               0000000000000236353-101              000060
100004184200957552150520130095755215052013FA105170724BR  0000028052013236353-108              000061
100004184100957553150520130095755315052013               0000000000000236353-114              000062
100004184000957554150520130095755415052013FA105170741BR  0000021052013236353-118              000063
100004183900957555150520130095755515052013FA105170755BR  0000021052013236353-121              000064
100004183800957556150520130095755615052013FA105170769BR  0000020052013236353-124              000065
100004183700957557150520130095755715052013FA105170772BR  0000028052013236353-126              000066
100004183600957558150520130095755815052013FA105170786BR  0000023052013236353-132              000067
100004183500957559150520130095755915052013FA105170790BR  0000028052013236353-136              000068
100004183400957560150520130095756015052013FA105170809BR  0000024052013236353-138              000069
100004183300957561150520130095756115052013               0000000000000236353-140              000070
100004183200957562150520130095756215052013FA105170826BR  0000005062013236353-145              000071
100004183000957565150520130095756515052013FA105170857BR  0000028052013236353-182              000072
100004182900957566150520130095756615052013FA105170865BR  0000021052013236353-191              000073
100004182800957567150520130095756715052013FA105170874BR  0000024052013236353-198              000074
100004182700957568150520130095756815052013FA105170888BR  0000021052013236353-200              000075
100004182600957569150520130095756915052013FA105170891BR  0000023052013236353-201              000076
100004182500957570150520130095757015052013FA105170905BR  0000028052013236353-208              000077
100004182400957571150520130095757115052013FA105170914BR  0000024052013236353-214              000078
100004182300957572150520130095757215052013FA105170928BR  0000020052013236353-238              000079
100004180200957573150520130095757315052013FA105170931BR  0000023052013236353-243              000080
100004180300957574150520130095757415052013FA105170945BR  0000023052013236353-245              000081
100004180500957575150520130095757515052013FA105170959BR  0000023052013236353-246              000082
100004180600957576150520130095757615052013FA105170962BR  0000028052013236353-247              000083
100004179100957577150520130095757715052013FA105170976BR  0000028052013236353-248              000084
100004187700957578150520130095757815052013               0000000000000236354-1                000085
100004189900957579150520130095757915052013FA105170993BR  0000024052013236354-2                000086
100004189800957580150520130095758015052013FA105171000BR  0000021052013236354-3                000087
100004188000957581150520130095758115052013FA105171013BR  0000021052013236354-4                000088
100004187800957582150520130095758215052013               0000000000000236354-5                000089
100004187900957583150520130095758315052013FA105171035BR  0000021052013236354-6                000090
100004190100957584150520130095758415052013FA105171044BR  0000021052013236355-1                000091
100004190200957585150520130095758515052013FA105171058BR  0000023052013236355-2                000092
100004190400957586150520130095758615052013FA105171061BR  0000021052013236355-4                000093
100004192900957587150520130095758715052013FA105171075BR  0000021052013236355-5                000094
100004193100957588150520130095758815052013FA105171089BR  0000023052013236355-8                000095
100004193200957589150520130095758915052013FA105171092BR  0000023052013236355-9                000096
100004190300957590150520130095759015052013FA105171101BR  0000028052013236355-12               000097
100004190000957591150520130095759115052013FA105171115BR  0000020052013236355-13               000098
100004190500957592150520130095759215052013FA105171129BR  0000021052013236355-14               000099
100004175600957593150520130095759315052013FA105171132BR  0000024052013236356-1                000100
100004193300957594150520130095759415052013FA105171146BR  0000021052013236356-2                000101
100004188700957595150520130095759515052013FA105171150BR  0000023052013236356-3                000102
100004195900957596150520130095759615052013FA105171163BR  0000021052013236357-1                000103
100004196600957597150520130095759715052013FA105171177BR  0000020052013236357-2                000104
100004196000957598150520130095759815052013FA105171185BR  0000021052013236357-3                000105
100004198200957599150520130095759915052013FA105171194BR  0000021052013236357-4                000106
100004195800957600150520130095760015052013FA105171203BR  0000023052013236357-5                000107
100004200100957601150520130095760115052013FA105171217BR  0000020052013236359-1                000108
100004200500957602150520130095760215052013FA105171225BR  0000020052013236359-7                000109
100004200400957603150520130095760315052013FA105171234BR  0000021052013236359-8                000110
100004200300957604150520130095760415052013FA105171248BR  0000020052013236359-9                000111
100004200200957605150520130095760515052013FA105171251BR  0000021052013236359-10               000112
100004198300957606150520130095760615052013FA105171265BR  0000021052013236359-14               000113
100004198400957607150520130095760715052013FA105171279BR  0000024052013236359-21               000114
9000113                                                                                       000115
