0RETORNONOTIFICAÇÃO ELETRONICA        07122011CONF                                            000001
100003217400679315021220110067931502122011               0000000000000153741-1                000002
100003217500679316021220110067931602122011               0000000000000153741-2                000003
100003217600679317021220110067931702122011               0000000000000153741-3                000004
100003217700679318021220110067931802122011               0000000000000153741-4                000005
100003217800679319021220110067931902122011               0000000000000153741-5                000006
100003219500679320021220110067932002122011               0000000000000153741-6                000007
100003219600679321021220110067932102122011               0000000000000153741-7                000008
100003219700679322021220110067932202122011               0000000000000153938-1                000009
100003219800679323021220110067932302122011               0000000000000153938-2                000010
100003219900679324021220110067932402122011               0000000000000153938-3                000011
100003220000679325021220110067932502122011               0000000000000153938-4                000012
100003222100679326021220110067932602122011               0000000000000153939-1                000013
100003222200679327021220110067932702122011               0000000000000153939-2                000014
100003222300679328021220110067932802122011               0000000000000153939-3                000015
100003222400679329021220110067932902122011               0000000000000153939-7                000016
100003222500679330021220110067933002122011               0000000000000153939-8                000017
100003227100679331021220110067933102122011               0000000000000153939-13               000018
100003227200679332021220110067933202122011               0000000000000153939-16               000019
100003227300679333021220110067933302122011               0000000000000153939-23               000020
100003227400685130061220110068513006122011               0000000000000154511-1                000021
100003227500685131061220110068513106122011               0000000000000154511-2                000022
100003227600685132061220110068513206122011               0000000000000154511-3                000023
100003227700685133061220110068513306122011               0000000000000154511-4                000024
100003227900685134061220110068513406122011               0000000000000154511-5                000025
100003228000685135061220110068513506122011               0000000000000154511-6                000026
100003228100685136061220110068513606122011               0000000000000154511-7                000027
9000026                                                                                       000028
