0RETORNONOTIFICAÇÃO ELETRONICA        17012012CONF                                            000001
100003324900705290160120120070529016012012               0000000000000158713-1                000002
100003325000705291160120120070529116012012               0000000000000158713-3                000003
100003325100705292160120120070529216012012               0000000000000158713-6                000004
100003325200705293160120120070529316012012               0000000000000158713-7                000005
9000004                                                                                       000006
