0RETORNONOTIFICAÇÃO ELETRONICA        27062012CONF                                            000001
100003602800784377260620120078437726062012               0000000000000180647-1                000002
100003602900784378260620120078437826062012               0000000000000180647-2                000003
100003603000784379260620120078437926062012               0000000000000180647-3                000004
100003604400784380260620120078438026062012               0000000000000180649-1                000005
100003604700784381260620120078438126062012               0000000000000180649-2                000006
100003604800784382260620120078438226062012               0000000000000180649-3                000007
100003604900784383260620120078438326062012               0000000000000180649-4                000008
100003605000784384260620120078438426062012               0000000000000180649-5                000009
100003605500784385260620120078438526062012               0000000000000180649-6                000010
100003606100784386260620120078438626062012               0000000000000180649-7                000011
100003606200784387260620120078438726062012               0000000000000180649-8                000012
100003606300784388260620120078438826062012               0000000000000180649-9                000013
100003606600784389260620120078438926062012               0000000000000180649-10               000014
100003606700784390260620120078439026062012               0000000000000180650-1                000015
100003606800784391260620120078439126062012               0000000000000180650-2                000016
100003606900784392260620120078439226062012               0000000000000180650-7                000017
100003607100784393260620120078439326062012               0000000000000180650-8                000018
9000017                                                                                       000019
