0RETORNONOTIFICAÇÃO ELETRONICA        01112013CONF                                            000001
100004497001065963311020130106596331102013               0000000000000266185-1                000002
100004497601065964311020130106596431102013               0000000000000266185-2                000003
100004497301065965311020130106596531102013               0000000000000266185-3                000004
100004497501065966311020130106596631102013               0000000000000266185-4                000005
100004497201065967311020130106596731102013               0000000000000266185-5                000006
100004497401065968311020130106596831102013               0000000000000266185-6                000007
100004497101065969311020130106596931102013               0000000000000266185-7                000008
100004499101066289311020130106628931102013               0000000000000266428-1                000009
100004501001066290311020130106629031102013               0000000000000266428-2                000010
100004491601066291311020130106629131102013               0000000000000266428-3                000011
100004499001066292311020130106629231102013               0000000000000266428-4                000012
100004499201066293311020130106629331102013               0000000000000266428-5                000013
100004499301066294311020130106629431102013               0000000000000266428-6                000014
100004499401066295311020130106629531102013               0000000000000266428-7                000015
9000014                                                                                       000016
