0RETORNONOTIFICAÇÃO ELETRONICA        03012012CONF                                            000001
100003263300694296281220110069429628122011               0000000000000156767-1                000002
100003263400694297281220110069429728122011               0000000000000156767-3                000003
100003199800694298281220110069429828122011               0000000000000156768-1                000004
100003204000694299281220110069429928122011               0000000000000156768-2                000005
100003204100694300281220110069430028122011               0000000000000156768-3                000006
100003204300694301281220110069430128122011               0000000000000156768-4                000007
100003204400694302281220110069430228122011               0000000000000156768-5                000008
100003204500694303281220110069430328122011               0000000000000156768-6                000009
100003204600694304281220110069430428122011               0000000000000156768-7                000010
100003204700694305281220110069430528122011               0000000000000156768-8                000011
100003205200694306281220110069430628122011               0000000000000156768-9                000012
100003265600694307281220110069430728122011               0000000000000156768-10               000013
100003265700694308281220110069430828122011               0000000000000156768-13               000014
100003266900694309281220110069430928122011               0000000000000156771-1                000015
100003267000694310281220110069431028122011               0000000000000156771-2                000016
100003267100694311281220110069431128122011               0000000000000156771-3                000017
100003267200694312281220110069431228122011               0000000000000156771-5                000018
100003267300694313281220110069431328122011               0000000000000156771-6                000019
100003267400694314281220110069431428122011               0000000000000156771-7                000020
100003267500694315281220110069431528122011               0000000000000156771-8                000021
100003202800694316281220110069431628122011               0000000000000156773-1                000022
100003202900694317281220110069431728122011               0000000000000156773-2                000023
100003203900694318281220110069431828122011               0000000000000156773-3                000024
100003204200694319281220110069431928122011               0000000000000156773-4                000025
100003208500694320281220110069432028122011               0000000000000156773-5                000026
100003210200694321281220110069432128122011               0000000000000156773-6                000027
100003211300694322281220110069432228122011               0000000000000156773-7                000028
100003211600694323281220110069432328122011               0000000000000156773-8                000029
100003211800694324281220110069432428122011               0000000000000156773-9                000030
100003211900694325281220110069432528122011               0000000000000156773-10               000031
100003212000694326281220110069432628122011               0000000000000156773-11               000032
100003212700694327281220110069432728122011               0000000000000156773-12               000033
100003212800694328281220110069432828122011               0000000000000156773-13               000034
100003213700694329281220110069432928122011               0000000000000156773-14               000035
100003214800694330281220110069433028122011               0000000000000156773-15               000036
100003214900694331281220110069433128122011               0000000000000156773-16               000037
100003215000694332281220110069433228122011               0000000000000156773-17               000038
100003215100694333281220110069433328122011               0000000000000156773-18               000039
100003215500694334281220110069433428122011               0000000000000156773-19               000040
100003215700694335281220110069433528122011               0000000000000156773-20               000041
100003215800694336281220110069433628122011               0000000000000156773-21               000042
100003216500694337281220110069433728122011               0000000000000156773-22               000043
100003216700694338281220110069433828122011               0000000000000156773-23               000044
100003218600694339281220110069433928122011               0000000000000156773-24               000045
100003218700694340281220110069434028122011               0000000000000156773-25               000046
100003218900694341281220110069434128122011               0000000000000156773-26               000047
100003219000694342281220110069434228122011               0000000000000156773-27               000048
100003219100694343281220110069434328122011               0000000000000156773-28               000049
100003219200694344281220110069434428122011               0000000000000156773-29               000050
100003264500694345281220110069434528122011               0000000000000156773-30               000051
100003270800694346281220110069434628122011               0000000000000156773-31               000052
100003270900694347281220110069434728122011               0000000000000156773-32               000053
100003271000694348281220110069434828122011               0000000000000156773-33               000054
100003273300694349281220110069434928122011               0000000000000156776-1                000055
100003273400694350281220110069435028122011               0000000000000156776-2                000056
100003273500694351281220110069435128122011               0000000000000156776-5                000057
100003273600694352281220110069435228122011               0000000000000156776-6                000058
100003273700694353281220110069435328122011               0000000000000156776-8                000059
9000058                                                                                       000060
