0RETORNONOTIFICAÇÃO ELETRONICA        08042011CONF                                            000001
100002691800507274070420110050727407042011               0000000000000127186-1                000002
100002697500507275070420110050727507042011               0000000000000127186-2                000003
100002697600507276070420110050727607042011               0000000000000127186-3                000004
100002697800507277070420110050727707042011               0000000000000127186-4                000005
100002697900507278070420110050727807042011               0000000000000127186-5                000006
100002700800507279070420110050727907042011               0000000000000127186-6                000007
100002700900507280070420110050728007042011               0000000000000127186-7                000008
100002701000507281070420110050728107042011               0000000000000127186-8                000009
100002701100507282070420110050728207042011               0000000000000127186-9                000010
100002701200507283070420110050728307042011               0000000000000127186-10               000011
100002701300507284070420110050728407042011               0000000000000127186-11               000012
100002701400507285070420110050728507042011               0000000000000127186-12               000013
100002701500507286070420110050728607042011               0000000000000127186-13               000014
100002709200507287070420110050728707042011               0000000000000127186-14               000015
100002709300507288070420110050728807042011               0000000000000127186-15               000016
100002709400507289070420110050728907042011               0000000000000127186-17               000017
100002709500507290070420110050729007042011               0000000000000127186-18               000018
100002709600507291070420110050729107042011               0000000000000127186-20               000019
100002692800507481070420110050748107042011               0000000000000127349-1                000020
100002693000507482070420110050748207042011               0000000000000127349-2                000021
100002693100507483070420110050748307042011               0000000000000127349-3                000022
100002693200507484070420110050748407042011               0000000000000127349-4                000023
100002693300507485070420110050748507042011               0000000000000127349-5                000024
100002693600507486070420110050748607042011               0000000000000127349-6                000025
100002695300507487070420110050748707042011               0000000000000127349-7                000026
100002698100507488070420110050748807042011               0000000000000127349-8                000027
100002698200507489070420110050748907042011               0000000000000127349-9                000028
100002699100507490070420110050749007042011               0000000000000127349-10               000029
100002699200507491070420110050749107042011               0000000000000127349-11               000030
100002699300507492070420110050749207042011               0000000000000127349-12               000031
100002699500507493070420110050749307042011               0000000000000127349-13               000032
100002699900507494070420110050749407042011               0000000000000127349-14               000033
100002700700507495070420110050749507042011               0000000000000127349-15               000034
100002709700507496070420110050749607042011               0000000000000127349-16               000035
100002709800507497070420110050749707042011               0000000000000127349-18               000036
100002709900507498070420110050749807042011               0000000000000127349-19               000037
100002710000507499070420110050749907042011               0000000000000127349-21               000038
100002710100507500070420110050750007042011               0000000000000127349-22               000039
100002710200507501070420110050750107042011               0000000000000127349-24               000040
100002710300507502070420110050750207042011               0000000000000127349-25               000041
9000040                                                                                       000042
