0RETORNONOTIFICAÇÃO ELETRONICA        25022014CONF                                            000001
100004647101145577240220140114557724022014               0000000000000286541-1                000002
100004647601145578240220140114557824022014               0000000000000286542-1                000003
100004647701145579240220140114557924022014               0000000000000286542-2                000004
100004647801145580240220140114558024022014               0000000000000286542-3                000005
100004647901145581240220140114558124022014               0000000000000286542-4                000006
100004648001145582240220140114558224022014               0000000000000286542-6                000007
100004649301145583240220140114558324022014               0000000000000286542-7                000008
100004649701145584240220140114558424022014               0000000000000286542-8                000009
100004649801145585240220140114558524022014               0000000000000286543-1                000010
100004649901145586240220140114558624022014               0000000000000286543-2                000011
100004650001145587240220140114558724022014               0000000000000286543-3                000012
100004650101145588240220140114558824022014               0000000000000286543-4                000013
100004651801145589240220140114558924022014               0000000000000286543-6                000014
9000013                                                                                       000015
