0RETORNONOTIFICAÇÃO ELETRONICA        14102010CONF                                            000001
100002442700401832141020100040183214102010               0000000000000113358-1                000002
100002443500401833141020100040183314102010               0000000000000113358-2                000003
100002443600401834141020100040183414102010               0000000000000113358-3                000004
100002446700401835141020100040183514102010               0000000000000113358-4                000005
100002458600401836141020100040183614102010               0000000000000113358-5                000006
100002458700401837141020100040183714102010               0000000000000113358-6                000007
100002458800401838141020100040183814102010               0000000000000113358-7                000008
100002458900401839141020100040183914102010               0000000000000113358-8                000009
100002459000401840141020100040184014102010               0000000000000113358-9                000010
100002459100401841141020100040184114102010               0000000000000113358-10               000011
9000010                                                                                       000012
