0RETORNONOTIFICAÇÃO ELETRONICA        20092010CONF                                            000001
100002418600391531170920100039153117092010               0000000000000111380-1                000002
100002418200391532170920100039153217092010               0000000000000111380-2                000003
100002418300391533170920100039153317092010               0000000000000111380-3                000004
100002418400391534170920100039153417092010               0000000000000111380-4                000005
100002418500391535170920100039153517092010               0000000000000111380-12               000006
100002418700391536170920100039153617092010               0000000000000111380-13               000007
100002418800391537170920100039153717092010               0000000000000111380-14               000008
9000007                                                                                       000009
