0RETORNONOTIFICAÇÃO ELETRONICA        13102010CONF                                            000001
100002451700400802111020100040080211102010               0000000000000113063-1                000002
100002455900400803111020100040080311102010               0000000000000113173-1                000003
100002453400400804111020100040080411102010               0000000000000113173-5                000004
100002453500400805111020100040080511102010               0000000000000113173-6                000005
100002453600400806111020100040080611102010               0000000000000113173-7                000006
100002456000400807111020100040080711102010               0000000000000113173-8                000007
100002456100400808111020100040080811102010               0000000000000113173-12               000008
100002456200400809111020100040080911102010               0000000000000113173-13               000009
100002456300400810111020100040081011102010               0000000000000113173-14               000010
9000009                                                                                       000011
