0RETORNONOTIFICAÇÃO ELETRONICA        27052011CONF                                            000001
100002760400544824260520110054482426052011               0000000000000131795-1                000002
100002761100544825260520110054482526052011               0000000000000131795-2                000003
100002761400544826260520110054482626052011               0000000000000131795-3                000004
100002761800544827260520110054482726052011               0000000000000131795-4                000005
100002771000544828260520110054482826052011               0000000000000131795-5                000006
100002771100544829260520110054482926052011               0000000000000131795-6                000007
100002772000544830260520110054483026052011               0000000000000131795-7                000008
100002773000544831260520110054483126052011               0000000000000131795-8                000009
100002773200544832260520110054483226052011               0000000000000131795-9                000010
100002773800544833260520110054483326052011               0000000000000131795-10               000011
100002774200544834260520110054483426052011               0000000000000131795-11               000012
100002774500544835260520110054483526052011               0000000000000131795-12               000013
100002774800544836260520110054483626052011               0000000000000131795-13               000014
100002775000544837260520110054483726052011               0000000000000131795-14               000015
100002779500544838260520110054483826052011               0000000000000131795-15               000016
100002779600544839260520110054483926052011               0000000000000131795-16               000017
100002780200544840260520110054484026052011               0000000000000131795-17               000018
100002780300544841260520110054484126052011               0000000000000131795-18               000019
100002780400544842260520110054484226052011               0000000000000131795-19               000020
100002780500544843260520110054484326052011               0000000000000131795-20               000021
100002780900544844260520110054484426052011               0000000000000131795-21               000022
100002781700544845260520110054484526052011               0000000000000131795-22               000023
100002779700544846260520110054484626052011               0000000000000131926-1                000024
100002779800544847260520110054484726052011               0000000000000131926-2                000025
100002780600544848260520110054484826052011               0000000000000131926-3                000026
100002781000544849260520110054484926052011               0000000000000131926-4                000027
100002781100544850260520110054485026052011               0000000000000131926-5                000028
100002781200544851260520110054485126052011               0000000000000131926-6                000029
100002781300544852260520110054485226052011               0000000000000131926-7                000030
100002781400544853260520110054485326052011               0000000000000131926-8                000031
100002781500544854260520110054485426052011               0000000000000131926-9                000032
100002781800544855260520110054485526052011               0000000000000131926-10               000033
100002781900544856260520110054485626052011               0000000000000131926-11               000034
100002782000544857260520110054485726052011               0000000000000131926-12               000035
100002782100544858260520110054485826052011               0000000000000131926-13               000036
100002782200544859260520110054485926052011               0000000000000131926-14               000037
100002782300544860260520110054486026052011               0000000000000131926-15               000038
100002782400544861260520110054486126052011               0000000000000131926-16               000039
100002782500544862260520110054486226052011               0000000000000131926-17               000040
100002782600544863260520110054486326052011               0000000000000131926-18               000041
9000040                                                                                       000042
