0RETORNONOTIFICAÇÃO ELETRONICA        26012011CONF                                            000001
100002595800457920240120110045792024012011               0000000000000120357-1                000002
100002595900457921240120110045792124012011               0000000000000120357-4                000003
100002596000457922240120110045792224012011               0000000000000120357-5                000004
9000003                                                                                       000005
