0RETORNONOTIFICAÇÃO ELETRONICA        22102014CONF                                            000001
100004991801355139211020140135513921102014               0000000000000328510-1                000002
100004992101355140211020140135514021102014               0000000000000328510-2                000003
100004992201355141211020140135514121102014               0000000000000328510-3                000004
100004992301355142211020140135514221102014               0000000000000328510-4                000005
100004992601355143211020140135514321102014               0000000000000328666-1                000006
100004992701355144211020140135514421102014               0000000000000328666-2                000007
100004992801355145211020140135514521102014               0000000000000328666-3                000008
9000007                                                                                       000009
