0RETORNONOTIFICAÇÃO ELETRONICA        10042012CONF                                            000001
100003465800746464090420120074646409042012               0000000000000169919-1                000002
100003465900746465090420120074646509042012               0000000000000169919-2                000003
100003466000746466090420120074646609042012               0000000000000169919-4                000004
100003466100746467090420120074646709042012               0000000000000169919-5                000005
100003466200746468090420120074646809042012               0000000000000169919-6                000006
100003466800746469090420120074646909042012               0000000000000169919-7                000007
100003466900746470090420120074647009042012               0000000000000169919-8                000008
100003467000746471090420120074647109042012               0000000000000169919-9                000009
100003468400746472090420120074647209042012               0000000000000169919-10               000010
100003468500746473090420120074647309042012               0000000000000169919-11               000011
100003468600746474090420120074647409042012               0000000000000169927-1                000012
100003468700746475090420120074647509042012               0000000000000169927-4                000013
100003468800746476090420120074647609042012               0000000000000169927-5                000014
100003470200746477090420120074647709042012               0000000000000169929-1                000015
100003470300746478090420120074647809042012               0000000000000169929-2                000016
100003470400746479090420120074647909042012               0000000000000169929-7                000017
100003470500746480090420120074648009042012               0000000000000169929-8                000018
100003470600746481090420120074648109042012               0000000000000169929-9                000019
100003470700746482090420120074648209042012               0000000000000169929-10               000020
9000019                                                                                       000021
