0RETORNONOTIFICAÇÃO ELETRONICA        26102011CONF                                            000001
100003142300651267261020110065126726102011               0000000000000149237-1                000002
100003142400651268261020110065126826102011               0000000000000149237-2                000003
100003142500651269261020110065126926102011               0000000000000149237-3                000004
100003142600651270261020110065127026102011               0000000000000149237-4                000005
100003142900651271261020110065127126102011               0000000000000149237-5                000006
100003149100651272261020110065127226102011               0000000000000149237-6                000007
100003149200651273261020110065127326102011               0000000000000149237-7                000008
100003149300651274261020110065127426102011               0000000000000149237-8                000009
100003149400651275261020110065127526102011               0000000000000149237-9                000010
100003150900651276261020110065127626102011               0000000000000149237-11               000011
9000010                                                                                       000012
