0RETORNONOTIFICAÇÃO ELETRONICA        29032012CONF                                            000001
100003450400739662280320120073966228032012               0000000000000168540-1                000002
100003452000739663280320120073966328032012               0000000000000168540-2                000003
100003452100739664280320120073966428032012               0000000000000168540-4                000004
100003452200739665280320120073966528032012               0000000000000168540-5                000005
100003452300739666280320120073966628032012               0000000000000168540-6                000006
100003452400739667280320120073966728032012               0000000000000168540-7                000007
9000006                                                                                       000008
