0RETORNONOTIFICAÇÃO ELETRONICA        04052012CONF                                            000001
100003502700756637020520120075663702052012               0000000000000172350-1                000002
100003502800756638020520120075663802052012               0000000000000172350-2                000003
100003502900756639020520120075663902052012               0000000000000172350-3                000004
100003503100756640020520120075664002052012               0000000000000172350-4                000005
100003504300756641020520120075664102052012               0000000000000172350-5                000006
100003504400756642020520120075664202052012               0000000000000172350-6                000007
100003504500756643020520120075664302052012               0000000000000172350-7                000008
100003505300756644020520120075664402052012               0000000000000172350-8                000009
100003505600756645020520120075664502052012               0000000000000172350-9                000010
100003506600756647020520120075664702052012               0000000000000172350-54               000011
100003502500756648020520120075664802052012               0000000000000172732-1                000012
100003506700756649020520120075664902052012               0000000000000172732-2                000013
100003506800756650020520120075665002052012               0000000000000172732-3                000014
100003506900756651020520120075665102052012               0000000000000172732-5                000015
100003507500756652020520120075665202052012               0000000000000172734-1                000016
100003508200756653020520120075665302052012               0000000000000172734-2                000017
100003508300756654020520120075665402052012               0000000000000172734-3                000018
100003508400756655020520120075665502052012               0000000000000172734-4                000019
100003508500756656020520120075665602052012               0000000000000172734-5                000020
100003508600756657020520120075665702052012               0000000000000172734-6                000021
100003508700756658020520120075665802052012               0000000000000172734-7                000022
100003508900756659020520120075665902052012               0000000000000172734-8                000023
100003509300756660020520120075666002052012               0000000000000172734-9                000024
100003509400756661020520120075666102052012               0000000000000172734-10               000025
100003509500756662020520120075666202052012               0000000000000172734-11               000026
100003509600756663020520120075666302052012               0000000000000172734-12               000027
100003510400756664020520120075666402052012               0000000000000172734-13               000028
100003510600756665020520120075666502052012               0000000000000172734-14               000029
9000028                                                                                       000030
