0RETORNONOTIFICAÇÃO ELETRONICA        21102010CONF                                            000001
100002463700404215201020100040421520102010               0000000000000113727-1                000002
100002463900404216201020100040421620102010               0000000000000113727-2                000003
100002465100404217201020100040421720102010               0000000000000113727-3                000004
100002465200404218201020100040421820102010               0000000000000113727-4                000005
100002465300404219201020100040421920102010               0000000000000113727-5                000006
100002465400404220201020100040422020102010               0000000000000113727-8                000007
100002465500404221201020100040422120102010               0000000000000113727-9                000008
100002466100404222201020100040422220102010               0000000000000113727-10               000009
100002466200404223201020100040422320102010               0000000000000113727-11               000010
100002466300404224201020100040422420102010               0000000000000113727-12               000011
100002466800404225201020100040422520102010               0000000000000113727-13               000012
100002467000404226201020100040422620102010               0000000000000113727-14               000013
100002467500404227201020100040422720102010               0000000000000113727-15               000014
9000013                                                                                       000015
