0RETORNONOTIFICAÇÃO ELETRONICA        27092012CONF                                            000001
100003776500833316260920120083331626092012               0000000000000195791-1                000002
100003776600833317260920120083331726092012               0000000000000195791-3                000003
100003776700833318260920120083331826092012               0000000000000195791-4                000004
100003776800833319260920120083331926092012               0000000000000195791-5                000005
100003761400833320260920120083332026092012               0000000000000195796-1                000006
100003761700833321260920120083332126092012               0000000000000195796-2                000007
100003766900833322260920120083332226092012               0000000000000195796-3                000008
100003772400833323260920120083332326092012               0000000000000195796-4                000009
100003772700833324260920120083332426092012               0000000000000195796-5                000010
100003775700833325260920120083332526092012               0000000000000195796-6                000011
100003775800833326260920120083332626092012               0000000000000195796-7                000012
100003778400833327260920120083332726092012               0000000000000195796-8                000013
100003778500833328260920120083332826092012               0000000000000195796-9                000014
100003778600833329260920120083332926092012               0000000000000195796-10               000015
100003778700833330260920120083333026092012               0000000000000195796-11               000016
100003779100833331260920120083333126092012               0000000000000195796-12               000017
100003779700833332260920120083333226092012               0000000000000195796-13               000018
100003779800833333260920120083333326092012               0000000000000195796-14               000019
100003780300833334260920120083333426092012               0000000000000195798-1                000020
100003780400833335260920120083333526092012               0000000000000195798-2                000021
100003780500833336260920120083333626092012               0000000000000195798-10               000022
100003780600833337260920120083333726092012               0000000000000195798-11               000023
100003782900833338260920120083333826092012               0000000000000195798-13               000024
9000023                                                                                       000025
