0RETORNONOTIFICAÇÃO ELETRONICA        23042012CONF                                            000001
100003486700751926200420120075192620042012               0000000000000171500-1                000002
100003486800751927200420120075192720042012               0000000000000171500-3                000003
100003486900751928200420120075192820042012               0000000000000171500-4                000004
100003487000751929200420120075192920042012               0000000000000171500-5                000005
100003487200751930200420120075193020042012               0000000000000171500-6                000006
100003487400751931200420120075193120042012               0000000000000171500-7                000007
100003487600751932200420120075193220042012               0000000000000171500-8                000008
100003488200751933200420120075193320042012               0000000000000171500-9                000009
100003488300751934200420120075193420042012               0000000000000171500-10               000010
9000009                                                                                       000011
