0RETORNONOTIFICAÇÃO ELETRONICA        26022014CONF                                            000001
100004652601148321250220140114832125022014               0000000000000287107-1                000002
100004652701148322250220140114832225022014               0000000000000287107-2                000003
100004653101148323250220140114832325022014               0000000000000287107-3                000004
100004653201148324250220140114832425022014               0000000000000287107-4                000005
9000004                                                                                       000006
