0RETORNONOTIFICAÇÃO ELETRONICA        12062012CONF                                            000001
100003575700777682110620120077768211062012               0000000000000178182-1                000002
100003575800777683110620120077768311062012               0000000000000178182-2                000003
100003575900777684110620120077768411062012               0000000000000178182-4                000004
100003577600777685110620120077768511062012               0000000000000178182-5                000005
100003577700777686110620120077768611062012               0000000000000178182-6                000006
100003577800777687110620120077768711062012               0000000000000178182-7                000007
100003577900777688110620120077768811062012               0000000000000178182-12               000008
100003578000777689110620120077768911062012               0000000000000178182-13               000009
100003578100777690110620120077769011062012               0000000000000178182-16               000010
100003578200777691110620120077769111062012               0000000000000178182-17               000011
100003578300777692110620120077769211062012               0000000000000178182-21               000012
100003578400777693110620120077769311062012               0000000000000178182-24               000013
100003578500777694110620120077769411062012               0000000000000178182-25               000014
100003578600777695110620120077769511062012               0000000000000178182-29               000015
100003578700777696110620120077769611062012               0000000000000178182-31               000016
100003578800777697110620120077769711062012               0000000000000178182-32               000017
100003578900777698110620120077769811062012               0000000000000178182-33               000018
100003579000777699110620120077769911062012               0000000000000178182-36               000019
100003579100777700110620120077770011062012               0000000000000178182-37               000020
9000019                                                                                       000021
