0RETORNONOTIFICAÇÃO ELETRONICA        16012014CONF                                            000001
100004598701117735140120140111773514012014               0000000000000277917-1                000002
100004598301117736140120140111773614012014               0000000000000277917-2                000003
100004598801117737140120140111773714012014               0000000000000277917-3                000004
100004600301117738140120140111773814012014               0000000000000277917-4                000005
100004600501117739140120140111773914012014               0000000000000277917-6                000006
100004600401117740140120140111774014012014               0000000000000277917-8                000007
100004598601117741140120140111774114012014               0000000000000277917-10               000008
100004598501117742140120140111774214012014               0000000000000277917-11               000009
100004598401117743140120140111774314012014               0000000000000277917-12               000010
100004600701117744140120140111774414012014               0000000000000278109-1                000011
100004600801117745140120140111774514012014               0000000000000278109-2                000012
100004601801117746140120140111774614012014               0000000000000278109-3                000013
100004602401117747140120140111774714012014               0000000000000278109-4                000014
100004602301117748140120140111774814012014               0000000000000278109-22               000015
100004602201117749140120140111774914012014               0000000000000278109-39               000016
100004602101117750140120140111775014012014               0000000000000278109-42               000017
100004602001117751140120140111775114012014               0000000000000278109-45               000018
100004601901117752140120140111775214012014               0000000000000278109-55               000019
100004600601117753140120140111775314012014               0000000000000278109-56               000020
100004602701119084150120140111908415012014               0000000000000278404-1                000021
100004602601119085150120140111908515012014               0000000000000278404-2                000022
100004603101119086150120140111908615012014               0000000000000278404-3                000023
100004600101119087150120140111908715012014               0000000000000278404-8                000024
100004597701119088150120140111908815012014               0000000000000278404-9                000025
100004593601119089150120140111908915012014               0000000000000278404-10               000026
100004598001119090150120140111909015012014               0000000000000278404-11               000027
100004603001119091150120140111909115012014               0000000000000278404-12               000028
100004602501119092150120140111909215012014               0000000000000278404-13               000029
100004601401119093150120140111909315012014               0000000000000278404-15               000030
9000029                                                                                       000031
