0RETORNONOTIFICAÇÃO ELETRONICA        21032014CONF                                            000001
100004667101169421130320140116942113032014               0000000000000289206-1                000002
100004667201169422130320140116942213032014FA246126484BR  0000020032014289206-2                000003
100004667301169423130320140116942313032014FA246126498BR  0000018032014289206-4                000004
100004667401169424130320140116942413032014               0000000000000289206-5                000005
100004667501169425130320140116942513032014               0000000000000289206-6                000006
100004671601169426130320140116942613032014               0000000000000289348-1                000007
100004671701169427130320140116942713032014               0000000000000289348-2                000008
100004671801169428130320140116942813032014               0000000000000289348-4                000009
100004670001169429130320140116942913032014FA246126555BR  0000020032014289348-6                000010
100004670101169430130320140116943013032014               0000000000000289348-7                000011
100004670201169431130320140116943113032014               0000000000000289348-11               000012
100004660801171729140320140117172914032014               0000000000000289578-1                000013
100004661201171730140320140117173014032014               0000000000000289578-2                000014
100004664301171731140320140117173114032014               0000000000000289578-3                000015
100004664701171732140320140117173214032014               0000000000000289578-4                000016
100004666301171733140320140117173314032014               0000000000000289578-5                000017
100004666701171734140320140117173414032014               0000000000000289578-6                000018
100004667901171735140320140117173514032014               0000000000000289578-7                000019
100004668701171736140320140117173614032014               0000000000000289578-8                000020
100004669001171737140320140117173714032014               0000000000000289578-9                000021
100004671901171738140320140117173814032014               0000000000000289578-10               000022
100004672001171739140320140117173914032014               0000000000000289578-11               000023
100004672101171740140320140117174014032014               0000000000000289578-12               000024
100004672201171741140320140117174114032014               0000000000000289578-13               000025
100004672301171742140320140117174214032014               0000000000000289578-14               000026
100004672401171743140320140117174314032014               0000000000000289578-15               000027
100004672501171744140320140117174414032014FA246148365BR  0000019032014289578-16               000028
100004674001171745140320140117174514032014               0000000000000289578-17               000029
100004674101172793170320140117279317032014               0000000000000289831-1                000030
100004674201172794170320140117279417032014               0000000000000289831-2                000031
100004674301172795170320140117279517032014               0000000000000289831-3                000032
100004674401172796170320140117279617032014               0000000000000289831-5                000033
100004674501172797170320140117279717032014               0000000000000289831-6                000034
100004674601172798170320140117279817032014               0000000000000289831-7                000035
100004674701172799170320140117279917032014               0000000000000289831-9                000036
100004676301174063180320140117406318032014               0000000000000290179-1                000037
100004676401174064180320140117406418032014               0000000000000290179-2                000038
100004676501174065180320140117406518032014               0000000000000290179-3                000039
100004676601174066180320140117406618032014               0000000000000290179-4                000040
100004676701174067180320140117406718032014               0000000000000290179-5                000041
100004676801174068180320140117406818032014               0000000000000290179-6                000042
100004677701174069180320140117406918032014               0000000000000290179-8                000043
100004677801174070180320140117407018032014               0000000000000290357-1                000044
100004677901174071180320140117407118032014               0000000000000290357-2                000045
100004678001174072180320140117407218032014               0000000000000290357-3                000046
100004678101174073180320140117407318032014               0000000000000290357-4                000047
100004678201174074180320140117407418032014               0000000000000290357-5                000048
100004678301174075180320140117407518032014               0000000000000290357-6                000049
100004678401174076180320140117407618032014               0000000000000290357-7                000050
100004678501174077180320140117407718032014               0000000000000290357-8                000051
100004678601174078180320140117407818032014               0000000000000290357-9                000052
9000051                                                                                       000053
