0RETORNONOTIFICAÇÃO ELETRONICA        14042011CONF                                            000001
100002715200510113140420110051011314042011               0000000000000127826-1                000002
100002715300510114140420110051011414042011               0000000000000127826-2                000003
100002717400510115140420110051011514042011               0000000000000127826-3                000004
100002717800510116140420110051011614042011               0000000000000127826-4                000005
100002717900510117140420110051011714042011               0000000000000127826-6                000006
100002718000510118140420110051011814042011               0000000000000127826-7                000007
100002718100510119140420110051011914042011               0000000000000127826-8                000008
100002718200510120140420110051012014042011               0000000000000127826-9                000009
100002718900510121140420110051012114042011               0000000000000127826-11               000010
100002719700510122140420110051012214042011               0000000000000127826-12               000011
100002719800510123140420110051012314042011               0000000000000127826-13               000012
100002719900510124140420110051012414042011               0000000000000127826-14               000013
100002720100510125140420110051012514042011               0000000000000127826-15               000014
100002720400510126140420110051012614042011               0000000000000127827-1                000015
100002720500510127140420110051012714042011               0000000000000127827-7                000016
100002720600510128140420110051012814042011               0000000000000127827-10               000017
9000016                                                                                       000018
