0RETORNONOTIFICAÇÃO ELETRONICA        08032010CONF                                            000001
100002059000249824020320100024982402032010               000000000000087366-1                 000002
100002059100249825020320100024982502032010               000000000000087366-2                 000003
100002059200249826020320100024982602032010               000000000000087366-3                 000004
100002060500249827020320100024982702032010               000000000000087366-4                 000005
100002060800249828020320100024982802032010               000000000000087366-5                 000006
100002060900249829020320100024982902032010               000000000000087366-6                 000007
100002061000249830020320100024983002032010               000000000000087366-7                 000008
100002061100249831020320100024983102032010               000000000000087366-8                 000009
100002061300249832020320100024983202032010               000000000000087366-9                 000010
100002063500249833020320100024983302032010               000000000000087368-1                 000011
100002063600249834020320100024983402032010               000000000000087368-2                 000012
100002062100249835020320100024983502032010               000000000000087369-1                 000013
100002062200249836020320100024983602032010               000000000000087369-2                 000014
100002063100249837020320100024983702032010               000000000000087369-3                 000015
100002064800249838020320100024983802032010               000000000000087369-4                 000016
100002064900249839020320100024983902032010               000000000000087369-5                 000017
100002065400249840020320100024984002032010               000000000000087369-6                 000018
100002066200249841020320100024984102032010               000000000000087369-7                 000019
100002067200249842020320100024984202032010               000000000000087369-8                 000020
100002067300249843020320100024984302032010               000000000000087369-9                 000021
100002067400249844020320100024984402032010               000000000000087369-10                000022
100002067500249845020320100024984502032010               000000000000087369-11                000023
100002067600249846020320100024984602032010               000000000000087369-12                000024
100002067700249847020320100024984702032010               000000000000087369-13                000025
100002067800249848020320100024984802032010               000000000000087369-14                000026
100002067900249849020320100024984902032010               000000000000087369-15                000027
100002067900250391030320100025039103032010               000000000000087369-16                000028
100002068000249850020320100024985002032010               000000000000087369-17                000029
100002068100249851020320100024985102032010               000000000000087369-18                000030
100002068100250392030320100025039203032010               000000000000087369-19                000031
100002069100249852020320100024985202032010               000000000000087369-20                000032
100002070300249853020320100024985302032010               000000000000087369-21                000033
100002071100249854020320100024985402032010               000000000000087369-22                000034
9000033                                                                                       000035
