0RETORNONOTIFICAÇÃO ELETRONICA        26082013CONF                                            000001
100004368301018845230820130101884523082013               0000000000000253296-1                000002
100004368201018846230820130101884623082013               0000000000000253296-2                000003
100004367801018847230820130101884723082013               0000000000000253296-4                000004
100004368001018848230820130101884823082013               0000000000000253296-5                000005
100004368101018849230820130101884923082013               0000000000000253296-6                000006
100004367901018850230820130101885023082013               0000000000000253296-7                000007
9000006                                                                                       000008
