0RETORNONOTIFICAÇÃO ELETRONICA        30072014CONF                                            000001
100004857801286218290720140128621829072014               0000000000000312476-1                000002
100004857901286219290720140128621929072014               0000000000000312476-2                000003
100004858001286220290720140128622029072014               0000000000000312476-3                000004
100004858101286221290720140128622129072014               0000000000000312476-4                000005
100004858201286222290720140128622229072014               0000000000000312476-5                000006
100004858301286223290720140128622329072014               0000000000000312476-6                000007
100004858401286224290720140128622429072014               0000000000000312476-7                000008
100004859001286225290720140128622529072014               0000000000000312476-8                000009
100004861001286226290720140128622629072014               0000000000000312999-1                000010
100004861101286227290720140128622729072014               0000000000000312999-2                000011
100004861201286228290720140128622829072014               0000000000000312999-3                000012
100004861301286229290720140128622929072014               0000000000000312999-4                000013
100004861401286230290720140128623029072014               0000000000000312999-5                000014
100004861701286231290720140128623129072014               0000000000000312999-6                000015
9000014                                                                                       000016
