0RETORNONOTIFICAÇÃO ELETRONICA        23022011CONF                                            000001
100002641700478953230220110047895323022011               0000000000000123086-1                000002
100002641800478954230220110047895423022011               0000000000000123086-3                000003
100002641900478955230220110047895523022011               0000000000000123086-5                000004
9000003                                                                                       000005
