0RETORNONOTIFICAÇÃO ELETRONICA        16122011CONF                                            000001
100003247100689724151220110068972415122011               0000000000000155313-1                000002
100003247200689725151220110068972515122011               0000000000000155313-2                000003
100003247300689726151220110068972615122011               0000000000000155313-3                000004
100003247400689727151220110068972715122011               0000000000000155313-6                000005
100003247500689728151220110068972815122011               0000000000000155313-7                000006
100003247600689729151220110068972915122011               0000000000000155313-8                000007
100003247700689730151220110068973015122011               0000000000000155313-11               000008
100003249100689731151220110068973115122011               0000000000000155313-13               000009
100003249200689732151220110068973215122011               0000000000000155612-1                000010
100003251200689733151220110068973315122011               0000000000000155615-1                000011
100003251300689734151220110068973415122011               0000000000000155615-2                000012
100003252900689735151220110068973515122011               0000000000000155615-3                000013
100003253000689736151220110068973615122011               0000000000000155615-4                000014
9000013                                                                                       000015
