0RETORNONOTIFICAÇÃO ELETRONICA        09112010CONF                                            000001
100002488500425070081120100042507008112010               0000000000000114970-1                000002
100002488600425071081120100042507108112010               0000000000000114970-2                000003
100002488700425072081120100042507208112010               0000000000000114970-3                000004
100002488800425073081120100042507308112010               0000000000000114970-5                000005
9000004                                                                                       000006
