0RETORNONOTIFICAÇÃO ELETRONICA        11072014CONF                                            000001
100004831101264178030720140126417803072014               0000000000000308514-1                000002
100004831201264179030720140126417903072014               0000000000000308514-2                000003
100004831301264180030720140126418003072014               0000000000000308514-3                000004
100004831401264181030720140126418103072014FA283149997BR  0000010072014308514-4                000005
100004831501264182030720140126418203072014FA283150006BR  0000010072014308514-5                000006
100004831701266800070720140126680007072014               0000000000000308943-1                000007
100004832801266801070720140126680107072014               0000000000000308943-2                000008
100004832901266802070720140126680207072014               0000000000000308943-3                000009
100004833001266803070720140126680307072014               0000000000000308943-4                000010
100004833401266804070720140126680407072014               0000000000000308943-5                000011
100004833501266805070720140126680507072014               0000000000000308943-6                000012
100004833601266806070720140126680607072014               0000000000000308943-7                000013
100004833701266807070720140126680707072014               0000000000000308943-8                000014
100004833801266808070720140126680807072014               0000000000000308943-9                000015
100004833901266809070720140126680907072014               0000000000000308943-11               000016
100004834201266810070720140126681007072014               0000000000000308943-14               000017
100004834301266811070720140126681107072014               0000000000000308943-15               000018
100004834401266812070720140126681207072014               0000000000000308943-16               000019
100004834601266813070720140126681307072014               0000000000000308943-17               000020
100004834801266814070720140126681407072014               0000000000000308943-18               000021
100004834901266815070720140126681507072014               0000000000000308945-1                000022
100004835001266816070720140126681607072014               0000000000000308945-2                000023
100004835101266817070720140126681707072014               0000000000000308945-3                000024
100004835201266818070720140126681807072014               0000000000000308945-4                000025
100004835301266819070720140126681907072014               0000000000000308945-5                000026
100004835501266820070720140126682007072014               0000000000000308945-6                000027
100004836101266821070720140126682107072014               0000000000000308945-7                000028
100004836301266822070720140126682207072014               0000000000000309121-1                000029
100004836401266823070720140126682307072014               0000000000000309121-2                000030
100004836501266824070720140126682407072014               0000000000000309121-3                000031
100004836601266825070720140126682507072014               0000000000000309121-4                000032
100004837901266826070720140126682607072014               0000000000000309121-5                000033
100004838601266827070720140126682707072014               0000000000000309121-6                000034
100004838401269561100720140126956110072014               0000000000000309381-1                000035
100004838701269562100720140126956210072014               0000000000000309381-2                000036
100004838801269563100720140126956310072014               0000000000000309381-3                000037
100004838901269564100720140126956410072014               0000000000000309381-4                000038
100004839001269565100720140126956510072014               0000000000000309381-5                000039
100004839201269566100720140126956610072014               0000000000000309626-1                000040
100004839401269567100720140126956710072014               0000000000000309626-2                000041
100004839601269568100720140126956810072014               0000000000000309626-3                000042
100004839701269569100720140126956910072014               0000000000000309626-4                000043
100004839801269570100720140126957010072014               0000000000000309626-5                000044
100004839901269571100720140126957110072014               0000000000000309626-7                000045
100004840001269572100720140126957210072014               0000000000000309626-10               000046
100004841001269573100720140126957310072014               0000000000000309626-11               000047
100004841101269574100720140126957410072014               0000000000000309626-12               000048
100004841501269575100720140126957510072014               0000000000000309626-13               000049
100004841601269576100720140126957610072014               0000000000000309626-14               000050
100004841901269577100720140126957710072014               0000000000000309627-1                000051
100004842001269578100720140126957810072014               0000000000000309627-2                000052
100004842101269579100720140126957910072014               0000000000000309627-3                000053
100004842201269580100720140126958010072014               0000000000000309627-4                000054
100004842301269581100720140126958110072014               0000000000000309627-5                000055
9000054                                                                                       000056
