0RETORNONOTIFICAÇÃO ELETRONICA        14022011CONF                                            000001
100002615200473855110220110047385511022011               0000000000000122115-1                000002
100002617600473856110220110047385611022011               0000000000000122115-2                000003
100002619500473857110220110047385711022011               0000000000000122115-3                000004
100002624300473858110220110047385811022011               0000000000000122115-4                000005
100002624400473859110220110047385911022011               0000000000000122115-5                000006
100002624500473860110220110047386011022011               0000000000000122115-6                000007
100002624600473861110220110047386111022011               0000000000000122115-7                000008
100002624700473862110220110047386211022011               0000000000000122115-8                000009
9000008                                                                                       000010
