0RETORNONOTIFICAÇÃO ELETRONICA        17072012CONF                                            000001
100003627100795154160720120079515416072012               0000000000000183557-1                000002
100003629500795155160720120079515516072012               0000000000000183557-2                000003
100003630100795156160720120079515616072012               0000000000000183557-3                000004
100003630200795157160720120079515716072012               0000000000000183557-4                000005
100003631300795158160720120079515816072012               0000000000000183557-5                000006
100003632200795159160720120079515916072012               0000000000000183558-1                000007
100003632300795160160720120079516016072012               0000000000000183558-2                000008
100003632400795161160720120079516116072012               0000000000000183558-3                000009
100003632500795162160720120079516216072012               0000000000000183558-4                000010
100003632600795163160720120079516316072012               0000000000000183558-5                000011
100003632700795164160720120079516416072012               0000000000000183558-7                000012
100003632800795165160720120079516516072012               0000000000000183558-8                000013
100003634100795166160720120079516616072012               0000000000000183559-1                000014
100003634200795167160720120079516716072012               0000000000000183559-2                000015
100003634300795168160720120079516816072012               0000000000000183559-3                000016
100003634400795169160720120079516916072012               0000000000000183559-5                000017
100003634500795170160720120079517016072012               0000000000000183559-6                000018
100003634600795171160720120079517116072012               0000000000000183559-7                000019
100003635900795172160720120079517216072012               0000000000000183562-1                000020
100003636000795173160720120079517316072012               0000000000000183562-4                000021
100003636100795174160720120079517416072012               0000000000000183562-5                000022
100003636200795175160720120079517516072012               0000000000000183562-6                000023
100003639700795176160720120079517616072012               0000000000000183562-7                000024
100003640900795177160720120079517716072012               0000000000000183562-8                000025
100003641900795178160720120079517816072012               0000000000000183562-9                000026
100003642000795179160720120079517916072012               0000000000000183562-10               000027
100003644600795180160720120079518016072012               0000000000000183567-1                000028
9000027                                                                                       000029
