0RETORNONOTIFICAÇÃO ELETRONICA        27062011CONF                                            000001
100002818600558731210620110055873121062011               0000000000000134459-1                000002
100002820500558732210620110055873221062011               0000000000000134459-2                000003
100002820600558733210620110055873321062011               0000000000000134459-5                000004
100002820700558734210620110055873421062011               0000000000000134459-6                000005
100002820800558735210620110055873521062011               0000000000000134459-10               000006
100002820900558736210620110055873621062011               0000000000000134459-11               000007
100002821100558737210620110055873721062011               0000000000000134459-13               000008
100002821400558738210620110055873821062011               0000000000000134459-14               000009
100002821600558739210620110055873921062011               0000000000000134459-15               000010
100002821900558740210620110055874021062011               0000000000000134459-16               000011
100002814000558741210620110055874121062011               0000000000000134461-1                000012
100002822200558742210620110055874221062011               0000000000000134461-2                000013
100002822300558743210620110055874321062011               0000000000000134461-3                000014
100002822400558744210620110055874421062011               0000000000000134461-4                000015
100002822500558745210620110055874521062011               0000000000000134461-5                000016
100002822600558746210620110055874621062011               0000000000000134461-6                000017
100002822700558747210620110055874721062011               0000000000000134461-7                000018
100002825200558748210620110055874821062011               0000000000000134461-8                000019
100002825300558749210620110055874921062011               0000000000000134461-11               000020
100002825400558750210620110055875021062011               0000000000000134461-15               000021
100002825500558751210620110055875121062011               0000000000000134461-21               000022
100002825600558752210620110055875221062011               0000000000000134461-31               000023
100002825700558753210620110055875321062011               0000000000000134461-37               000024
100002826000558754210620110055875421062011               0000000000000134461-41               000025
9000024                                                                                       000026
