0RETORNONOTIFICAÇÃO ELETRONICA        14052014CONF                                            000001
100004731501209413300420140120941330042014FA271070742BR  0000007052014297921-1                000002
100004731601209414300420140120941430042014FA271070756BR  0000008052014297921-3                000003
100004731701209415300420140120941530042014FA271070760BR  0000008052014297921-4                000004
100004734001209416300420140120941630042014FA271070773BR  0000008052014297921-16               000005
100004734101209417300420140120941730042014FA271070787BR  0000008052014297921-18               000006
100004734201209418300420140120941830042014FA271070795BR  0000807052014297972-1                000007
100004734301209419300420140120941930042014FA271070800BR  0000007052014297972-2                000008
100004734401209420300420140120942030042014FA271070813BR  0000008052014297972-3                000009
100004734501209421300420140120942130042014FA271070827BR  0000008052014297972-4                000010
100004734601209422300420140120942230042014               0000000000000297972-6                000011
100004734701209423300420140120942330042014FA271070844BR  0000008052014297972-7                000012
100004734801209424300420140120942430042014FA271070858BR  0000008052014297972-8                000013
100004734901209425300420140120942530042014               0000000000000297972-9                000014
100004735001209426300420140120942630042014FA271070875BR  0000005052014297972-10               000015
100004735101209427300420140120942730042014FA271070889BR  0000008052014297972-11               000016
100004736201209428300420140120942830042014FA271070892BR  0000005052014297972-13               000017
100004736301209429300420140120942930042014FA271070901BR  0000012052014297972-14               000018
100004736401209430300420140120943030042014FA271070915BR  0000006052014297972-15               000019
100004736501209431300420140120943130042014FA271070929BR  0000008052014297972-16               000020
100004736601209432300420140120943230042014               0000000000000297972-20               000021
100004736701209433300420140120943330042014               0000000000000297972-22               000022
100004736801209434300420140120943430042014FA271070950BR  0000008052014297972-23               000023
100004736901209435300420140120943530042014               0000000000000297972-42               000024
100004737001209436300420140120943630042014FA271070977BR  0000012052014297972-44               000025
100004737101209437300420140120943730042014FA271070985BR  0000012052014297972-45               000026
100004732501217900070520140121790007052014               0000000000000298307-1                000027
100004737201217901070520140121790107052014               0000000000000298307-2                000028
100004737301217902070520140121790207052014               0000000000000298307-3                000029
100004737401217903070520140121790307052014FA271144842BR  0000013052014298307-4                000030
100004737501217904070520140121790407052014               0000000000000298307-5                000031
100004707801217905070520140121790507052014FA271144860BR  0000013052014298677-1                000032
100004714301217906070520140121790607052014FA271144873BR  0000012052014298677-2                000033
100004717101217907070520140121790707052014               0000000000000298677-3                000034
100004717901217908070520140121790807052014               0000000000000298677-4                000035
100004718001217909070520140121790907052014               0000000000000298677-5                000036
100004723901217910070520140121791007052014               0000000000000298677-6                000037
100004728101217911070520140121791107052014               0000000000000298677-7                000038
100004728601217912070520140121791207052014               0000000000000298677-8                000039
100004728701217913070520140121791307052014FA271144944BR  0000012052014298677-9                000040
100004731201217914070520140121791407052014               0000000000000298677-10               000041
100004731801217915070520140121791507052014               0000000000000298677-11               000042
100004731901217916070520140121791607052014               0000000000000298677-12               000043
100004732001217917070520140121791707052014               0000000000000298677-13               000044
100004732101217918070520140121791807052014               0000000000000298677-14               000045
100004732401217919070520140121791907052014               0000000000000298677-15               000046
100004732701217920070520140121792007052014FA271145012BR  0000013052014298677-16               000047
100004738301217921070520140121792107052014FA271145026BR  0000013052014298677-17               000048
100004738401217922070520140121792207052014FA271145030BR  0000013052014298677-18               000049
100004738501217923070520140121792307052014               0000000000000298677-19               000050
100004738601217924070520140121792407052014FA271145057BR  0000013052014298677-20               000051
100004738701217925070520140121792507052014FA271145065BR  0000013052014298677-21               000052
100004739201217926070520140121792607052014FA271145074BR  0000013052014298677-22               000053
100004740001217927070520140121792707052014               0000000000000298771-1                000054
100004740101217928070520140121792807052014               0000000000000298771-2                000055
100004740201217929070520140121792907052014               0000000000000298771-5                000056
100004741201219165090520140121916509052014               0000000000000299091-1                000057
100004741401219166090520140121916609052014               0000000000000299091-2                000058
100004741501219167090520140121916709052014               0000000000000299091-3                000059
100004741601219168090520140121916809052014               0000000000000299091-4                000060
100004741701219169090520140121916909052014               0000000000000299091-5                000061
100004741801219170090520140121917009052014               0000000000000299091-6                000062
100004741901219171090520140121917109052014               0000000000000299091-7                000063
100004742001219172090520140121917209052014               0000000000000299091-9                000064
100004742601219173090520140121917309052014               0000000000000299342-1                000065
100004742701219174090520140121917409052014               0000000000000299342-2                000066
100004742801219175090520140121917509052014               0000000000000299342-4                000067
100004744801219176090520140121917609052014               0000000000000299342-5                000068
100004742201219274090520140121927409052014               0000000000000299517-1                000069
100004742401219275090520140121927509052014               0000000000000299517-2                000070
100004742501219276090520140121927609052014               0000000000000299517-3                000071
100004743401219277090520140121927709052014               0000000000000299517-4                000072
100004743501219278090520140121927809052014               0000000000000299517-5                000073
100004743601219279090520140121927909052014               0000000000000299517-6                000074
100004743701219280090520140121928009052014               0000000000000299517-7                000075
100004743801219281090520140121928109052014               0000000000000299517-8                000076
100004744001219282090520140121928209052014               0000000000000299517-9                000077
100004744101219283090520140121928309052014               0000000000000299517-10               000078
100004744901219284090520140121928409052014               0000000000000299517-11               000079
100004745001219285090520140121928509052014               0000000000000299517-12               000080
100004746601221138130520140122113813052014               0000000000000299857-1                000081
100004746701221139130520140122113913052014               0000000000000299857-2                000082
100004746801221140130520140122114013052014               0000000000000299857-3                000083
100004746901221141130520140122114113052014               0000000000000299857-4                000084
100004747001221142130520140122114213052014               0000000000000299857-5                000085
100004747101221143130520140122114313052014               0000000000000299857-6                000086
100004747201221144130520140122114413052014               0000000000000299857-7                000087
100004747301221145130520140122114513052014               0000000000000299857-8                000088
100004747401221146130520140122114613052014               0000000000000299857-9                000089
100004747501221147130520140122114713052014               0000000000000299857-10               000090
100004749701221148130520140122114813052014               0000000000000299857-11               000091
100004749801221149130520140122114913052014               0000000000000299857-13               000092
100004749901221150130520140122115013052014               0000000000000299857-21               000093
100004750001221151130520140122115113052014               0000000000000299857-22               000094
9000093                                                                                       000095
