0RETORNONOTIFICAÇÃO ELETRONICA        12122011CONF                                            000001
100003232300685138061220110068513806122011               0000000000000154511-16               000002
100003232400685139061220110068513906122011               0000000000000154511-26               000003
100003232500685140061220110068514006122011               0000000000000154511-34               000004
100003232600685141061220110068514106122011               0000000000000154511-46               000005
100003232700685142061220110068514206122011               0000000000000154511-58               000006
100003232800685143061220110068514306122011               0000000000000154511-84               000007
100003039500685145061220110068514506122011               0000000000000154524-1                000008
100003039600685146061220110068514606122011               0000000000000154524-2                000009
100003039700685147061220110068514706122011               0000000000000154524-3                000010
100003039800685148061220110068514806122011               0000000000000154524-4                000011
100003039900685149061220110068514906122011               0000000000000154524-5                000012
100003040000685150061220110068515006122011               0000000000000154524-6                000013
100003040100685151061220110068515106122011               0000000000000154524-7                000014
100003040200685152061220110068515206122011               0000000000000154524-8                000015
100003040300685153061220110068515306122011               0000000000000154524-9                000016
100003233000685154061220110068515406122011               0000000000000154524-10               000017
100003233100685155061220110068515506122011               0000000000000154524-11               000018
100003233200685156061220110068515606122011               0000000000000154524-12               000019
100003234700685157061220110068515706122011               0000000000000154524-13               000020
100003193300685158061220110068515806122011               0000000000000154529-1                000021
100003234800685159061220110068515906122011               0000000000000154529-2                000022
100003234900685160061220110068516006122011               0000000000000154529-3                000023
100003235000685161061220110068516106122011               0000000000000154529-4                000024
100003235100685162061220110068516206122011               0000000000000154529-6                000025
100003238700685163061220110068516306122011               0000000000000154529-7                000026
100003238800685164061220110068516406122011               0000000000000154529-8                000027
100003238900685165061220110068516506122011               0000000000000154529-10               000028
100003239000685166061220110068516606122011               0000000000000154529-12               000029
100003239100685167061220110068516706122011               0000000000000154529-13               000030
100003242000686414091220110068641409122011               0000000000000154923-1                000031
100003242100686415091220110068641509122011               0000000000000154923-2                000032
100003242200686416091220110068641609122011               0000000000000154923-3                000033
100003242300686417091220110068641709122011               0000000000000154923-8                000034
100003242400686418091220110068641809122011               0000000000000154923-9                000035
100003242500686419091220110068641909122011               0000000000000154923-10               000036
100003242600686420091220110068642009122011               0000000000000154923-16               000037
100003244800686421091220110068642109122011               0000000000000154923-17               000038
100003244900686422091220110068642209122011               0000000000000154923-18               000039
100003245000686423091220110068642309122011               0000000000000154923-19               000040
100003245100686424091220110068642409122011               0000000000000154923-20               000041
100003245200686425091220110068642509122011               0000000000000154923-21               000042
100003245300686426091220110068642609122011               0000000000000154923-22               000043
9000042                                                                                       000044
