0RETORNONOTIFICAÇÃO ELETRONICA        01102013CONF                                            000001
100004433401042930270920130104293027092013               0000000000000259606-1                000002
100004433501042931270920130104293127092013               0000000000000259606-3                000003
100004433201042932270920130104293227092013               0000000000000259606-4                000004
100004433301042933270920130104293327092013               0000000000000259606-5                000005
100004433101042934270920130104293427092013               0000000000000259606-6                000006
100004436201043127270920130104312727092013               0000000000000259845-1                000007
100004435801043128270920130104312827092013               0000000000000259845-2                000008
100004435901043129270920130104312927092013               0000000000000259845-4                000009
100004436101043130270920130104313027092013               0000000000000259845-5                000010
100004436301043131270920130104313127092013               0000000000000259845-6                000011
100004436001043132270920130104313227092013               0000000000000259845-7                000012
100004435601043133270920130104313327092013               0000000000000259845-8                000013
100004435701043134270920130104313427092013               0000000000000259845-9                000014
9000013                                                                                       000015
