0RETORNONOTIFICAÇÃO ELETRONICA        13012012CONF                                            000001
100003221800703342110120120070334211012012               0000000000000157995-1                000002
100003222000703343110120120070334311012012               0000000000000157995-2                000003
100003224700703344110120120070334411012012               0000000000000157995-3                000004
100003224800703345110120120070334511012012               0000000000000157995-4                000005
100003225600703346110120120070334611012012               0000000000000157995-5                000006
100003228600703347110120120070334711012012               0000000000000157995-6                000007
100003228700703348110120120070334811012012               0000000000000157995-7                000008
100003228800703349110120120070334911012012               0000000000000157995-8                000009
100003229100703350110120120070335011012012               0000000000000157995-9                000010
100003229500703351110120120070335111012012               0000000000000157995-10               000011
100003229900703352110120120070335211012012               0000000000000157995-11               000012
100003230000703353110120120070335311012012               0000000000000157995-12               000013
100003230100703354110120120070335411012012               0000000000000157995-13               000014
100003230500703355110120120070335511012012               0000000000000157995-14               000015
100003230700703356110120120070335611012012               0000000000000157995-15               000016
100003230800703357110120120070335711012012               0000000000000157995-16               000017
100003230900703358110120120070335811012012               0000000000000157995-17               000018
100003231000703359110120120070335911012012               0000000000000157995-18               000019
100003231100703360110120120070336011012012               0000000000000157995-19               000020
100003231300703361110120120070336111012012               0000000000000157995-20               000021
100003313200703362110120120070336211012012               0000000000000157995-21               000022
100003313300703363110120120070336311012012               0000000000000157995-22               000023
100003313400703364110120120070336411012012               0000000000000157995-23               000024
100003313500703365110120120070336511012012               0000000000000157995-24               000025
100003313600703366110120120070336611012012               0000000000000157995-25               000026
100003313700703367110120120070336711012012               0000000000000157995-26               000027
100003313800703368110120120070336811012012               0000000000000157995-27               000028
100003314400703369110120120070336911012012               0000000000000157998-1                000029
100003314500703370110120120070337011012012               0000000000000157998-2                000030
100003314600703371110120120070337111012012               0000000000000157998-3                000031
100003314700703372110120120070337211012012               0000000000000157998-4                000032
100003314800703373110120120070337311012012               0000000000000157998-5                000033
100003314900703374110120120070337411012012               0000000000000157998-6                000034
100003315000703375110120120070337511012012               0000000000000157998-8                000035
100003315100703376110120120070337611012012               0000000000000157998-9                000036
100003231800703377110120120070337711012012               0000000000000158007-1                000037
100003231900703378110120120070337811012012               0000000000000158007-2                000038
100003234400703379110120120070337911012012               0000000000000158007-3                000039
100003234500703380110120120070338011012012               0000000000000158007-4                000040
100003234600703381110120120070338111012012               0000000000000158007-5                000041
100003235300703382110120120070338211012012               0000000000000158007-6                000042
100003235400703383110120120070338311012012               0000000000000158007-7                000043
100003235500703384110120120070338411012012               0000000000000158007-8                000044
100003235600703385110120120070338511012012               0000000000000158007-9                000045
100003235700703386110120120070338611012012               0000000000000158007-10               000046
100003235800703387110120120070338711012012               0000000000000158007-11               000047
100003235900703388110120120070338811012012               0000000000000158007-12               000048
100003236000703389110120120070338911012012               0000000000000158007-13               000049
100003236100703390110120120070339011012012               0000000000000158007-14               000050
100003236200703391110120120070339111012012               0000000000000158007-15               000051
100003236300703392110120120070339211012012               0000000000000158007-16               000052
100003236400703393110120120070339311012012               0000000000000158007-17               000053
100003236500703394110120120070339411012012               0000000000000158007-18               000054
100003236600703395110120120070339511012012               0000000000000158007-19               000055
100003237900703396110120120070339611012012               0000000000000158007-20               000056
100003241200703397110120120070339711012012               0000000000000158007-21               000057
100003246800703398110120120070339811012012               0000000000000158007-22               000058
100003315900703399110120120070339911012012               0000000000000158007-23               000059
100003316000703400110120120070340011012012               0000000000000158007-26               000060
100003316100703401110120120070340111012012               0000000000000158007-28               000061
100003316200703402110120120070340211012012               0000000000000158007-29               000062
100003316300703403110120120070340311012012               0000000000000158007-30               000063
100003316400703404110120120070340411012012               0000000000000158007-31               000064
100003316500703405110120120070340511012012               0000000000000158007-32               000065
100003316600703406110120120070340611012012               0000000000000158007-35               000066
100003317600703407110120120070340711012012               0000000000000158007-39               000067
100003317700703408110120120070340811012012               0000000000000158007-40               000068
100003317800703409110120120070340911012012               0000000000000158009-1                000069
100003317900703410110120120070341011012012               0000000000000158009-2                000070
100003323200704111120120120070411112012012               0000000000000158228-1                000071
100003323300704112120120120070411212012012               0000000000000158228-7                000072
100003323400704113120120120070411312012012               0000000000000158228-8                000073
100003323500704114120120120070411412012012               0000000000000158228-10               000074
100003323600704115120120120070411512012012               0000000000000158228-12               000075
100003323700704116120120120070411612012012               0000000000000158228-16               000076
100003323800704117120120120070411712012012               0000000000000158228-20               000077
100003323900704118120120120070411812012012               0000000000000158407-1                000078
100003324000704119120120120070411912012012               0000000000000158407-7                000079
100003324100704120120120120070412012012012               0000000000000158407-8                000080
9000079                                                                                       000081
