0RETORNONOTIFICAÇÃO ELETRONICA        11062012CONF                                            000001
100003564700776704080620120077670408062012               0000000000000178039-1                000002
100003565800776705080620120077670508062012               0000000000000178039-2                000003
100003566500776706080620120077670608062012               0000000000000178039-3                000004
100003567400776707080620120077670708062012               0000000000000178039-4                000005
100003567500776708080620120077670808062012               0000000000000178039-5                000006
100003567600776709080620120077670908062012               0000000000000178039-8                000007
100003567700776710080620120077671008062012               0000000000000178039-12               000008
100003567800776711080620120077671108062012               0000000000000178039-15               000009
100003567900776712080620120077671208062012               0000000000000178039-17               000010
100003568000776713080620120077671308062012               0000000000000178039-20               000011
100003568100776714080620120077671408062012               0000000000000178039-35               000012
100003568200776715080620120077671508062012               0000000000000178039-39               000013
100003568300776716080620120077671608062012               0000000000000178039-40               000014
100003568400776717080620120077671708062012               0000000000000178039-44               000015
100003568500776718080620120077671808062012               0000000000000178039-45               000016
100003568600776719080620120077671908062012               0000000000000178039-47               000017
100003568700776720080620120077672008062012               0000000000000178039-49               000018
100003568800776721080620120077672108062012               0000000000000178039-54               000019
100003568900776722080620120077672208062012               0000000000000178039-55               000020
100003569000776723080620120077672308062012               0000000000000178039-60               000021
100003569100776724080620120077672408062012               0000000000000178039-61               000022
100003569200776725080620120077672508062012               0000000000000178039-66               000023
100003569300776726080620120077672608062012               0000000000000178039-69               000024
100003569400776727080620120077672708062012               0000000000000178039-77               000025
100003569500776728080620120077672808062012               0000000000000178039-79               000026
100003569600776729080620120077672908062012               0000000000000178039-85               000027
100003569700776730080620120077673008062012               0000000000000178039-92               000028
100003569800776731080620120077673108062012               0000000000000178039-94               000029
100003569900776732080620120077673208062012               0000000000000178039-96               000030
100003570000776733080620120077673308062012               0000000000000178041-1                000031
100003570100776734080620120077673408062012               0000000000000178041-2                000032
100003570200776735080620120077673508062012               0000000000000178041-3                000033
100003570300776736080620120077673608062012               0000000000000178041-4                000034
100003570400776737080620120077673708062012               0000000000000178041-5                000035
100003570500776738080620120077673808062012               0000000000000178041-6                000036
100003570700776739080620120077673908062012               0000000000000178041-7                000037
100003570800776740080620120077674008062012               0000000000000178041-8                000038
100003570900776741080620120077674108062012               0000000000000178041-9                000039
100003571000776742080620120077674208062012               0000000000000178041-10               000040
100003571100776743080620120077674308062012               0000000000000178041-11               000041
100003571800776744080620120077674408062012               0000000000000178041-12               000042
100003572200776745080620120077674508062012               0000000000000178041-13               000043
100003572300776746080620120077674608062012               0000000000000178041-14               000044
100003572400776747080620120077674708062012               0000000000000178041-15               000045
100003573900776748080620120077674808062012               0000000000000178042-1                000046
100003574000776749080620120077674908062012               0000000000000178042-2                000047
100003574100776750080620120077675008062012               0000000000000178042-3                000048
100003574200776751080620120077675108062012               0000000000000178042-4                000049
100003574300776752080620120077675208062012               0000000000000178042-5                000050
100003575000776753080620120077675308062012               0000000000000178042-6                000051
100003575100776754080620120077675408062012               0000000000000178042-7                000052
100003575400776755080620120077675508062012               0000000000000178042-8                000053
100003575500776756080620120077675608062012               0000000000000178042-9                000054
100003575600776757080620120077675708062012               0000000000000178042-10               000055
9000054                                                                                       000056
