0RETORNONOTIFICAÇÃO ELETRONICA        07102011CONF                                            000001
100003099000640802061020110064080206102011               0000000000000147228-1                000002
100003100500640803061020110064080306102011               0000000000000147228-2                000003
100003100600640804061020110064080406102011               0000000000000147228-3                000004
100003100700640805061020110064080506102011               0000000000000147228-4                000005
100003100800640806061020110064080606102011               0000000000000147228-5                000006
100003104500640807061020110064080706102011               0000000000000147228-6                000007
100003104600640808061020110064080806102011               0000000000000147228-7                000008
100003111100640809061020110064080906102011               0000000000000147228-8                000009
100003111200640810061020110064081006102011               0000000000000147228-12               000010
100003111300640811061020110064081106102011               0000000000000147228-14               000011
100003111400640812061020110064081206102011               0000000000000147228-15               000012
100003111500640813061020110064081306102011               0000000000000147228-17               000013
100003111600640814061020110064081406102011               0000000000000147228-18               000014
100003112100640815061020110064081506102011               0000000000000147228-19               000015
9000014                                                                                       000016
