0RETORNONOTIFICAÇÃO ELETRONICA        27072010CONF                                            000001
100002335500308858260720100030885826072010               0000000000000106555-1                000002
100002337700308859260720100030885926072010               0000000000000106702-1                000003
100002337800308860260720100030886026072010               0000000000000106702-2                000004
100002337900308861260720100030886126072010               0000000000000106702-3                000005
100002338000308862260720100030886226072010               0000000000000106702-4                000006
9000005                                                                                       000007
