0RETORNONOTIFICAÇÃO ELETRONICA        28062013CONF                                            000001
100004261800981353270620130098135327062013               0000000000000243348-1                000002
100004261600981354270620130098135427062013               0000000000000243348-2                000003
100004262900981355270620130098135527062013               0000000000000243348-3                000004
100004261700981356270620130098135627062013               0000000000000243348-4                000005
100004263100981357270620130098135727062013               0000000000000243348-5                000006
100004263400981358270620130098135827062013               0000000000000243348-6                000007
100004263300981359270620130098135927062013               0000000000000243348-7                000008
100004263200981360270620130098136027062013               0000000000000243348-8                000009
100004263900981361270620130098136127062013               0000000000000243349-1                000010
100004264000981362270620130098136227062013               0000000000000243349-2                000011
100004265700981363270620130098136327062013               0000000000000243350-1                000012
100004266000981364270620130098136427062013               0000000000000243350-3                000013
100004265900981365270620130098136527062013               0000000000000243350-4                000014
100004265800981366270620130098136627062013               0000000000000243350-6                000015
100004265600981367270620130098136727062013               0000000000000243350-8                000016
100004265500981368270620130098136827062013               0000000000000243350-10               000017
100004264300981369270620130098136927062013               0000000000000243350-11               000018
100004268000981370270620130098137027062013               0000000000000243351-1                000019
100004268100981371270620130098137127062013               0000000000000243351-3                000020
100004267900981372270620130098137227062013               0000000000000243351-4                000021
100004270000981373270620130098137327062013               0000000000000243352-1                000022
100004270200981374270620130098137427062013               0000000000000243352-2                000023
100004270300981375270620130098137527062013               0000000000000243352-3                000024
100004270100981376270620130098137627062013               0000000000000243352-4                000025
9000024                                                                                       000026
