0RETORNONOTIFICAÇÃO ELETRONICA        03102012CONF                                            000001
100003789000834959011020120083495901102012               0000000000000196609-1                000002
100003789100834960011020120083496001102012               0000000000000196609-2                000003
100003789200834961011020120083496101102012               0000000000000196609-3                000004
100003789300834962011020120083496201102012               0000000000000196609-4                000005
100003789400834963011020120083496301102012               0000000000000196609-6                000006
100003789500834964011020120083496401102012               0000000000000196609-10               000007
100003789600834965011020120083496501102012               0000000000000196609-20               000008
100003789700834966011020120083496601102012               0000000000000196609-21               000009
100003791100834967011020120083496701102012               0000000000000196609-22               000010
100003776400834968011020120083496801102012               0000000000000196614-1                000011
100003782000834969011020120083496901102012               0000000000000196614-2                000012
100003791600834970011020120083497001102012               0000000000000196614-3                000013
100003791900834971011020120083497101102012               0000000000000196614-4                000014
100003792400834972011020120083497201102012               0000000000000196637-1                000015
100003792500834973011020120083497301102012               0000000000000196637-2                000016
100003792600834974011020120083497401102012               0000000000000196637-3                000017
100003792700834975011020120083497501102012               0000000000000196637-4                000018
100003792800834976011020120083497601102012               0000000000000196637-5                000019
100003792900834977011020120083497701102012               0000000000000196637-6                000020
100003793000834978011020120083497801102012               0000000000000196637-8                000021
100003793300834979011020120083497901102012               0000000000000196637-9                000022
100003794100834980011020120083498001102012               0000000000000196641-1                000023
100003794200834981011020120083498101102012               0000000000000196641-2                000024
100003794300834982011020120083498201102012               0000000000000196641-3                000025
100003794400834983011020120083498301102012               0000000000000196641-4                000026
100003794500834984011020120083498401102012               0000000000000196641-5                000027
100003794600834985011020120083498501102012               0000000000000196641-6                000028
100003796300834986011020120083498601102012               0000000000000196641-7                000029
100003796400834987011020120083498701102012               0000000000000196641-9                000030
100003794700838353021020120083835302102012               0000000000000196756-1                000031
100003796500838354021020120083835402102012               0000000000000196756-2                000032
100003796600838355021020120083835502102012               0000000000000196756-3                000033
100003796700838356021020120083835602102012               0000000000000196756-4                000034
100003796800838357021020120083835702102012               0000000000000196756-5                000035
100003796900838358021020120083835802102012               0000000000000196756-6                000036
100003799200838359021020120083835902102012               0000000000000196756-7                000037
100003799300838360021020120083836002102012               0000000000000196756-10               000038
100003799400838361021020120083836102102012               0000000000000196756-13               000039
100003799500838362021020120083836202102012               0000000000000196764-1                000040
100003799600838363021020120083836302102012               0000000000000196764-2                000041
100003799700838364021020120083836402102012               0000000000000196764-3                000042
100003799800838365021020120083836502102012               0000000000000196764-4                000043
100003799900838366021020120083836602102012               0000000000000196764-9                000044
100003801200838367021020120083836702102012               0000000000000196764-10               000045
9000044                                                                                       000046
