0RETORNONOTIFICAÇÃO ELETRONICA        16092014CONF                                            000001
100004910701325209150920140132520915092014               0000000000000321560-1                000002
100004910801325210150920140132521015092014               0000000000000321560-2                000003
100004910901325211150920140132521115092014               0000000000000321560-3                000004
100004911001325212150920140132521215092014               0000000000000321560-4                000005
100004911101325213150920140132521315092014               0000000000000321560-5                000006
9000005                                                                                       000007
