0RETORNONOTIFICAÇÃO ELETRONICA        10102013CONF                                            000001
100004467101051465091020130105146509102013               0000000000000262044-1                000002
100004466901051466091020130105146609102013               0000000000000262044-2                000003
100004470601051467091020130105146709102013               0000000000000262044-3                000004
100004472601051468091020130105146809102013               0000000000000262044-5                000005
100004472501051469091020130105146909102013               0000000000000262044-9                000006
100004472401051470091020130105147009102013               0000000000000262044-12               000007
100004472301051471091020130105147109102013               0000000000000262044-15               000008
100004472201051472091020130105147209102013               0000000000000262044-17               000009
100004472101051473091020130105147309102013               0000000000000262044-20               000010
100004472001051474091020130105147409102013               0000000000000262044-22               000011
100004471901051475091020130105147509102013               0000000000000262044-25               000012
100004471801051476091020130105147609102013               0000000000000262044-28               000013
100004471701051477091020130105147709102013               0000000000000262044-35               000014
100004471601051478091020130105147809102013               0000000000000262044-40               000015
100004471501051479091020130105147909102013               0000000000000262044-45               000016
100004471401051480091020130105148009102013               0000000000000262044-51               000017
100004471301051481091020130105148109102013               0000000000000262044-56               000018
100004471201051482091020130105148209102013               0000000000000262044-61               000019
100004471101051483091020130105148309102013               0000000000000262044-66               000020
100004471001051484091020130105148409102013               0000000000000262044-69               000021
100004470901051485091020130105148509102013               0000000000000262044-71               000022
100004470801051486091020130105148609102013               0000000000000262044-73               000023
100004470701051487091020130105148709102013               0000000000000262044-75               000024
100004467001051488091020130105148809102013               0000000000000262044-77               000025
9000024                                                                                       000026
