0RETORNONOTIFICAÇÃO ELETRONICA        22082014CONF                                            000001
100004882701303874190820140130387419082014               0000000000000316749-1                000002
100004882901303875190820140130387519082014               0000000000000316749-2                000003
100004883001303876190820140130387619082014               0000000000000316749-3                000004
100004883101303877190820140130387719082014               0000000000000316749-4                000005
100004883201303878190820140130387819082014               0000000000000316749-5                000006
100004883301303879190820140130387919082014               0000000000000316749-6                000007
100004883401303880190820140130388019082014               0000000000000316749-7                000008
100004883801303881190820140130388119082014               0000000000000316749-15               000009
100004883901303882190820140130388219082014               0000000000000316896-1                000010
100004884001303883190820140130388319082014               0000000000000316896-2                000011
100004884101303884190820140130388419082014               0000000000000316896-3                000012
100004884201303885190820140130388519082014               0000000000000316896-4                000013
100004884401303886190820140130388619082014               0000000000000316896-6                000014
100004884601303887190820140130388719082014               0000000000000316896-7                000015
9000014                                                                                       000016
