0RETORNONOTIFICAÇÃO ELETRONICA        02062014CONF                                            000001
100004767901233430290520140123343029052014               0000000000000302899-1                000002
100004768001233431290520140123343129052014               0000000000000302899-2                000003
100004768101233432290520140123343229052014               0000000000000302899-3                000004
100004768201233433290520140123343329052014               0000000000000302899-4                000005
100004768301233434290520140123343429052014               0000000000000302899-5                000006
100004769501233435290520140123343529052014               0000000000000302899-7                000007
100004769601233436290520140123343629052014               0000000000000302899-13               000008
100004769701233437290520140123343729052014               0000000000000302899-24               000009
100004769801233438290520140123343829052014               0000000000000302899-33               000010
100004769901233439290520140123343929052014               0000000000000302899-38               000011
100004770001233440290520140123344029052014               0000000000000302899-42               000012
100004770101233441290520140123344129052014               0000000000000302899-45               000013
100004770201233442290520140123344229052014               0000000000000302899-50               000014
100004770301233443290520140123344329052014               0000000000000302899-60               000015
100004770401233444290520140123344429052014               0000000000000302899-68               000016
100004766901233445290520140123344529052014               0000000000000303008-1                000017
100004770501233446290520140123344629052014               0000000000000303008-2                000018
100004770601233447290520140123344729052014               0000000000000303008-3                000019
100004770701233448290520140123344829052014               0000000000000303008-4                000020
100004771501233449290520140123344929052014               0000000000000303008-5                000021
100004771801233450290520140123345029052014               0000000000000303008-6                000022
100004772101233451290520140123345129052014               0000000000000303008-7                000023
9000022                                                                                       000024
