0RETORNONOTIFICAÇÃO ELETRONICA        12042013CONF                                            000001
100004075000925725270320130092572527032013FA104888567BR  0000004042013228574-1                000002
100004075100925726270320130092572627032013FA104888575BR  0000003042013228574-3                000003
100004075200925727270320130092572727032013FA104888584BR  0000008042013228574-4                000004
100004074800925728270320130092572827032013FA104888598BR  0000004042013228574-5                000005
100004074900925729270320130092572927032013               0000000000000228574-6                000006
100004075300925730270320130092573027032013FA104888615BR  0000004042013228574-7                000007
100004078200925731270320130092573127032013FA104888624BR  0000004042013228576-1                000008
100004077900925732270320130092573227032013FA104888638BR  0000004042013228576-2                000009
100004078300925733270320130092573327032013FA104888641BR  0000003042013228576-3                000010
100004078000925734270320130092573427032013FA104888655BR  0000008042013228576-4                000011
100004078100925735270320130092573527032013FA104888669BR  0000004042013228576-5                000012
100004080700925736270320130092573627032013               0000000000000228578-1                000013
100004080600925737270320130092573727032013FA104888686BR  0000003042013228578-4                000014
100004080300925738270320130092573827032013FA104888690BR  0000004042013228578-5                000015
100004080400925739270320130092573927032013FA104888709BR  0000003042013228578-6                000016
100004080500925740270320130092574027032013               0000000000000228578-7                000017
100004083700925741270320130092574127032013FA104888726BR  0000003042013228579-1                000018
100004083800925742270320130092574227032013FA104888730BR  0000004042013228579-2                000019
100004085400925743270320130092574327032013               0000000000000228579-3                000020
100004085500925744270320130092574427032013               0000000000000228579-4                000021
100004085700925745270320130092574527032013               0000000000000228581-1                000022
100004085600925746270320130092574627032013FA104888774BR  0000004042013228581-2                000023
100004087400925747270320130092574727032013FA104888788BR  0000003042013228581-3                000024
100004085800925748270320130092574827032013FA104888791BR  0000008042013228581-10               000025
100004087900926673010420130092667301042013FA104896926BR  0000011042013228821-1                000026
100004087700926674010420130092667401042013FA104896930BR  0000008042013228821-3                000027
100004088000926675010420130092667501042013FA104896943BR  0000008042013228821-4                000028
100004087600926676010420130092667601042013FA104896957BR  0000008042013228821-5                000029
100004087500926677010420130092667701042013FA104896965BR  0000008042013228821-6                000030
100004087800926678010420130092667801042013FA104896974BR  0000008042013228821-7                000031
100004072300926679010420130092667901042013FA104896988BR  0000009042013228824-1                000032
100004089400926680010420130092668001042013               0000000000000228824-2                000033
100004076200926681010420130092668101042013               0000000000000228824-4                000034
100004089300926682010420130092668201042013FA104897011BR  0000008042013228824-5                000035
100004089500926683010420130092668301042013FA104897025BR  0000008042013228824-6                000036
100004076400926684010420130092668401042013FA104897039BR  0000008042013228824-7                000037
100004089900926685010420130092668501042013               0000000000000228862-1                000038
100004090000926686010420130092668601042013FA104897056BR  0000004042013228862-2                000039
100004091200926687010420130092668701042013FA104897060BR  0000008042013228862-3                000040
100004090800926688010420130092668801042013FA104897073BR  0000008042013228862-4                000041
100004090900926689010420130092668901042013FA104897087BR  0000008042013228862-5                000042
100004092600926690010420130092669001042013               0000000000000228862-6                000043
100004092800926691010420130092669101042013FA104897100BR  0000708042013228862-14               000044
100004092700926692010420130092669201042013FA104897113BR  0000008042013228862-26               000045
100004090600926693010420130092669301042013FA104897127BR  0000008042013228862-36               000046
100004090700926694010420130092669401042013               0000000000000228862-37               000047
100004091300926695010420130092669501042013               0000000000000228862-38               000048
100004091000926696010420130092669601042013FA104897158BR  0000009042013228862-39               000049
100004091100926697010420130092669701042013FA104897161BR  0000008042013228862-40               000050
100004092900926698010420130092669801042013FA104897175BR  0000008042013228862-41               000051
100004093300926699010420130092669901042013FA104897189BR  0000008042013228862-42               000052
100004093200926700010420130092670001042013FA104897192BR  0000008042013228862-43               000053
100004093100926701010420130092670101042013FA104897201BR  0000008042013228862-44               000054
100004093000926702010420130092670201042013FA104897215BR  0000008042013228862-45               000055
100004093600926703010420130092670301042013FA104897229BR  0000009042013228997-1                000056
100004093400926704010420130092670401042013FA104897232BR  0000008042013228997-2                000057
100004093500926705010420130092670501042013FA104897246BR  0000008042013228997-3                000058
100004095200926706010420130092670601042013FA104897250BR  0000008042013228998-1                000059
100004095100926707010420130092670701042013               0000000000000228998-2                000060
100004086100926708010420130092670801042013FA104897277BR  0000011042013229000-1                000061
100004081200926709010420130092670901042013FA104897285BR  0000004042013229000-2                000062
100004097200926710010420130092671001042013FA104897294BR  0000008042013229000-3                000063
100004086400926711010420130092671101042013FA104897303BR  0000009042013229000-4                000064
100004096800926712010420130092671201042013FA104897317BR  0000008042013229000-5                000065
100004078800926713010420130092671301042013FA104897325BR  0000004042013229000-8                000066
100004083500926714010420130092671401042013               0000000000000229000-9                000067
100004097000926715010420130092671501042013FA104897348BR  0000008042013229000-10               000068
100004095600926716010420130092671601042013FA104897351BR  0000011042013229000-11               000069
100004082700926717010420130092671701042013FA104897365BR  0000008042013229000-12               000070
100004082900926718010420130092671801042013               0000000000000229000-13               000071
100004082800926719010420130092671901042013FA104897382BR  0000008042013229000-14               000072
100004096900926720010420130092672001042013FA104897396BR  0000008042013229000-15               000073
100004097100926721010420130092672101042013FA104897405BR  0000104042013229000-16               000074
100004079300926722010420130092672201042013FA104897419BR  0000008042013229000-17               000075
100004084400926723010420130092672301042013FA104897422BR  0000011042013229000-18               000076
100004088500926724010420130092672401042013FA104897436BR  0000008042013229000-19               000077
100004091900926725010420130092672501042013FA104897440BR  0000008042013229000-20               000078
100004099200926726010420130092672601042013FA104897453BR  0000008042013229013-1                000079
100004100700926727010420130092672701042013FA104897467BR  0000008042013229013-2                000080
100004099300926728010420130092672801042013               0000000000000229013-3                000081
100004099400926729010420130092672901042013               0000000000000229013-4                000082
100004099100926730010420130092673001042013               0000000000000229013-5                000083
100004097700926731010420130092673101042013FA104897507BR  0000008042013229013-6                000084
100004099500926732010420130092673201042013FA104897515BR  0000004042013229013-7                000085
100004100900926733010420130092673301042013FA104897524BR  0000008042013229013-9                000086
100004100400926734010420130092673401042013FA104897538BR  0000009042013229013-10               000087
100004103900926735010420130092673501042013FA104897541BR  0000008042013229014-1                000088
100004104000926736010420130092673601042013FA104897555BR  0000008042013229014-2                000089
100004101500926737010420130092673701042013FA104897569BR  0000008042013229014-3                000090
100004101200926738010420130092673801042013FA104897572BR  0000008042013229014-5                000091
100004101300926739010420130092673901042013               0000000000000229014-6                000092
100004101400926740010420130092674001042013FA104897590BR  0000008042013229014-7                000093
100004101000926741010420130092674101042013FA104897609BR  0000008042013229014-8                000094
100004101100926742010420130092674201042013FA104897612BR  0000008042013229014-9                000095
100004104500926743010420130092674301042013               0000000000000229015-1                000096
100004104600926744010420130092674401042013FA104897630BR  0000008042013229015-5                000097
100004106300926745010420130092674501042013FA104897643BR  0000008042013229015-10               000098
100004106400926746010420130092674601042013               0000000000000229015-11               000099
100004104700926747010420130092674701042013FA104897665BR  0000008042013229015-12               000100
100004108600926748010420130092674801042013FA104897674BR  0000008042013229017-1                000101
100004108800926749010420130092674901042013FA104897688BR  0000008042013229017-2                000102
100004107600926750010420130092675001042013FA104897691BR  0000008042013229017-3                000103
100004107900926751010420130092675101042013FA104897705BR  0000008042013229017-5                000104
100004107700926752010420130092675201042013FA104897714BR  0000008042013229017-6                000105
100004107800926753010420130092675301042013FA104897728BR  0000008042013229017-7                000106
100004107400926754010420130092675401042013FA104897731BR  0000008042013229017-9                000107
100004107500926755010420130092675501042013FA104897745BR  0000008042013229017-10               000108
100004108100926756010420130092675601042013               0000000000000229017-11               000109
100004112800934340080420130093434008042013               0000000000000229984-1                000110
100004112600934341080420130093434108042013               0000000000000229984-2                000111
100004110700934342080420130093434208042013               0000000000000229984-3                000112
100004110000934343080420130093434308042013               0000000000000229984-4                000113
100004110200934344080420130093434408042013               0000000000000229984-5                000114
100004110100934345080420130093434508042013               0000000000000229984-6                000115
100004111000934346080420130093434608042013               0000000000000229984-7                000116
100004112400934347080420130093434708042013               0000000000000229984-8                000117
100004110300934348080420130093434808042013               0000000000000229984-9                000118
100004111500934349080420130093434908042013               0000000000000229984-10               000119
100004110900934350080420130093435008042013               0000000000000229984-11               000120
100004110400934351080420130093435108042013               0000000000000229984-12               000121
100004110500934352080420130093435208042013               0000000000000229984-13               000122
100004110800934353080420130093435308042013               0000000000000229984-14               000123
100004110600934354080420130093435408042013FA104956426BR  0000011042013229984-16               000124
100004111600934355080420130093435508042013               0000000000000229984-17               000125
100004111400934356080420130093435608042013               0000000000000229984-18               000126
100004115100934357080420130093435708042013               0000000000000229987-1                000127
100004113100934358080420130093435808042013               0000000000000229987-2                000128
100004114300934359080420130093435908042013               0000000000000229987-3                000129
100004114400934360080420130093436008042013               0000000000000229987-4                000130
100004113000934361080420130093436108042013               0000000000000229987-5                000131
100004113200934362080420130093436208042013               0000000000000229987-6                000132
100004115000934364080420130093436408042013               0000000000000229987-119              000133
100004113900934365080420130093436508042013               0000000000000229987-120              000134
100004114200934366080420130093436608042013               0000000000000229987-121              000135
100004114100934367080420130093436708042013               0000000000000229987-122              000136
100004114000934368080420130093436808042013               0000000000000229987-123              000137
100004117400934369080420130093436908042013               0000000000000230109-1                000138
100004119300934371080420130093437108042013               0000000000000230109-48               000139
100004119200934372080420130093437208042013               0000000000000230109-51               000140
100004119100934373080420130093437308042013               0000000000000230109-72               000141
100004119000934374080420130093437408042013               0000000000000230109-81               000142
100004118900934375080420130093437508042013               0000000000000230109-84               000143
100004118800934376080420130093437608042013               0000000000000230109-101              000144
100004118700934377080420130093437708042013               0000000000000230109-104              000145
100004118600934378080420130093437808042013               0000000000000230109-105              000146
100004118500934379080420130093437908042013               0000000000000230109-111              000147
100004118400934380080420130093438008042013               0000000000000230109-112              000148
100004118300934381080420130093438108042013               0000000000000230109-117              000149
100004118200934382080420130093438208042013               0000000000000230109-118              000150
100004118100934383080420130093438308042013               0000000000000230109-124              000151
100004118000934384080420130093438408042013               0000000000000230109-126              000152
100004117900934385080420130093438508042013               0000000000000230109-130              000153
100004117800934386080420130093438608042013               0000000000000230109-135              000154
100004117700934387080420130093438708042013               0000000000000230109-136              000155
100004117600934388080420130093438808042013               0000000000000230109-140              000156
100004117500934389080420130093438908042013               0000000000000230109-145              000157
100004115700934390080420130093439008042013               0000000000000230109-147              000158
100004117200934391080420130093439108042013               0000000000000230109-150              000159
100004115500934392080420130093439208042013               0000000000000230109-151              000160
100004116800934393080420130093439308042013               0000000000000230109-152              000161
100004115400934394080420130093439408042013               0000000000000230109-153              000162
100004115600934395080420130093439508042013               0000000000000230109-154              000163
100004116300934396080420130093439608042013               0000000000000230109-155              000164
100004117000934397080420130093439708042013               0000000000000230109-156              000165
100004116500934398080420130093439808042013               0000000000000230109-157              000166
100004115300934399080420130093439908042013               0000000000000230109-158              000167
9000166                                                                                       000168
