0RETORNONOTIFICAÇÃO ELETRONICA        30032012CONF                                            000001
100003454000739853290320120073985329032012               0000000000000168693-1                000002
100003454100739854290320120073985429032012               0000000000000168693-2                000003
100003454200739855290320120073985529032012               0000000000000168693-3                000004
100003454300739856290320120073985629032012               0000000000000168693-4                000005
9000004                                                                                       000006
