0RETORNONOTIFICAÇÃO ELETRONICA        28062011CONF                                            000001
100002824100564663240620110056466324062011               0000000000000134783-1                000002
100002824500564664240620110056466424062011               0000000000000134783-2                000003
100002824700564665240620110056466524062011               0000000000000134783-3                000004
100002824900564666240620110056466624062011               0000000000000134783-4                000005
100002825000564667240620110056466724062011               0000000000000134783-5                000006
100002826100564668240620110056466824062011               0000000000000134783-6                000007
100002826200564669240620110056466924062011               0000000000000134783-7                000008
100002826300564670240620110056467024062011               0000000000000134783-8                000009
100002826400564671240620110056467124062011               0000000000000134783-9                000010
100002826500564672240620110056467224062011               0000000000000134783-10               000011
100002826600564673240620110056467324062011               0000000000000134783-11               000012
100002831300564674240620110056467424062011               0000000000000134783-12               000013
100002831400564675240620110056467524062011               0000000000000134783-13               000014
100002815900564676240620110056467624062011               0000000000000134786-1                000015
100002831500564677240620110056467724062011               0000000000000134786-2                000016
100002831600564678240620110056467824062011               0000000000000134786-3                000017
100002831700564679240620110056467924062011               0000000000000134786-4                000018
100002831800564680240620110056468024062011               0000000000000134786-5                000019
100002831900564681240620110056468124062011               0000000000000134786-6                000020
100002832000564682240620110056468224062011               0000000000000134786-7                000021
9000020                                                                                       000022
