0RETORNONOTIFICAÇÃO ELETRONICA        03102011CONF                                            000001
100003082500635750300920110063575030092011               0000000000000146406-1                000002
100003089300635751300920110063575130092011               0000000000000146406-2                000003
100003089400635752300920110063575230092011               0000000000000146406-3                000004
100003091600635753300920110063575330092011               0000000000000146561-1                000005
100003091700635754300920110063575430092011               0000000000000146561-5                000006
100003091800635755300920110063575530092011               0000000000000146561-6                000007
100003091900635756300920110063575630092011               0000000000000146561-7                000008
9000007                                                                                       000009
