0RETORNONOTIFICAÇÃO ELETRONICA        28112013CONF                                            000001
100004534401082290261120130108229026112013               0000000000000270327-1                000002
100004534201082291261120130108229126112013               0000000000000270327-2                000003
100004534301082292261120130108229226112013               0000000000000270327-3                000004
100004534501082293261120130108229326112013               0000000000000270327-4                000005
100004535701082294261120130108229426112013               0000000000000270328-1                000006
100004535801082295261120130108229526112013               0000000000000270328-2                000007
100004535901082296261120130108229626112013               0000000000000270328-3                000008
100004537001082297261120130108229726112013               0000000000000270328-5                000009
100004537101082298261120130108229826112013               0000000000000270328-6                000010
100004536001082299261120130108229926112013               0000000000000270328-7                000011
100004537501084523271120130108452327112013               0000000000000270698-1                000012
100004537301084524271120130108452427112013               0000000000000270698-2                000013
100004535601084525271120130108452527112013               0000000000000270698-15               000014
100004528901084526271120130108452627112013               0000000000000270698-16               000015
100004537601084527271120130108452727112013               0000000000000270698-17               000016
100004450501084528271120130108452827112013               0000000000000270698-18               000017
100004537201084529271120130108452927112013               0000000000000270698-19               000018
100004534901084530271120130108453027112013               0000000000000270698-20               000019
100004536101084531271120130108453127112013               0000000000000270698-21               000020
100004530801084532271120130108453227112013               0000000000000270698-22               000021
100004531101084533271120130108453327112013               0000000000000270698-23               000022
100004531001084534271120130108453427112013               0000000000000270698-24               000023
100004530901084535271120130108453527112013               0000000000000270698-25               000024
100004537401084536271120130108453627112013               0000000000000270698-26               000025
100004539401084537271120130108453727112013               0000000000000270870-1                000026
100004539701084538271120130108453827112013               0000000000000270870-2                000027
100004539501084539271120130108453927112013               0000000000000270870-3                000028
100004539601084540271120130108454027112013               0000000000000270870-4                000029
9000028                                                                                       000030
