0RETORNONOTIFICAÇÃO ELETRONICA        06032012CONF                                            000001
100003408400726685060320120072668506032012               0000000000000165127-1                000002
100003410400726686060320120072668606032012               0000000000000165133-1                000003
100003410500726687060320120072668706032012               0000000000000165133-2                000004
100003410600726688060320120072668806032012               0000000000000165133-3                000005
100003410700726689060320120072668906032012               0000000000000165133-4                000006
100003410800726690060320120072669006032012               0000000000000165133-5                000007
100003414200726691060320120072669106032012               0000000000000165411-1                000008
100003414300726692060320120072669206032012               0000000000000165411-2                000009
100003414400726693060320120072669306032012               0000000000000165411-5                000010
100003414500726694060320120072669406032012               0000000000000165411-6                000011
100003414600726695060320120072669506032012               0000000000000165411-8                000012
100003414700726696060320120072669606032012               0000000000000165411-9                000013
100003417100726866060320120072686606032012               0000000000000165545-1                000014
100003417200726867060320120072686706032012               0000000000000165545-4                000015
9000014                                                                                       000016
