0RETORNONOTIFICAÇÃO ELETRONICA        07072010CONF                                            000001
100002298800300171060720100030017106072010               0000000000000104778-1                000002
100002299800300172060720100030017206072010               0000000000000104778-2                000003
100002299900300173060720100030017306072010               0000000000000104778-3                000004
100002300000300174060720100030017406072010               0000000000000104778-4                000005
100002302300300175060720100030017506072010               0000000000000104778-5                000006
100002302400300176060720100030017606072010               0000000000000104778-6                000007
100002302500300177060720100030017706072010               0000000000000104869-1                000008
100002302600300178060720100030017806072010               0000000000000104869-2                000009
100002302700300179060720100030017906072010               0000000000000104869-3                000010
100002302800300180060720100030018006072010               0000000000000104869-4                000011
100002302900300181060720100030018106072010               0000000000000104869-5                000012
100002303000300182060720100030018206072010               0000000000000104869-6                000013
100002303100300183060720100030018306072010               0000000000000104869-7                000014
100002303200300184060720100030018406072010               0000000000000104869-8                000015
100002305500300185060720100030018506072010               0000000000000104869-10               000016
100002305600300186060720100030018606072010               0000000000000104869-11               000017
9000016                                                                                       000018
