0RETORNONOTIFICAÇÃO ELETRONICA        08102014CONF                                            000001
100004980801342366031020140134236603102014               0000000000000325008-1                000002
100004980901342367031020140134236703102014               0000000000000325008-2                000003
100004981001342368031020140134236803102014               0000000000000325008-4                000004
100004981101342369031020140134236903102014               0000000000000325008-5                000005
100004981201342370031020140134237003102014               0000000000000325008-6                000006
100004981401342371031020140134237103102014               0000000000000325263-1                000007
100004981501342372031020140134237203102014               0000000000000325263-2                000008
100004981601342373031020140134237303102014               0000000000000325263-3                000009
100004981901342374031020140134237403102014               0000000000000325390-1                000010
100004982001342375031020140134237503102014               0000000000000325390-2                000011
100004982101342376031020140134237603102014               0000000000000325390-3                000012
100004982201342377031020140134237703102014               0000000000000325390-4                000013
100004982301342378031020140134237803102014               0000000000000325390-5                000014
100004982401342379031020140134237903102014               0000000000000325390-6                000015
9000014                                                                                       000016
