0RETORNONOTIFICAÇÃO ELETRONICA        10072012CONF                                            000001
100003617800791536060720120079153606072012               0000000000000182443-1                000002
100003617900791537060720120079153706072012               0000000000000182443-2                000003
100003618000791538060720120079153806072012               0000000000000182443-3                000004
100003618100791539060720120079153906072012               0000000000000182443-6                000005
100003618200791540060720120079154006072012               0000000000000182443-7                000006
100003619000791541060720120079154106072012               0000000000000182443-8                000007
100003620900791542060720120079154206072012               0000000000000182443-9                000008
100003621000791543060720120079154306072012               0000000000000182443-10               000009
100003621200791544060720120079154406072012               0000000000000182444-1                000010
100003621800791545060720120079154506072012               0000000000000182444-2                000011
100003621900791546060720120079154606072012               0000000000000182444-3                000012
100003623000791547060720120079154706072012               0000000000000182444-4                000013
100003624200791548060720120079154806072012               0000000000000182444-5                000014
100003624300791549060720120079154906072012               0000000000000182444-6                000015
100003624400791550060720120079155006072012               0000000000000182444-7                000016
100003624500791551060720120079155106072012               0000000000000182444-8                000017
100003624600791552060720120079155206072012               0000000000000182444-9                000018
100003624700791553060720120079155306072012               0000000000000182444-10               000019
100003624800791554060720120079155406072012               0000000000000182444-11               000020
100003624900791555060720120079155506072012               0000000000000182444-12               000021
100003625000791556060720120079155606072012               0000000000000182444-16               000022
100003625100791557060720120079155706072012               0000000000000182444-19               000023
100003625200791558060720120079155806072012               0000000000000182444-23               000024
100003625300791559060720120079155906072012               0000000000000182444-29               000025
100003625400791560060720120079156006072012               0000000000000182444-33               000026
100003625500791561060720120079156106072012               0000000000000182448-1                000027
100003625600791562060720120079156206072012               0000000000000182448-2                000028
100003625700791563060720120079156306072012               0000000000000182448-3                000029
100003626100791564060720120079156406072012               0000000000000182448-4                000030
100003626300791565060720120079156506072012               0000000000000182448-5                000031
100003626700791566060720120079156606072012               0000000000000182448-6                000032
100003627300791567060720120079156706072012               0000000000000182449-1                000033
100003627400791568060720120079156806072012               0000000000000182449-3                000034
100003627500791569060720120079156906072012               0000000000000182449-4                000035
100003627600791570060720120079157006072012               0000000000000182449-6                000036
100003628100791571060720120079157106072012               0000000000000182449-7                000037
100003628500791572060720120079157206072012               0000000000000182449-8                000038
100003628700791573060720120079157306072012               0000000000000182449-9                000039
100003628800791574060720120079157406072012               0000000000000182449-11               000040
100003628900791575060720120079157506072012               0000000000000182449-14               000041
100003629000791576060720120079157606072012               0000000000000182449-16               000042
100003629100791577060720120079157706072012               0000000000000182449-18               000043
100003629200791578060720120079157806072012               0000000000000182449-19               000044
100003629300791579060720120079157906072012               0000000000000182449-20               000045
100003629400791580060720120079158006072012               0000000000000182449-21               000046
9000045                                                                                       000047
