0RETORNONOTIFICAÇÃO ELETRONICA        18082011CONF                                            000001
100002959800596293170820110059629317082011               0000000000000141084-1                000002
100002959900596294170820110059629417082011               0000000000000141084-2                000003
100002960000596295170820110059629517082011               0000000000000141084-3                000004
9000003                                                                                       000005
