0RETORNONOTIFICAÇÃO ELETRONICA        04012011CONF                                            000001
100002565700448685040120110044868504012011               0000000000000118840-1                000002
100002565800448686040120110044868604012011               0000000000000118840-2                000003
100002568100448687040120110044868704012011               0000000000000118840-3                000004
100002568200448688040120110044868804012011               0000000000000118840-4                000005
100002568300448689040120110044868904012011               0000000000000118840-5                000006
9000005                                                                                       000007
