0RETORNONOTIFICAÇÃO ELETRONICA        25072011CONF                                            000001
100002902000581295210720110058129521072011               0000000000000137487-1                000002
100002905700581296210720110058129621072011               0000000000000137487-2                000003
100002905800581297210720110058129721072011               0000000000000137487-4                000004
100002907200581298210720110058129821072011               0000000000000137594-1                000005
100002907300581299210720110058129921072011               0000000000000137594-2                000006
9000005                                                                                       000007
