0RETORNONOTIFICAÇÃO ELETRONICA        02032010CONF                                            000001
100002050300246557250220100024655725022010               000000000000086813-1                 000002
100002053300246558250220100024655825022010               000000000000086814-1                 000003
100002054000246559250220100024655925022010               000000000000086814-2                 000004
100002054600246560250220100024656025022010               000000000000086814-3                 000005
100002054700246561250220100024656125022010               000000000000086814-4                 000006
100002057000246562250220100024656225022010               000000000000086815-1                 000007
100002058300246563250220100024656325022010               000000000000086815-2                 000008
100002058400246564250220100024656425022010               000000000000086815-3                 000009
100002058500246565250220100024656525022010               000000000000086815-5                 000010
9000009                                                                                       000011
