0RETORNONOTIFICAÇÃO ELETRONICA        18022014CONF                                            000001
100004632201139666110220140113966611022014               0000000000000284244-1                000002
100004632301139667110220140113966711022014               0000000000000284244-2                000003
100004632401139668110220140113966811022014               0000000000000284244-3                000004
100004632501139669110220140113966911022014               0000000000000284244-4                000005
100004632601139670110220140113967011022014               0000000000000284244-5                000006
100004632701139671110220140113967111022014               0000000000000284244-6                000007
100004632801139672110220140113967211022014               0000000000000284244-7                000008
100004632901139673110220140113967311022014               0000000000000284244-8                000009
100004633001139674110220140113967411022014FA245863664BR  0000017022014284244-9                000010
100004633101139675110220140113967511022014FA245863678BR  0000017022014284244-10               000011
100004633201139676110220140113967611022014FA245863681BR  0000017022014284244-11               000012
100004633301139677110220140113967711022014FA245863695BR  0000017022014284244-12               000013
100004633401139678110220140113967811022014               0000000000000284244-13               000014
100004635501139679110220140113967911022014FA245863718BR  0000017022014284245-1                000015
100004635601139680110220140113968011022014               0000000000000284245-2                000016
100004635701139681110220140113968111022014               0000000000000284245-3                000017
100004635801139682110220140113968211022014               0000000000000284245-4                000018
100004635901139683110220140113968311022014FA245863752BR  0000017022014284245-5                000019
100004636001139684110220140113968411022014               0000000000000284245-6                000020
100004634401139685110220140113968511022014FA245863770BR  0000017022014284320-1                000021
100004637001139686110220140113968611022014FA245863783BR  0000017022014284320-2                000022
100004637101139687110220140113968711022014               0000000000000284320-3                000023
100004637201139688110220140113968811022014FA245863806BR  0000017022014284320-4                000024
100004637301139689110220140113968911022014FA245863810BR  0000017022014284320-5                000025
100004638701139690110220140113969011022014               0000000000000284320-6                000026
100004638801140937130220140114093713022014               0000000000000284621-1                000027
100004638901140938130220140114093813022014               0000000000000284621-2                000028
100004639001140939130220140114093913022014FA245875605BR  0000017022014284621-3                000029
100004639101140940130220140114094013022014               0000000000000284621-4                000030
100004639201140941130220140114094113022014               0000000000000284621-6                000031
100004642101140942130220140114094213022014               0000000000000284923-1                000032
100004642201140943130220140114094313022014               0000000000000284923-2                000033
100004642301140944130220140114094413022014               0000000000000284923-4                000034
100004642401140945130220140114094513022014               0000000000000284923-5                000035
100004642501140946130220140114094613022014               0000000000000284923-8                000036
100004642601140947130220140114094713022014FA245875680BR  0000017022014284923-10               000037
100004640701141657140220140114165714022014               0000000000000285204-1                000038
100004640901141658140220140114165814022014               0000000000000285204-2                000039
100004642701141659140220140114165914022014               0000000000000285204-3                000040
100004642801141660140220140114166014022014               0000000000000285204-4                000041
100004642901141661140220140114166114022014               0000000000000285204-5                000042
100004643001141662140220140114166214022014               0000000000000285204-10               000043
100004643101141663140220140114166314022014               0000000000000285204-11               000044
100004643201141664140220140114166414022014               0000000000000285204-12               000045
100004644501141899170220140114189917022014               0000000000000285515-1                000046
100004644601141900170220140114190017022014               0000000000000285515-2                000047
100004644701141901170220140114190117022014               0000000000000285515-6                000048
100004644801141902170220140114190217022014               0000000000000285515-7                000049
100004645701141903170220140114190317022014               0000000000000285515-8                000050
9000049                                                                                       000051
