0RETORNONOTIFICAÇÃO ELETRONICA        29052014CONF                                            000001
100004762501232570280520140123257028052014               0000000000000302577-1                000002
100004762601232571280520140123257128052014               0000000000000302577-2                000003
100004762701232572280520140123257228052014               0000000000000302577-3                000004
100004762801232573280520140123257328052014               0000000000000302577-4                000005
100004762901232574280520140123257428052014               0000000000000302577-5                000006
100004763001232575280520140123257528052014               0000000000000302577-7                000007
100004763101232576280520140123257628052014               0000000000000302577-8                000008
100004763201232577280520140123257728052014               0000000000000302577-10               000009
100004765601232578280520140123257828052014               0000000000000302578-1                000010
100004765701232579280520140123257928052014               0000000000000302578-2                000011
100004765801232580280520140123258028052014               0000000000000302578-3                000012
100004765901232581280520140123258128052014               0000000000000302578-4                000013
100004766001232582280520140123258228052014               0000000000000302578-5                000014
100004766101232583280520140123258328052014               0000000000000302578-6                000015
100004766201232584280520140123258428052014               0000000000000302578-7                000016
100004767801232585280520140123258528052014               0000000000000302578-14               000017
9000016                                                                                       000018
