0RETORNONOTIFICAÇÃO ELETRONICA        06102010CONF                                            000001
100002442100398795051020100039879505102010               0000000000000112701-1                000002
100002442200398796051020100039879605102010               0000000000000112701-2                000003
100002445000398797051020100039879705102010               0000000000000112792-1                000004
100002445100398798051020100039879805102010               0000000000000112792-5                000005
100002445200398799051020100039879905102010               0000000000000112792-7                000006
100002445300398800051020100039880005102010               0000000000000112792-8                000007
100002445400398801051020100039880105102010               0000000000000112792-9                000008
100002445500398802051020100039880205102010               0000000000000112792-10               000009
100002445600398803051020100039880305102010               0000000000000112792-18               000010
9000009                                                                                       000011
