0RETORNONOTIFICAÇÃO ELETRONICA        08112011CONF                                            000001
100003164100660904071120110066090407112011               0000000000000150625-1                000002
100003166700660905071120110066090507112011               0000000000000150625-2                000003
100003167000660906071120110066090607112011               0000000000000150625-3                000004
100003167400660907071120110066090707112011               0000000000000150625-4                000005
100003167500660908071120110066090807112011               0000000000000150625-5                000006
100003167600660909071120110066090907112011               0000000000000150625-6                000007
100003168200660910071120110066091007112011               0000000000000150625-7                000008
100003168300660911071120110066091107112011               0000000000000150625-8                000009
100003168800660912071120110066091207112011               0000000000000150625-9                000010
100003168900660913071120110066091307112011               0000000000000150625-10               000011
100003169600660914071120110066091407112011               0000000000000150625-11               000012
100003169700660915071120110066091507112011               0000000000000150625-12               000013
100003170400660916071120110066091607112011               0000000000000150625-13               000014
100003170500660917071120110066091707112011               0000000000000150625-14               000015
9000014                                                                                       000016
