0RETORNONOTIFICAÇÃO ELETRONICA        27122013CONF                                            000001
100004578301100688261220130110068826122013               0000000000000274949-1                000002
100004568901100689261220130110068926122013               0000000000000274949-2                000003
100004578701100690261220130110069026122013               0000000000000274949-3                000004
100004562701100691261220130110069126122013               0000000000000274949-4                000005
100004561401100692261220130110069226122013               0000000000000274949-5                000006
100004565001100693261220130110069326122013               0000000000000274949-6                000007
100004578401100694261220130110069426122013               0000000000000274949-7                000008
100004556801100695261220130110069526122013               0000000000000274949-8                000009
100004577501100696261220130110069626122013               0000000000000274949-9                000010
100004576001100697261220130110069726122013               0000000000000274949-10               000011
100004552001100698261220130110069826122013               0000000000000274949-11               000012
100004580301100699261220130110069926122013               0000000000000274949-12               000013
100004576901100700261220130110070026122013               0000000000000274949-13               000014
100004577301100701261220130110070126122013               0000000000000274949-14               000015
100004577201100702261220130110070226122013               0000000000000274949-15               000016
100004577101100703261220130110070326122013               0000000000000274949-16               000017
100004577001100704261220130110070426122013               0000000000000274949-17               000018
100004577701100705261220130110070526122013               0000000000000274949-18               000019
100004566001100706261220130110070626122013               0000000000000274949-19               000020
100004576801100707261220130110070726122013               0000000000000274949-20               000021
100004576701100708261220130110070826122013               0000000000000274949-21               000022
100004576601100709261220130110070926122013               0000000000000274949-22               000023
100004576501100710261220130110071026122013               0000000000000274949-23               000024
100004578501100711261220130110071126122013               0000000000000274949-24               000025
100004578601100712261220130110071226122013               0000000000000274949-25               000026
9000025                                                                                       000027
