0RETORNONOTIFICAÇÃO ELETRONICA        21062011CONF                                            000001
100002817600557358200620110055735820062011               0000000000000134198-1                000002
100002817700557359200620110055735920062011               0000000000000134198-2                000003
100002817800557360200620110055736020062011               0000000000000134198-3                000004
100002817900557361200620110055736120062011               0000000000000134200-1                000005
100002818000557362200620110055736220062011               0000000000000134200-2                000006
100002818100557363200620110055736320062011               0000000000000134200-3                000007
100002818200557364200620110055736420062011               0000000000000134200-4                000008
100002818300557365200620110055736520062011               0000000000000134200-5                000009
100002819900557366200620110055736620062011               0000000000000134200-6                000010
100002820000557367200620110055736720062011               0000000000000134200-7                000011
100002820100557368200620110055736820062011               0000000000000134200-8                000012
9000011                                                                                       000013
