0RETORNONOTIFICAÇÃO ELETRONICA        27042012CONF                                            000001
100003496700754272260420120075427226042012               0000000000000172058-1                000002
100003496900754273260420120075427326042012               0000000000000172058-4                000003
100003497000754274260420120075427426042012               0000000000000172058-5                000004
100003497100754275260420120075427526042012               0000000000000172058-6                000005
100003499500754276260420120075427626042012               0000000000000172058-7                000006
100003499600754277260420120075427726042012               0000000000000172058-8                000007
100003499700754278260420120075427826042012               0000000000000172058-9                000008
100003499800754279260420120075427926042012               0000000000000172058-10               000009
100003499900754280260420120075428026042012               0000000000000172058-12               000010
100003500000754281260420120075428126042012               0000000000000172058-14               000011
100003500100754282260420120075428226042012               0000000000000172058-18               000012
100003500200754283260420120075428326042012               0000000000000172058-21               000013
100003500300754284260420120075428426042012               0000000000000172058-23               000014
100003500400754285260420120075428526042012               0000000000000172058-27               000015
100003500500754286260420120075428626042012               0000000000000172058-32               000016
100003500600754287260420120075428726042012               0000000000000172058-37               000017
100003500700754288260420120075428826042012               0000000000000172058-43               000018
100003500800754289260420120075428926042012               0000000000000172058-51               000019
100003500900754290260420120075429026042012               0000000000000172058-55               000020
100003501000754291260420120075429126042012               0000000000000172058-63               000021
100003501100754292260420120075429226042012               0000000000000172058-70               000022
100003501200754293260420120075429326042012               0000000000000172058-80               000023
100003501300754294260420120075429426042012               0000000000000172058-88               000024
100003501400754295260420120075429526042012               0000000000000172058-97               000025
100003501500754296260420120075429626042012               0000000000000172058-108              000026
9000025                                                                                       000027
