0RETORNONOTIFICAÇÃO ELETRONICA        04072012CONF                                            000001
100003598100788006020720120078800602072012               0000000000000181506-1                000002
100003598200788007020720120078800702072012               0000000000000181506-2                000003
100003599400788008020720120078800802072012               0000000000000181506-3                000004
100003599500788009020720120078800902072012               0000000000000181506-4                000005
100003599600788010020720120078801002072012               0000000000000181506-5                000006
100003599700788011020720120078801102072012               0000000000000181506-6                000007
100003600000788012020720120078801202072012               0000000000000181506-7                000008
100003608300788013020720120078801302072012               0000000000000181506-8                000009
100003608400788014020720120078801402072012               0000000000000181506-9                000010
100003608500788015020720120078801502072012               0000000000000181506-10               000011
100003608600788016020720120078801602072012               0000000000000181506-11               000012
100003608700788017020720120078801702072012               0000000000000181506-13               000013
100003608800788018020720120078801802072012               0000000000000181506-14               000014
100003608900788019020720120078801902072012               0000000000000181506-15               000015
100003609000788020020720120078802002072012               0000000000000181506-19               000016
100003609500788021020720120078802102072012               0000000000000181506-20               000017
100003610700788022020720120078802202072012               0000000000000181508-1                000018
100003610800788023020720120078802302072012               0000000000000181508-2                000019
100003610900788024020720120078802402072012               0000000000000181508-3                000020
100003611900788025020720120078802502072012               0000000000000181509-1                000021
100003612000788026020720120078802602072012               0000000000000181509-2                000022
100003612100788027020720120078802702072012               0000000000000181509-6                000023
100003612200788028020720120078802802072012               0000000000000181509-10               000024
100003612300788029020720120078802902072012               0000000000000181509-13               000025
100003612400788030020720120078803002072012               0000000000000181509-14               000026
100003612500788031020720120078803102072012               0000000000000181509-16               000027
100003612600788032020720120078803202072012               0000000000000181509-22               000028
100003612700788033020720120078803302072012               0000000000000181509-24               000029
100003612800788034020720120078803402072012               0000000000000181509-25               000030
100003613200788035020720120078803502072012               0000000000000181509-26               000031
100003613300788036020720120078803602072012               0000000000000181509-27               000032
100003613400788037020720120078803702072012               0000000000000181509-28               000033
100003614900788038020720120078803802072012               0000000000000181509-29               000034
100003615000788039020720120078803902072012               0000000000000181509-32               000035
100003615100788040020720120078804002072012               0000000000000181509-34               000036
100003615200788041020720120078804102072012               0000000000000181509-36               000037
100003615300788042020720120078804202072012               0000000000000181509-39               000038
100003615400788043020720120078804302072012               0000000000000181509-43               000039
100003615500788044020720120078804402072012               0000000000000181509-46               000040
100003615600788045020720120078804502072012               0000000000000181509-50               000041
100003598300788046020720120078804602072012               0000000000000181510-1                000042
100003598400788047020720120078804702072012               0000000000000181510-2                000043
100003598500788048020720120078804802072012               0000000000000181510-3                000044
100003598800788049020720120078804902072012               0000000000000181510-4                000045
100003598900788050020720120078805002072012               0000000000000181510-5                000046
100003599000788051020720120078805102072012               0000000000000181510-6                000047
100003599100788052020720120078805202072012               0000000000000181510-7                000048
100003599300788053020720120078805302072012               0000000000000181510-8                000049
100003599800788054020720120078805402072012               0000000000000181510-9                000050
100003599900788055020720120078805502072012               0000000000000181510-10               000051
100003611300788056020720120078805602072012               0000000000000181510-11               000052
100003615700788057020720120078805702072012               0000000000000181510-12               000053
100003615800788058020720120078805802072012               0000000000000181510-13               000054
100003615900788059020720120078805902072012               0000000000000181510-14               000055
100003616000788060020720120078806002072012               0000000000000181510-15               000056
100003616100788061020720120078806102072012               0000000000000181510-17               000057
100003616800788062020720120078806202072012               0000000000000181510-18               000058
100003616900788063020720120078806302072012               0000000000000181510-19               000059
100003617200788064020720120078806402072012               0000000000000181510-20               000060
9000059                                                                                       000061
