0RETORNONOTIFICAÇÃO ELETRONICA        17082011CONF                                            000001
100002948300595148160820110059514816082011               0000000000000140762-1                000002
100002949600595149160820110059514916082011               0000000000000140762-2                000003
100002955500595150160820110059515016082011               0000000000000140762-3                000004
100002955600595151160820110059515116082011               0000000000000140762-4                000005
100002955700595152160820110059515216082011               0000000000000140762-5                000006
100002955800595153160820110059515316082011               0000000000000140762-6                000007
100002955900595154160820110059515416082011               0000000000000140762-7                000008
100002956000595155160820110059515516082011               0000000000000140762-9                000009
100002957200595156160820110059515616082011               0000000000000140762-11               000010
100002957800595157160820110059515716082011               0000000000000140762-12               000011
100002957900595158160820110059515816082011               0000000000000140762-13               000012
100002958000595159160820110059515916082011               0000000000000140762-14               000013
100002958100595160160820110059516016082011               0000000000000140762-15               000014
100002938600595161160820110059516116082011               0000000000000140966-1                000015
100002958200595162160820110059516216082011               0000000000000140966-2                000016
100002958300595163160820110059516316082011               0000000000000140966-3                000017
100002958400595164160820110059516416082011               0000000000000140966-4                000018
9000017                                                                                       000019
