0RETORNONOTIFICAÇÃO ELETRONICA        20102010CONF                                            000001
100002459200403166191020100040316619102010               0000000000000113627-1                000002
100002460700403167191020100040316719102010               0000000000000113627-2                000003
100002462500403168191020100040316819102010               0000000000000113627-3                000004
100002462600403169191020100040316919102010               0000000000000113627-4                000005
100002462700403170191020100040317019102010               0000000000000113627-5                000006
100002462800403171191020100040317119102010               0000000000000113627-6                000007
100002463100403172191020100040317219102010               0000000000000113627-7                000008
100002464300403173191020100040317319102010               0000000000000113627-8                000009
100002464400403174191020100040317419102010               0000000000000113627-9                000010
100002464800403175191020100040317519102010               0000000000000113627-10               000011
100002464900403176191020100040317619102010               0000000000000113627-11               000012
9000011                                                                                       000013
