0RETORNONOTIFICAÇÃO ELETRONICA        01102012CONF                                            000001
100003783000834271280920120083427128092012               0000000000000196317-1                000002
100003783100834272280920120083427228092012               0000000000000196317-2                000003
100003783200834273280920120083427328092012               0000000000000196317-3                000004
100003783300834274280920120083427428092012               0000000000000196317-4                000005
100003783400834275280920120083427528092012               0000000000000196317-5                000006
100003785100834276280920120083427628092012               0000000000000196317-6                000007
100003785200834277280920120083427728092012               0000000000000196320-1                000008
100003785300834278280920120083427828092012               0000000000000196320-3                000009
100003785900834279280920120083427928092012               0000000000000196322-1                000010
100003786500834280280920120083428028092012               0000000000000196322-2                000011
100003786600834281280920120083428128092012               0000000000000196322-3                000012
100003786700834282280920120083428228092012               0000000000000196322-4                000013
100003786800834283280920120083428328092012               0000000000000196322-5                000014
100003786900834284280920120083428428092012               0000000000000196322-6                000015
100003787000834285280920120083428528092012               0000000000000196322-7                000016
100003787100834286280920120083428628092012               0000000000000196322-8                000017
100003787200834287280920120083428728092012               0000000000000196322-9                000018
100003787300834288280920120083428828092012               0000000000000196322-10               000019
100003787700834289280920120083428928092012               0000000000000196322-11               000020
9000019                                                                                       000021
