0RETORNONOTIFICAÇÃO ELETRONICA        05092011CONF                                            000001
100002987400616694020920110061669402092011               0000000000000143116-1                000002
100002987500616695020920110061669502092011               0000000000000143116-2                000003
100002988300616696020920110061669602092011               0000000000000143116-3                000004
100002988500616697020920110061669702092011               0000000000000143116-4                000005
100002988800616698020920110061669802092011               0000000000000143116-5                000006
100002989200616699020920110061669902092011               0000000000000143116-6                000007
100002989300616700020920110061670002092011               0000000000000143116-7                000008
100002989600616701020920110061670102092011               0000000000000143116-8                000009
100002990400616702020920110061670202092011               0000000000000143116-9                000010
100002990500616703020920110061670302092011               0000000000000143116-10               000011
100002990600616704020920110061670402092011               0000000000000143116-11               000012
100002991800616705020920110061670502092011               0000000000000143116-12               000013
100002992900616706020920110061670602092011               0000000000000143116-13               000014
100002993900616707020920110061670702092011               0000000000000143116-14               000015
100002996700616708020920110061670802092011               0000000000000143116-15               000016
100002996800616709020920110061670902092011               0000000000000143116-16               000017
100002996900616710020920110061671002092011               0000000000000143116-17               000018
100002997200616711020920110061671102092011               0000000000000143116-18               000019
9000018                                                                                       000020
