0RETORNONOTIFICAÇÃO ELETRONICA        09102014CONF                                            000001
100004986201346156081020140134615608102014               0000000000000326432-1                000002
100004986301346157081020140134615708102014               0000000000000326432-2                000003
100004986401346158081020140134615808102014               0000000000000326432-4                000004
100004986501346159081020140134615908102014               0000000000000326432-5                000005
100004987201346160081020140134616008102014               0000000000000326432-6                000006
9000005                                                                                       000007
