0RETORNONOTIFICAÇÃO ELETRONICA        03112014CONF                                            000001
100004994401360894291020140136089429102014               0000000000000329383-1                000002
100004995301360895291020140136089529102014               0000000000000329845-1                000003
100004995401360896291020140136089629102014               0000000000000329845-2                000004
100004995701360897291020140136089729102014               0000000000000329845-8                000005
100004995801360898291020140136089829102014               0000000000000329845-13               000006
100004996101360905291020140136090529102014               0000000000000329920-1                000007
100004996201360906291020140136090629102014               0000000000000329920-2                000008
100004996301360907291020140136090729102014               0000000000000329920-4                000009
100004996401360908291020140136090829102014               0000000000000329920-5                000010
100004996501360909291020140136090929102014               0000000000000329920-6                000011
100004996601360910291020140136091029102014               0000000000000329920-7                000012
100004996701360911291020140136091129102014               0000000000000329920-8                000013
100004996801360912291020140136091229102014               0000000000000329920-9                000014
100004996901360913291020140136091329102014               0000000000000329920-10               000015
100004997201360914291020140136091429102014               0000000000000329920-11               000016
100004997401362363311020140136236331102014               0000000000000330269-1                000017
100004997501362364311020140136236431102014               0000000000000330269-2                000018
100004997601362365311020140136236531102014               0000000000000330269-3                000019
100004997701362366311020140136236631102014               0000000000000330269-4                000020
100004997801362367311020140136236731102014               0000000000000330269-5                000021
100004998901362368311020140136236831102014               0000000000000330617-1                000022
100004999001362369311020140136236931102014               0000000000000330617-2                000023
100004999101362370311020140136237031102014               0000000000000330617-3                000024
100004999201362371311020140136237131102014               0000000000000330617-9                000025
100004999301362372311020140136237231102014               0000000000000330617-15               000026
9000025                                                                                       000027
