0RETORNONOTIFICAÇÃO ELETRONICA        22102012CONF                                            000001
100003819700842751181020120084275118102012               0000000000000199700-1                000002
100003820200842752181020120084275218102012               0000000000000199700-2                000003
100003821100842753181020120084275318102012               0000000000000199700-3                000004
100003821200842754181020120084275418102012               0000000000000199700-5                000005
100003821300842755181020120084275518102012               0000000000000199700-6                000006
100003821400842756181020120084275618102012               0000000000000199700-7                000007
100003821500842757181020120084275718102012               0000000000000199700-11               000008
100003821600842758181020120084275818102012               0000000000000199700-12               000009
100003822800842759181020120084275918102012               0000000000000199700-13               000010
100003800700842760181020120084276018102012               0000000000000199703-1                000011
100003815200842761181020120084276118102012               0000000000000199703-2                000012
100003820700842762181020120084276218102012               0000000000000199703-3                000013
100003823100842763181020120084276318102012               0000000000000199703-4                000014
100003823200842764181020120084276418102012               0000000000000199703-5                000015
100003823300842765181020120084276518102012               0000000000000199703-6                000016
100003823400842766181020120084276618102012               0000000000000199703-7                000017
100003823500842767181020120084276718102012               0000000000000199703-8                000018
100003823600842768181020120084276818102012               0000000000000199703-9                000019
100003823700842769181020120084276918102012               0000000000000199703-10               000020
100003825900842770181020120084277018102012               0000000000000199712-1                000021
100003826000842771181020120084277118102012               0000000000000199712-2                000022
100003826100842772181020120084277218102012               0000000000000199712-4                000023
100003826200842773181020120084277318102012               0000000000000199712-5                000024
100003826300842774181020120084277418102012               0000000000000199712-6                000025
100003826400842775181020120084277518102012               0000000000000199712-7                000026
100003826500842776181020120084277618102012               0000000000000199712-8                000027
100003826600842777181020120084277718102012               0000000000000199712-15               000028
9000027                                                                                       000029
