0RETORNONOTIFICAÇÃO ELETRONICA        02042012CONF                                            000001
100003456000742240300320120074224030032012               0000000000000168895-1                000002
100003456100742241300320120074224130032012               0000000000000168895-2                000003
100003456200742242300320120074224230032012               0000000000000168895-3                000004
100003456300742243300320120074224330032012               0000000000000168895-4                000005
100003456400742244300320120074224430032012               0000000000000168895-5                000006
100003456500742245300320120074224530032012               0000000000000168895-6                000007
100003456600742246300320120074224630032012               0000000000000168895-7                000008
100003456700742247300320120074224730032012               0000000000000168895-8                000009
100003457800742248300320120074224830032012               0000000000000168895-9                000010
100003457900742249300320120074224930032012               0000000000000168895-10               000011
9000010                                                                                       000012
