0RETORNONOTIFICAÇÃO ELETRONICA        09052011CONF                                            000001
100002744900531462060520110053146206052011               0000000000000129734-1                000002
100002745000531463060520110053146306052011               0000000000000129734-2                000003
100002745100531464060520110053146406052011               0000000000000129734-3                000004
100002745200531465060520110053146506052011               0000000000000129734-4                000005
100002745300531466060520110053146606052011               0000000000000129734-5                000006
100002746000531467060520110053146706052011               0000000000000129734-6                000007
100002746100531468060520110053146806052011               0000000000000129734-7                000008
100002746500531469060520110053146906052011               0000000000000129734-8                000009
9000008                                                                                       000010
