0RETORNONOTIFICAÇÃO ELETRONICA        25042012CONF                                            000001
100003488400752635240420120075263524042012               0000000000000171808-1                000002
100003488500752636240420120075263624042012               0000000000000171808-2                000003
100003488600752637240420120075263724042012               0000000000000171808-4                000004
100003488700752638240420120075263824042012               0000000000000171808-5                000005
100003488800752639240420120075263924042012               0000000000000171808-7                000006
100003488900752640240420120075264024042012               0000000000000171808-8                000007
100003489000752641240420120075264124042012               0000000000000171808-9                000008
100003489300752642240420120075264224042012               0000000000000171808-10               000009
100003489400752643240420120075264324042012               0000000000000171808-11               000010
100003489500752644240420120075264424042012               0000000000000171808-12               000011
100003490300752645240420120075264524042012               0000000000000171808-13               000012
100003490400752646240420120075264624042012               0000000000000171808-23               000013
100003490500752647240420120075264724042012               0000000000000171808-30               000014
100003490600752648240420120075264824042012               0000000000000171808-34               000015
100003490700752649240420120075264924042012               0000000000000171808-37               000016
100003490800752650240420120075265024042012               0000000000000171808-38               000017
100003490900752651240420120075265124042012               0000000000000171808-39               000018
100003491000752652240420120075265224042012               0000000000000171808-40               000019
100003491100752653240420120075265324042012               0000000000000171808-43               000020
100003491200752654240420120075265424042012               0000000000000171808-46               000021
100003491300752655240420120075265524042012               0000000000000171808-50               000022
100003491400752656240420120075265624042012               0000000000000171808-57               000023
100003491500752657240420120075265724042012               0000000000000171816-1                000024
100003491600752658240420120075265824042012               0000000000000171816-2                000025
100003491700752659240420120075265924042012               0000000000000171816-3                000026
100003491800752660240420120075266024042012               0000000000000171816-4                000027
100003491900752661240420120075266124042012               0000000000000171816-5                000028
100003492100752662240420120075266224042012               0000000000000171816-6                000029
100003492800752663240420120075266324042012               0000000000000171816-7                000030
100003492900752664240420120075266424042012               0000000000000171816-8                000031
100003493000752665240420120075266524042012               0000000000000171816-9                000032
100003493400752666240420120075266624042012               0000000000000171816-10               000033
100003493800752667240420120075266724042012               0000000000000171816-11               000034
100003493900752668240420120075266824042012               0000000000000171816-12               000035
100003496300752669240420120075266924042012               0000000000000171816-13               000036
100003496400752670240420120075267024042012               0000000000000171816-14               000037
9000036                                                                                       000038
