0RETORNONOTIFICAÇÃO ELETRONICA        25092014CONF                                            000001
100004911601327462170920140132746217092014FA294545557BR  0000022092014321884-1                000002
100004912501327463170920140132746317092014               0000000000000322528-1                000003
100004912601327464170920140132746417092014FA294545574BR  0000024092014322528-3                000004
100004912701327465170920140132746517092014FA294545588BR  0000022092014322528-4                000005
100004914101328960190920140132896019092014               0000000000000322758-1                000006
100004914201328961190920140132896119092014               0000000000000322758-2                000007
100004914301328962190920140132896219092014               0000000000000322758-4                000008
100004915001328963190920140132896319092014               0000000000000323001-1                000009
100004915101328964190920140132896419092014               0000000000000323001-2                000010
100004915201328965190920140132896519092014               0000000000000323001-3                000011
100004915301328966190920140132896619092014               0000000000000323001-5                000012
100004911301330264220920140133026422092014               0000000000000323347-1                000013
100004911901330265220920140133026522092014               0000000000000323347-2                000014
100004917401330266220920140133026622092014               0000000000000323347-3                000015
100004917501330267220920140133026722092014               0000000000000323347-4                000016
100004917601330268220920140133026822092014               0000000000000323347-5                000017
100004917701330269220920140133026922092014               0000000000000323347-6                000018
100004917801330270220920140133027022092014               0000000000000323347-7                000019
100004917901330271220920140133027122092014               0000000000000323347-8                000020
100004918001330272220920140133027222092014               0000000000000323347-9                000021
100004914701331468230920140133146823092014               0000000000000323608-1                000022
100004916401331469230920140133146923092014               0000000000000323608-2                000023
100004919201331470230920140133147023092014               0000000000000323608-3                000024
100004919301331471230920140133147123092014               0000000000000323608-4                000025
100004919401331472230920140133147223092014               0000000000000323608-5                000026
100004919501331473230920140133147323092014               0000000000000323608-6                000027
100004919901331474230920140133147423092014               0000000000000323608-7                000028
100004920001331475230920140133147523092014               0000000000000323608-8                000029
100004920101331476230920140133147623092014               0000000000000323608-9                000030
100004920201331477230920140133147723092014               0000000000000323608-11               000031
100004920301331478230920140133147823092014               0000000000000323608-12               000032
100004920401331479230920140133147923092014               0000000000000323608-13               000033
100004920501331480230920140133148023092014               0000000000000323608-14               000034
100004920601331481230920140133148123092014               0000000000000323608-15               000035
100004920701331482230920140133148223092014               0000000000000323608-16               000036
100004920801331483230920140133148323092014               0000000000000323608-17               000037
100004920901331484230920140133148423092014               0000000000000323608-18               000038
100004921001331485230920140133148523092014               0000000000000323608-19               000039
100004921101331486230920140133148623092014               0000000000000323608-20               000040
100004921201331487230920140133148723092014               0000000000000323608-21               000041
100004921301331488230920140133148823092014               0000000000000323608-22               000042
100004921401331489230920140133148923092014               0000000000000323608-23               000043
100004921501331490230920140133149023092014               0000000000000323608-24               000044
100004921601331491230920140133149123092014               0000000000000323608-25               000045
100004921701331492230920140133149223092014               0000000000000323608-26               000046
100004921801331493230920140133149323092014               0000000000000323608-27               000047
100004921901331494230920140133149423092014               0000000000000323608-28               000048
100004922001331495230920140133149523092014               0000000000000323608-29               000049
100004922101331496230920140133149623092014               0000000000000323608-30               000050
100004922201331497230920140133149723092014               0000000000000323608-31               000051
100004922301331498230920140133149823092014               0000000000000323608-32               000052
100004922401331499230920140133149923092014               0000000000000323608-33               000053
100004922501331500230920140133150023092014               0000000000000323608-34               000054
100004922601331501230920140133150123092014               0000000000000323608-35               000055
100004922701331502230920140133150223092014               0000000000000323608-36               000056
100004922801331503230920140133150323092014               0000000000000323608-37               000057
100004922901331504230920140133150423092014               0000000000000323608-38               000058
100004923001331505230920140133150523092014               0000000000000323608-39               000059
100004923101331506230920140133150623092014               0000000000000323608-40               000060
100004923201331507230920140133150723092014               0000000000000323608-41               000061
100004923301331508230920140133150823092014               0000000000000323608-42               000062
100004923401331509230920140133150923092014               0000000000000323608-43               000063
100004923501331510230920140133151023092014               0000000000000323608-44               000064
100004923601331511230920140133151123092014               0000000000000323608-45               000065
100004923701331512230920140133151223092014               0000000000000323608-46               000066
100004923801331513230920140133151323092014               0000000000000323608-47               000067
100004923901331514230920140133151423092014               0000000000000323608-48               000068
100004924001331515230920140133151523092014               0000000000000323608-49               000069
100004924101331516230920140133151623092014               0000000000000323608-50               000070
100004924201331517230920140133151723092014               0000000000000323608-51               000071
100004924301331518230920140133151823092014               0000000000000323608-52               000072
100004924401331519230920140133151923092014               0000000000000323608-53               000073
100004924501331520230920140133152023092014               0000000000000323608-54               000074
100004924601331521230920140133152123092014               0000000000000323608-55               000075
100004924701331522230920140133152223092014               0000000000000323608-56               000076
100004924801331523230920140133152323092014               0000000000000323608-57               000077
100004924901331524230920140133152423092014               0000000000000323608-58               000078
100004925001331525230920140133152523092014               0000000000000323608-59               000079
100004925101331526230920140133152623092014               0000000000000323608-60               000080
100004925201331527230920140133152723092014               0000000000000323608-61               000081
100004925301331528230920140133152823092014               0000000000000323608-62               000082
100004925401331529230920140133152923092014               0000000000000323608-63               000083
100004925501331530230920140133153023092014               0000000000000323608-64               000084
100004925601331531230920140133153123092014               0000000000000323608-65               000085
100004925701331532230920140133153223092014               0000000000000323608-66               000086
100004925801331533230920140133153323092014               0000000000000323608-67               000087
100004925901331534230920140133153423092014               0000000000000323608-68               000088
100004926001331535230920140133153523092014               0000000000000323608-69               000089
100004926101331536230920140133153623092014               0000000000000323608-70               000090
100004926201331537230920140133153723092014               0000000000000323608-71               000091
100004926301331538230920140133153823092014               0000000000000323608-72               000092
100004926401331539230920140133153923092014               0000000000000323608-73               000093
100004926501331540230920140133154023092014               0000000000000323608-74               000094
100004926601331541230920140133154123092014               0000000000000323608-75               000095
100004926701331542230920140133154223092014               0000000000000323608-76               000096
100004926801331543230920140133154323092014               0000000000000323608-77               000097
100004926901331544230920140133154423092014               0000000000000323608-78               000098
100004927001331545230920140133154523092014               0000000000000323608-79               000099
100004927101331546230920140133154623092014               0000000000000323608-80               000100
100004927201331547230920140133154723092014               0000000000000323608-81               000101
100004927301331548230920140133154823092014               0000000000000323608-82               000102
100004927401331549230920140133154923092014               0000000000000323608-83               000103
100004927501331550230920140133155023092014               0000000000000323608-84               000104
100004927601331551230920140133155123092014               0000000000000323608-85               000105
100004927701331552230920140133155223092014               0000000000000323608-86               000106
100004927801331553230920140133155323092014               0000000000000323608-87               000107
100004927901331554230920140133155423092014               0000000000000323608-88               000108
100004928001331555230920140133155523092014               0000000000000323608-89               000109
100004928101331556230920140133155623092014               0000000000000323608-90               000110
100004928201331557230920140133155723092014               0000000000000323608-91               000111
100004928301331558230920140133155823092014               0000000000000323608-92               000112
100004928401331559230920140133155923092014               0000000000000323608-93               000113
100004928501331560230920140133156023092014               0000000000000323608-94               000114
100004928601331561230920140133156123092014               0000000000000323608-95               000115
100004928701331562230920140133156223092014               0000000000000323608-96               000116
100004928801331563230920140133156323092014               0000000000000323608-97               000117
100004928901331564230920140133156423092014               0000000000000323608-98               000118
100004929001331565230920140133156523092014               0000000000000323608-99               000119
100004929101331566230920140133156623092014               0000000000000323608-100              000120
100004929201331567230920140133156723092014               0000000000000323608-101              000121
100004929301331568230920140133156823092014               0000000000000323608-102              000122
100004929401331569230920140133156923092014               0000000000000323608-103              000123
100004929501331570230920140133157023092014               0000000000000323608-104              000124
100004929601331571230920140133157123092014               0000000000000323608-105              000125
100004929701331572230920140133157223092014               0000000000000323608-106              000126
100004929801331573230920140133157323092014               0000000000000323608-107              000127
100004929901331574230920140133157423092014               0000000000000323608-108              000128
100004930001331575230920140133157523092014               0000000000000323608-109              000129
100004930101331576230920140133157623092014               0000000000000323608-110              000130
100004930201331577230920140133157723092014               0000000000000323608-111              000131
100004930301331578230920140133157823092014               0000000000000323608-112              000132
100004930401331579230920140133157923092014               0000000000000323608-113              000133
100004930501331580230920140133158023092014               0000000000000323608-114              000134
100004930601331581230920140133158123092014               0000000000000323608-115              000135
100004930701331582230920140133158223092014               0000000000000323608-116              000136
100004930801331583230920140133158323092014               0000000000000323608-117              000137
100004930901331584230920140133158423092014               0000000000000323608-118              000138
100004931001331585230920140133158523092014               0000000000000323608-119              000139
100004931101331586230920140133158623092014               0000000000000323608-120              000140
100004931201331587230920140133158723092014               0000000000000323608-121              000141
100004931301331588230920140133158823092014               0000000000000323608-122              000142
100004931401331589230920140133158923092014               0000000000000323608-123              000143
100004931501331590230920140133159023092014               0000000000000323608-124              000144
100004931601331591230920140133159123092014               0000000000000323608-125              000145
100004931701331592230920140133159223092014               0000000000000323608-126              000146
100004931801331593230920140133159323092014               0000000000000323608-127              000147
100004931901331594230920140133159423092014               0000000000000323608-128              000148
100004932001331595230920140133159523092014               0000000000000323608-129              000149
100004932101331596230920140133159623092014               0000000000000323608-130              000150
100004932201331597230920140133159723092014               0000000000000323608-131              000151
100004932301331598230920140133159823092014               0000000000000323608-132              000152
100004932401331599230920140133159923092014               0000000000000323608-133              000153
100004932501331600230920140133160023092014               0000000000000323608-134              000154
100004932601331601230920140133160123092014               0000000000000323608-135              000155
100004932701331602230920140133160223092014               0000000000000323608-136              000156
100004932801331603230920140133160323092014               0000000000000323608-137              000157
100004932901331604230920140133160423092014               0000000000000323608-138              000158
100004933001331605230920140133160523092014               0000000000000323608-139              000159
100004933101331606230920140133160623092014               0000000000000323608-140              000160
100004933201331607230920140133160723092014               0000000000000323608-141              000161
100004933301331608230920140133160823092014               0000000000000323608-142              000162
100004933401331609230920140133160923092014               0000000000000323608-143              000163
100004933501331610230920140133161023092014               0000000000000323608-144              000164
100004933601331611230920140133161123092014               0000000000000323608-145              000165
100004933701331612230920140133161223092014               0000000000000323608-146              000166
100004933801331613230920140133161323092014               0000000000000323608-147              000167
100004933901331614230920140133161423092014               0000000000000323608-148              000168
100004934001331615230920140133161523092014               0000000000000323608-149              000169
100004934101331616230920140133161623092014               0000000000000323608-150              000170
100004934201331617230920140133161723092014               0000000000000323608-151              000171
100004934301331618230920140133161823092014               0000000000000323608-152              000172
100004934401331619230920140133161923092014               0000000000000323608-153              000173
100004934501331620230920140133162023092014               0000000000000323608-154              000174
100004934601331621230920140133162123092014               0000000000000323608-155              000175
100004934701331622230920140133162223092014               0000000000000323608-156              000176
100004934801331623230920140133162323092014               0000000000000323608-157              000177
100004934901331624230920140133162423092014               0000000000000323608-158              000178
100004935001331625230920140133162523092014               0000000000000323608-159              000179
100004935101331626230920140133162623092014               0000000000000323608-160              000180
100004935201331627230920140133162723092014               0000000000000323608-161              000181
100004935301331628230920140133162823092014               0000000000000323608-162              000182
100004935401331629230920140133162923092014               0000000000000323608-163              000183
100004935501331630230920140133163023092014               0000000000000323608-164              000184
100004935601331631230920140133163123092014               0000000000000323608-165              000185
100004935701331632230920140133163223092014               0000000000000323608-166              000186
100004935801331633230920140133163323092014               0000000000000323608-167              000187
100004935901331634230920140133163423092014               0000000000000323608-168              000188
100004936001331635230920140133163523092014               0000000000000323608-169              000189
100004936101331636230920140133163623092014               0000000000000323608-170              000190
100004936201331637230920140133163723092014               0000000000000323608-171              000191
100004936301331638230920140133163823092014               0000000000000323608-172              000192
100004936401331639230920140133163923092014               0000000000000323608-173              000193
100004936501331640230920140133164023092014               0000000000000323608-174              000194
100004936601331641230920140133164123092014               0000000000000323608-175              000195
100004936701331642230920140133164223092014               0000000000000323608-176              000196
100004936801331643230920140133164323092014               0000000000000323608-177              000197
100004936901331644230920140133164423092014               0000000000000323608-178              000198
100004937001331645230920140133164523092014               0000000000000323608-179              000199
100004937101331646230920140133164623092014               0000000000000323608-180              000200
100004937201331647230920140133164723092014               0000000000000323608-181              000201
100004937301331648230920140133164823092014               0000000000000323608-182              000202
100004937401331649230920140133164923092014               0000000000000323608-183              000203
100004937501331650230920140133165023092014               0000000000000323608-184              000204
100004937601331651230920140133165123092014               0000000000000323608-185              000205
100004937701331652230920140133165223092014               0000000000000323608-186              000206
100004937801331653230920140133165323092014               0000000000000323608-187              000207
100004937901331654230920140133165423092014               0000000000000323608-188              000208
100004938001331655230920140133165523092014               0000000000000323608-189              000209
100004938101331656230920140133165623092014               0000000000000323608-190              000210
100004938201331657230920140133165723092014               0000000000000323608-191              000211
100004938301331658230920140133165823092014               0000000000000323608-192              000212
100004938401331659230920140133165923092014               0000000000000323608-193              000213
100004938501331660230920140133166023092014               0000000000000323608-194              000214
100004938601331661230920140133166123092014               0000000000000323608-195              000215
100004938701331662230920140133166223092014               0000000000000323608-196              000216
100004938801331663230920140133166323092014               0000000000000323608-197              000217
100004938901331664230920140133166423092014               0000000000000323608-198              000218
100004939001331665230920140133166523092014               0000000000000323608-199              000219
100004939101331666230920140133166623092014               0000000000000323608-200              000220
100004939201331667230920140133166723092014               0000000000000323608-201              000221
100004939301331668230920140133166823092014               0000000000000323608-202              000222
100004939401331669230920140133166923092014               0000000000000323608-203              000223
100004939501331670230920140133167023092014               0000000000000323608-204              000224
100004939601331671230920140133167123092014               0000000000000323608-205              000225
100004939701331672230920140133167223092014               0000000000000323608-206              000226
100004939801331673230920140133167323092014               0000000000000323608-207              000227
100004939901331674230920140133167423092014               0000000000000323608-208              000228
100004940001331675230920140133167523092014               0000000000000323608-209              000229
100004940101331676230920140133167623092014               0000000000000323608-210              000230
100004940201331677230920140133167723092014               0000000000000323608-211              000231
100004940301331678230920140133167823092014               0000000000000323608-212              000232
100004940401331679230920140133167923092014               0000000000000323608-213              000233
100004940501331680230920140133168023092014               0000000000000323608-214              000234
100004940601331681230920140133168123092014               0000000000000323608-215              000235
100004940701331682230920140133168223092014               0000000000000323608-216              000236
100004940801331683230920140133168323092014               0000000000000323608-217              000237
100004940901331684230920140133168423092014               0000000000000323608-218              000238
100004941001331685230920140133168523092014               0000000000000323608-219              000239
100004941101331686230920140133168623092014               0000000000000323608-220              000240
100004941201331687230920140133168723092014               0000000000000323608-221              000241
100004941301331688230920140133168823092014               0000000000000323608-222              000242
100004941401331689230920140133168923092014               0000000000000323608-223              000243
100004941501331690230920140133169023092014               0000000000000323608-224              000244
100004941601331691230920140133169123092014               0000000000000323608-225              000245
100004941701331692230920140133169223092014               0000000000000323608-226              000246
100004941801331693230920140133169323092014               0000000000000323608-227              000247
100004941901331694230920140133169423092014               0000000000000323608-228              000248
100004942001331695230920140133169523092014               0000000000000323608-229              000249
100004942101331696230920140133169623092014               0000000000000323608-230              000250
100004942201331697230920140133169723092014               0000000000000323608-231              000251
100004942301331698230920140133169823092014               0000000000000323608-232              000252
100004942401331699230920140133169923092014               0000000000000323608-233              000253
100004942501331700230920140133170023092014               0000000000000323608-234              000254
100004942601331701230920140133170123092014               0000000000000323608-235              000255
100004942701331702230920140133170223092014               0000000000000323608-236              000256
100004942801331703230920140133170323092014               0000000000000323608-237              000257
100004942901331704230920140133170423092014               0000000000000323608-238              000258
100004943001331705230920140133170523092014               0000000000000323608-239              000259
100004943101331706230920140133170623092014               0000000000000323608-240              000260
100004943201331707230920140133170723092014               0000000000000323608-241              000261
100004943301331708230920140133170823092014               0000000000000323608-242              000262
100004943401331709230920140133170923092014               0000000000000323608-243              000263
100004943501331710230920140133171023092014               0000000000000323608-244              000264
100004943601331711230920140133171123092014               0000000000000323608-245              000265
100004943701331712230920140133171223092014               0000000000000323608-246              000266
100004943801331713230920140133171323092014               0000000000000323608-247              000267
100004943901331714230920140133171423092014               0000000000000323608-248              000268
100004944001331715230920140133171523092014               0000000000000323608-249              000269
100004944101331716230920140133171623092014               0000000000000323608-250              000270
100004944201331717230920140133171723092014               0000000000000323608-251              000271
100004944301331718230920140133171823092014               0000000000000323608-252              000272
100004944401331719230920140133171923092014               0000000000000323608-253              000273
100004944501331720230920140133172023092014               0000000000000323608-254              000274
100004944601331721230920140133172123092014               0000000000000323608-256              000275
100004944701331722230920140133172223092014               0000000000000323608-257              000276
100004944801331723230920140133172323092014               0000000000000323608-258              000277
100004944901331724230920140133172423092014               0000000000000323608-259              000278
100004945001331725230920140133172523092014               0000000000000323608-260              000279
100004945101331726230920140133172623092014               0000000000000323608-262              000280
100004945201331727230920140133172723092014               0000000000000323608-263              000281
100004945301331728230920140133172823092014               0000000000000323608-264              000282
100004945401331729230920140133172923092014               0000000000000323608-265              000283
100004945501331730230920140133173023092014               0000000000000323608-267              000284
100004945601331731230920140133173123092014               0000000000000323608-268              000285
100004945701331732230920140133173223092014               0000000000000323608-270              000286
100004945801331733230920140133173323092014               0000000000000323608-271              000287
100004945901331734230920140133173423092014               0000000000000323608-272              000288
100004946001331735230920140133173523092014               0000000000000323608-273              000289
100004946101331736230920140133173623092014               0000000000000323608-274              000290
100004946201331737230920140133173723092014               0000000000000323608-275              000291
100004946301331738230920140133173823092014               0000000000000323608-276              000292
100004946401331739230920140133173923092014               0000000000000323608-277              000293
100004946501331740230920140133174023092014               0000000000000323608-278              000294
100004946601331741230920140133174123092014               0000000000000323608-279              000295
100004946701331742230920140133174223092014               0000000000000323608-280              000296
100004946801331743230920140133174323092014               0000000000000323608-281              000297
100004946901331744230920140133174423092014               0000000000000323608-282              000298
100004947001331745230920140133174523092014               0000000000000323608-283              000299
100004947101331746230920140133174623092014               0000000000000323608-284              000300
100004947201331747230920140133174723092014               0000000000000323608-285              000301
100004947301331748230920140133174823092014               0000000000000323608-286              000302
100004947401331749230920140133174923092014               0000000000000323608-288              000303
100004947501331750230920140133175023092014               0000000000000323608-289              000304
100004947601331751230920140133175123092014               0000000000000323608-290              000305
100004947701331752230920140133175223092014               0000000000000323608-292              000306
100004947801331753230920140133175323092014               0000000000000323608-293              000307
100004947901331754230920140133175423092014               0000000000000323608-294              000308
100004948001331755230920140133175523092014               0000000000000323608-295              000309
100004948101331756230920140133175623092014               0000000000000323608-296              000310
100004948201331757230920140133175723092014               0000000000000323608-297              000311
100004948301331758230920140133175823092014               0000000000000323608-298              000312
100004948401331759230920140133175923092014               0000000000000323608-299              000313
100004948501331760230920140133176023092014               0000000000000323608-301              000314
100004948601331761230920140133176123092014               0000000000000323608-302              000315
100004948701331762230920140133176223092014               0000000000000323608-303              000316
100004948801331763230920140133176323092014               0000000000000323608-304              000317
100004948901331764230920140133176423092014               0000000000000323608-306              000318
100004949001331765230920140133176523092014               0000000000000323608-307              000319
100004949101331766230920140133176623092014               0000000000000323608-308              000320
100004949201331767230920140133176723092014               0000000000000323608-309              000321
100004949301331768230920140133176823092014               0000000000000323608-310              000322
100004949401331769230920140133176923092014               0000000000000323608-311              000323
100004949501331770230920140133177023092014               0000000000000323608-313              000324
100004949601331771230920140133177123092014               0000000000000323608-315              000325
100004949701331772230920140133177223092014               0000000000000323608-316              000326
100004949801331773230920140133177323092014               0000000000000323608-317              000327
100004949901331774230920140133177423092014               0000000000000323608-318              000328
100004950001331775230920140133177523092014               0000000000000323608-319              000329
9000328                                                                                       000330
