0RETORNONOTIFICAÇÃO ELETRONICA        30082011CONF                                            000001
100002979100613915290820110061391529082011               0000000000000142344-1                000002
100002979200613916290820110061391629082011               0000000000000142344-2                000003
100002979400613917290820110061391729082011               0000000000000142344-3                000004
100002979700613918290820110061391829082011               0000000000000142344-4                000005
100002980800613919290820110061391929082011               0000000000000142344-5                000006
100002981800613920290820110061392029082011               0000000000000142344-6                000007
100002982500613921290820110061392129082011               0000000000000142344-7                000008
100002982600613922290820110061392229082011               0000000000000142344-8                000009
100002983300613923290820110061392329082011               0000000000000142344-9                000010
100002983400613924290820110061392429082011               0000000000000142344-10               000011
100002983600613925290820110061392529082011               0000000000000142344-11               000012
100002983700613926290820110061392629082011               0000000000000142344-12               000013
9000012                                                                                       000014
