0RETORNONOTIFICAÇÃO ELETRONICA        31082011CONF                                            000001
100002978900615375300820110061537530082011               0000000000000142570-1                000002
100002980000615376300820110061537630082011               0000000000000142570-2                000003
100002983900615377300820110061537730082011               0000000000000142570-3                000004
100002984600615378300820110061537830082011               0000000000000142570-4                000005
100002984700615379300820110061537930082011               0000000000000142570-5                000006
100002985100615380300820110061538030082011               0000000000000142570-6                000007
100002985200615381300820110061538130082011               0000000000000142570-7                000008
100002986600615382300820110061538230082011               0000000000000142570-8                000009
100002994100615383300820110061538330082011               0000000000000142570-9                000010
100002994200615384300820110061538430082011               0000000000000142570-10               000011
100002994300615385300820110061538530082011               0000000000000142570-11               000012
100002994400615386300820110061538630082011               0000000000000142570-12               000013
100002994900615387300820110061538730082011               0000000000000142570-13               000014
100002995000615388300820110061538830082011               0000000000000142570-14               000015
100002995100615389300820110061538930082011               0000000000000142570-15               000016
9000015                                                                                       000017
