0RETORNONOTIFICAÇÃO ELETRONICA        21062011CONF                                            000001
100002782700546340300520110054634030052011JL014246278BR  0000006062011132077-1                000002
100002782800546341300520110054634130052011JL014246281BR  0000009062011132077-2                000003
100002783500546342300520110054634230052011JL014246295BR  0000814062011132077-3                000004
100002785200546343300520110054634330052011JL014246304BR  0000014062011132077-4                000005
100002785300547894010620110054789401062011JL014261451BR  0000007062011132213-1                000006
100002785400547895010620110054789501062011JL014261465BR  0000010062011132213-2                000007
100002785500547896010620110054789601062011JL014261479BR  0000010062011132213-3                000008
100002787100547897010620110054789701062011JL014261482BR  0000010062011132213-4                000009
100002787200547898010620110054789801062011JL014261496BR  0000017062011132213-5                000010
100002787300547899010620110054789901062011JL014261505BR  0000010062011132213-6                000011
100002787400547900010620110054790001062011JL014261519BR  0000010062011132213-7                000012
100002790000547901010620110054790101062011JL014261522BR  0000015062011132384-1                000013
100002787500547902010620110054790201062011JL014261536BR  0000010062011132384-5                000014
100002787600547903010620110054790301062011JL014261540BR  0000007062011132384-6                000015
100002787700547904010620110054790401062011JL014261553BR  0000010062011132384-7                000016
100002787800547905010620110054790501062011JL014261567BR  0000007062011132384-10               000017
100002787900547906010620110054790601062011JL014261575BR  0000007062011132384-11               000018
100002788000547907010620110054790701062011JL014261584BR  0000007062011132384-12               000019
100002788100547908010620110054790801062011JL014261598BR  0000007062011132384-14               000020
100002790100547909010620110054790901062011JL014261607BR  0000010062011132384-15               000021
100002790200547910010620110054791001062011JL014261615BR  0000010062011132384-19               000022
100002790300547911010620110054791101062011JL014261624BR  0000007062011132384-27               000023
100002790300548126010620110054812601062011JL014263262BR  0000007062011132384-48               000024
100002790400547912010620110054791201062011JL014261638BR  0000010062011132384-58               000025
100002790500547913010620110054791301062011JL014261641BR  0000010062011132384-61               000026
100002790600547914010620110054791401062011JL014261655BR  0000010062011132384-62               000027
100002790700547915010620110054791501062011JL014261669BR  0000717062011132384-64               000028
100002790800547916010620110054791601062011JL014261672BR  0000010062011132384-65               000029
100002790900547917010620110054791701062011JL014261686BR  0000010062011132384-67               000030
100002791000547918010620110054791801062011JL014261690BR  0000010062011132384-70               000031
100002791100547919010620110054791901062011JL014261709BR  0000014062011132384-72               000032
100002791200547920010620110054792001062011JL014261712BR  0000010062011132384-78               000033
100002791300547921010620110054792101062011JL014261726BR  0000015062011132384-87               000034
100002791400547922010620110054792201062011JL014261730BR  0000007062011132384-93               000035
100002791500547923010620110054792301062011JL014261743BR  0000013062011132384-97               000036
100002791600547924010620110054792401062011JL014261757BR  0000014062011132384-100              000037
100002791700547925010620110054792501062011JL014261765BR  0000013062011132384-106              000038
100002791800547926010620110054792601062011JL014261774BR  0000010062011132384-110              000039
100002791900547927010620110054792701062011JL014261788BR  0000014062011132384-113              000040
100002792000547928010620110054792801062011JL014261791BR  0000010062011132384-116              000041
100002792100547929010620110054792901062011JL014261805BR  0000010062011132384-124              000042
100002792200547930010620110054793001062011JL014261814BR  0000014062011132384-125              000043
100002792300547931010620110054793101062011JL014261828BR  0000015062011132384-126              000044
100002792400547932010620110054793201062011JL014261831BR  0000010062011132384-127              000045
100002792500547933010620110054793301062011JL014261845BR  0000010062011132384-128              000046
100002792600547934010620110054793401062011JL014261859BR  0000007062011132384-129              000047
100002792700547935010620110054793501062011JL014261862BR  0000014062011132384-130              000048
100002792800547936010620110054793601062011JL014261876BR  0000010062011132384-131              000049
100002792900547937010620110054793701062011JL014261880BR  0000010062011132384-132              000050
100002793000547938010620110054793801062011JL014261893BR  0000010062011132384-134              000051
100002793100547939010620110054793901062011JL014261902BR  0000010062011132384-135              000052
100002793200547940010620110054794001062011JL014261916BR  0000010062011132384-137              000053
100002793300547941010620110054794101062011JL014261920BR  0000010062011132384-138              000054
100002793400547942010620110054794201062011JL014261933BR  0000010062011132384-139              000055
100002793500547943010620110054794301062011JL014261947BR  0000010062011132384-140              000056
100002793600547944010620110054794401062011               0000000000000132384-142              000057
100002793700547945010620110054794501062011JL014261964BR  0000013062011132384-144              000058
100002793800547946010620110054794601062011JL014261978BR  0000015062011132384-146              000059
100002793900547947010620110054794701062011JL014261981BR  0000013062011132384-149              000060
100002794000547948010620110054794801062011JL014261995BR  0000007062011132384-150              000061
100002794100547949010620110054794901062011JL014262001BR  0000010062011132535-1                000062
100002794200547950010620110054795001062011JL014262015BR  0000007062011132535-2                000063
100002794300547951010620110054795101062011JL014262029BR  0000010062011132535-3                000064
100002794400547952010620110054795201062011JL014262032BR  0000007062011132535-6                000065
9000064                                                                                       000066
