0RETORNONOTIFICAÇÃO ELETRONICA        15052012CONF                                            000001
100003531200762175140520120076217514052012               0000000000000174510-1                000002
100003531300762176140520120076217614052012               0000000000000174510-2                000003
100003531400762177140520120076217714052012               0000000000000174510-3                000004
100003531500762178140520120076217814052012               0000000000000174510-4                000005
9000004                                                                                       000006
