0RETORNONOTIFICAÇÃO ELETRONICA        09102012CONF                                            000001
100003801300839659081020120083965908102012               0000000000000197375-1                000002
100003801400839660081020120083966008102012               0000000000000197375-2                000003
100003801500839661081020120083966108102012               0000000000000197375-3                000004
100003801600839662081020120083966208102012               0000000000000197375-4                000005
100003802200839663081020120083966308102012               0000000000000197375-5                000006
100003802600839664081020120083966408102012               0000000000000197375-6                000007
100003802900839665081020120083966508102012               0000000000000197375-7                000008
100003803000839666081020120083966608102012               0000000000000197375-8                000009
100003803300839667081020120083966708102012               0000000000000197375-9                000010
100003803500839668081020120083966808102012               0000000000000197375-10               000011
100003798500839669081020120083966908102012               0000000000000197387-1                000012
100003798700839670081020120083967008102012               0000000000000197387-2                000013
100003798800839671081020120083967108102012               0000000000000197387-3                000014
100003798900839672081020120083967208102012               0000000000000197387-4                000015
100003803600839673081020120083967308102012               0000000000000197387-5                000016
100003803700839674081020120083967408102012               0000000000000197387-6                000017
100003803800839675081020120083967508102012               0000000000000197387-7                000018
100003803900839676081020120083967608102012               0000000000000197387-8                000019
100003804000839677081020120083967708102012               0000000000000197387-9                000020
100003804300839678081020120083967808102012               0000000000000197387-10               000021
100003804400839679081020120083967908102012               0000000000000197387-11               000022
100003804500839680081020120083968008102012               0000000000000197387-12               000023
100003805700839681081020120083968108102012               0000000000000197387-13               000024
100003805800839682081020120083968208102012               0000000000000197387-14               000025
100003805900839683081020120083968308102012               0000000000000197387-15               000026
100003806000839684081020120083968408102012               0000000000000197387-16               000027
100003806300839685081020120083968508102012               0000000000000197387-17               000028
9000027                                                                                       000029
