0RETORNONOTIFICAÇÃO ELETRONICA        13082013CONF                                            000001
100004344101013893120820130101389312082013               0000000000000250656-1                000002
100004345201013894120820130101389412082013               0000000000000250781-1                000003
100004346101013895120820130101389512082013               0000000000000250781-2                000004
100004345901013896120820130101389612082013               0000000000000250781-3                000005
100004346201013897120820130101389712082013               0000000000000250781-4                000006
100004346301013898120820130101389812082013               0000000000000250781-5                000007
100004344601013899120820130101389912082013               0000000000000250781-6                000008
100004346001013900120820130101390012082013               0000000000000250781-7                000009
100004347801013901120820130101390112082013               0000000000000251000-1                000010
9000009                                                                                       000011
