0RETORNONOTIFICAÇÃO ELETRONICA        09092011CONF                                            000001
100002993400621276080920110062127608092011               0000000000000143513-1                000002
100002999000621277080920110062127708092011               0000000000000143513-2                000003
100002999100621278080920110062127808092011               0000000000000143513-3                000004
100002999200621279080920110062127908092011               0000000000000143513-4                000005
100002999300621280080920110062128008092011               0000000000000143513-5                000006
100002999400621281080920110062128108092011               0000000000000143513-6                000007
100002999500621282080920110062128208092011               0000000000000143513-7                000008
100002999700621283080920110062128308092011               0000000000000143513-8                000009
100002999800621284080920110062128408092011               0000000000000143513-9                000010
100002999900621285080920110062128508092011               0000000000000143513-10               000011
100003000000621286080920110062128608092011               0000000000000143513-11               000012
100002996500621287080920110062128708092011               0000000000000143678-1                000013
100002997000621288080920110062128808092011               0000000000000143678-2                000014
100003000100621289080920110062128908092011               0000000000000143678-3                000015
100003000200621290080920110062129008092011               0000000000000143678-5                000016
100003000300621291080920110062129108092011               0000000000000143678-7                000017
100003000400621292080920110062129208092011               0000000000000143678-8                000018
100003000500621293080920110062129308092011               0000000000000143678-11               000019
100003000600621294080920110062129408092011               0000000000000143678-12               000020
100003000800621295080920110062129508092011               0000000000000143678-14               000021
100003000900621296080920110062129608092011               0000000000000143678-21               000022
9000021                                                                                       000023
