0RETORNONOTIFICAÇÃO ELETRONICA        14122010CONF                                            000001
100002537700437115141220100043711514122010               0000000000000117754-1                000002
100002539800437116141220100043711614122010               0000000000000117754-2                000003
100002539900437117141220100043711714122010               0000000000000117754-3                000004
100002540000437118141220100043711814122010               0000000000000117754-4                000005
100002540100437119141220100043711914122010               0000000000000117754-5                000006
100002540200437120141220100043712014122010               0000000000000117754-7                000007
100002540300437121141220100043712114122010               0000000000000117754-8                000008
100002540400437122141220100043712214122010               0000000000000117754-9                000009
100002541800437123141220100043712314122010               0000000000000117754-10               000010
9000009                                                                                       000011
