0RETORNONOTIFICAÇÃO ELETRONICA        24022014CONF                                            000001
100004645801142632180220140114263218022014FA245890245BR  0000021022014285749-1                000002
100004645901142633180220140114263318022014               0000000000000285749-2                000003
100004646001142634180220140114263418022014               0000000000000285749-3                000004
100004646101142635180220140114263518022014               0000000000000285749-4                000005
9000004                                                                                       000006
