0RETORNONOTIFICAÇÃO ELETRONICA        26032012CONF                                            000001
100003430400735747230320120073574723032012               0000000000000167945-1                000002
100003430500735748230320120073574823032012               0000000000000167945-2                000003
100003432200735749230320120073574923032012               0000000000000167945-3                000004
100003435500735750230320120073575023032012               0000000000000167945-4                000005
100003441500735751230320120073575123032012               0000000000000167945-5                000006
100003441600735752230320120073575223032012               0000000000000167945-6                000007
100003441700735753230320120073575323032012               0000000000000167945-9                000008
100003441800735754230320120073575423032012               0000000000000167945-10               000009
100003443000735755230320120073575523032012               0000000000000167946-1                000010
100003443100735756230320120073575623032012               0000000000000167946-2                000011
100003443300735757230320120073575723032012               0000000000000167946-3                000012
100003443500735758230320120073575823032012               0000000000000167946-4                000013
100003443600735759230320120073575923032012               0000000000000167946-5                000014
100003446000735760230320120073576023032012               0000000000000167946-6                000015
100003446300735761230320120073576123032012               0000000000000167946-7                000016
100003446400735762230320120073576223032012               0000000000000167946-8                000017
9000016                                                                                       000018
