0RETORNONOTIFICAÇÃO ELETRONICA        03042014CONF                                            000001
100004673001176485240320140117648524032014FA246186148BR  0000031032014291473-1                000002
100004677201176486240320140117648624032014FA246186151BR  0000027032014291473-2                000003
100004681101176487240320140117648724032014               0000000000000291473-3                000004
100004681201176488240320140117648824032014               0000000000000291473-4                000005
100004683401176489240320140117648924032014FA246186182BR  0000028032014291473-5                000006
100004683501176490240320140117649024032014FA246186196BR  0000031032014291473-6                000007
100004683601176491240320140117649124032014FA246186205BR  0000031032014291502-1                000008
100004683701176492240320140117649224032014FA246186219BR  0000027032014291502-2                000009
100004683801176493240320140117649324032014               0000000000000291502-3                000010
100004683901176494240320140117649424032014FA246186236BR  0000028032014291502-4                000011
100004684001176495240320140117649524032014FA246186240BR  0000031032014291502-5                000012
100004684101176496240320140117649624032014FA246186253BR  0000031032014291502-6                000013
100004685601176497240320140117649724032014FA246186267BR  0000031032014291518-1                000014
100004686601176498240320140117649824032014               0000000000000291518-2                000015
100004686701176499240320140117649924032014               0000000000000291518-3                000016
100004679801179788270320140117978827032014               0000000000000292053-1                000017
100004681601179789270320140117978927032014FA270822825BR  0000001042014292053-2                000018
100004682901179790270320140117979027032014FA270822834BR  0000002042014292053-3                000019
100004683101179791270320140117979127032014               0000000000000292053-4                000020
100004684201179792270320140117979227032014FA270822851BR  0000002042014292053-5                000021
100004684401179793270320140117979327032014               0000000000000292053-6                000022
100004684701179794270320140117979427032014               0000000000000292053-7                000023
100004684801179795270320140117979527032014               0000000000000292053-8                000024
100004686101179796270320140117979627032014               0000000000000292053-9                000025
100004690201179797270320140117979727032014               0000000000000292053-10               000026
100004690301179798270320140117979827032014FA270822919BR  0000002042014292053-11               000027
100004690401179799270320140117979927032014FA270822922BR  0000002042014292053-12               000028
100004690501179800270320140117980027032014               0000000000000292053-13               000029
100004691701179801270320140117980127032014               0000000000000292406-1                000030
100004691801179802270320140117980227032014               0000000000000292406-2                000031
100004691901179803270320140117980327032014               0000000000000292406-4                000032
100004692001179804270320140117980427032014               0000000000000292406-6                000033
100004692101179805270320140117980527032014               0000000000000292406-7                000034
100004692201179806270320140117980627032014               0000000000000292406-8                000035
100004693101179807270320140117980727032014FA270823004BR  0000002042014292408-1                000036
100004693201179808270320140117980827032014               0000000000000292408-3                000037
9000036                                                                                       000038
