0RETORNONOTIFICAÇÃO ELETRONICA        22062012CONF                                            000001
100003597500781010210620120078101021062012               0000000000000179984-1                000002
100003597600781011210620120078101121062012               0000000000000179984-2                000003
100003597700781012210620120078101221062012               0000000000000179984-3                000004
100003597800781013210620120078101321062012               0000000000000179984-4                000005
100003601200781014210620120078101421062012               0000000000000179985-1                000006
100003601300781015210620120078101521062012               0000000000000179985-2                000007
100003601400781016210620120078101621062012               0000000000000179985-6                000008
9000007                                                                                       000009
