0RETORNONOTIFICAÇÃO ELETRONICA        05072010CONF                                            000001
100002291100296372290620100029637229062010               0000000000000104256-1                000002
100002291200296373290620100029637329062010               0000000000000104256-2                000003
100002291300296374290620100029637429062010               0000000000000104256-3                000004
100002291400296375290620100029637529062010               0000000000000104256-4                000005
100002291500296376290620100029637629062010               0000000000000104256-5                000006
100002294300296879290620100029687929062010               0000000000000104347-1                000007
100002294400296880290620100029688029062010               0000000000000104347-2                000008
100002294500296881290620100029688129062010               0000000000000104347-3                000009
100002294600296882290620100029688229062010               0000000000000104347-6                000010
100002296200297572010720100029757201072010               0000000000000104503-1                000011
100002296300297573010720100029757301072010               0000000000000104503-2                000012
100002296400297574010720100029757401072010               0000000000000104503-6                000013
100002294900297772010720100029777201072010               0000000000000104670-1                000014
100002296500297773010720100029777301072010               0000000000000104670-2                000015
100002296600297774010720100029777401072010               0000000000000104670-3                000016
100002296700297775010720100029777501072010               0000000000000104670-4                000017
100002296800297776010720100029777601072010               0000000000000104670-5                000018
100002298400297777010720100029777701072010               0000000000000104670-6                000019
9000018                                                                                       000020
