0RETORNONOTIFICAÇÃO ELETRONICA        24102013CONF                                            000001
100004479501054830171020130105483017102013FA159521715BR  0000023102013263603-1                000002
100004480101054831171020130105483117102013               0000000000000263603-4                000003
100004480201054832171020130105483217102013               0000000000000263603-5                000004
100004479701054833171020130105483317102013FA159521741BR  0000023102013263603-6                000005
100004479901054834171020130105483417102013               0000000000000263603-7                000006
100004479801054835171020130105483517102013               0000000000000263603-8                000007
100004480001054836171020130105483617102013               0000000000000263603-9                000008
100004479601054837171020130105483717102013               0000000000000263603-10               000009
100004481701055754171020130105575417102013               0000000000000263850-1                000010
100004483801055755171020130105575517102013FA159530964BR  0000023102013263850-2                000011
100004483901055756171020130105575617102013FA159530978BR  0000023102013263850-3                000012
100004483701055757171020130105575717102013               0000000000000263850-4                000013
100004488501058108221020130105810822102013               0000000000000264566-1                000014
100004488601058109221020130105810922102013               0000000000000264566-2                000015
100004490201058740231020130105874023102013               0000000000000264830-1                000016
100004490401058741231020130105874123102013               0000000000000264830-2                000017
100004490301058742231020130105874223102013               0000000000000264830-3                000018
100004490101058743231020130105874323102013               0000000000000264830-4                000019
9000018                                                                                       000020
