0RETORNONOTIFICAÇÃO ELETRONICA        02012014CONF                                            000001
100004580701102700271220130110270027122013               0000000000000275191-1                000002
100004580501102701271220130110270127122013               0000000000000275191-2                000003
100004580401102702271220130110270227122013               0000000000000275191-3                000004
100004580601102703271220130110270327122013               0000000000000275191-4                000005
100004581901102704271220130110270427122013               0000000000000275193-1                000006
100004582001102705271220130110270527122013               0000000000000275193-2                000007
100004585201102706271220130110270627122013               0000000000000275195-1                000008
100004585001102707271220130110270727122013               0000000000000275195-3                000009
100004585101102708271220130110270827122013               0000000000000275195-4                000010
9000009                                                                                       000011
