0RETORNONOTIFICAÇÃO ELETRONICA        03082010CONF                                            000001
100002340500311591290720100031159129072010               0000000000000106821-1                000002
100002334300311592290720100031159229072010               0000000000000106952-1                000003
100002340900311593290720100031159329072010               0000000000000106952-2                000004
100002342300311594290720100031159429072010               0000000000000106952-3                000005
100002342400311595290720100031159529072010               0000000000000106952-4                000006
100002342500311596290720100031159629072010               0000000000000106952-5                000007
100002342600311597290720100031159729072010               0000000000000106952-6                000008
100002343200311598290720100031159829072010               0000000000000106952-7                000009
100002343300311599290720100031159929072010               0000000000000106952-8                000010
100002344500311600290720100031160029072010               0000000000000106952-9                000011
100002344600311601290720100031160129072010               0000000000000107083-1                000012
100002344700311602290720100031160229072010               0000000000000107083-2                000013
100002344800311603290720100031160329072010               0000000000000107083-7                000014
100002344900311604290720100031160429072010               0000000000000107083-8                000015
100002345000311605290720100031160529072010               0000000000000107083-9                000016
100002345100312196300720100031219630072010               0000000000000107241-1                000017
100002345200312197300720100031219730072010               0000000000000107241-3                000018
100002345300312198300720100031219830072010               0000000000000107241-4                000019
100002345400312199300720100031219930072010               0000000000000107241-5                000020
100002345500312200300720100031220030072010               0000000000000107241-6                000021
100002345600312201300720100031220130072010               0000000000000107241-7                000022
100002348000312202300720100031220230072010               0000000000000107241-8                000023
100002348100312203300720100031220330072010               0000000000000107395-1                000024
100002348200312204300720100031220430072010               0000000000000107395-2                000025
100002348300312205300720100031220530072010               0000000000000107395-3                000026
100002348400312206300720100031220630072010               0000000000000107395-4                000027
100002348500312207300720100031220730072010               0000000000000107395-5                000028
100002348600312208300720100031220830072010               0000000000000107395-6                000029
100002348700312209300720100031220930072010               0000000000000107395-7                000030
9000029                                                                                       000031
