0RETORNONOTIFICAÇÃO ELETRONICA        24082011CONF                                            000001
100002963400598759230820110059875923082011               0000000000000141794-1                000002
100002963500598760230820110059876023082011               0000000000000141794-5                000003
100002963600598761230820110059876123082011               0000000000000141794-6                000004
100002963700598762230820110059876223082011               0000000000000141794-7                000005
100002963800598763230820110059876323082011               0000000000000141794-8                000006
100002964400598764230820110059876423082011               0000000000000141794-9                000007
100002964500598765230820110059876523082011               0000000000000141794-10               000008
100002964700598766230820110059876623082011               0000000000000141794-11               000009
100002964800598767230820110059876723082011               0000000000000141794-12               000010
100002964900598768230820110059876823082011               0000000000000141794-13               000011
100002959100598769230820110059876923082011               0000000000000141798-1                000012
100002963300598770230820110059877023082011               0000000000000141798-2                000013
100002965000598771230820110059877123082011               0000000000000141798-3                000014
100002965100598772230820110059877223082011               0000000000000141798-4                000015
100002965200598773230820110059877323082011               0000000000000141798-5                000016
100002965300598774230820110059877423082011               0000000000000141798-6                000017
100002965400598775230820110059877523082011               0000000000000141798-7                000018
100002968800598776230820110059877623082011               0000000000000141799-1                000019
9000018                                                                                       000020
