0RETORNONOTIFICAÇÃO ELETRONICA        02032015CONF                                            000001
100005056801436214300120150143621430012015FA318644287BR  0000009022015342857-1                000002
100005056901436215300120150143621530012015FA318644295BR  0000004022015343634-1                000003
100005057001436216300120150143621630012015FA318644300BR  0000406022015343634-2                000004
100005045901436217300120150143621730012015FA318644313BR  0000009022015343643-1                000005
100005046901436218300120150143621830012015FA318644327BR  0000009022015343643-2                000006
100005047901436219300120150143621930012015FA318644335BR  0000006022015343643-3                000007
100005050101436220300120150143622030012015FA318644344BR  0000006022015343643-4                000008
100005050701436221300120150143622130012015FA318644358BR  0000006022015343643-5                000009
100005051401436222300120150143622230012015FA318644361BR  0000006022015343643-6                000010
100005056701436223300120150143622330012015FA318644375BR  0000013022015343643-7                000011
100005057301436224300120150143622430012015FA318644389BR  0000006022015343643-8                000012
100005057401436225300120150143622530012015FA318644392BR  0000012022015343643-9                000013
100005057501436226300120150143622630012015               0000000000000343643-10               000014
100005057601436227300120150143622730012015FA318644415BR  0000009022015343643-11               000015
100005057701436228300120150143622830012015               0000000000000343643-12               000016
100005057801436229300120150143622930012015FA318644432BR  0000105022015343643-13               000017
100005058101436230300120150143623030012015FA318644446BR  0000013022015343644-1                000018
100005058201436231300120150143623130012015FA318644450BR  0000006022015343644-2                000019
100005058401436870020220150143687002022015FA318648536BR  0000013022015343755-1                000020
100005058501436871020220150143687102022015               0000000000000343755-4                000021
100005058701436976020220150143697602022015FA318649593BR  0000010022015344111-1                000022
100005058801436977020220150143697702022015FA318649602BR  0000009022015344111-3                000023
100005058901436978020220150143697802022015FA318649616BR  0000006022015344111-4                000024
9000023                                                                                       000025
