0RETORNONOTIFICAÇÃO ELETRONICA        13042015CONF                                            000001
100005073301450429080420150145042908042015               0000000000000354728-1                000002
100005073401450430080420150145043008042015               0000000000000354728-2                000003
100005074101450431080420150145043108042015               0000000000000354733-1                000004
100005074201450432080420150145043208042015               0000000000000354733-2                000005
100005074301450433080420150145043308042015               0000000000000354733-3                000006
9000005                                                                                       000007
