0RETORNONOTIFICAÇÃO ELETRONICA        01042011CONF                                            000001
100002696800502942010420110050294201042011               0000000000000126512-1                000002
100002696900502943010420110050294301042011               0000000000000126512-2                000003
100002697000502944010420110050294401042011               0000000000000126512-3                000004
100002697100502945010420110050294501042011               0000000000000126512-4                000005
100002697200502946010420110050294601042011               0000000000000126512-5                000006
100002697300502947010420110050294701042011               0000000000000126512-9                000007
100002697400502948010420110050294801042011               0000000000000126512-10               000008
9000007                                                                                       000009
