0RETORNONOTIFICAÇÃO ELETRONICA        11082014CONF                                            000001
100004873701295636080820140129563608082014               0000000000000314993-1                000002
100004875101295637080820140129563708082014               0000000000000314993-2                000003
100004875201295638080820140129563808082014               0000000000000314993-3                000004
100004875301295639080820140129563908082014               0000000000000314993-4                000005
100004875401295640080820140129564008082014               0000000000000314993-5                000006
100004876001295641080820140129564108082014               0000000000000314993-7                000007
100004876101295642080820140129564208082014               0000000000000314993-8                000008
100004876201295643080820140129564308082014               0000000000000314993-11               000009
100004876301295644080820140129564408082014               0000000000000314993-18               000010
9000009                                                                                       000011
