0RETORNONOTIFICAÇÃO ELETRONICA        25102011CONF                                            000001
100003143200648159241020110064815924102011               0000000000000148865-1                000002
100003143300648160241020110064816024102011               0000000000000148865-2                000003
100003130600648161241020110064816124102011               0000000000000149067-1                000004
100003134900648162241020110064816224102011               0000000000000149067-2                000005
100003135000648163241020110064816324102011               0000000000000149067-3                000006
100003139000648164241020110064816424102011               0000000000000149067-4                000007
100003144400648165241020110064816524102011               0000000000000149067-5                000008
100003147500648166241020110064816624102011               0000000000000149067-6                000009
100003147600648167241020110064816724102011               0000000000000149067-8                000010
100003147700648168241020110064816824102011               0000000000000149067-9                000011
100003147800648169241020110064816924102011               0000000000000149067-12               000012
9000011                                                                                       000013
