0RETORNONOTIFICAÇÃO ELETRONICA        31012014CONF                                            000001
100004610301122612220120140112261222012014FA245701750BR  0000028012014279976-1                000002
100004610401122613220120140112261322012014               0000000000000279976-2                000003
100004610501122614220120140112261422012014               0000000000000279976-3                000004
100004610601122615220120140112261522012014FA245701785BR  0000028012014279976-5                000005
100004610901122616220120140112261622012014               0000000000000279976-6                000006
100004610701122617220120140112261722012014FA245701803BR  0000028012014279976-7                000007
100004610801122618220120140112261822012014FA245701817BR  0000028012014279976-9                000008
100004611901126222280120140112622228012014               0000000000000280781-1                000009
100004612001126223280120140112622328012014               0000000000000280781-2                000010
100004611801126224280120140112622428012014               0000000000000280781-3                000011
100004608801126225280120140112622528012014               0000000000000280782-1                000012
100004613601126226280120140112622628012014               0000000000000280782-2                000013
100004614801126227280120140112622728012014               0000000000000280992-1                000014
100004615001126228280120140112622828012014               0000000000000280992-2                000015
100004615101126229280120140112622928012014               0000000000000280992-3                000016
100004614901126230280120140112623028012014               0000000000000280992-5                000017
100004616201126918290120140112691829012014               0000000000000281569-1                000018
100004617401126919290120140112691929012014               0000000000000281570-1                000019
100004617501126920290120140112692029012014               0000000000000281570-2                000020
9000019                                                                                       000021
