0RETORNONOTIFICAÇÃO ELETRONICA        12092011CONF                                            000001
100003001000622810090920110062281009092011               0000000000000143798-1                000002
100003001100622811090920110062281109092011               0000000000000143798-2                000003
100003001200622812090920110062281209092011               0000000000000143798-3                000004
9000003                                                                                       000005
