0RETORNONOTIFICAÇÃO ELETRONICA        21062013CONF                                            000001
100004247300974963190620130097496319062013               0000000000000242042-1                000002
100004244300974964190620130097496419062013               0000000000000242042-2                000003
100004244800974965190620130097496519062013               0000000000000242042-3                000004
100004244400974966190620130097496619062013               0000000000000242042-4                000005
100004244500974967190620130097496719062013               0000000000000242042-5                000006
100004244700974968190620130097496819062013               0000000000000242042-6                000007
100004244600974969190620130097496919062013               0000000000000242042-7                000008
100004247500974970190620130097497019062013               0000000000000242045-1                000009
100004247400974971190620130097497119062013               0000000000000242045-2                000010
100004241200974972190620130097497219062013               0000000000000242045-4                000011
100004241400974973190620130097497319062013               0000000000000242045-5                000012
100004247700974974190620130097497419062013               0000000000000242045-6                000013
100004247600974975190620130097497519062013               0000000000000242045-7                000014
100004246000974976190620130097497619062013               0000000000000242047-1                000015
100004246200974977190620130097497719062013               0000000000000242047-2                000016
100004246100974978190620130097497819062013               0000000000000242047-3                000017
100004253100974979190620130097497919062013               0000000000000242047-4                000018
100004243200974980190620130097498019062013               0000000000000242047-5                000019
100004251200974981190620130097498119062013               0000000000000242047-6                000020
100004251100974982190620130097498219062013               0000000000000242047-7                000021
100004251300974983190620130097498319062013               0000000000000242047-8                000022
100004253500974984190620130097498419062013               0000000000000242049-1                000023
100004253300974985190620130097498519062013               0000000000000242049-2                000024
100004253700974986190620130097498619062013               0000000000000242049-3                000025
100004253200974987190620130097498719062013               0000000000000242049-4                000026
100004253600974988190620130097498819062013               0000000000000242049-5                000027
100004253400974989190620130097498919062013               0000000000000242049-6                000028
100004255800974990190620130097499019062013               0000000000000242050-1                000029
100004255700974991190620130097499119062013               0000000000000242050-2                000030
100004255900974992190620130097499219062013               0000000000000242050-3                000031
100004257500974993190620130097499319062013               0000000000000242051-1                000032
100004259200974994190620130097499419062013               0000000000000242052-1                000033
100004259300974995190620130097499519062013               0000000000000242052-4                000034
100004259000974996190620130097499619062013               0000000000000242052-6                000035
100004259100974997190620130097499719062013               0000000000000242052-7                000036
9000035                                                                                       000037
