0RETORNONOTIFICAÇÃO ELETRONICA        29042011CONF                                            000001
100002733600523184290420110052318429042011               0000000000000129032-1                000002
100002733700523185290420110052318529042011               0000000000000129032-2                000003
100002733800523186290420110052318629042011               0000000000000129032-3                000004
100002734500523187290420110052318729042011               0000000000000129032-4                000005
100002735300523188290420110052318829042011               0000000000000129032-5                000006
100002735400523189290420110052318929042011               0000000000000129032-6                000007
100002735500523190290420110052319029042011               0000000000000129032-7                000008
100002735600523191290420110052319129042011               0000000000000129032-8                000009
100002735700523192290420110052319229042011               0000000000000129032-9                000010
100002737300523193290420110052319329042011               0000000000000129032-10               000011
100002737400523194290420110052319429042011               0000000000000129032-11               000012
100002737400523426290420110052342629042011               0000000000000129032-27               000013
9000012                                                                                       000014
