0RETORNONOTIFICAÇÃO ELETRONICA        11112011CONF                                            000001
100003178000663626101120110066362610112011               0000000000000151163-1                000002
100003161900663627101120110066362710112011               0000000000000151163-10               000003
100003175700663628101120110066362810112011               0000000000000151163-11               000004
100003175800663629101120110066362910112011               0000000000000151163-22               000005
100003175900663630101120110066363010112011               0000000000000151163-23               000006
100003176900663631101120110066363110112011               0000000000000151166-1                000007
100003178100663632101120110066363210112011               0000000000000151166-2                000008
100003178200663633101120110066363310112011               0000000000000151166-3                000009
100003178300663634101120110066363410112011               0000000000000151166-4                000010
100003178400663635101120110066363510112011               0000000000000151166-5                000011
100003178500663636101120110066363610112011               0000000000000151166-6                000012
100003178600663637101120110066363710112011               0000000000000151166-10               000013
100003178700663638101120110066363810112011               0000000000000151166-11               000014
100003178800663639101120110066363910112011               0000000000000151166-12               000015
100003178900663640101120110066364010112011               0000000000000151166-13               000016
100003179000663641101120110066364110112011               0000000000000151166-14               000017
100003179100663642101120110066364210112011               0000000000000151166-15               000018
100003180000663643101120110066364310112011               0000000000000151166-21               000019
100003180200663644101120110066364410112011               0000000000000151166-22               000020
100003181100663645101120110066364510112011               0000000000000151166-23               000021
100003181700663646101120110066364610112011               0000000000000151166-24               000022
9000021                                                                                       000023
