0RETORNONOTIFICAÇÃO ELETRONICA        20052011CONF                                            000001
100002770700538253190520110053825319052011               0000000000000130962-1                000002
100002770800538254190520110053825419052011               0000000000000130962-2                000003
100002773300538255190520110053825519052011               0000000000000130962-3                000004
9000003                                                                                       000005
