0RETORNONOTIFICAÇÃO ELETRONICA        16062014CONF                                            000001
100004778601245682110620140124568211062014               0000000000000305005-1                000002
100004778701245683110620140124568311062014               0000000000000305005-2                000003
100004778801245684110620140124568411062014               0000000000000305005-3                000004
100004778901245685110620140124568511062014               0000000000000305005-4                000005
100004779001245686110620140124568611062014               0000000000000305005-5                000006
100004779101245687110620140124568711062014               0000000000000305005-6                000007
100004779201245688110620140124568811062014               0000000000000305005-7                000008
100004779301245689110620140124568911062014               0000000000000305005-8                000009
100004779401245690110620140124569011062014               0000000000000305005-9                000010
100004779501245691110620140124569111062014               0000000000000305005-10               000011
100004780701245692110620140124569211062014               0000000000000305005-15               000012
100004780801245693110620140124569311062014               0000000000000305005-18               000013
100004780901245694110620140124569411062014               0000000000000305005-19               000014
100004781001245695110620140124569511062014               0000000000000305005-26               000015
100004781101245696110620140124569611062014               0000000000000305005-28               000016
100004781201245697110620140124569711062014               0000000000000305005-31               000017
100004781301245698110620140124569811062014               0000000000000305005-32               000018
100004781401245699110620140124569911062014               0000000000000305005-54               000019
100004781501245700110620140124570011062014               0000000000000305005-55               000020
100004781601245701110620140124570111062014               0000000000000305005-56               000021
100004781701245702110620140124570211062014               0000000000000305005-57               000022
100004781801245703110620140124570311062014               0000000000000305005-58               000023
100004781901245704110620140124570411062014               0000000000000305005-59               000024
100004782001245705110620140124570511062014               0000000000000305005-60               000025
100004782101245706110620140124570611062014               0000000000000305005-61               000026
100004782201245707110620140124570711062014               0000000000000305005-63               000027
100004782301245708110620140124570811062014               0000000000000305005-66               000028
100004782401245709110620140124570911062014               0000000000000305007-1                000029
100004782501245710110620140124571011062014               0000000000000305007-2                000030
100004782601245711110620140124571111062014               0000000000000305007-3                000031
100004782701245712110620140124571211062014               0000000000000305007-4                000032
100004783101245713110620140124571311062014               0000000000000305007-5                000033
100004783801245714110620140124571411062014               0000000000000305007-6                000034
100004783901245715110620140124571511062014               0000000000000305008-1                000035
100004784801245716110620140124571611062014               0000000000000305008-2                000036
100004784901245717110620140124571711062014               0000000000000305008-10               000037
100004785001245718110620140124571811062014               0000000000000305008-40               000038
100004785101245719110620140124571911062014               0000000000000305008-54               000039
100004785201245720110620140124572011062014               0000000000000305008-55               000040
100004785301245721110620140124572111062014               0000000000000305008-56               000041
100004785401245722110620140124572211062014               0000000000000305008-57               000042
100004785501245723110620140124572311062014               0000000000000305008-58               000043
100004785601245724110620140124572411062014               0000000000000305008-60               000044
100004785701245725110620140124572511062014               0000000000000305008-61               000045
100004785801245726110620140124572611062014               0000000000000305008-63               000046
100004785901245727110620140124572711062014               0000000000000305008-72               000047
100004786001245728110620140124572811062014               0000000000000305008-74               000048
100004786101245729110620140124572911062014               0000000000000305008-76               000049
100004786201245730110620140124573011062014               0000000000000305008-79               000050
100004786301245731110620140124573111062014               0000000000000305008-80               000051
100004786401245732110620140124573211062014               0000000000000305008-84               000052
100004786501245733110620140124573311062014               0000000000000305008-85               000053
100004786601245734110620140124573411062014               0000000000000305008-86               000054
100004786701245735110620140124573511062014               0000000000000305008-87               000055
100004786801245736110620140124573611062014               0000000000000305008-91               000056
100004786901245737110620140124573711062014               0000000000000305008-92               000057
100004787001245738110620140124573811062014               0000000000000305008-93               000058
100004787101245739110620140124573911062014               0000000000000305008-94               000059
100004787201245740110620140124574011062014               0000000000000305008-103              000060
100004787301245741110620140124574111062014               0000000000000305008-104              000061
100004787401245742110620140124574211062014               0000000000000305008-119              000062
100004787501245743110620140124574311062014               0000000000000305009-1                000063
100004787601245744110620140124574411062014               0000000000000305009-2                000064
100004787701245745110620140124574511062014               0000000000000305009-3                000065
100004788701245746110620140124574611062014               0000000000000305009-4                000066
100004788801245747110620140124574711062014               0000000000000305009-8                000067
100004788901245748110620140124574811062014               0000000000000305010-1                000068
100004789001245749110620140124574911062014               0000000000000305010-2                000069
100004789101245750110620140124575011062014               0000000000000305010-3                000070
100004789201245751110620140124575111062014               0000000000000305010-4                000071
100004789301245752110620140124575211062014               0000000000000305010-5                000072
9000071                                                                                       000073
