0RETORNONOTIFICAÇÃO ELETRONICA        15072011CONF                                            000001
100002887900577808130720110057780813072011               0000000000000136737-1                000002
100002888000577809130720110057780913072011               0000000000000136737-2                000003
100002888100577810130720110057781013072011               0000000000000136737-3                000004
100002888200577811130720110057781113072011               0000000000000136737-7                000005
100002888300577812130720110057781213072011               0000000000000136737-8                000006
100002888400577813130720110057781313072011               0000000000000136737-10               000007
100002893100577814130720110057781413072011               0000000000000136779-1                000008
100002893200577815130720110057781513072011               0000000000000136779-2                000009
100002893300577816130720110057781613072011               0000000000000136779-3                000010
100002893400577817130720110057781713072011               0000000000000136779-6                000011
100002893500577818130720110057781813072011               0000000000000136779-7                000012
100002893600577819130720110057781913072011               0000000000000136779-8                000013
100002893700577820130720110057782013072011               0000000000000136779-9                000014
100002893800577821130720110057782113072011               0000000000000136779-10               000015
100002896200577822130720110057782213072011               0000000000000136779-12               000016
9000015                                                                                       000017
