0RETORNONOTIFICAÇÃO ELETRONICA        20012011CONF                                            000001
100002582800451410140120110045141014012011               0000000000000119816-1                000002
100002582900451411140120110045141114012011               0000000000000119816-2                000003
100002583000451412140120110045141214012011               0000000000000119816-3                000004
100002583100451413140120110045141314012011               0000000000000119816-4                000005
100002583200451414140120110045141414012011               0000000000000119818-1                000006
100002583300451415140120110045141514012011               0000000000000119818-2                000007
100002583400451416140120110045141614012011               0000000000000119818-6                000008
9000007                                                                                       000009
