0RETORNONOTIFICAÇÃO ELETRONICA        15102014CONF                                            000001
100004978201333390250920140133339025092014FA294590940BR  0000029092014323820-1                000002
100004978501333391250920140133339125092014FA294590953BR  0000002102014324131-1                000003
100004978601333392250920140133339225092014FA294590967BR  0000006102014324131-2                000004
100004978701333393250920140133339325092014FA294590975BR  0000002102014324131-3                000005
100004983101344601071020140134460107102014               0000000000000325566-1                000006
100004983201344602071020140134460207102014FA294676005BR  0000014102014325566-2                000007
100004983301344603071020140134460307102014               0000000000000325566-3                000008
100004983401344604071020140134460407102014               0000000000000325566-4                000009
100004983501344605071020140134460507102014FA294676036BR  0000014102014325566-5                000010
100004983601344606071020140134460607102014FA294676040BR  0000013102014325566-6                000011
100004984201344607071020140134460707102014FA294676053BR  0000013102014325566-7                000012
100004984301344608071020140134460807102014               0000000000000325566-8                000013
100004984401344609071020140134460907102014               0000000000000326119-1                000014
100004984501344610071020140134461007102014FA294676084BR  0000013102014326119-2                000015
100004984601344611071020140134461107102014FA294676098BR  0000414102014326119-3                000016
100004984901344612071020140134461207102014               0000000000000326121-1                000017
100004985001344613071020140134461307102014FA294676115BR  0000013102014326121-2                000018
100004987401350874141020140135087414102014               0000000000000326720-1                000019
100004987501350875141020140135087514102014               0000000000000326720-2                000020
100004988401350876141020140135087614102014               0000000000000326720-3                000021
100004988501350877141020140135087714102014               0000000000000326720-5                000022
100004988601350878141020140135087814102014               0000000000000326720-8                000023
100004988701350879141020140135087914102014               0000000000000326720-9                000024
100004989301350872141020140135087214102014               0000000000000327187-1                000025
100004989801350873141020140135087314102014               0000000000000327437-1                000026
9000025                                                                                       000027
