0RETORNONOTIFICAÇÃO ELETRONICA        09022011CONF                                            000001
100002618900473037080220110047303708022011               0000000000000121769-1                000002
100002619000473038080220110047303808022011               0000000000000121769-2                000003
100002619100473039080220110047303908022011               0000000000000121769-3                000004
100002619200473040080220110047304008022011               0000000000000121769-4                000005
100002619300473041080220110047304108022011               0000000000000121769-5                000006
100002619400473042080220110047304208022011               0000000000000121769-7                000007
100002602600473043080220110047304308022011               0000000000000121892-1                000008
100002603900473044080220110047304408022011               0000000000000121892-2                000009
100002606000473045080220110047304508022011               0000000000000121892-3                000010
100002607400473046080220110047304608022011               0000000000000121892-4                000011
100002609100473047080220110047304708022011               0000000000000121892-5                000012
100002620600473048080220110047304808022011               0000000000000121892-6                000013
100002620700473049080220110047304908022011               0000000000000121892-7                000014
100002620800473050080220110047305008022011               0000000000000121892-8                000015
100002620900473051080220110047305108022011               0000000000000121892-12               000016
100002621000473052080220110047305208022011               0000000000000121892-13               000017
100002621100473053080220110047305308022011               0000000000000121892-14               000018
100002621200473054080220110047305408022011               0000000000000121892-15               000019
100002621300473055080220110047305508022011               0000000000000121892-16               000020
9000019                                                                                       000021
