0RETORNONOTIFICAÇÃO ELETRONICA        13092011CONF                                            000001
100003002200624176130920110062417613092011               0000000000000144208-1                000002
100003002500624177130920110062417713092011               0000000000000144208-2                000003
100003002600624178130920110062417813092011               0000000000000144208-3                000004
100003002700624179130920110062417913092011               0000000000000144208-4                000005
100003002900624180130920110062418013092011               0000000000000144208-6                000006
9000005                                                                                       000007
