0RETORNONOTIFICAÇÃO ELETRONICA        02022011CONF                                            000001
100002607500468553020220110046855302022011               0000000000000121241-7                000002
100002607600468554020220110046855402022011               0000000000000121241-12               000003
100002607700468555020220110046855502022011               0000000000000121241-17               000004
100002611400469625020220110046962502022011               0000000000000121401-1                000005
100002611500469626020220110046962602022011               0000000000000121401-3                000006
100002611600469627020220110046962702022011               0000000000000121401-4                000007
100002611700469628020220110046962802022011               0000000000000121401-5                000008
100002611800469629020220110046962902022011               0000000000000121401-9                000009
100002611900469630020220110046963002022011               0000000000000121401-10               000010
100002612000469631020220110046963102022011               0000000000000121401-11               000011
9000010                                                                                       000012
