0RETORNONOTIFICAÇÃO ELETRONICA        18102010CONF                                            000001
100002462100402487181020100040248718102010               0000000000000113528-1                000002
100002462200402488181020100040248818102010               0000000000000113528-3                000003
100002462300402489181020100040248918102010               0000000000000113528-5                000004
100002462400402490181020100040249018102010               0000000000000113528-8                000005
9000004                                                                                       000006
