0RETORNONOTIFICAÇÃO ELETRONICA        12112010CONF                                            000001
100002491300426924111120100042692411112010               0000000000000115245-1                000002
100002493700426925111120100042692511112010               0000000000000115245-2                000003
100002491600426926111120100042692611112010               0000000000000115314-1                000004
100002492000426927111120100042692711112010               0000000000000115314-2                000005
100002492900426928111120100042692811112010               0000000000000115314-3                000006
100002493000426929111120100042692911112010               0000000000000115314-4                000007
100002493100426930111120100042693011112010               0000000000000115314-5                000008
100002493600426931111120100042693111112010               0000000000000115314-6                000009
100002493800426932111120100042693211112010               0000000000000115314-7                000010
100002493900426933111120100042693311112010               0000000000000115314-9                000011
100002494000426934111120100042693411112010               0000000000000115314-10               000012
9000011                                                                                       000013
