0RETORNONOTIFICAÇÃO ELETRONICA        07102010CONF                                            000001
100002435400400411071020100040041107102010               0000000000000112886-1                000002
100002435500400412071020100040041207102010               0000000000000112886-2                000003
100002435600400413071020100040041307102010               0000000000000112886-3                000004
100002435700400414071020100040041407102010               0000000000000112886-4                000005
100002435800400415071020100040041507102010               0000000000000112886-5                000006
100002438500400416071020100040041607102010               0000000000000112886-6                000007
100002439500400417071020100040041707102010               0000000000000112886-7                000008
100002441600400418071020100040041807102010               0000000000000112886-8                000009
100002442300400419071020100040041907102010               0000000000000112886-9                000010
100002442500400420071020100040042007102010               0000000000000112886-10               000011
100002443200400421071020100040042107102010               0000000000000112886-11               000012
100002443300400422071020100040042207102010               0000000000000112886-12               000013
100002443400400423071020100040042307102010               0000000000000112886-13               000014
100002448500400424071020100040042407102010               0000000000000112886-14               000015
100002448600400425071020100040042507102010               0000000000000112886-15               000016
100002448700400426071020100040042607102010               0000000000000112886-16               000017
100002448800400427071020100040042707102010               0000000000000112886-17               000018
100002448900400428071020100040042807102010               0000000000000112886-19               000019
100002449000400429071020100040042907102010               0000000000000112886-20               000020
100002449100400430071020100040043007102010               0000000000000112886-21               000021
100002448000400431071020100040043107102010               0000000000000112978-1                000022
100002450200400432071020100040043207102010               0000000000000112978-2                000023
100002450400400433071020100040043307102010               0000000000000112978-3                000024
100002451200400434071020100040043407102010               0000000000000112978-4                000025
100002451300400435071020100040043507102010               0000000000000112978-5                000026
100002451400400436071020100040043607102010               0000000000000112978-12               000027
100002451500400437071020100040043707102010               0000000000000112978-13               000028
100002451600400438071020100040043807102010               0000000000000112978-14               000029
9000028                                                                                       000030
