0RETORNONOTIFICAÇÃO ELETRONICA        16102013CONF                                            000001
100004478201054297151020130105429715102013               0000000000000263353-1                000002
100004478301054298151020130105429815102013               0000000000000263353-2                000003
100004478401054299151020130105429915102013               0000000000000263353-3                000004
9000003                                                                                       000005
