0RETORNONOTIFICAÇÃO ELETRONICA        30092010CONF                                            000001
100002414000397007290920100039700729092010               0000000000000112352-1                000002
100002414100397008290920100039700829092010               0000000000000112352-2                000003
100002414500397009290920100039700929092010               0000000000000112352-3                000004
100002417700397010290920100039701029092010               0000000000000112352-4                000005
100002421200397011290920100039701129092010               0000000000000112352-5                000006
100002421300397012290920100039701229092010               0000000000000112352-6                000007
100002421400397013290920100039701329092010               0000000000000112352-7                000008
100002436900397014290920100039701429092010               0000000000000112352-8                000009
100002437000397015290920100039701529092010               0000000000000112352-9                000010
100002437100397016290920100039701629092010               0000000000000112352-10               000011
100002439800397017290920100039701729092010               0000000000000112352-11               000012
100002439900397018290920100039701829092010               0000000000000112352-12               000013
100002421500397019290920100039701929092010               0000000000000112437-1                000014
100002423200397020290920100039702029092010               0000000000000112437-2                000015
100002424700397021290920100039702129092010               0000000000000112437-3                000016
100002432100397022290920100039702229092010               0000000000000112437-4                000017
100002433600397023290920100039702329092010               0000000000000112437-5                000018
100002433700397024290920100039702429092010               0000000000000112437-6                000019
100002433800397025290920100039702529092010               0000000000000112437-7                000020
100002440000397026290920100039702629092010               0000000000000112437-8                000021
100002440100397027290920100039702729092010               0000000000000112437-9                000022
100002440200397028290920100039702829092010               0000000000000112437-10               000023
100002440300397029290920100039702929092010               0000000000000112437-11               000024
100002440400397030290920100039703029092010               0000000000000112437-15               000025
100002440500397031290920100039703129092010               0000000000000112437-16               000026
9000025                                                                                       000027
