0RETORNONOTIFICAÇÃO ELETRONICA        28072011CONF                                            000001
100002914700585591260720110058559126072011               0000000000000138292-1                000002
100002915300585592260720110058559226072011               0000000000000138292-3                000003
100002915600585593260720110058559326072011               0000000000000138292-4                000004
100002916100585594260720110058559426072011               0000000000000138292-5                000005
100002917100585595260720110058559526072011               0000000000000138292-6                000006
100002917200585596260720110058559626072011               0000000000000138292-7                000007
100002917300585597260720110058559726072011               0000000000000138292-8                000008
100002917400585598260720110058559826072011               0000000000000138292-9                000009
9000008                                                                                       000010
