0RETORNONOTIFICAÇÃO ELETRONICA        23032011CONF                                            000001
100002679700492767220320110049276722032011               0000000000000125315-1                000002
100002679800492768220320110049276822032011               0000000000000125315-2                000003
100002679900492769220320110049276922032011               0000000000000125315-3                000004
100002680000492770220320110049277022032011               0000000000000125315-4                000005
100002680100492771220320110049277122032011               0000000000000125315-6                000006
100002680200492772220320110049277222032011               0000000000000125315-7                000007
100002680300492773220320110049277322032011               0000000000000125315-8                000008
9000007                                                                                       000009
