0RETORNONOTIFICAÇÃO ELETRONICA        06042011CONF                                            000001
100002709000505548060420110050554806042011               0000000000000126988-1                000002
100002706100505549060420110050554906042011               0000000000000126988-7                000003
100002706200505550060420110050555006042011               0000000000000126988-8                000004
100002706300505551060420110050555106042011               0000000000000126988-9                000005
100002706400505552060420110050555206042011               0000000000000126988-11               000006
100002706500505553060420110050555306042011               0000000000000126988-12               000007
100002706600505554060420110050555406042011               0000000000000126988-13               000008
100002709100505555060420110050555506042011               0000000000000126988-14               000009
9000008                                                                                       000010
