0RETORNONOTIFICAÇÃO ELETRONICA        16022011CONF                                            000001
100002614900475027150220110047502715022011               0000000000000122348-1                000002
100002615400475028150220110047502815022011               0000000000000122348-2                000003
100002615500475029150220110047502915022011               0000000000000122348-3                000004
100002615700475030150220110047503015022011               0000000000000122348-4                000005
100002616800475031150220110047503115022011               0000000000000122348-5                000006
100002618500475032150220110047503215022011               0000000000000122348-6                000007
100002621500475033150220110047503315022011               0000000000000122348-7                000008
100002622100475034150220110047503415022011               0000000000000122348-8                000009
100002629800475035150220110047503515022011               0000000000000122348-9                000010
100002629900475036150220110047503615022011               0000000000000122348-10               000011
100002630000475037150220110047503715022011               0000000000000122348-12               000012
100002631400475038150220110047503815022011               0000000000000122348-14               000013
9000012                                                                                       000014
