0RETORNONOTIFICAÇÃO ELETRONICA        02082013CONF                                            000001
100004292801008190010820130100819001082013               0000000000000249161-1                000002
100004293001008191010820130100819101082013               0000000000000249161-2                000003
100004292901008192010820130100819201082013               0000000000000249161-3                000004
100004293701008193010820130100819301082013               0000000000000249161-4                000005
100004292201008194010820130100819401082013               0000000000000249161-5                000006
100004291101008195010820130100819501082013               0000000000000249161-6                000007
100004295901008196010820130100819601082013               0000000000000249164-1                000008
100004296101008197010820130100819701082013               0000000000000249164-2                000009
100004296001008198010820130100819801082013               0000000000000249164-3                000010
100004295401008199010820130100819901082013               0000000000000249164-4                000011
100004295601008200010820130100820001082013               0000000000000249164-5                000012
100004295801008201010820130100820101082013               0000000000000249164-6                000013
100004295701008202010820130100820201082013               0000000000000249164-7                000014
100004295501008203010820130100820301082013               0000000000000249164-8                000015
100004297701008204010820130100820401082013               0000000000000249170-1                000016
100004297401008205010820130100820501082013               0000000000000249170-2                000017
100004297501008206010820130100820601082013               0000000000000249170-3                000018
100004297301008207010820130100820701082013               0000000000000249170-4                000019
100004297601008208010820130100820801082013               0000000000000249170-5                000020
100004303001008209010820130100820901082013               0000000000000249172-1                000021
100004303201008210010820130100821001082013               0000000000000249172-2                000022
100004303101008211010820130100821101082013               0000000000000249172-3                000023
100004299201008212010820130100821201082013               0000000000000249172-4                000024
100004302501008213010820130100821301082013               0000000000000249172-5                000025
100004302901008214010820130100821401082013               0000000000000249172-6                000026
100004302801008215010820130100821501082013               0000000000000249172-8                000027
100004302701008216010820130100821601082013               0000000000000249172-10               000028
100004302601008217010820130100821701082013               0000000000000249172-12               000029
100004303301008218010820130100821801082013               0000000000000249172-13               000030
100004299301008219010820130100821901082013               0000000000000249172-14               000031
100004300801008220010820130100822001082013               0000000000000249172-15               000032
100004302401008221010820130100822101082013               0000000000000249172-16               000033
100004302301008222010820130100822201082013               0000000000000249172-19               000034
100004302201008223010820130100822301082013               0000000000000249172-22               000035
100004302101008224010820130100822401082013               0000000000000249172-25               000036
100004302001008225010820130100822501082013               0000000000000249172-27               000037
100004301901008226010820130100822601082013               0000000000000249172-28               000038
100004301801008227010820130100822701082013               0000000000000249172-29               000039
100004301701008228010820130100822801082013               0000000000000249172-33               000040
100004301601008229010820130100822901082013               0000000000000249172-35               000041
100004301501008230010820130100823001082013               0000000000000249172-37               000042
100004301401008231010820130100823101082013               0000000000000249172-41               000043
100004301301008232010820130100823201082013               0000000000000249172-42               000044
100004301201008233010820130100823301082013               0000000000000249172-43               000045
100004301101008234010820130100823401082013               0000000000000249172-44               000046
100004301001008235010820130100823501082013               0000000000000249172-45               000047
100004300901008236010820130100823601082013               0000000000000249172-46               000048
100004300201008237010820130100823701082013               0000000000000249205-1                000049
100004303701008238010820130100823801082013               0000000000000249205-2                000050
100004303601008239010820130100823901082013               0000000000000249205-3                000051
100004303501008240010820130100824001082013               0000000000000249205-4                000052
100004303801008241010820130100824101082013               0000000000000249205-5                000053
100004303901008242010820130100824201082013               0000000000000249205-6                000054
100004303401008243010820130100824301082013               0000000000000249205-7                000055
100004299401008244010820130100824401082013               0000000000000249205-8                000056
100004307201008245010820130100824501082013               0000000000000249219-1                000057
100004307301008246010820130100824601082013               0000000000000249219-2                000058
100004307101008247010820130100824701082013               0000000000000249219-3                000059
100004307001008248010820130100824801082013               0000000000000249219-4                000060
100004306801008249010820130100824901082013               0000000000000249219-5                000061
100004306901008250010820130100825001082013               0000000000000249219-6                000062
100004309401008251010820130100825101082013               0000000000000249219-7                000063
100004309301008252010820130100825201082013               0000000000000249219-9                000064
100004309201008253010820130100825301082013               0000000000000249219-13               000065
100004305401008254010820130100825401082013               0000000000000249221-1                000066
100004304901008255010820130100825501082013               0000000000000249221-2                000067
100004305201008256010820130100825601082013               0000000000000249221-3                000068
100004305301008257010820130100825701082013               0000000000000249221-5                000069
100004304701008258010820130100825801082013               0000000000000249221-6                000070
100004304801008259010820130100825901082013               0000000000000249221-7                000071
100004305001008260010820130100826001082013               0000000000000249221-8                000072
100004305101008261010820130100826101082013               0000000000000249221-9                000073
100004309701008262010820130100826201082013               0000000000000249283-1                000074
100004309501008263010820130100826301082013               0000000000000249283-13               000075
100004309601008264010820130100826401082013               0000000000000249283-14               000076
100004312501008265010820130100826501082013               0000000000000249287-1                000077
100004312401008266010820130100826601082013               0000000000000249287-2                000078
100004312601008267010820130100826701082013               0000000000000249287-3                000079
100004315901008268010820130100826801082013               0000000000000249290-1                000080
100004312201008269010820130100826901082013               0000000000000249290-2                000081
100004314101008270010820130100827001082013               0000000000000249290-3                000082
100004311801008271010820130100827101082013               0000000000000249290-4                000083
100004309901008272010820130100827201082013               0000000000000249290-5                000084
100004314201008273010820130100827301082013               0000000000000249290-6                000085
100004311301008274010820130100827401082013               0000000000000249290-7                000086
100004311601008275010820130100827501082013               0000000000000249290-8                000087
100004311501008276010820130100827601082013               0000000000000249290-9                000088
100004311401008277010820130100827701082013               0000000000000249290-10               000089
100004316601008278010820130100827801082013               0000000000000249293-1                000090
100004316501008279010820130100827901082013               0000000000000249293-2                000091
100004316301008280010820130100828001082013               0000000000000249293-3                000092
100004316701008281010820130100828101082013               0000000000000249293-4                000093
100004316401008282010820130100828201082013               0000000000000249293-6                000094
100004319101008283010820130100828301082013               0000000000000249295-1                000095
100004319301008284010820130100828401082013               0000000000000249295-2                000096
100004319201008285010820130100828501082013               0000000000000249295-3                000097
100004321701008286010820130100828601082013               0000000000000249295-4                000098
100004322601008287010820130100828701082013               0000000000000249295-34               000099
100004322501008288010820130100828801082013               0000000000000249295-44               000100
100004322401008289010820130100828901082013               0000000000000249295-45               000101
100004322301008290010820130100829001082013               0000000000000249295-46               000102
100004322201008291010820130100829101082013               0000000000000249295-56               000103
100004322101008292010820130100829201082013               0000000000000249295-74               000104
100004322001008293010820130100829301082013               0000000000000249295-94               000105
100004321901008294010820130100829401082013               0000000000000249295-102              000106
100004321801008295010820130100829501082013               0000000000000249295-127              000107
100004318701008296010820130100829601082013               0000000000000249295-134              000108
100004318801008297010820130100829701082013               0000000000000249295-135              000109
100004319001008298010820130100829801082013               0000000000000249295-136              000110
100004318901008299010820130100829901082013               0000000000000249295-137              000111
100004318601008300010820130100830001082013               0000000000000249313-1                000112
100004324401008301010820130100830101082013               0000000000000249313-2                000113
100004323101008302010820130100830201082013               0000000000000249313-3                000114
100004322801008303010820130100830301082013               0000000000000249313-4                000115
100004323201008304010820130100830401082013               0000000000000249313-5                000116
100004324101008305010820130100830501082013               0000000000000249313-6                000117
100004324201008306010820130100830601082013               0000000000000249313-7                000118
100004316901008307010820130100830701082013               0000000000000249313-8                000119
100004324601008308010820130100830801082013               0000000000000249313-9                000120
100004325801008309010820130100830901082013               0000000000000249313-12               000121
100004325701008310010820130100831001082013               0000000000000249313-22               000122
100004325601008311010820130100831101082013               0000000000000249313-25               000123
100004325501008312010820130100831201082013               0000000000000249313-29               000124
100004325401008313010820130100831301082013               0000000000000249313-32               000125
100004325301008314010820130100831401082013               0000000000000249313-35               000126
100004325201008315010820130100831501082013               0000000000000249313-36               000127
100004325101008316010820130100831601082013               0000000000000249313-39               000128
100004325001008317010820130100831701082013               0000000000000249313-45               000129
100004324901008318010820130100831801082013               0000000000000249313-49               000130
100004324801008319010820130100831901082013               0000000000000249313-52               000131
100004324701008320010820130100832001082013               0000000000000249313-55               000132
100004323001008321010820130100832101082013               0000000000000249313-58               000133
100004322701008322010820130100832201082013               0000000000000249313-59               000134
100004322901008323010820130100832301082013               0000000000000249313-60               000135
100004320201008324010820130100832401082013               0000000000000249313-61               000136
100004324501008325010820130100832501082013               0000000000000249313-62               000137
9000136                                                                                       000138
