0RETORNONOTIFICAÇÃO ELETRONICA        21022011CONF                                            000001
100002636000477932210220110047793221022011               0000000000000122872-1                000002
100002636100477933210220110047793321022011               0000000000000122872-2                000003
100002636200477934210220110047793421022011               0000000000000122872-3                000004
100002636300477935210220110047793521022011               0000000000000122872-5                000005
100002636400477936210220110047793621022011               0000000000000122872-6                000006
9000005                                                                                       000007
