0RETORNONOTIFICAÇÃO ELETRONICA        03112010CONF                                            000001
100002478300421112011120100042111201112010               0000000000000114561-1                000002
100002478700421113011120100042111301112010               0000000000000114561-2                000003
100002478800421114011120100042111401112010               0000000000000114561-3                000004
100002478900421115011120100042111501112010               0000000000000114561-4                000005
100002479000421116011120100042111601112010               0000000000000114561-5                000006
9000005                                                                                       000007
