0RETORNONOTIFICAÇÃO ELETRONICA        12032014CONF                                            000001
100004654101152999280220140115299928022014               0000000000000287526-1                000002
100004654201153000280220140115300028022014               0000000000000287526-2                000003
100004654301153001280220140115300128022014               0000000000000287526-3                000004
100004654601153002280220140115300228022014               0000000000000287526-4                000005
100004654701153003280220140115300328022014               0000000000000287526-6                000006
100004654801153004280220140115300428022014               0000000000000287526-7                000007
100004654901153005280220140115300528022014FA245987584BR  0000010032014287526-9                000008
100004655001153006280220140115300628022014               0000000000000287611-1                000009
100004655101153007280220140115300728022014FA245987607BR  0000010032014287611-2                000010
100004655201153008280220140115300828022014               0000000000000287611-3                000011
100004655301153009280220140115300928022014FA245987624BR  0000007032014287611-4                000012
100004657101158110060320140115811006032014               0000000000000287902-1                000013
100004657201158111060320140115811106032014               0000000000000287902-2                000014
100004658301158112060320140115811206032014               0000000000000288129-1                000015
100004658401158113060320140115811306032014               0000000000000288129-2                000016
100004658501158114060320140115811406032014               0000000000000288129-5                000017
100004658601158115060320140115811506032014               0000000000000288129-6                000018
100004658701158116060320140115811606032014               0000000000000288129-7                000019
100004658801158117060320140115811706032014               0000000000000288244-1                000020
100004658901158118060320140115811806032014               0000000000000288244-2                000021
100004661501165116100320140116511610032014               0000000000000288489-1                000022
100004661601165117100320140116511710032014               0000000000000288489-2                000023
100004661701165118100320140116511810032014               0000000000000288489-3                000024
100004661801165119100320140116511910032014               0000000000000288489-4                000025
100004661901165120100320140116512010032014               0000000000000288489-6                000026
100004662001165121100320140116512110032014               0000000000000288489-7                000027
100004662101165122100320140116512210032014               0000000000000288489-8                000028
100004662201165123100320140116512310032014               0000000000000288489-16               000029
100004662301165124100320140116512410032014               0000000000000288489-17               000030
100004665001166761110320140116676111032014               0000000000000288812-1                000031
100004665101166762110320140116676211032014               0000000000000288812-2                000032
100004665201166763110320140116676311032014               0000000000000288812-3                000033
100004665301166764110320140116676411032014               0000000000000288812-4                000034
100004665401166765110320140116676511032014               0000000000000288812-5                000035
100004665501166766110320140116676611032014               0000000000000288812-6                000036
100004665601166767110320140116676711032014               0000000000000288812-7                000037
100004665701166768110320140116676811032014               0000000000000288812-9                000038
9000037                                                                                       000039
