0RETORNONOTIFICAÇÃO ELETRONICA        08112013CONF                                            000001
100004501101069507011120130106950701112013               0000000000000266711-1                000002
100004501201069508011120130106950801112013               0000000000000266711-2                000003
100004501401069509011120130106950901112013               0000000000000266711-6                000004
100004501301069510011120130106951001112013               0000000000000266711-7                000005
100004503701072614051120130107261405112013               0000000000000266972-1                000006
100004503501072615051120130107261505112013               0000000000000266972-2                000007
100004503201072616051120130107261605112013               0000000000000266972-3                000008
100004503301072617051120130107261705112013               0000000000000266972-4                000009
100004503801072618051120130107261805112013               0000000000000266972-5                000010
100004503601072619051120130107261905112013               0000000000000266972-6                000011
100004503401072620051120130107262005112013               0000000000000266972-7                000012
100004506201072945051120130107294505112013               0000000000000267235-1                000013
100004505701072946051120130107294605112013               0000000000000267235-2                000014
100004505801072947051120130107294705112013               0000000000000267235-3                000015
100004506601072948051120130107294805112013               0000000000000267235-4                000016
100004505901072949051120130107294905112013               0000000000000267235-5                000017
100004506301072950051120130107295005112013               0000000000000267235-6                000018
100004506401072951051120130107295105112013               0000000000000267235-7                000019
100004506101072952051120130107295205112013               0000000000000267235-19               000020
100004506501072953051120130107295305112013               0000000000000267235-20               000021
100004506001072954051120130107295405112013               0000000000000267235-22               000022
100004505601072955051120130107295505112013               0000000000000267235-23               000023
9000022                                                                                       000024
