0RETORNONOTIFICAÇÃO ELETRONICA        03012014CONF                                            000001
100004585701107403020120140110740302012014               0000000000000275403-1                000002
100004585801107404020120140110740402012014               0000000000000275403-2                000003
100004581101107405020120140110740502012014               0000000000000275582-1                000004
100004587301107406020120140110740602012014               0000000000000275582-2                000005
100004579201107407020120140110740702012014               0000000000000275582-3                000006
100004581001107408020120140110740802012014               0000000000000275582-4                000007
100004579101107409020120140110740902012014               0000000000000275582-5                000008
100004587401107410020120140110741002012014               0000000000000275582-6                000009
100004585501107411020120140110741102012014               0000000000000275582-7                000010
100004586201107412020120140110741202012014               0000000000000275582-8                000011
100004590001107413020120140110741302012014               0000000000000275587-1                000012
100004590301107414020120140110741402012014               0000000000000275587-2                000013
100004590101107415020120140110741502012014               0000000000000275587-3                000014
100004590201107416020120140110741602012014               0000000000000275587-5                000015
9000014                                                                                       000016
