0RETORNONOTIFICAÇÃO ELETRONICA        16122013CONF                                            000001
100004551701091706061220130109170606122013               0000000000000272294-1                000002
100004551501091707061220130109170706122013               0000000000000272294-2                000003
100004551601091708061220130109170806122013               0000000000000272294-3                000004
100004551301091709061220130109170906122013FA188227472BR  0000012122013272294-5                000005
100004551401091710061220130109171006122013FA188227486BR  0000012122013272294-6                000006
100004546501092047091220130109204709122013               0000000000000272481-1                000007
100004547501092048091220130109204809122013               0000000000000272481-2                000008
100004551201092049091220130109204909122013               0000000000000272481-3                000009
100004543601092050091220130109205009122013FA188230485BR  0000013122013272481-4                000010
100004543801092051091220130109205109122013FA188230499BR  0000013122013272481-5                000011
100004543701092052091220130109205209122013FA188230508BR  0000013122013272481-6                000012
100004550501092053091220130109205309122013               0000000000000272481-7                000013
100004553601092054091220130109205409122013FA188230525BR  0000013122013272481-8                000014
100004539901092055091220130109205509122013               0000000000000272481-9                000015
100004540001092056091220130109205609122013               0000000000000272481-10               000016
100004541601092057091220130109205709122013               0000000000000272481-11               000017
100004550101092058091220130109205809122013               0000000000000272481-12               000018
100004555101092059091220130109205909122013               0000000000000272481-13               000019
100004553401092060091220130109206009122013FA188230587BR  0000012122013272481-14               000020
100004553501092061091220130109206109122013               0000000000000272481-27               000021
100004554801092062091220130109206209122013               0000000000000272481-28               000022
100004553301092063091220130109206309122013               0000000000000272481-29               000023
100004543301092064091220130109206409122013               0000000000000272481-30               000024
100004544601092065091220130109206509122013               0000000000000272481-31               000025
100004544501092066091220130109206609122013               0000000000000272481-32               000026
100004543401092067091220130109206709122013               0000000000000272481-33               000027
100004555601093719091220130109371909122013               0000000000000272755-1                000028
100004556001093720091220130109372009122013FA188247070BR  0000013122013272755-2                000029
100004555701093721091220130109372109122013               0000000000000272755-3                000030
100004555901093722091220130109372209122013               0000000000000272755-4                000031
100004555801093723091220130109372309122013               0000000000000272755-5                000032
100004558601094838111220130109483811122013               0000000000000273005-1                000033
100004558801094839111220130109483911122013               0000000000000273005-2                000034
100004558701094840111220130109484011122013               0000000000000273005-3                000035
100004557501094841111220130109484111122013               0000000000000273005-4                000036
100004557301094842111220130109484211122013               0000000000000273005-5                000037
100004557401094843111220130109484311122013               0000000000000273005-6                000038
100004557201094844111220130109484411122013               0000000000000273005-7                000039
100004558901095004111220130109500411122013               0000000000000273224-1                000040
100004559001095005111220130109500511122013               0000000000000273224-2                000041
100004559201095006111220130109500611122013               0000000000000273224-3                000042
100004559401095007111220130109500711122013               0000000000000273224-4                000043
100004559101095008111220130109500811122013               0000000000000273224-5                000044
100004559301095009111220130109500911122013               0000000000000273224-6                000045
100004561601095613131220130109561313122013               0000000000000273480-1                000046
100004561801095614131220130109561413122013               0000000000000273480-2                000047
100004562001095615131220130109561513122013               0000000000000273480-3                000048
100004561901095616131220130109561613122013               0000000000000273480-4                000049
100004561701095617131220130109561713122013               0000000000000273480-6                000050
100004561501095618131220130109561813122013               0000000000000273480-7                000051
9000050                                                                                       000052
