0RETORNONOTIFICAÇÃO ELETRONICA        21052014CONF                                            000001
100004752101223606190520140122360619052014               0000000000000300615-1                000002
100004752201223607190520140122360719052014               0000000000000300615-2                000003
100004752301223608190520140122360819052014               0000000000000300615-3                000004
100004752401223609190520140122360919052014               0000000000000300615-4                000005
100004752501223610190520140122361019052014               0000000000000300615-5                000006
100004752601223611190520140122361119052014               0000000000000300615-6                000007
100004754401223612190520140122361219052014               0000000000000300730-1                000008
100004754501223613190520140122361319052014               0000000000000300730-2                000009
100004754601223614190520140122361419052014               0000000000000300730-3                000010
100004756001223760190520140122376019052014               0000000000000301042-1                000011
100004757401223761190520140122376119052014               0000000000000301042-2                000012
100004757501223762190520140122376219052014               0000000000000301042-3                000013
9000012                                                                                       000014
