0RETORNONOTIFICAÇÃO ELETRONICA        04052011CONF                                            000001
100002698600527479030520110052747903052011               0000000000000127503-1                000002
100002699800527480030520110052748003052011               0000000000000127503-2                000003
100002702900527481030520110052748103052011               0000000000000127503-3                000004
100002703100527482030520110052748203052011               0000000000000127503-4                000005
100002703300527483030520110052748303052011               0000000000000127503-5                000006
100002704200527484030520110052748403052011               0000000000000127503-6                000007
100002704700527485030520110052748503052011               0000000000000127503-7                000008
100002705000527486030520110052748603052011               0000000000000127503-8                000009
100002705400527487030520110052748703052011               0000000000000127503-9                000010
100002708500527488030520110052748803052011               0000000000000127503-10               000011
100002711300527489030520110052748903052011               0000000000000127503-11               000012
100002711500527490030520110052749003052011               0000000000000127503-12               000013
100002711600527491030520110052749103052011               0000000000000127503-13               000014
100002711700527492030520110052749203052011               0000000000000127503-14               000015
100002711800527493030520110052749303052011               0000000000000127503-15               000016
100002712100527494030520110052749403052011               0000000000000127503-16               000017
100002713500527495030520110052749503052011               0000000000000127503-17               000018
100002713600527496030520110052749603052011               0000000000000127503-18               000019
100002714700527497030520110052749703052011               0000000000000127503-19               000020
100002736600527460030520110052746003052011               0000000000000129266-1                000021
100002737200527461030520110052746103052011               0000000000000129266-2                000022
100002738000527462030520110052746203052011               0000000000000129266-3                000023
100002739000527463030520110052746303052011               0000000000000129266-4                000024
100002739100527464030520110052746403052011               0000000000000129266-5                000025
100002739200527465030520110052746503052011               0000000000000129266-6                000026
100002739800527466030520110052746603052011               0000000000000129266-7                000027
100002740500527467030520110052746703052011               0000000000000129266-8                000028
100002740600527468030520110052746803052011               0000000000000129266-9                000029
100002740700527469030520110052746903052011               0000000000000129266-13               000030
100002740800527470030520110052747003052011               0000000000000129266-14               000031
100002741100527471030520110052747103052011               0000000000000129266-15               000032
100002741400527472030520110052747203052011               0000000000000129266-16               000033
100002741800527473030520110052747303052011               0000000000000129266-17               000034
100002742000527474030520110052747403052011               0000000000000129266-18               000035
100002742200527475030520110052747503052011               0000000000000129266-19               000036
100002742300527476030520110052747603052011               0000000000000129266-20               000037
100002742500527477030520110052747703052011               0000000000000129266-21               000038
100002743000527478030520110052747803052011               0000000000000129266-22               000039
9000038                                                                                       000040
