0RETORNONOTIFICAÇÃO ELETRONICA        18122014CONF                                            000001
100005027701406455181220140140645518122014               0000000000000336772-1                000002
100005028901406456181220140140645618122014               0000000000000336773-1                000003
100005029001406457181220140140645718122014               0000000000000337266-1                000004
100005029101406458181220140140645818122014               0000000000000337266-2                000005
100005029201406459181220140140645918122014               0000000000000337266-7                000006
100005029301406460181220140140646018122014               0000000000000337266-10               000007
100005029401406461181220140140646118122014               0000000000000337266-11               000008
100005029901406462181220140140646218122014               0000000000000337268-1                000009
100005030001406463181220140140646318122014               0000000000000337268-2                000010
100005030801406464181220140140646418122014               0000000000000337387-1                000011
100005030901406465181220140140646518122014               0000000000000337387-2                000012
9000011                                                                                       000013
