0RETORNONOTIFICAÇÃO ELETRONICA        24022010CONF                                            000001
100002035700243149220220100024314922022010               000000000000086452-1                 000002
100002037200243150220220100024315022022010               000000000000086452-2                 000003
100002038200243151220220100024315122022010               000000000000086452-3                 000004
100002038500243152220220100024315222022010               000000000000086452-4                 000005
100002039500243153220220100024315322022010               000000000000086452-5                 000006
100002039700243154220220100024315422022010               000000000000086452-6                 000007
100002039800243155220220100024315522022010               000000000000086452-7                 000008
100002041800243156220220100024315622022010               000000000000086454-1                 000009
100002043100243157220220100024315722022010               000000000000086454-2                 000010
100002043600243158220220100024315822022010               000000000000086454-3                 000011
100002043700243159220220100024315922022010               000000000000086454-4                 000012
9000011                                                                                       000013
