0RETORNONOTIFICAÇÃO ELETRONICA        27042011CONF                                            000001
100002728700520875270420110052087527042011               0000000000000128703-1                000002
100002728800520876270420110052087627042011               0000000000000128703-5                000003
100002728900520877270420110052087727042011               0000000000000128703-6                000004
100002729000520878270420110052087827042011               0000000000000128703-7                000005
100002729100520879270420110052087927042011               0000000000000128703-8                000006
100002729200520880270420110052088027042011               0000000000000128703-9                000007
100002731500520881270420110052088127042011               0000000000000128822-1                000008
100002731600520882270420110052088227042011               0000000000000128822-2                000009
100002731700520883270420110052088327042011               0000000000000128822-3                000010
100002731800520884270420110052088427042011               0000000000000128822-4                000011
100002731900520885270420110052088527042011               0000000000000128822-7                000012
100002734600520886270420110052088627042011               0000000000000128822-9                000013
100002729800521086270420110052108627042011               0000000000000128929-1                000014
100002730400521087270420110052108727042011               0000000000000128929-2                000015
100002730500521088270420110052108827042011               0000000000000128929-3                000016
100002734200521089270420110052108927042011               0000000000000128929-4                000017
100002734700521090270420110052109027042011               0000000000000128929-5                000018
100002734800521091270420110052109127042011               0000000000000128929-6                000019
100002734900521092270420110052109227042011               0000000000000128929-9                000020
100002735000521093270420110052109327042011               0000000000000128929-10               000021
100002735100521094270420110052109427042011               0000000000000128929-11               000022
100002735200521095270420110052109527042011               0000000000000128929-13               000023
9000022                                                                                       000024
