0RETORNONOTIFICAÇÃO ELETRONICA        19122013CONF                                            000001
100004563201096065161220130109606516122013               0000000000000273663-1                000002
100004563601096066161220130109606616122013               0000000000000273663-2                000003
100004563701096067161220130109606716122013               0000000000000273663-3                000004
100004564001096068161220130109606816122013               0000000000000273663-4                000005
100004563801096069161220130109606916122013               0000000000000273663-5                000006
100004563401096070161220130109607016122013               0000000000000273663-6                000007
100004563501096071161220130109607116122013               0000000000000273663-7                000008
100004563901096072161220130109607216122013               0000000000000273663-8                000009
100004563301096073161220130109607316122013               0000000000000273663-9                000010
100004567501096455171220130109645517122013               0000000000000273947-1                000011
100004567901096456171220130109645617122013               0000000000000273947-3                000012
100004567801096457171220130109645717122013               0000000000000273947-5                000013
100004567701096458171220130109645817122013               0000000000000273947-7                000014
100004567601096459171220130109645917122013               0000000000000273947-9                000015
100004568001096460171220130109646017122013               0000000000000273947-10               000016
100004568201097079181220130109707918122013               0000000000000274133-1                000017
100004568101097080181220130109708018122013               0000000000000274133-2                000018
9000017                                                                                       000019
