0RETORNONOTIFICAÇÃO ELETRONICA        25022011CONF                                            000001
100002645500481361250220110048136125022011               0000000000000123328-1                000002
100002645600481362250220110048136225022011               0000000000000123328-2                000003
100002645700481363250220110048136325022011               0000000000000123328-3                000004
9000003                                                                                       000005
