0RETORNONOTIFICAÇÃO ELETRONICA        02022011CONF                                            000001
100002604600468465010220110046846501022011               0000000000000121241-1                000002
100002604700468466010220110046846601022011               0000000000000121241-2                000003
100002604800468467010220110046846701022011               0000000000000121241-3                000004
100002604900468468010220110046846801022011               0000000000000121241-4                000005
100002605000468469010220110046846901022011               0000000000000121241-5                000006
100002607500468470010220110046847001022011               0000000000000121241-6                000007
100002607600468471010220110046847101022011               0000000000000121241-11               000008
100002607700468472010220110046847201022011               0000000000000121241-16               000009
100002607800468473010220110046847301022011               0000000000000121244-1                000010
100002607900468474010220110046847401022011               0000000000000121244-2                000011
100002608000468475010220110046847501022011               0000000000000121244-3                000012
100002608100468476010220110046847601022011               0000000000000121244-4                000013
100002608200468477010220110046847701022011               0000000000000121244-5                000014
100002611300468478010220110046847801022011               0000000000000121244-6                000015
9000014                                                                                       000016
