0RETORNONOTIFICAÇÃO ELETRONICA        12082011CONF                                            000001
100002948900593651100820110059365110082011               0000000000000140294-1                000002
100002949000593652100820110059365210082011               0000000000000140294-2                000003
100002949100593653100820110059365310082011               0000000000000140294-3                000004
100002950500593654100820110059365410082011               0000000000000140294-4                000005
100002950600593655100820110059365510082011               0000000000000140294-5                000006
100002950700593656100820110059365610082011               0000000000000140294-6                000007
100002950800593657100820110059365710082011               0000000000000140294-7                000008
100002950900593658100820110059365810082011               0000000000000140294-8                000009
100002951000593659100820110059365910082011               0000000000000140294-9                000010
100002951100593660100820110059366010082011               0000000000000140294-10               000011
100002951200593661100820110059366110082011               0000000000000140294-11               000012
100002951300593662100820110059366210082011               0000000000000140294-12               000013
100002951400593663100820110059366310082011               0000000000000140294-13               000014
100002951500593664100820110059366410082011               0000000000000140294-14               000015
100002951600593665100820110059366510082011               0000000000000140294-15               000016
100002951700593666100820110059366610082011               0000000000000140294-16               000017
100002951800593667100820110059366710082011               0000000000000140294-17               000018
100002951900593668100820110059366810082011               0000000000000140294-18               000019
100002952000593669100820110059366910082011               0000000000000140294-19               000020
100002952100593670100820110059367010082011               0000000000000140294-20               000021
100002952200593671100820110059367110082011               0000000000000140294-21               000022
100002952300593672100820110059367210082011               0000000000000140294-22               000023
100002952400593673100820110059367310082011               0000000000000140294-23               000024
9000023                                                                                       000025
