0RETORNONOTIFICAÇÃO ELETRONICA        12032015CONF                                            000001
100005069401442364040320150144236404032015FA318691812BR  0000209032015348445-1                000002
100005070501442365040320150144236504032015FA318691826BR  0000009032015349005-1                000003
100005071201442366040320150144236604032015               0000000000000349005-3                000004
100005071301442367040320150144236704032015               0000000000000349289-1                000005
9000004                                                                                       000006
