0RETORNONOTIFICAÇÃO ELETRONICA        01082011CONF                                            000001
100002917500587478280720110058747828072011               0000000000000138527-1                000002
100002917600587479280720110058747928072011               0000000000000138527-2                000003
100002919400587480280720110058748028072011               0000000000000138527-3                000004
100002919500587481280720110058748128072011               0000000000000138527-4                000005
100002919600587482280720110058748228072011               0000000000000138527-5                000006
9000005                                                                                       000007
