0RETORNONOTIFICAÇÃO ELETRONICA        15102013CONF                                            000001
100004476301053536141020130105353614102013               0000000000000263123-1                000002
100004476501053537141020130105353714102013               0000000000000263123-2                000003
100004476401053538141020130105353814102013               0000000000000263123-3                000004
100004476701053539141020130105353914102013               0000000000000263123-4                000005
100004473101053540141020130105354014102013               0000000000000263123-5                000006
100004476601053541141020130105354114102013               0000000000000263123-6                000007
9000006                                                                                       000008
