0RETORNONOTIFICAÇÃO ELETRONICA        13032012CONF                                            000001
100003391700728923090320120072892309032012               0000000000000166011-1                000002
100003391800728924090320120072892409032012               0000000000000166011-2                000003
100003416700728925090320120072892509032012               0000000000000166011-3                000004
100003417900728926090320120072892609032012               0000000000000166011-4                000005
100003418000728927090320120072892709032012               0000000000000166011-5                000006
100003420400728928090320120072892809032012               0000000000000166011-6                000007
100003420500728929090320120072892909032012               0000000000000166011-7                000008
100003420600728930090320120072893009032012               0000000000000166011-9                000009
100003422400728931090320120072893109032012               0000000000000166011-10               000010
100003422500728932090320120072893209032012               0000000000000166011-14               000011
100003422600728933090320120072893309032012               0000000000000166011-18               000012
100003422700728934090320120072893409032012               0000000000000166011-23               000013
100003422800728935090320120072893509032012               0000000000000166011-29               000014
100003422900728936090320120072893609032012               0000000000000166011-34               000015
100003423000728937090320120072893709032012               0000000000000166011-45               000016
100003423100728938090320120072893809032012               0000000000000166011-51               000017
100003423200728939090320120072893909032012               0000000000000166011-58               000018
100003423300728940090320120072894009032012               0000000000000166011-64               000019
100003423400728941090320120072894109032012               0000000000000166011-65               000020
100003423500728942090320120072894209032012               0000000000000166011-71               000021
100003423600728943090320120072894309032012               0000000000000166011-72               000022
9000021                                                                                       000023
