0RETORNONOTIFICAÇÃO ELETRONICA        22032011CONF                                            000001
100002672000490943180320110049094318032011               0000000000000124919-1                000002
100002672100490944180320110049094418032011               0000000000000124919-2                000003
100002672200490945180320110049094518032011               0000000000000124919-3                000004
100002672300490946180320110049094618032011               0000000000000124919-4                000005
100002672400490947180320110049094718032011               0000000000000124919-5                000006
100002672500490948180320110049094818032011               0000000000000124919-6                000007
100002669700490949180320110049094918032011               0000000000000125064-1                000008
100002669800490950180320110049095018032011               0000000000000125064-2                000009
100002669900490951180320110049095118032011               0000000000000125064-3                000010
100002670000490952180320110049095218032011               0000000000000125064-4                000011
100002670100490953180320110049095318032011               0000000000000125064-5                000012
100002672600490954180320110049095418032011               0000000000000125064-6                000013
100002672700490955180320110049095518032011               0000000000000125064-7                000014
100002672800490956180320110049095618032011               0000000000000125064-11               000015
100002672900490957180320110049095718032011               0000000000000125064-12               000016
100002673000490958180320110049095818032011               0000000000000125064-13               000017
100002673100490959180320110049095918032011               0000000000000125064-14               000018
100002673200490960180320110049096018032011               0000000000000125064-15               000019
100002673300490961180320110049096118032011               0000000000000125064-16               000020
100002673400490962180320110049096218032011               0000000000000125064-17               000021
100002676700491292210320110049129221032011               0000000000000125197-1                000022
100002676800491293210320110049129321032011               0000000000000125197-3                000023
100002676900491294210320110049129421032011               0000000000000125197-4                000024
100002677000491295210320110049129521032011               0000000000000125197-5                000025
100002677100491296210320110049129621032011               0000000000000125197-6                000026
100002677200491297210320110049129721032011               0000000000000125197-7                000027
100002677300491298210320110049129821032011               0000000000000125197-8                000028
100002677400491299210320110049129921032011               0000000000000125197-9                000029
100002677500491300210320110049130021032011               0000000000000125197-10               000030
100002677600491301210320110049130121032011               0000000000000125197-11               000031
100002677700491302210320110049130221032011               0000000000000125197-12               000032
100002677800491303210320110049130321032011               0000000000000125197-13               000033
9000032                                                                                       000034
