0RETORNONOTIFICAÇÃO ELETRONICA        22122010CONF                                            000001
100002550700439901221220100043990122122010               0000000000000118399-1                000002
100002550800439902221220100043990222122010               0000000000000118399-2                000003
100002550900439903221220100043990322122010               0000000000000118399-3                000004
100002551000439904221220100043990422122010               0000000000000118399-4                000005
100002551100439905221220100043990522122010               0000000000000118399-6                000006
100002551200439906221220100043990622122010               0000000000000118399-7                000007
100002551300439907221220100043990722122010               0000000000000118399-8                000008
100002551400439908221220100043990822122010               0000000000000118399-9                000009
9000008                                                                                       000010
