0RETORNONOTIFICAÇÃO ELETRONICA        31082010CONF                                            000001
100002385900383880300820100038388030082010               0000000000000109672-1                000002
100002386000383881300820100038388130082010               0000000000000109672-2                000003
100002386100383882300820100038388230082010               0000000000000109672-3                000004
100002386200383883300820100038388330082010               0000000000000109672-4                000005
100002386300383884300820100038388430082010               0000000000000109672-5                000006
100002386400383885300820100038388530082010               0000000000000109773-1                000007
100002387800383886300820100038388630082010               0000000000000109773-2                000008
100002387900383887300820100038388730082010               0000000000000109773-10               000009
100002388000383888300820100038388830082010               0000000000000109773-19               000010
100002388100383889300820100038388930082010               0000000000000109773-20               000011
100002388200385370300820100038537030082010               0000000000000109867-1                000012
100002388300385371300820100038537130082010               0000000000000109867-2                000013
100002388400385372300820100038537230082010               0000000000000109867-5                000014
100002388500385373300820100038537330082010               0000000000000109867-6                000015
100002388600385374300820100038537430082010               0000000000000109867-7                000016
100002388700385375300820100038537530082010               0000000000000109867-8                000017
100002388800385376300820100038537630082010               0000000000000109867-9                000018
100002390400385377300820100038537730082010               0000000000000109867-10               000019
9000018                                                                                       000020
