0RETORNONOTIFICAÇÃO ELETRONICA        16122010CONF                                            000001
100002543600437364161220100043736416122010               0000000000000118068-1                000002
100002543700437365161220100043736516122010               0000000000000118068-2                000003
100002543800437366161220100043736616122010               0000000000000118068-4                000004
100002543900437367161220100043736716122010               0000000000000118068-6                000005
100002544000437368161220100043736816122010               0000000000000118068-7                000006
100002544100437369161220100043736916122010               0000000000000118068-9                000007
9000006                                                                                       000008
