0RETORNONOTIFICAÇÃO ELETRONICA        26092013CONF                                            000001
100004420701039772240920130103977224092013               0000000000000258721-1                000002
100004420901039773240920130103977324092013               0000000000000258721-3                000003
100004415301039774240920130103977424092013               0000000000000258721-5                000004
100004409801039775240920130103977524092013               0000000000000258721-6                000005
100004420801039776240920130103977624092013               0000000000000258721-7                000006
100004422201039777240920130103977724092013               0000000000000258721-9                000007
100004423101039778240920130103977824092013               0000000000000258721-10               000008
100004422501039779240920130103977924092013               0000000000000258721-11               000009
100004422401039780240920130103978024092013               0000000000000258721-12               000010
9000009                                                                                       000011
