0RETORNONOTIFICAÇÃO ELETRONICA        12112014CONF                                            000001
100005000501372221061120140137222106112014               0000000000000331516-1                000002
100005000601372222061120140137222206112014               0000000000000331516-2                000003
100005000701372223061120140137222306112014               0000000000000331516-3                000004
100005000801372224061120140137222406112014               0000000000000331516-4                000005
100005001401372225061120140137222506112014               0000000000000331516-5                000006
100005001501372226061120140137222606112014               0000000000000331516-6                000007
100005001601372227061120140137222706112014               0000000000000331516-7                000008
100005001701372228061120140137222806112014               0000000000000331516-8                000009
100005001801372229061120140137222906112014               0000000000000331516-9                000010
100005001901372230061120140137223006112014               0000000000000331516-10               000011
100005002001372231061120140137223106112014               0000000000000331516-11               000012
100005002101372232061120140137223206112014               0000000000000331516-14               000013
100005002201372233061120140137223306112014FA294881620BR  0000011112014331523-1                000014
100005002301372234061120140137223406112014               0000000000000331523-2                000015
100005002401372235061120140137223506112014               0000000000000331523-3                000016
100005002501372236061120140137223606112014FA294881655BR  0000011112014331523-5                000017
100005002601372237061120140137223706112014               0000000000000331523-6                000018
100005002801372238061120140137223806112014               0000000000000331523-7                000019
100005002901373554071120140137355407112014               0000000000000331708-1                000020
100005003101373555071120140137355507112014               0000000000000331708-2                000021
100005003201373556071120140137355607112014               0000000000000331708-6                000022
100005003301373557071120140137355707112014               0000000000000331708-13               000023
100005003401373558071120140137355807112014               0000000000000331708-26               000024
100005003501373559071120140137355907112014               0000000000000331708-29               000025
100005003601373560071120140137356007112014               0000000000000331708-30               000026
100005003701376335111120140137633511112014               0000000000000331948-1                000027
100005003801376336111120140137633611112014               0000000000000331948-3                000028
100005004601376337111120140137633711112014               0000000000000332155-1                000029
100005004701376338111120140137633811112014               0000000000000332155-2                000030
100005004801376339111120140137633911112014               0000000000000332155-3                000031
9000030                                                                                       000032
