0RETORNONOTIFICAÇÃO ELETRONICA        26112010CONF                                            000001
100002508000430848261120100043084826112010               0000000000000116445-1                000002
100002513100430849261120100043084926112010               0000000000000116445-2                000003
100002513200430850261120100043085026112010               0000000000000116445-3                000004
100002513300430851261120100043085126112010               0000000000000116445-4                000005
100002513400430852261120100043085226112010               0000000000000116445-5                000006
100002513500430853261120100043085326112010               0000000000000116445-6                000007
100002513600430854261120100043085426112010               0000000000000116445-7                000008
100002513700430855261120100043085526112010               0000000000000116445-8                000009
100002513800430856261120100043085626112010               0000000000000116445-11               000010
100002513900430857261120100043085726112010               0000000000000116445-12               000011
100002514000430858261120100043085826112010               0000000000000116445-13               000012
9000011                                                                                       000013
