0RETORNONOTIFICAÇÃO ELETRONICA        10102013CONF                                            000001
100004463601051233081020130105123308102013               0000000000000261688-1                000002
100004465801051234081020130105123408102013               0000000000000261688-2                000003
100004466201051235081020130105123508102013               0000000000000261688-3                000004
100004466101051236081020130105123608102013               0000000000000261688-4                000005
100004466001051237081020130105123708102013               0000000000000261688-5                000006
100004465901051238081020130105123808102013               0000000000000261688-6                000007
100004466601051239081020130105123908102013               0000000000000261688-7                000008
100004463701051240081020130105124008102013               0000000000000261688-8                000009
100004463501051241081020130105124108102013               0000000000000261688-9                000010
100004465701051242081020130105124208102013               0000000000000261688-12               000011
100004465601051243081020130105124308102013               0000000000000261688-13               000012
100004466801051244081020130105124408102013               0000000000000261688-14               000013
100004463801051245081020130105124508102013               0000000000000261688-15               000014
100004466301051246081020130105124608102013               0000000000000261688-16               000015
100004466401051247081020130105124708102013               0000000000000261688-17               000016
100004463901051248081020130105124808102013               0000000000000261688-18               000017
100004466701051249081020130105124908102013               0000000000000261688-20               000018
9000017                                                                                       000019
