0RETORNONOTIFICAÇÃO ELETRONICA        03102013CONF                                            000001
100004431201044348011020130104434801102013               0000000000000260103-1                000002
100004421801044349011020130104434901102013               0000000000000260103-2                000003
100004442401045119011020130104511901102013               0000000000000260411-1                000004
100004442301045120011020130104512001102013               0000000000000260411-2                000005
100004442001045121011020130104512101102013               0000000000000260411-3                000006
100004440701045122011020130104512201102013               0000000000000260411-4                000007
100004441201045123011020130104512301102013               0000000000000260411-5                000008
100004441101045124011020130104512401102013               0000000000000260411-6                000009
100004441001045125011020130104512501102013               0000000000000260411-7                000010
100004440901045126011020130104512601102013               0000000000000260411-8                000011
100004440801045127011020130104512701102013               0000000000000260411-9                000012
100004442501045128011020130104512801102013               0000000000000260411-10               000013
100004444501045129011020130104512901102013               0000000000000260411-11               000014
100004444801046173021020130104617302102013               0000000000000260638-1                000015
100004445101046174021020130104617402102013               0000000000000260638-2                000016
100004444901046175021020130104617502102013               0000000000000260638-3                000017
100004445001046176021020130104617602102013               0000000000000260638-4                000018
100004444701046177021020130104617702102013               0000000000000260638-5                000019
100004444601046178021020130104617802102013               0000000000000260638-6                000020
100004446101046179021020130104617902102013               0000000000000260638-7                000021
100004446301046180021020130104618002102013               0000000000000260638-8                000022
100004446201046181021020130104618102102013               0000000000000260638-9                000023
100004446401046182021020130104618202102013               0000000000000260638-10               000024
9000023                                                                                       000025
