0RETORNONOTIFICAÇÃO ELETRONICA        28062010CONF                                            000001
100002104300260962220320100026096222032010FR584529907BR  000003003201090110-1                 000002
100002106600262553240320100026255324032010FR584546445BR  000000104201090340-6                 000003
100002106700262554240320100026255424032010FR584546454BR  000000104201090340-7                 000004
100002106800262555240320100026255524032010FR584546468BR  000080104201090340-8                 000005
100002109500262556240320100026255624032010FR584546471BR  000003103201090340-9                 000006
100002109600262557240320100026255724032010FR584546485BR  000003103201090343-1                 000007
100002109700262558240320100026255824032010FR584546499BR  000003103201090343-2                 000008
100002109800262559240320100026255924032010FR584546508BR  000000104201090343-3                 000009
100002109900262560240320100026256024032010FR584546511BR  000003103201090343-4                 000010
100002110000262561240320100026256124032010FR584546525BR  000000504201090343-7                 000011
100002110100262562240320100026256224032010FR584546539BR  000003103201090343-8                 000012
100002110200262563240320100026256324032010FR584546542BR  000000704201090343-9                 000013
100002110300262564240320100026256424032010FR584546556BR  000003103201090343-14                000014
100002111600262565240320100026256524032010FR584546560BR  000003103201090343-15                000015
100002111700262566240320100026256624032010FR584546573BR  000003103201090343-16                000016
100002111800262567240320100026256724032010FR584546587BR  000003103201090343-17                000017
100002111900262568240320100026256824032010FR584546595BR  000003103201090343-18                000018
100002112700263400250320100026340025032010FR584554858BR  000000104201090743-1                 000019
100002112800263401250320100026340125032010FR584554861BR  000000104201090743-2                 000020
100002112900263402250320100026340225032010FR584554875BR  000000904201090743-3                 000021
100002113000263403250320100026340325032010FR584554889BR  000000104201090743-4                 000022
100002113100263404250320100026340425032010FR584554892BR  000000104201090743-5                 000023
100002113200263405250320100026340525032010FR584554901BR  000000104201090743-6                 000024
100002113300263406250320100026340625032010FR584554915BR  000000104201090743-8                 000025
100002113400263407250320100026340725032010FR584554929BR  000003103201090743-9                 000026
100002117900263987260320100026398726032010FR584561394BR  000000104201090882-1                 000027
100002118000263988260320100026398826032010FR584561403BR  000000104201090882-2                 000028
100002118100263989260320100026398926032010FR584561417BR  000000104201090882-3                 000029
100002118200263990260320100026399026032010FR584561425BR  000000104201090882-4                 000030
100002118300263991260320100026399126032010FR584561434BR  000000104201090882-5                 000031
100002118400265017290320100026501729032010FR584571635BR  000000504201090998-1                 000032
100002118500265018290320100026501829032010FR584571649BR  000000704201090998-2                 000033
100002118600265019290320100026501929032010FR584571652BR  000000704201090998-3                 000034
100002118700265020290320100026502029032010FR584571666BR  000000704201090998-4                 000035
100002118800265021290320100026502129032010FR584571670BR  000000504201090998-5                 000036
100002111100265867300320100026586730032010FR584580138BR  000001204201091423-1                 000037
100002111500265868300320100026586830032010FR584580141BR  000001304201091423-2                 000038
100002116800265869300320100026586930032010FR584580155BR  000001204201091423-3                 000039
100002117600265870300320100026587030032010FR584580169BR  000000504201091423-4                 000040
100002119300265871300320100026587130032010FR584580172BR  000000504201091423-5                 000041
100002119400265872300320100026587230032010FR584580186BR  000000504201091423-6                 000042
100002120200265873300320100026587330032010FR584580190BR  000001204201091423-7                 000043
100002120700265874300320100026587430032010FR584580209BR  000001604201091423-8                 000044
100002120800265875300320100026587530032010FR584580212BR  000000904201091423-12                000045
100002120900265876300320100026587630032010FR584580226BR  000000904201091423-13                000046
100002121000265877300320100026587730032010FR584580230BR  000001204201091423-14                000047
100002121100265878300320100026587830032010FR584580243BR  000001204201091423-17                000048
100002121200265879300320100026587930032010FR584580257BR  000001204201091423-19                000049
100002121300265880300320100026588030032010FR584580265BR  000000704201091423-20                000050
100002124400265881300320100026588130032010FR584580274BR  000001204201091423-22                000051
100002124900265882300320100026588230032010FR584580288BR  000000504201091423-23                000052
100002125000267348310320100026734831032010FR584595075BR  000001204201091703-1                 000053
100002126000267349310320100026734931032010FR584595089BR  000001204201091703-2                 000054
100002126700267350310320100026735031032010FR584595092BR  000021204201091703-3                 000055
100002127200270325060420100027032506042010FR584624871BR  000001504201091869-1                 000056
100002127300270326060420100027032606042010FR584624885BR  000001504201091869-2                 000057
100002127400270327060420100027032706042010FR584624899BR  000001504201091869-3                 000058
100002127500270328060420100027032806042010FR584624908BR  000001504201091869-4                 000059
100002127600270329060420100027032906042010FR584624911BR  000001504201091869-5                 000060
100002127800270331060420100027033106042010FR584624939BR  000231904201091869-7                 000061
100002127900270332060420100027033206042010FR584624942BR  000001504201091869-8                 000062
100002128000270333060420100027033306042010FR584624956BR  000231504201091869-9                 000063
100002129500270334060420100027033406042010FR584624960BR  000001504201092054-1                 000064
100002129600270335060420100027033506042010FR584624973BR  000001504201092054-2                 000065
100002129700270336060420100027033606042010FR584624987BR  000001504201092054-3                 000066
100002129800270337060420100027033706042010FR584624995BR  000001504201092054-4                 000067
100002129900270338060420100027033806042010FR584625007BR  000001404201092054-5                 000068
100002130000270339060420100027033906042010FR584625015BR  000001504201092054-7                 000069
100002130100270340060420100027034006042010FR584625024BR  000001504201092054-8                 000070
100002130200270341060420100027034106042010FR584625038BR  000001504201092054-9                 000071
100002130300270342060420100027034206042010FR584625041BR  000001504201092054-10                000072
100002130400270343060420100027034306042010FR584625055BR  000001504201092054-11                000073
100002131600270344060420100027034406042010FR584625069BR  000001504201092054-12                000074
100002132300270345060420100027034506042010FR584625072BR  000001504201092054-13                000075
100002133400270347060420100027034706042010FR584625090BR  000001504201092054-15                000076
100002134200270348060420100027034806042010FR584625109BR  000011504201092217-1                 000077
100002134300270349060420100027034906042010FR584625112BR  000001504201092217-2                 000078
100002134400270350060420100027035006042010FR584625126BR  000001504201092217-3                 000079
100002134500270351060420100027035106042010FR584625130BR  000001504201092217-4                 000080
100002134600270352060420100027035206042010FR584625143BR  000001404201092217-5                 000081
100002134700270353060420100027035306042010FR584625157BR  000001504201092217-6                 000082
100002134800270354060420100027035406042010FR584625165BR  000001504201092217-7                 000083
100002134900270355060420100027035506042010FR584625174BR  000001504201092217-8                 000084
100002135000270356060420100027035606042010FR584625188BR  000011504201092217-9                 000085
100002135100270357060420100027035706042010FR584625191BR  000001504201092217-10                000086
100002135200270358060420100027035806042010FR584625205BR  000001504201092217-11                000087
100002135300270359060420100027035906042010FR584625214BR  000001504201092217-12                000088
100002135400270360060420100027036006042010FR584625228BR  000001504201092217-13                000089
100002140200270361060420100027036106042010FR584625231BR  000001504201092330-1                 000090
100002140300270362060420100027036206042010FR584625245BR  000001204201092330-2                 000091
100002140400270363060420100027036306042010FR584625259BR  000001504201092330-3                 000092
100002140500270364060420100027036406042010FR584625262BR  000001404201092330-4                 000093
100002145400271160070420100027116007042010FR584633215BR  000001504201092467-1                 000094
100002145500271161070420100027116107042010FR584633224BR  000001504201092467-2                 000095
100002145600271162070420100027116207042010FR584633238BR  000001504201092467-3                 000096
100002145700271163070420100027116307042010FR584633241BR  000001504201092467-4                 000097
100002145800271164070420100027116407042010FR584633255BR  000001504201092467-5                 000098
100002145900271165070420100027116507042010FR584633269BR  000001504201092467-6                 000099
100002146000271166070420100027116607042010FR584633272BR  000001504201092467-14                000100
100002146100271167070420100027116707042010FR584633286BR  000001504201092467-15                000101
100002143400272895090420100027289509042010FR584650559BR  000001504201092706-1                 000102
100002146200272896090420100027289609042010FR584650562BR  000002204201092706-2                 000103
100002146300272897090420100027289709042010FR584650576BR  000001504201092706-3                 000104
100002146400272898090420100027289809042010FR584650580BR  000001504201092706-4                 000105
100002136600274690130420100027469013042010FR584669475BR  000002604201092912-1                 000106
100002143900274691130420100027469113042010FR584669484BR  000002704201092912-2                 000107
100002144000274692130420100027469213042010FR584669498BR  000002304201092912-3                 000108
100002144300274693130420100027469313042010FR584669507BR  000002304201092912-4                 000109
100002144600274694130420100027469413042010FR584669515BR  000002704201092912-5                 000110
100002145100274695130420100027469513042010FR584669524BR  000002704201092912-6                 000111
100002147500274696130420100027469613042010FR584669538BR  000002704201092912-7                 000112
100002148800274697130420100027469713042010FR584669541BR  000002604201092912-8                 000113
100002148900274698130420100027469813042010FR584669555BR  000002604201092912-9                 000114
100002149100274700130420100027470013042010FR584669572BR  000002704201092912-11                000115
100002149200274701130420100027470113042010FR584669586BR  000002604201092912-12                000116
100002149300274702130420100027470213042010FR584669590BR  000002704201092912-13                000117
100002150200274703130420100027470313042010FR584669609BR  000002204201092912-16                000118
100002150300274704130420100027470413042010FR584669612BR  000002304201092912-17                000119
100002150400274705130420100027470513042010FR584669626BR  000002304201092912-18                000120
100002151600274706130420100027470613042010FR584669630BR  000002204201093329-1                 000121
100002151700274707130420100027470713042010FR584669643BR  000002704201093329-2                 000122
100002151800274708130420100027470813042010FR584669657BR  000002604201093329-10                000123
100002153600282958210520100028295821052010               000000000000093517-1                 000124
100002153700282959210520100028295921052010               000000000000093517-2                 000125
100002153800282960210520100028296021052010               000000000000093517-3                 000126
100002153900282961210520100028296121052010               000000000000093517-4                 000127
100002154000282962210520100028296221052010               000000000000093517-5                 000128
100002154100282963210520100028296321052010               000000000000093517-6                 000129
100002154200282964210520100028296421052010               000000000000093517-7                 000130
100002154300282965210520100028296521052010               000000000000093517-8                 000131
100002154400282966210520100028296621052010               000000000000093517-9                 000132
100002156900282967210520100028296721052010               000000000000093517-10                000133
100002157700282968210520100028296821052010               000000000000093785-1                 000134
100002157800282969210520100028296921052010               000000000000093785-2                 000135
100002157900282970210520100028297021052010               000000000000093785-3                 000136
100002158000282971210520100028297121052010               000000000000094046-1                 000137
100002158100282972210520100028297221052010               000000000000094046-2                 000138
100002164800282973210520100028297321052010               000000000000094424-1                 000139
100002164900282974210520100028297421052010               000000000000094424-2                 000140
100002165000282975210520100028297521052010               000000000000094424-3                 000141
100002165100282976210520100028297621052010               000000000000094424-4                 000142
100002165200282977210520100028297721052010               000000000000094424-5                 000143
100002165300282978210520100028297821052010               000000000000094424-7                 000144
100002165400282979210520100028297921052010               000000000000094424-8                 000145
100002169200282980210520100028298021052010               000000000000094647-1                 000146
100002169300282981210520100028298121052010               000000000000094647-2                 000147
100002169400282982210520100028298221052010               000000000000094647-3                 000148
100002169500282983210520100028298321052010               000000000000094647-4                 000149
100002169600282984210520100028298421052010               000000000000094647-5                 000150
100002169700282985210520100028298521052010               000000000000094647-6                 000151
100002174300282986210520100028298621052010               000000000000095042-1                 000152
100002174400282987210520100028298721052010               000000000000095042-2                 000153
100002174500282988210520100028298821052010               000000000000095042-3                 000154
100002174600282989210520100028298921052010               000000000000095042-4                 000155
100002174700284591250520100028459125052010               000000000000095252-1                 000156
100002174800284592250520100028459225052010               000000000000095252-2                 000157
100002174900284593250520100028459325052010               000000000000095252-3                 000158
100002175000284594250520100028459425052010               000000000000095252-4                 000159
100002175100284595250520100028459525052010               000000000000095252-5                 000160
100002175200284596250520100028459625052010               000000000000095252-8                 000161
100002175300284597250520100028459725052010               000000000000095252-9                 000162
100002175400284598250520100028459825052010               000000000000095252-10                000163
100002175500284599250520100028459925052010               000000000000095252-11                000164
100002175600284600250520100028460025052010               000000000000095252-12                000165
100002175700284601250520100028460125052010               000000000000095252-16                000166
100002175800284602250520100028460225052010               000000000000095252-17                000167
100002181300277824100520100027782410052010               000000000000096200-1                 000168
100002181400277825100520100027782510052010               000000000000096200-2                 000169
100002181500287173310520100028717331052010               000000000000096528-1                 000170
100002181600287174310520100028717431052010               000000000000096528-2                 000171
100002181700287175310520100028717531052010               000000000000096528-3                 000172
100002181800287176310520100028717631052010               000000000000096528-4                 000173
100002181900287177310520100028717731052010               000000000000096528-5                 000174
100002182000287178310520100028717831052010               000000000000096528-13                000175
100002183000287179310520100028717931052010               000000000000096585-1                 000176
100002185200287180310520100028718031052010               000000000000096585-2                 000177
100002185300287181310520100028718131052010               000000000000096585-3                 000178
100002186100287182310520100028718231052010               000000000000096585-6                 000179
100002191600287183310520100028718331052010               000000000000096929-1                 000180
100002188600287184310520100028718431052010               000000000000096929-11                000181
100002188700287185310520100028718531052010               000000000000096929-12                000182
100002188800287186310520100028718631052010               000000000000096929-13                000183
100002191700287187310520100028718731052010               000000000000097323-1                 000184
100002191800287188310520100028718831052010               000000000000097323-2                 000185
100002191900287189310520100028718931052010               000000000000097323-3                 000186
100002192000287190310520100028719031052010               000000000000097323-4                 000187
100002192100287191310520100028719131052010               000000000000097323-5                 000188
100002192200287192310520100028719231052010               000000000000097323-6                 000189
100002192300287193310520100028719331052010               000000000000097323-17                000190
100002193100287194310520100028719431052010               000000000000097323-18                000191
100002194200277826100520100027782610052010               000000000000097594-1                 000192
100002194300277827100520100027782710052010               000000000000097594-2                 000193
100002194400277828100520100027782810052010               000000000000097594-4                 000194
100002194500277829100520100027782910052010               000000000000097594-5                 000195
100002194600277830100520100027783010052010               000000000000097594-6                 000196
100002194700277831100520100027783110052010               000000000000097594-7                 000197
100002194800277832100520100027783210052010               000000000000097594-8                 000198
100002194900277833100520100027783310052010               000000000000097594-12                000199
100002195000277834100520100027783410052010               000000000000097594-13                000200
100002195100277835100520100027783510052010               000000000000097594-39                000201
100002195200277836100520100027783610052010               000000000000097799-1                 000202
100002195300277837100520100027783710052010               000000000000097799-2                 000203
100002197400277838100520100027783810052010               000000000000098046-1                 000204
100002197500277839100520100027783910052010               000000000000098046-2                 000205
100002197600277840100520100027784010052010               000000000000098046-3                 000206
100002197700277841100520100027784110052010               000000000000098046-4                 000207
100002197800277842100520100027784210052010               000000000000098046-5                 000208
100002197900277843100520100027784310052010               000000000000098046-6                 000209
100002199300277844100520100027784410052010               000000000000098046-7                 000210
100002199100277845100520100027784510052010               000000000000098271-1                 000211
100002201200277846100520100027784610052010               000000000000098271-2                 000212
100002201300277847100520100027784710052010               000000000000098271-3                 000213
100002201400277848100520100027784810052010               000000000000098271-4                 000214
100002201600277849100520100027784910052010               000000000000098271-12                000215
100002202000277850100520100027785010052010               000000000000098271-13                000216
100002202800277851100520100027785110052010               000000000000098271-14                000217
100002203300277852100520100027785210052010               000000000000098271-15                000218
100002203500277853100520100027785310052010               000000000000098271-16                000219
100002203600277854100520100027785410052010               000000000000098271-17                000220
100002204000280917130520100028091713052010               000000000000098459-1                 000221
100002204100280918130520100028091813052010               000000000000098459-2                 000222
100002204200280919130520100028091913052010               000000000000098459-3                 000223
100002204300280920130520100028092013052010               000000000000098459-5                 000224
100002204400280921130520100028092113052010               000000000000098459-7                 000225
100002205200281253140520100028125314052010               000000000000098872-1                 000226
100002205300281254140520100028125414052010               000000000000098872-2                 000227
100002205400281255140520100028125514052010               000000000000098872-3                 000228
100002207300281256140520100028125614052010               000000000000098872-4                 000229
100002207500281257140520100028125714052010               000000000000098872-5                 000230
100002208100281258140520100028125814052010               000000000000098872-6                 000231
100002208800281259140520100028125914052010               000000000000098872-7                 000232
100002208900281260140520100028126014052010               000000000000098872-8                 000233
100002209000281261140520100028126114052010               000000000000098872-9                 000234
100002204900281262140520100028126214052010               000000000000098906-1                 000235
100002209100281263140520100028126314052010               000000000000098906-2                 000236
100002209200281264140520100028126414052010               000000000000098906-3                 000237
100002209300281265140520100028126514052010               000000000000098906-4                 000238
100002209900281266140520100028126614052010               000000000000098906-5                 000239
100002211200282201180520100028220118052010               000000000000099312-1                 000240
100002211300282202180520100028220218052010               000000000000099312-2                 000241
100002213400282203180520100028220318052010               000000000000099534-1                 000242
100002213500282204180520100028220418052010               000000000000099534-2                 000243
100002213600282205180520100028220518052010               000000000000099534-3                 000244
100002216600282924200520100028292420052010               0000000000000100169-1                000245
100002216700282925200520100028292520052010               0000000000000100169-2                000246
100002216800282926200520100028292620052010               0000000000000100169-3                000247
100002216900282927200520100028292720052010               0000000000000100169-4                000248
100002217000282928200520100028292820052010               0000000000000100169-6                000249
100002217100282929200520100028292920052010               0000000000000100169-7                000250
100002217200282930200520100028293020052010               0000000000000100169-8                000251
100002217300282931200520100028293120052010               0000000000000100169-9                000252
100002217400282932200520100028293220052010               0000000000000100169-10               000253
100002217500282933200520100028293320052010               0000000000000100169-11               000254
100002219100282934200520100028293420052010               0000000000000100171-1                000255
100002219200282935200520100028293520052010               0000000000000100171-2                000256
100002219300282936200520100028293620052010               0000000000000100171-3                000257
100002219400282937200520100028293720052010               0000000000000100171-4                000258
100002219500282938200520100028293820052010               0000000000000100171-5                000259
100002219600282939200520100028293920052010               0000000000000100171-6                000260
100002219700282940200520100028294020052010               0000000000000100171-7                000261
100002219800282941200520100028294120052010               0000000000000100171-8                000262
100002212700282993210520100028299321052010               0000000000000100204-1                000263
100002212800282994210520100028299421052010               0000000000000100204-2                000264
100002213100282995210520100028299521052010               0000000000000100204-3                000265
100002214100282996210520100028299621052010               0000000000000100204-4                000266
100002214200282997210520100028299721052010               0000000000000100204-5                000267
100002214400282998210520100028299821052010               0000000000000100204-6                000268
100002216200282999210520100028299921052010               0000000000000100204-7                000269
100002216300283000210520100028300021052010               0000000000000100204-8                000270
100002218000283001210520100028300121052010               0000000000000100204-9                000271
100002219900283002210520100028300221052010               0000000000000100204-10               000272
100002220000283003210520100028300321052010               0000000000000100204-20               000273
100002220100283004210520100028300421052010               0000000000000100204-21               000274
100002220200283005210520100028300521052010               0000000000000100204-22               000275
100002220300283006210520100028300621052010               0000000000000100204-23               000276
100002220400283007210520100028300721052010               0000000000000100204-24               000277
100002220500283008210520100028300821052010               0000000000000100204-25               000278
100002220600283009210520100028300921052010               0000000000000100204-26               000279
100002221500283010210520100028301021052010               0000000000000100204-27               000280
100002221700283011210520100028301121052010               0000000000000100204-28               000281
100002222300283012210520100028301221052010               0000000000000100204-29               000282
100002223000283013210520100028301321052010               0000000000000100204-30               000283
100002224100283014210520100028301421052010               0000000000000100204-31               000284
100002224200283015210520100028301521052010               0000000000000100204-43               000285
100002224300283016210520100028301621052010               0000000000000100204-55               000286
100002224400283017210520100028301721052010               0000000000000100204-67               000287
100002224500283018210520100028301821052010               0000000000000100204-79               000288
100002224600283019210520100028301921052010               0000000000000100204-91               000289
100002224700283020210520100028302021052010               0000000000000100204-107              000290
100002224800283021210520100028302121052010               0000000000000100204-119              000291
100002224900283022210520100028302221052010               0000000000000100204-131              000292
100002225000283023210520100028302321052010               0000000000000100204-143              000293
100002225100283024210520100028302421052010               0000000000000100204-155              000294
100002225200283025210520100028302521052010               0000000000000100204-171              000295
100002225300283026210520100028302621052010               0000000000000100204-187              000296
100002225400283027210520100028302721052010               0000000000000100204-203              000297
100002225500283028210520100028302821052010               0000000000000100204-215              000298
100002225600283029210520100028302921052010               0000000000000100204-219              000299
100002225700284603250520100028460325052010               0000000000000100444-1                000300
100002225800284604250520100028460425052010               0000000000000100444-5                000301
100002225900284605250520100028460525052010               0000000000000100444-6                000302
100002226000284606250520100028460625052010               0000000000000100444-7                000303
100002226100284607250520100028460725052010               0000000000000100444-8                000304
100002226200284608250520100028460825052010               0000000000000100444-9                000305
100002228600285821270520100028582127052010               0000000000000100874-1                000306
100002228700285822270520100028582227052010               0000000000000100874-6                000307
100002228800285823270520100028582327052010               0000000000000100874-8                000308
100002230400285824270520100028582427052010               0000000000000101156-1                000309
100002230500285825270520100028582527052010               0000000000000101156-2                000310
100002230600285826270520100028582627052010               0000000000000101156-3                000311
100002230700285827270520100028582727052010               0000000000000101156-5                000312
100002230800285828270520100028582827052010               0000000000000101156-7                000313
100002233700285829270520100028582927052010               0000000000000101156-8                000314
100002229100287195310520100028719531052010               0000000000000101308-1                000315
100002229500287196310520100028719631052010               0000000000000101308-2                000316
100002231600287197310520100028719731052010               0000000000000101308-3                000317
100002232500287198310520100028719831052010RL705280235BR  0000011062010101308-4                000318
100002232700287199310520100028719931052010RL705280244BR  0000021062010101308-5                000319
100002233500287200310520100028720031052010RL705280258BR  0000011062010101308-6                000320
100002233800287201310520100028720131052010               0000000000000101308-7                000321
100002233900287202310520100028720231052010               0000000000000101308-8                000322
100002234000287203310520100028720331052010               0000000000000101308-9                000323
100002234100287204310520100028720431052010               0000000000000101308-13               000324
100002234200287205310520100028720531052010RL705280301BR  0000015062010101308-14               000325
100002234300287206310520100028720631052010               0000000000000101351-1                000326
100002234400287207310520100028720731052010               0000000000000101351-2                000327
100002234500287208310520100028720831052010               0000000000000101351-3                000328
100002234600287209310520100028720931052010RL705280346BR  0002316062010101351-4                000329
100002235700287210310520100028721031052010               0000000000000101351-5                000330
100002236500287211310520100028721131052010               0000000000000101351-6                000331
100002236600287212310520100028721231052010               0000000000000101351-7                000332
100002245500288134020620100028813402062010               0000000000000101943-1                000333
100002245600288135020620100028813502062010               0000000000000101943-2                000334
100002245700288136020620100028813602062010RL724352814BR  0000017062010101943-3                000335
100002245800288137020620100028813702062010               0000000000000101943-5                000336
100002245900288138020620100028813802062010               0000000000000101943-6                000337
100002246000288139020620100028813902062010               0000000000000101943-7                000338
100002246100288140020620100028814002062010RL724352859BR  0000011062010101943-8                000339
100002246200290457080620100029045708062010RL724375850BR  0000017062010102100-1                000340
100002246300290458080620100029045808062010RL724375863BR  0000017062010102100-2                000341
100002246400290459080620100029045908062010RL724375877BR  0000017062010102100-3                000342
100002246500290460080620100029046008062010RL724375885BR  0000017062010102100-5                000343
100002246600290461080620100029046108062010RL724375894BR  0000217062010102100-6                000344
100002246700290462080620100029046208062010RL724375903BR  0000017062010102100-7                000345
100002246800290463080620100029046308062010RL724375917BR  0000017062010102100-8                000346
100002247000290464080620100029046408062010RL724375925BR  0000017062010102100-9                000347
100002250600290465080620100029046508062010RL724375934BR  0000017062010102100-10               000348
100002250700290466080620100029046608062010RL724375948BR  0000017062010102100-11               000349
100002250800290467080620100029046708062010RL724375951BR  0000017062010102100-12               000350
100002252100290468080620100029046808062010RL724375965BR  0000017062010102100-13               000351
100002252200290469080620100029046908062010RL724375979BR  0000021062010102100-14               000352
100002252600290470080620100029047008062010RL724375982BR  0000024062010102216-1                000353
100002252700290471080620100029047108062010RL724375996BR  0000017062010102216-2                000354
100002252800290472080620100029047208062010RL724376002BR  0000017062010102216-3                000355
100002252900290473080620100029047308062010RL724376016BR  0000017062010102216-4                000356
100002254000290474080620100029047408062010RL724376020BR  0000017062010102216-5                000357
100002255900291553110620100029155311062010RL724386778BR  0000021062010102714-1                000358
100002256000291554110620100029155411062010RL724386781BR  0000021062010102714-2                000359
100002256100291555110620100029155511062010RL724386795BR  0000021062010102714-3                000360
100002256200291556110620100029155611062010RL724386804BR  0000021062010102714-4                000361
100002256300291557110620100029155711062010RL724386818BR  0000023062010102714-6                000362
100002256400291558110620100029155811062010RL724386821BR  0000017062010102714-7                000363
100002256500291559110620100029155911062010RL724386835BR  0000021062010102714-8                000364
100002256600291560110620100029156011062010RL724386849BR  0000023062010102714-9                000365
100002256800291561110620100029156111062010RL724386852BR  0000017062010102714-10               000366
100002257100291562110620100029156211062010RL724386866BR  0000021062010102714-11               000367
100002258200291563110620100029156311062010RL724386870BR  0000017062010102714-12               000368
100002258300291564110620100029156411062010RL724386883BR  0000017062010102714-13               000369
100002258400292323150620100029232315062010RL724394479BR  0000024062010102801-1                000370
100002258500292324150620100029232415062010RL724394482BR  0000024062010102801-2                000371
100002258600292325150620100029232515062010RL724394496BR  0002324062010102801-5                000372
100002258700292326150620100029232615062010RL724394505BR  0000024062010102801-6                000373
100002262300292327150620100029232715062010RL724394519BR  0002324062010102978-1                000374
100002262400292328150620100029232815062010RL724394522BR  0000024062010102978-2                000375
100002262500292329150620100029232915062010               0000000000000102978-3                000376
100002262600292330150620100029233015062010RL724394540BR  0000024062010102978-6                000377
100002262700292331150620100029233115062010RL724394553BR  0000524062010102978-9                000378
100002262800292332150620100029233215062010RL724394567BR  0000024062010102978-10               000379
100002262900292333150620100029233315062010RL724394575BR  0000524062010102978-11               000380
100002263000292334150620100029233415062010RL724394584BR  0000024062010102978-12               000381
100002263100292335150620100029233515062010RL724394598BR  0000524062010102978-13               000382
100002265100292336150620100029233615062010RL724394607BR  0001221062010103119-1                000383
100002266300292337150620100029233715062010RL724394615BR  0000024062010103119-2                000384
100002266400292338150620100029233815062010RL724394624BR  0000024062010103119-3                000385
100002267700292339150620100029233915062010RL724394638BR  0000024062010103119-4                000386
100002267800292340150620100029234015062010RL724394641BR  0000024062010103119-5                000387
100002271800292341150620100029234115062010RL724394655BR  0000024062010103119-6                000388
100002259800292846170620100029284617062010RL724399604BR  0000024062010103220-1                000389
100002260000292847170620100029284717062010RL724399618BR  0000024062010103220-2                000390
100002270200292848170620100029284817062010               0000000000000103220-3                000391
100002270800292849170620100029284917062010RL724399635BR  0000024062010103220-4                000392
100002271900292850170620100029285017062010RL724399649BR  0000024062010103220-5                000393
100002272000292851170620100029285117062010RL724399652BR  0000024062010103220-6                000394
100002272100292852170620100029285217062010               0000000000000103220-7                000395
100002272200292853170620100029285317062010               0000000000000103220-8                000396
100002272300293080180620100029308018062010RL724402665BR  0000024062010103354-1                000397
100002272500293081180620100029308118062010               0000000000000103354-2                000398
100002273700293082180620100029308218062010               0000000000000103354-3                000399
100002273800293083180620100029308318062010               0000000000000103354-4                000400
100002273900293084180620100029308418062010               0000000000000103354-5                000401
100002274000293085180620100029308518062010               0000000000000103354-6                000402
100002274100293086180620100029308618062010               0000000000000103354-7                000403
100002274200293087180620100029308718062010               0000000000000103354-8                000404
100002274300293088180620100029308818062010               0000000000000103354-9                000405
100002274400293089180620100029308918062010               0000000000000103354-10               000406
100002274500293321210620100029332121062010               0000000000000103500-1                000407
100002274600293322210620100029332221062010               0000000000000103500-3                000408
100002274700293323210620100029332321062010               0000000000000103500-5                000409
100002274800293324210620100029332421062010               0000000000000103500-6                000410
100002274900293325210620100029332521062010               0000000000000103500-8                000411
100002275000293326210620100029332621062010               0000000000000103500-9                000412
100002275100293327210620100029332721062010               0000000000000103500-10               000413
100002275200293328210620100029332821062010               0000000000000103500-18               000414
100002275900294197220620100029419722062010               0000000000000103644-1                000415
100002276800294198220620100029419822062010               0000000000000103644-2                000416
100002278000294199220620100029419922062010               0000000000000103644-3                000417
100002278100294200220620100029420022062010               0000000000000103644-4                000418
100002278200294201220620100029420122062010               0000000000000103644-5                000419
100002278300294202220620100029420222062010               0000000000000103644-6                000420
100002281100294203220620100029420322062010               0000000000000103644-7                000421
100002281200294406230620100029440623062010               0000000000000103757-1                000422
100002281300294407230620100029440723062010               0000000000000103757-4                000423
100002281400294408230620100029440823062010               0000000000000103757-5                000424
100002284300294409230620100029440923062010               0000000000000103757-6                000425
100002281800294410230620100029441023062010               0000000000000103872-1                000426
100002282100294411230620100029441123062010               0000000000000103872-2                000427
100002284100294412230620100029441223062010               0000000000000103872-3                000428
100002284400294413230620100029441323062010               0000000000000103872-4                000429
100002284500294414230620100029441423062010               0000000000000103872-5                000430
100002284600295184240620100029518424062010               0000000000000103964-1                000431
100002284700295185240620100029518524062010               0000000000000103964-2                000432
100002284800295186240620100029518624062010               0000000000000103964-3                000433
100002284900295187240620100029518724062010               0000000000000103964-4                000434
100002285000295188240620100029518824062010               0000000000000103964-5                000435
100002285100295189240620100029518924062010               0000000000000103964-6                000436
100002285200295190240620100029519024062010               0000000000000103964-7                000437
100002286800295191240620100029519124062010               0000000000000103964-8                000438
100002286900295192240620100029519224062010               0000000000000103964-9                000439
100002287500295193240620100029519324062010               0000000000000103964-10               000440
100002286100295593250620100029559325062010               0000000000000104160-1                000441
100002287100295594250620100029559425062010               0000000000000104160-2                000442
100002288000295595250620100029559525062010               0000000000000104160-3                000443
100002288100295596250620100029559625062010               0000000000000104160-4                000444
100002288200295597250620100029559725062010               0000000000000104160-5                000445
100002288300295598250620100029559825062010               0000000000000104160-6                000446
100002288400295599250620100029559925062010               0000000000000104160-7                000447
9000446                                                                                       000448
