0RETORNONOTIFICAÇÃO ELETRONICA        27092010CONF                                            000001
100002429200395215240920100039521524092010               0000000000000111983-1                000002
100002429300395216240920100039521624092010               0000000000000111983-3                000003
100002429400395217240920100039521724092010               0000000000000111983-7                000004
100002429500395218240920100039521824092010               0000000000000111983-8                000005
100002429600395219240920100039521924092010               0000000000000111983-9                000006
100002429700395220240920100039522024092010               0000000000000111983-10               000007
9000006                                                                                       000008
