0RETORNONOTIFICAÇÃO ELETRONICA        28102011CONF                                            000001
100003144100651919271020110065191927102011               0000000000000149439-1                000002
100003145300651920271020110065192027102011               0000000000000149439-2                000003
100003146100651921271020110065192127102011               0000000000000149439-3                000004
100003146200651922271020110065192227102011               0000000000000149439-4                000005
100003146300651923271020110065192327102011               0000000000000149439-5                000006
100003149800651924271020110065192427102011               0000000000000149439-6                000007
100003150300651925271020110065192527102011               0000000000000149439-7                000008
100003150400651926271020110065192627102011               0000000000000149439-8                000009
100003150500651927271020110065192727102011               0000000000000149439-9                000010
100003150700651928271020110065192827102011               0000000000000149439-10               000011
100003151000651929271020110065192927102011               0000000000000149439-11               000012
100003151100651930271020110065193027102011               0000000000000149439-12               000013
100003151200651931271020110065193127102011               0000000000000149439-13               000014
100003151700651932271020110065193227102011               0000000000000149439-14               000015
100003152500651933271020110065193327102011               0000000000000149439-15               000016
9000015                                                                                       000017
