0RETORNONOTIFICAÇÃO ELETRONICA        24092010CONF                                            000001
100002408800394186230920100039418623092010               0000000000000111888-1                000002
100002408900394187230920100039418723092010               0000000000000111888-2                000003
100002409500394188230920100039418823092010               0000000000000111888-3                000004
100002410000394189230920100039418923092010               0000000000000111888-4                000005
100002414800394190230920100039419023092010               0000000000000111888-5                000006
100002416300394191230920100039419123092010               0000000000000111888-6                000007
100002428800394192230920100039419223092010               0000000000000111888-7                000008
100002428900394193230920100039419323092010               0000000000000111888-8                000009
100002429000394194230920100039419423092010               0000000000000111888-10               000010
100002429100394195230920100039419523092010               0000000000000111888-11               000011
9000010                                                                                       000012
