0RETORNONOTIFICAÇÃO ELETRONICA        12092014CONF                                            000001
100004904001321359090920140132135909092014               0000000000000320413-1                000002
100004904101321360090920140132136009092014               0000000000000320413-3                000003
100004904201321361090920140132136109092014               0000000000000320413-4                000004
100004904601321362090920140132136209092014               0000000000000320413-5                000005
100004905001321363090920140132136309092014               0000000000000320413-6                000006
100004905101321364090920140132136409092014               0000000000000320413-8                000007
100004905201321365090920140132136509092014               0000000000000320413-17               000008
100004905301321366090920140132136609092014               0000000000000320413-29               000009
100004905401321367090920140132136709092014               0000000000000320413-47               000010
100004905601321368090920140132136809092014               0000000000000320413-51               000011
100004905701321369090920140132136909092014               0000000000000320413-72               000012
100004905801321370090920140132137009092014               0000000000000320413-98               000013
100004905901321371090920140132137109092014               0000000000000320413-110              000014
100004906101321374090920140132137409092014               0000000000000320461-1                000015
100004906601321375090920140132137509092014               0000000000000320461-2                000016
100004906701321376090920140132137609092014               0000000000000320461-3                000017
100004906801321377090920140132137709092014               0000000000000320461-4                000018
100004906901321378090920140132137809092014               0000000000000320461-5                000019
100004907001321379090920140132137909092014               0000000000000320743-1                000020
100004907101321380090920140132138009092014               0000000000000320743-2                000021
100004907201321381090920140132138109092014               0000000000000320743-4                000022
100004907301321382090920140132138209092014               0000000000000320743-5                000023
100004907401321383090920140132138309092014               0000000000000320743-7                000024
100004907501321384090920140132138409092014               0000000000000320743-8                000025
100004907601321385090920140132138509092014               0000000000000320743-9                000026
100004907701321386090920140132138609092014               0000000000000320743-10               000027
100004907801321387090920140132138709092014               0000000000000320743-11               000028
100004908101322543100920140132254310092014               0000000000000321040-1                000029
100004909401322544100920140132254410092014               0000000000000321040-2                000030
100004909501322947110920140132294711092014               0000000000000321246-1                000031
100004909601322948110920140132294811092014               0000000000000321246-2                000032
100004909701322949110920140132294911092014               0000000000000321246-3                000033
100004909801322950110920140132295011092014               0000000000000321246-4                000034
100004909901322951110920140132295111092014               0000000000000321246-5                000035
100004910001322952110920140132295211092014               0000000000000321246-6                000036
100004910101322953110920140132295311092014               0000000000000321246-7                000037
9000036                                                                                       000038
