0RETORNONOTIFICAÇÃO ELETRONICA        10112011CONF                                            000001
100003160700661508091120110066150809112011               0000000000000150848-1                000002
100003171800661509091120110066150909112011               0000000000000150848-2                000003
100003172700661510091120110066151009112011               0000000000000150848-3                000004
100003172800661511091120110066151109112011               0000000000000150848-5                000005
100003172900661512091120110066151209112011               0000000000000150848-6                000006
100003173000661513091120110066151309112011               0000000000000150848-7                000007
100003173100661514091120110066151409112011               0000000000000150848-8                000008
100003173200661515091120110066151509112011               0000000000000150848-9                000009
100003173300661516091120110066151609112011               0000000000000150848-14               000010
100003173400661517091120110066151709112011               0000000000000150848-15               000011
100003173500661518091120110066151809112011               0000000000000150848-16               000012
100003173600661519091120110066151909112011               0000000000000150848-19               000013
100003174500661520091120110066152009112011               0000000000000150848-20               000014
100003174600661521091120110066152109112011               0000000000000150848-21               000015
100003174800661522091120110066152209112011               0000000000000150848-22               000016
100003174900661523091120110066152309112011               0000000000000150848-23               000017
100003175000661524091120110066152409112011               0000000000000150848-25               000018
100003175100661525091120110066152509112011               0000000000000150848-41               000019
100003175200661526091120110066152609112011               0000000000000150848-68               000020
100003175300661527091120110066152709112011               0000000000000150848-88               000021
100003175500661529091120110066152909112011               0000000000000150848-166              000022
100003175600661530091120110066153009112011               0000000000000150848-167              000023
9000022                                                                                       000024
