0RETORNONOTIFICAÇÃO ELETRONICA        09122010CONF                                            000001
100002535900436430091220100043643009122010               0000000000000117456-1                000002
100002536000436431091220100043643109122010               0000000000000117456-2                000003
100002536100436432091220100043643209122010               0000000000000117456-3                000004
100002536200436433091220100043643309122010               0000000000000117456-4                000005
100002536300436434091220100043643409122010               0000000000000117456-6                000006
100002536300436454091220100043645409122010               0000000000000117456-36               000007
100002536300436455091220100043645509122010               0000000000000117456-66               000008
100002536300436456091220100043645609122010               0000000000000117456-96               000009
9000008                                                                                       000010
