0RETORNONOTIFICAÇÃO ELETRONICA        30112011CONF                                            000001
100003212600672839281120110067283928112011               0000000000000153250-7                000002
100003214300672840281120110067284028112011               0000000000000153250-8                000003
100003214400675116291120110067511629112011               0000000000000153475-1                000004
100003214500675117291120110067511729112011               0000000000000153475-2                000005
100003216800675118291120110067511829112011               0000000000000153475-3                000006
100003216900675119291120110067511929112011               0000000000000153475-5                000007
100003217000675120291120110067512029112011               0000000000000153475-10               000008
100003217100675121291120110067512129112011               0000000000000153475-16               000009
100003217200675122291120110067512229112011               0000000000000153475-28               000010
100003217300675123291120110067512329112011               0000000000000153475-44               000011
9000010                                                                                       000012
