0RETORNONOTIFICAÇÃO ELETRONICA        09082013CONF                                            000001
100004326001011942060820130101194206082013               0000000000000249543-1                000002
100004325901011943060820130101194306082013               0000000000000249543-2                000003
100004326101011944060820130101194406082013               0000000000000249543-3                000004
100004326401011945060820130101194506082013               0000000000000249543-5                000005
100004326301011946060820130101194606082013               0000000000000249543-6                000006
100004326201011947060820130101194706082013               0000000000000249543-7                000007
100004327701011948060820130101194806082013               0000000000000249547-1                000008
100004328001011949060820130101194906082013               0000000000000249547-2                000009
100004327901011950060820130101195006082013               0000000000000249547-3                000010
100004327801011951060820130101195106082013               0000000000000249547-4                000011
100004329701011952060820130101195206082013               0000000000000249547-5                000012
100004328301011953060820130101195306082013               0000000000000249547-6                000013
100004328101011954060820130101195406082013               0000000000000249547-7                000014
100004328201011955060820130101195506082013               0000000000000249547-8                000015
100004337401011956060820130101195606082013               0000000000000249992-1                000016
100004337801011957060820130101195706082013               0000000000000249992-2                000017
100004338201011958060820130101195806082013               0000000000000249992-3                000018
100004340301011959060820130101195906082013               0000000000000249992-5                000019
100004340401011960060820130101196006082013               0000000000000249992-6                000020
100004337001011961060820130101196106082013               0000000000000249992-7                000021
100004337901011962060820130101196206082013               0000000000000249992-8                000022
100004338001011963060820130101196306082013               0000000000000249992-9                000023
100004338501011964060820130101196406082013               0000000000000249992-10               000024
100004337601011965060820130101196506082013               0000000000000249992-12               000025
100004337701011966060820130101196606082013               0000000000000249992-13               000026
100004338101011967060820130101196706082013               0000000000000249992-14               000027
100004330401011968060820130101196806082013               0000000000000249992-15               000028
100004330601011969060820130101196906082013               0000000000000249992-16               000029
100004330501011970060820130101197006082013               0000000000000249992-17               000030
100004337501011971060820130101197106082013               0000000000000249992-18               000031
100004338401011972060820130101197206082013               0000000000000249992-19               000032
100004338301011973060820130101197306082013               0000000000000249992-23               000033
100004340501012454070820130101245407082013               0000000000000250343-1                000034
100004340601012455070820130101245507082013               0000000000000250343-2                000035
100004340901012456070820130101245607082013               0000000000000250343-4                000036
100004340801012457070820130101245707082013               0000000000000250343-6                000037
100004340701012458070820130101245807082013               0000000000000250343-8                000038
100004342201012459070820130101245907082013               0000000000000250343-10               000039
100004343301012460070820130101246007082013               0000000000000250343-11               000040
100004344001012461070820130101246107082013               0000000000000250343-12               000041
9000040                                                                                       000042
