0RETORNONOTIFICAÇÃO ELETRONICA        01032012CONF                                            000001
100003407000724397010320120072439701032012               0000000000000164909-1                000002
100003407100724398010320120072439801032012               0000000000000164909-2                000003
100003407200724399010320120072439901032012               0000000000000164909-3                000004
100003407300724400010320120072440001032012               0000000000000164909-4                000005
9000004                                                                                       000006
