0RETORNONOTIFICAÇÃO ELETRONICA        29092011CONF                                            000001
100003084100634998280920110063499828092011               0000000000000146248-1                000002
100003084200634999280920110063499928092011               0000000000000146248-2                000003
100003084300635000280920110063500028092011               0000000000000146248-4                000004
100003084400635001280920110063500128092011               0000000000000146248-5                000005
9000004                                                                                       000006
