0RETORNONOTIFICAÇÃO ELETRONICA        06092011CONF                                            000001
100002998000618081050920110061808105092011               0000000000000143202-1                000002
100002998100618082050920110061808205092011               0000000000000143202-2                000003
100002998200618083050920110061808305092011               0000000000000143202-3                000004
100002998300618084050920110061808405092011               0000000000000143202-4                000005
100002998400618085050920110061808505092011               0000000000000143202-5                000006
9000005                                                                                       000007
