0RETORNONOTIFICAÇÃO ELETRONICA        16102012CONF                                            000001
100003806600840605091020120084060509102012               0000000000000198179-1                000002
100003806700840606091020120084060609102012               0000000000000198179-9                000003
100003806800840607091020120084060709102012               0000000000000198179-14               000004
100003806900840608091020120084060809102012               0000000000000198179-16               000005
100003807000840609091020120084060909102012               0000000000000198179-17               000006
100003807100840610091020120084061009102012               0000000000000198179-18               000007
100003807200840611091020120084061109102012               0000000000000198179-19               000008
100003809200840612091020120084061209102012               0000000000000198184-1                000009
100003809300840613091020120084061309102012               0000000000000198184-2                000010
100003809400840614091020120084061409102012               0000000000000198184-3                000011
100003809500840615091020120084061509102012               0000000000000198184-4                000012
100003809600840616091020120084061609102012FA012519084BR  0000015102012198184-5                000013
100003809700840617091020120084061709102012               0000000000000198184-6                000014
100003807900840618091020120084061809102012FA012519107BR  0000015102012198187-1                000015
100003808500840619091020120084061909102012               0000000000000198187-2                000016
100003810000840620091020120084062009102012FA012519124BR  0000015102012198187-3                000017
100003810600840621091020120084062109102012               0000000000000198187-4                000018
100003810700840622091020120084062209102012               0000000000000198187-5                000019
100003810800840623091020120084062309102012               0000000000000198187-6                000020
100003811400840624091020120084062409102012               0000000000000198187-7                000021
100003811500840625091020120084062509102012FA012519172BR  0000015102012198187-8                000022
100003811600840626091020120084062609102012FA012519186BR  0000015102012198187-9                000023
100003811700840627091020120084062709102012FA012519190BR  0000015102012198187-10               000024
100003811800840628091020120084062809102012               0000000000000198187-11               000025
100003811900840629091020120084062909102012FA012519212BR  0000015102012198187-16               000026
100003812000840630091020120084063009102012FA012519226BR  0000015102012198187-17               000027
100003812100840631091020120084063109102012               0000000000000198187-18               000028
100003812200840632091020120084063209102012FA012519243BR  0000015102012198187-19               000029
100003812400840633091020120084063309102012               0000000000000198187-20               000030
100003812500840634091020120084063409102012               0000000000000198187-21               000031
100003813900840635091020120084063509102012FA012519274BR  0000015102012198187-22               000032
100003812600841352151020120084135215102012               0000000000000198600-1                000033
100003814400841353151020120084135315102012               0000000000000198600-2                000034
100003814500841354151020120084135415102012               0000000000000198600-3                000035
100003814600841355151020120084135515102012               0000000000000198600-4                000036
100003814700841356151020120084135615102012               0000000000000198600-17               000037
100003814800841357151020120084135715102012               0000000000000198600-18               000038
100003814900841358151020120084135815102012               0000000000000198600-19               000039
100003815300841359151020120084135915102012               0000000000000198600-20               000040
100003813600841360151020120084136015102012               0000000000000198602-1                000041
100003816200841361151020120084136115102012               0000000000000198602-2                000042
100003816300841362151020120084136215102012               0000000000000198602-4                000043
100003816400841363151020120084136315102012               0000000000000198602-5                000044
100003816500841364151020120084136415102012               0000000000000198602-6                000045
100003818000841365151020120084136515102012               0000000000000198602-8                000046
100003818500841366151020120084136615102012               0000000000000198603-1                000047
100003818600841367151020120084136715102012               0000000000000198603-2                000048
100003818700841368151020120084136815102012               0000000000000198603-3                000049
100003818800841369151020120084136915102012               0000000000000198603-13               000050
9000049                                                                                       000051
