0RETORNONOTIFICAÇÃO ELETRONICA        06062011CONF                                            000001
100002795200550632030620110055063203062011               0000000000000132648-1                000002
100002795300550633030620110055063303062011               0000000000000132648-2                000003
100002795400550634030620110055063403062011               0000000000000132648-4                000004
100002795500550635030620110055063503062011               0000000000000132648-5                000005
100002795600550636030620110055063603062011               0000000000000132648-6                000006
100002795700550637030620110055063703062011               0000000000000132789-1                000007
100002795800550638030620110055063803062011               0000000000000132789-2                000008
100002795900550639030620110055063903062011               0000000000000132789-3                000009
100002796000550640030620110055064003062011               0000000000000132789-4                000010
100002796100550641030620110055064103062011               0000000000000132789-5                000011
100002796200550642030620110055064203062011               0000000000000132789-6                000012
9000011                                                                                       000013
