0RETORNONOTIFICAÇÃO ELETRONICA        29052012CONF                                            000001
100002178300000000000000000000000000000000               000000000000095717-1                 000002
100002178400000000000000000000000000000000               000000000000095717-2                 000003
100002178500000000000000000000000000000000               000000000000095946-1                 000004
100002178600000000000000000000000000000000               000000000000095946-2                 000005
100002178700000000000000000000000000000000               000000000000095946-3                 000006
100002178800000000000000000000000000000000               000000000000095946-4                 000007
100002178800000000000000000000000000000000               000000000000095946-5                 000008
100002178800000000000000000000000000000000               000000000000095946-6                 000009
100002178800000000000000000000000000000000               000000000000095946-7                 000010
100002178800000000000000000000000000000000               000000000000095946-8                 000011
100002178900000000000000000000000000000000               000000000000095946-9                 000012
100003255900000000000000000000000000000000               0000000000000156150-18               000013
100003255900000000000000000000000000000000               0000000000000156150-19               000014
100003255900000000000000000000000000000000               0000000000000156150-20               000015
100003255900000000000000000000000000000000               0000000000000156150-21               000016
100003255900000000000000000000000000000000               0000000000000156150-22               000017
100003255900000000000000000000000000000000               0000000000000156150-23               000018
100003255900000000000000000000000000000000               0000000000000156150-24               000019
100003255900000000000000000000000000000000               0000000000000156150-25               000020
100003255900000000000000000000000000000000               0000000000000156150-26               000021
100003255900000000000000000000000000000000               0000000000000156150-27               000022
100003255900000000000000000000000000000000               0000000000000156150-28               000023
100003255900000000000000000000000000000000               0000000000000156150-29               000024
100003255900000000000000000000000000000000               0000000000000156150-30               000025
100003255900000000000000000000000000000000               0000000000000156150-31               000026
100003255900000000000000000000000000000000               0000000000000156150-32               000027
100003255900000000000000000000000000000000               0000000000000156150-33               000028
100003255900000000000000000000000000000000               0000000000000156150-34               000029
100003255900000000000000000000000000000000               0000000000000156150-35               000030
100003255900000000000000000000000000000000               0000000000000156150-36               000031
100003255900000000000000000000000000000000               0000000000000156150-37               000032
100003255900000000000000000000000000000000               0000000000000156150-38               000033
100003255900000000000000000000000000000000               0000000000000156150-39               000034
100003255900000000000000000000000000000000               0000000000000156150-40               000035
100003255900000000000000000000000000000000               0000000000000156150-41               000036
100003255900000000000000000000000000000000               0000000000000156150-42               000037
100003255900000000000000000000000000000000               0000000000000156150-43               000038
100003255900000000000000000000000000000000               0000000000000156150-44               000039
100003255900000000000000000000000000000000               0000000000000156150-45               000040
100003255900000000000000000000000000000000               0000000000000156150-46               000041
100003255900000000000000000000000000000000               0000000000000156150-47               000042
100003255900000000000000000000000000000000               0000000000000156150-48               000043
100003255900000000000000000000000000000000               0000000000000156150-49               000044
100003255900000000000000000000000000000000               0000000000000156150-50               000045
100003255900000000000000000000000000000000               0000000000000156150-51               000046
100003255900000000000000000000000000000000               0000000000000156150-52               000047
100003255900000000000000000000000000000000               0000000000000156150-53               000048
100003255900000000000000000000000000000000               0000000000000156150-54               000049
100003255900000000000000000000000000000000               0000000000000156150-55               000050
100003255900000000000000000000000000000000               0000000000000156150-56               000051
100003255900000000000000000000000000000000               0000000000000156150-57               000052
100003255900000000000000000000000000000000               0000000000000156150-58               000053
100003255900000000000000000000000000000000               0000000000000156150-59               000054
100003255900000000000000000000000000000000               0000000000000156150-60               000055
100003488700752638240420120075263824042012               0000000000000171808-5                000056
100003488700000000000000000000000000000000               0000000000000171808-6                000057
100003491000752652240420120075265224042012               0000000000000171808-40               000058
100003491000000000000000000000000000000000               0000000000000171808-41               000059
100003491000000000000000000000000000000000               0000000000000171808-42               000060
100003519200760411090520120076041109052012FR852025027BR  0001222052012173677-1                000061
100003519300760412090520120076041209052012               0000000000000173677-2                000062
100003519300000000000000000000000000000000               0000000000000173677-3                000063
100003519400760413090520120076041309052012FR852025044BR  0000015052012173677-4                000064
100003519500760414090520120076041409052012FR852025058BR  0000015052012173677-5                000065
100003519600760415090520120076041509052012               0000000000000173677-6                000066
100003521100761083100520120076108310052012FR852031739BR  0000015052012174052-1                000067
100003521200761084100520120076108410052012               0000000000000174052-2                000068
100003521300761085100520120076108510052012FR852031756BR  0000022052012174052-3                000069
100003521400761086100520120076108610052012FR852031760BR  0000022052012174052-4                000070
100003521500761087100520120076108710052012FR852031773BR  0000014052012174052-5                000071
100003521500000000000000000000000000000000               0000000000000174052-6                000072
100003521500000000000000000000000000000000               0000000000000174052-7                000073
100003521600761088100520120076108810052012FR852031787BR  0000016052012174052-8                000074
100003521700761089100520120076108910052012FR852031795BR  0000015052012174052-9                000075
100003521800761090100520120076109010052012FR852031800BR  0000014052012174052-10               000076
100003523800761093100520120076109310052012               0000000000000174071-1                000077
100003523800000000000000000000000000000000               0000000000000174071-2                000078
100003523800000000000000000000000000000000               0000000000000174071-3                000079
100003523800000000000000000000000000000000               0000000000000174071-4                000080
100003523900761094100520120076109410052012FR852031844BR  0000016052012174071-5                000081
100003528100761100100520120076110010052012FR852031901BR  0000016052012174212-5                000082
100003528200761101100520120076110110052012FR852031915BR  0000515052012174212-6                000083
100003528300761102100520120076110210052012FR852031929BR  0000016052012174212-7                000084
100003528400761103100520120076110310052012FR852031932BR  0000016052012174212-8                000085
100003531200762175140520120076217514052012FR852042643BR  0000025052012174510-1                000086
100003531300762176140520120076217614052012               0000000000000174510-2                000087
100003531400762177140520120076217714052012FR852042665BR  0000022052012174510-3                000088
100003531500762178140520120076217814052012FR852042674BR  0000022052012174510-4                000089
9000088                                                                                       000090
