0RETORNONOTIFICAÇÃO ELETRONICA        20072011CONF                                            000001
100002873900579321180720110057932118072011               0000000000000137242-1                000002
100002889500579322180720110057932218072011               0000000000000137242-2                000003
100002889700579323180720110057932318072011               0000000000000137242-3                000004
100002890000579324180720110057932418072011               0000000000000137242-4                000005
100002891000579325180720110057932518072011               0000000000000137242-5                000006
100002891100579326180720110057932618072011               0000000000000137242-6                000007
100002891200579327180720110057932718072011               0000000000000137242-7                000008
100002891400579328180720110057932818072011               0000000000000137242-8                000009
100002891900579329180720110057932918072011               0000000000000137242-9                000010
100002892000579330180720110057933018072011               0000000000000137242-10               000011
100002895900579331180720110057933118072011               0000000000000137242-11               000012
100002896900579332180720110057933218072011               0000000000000137242-12               000013
100002897300579333180720110057933318072011               0000000000000137242-13               000014
100002897400579334180720110057933418072011               0000000000000137242-14               000015
100002897500579335180720110057933518072011               0000000000000137242-15               000016
100002898000579336180720110057933618072011               0000000000000137242-16               000017
100002900100579337180720110057933718072011               0000000000000137242-17               000018
100002901200579338180720110057933818072011               0000000000000137242-18               000019
100002901300579339180720110057933918072011               0000000000000137242-20               000020
9000019                                                                                       000021
