0RETORNONOTIFICAÇÃO ELETRONICA        03032011CONF                                            000001
100002652200483494020320110048349402032011               0000000000000123766-1                000002
100002652300483495020320110048349502032011               0000000000000123766-5                000003
100002652400483496020320110048349602032011               0000000000000123766-9                000004
100002652500483497020320110048349702032011               0000000000000123766-10               000005
100002652600483498020320110048349802032011               0000000000000123766-12               000006
100002654500483499020320110048349902032011               0000000000000123766-13               000007
100002654600483500020320110048350002032011               0000000000000123766-18               000008
100002654700483501020320110048350102032011               0000000000000123766-28               000009
100002654800483502020320110048350202032011               0000000000000123766-41               000010
100002654900483503020320110048350302032011               0000000000000123766-57               000011
9000010                                                                                       000012
