0RETORNONOTIFICAÇÃO ELETRONICA        13092011CONF                                            000001
100002996400623429120920110062342912092011               0000000000000143952-1                000002
100003001600623430120920110062343012092011               0000000000000143952-2                000003
100003001700623431120920110062343112092011               0000000000000143952-3                000004
100003001800623432120920110062343212092011               0000000000000143952-4                000005
100003001900623433120920110062343312092011               0000000000000143952-5                000006
100003002000623434120920110062343412092011               0000000000000143952-6                000007
100003002100623435120920110062343512092011               0000000000000143952-7                000008
9000007                                                                                       000009
