0RETORNONOTIFICAÇÃO ELETRONICA        17112011CONF                                            000001
100003181500665671161120110066567116112011               0000000000000151595-1                000002
100003181800665672161120110066567216112011               0000000000000151595-2                000003
100003181900665673161120110066567316112011               0000000000000151595-6                000004
100003182000665674161120110066567416112011               0000000000000151595-7                000005
100003182100665675161120110066567516112011               0000000000000151595-9                000006
100003182200665676161120110066567616112011               0000000000000151595-10               000007
100003182300665677161120110066567716112011               0000000000000151595-11               000008
100003182600665678161120110066567816112011               0000000000000151595-13               000009
100003176700665679161120110066567916112011               0000000000000151597-1                000010
100003183200665680161120110066568016112011               0000000000000151597-2                000011
100003183300665681161120110066568116112011               0000000000000151597-3                000012
100003183400665682161120110066568216112011               0000000000000151597-6                000013
100003183500665683161120110066568316112011               0000000000000151597-7                000014
100003183600665684161120110066568416112011               0000000000000151597-8                000015
100003183700665685161120110066568516112011               0000000000000151597-9                000016
100003187600665686161120110066568616112011               0000000000000151597-10               000017
100003187700665687161120110066568716112011               0000000000000151597-11               000018
100003187800665688161120110066568816112011               0000000000000151597-12               000019
100003187900665689161120110066568916112011               0000000000000151597-16               000020
100003188000665690161120110066569016112011               0000000000000151597-21               000021
100003188100665691161120110066569116112011               0000000000000151597-25               000022
100003188200665692161120110066569216112011               0000000000000151597-29               000023
100003188300665693161120110066569316112011               0000000000000151597-34               000024
9000023                                                                                       000025
