0RETORNONOTIFICAÇÃO ELETRONICA        20042012CONF                                            000001
100003478900750946190420120075094619042012               0000000000000171319-1                000002
100003479000750947190420120075094719042012               0000000000000171319-3                000003
100003479100750948190420120075094819042012               0000000000000171319-4                000004
100003479200750949190420120075094919042012               0000000000000171319-6                000005
100003479300750950190420120075095019042012               0000000000000171319-7                000006
100003479400750951190420120075095119042012               0000000000000171319-9                000007
100003477800750952190420120075095219042012               0000000000000171320-1                000008
100003480800750953190420120075095319042012               0000000000000171320-2                000009
100003480900750954190420120075095419042012               0000000000000171320-5                000010
100003481000750955190420120075095519042012               0000000000000171320-7                000011
100003481100750956190420120075095619042012               0000000000000171320-8                000012
100003481200750957190420120075095719042012               0000000000000171320-9                000013
100003482200750958190420120075095819042012               0000000000000171320-10               000014
100003482400750959190420120075095919042012               0000000000000171320-11               000015
100003482500750960190420120075096019042012               0000000000000171320-12               000016
100003482700751541190420120075154119042012               0000000000000171365-1                000017
100003482800751542190420120075154219042012               0000000000000171365-2                000018
100003482900751543190420120075154319042012               0000000000000171365-4                000019
100003483000751544190420120075154419042012               0000000000000171365-5                000020
100003483100751545190420120075154519042012               0000000000000171365-6                000021
100003483500751546190420120075154619042012               0000000000000171365-7                000022
100003483600751547190420120075154719042012               0000000000000171370-1                000023
100003484200751548190420120075154819042012               0000000000000171370-2                000024
100003484300751549190420120075154919042012               0000000000000171370-3                000025
100003484400751550190420120075155019042012               0000000000000171370-4                000026
100003484500751551190420120075155119042012               0000000000000171370-5                000027
100003484600751552190420120075155219042012               0000000000000171370-6                000028
100003484700751553190420120075155319042012               0000000000000171370-7                000029
100003486600751554190420120075155419042012               0000000000000171370-8                000030
9000029                                                                                       000031
