0RETORNONOTIFICAÇÃO ELETRONICA        15022011CONF                                            000001
100002625100474389140220110047438914022011               0000000000000122238-1                000002
100002626600474390140220110047439014022011               0000000000000122238-2                000003
100002626700474391140220110047439114022011               0000000000000122238-3                000004
100002626800474392140220110047439214022011               0000000000000122238-4                000005
100002627200474393140220110047439314022011               0000000000000122238-5                000006
100002627300474394140220110047439414022011               0000000000000122238-6                000007
9000006                                                                                       000008
