0RETORNONOTIFICAÇÃO ELETRONICA        30102013CONF                                            000001
100004484401060114251020130106011425102013               0000000000000264120-1                000002
100004484201060115251020130106011525102013               0000000000000264120-2                000003
100004484101060116251020130106011625102013               0000000000000264120-3                000004
100004484301060117251020130106011725102013               0000000000000264120-4                000005
100004484001060118251020130106011825102013               0000000000000264120-5                000006
100004480501060119251020130106011925102013               0000000000000264120-6                000007
100004484501060120251020130106012025102013               0000000000000264120-7                000008
100004485701057296211020130105729621102013               0000000000000264403-1                000009
100004485801057297211020130105729721102013FA159545535BR  0000024102013264403-2                000010
100004492101060936251020130106093625102013               0000000000000265317-1                000011
100004492001060937251020130106093725102013               0000000000000265317-2                000012
100004491801060938251020130106093825102013               0000000000000265317-3                000013
100004491901060939251020130106093925102013               0000000000000265317-7                000014
100004492201060940251020130106094025102013               0000000000000265317-17               000015
100004493701060941251020130106094125102013               0000000000000265321-1                000016
100004493501060942251020130106094225102013               0000000000000265321-2                000017
100004493801060943251020130106094325102013               0000000000000265321-3                000018
100004493601060944251020130106094425102013               0000000000000265321-4                000019
100004493401060945251020130106094525102013               0000000000000265321-5                000020
100004495001063916291020130106391629102013               0000000000000265634-1                000021
100004495401063917291020130106391729102013               0000000000000265634-2                000022
100004491101063918291020130106391829102013               0000000000000265634-3                000023
100004486801063919291020130106391929102013               0000000000000265634-4                000024
100004494901063920291020130106392029102013               0000000000000265634-5                000025
100004491301063921291020130106392129102013               0000000000000265634-6                000026
100004488901063922291020130106392229102013               0000000000000265634-7                000027
100004494801063923291020130106392329102013               0000000000000265634-8                000028
100004494701063924291020130106392429102013               0000000000000265634-9                000029
100004487401063925291020130106392529102013               0000000000000265634-13               000030
100004487701063926291020130106392629102013               0000000000000265634-14               000031
100004487601063927291020130106392729102013               0000000000000265634-15               000032
100004487501063928291020130106392829102013               0000000000000265634-16               000033
100004495701064638291020130106463829102013               0000000000000265902-1                000034
100004495501064639291020130106463929102013               0000000000000265902-2                000035
100004495801064640291020130106464029102013               0000000000000265902-3                000036
100004495901064641291020130106464129102013               0000000000000265902-4                000037
100004495601064642291020130106464229102013               0000000000000265902-11               000038
9000037                                                                                       000039
