0RETORNONOTIFICAÇÃO ELETRONICA        01022011CONF                                            000001
100002600000466641310120110046664131012011               0000000000000120955-1                000002
100002600100466642310120110046664231012011               0000000000000120955-2                000003
100002600200466643310120110046664331012011               0000000000000120955-3                000004
100002600300466644310120110046664431012011               0000000000000120955-4                000005
100002600400466645310120110046664531012011               0000000000000120955-5                000006
100002600500466646310120110046664631012011               0000000000000120955-6                000007
100002600600466647310120110046664731012011               0000000000000120955-7                000008
100002600700466648310120110046664831012011               0000000000000120955-8                000009
100002604300466649310120110046664931012011               0000000000000120957-1                000010
100002604400466650310120110046665031012011               0000000000000120957-2                000011
100002604500466651310120110046665131012011               0000000000000120957-6                000012
9000011                                                                                       000013
