0RETORNONOTIFICAÇÃO ELETRONICA        26102010CONF                                            000001
100002469700412200251020100041220025102010               0000000000000114044-1                000002
100002469800412201251020100041220125102010               0000000000000114044-2                000003
100002469900412202251020100041220225102010               0000000000000114044-4                000004
100002470000412203251020100041220325102010               0000000000000114044-5                000005
100002470100412204251020100041220425102010               0000000000000114044-6                000006
100002470200412205251020100041220525102010               0000000000000114044-7                000007
100002470300412206251020100041220625102010               0000000000000114044-8                000008
9000007                                                                                       000009
