0RETORNONOTIFICAÇÃO ELETRONICA        12042011CONF                                            000001
100002717700508230110420110050823011042011               0000000000000127617-1                000002
100002708600508231110420110050823111042011               0000000000000127617-21               000003
100002711200508232110420110050823211042011               0000000000000127617-22               000004
100002714800508233110420110050823311042011               0000000000000127617-23               000005
100002714900508234110420110050823411042011               0000000000000127617-25               000006
100002715000508235110420110050823511042011               0000000000000127617-26               000007
100002715700508236110420110050823611042011               0000000000000127617-28               000008
100002715800508237110420110050823711042011               0000000000000127617-29               000009
9000008                                                                                       000010
