0RETORNONOTIFICAÇÃO ELETRONICA        26052014CONF                                            000001
100004753701225626220520140122562622052014               0000000000000301378-1                000002
100004755201225627220520140122562722052014               0000000000000301378-2                000003
100004755501225628220520140122562822052014               0000000000000301378-3                000004
100004755601225629220520140122562922052014               0000000000000301378-4                000005
100004755901225630220520140122563022052014               0000000000000301378-5                000006
100004757601225631220520140122563122052014               0000000000000301378-6                000007
100004757701225632220520140122563222052014               0000000000000301378-7                000008
100004757801225633220520140122563322052014               0000000000000301378-8                000009
100004757901225634220520140122563422052014               0000000000000301378-9                000010
100004759201225635220520140122563522052014               0000000000000301378-10               000011
100004759301225636220520140122563622052014               0000000000000301378-11               000012
100004759401225637220520140122563722052014               0000000000000301378-12               000013
100004759501225695220520140122569522052014               0000000000000301769-1                000014
100004759601225696220520140122569622052014               0000000000000301769-2                000015
100004759701225697220520140122569722052014               0000000000000301769-3                000016
9000015                                                                                       000017
