0RETORNONOTIFICAÇÃO ELETRONICA        04102011CONF                                            000001
100003003300636693031020110063669303102011               0000000000000146697-1                000002
100003067700636694031020110063669403102011               0000000000000146697-2                000003
100003070400636695031020110063669503102011               0000000000000146697-3                000004
100003070600636696031020110063669603102011               0000000000000146697-4                000005
100003070700636697031020110063669703102011               0000000000000146697-5                000006
100003070800636698031020110063669803102011               0000000000000146697-6                000007
100003070900636699031020110063669903102011               0000000000000146697-7                000008
100003072800636700031020110063670003102011               0000000000000146697-8                000009
100003072900636701031020110063670103102011               0000000000000146697-9                000010
100003073100636702031020110063670203102011               0000000000000146697-10               000011
100003078000636703031020110063670303102011               0000000000000146697-11               000012
100003078500636704031020110063670403102011               0000000000000146697-12               000013
100003095600636705031020110063670503102011               0000000000000146697-13               000014
100003095700636706031020110063670603102011               0000000000000146697-14               000015
100003095800636707031020110063670703102011               0000000000000146697-16               000016
100003095900636708031020110063670803102011               0000000000000146697-18               000017
9000016                                                                                       000018
