0RETORNONOTIFICAÇÃO ELETRONICA        26062014CONF                                            000001
100004771901252879230620140125287923062014               0000000000000306555-1                000002
100004772601252880230620140125288023062014               0000000000000306555-2                000003
100004774901252881230620140125288123062014               0000000000000306555-3                000004
100004775001252882230620140125288223062014               0000000000000306555-4                000005
100004775101252883230620140125288323062014               0000000000000306555-5                000006
100004777401252884230620140125288423062014               0000000000000306555-6                000007
100004777701252885230620140125288523062014               0000000000000306555-7                000008
100004777801252886230620140125288623062014               0000000000000306555-8                000009
100004778001252887230620140125288723062014               0000000000000306555-9                000010
100004779901252888230620140125288823062014               0000000000000306555-10               000011
100004783201252889230620140125288923062014               0000000000000306555-11               000012
100004784001252890230620140125289023062014               0000000000000306555-12               000013
100004787801252891230620140125289123062014               0000000000000306555-13               000014
100004790601252892230620140125289223062014               0000000000000306555-14               000015
100004792201252893230620140125289323062014               0000000000000306555-15               000016
100004808401252894230620140125289423062014               0000000000000306555-16               000017
100004808501252895230620140125289523062014               0000000000000306555-17               000018
100004817501252896230620140125289623062014               0000000000000306555-18               000019
100004817601252897230620140125289723062014               0000000000000306555-19               000020
100004817701252898230620140125289823062014               0000000000000306555-20               000021
100004817801252899230620140125289923062014               0000000000000306555-21               000022
100004817901252900230620140125290023062014               0000000000000306555-22               000023
100004819201252901230620140125290123062014               0000000000000306555-23               000024
100004819301252902230620140125290223062014               0000000000000306555-24               000025
100004819501252903230620140125290323062014               0000000000000306555-25               000026
100004819601252904230620140125290423062014               0000000000000306555-26               000027
100004819701252905230620140125290523062014               0000000000000306555-27               000028
100004819801252906230620140125290623062014               0000000000000306555-28               000029
100004820201252907230620140125290723062014               0000000000000306560-1                000030
100004820301252908230620140125290823062014               0000000000000306560-2                000031
100004820401252909230620140125290923062014               0000000000000306560-4                000032
100004820501252910230620140125291023062014               0000000000000306560-5                000033
100004820601252911230620140125291123062014               0000000000000306560-6                000034
100004820701252912230620140125291223062014               0000000000000306560-7                000035
100004821001252913230620140125291323062014               0000000000000306560-9                000036
100004821101252914230620140125291423062014               0000000000000306560-10               000037
100004821901254335250620140125433525062014               0000000000000306794-1                000038
100004822001254336250620140125433625062014               0000000000000306794-2                000039
100004822601254337250620140125433725062014               0000000000000306794-3                000040
100004822701254338250620140125433825062014               0000000000000306823-1                000041
100004822801254339250620140125433925062014               0000000000000306823-2                000042
100004822901254340250620140125434025062014               0000000000000306823-4                000043
100004823001254341250620140125434125062014               0000000000000306823-5                000044
100004823101254342250620140125434225062014               0000000000000306823-6                000045
100004823201254343250620140125434325062014               0000000000000306823-7                000046
100004823801254344250620140125434425062014               0000000000000306823-8                000047
100004823901254345250620140125434525062014               0000000000000306823-9                000048
100004824001254346250620140125434625062014               0000000000000306823-10               000049
100004824201254347250620140125434725062014               0000000000000306823-11               000050
100004824401254348250620140125434825062014               0000000000000306950-1                000051
9000050                                                                                       000052
