0RETORNONOTIFICAÇÃO ELETRONICA        11052011CONF                                            000001
100002745500533307100520110053330710052011               0000000000000129792-1                000002
100002746300533308100520110053330810052011               0000000000000129792-2                000003
100002746700533309100520110053330910052011               0000000000000129792-3                000004
100002746800533310100520110053331010052011               0000000000000129792-4                000005
100002743500533311100520110053331110052011               0000000000000129955-1                000006
100002747100533312100520110053331210052011               0000000000000129955-2                000007
100002747200533313100520110053331310052011               0000000000000129955-3                000008
100002747600533314100520110053331410052011               0000000000000129955-4                000009
100002747700533315100520110053331510052011               0000000000000129955-5                000010
100002747800533316100520110053331610052011               0000000000000129955-6                000011
100002748200533317100520110053331710052011               0000000000000129955-7                000012
100002748500533318100520110053331810052011               0000000000000129955-8                000013
100002748600533319100520110053331910052011               0000000000000129955-9                000014
100002748700533320100520110053332010052011               0000000000000129955-10               000015
100002748800533321100520110053332110052011               0000000000000129955-11               000016
100002748900533322100520110053332210052011               0000000000000129955-12               000017
100002749000533323100520110053332310052011               0000000000000129955-13               000018
100002750400533324100520110053332410052011               0000000000000129955-14               000019
100002751800534329100520110053432910052011               0000000000000130021-1                000020
100002751900534330100520110053433010052011               0000000000000130021-3                000021
100002752100534331100520110053433110052011               0000000000000130021-4                000022
100002752600534332100520110053433210052011               0000000000000130021-5                000023
100002752800534333100520110053433310052011               0000000000000130021-6                000024
100002753000534334100520110053433410052011               0000000000000130021-7                000025
100002754300534335100520110053433510052011               0000000000000130021-8                000026
100002754400534336100520110053433610052011               0000000000000130021-9                000027
100002754500534337100520110053433710052011               0000000000000130021-10               000028
100002754700534338100520110053433810052011               0000000000000130021-11               000029
100002754800534339100520110053433910052011               0000000000000130021-12               000030
100002755100534340100520110053434010052011               0000000000000130021-13               000031
9000030                                                                                       000032
