0RETORNONOTIFICAÇÃO ELETRONICA        17052011CONF                                            000001
100002756100536639160520110053663916052011               0000000000000130382-1                000002
100002756200536640160520110053664016052011               0000000000000130382-2                000003
100002759600536641160520110053664116052011               0000000000000130731-1                000004
100002759700536642160520110053664216052011               0000000000000130731-2                000005
100002759800536643160520110053664316052011               0000000000000130731-3                000006
100002759900536644160520110053664416052011               0000000000000130731-6                000007
100002760000536645160520110053664516052011               0000000000000130731-7                000008
100002760100536646160520110053664616052011               0000000000000130731-8                000009
100002760200536647160520110053664716052011               0000000000000130731-11               000010
100002762200536648160520110053664816052011               0000000000000130731-13               000011
100002762300536649160520110053664916052011               0000000000000130731-14               000012
100002762400536650160520110053665016052011               0000000000000130731-15               000013
100002762500536651160520110053665116052011               0000000000000130731-16               000014
100002762600536652160520110053665216052011               0000000000000130731-17               000015
100002762700536653160520110053665316052011               0000000000000130731-20               000016
100002762800536654160520110053665416052011               0000000000000130731-21               000017
100002762900536655160520110053665516052011               0000000000000130731-22               000018
100002763000536656160520110053665616052011               0000000000000130731-23               000019
100002763100536657160520110053665716052011               0000000000000130731-24               000020
100002763200536658160520110053665816052011               0000000000000130731-25               000021
100002763300536659160520110053665916052011               0000000000000130731-26               000022
100002763400536660160520110053666016052011               0000000000000130731-28               000023
100002763500536661160520110053666116052011               0000000000000130731-29               000024
100002763600536662160520110053666216052011               0000000000000130731-30               000025
100002763700536663160520110053666316052011               0000000000000130731-32               000026
100002763800536664160520110053666416052011               0000000000000130731-33               000027
100002763900536665160520110053666516052011               0000000000000130731-34               000028
100002764000536666160520110053666616052011               0000000000000130731-35               000029
100002764100536667160520110053666716052011               0000000000000130731-36               000030
100002764200536668160520110053666816052011               0000000000000130731-37               000031
100002764300536669160520110053666916052011               0000000000000130731-39               000032
100002764400536670160520110053667016052011               0000000000000130731-40               000033
100002764500536671160520110053667116052011               0000000000000130731-42               000034
100002764600536672160520110053667216052011               0000000000000130731-43               000035
100002764700536673160520110053667316052011               0000000000000130731-44               000036
100002764800536674160520110053667416052011               0000000000000130731-47               000037
100002764900536675160520110053667516052011               0000000000000130731-51               000038
100002765000536676160520110053667616052011               0000000000000130731-53               000039
100002765100536677160520110053667716052011               0000000000000130731-54               000040
100002765200536678160520110053667816052011               0000000000000130731-56               000041
100002765300536679160520110053667916052011               0000000000000130731-59               000042
100002765400536680160520110053668016052011               0000000000000130731-62               000043
100002765500536681160520110053668116052011               0000000000000130731-68               000044
100002765600536682160520110053668216052011               0000000000000130731-74               000045
100002765700536683160520110053668316052011               0000000000000130731-77               000046
100002765800536684160520110053668416052011               0000000000000130731-79               000047
100002765900536685160520110053668516052011               0000000000000130731-81               000048
100002766000536686160520110053668616052011               0000000000000130731-82               000049
100002766300536687160520110053668716052011               0000000000000130731-84               000050
100002766400536688160520110053668816052011               0000000000000130731-86               000051
100002766500536689160520110053668916052011               0000000000000130731-89               000052
100002766600536690160520110053669016052011               0000000000000130731-92               000053
100002766700536691160520110053669116052011               0000000000000130731-98               000054
100002766800536692160520110053669216052011               0000000000000130731-104              000055
100002766900536693160520110053669316052011               0000000000000130731-107              000056
100002767000536694160520110053669416052011               0000000000000130731-109              000057
100002767100536695160520110053669516052011               0000000000000130731-111              000058
100002767200536696160520110053669616052011               0000000000000130731-112              000059
100002767400536697160520110053669716052011               0000000000000130731-114              000060
100002767500536698160520110053669816052011               0000000000000130731-116              000061
100002767600536699160520110053669916052011               0000000000000130731-118              000062
100002767700536700160520110053670016052011               0000000000000130731-119              000063
100002767800536701160520110053670116052011               0000000000000130731-122              000064
100002767900536702160520110053670216052011               0000000000000130731-125              000065
100002768000536703160520110053670316052011               0000000000000130731-128              000066
100002768100536704160520110053670416052011               0000000000000130731-131              000067
100002768200536705160520110053670516052011               0000000000000130731-133              000068
100002768300536706160520110053670616052011               0000000000000130731-134              000069
100002768400536707160520110053670716052011               0000000000000130731-136              000070
100002768500536708160520110053670816052011               0000000000000130731-138              000071
100002768600536709160520110053670916052011               0000000000000130731-146              000072
100002768700536710160520110053671016052011               0000000000000130731-151              000073
100002769000536711160520110053671116052011               0000000000000130731-152              000074
100002769100536712160520110053671216052011               0000000000000130731-155              000075
100002769200536713160520110053671316052011               0000000000000130731-158              000076
100002769700536714160520110053671416052011               0000000000000130731-175              000077
100002769800536715160520110053671516052011               0000000000000130731-187              000078
100002769900536716160520110053671616052011               0000000000000130731-198              000079
100002770200536717160520110053671716052011               0000000000000130731-206              000080
100002770300536718160520110053671816052011               0000000000000130731-218              000081
100002770400536719160520110053671916052011               0000000000000130731-227              000082
100002770500536720160520110053672016052011               0000000000000130731-230              000083
100002770600536721160520110053672116052011               0000000000000130731-233              000084
9000083                                                                                       000085
