0RETORNONOTIFICAÇÃO ELETRONICA        30102012CONF                                            000001
100003827400849184261020120084918426102012               0000000000000201182-1                000002
100003829400849185261020120084918526102012               0000000000000201182-2                000003
100003829700849186261020120084918626102012               0000000000000201182-3                000004
100003829800849187261020120084918726102012               0000000000000201182-4                000005
100003829900849188261020120084918826102012               0000000000000201182-5                000006
100003807300849189261020120084918926102012               0000000000000201186-1                000007
100003833000849190261020120084919026102012               0000000000000201186-2                000008
100003833100849191261020120084919126102012               0000000000000201186-3                000009
100003833200849192261020120084919226102012               0000000000000201186-4                000010
100003833300849193261020120084919326102012               0000000000000201186-5                000011
100003833400849194261020120084919426102012               0000000000000201186-6                000012
100003834400849195261020120084919526102012               0000000000000201189-1                000013
100003834500849196261020120084919626102012               0000000000000201189-2                000014
100003834600849197261020120084919726102012               0000000000000201189-3                000015
100003834700849198261020120084919826102012               0000000000000201189-4                000016
100003834800849199261020120084919926102012               0000000000000201189-5                000017
100003834900849200261020120084920026102012               0000000000000201189-6                000018
100003837200849201261020120084920126102012               0000000000000201193-1                000019
100003837300849202261020120084920226102012               0000000000000201193-2                000020
100003837400849203261020120084920326102012               0000000000000201193-3                000021
9000020                                                                                       000022
