0RETORNONOTIFICAÇÃO ELETRONICA        14102011CONF                                            000001
100003119300643274131020110064327413102011               0000000000000147870-1                000002
100003119400643275131020110064327513102011               0000000000000147870-2                000003
100003119500643276131020110064327613102011               0000000000000147870-5                000004
100003119600643277131020110064327713102011               0000000000000147870-6                000005
100003119700643278131020110064327813102011               0000000000000147870-7                000006
100003119800643279131020110064327913102011               0000000000000147870-8                000007
100003119900643280131020110064328013102011               0000000000000147870-9                000008
100003120000643281131020110064328113102011               0000000000000147870-10               000009
100003120100643282131020110064328213102011               0000000000000147870-11               000010
100003122700643283131020110064328313102011               0000000000000147870-12               000011
100003122800643284131020110064328413102011               0000000000000147870-13               000012
100003122900643285131020110064328513102011               0000000000000147870-14               000013
100003123000643286131020110064328613102011               0000000000000147870-15               000014
100003123100643287131020110064328713102011               0000000000000147870-16               000015
100003123200643288131020110064328813102011               0000000000000147870-17               000016
100003123300643289131020110064328913102011               0000000000000147870-18               000017
100003123400643290131020110064329013102011               0000000000000147870-19               000018
100003123500643291131020110064329113102011               0000000000000147870-21               000019
100003123600643292131020110064329213102011               0000000000000147870-24               000020
100003123700643293131020110064329313102011               0000000000000147870-25               000021
100003123800643294131020110064329413102011               0000000000000147870-27               000022
100003123900643295131020110064329513102011               0000000000000147870-29               000023
100003124000643296131020110064329613102011               0000000000000147870-32               000024
100003124100643297131020110064329713102011               0000000000000147870-35               000025
100003124200643298131020110064329813102011               0000000000000147870-37               000026
100003124300643299131020110064329913102011               0000000000000147870-38               000027
100003124400643300131020110064330013102011               0000000000000147870-39               000028
100003124500643301131020110064330113102011               0000000000000147870-40               000029
100003124600643302131020110064330213102011               0000000000000147870-41               000030
100003124700643303131020110064330313102011               0000000000000147870-42               000031
100003124800643304131020110064330413102011               0000000000000147870-43               000032
100003124900643305131020110064330513102011               0000000000000147870-44               000033
100003125000643306131020110064330613102011               0000000000000147870-45               000034
100003125100643307131020110064330713102011               0000000000000147870-46               000035
100003125200643308131020110064330813102011               0000000000000147870-47               000036
100003125300643309131020110064330913102011               0000000000000147870-48               000037
100003125400643310131020110064331013102011               0000000000000147870-49               000038
100003125500643311131020110064331113102011               0000000000000147870-50               000039
100003125600643312131020110064331213102011               0000000000000147870-51               000040
100003125700643313131020110064331313102011               0000000000000147870-52               000041
100003125800643314131020110064331413102011               0000000000000147870-53               000042
100003125900643315131020110064331513102011               0000000000000147870-54               000043
100003126000643316131020110064331613102011               0000000000000147870-57               000044
100003126100643317131020110064331713102011               0000000000000147870-58               000045
100003126200643318131020110064331813102011               0000000000000147870-60               000046
9000045                                                                                       000047
