0RETORNONOTIFICAÇÃO ELETRONICA        20012012CONF                                            000001
100003243500707398190120120070739819012012               0000000000000158716-1                000002
100003245900707399190120120070739919012012               0000000000000158716-2                000003
100003246300707400190120120070740019012012               0000000000000158716-3                000004
100003328400707401190120120070740119012012               0000000000000158716-4                000005
100003328500707402190120120070740219012012               0000000000000158716-5                000006
100003329500707403190120120070740319012012               0000000000000158942-1                000007
100003329600707404190120120070740419012012               0000000000000158942-10               000008
100003330800707405190120120070740519012012               0000000000000158942-11               000009
9000008                                                                                       000010
