0RETORNONOTIFICAÇÃO ELETRONICA        23082010CONF                                            000001
100002376000319521200820100031952120082010               0000000000000109213-1                000002
100002376100319522200820100031952220082010               0000000000000109213-3                000003
100002376200319523200820100031952320082010               0000000000000109213-4                000004
100002376300319524200820100031952420082010               0000000000000109213-12               000005
100002376400319525200820100031952520082010               0000000000000109213-13               000006
100002376500319526200820100031952620082010               0000000000000109213-14               000007
100002376600319527200820100031952720082010               0000000000000109213-15               000008
100002376700319528200820100031952820082010               0000000000000109213-16               000009
100002376800319529200820100031952920082010               0000000000000109213-18               000010
100002376900319530200820100031953020082010               0000000000000109213-19               000011
100002377000319531200820100031953120082010               0000000000000109213-22               000012
100002377100319532200820100031953220082010               0000000000000109213-23               000013
100002377200319533200820100031953320082010               0000000000000109213-24               000014
100002377300319534200820100031953420082010               0000000000000109213-27               000015
9000014                                                                                       000016
