0RETORNONOTIFICAÇÃO ELETRONICA        15122011CONF                                            000001
100003196800687231121220110068723112122011               0000000000000155078-1                000002
100003198600687232121220110068723212122011               0000000000000155078-2                000003
100003245400687233121220110068723312122011               0000000000000155078-3                000004
100003245500687234121220110068723412122011               0000000000000155078-4                000005
100003247000687235121220110068723512122011               0000000000000155078-6                000006
9000005                                                                                       000007
