0RETORNONOTIFICAÇÃO ELETRONICA        25052011CONF                                            000001
100002771900541485240520110054148524052011               0000000000000131588-1                000002
100002778500541486240520110054148624052011               0000000000000131588-2                000003
100002778600541487240520110054148724052011               0000000000000131588-3                000004
100002778700541488240520110054148824052011               0000000000000131588-4                000005
9000004                                                                                       000006
