0RETORNONOTIFICAÇÃO ELETRONICA        19052014CONF                                            000001
100004745601221803140520140122180314052014               0000000000000300278-1                000002
100004747801221804140520140122180414052014               0000000000000300278-2                000003
100004750101221805140520140122180514052014               0000000000000300278-3                000004
100004750201221806140520140122180614052014               0000000000000300278-4                000005
100004750301221807140520140122180714052014               0000000000000300278-5                000006
100004751101221808140520140122180814052014               0000000000000300280-1                000007
100004751201221809140520140122180914052014               0000000000000300280-2                000008
100004751301221810140520140122181014052014               0000000000000300280-3                000009
9000008                                                                                       000010
