0RETORNONOTIFICAÇÃO ELETRONICA        15122010CONF                                            000001
100002541900437202151220100043720215122010               0000000000000117916-1                000002
100002542000437203151220100043720315122010               0000000000000117916-2                000003
100002542100437204151220100043720415122010               0000000000000117916-4                000004
100002542200437205151220100043720515122010               0000000000000117916-5                000005
100002543500437206151220100043720615122010               0000000000000117916-6                000006
9000005                                                                                       000007
