0RETORNONOTIFICAÇÃO ELETRONICA        21092010CONF                                            000001
100002418900391687200920100039168720092010               0000000000000111520-1                000002
100002419000391688200920100039168820092010               0000000000000111520-2                000003
100002419100391689200920100039168920092010               0000000000000111520-4                000004
100002419200391690200920100039169020092010               0000000000000111520-6                000005
100002419300391691200920100039169120092010               0000000000000111520-7                000006
100002419400391692200920100039169220092010               0000000000000111520-8                000007
100002419500391693200920100039169320092010               0000000000000111520-10               000008
100002419600391694200920100039169420092010               0000000000000111520-13               000009
100002419700391695200920100039169520092010               0000000000000111520-14               000010
100002419800391696200920100039169620092010               0000000000000111520-15               000011
100002419900391697200920100039169720092010               0000000000000111520-16               000012
100002420000391698200920100039169820092010               0000000000000111520-19               000013
100002420100391699200920100039169920092010               0000000000000111520-20               000014
100002420200391700200920100039170020092010               0000000000000111520-21               000015
100002420300391701200920100039170120092010               0000000000000111520-22               000016
100002420400391702200920100039170220092010               0000000000000111520-23               000017
100002420500391703200920100039170320092010               0000000000000111520-24               000018
9000017                                                                                       000019
