0RETORNONOTIFICAÇÃO ELETRONICA        26012015CONF                                            000001
100005051501431013230120150143101323012015               0000000000000341930-1                000002
100005052101431014230120150143101423012015               0000000000000342411-1                000003
100005052201431015230120150143101523012015               0000000000000342411-2                000004
100005052601431016230120150143101623012015               0000000000000342411-3                000005
100005052701431017230120150143101723012015               0000000000000342411-18               000006
100005052801431018230120150143101823012015               0000000000000342411-22               000007
100005052901431019230120150143101923012015               0000000000000342411-32               000008
100005053001431020230120150143102023012015               0000000000000342411-40               000009
100005053101431021230120150143102123012015               0000000000000342411-44               000010
100005053201431022230120150143102223012015               0000000000000342411-48               000011
100005053301431023230120150143102323012015               0000000000000342411-55               000012
100005053401431024230120150143102423012015               0000000000000342411-61               000013
100005053501431025230120150143102523012015               0000000000000342411-64               000014
100005053601431026230120150143102623012015               0000000000000342411-73               000015
100005053701431027230120150143102723012015               0000000000000342411-77               000016
100005053801431028230120150143102823012015               0000000000000342411-80               000017
100005053901431029230120150143102923012015               0000000000000342411-83               000018
100005054001431030230120150143103023012015               0000000000000342411-86               000019
100005054101431031230120150143103123012015               0000000000000342411-90               000020
100005054201431032230120150143103223012015               0000000000000342411-92               000021
100005054301431033230120150143103323012015               0000000000000342411-95               000022
100005054401431034230120150143103423012015               0000000000000342411-96               000023
100005054501431035230120150143103523012015               0000000000000342411-98               000024
100005054601431036230120150143103623012015               0000000000000342411-99               000025
100005054701431037230120150143103723012015               0000000000000342411-102              000026
100005054801431038230120150143103823012015               0000000000000342411-106              000027
100005054901431039230120150143103923012015               0000000000000342411-108              000028
100005055001431040230120150143104023012015               0000000000000342411-110              000029
100005055101431041230120150143104123012015               0000000000000342411-112              000030
100005055201431042230120150143104223012015               0000000000000342411-115              000031
100005055301431043230120150143104323012015               0000000000000342411-119              000032
100005055401431044230120150143104423012015               0000000000000342411-121              000033
100005055501431045230120150143104523012015               0000000000000342411-124              000034
100005055601431046230120150143104623012015               0000000000000342411-127              000035
100005055701431047230120150143104723012015               0000000000000342411-129              000036
100005055801431048230120150143104823012015               0000000000000342411-135              000037
100005055901431049230120150143104923012015               0000000000000342411-139              000038
100005056001431050230120150143105023012015               0000000000000342411-143              000039
100005056101431051230120150143105123012015               0000000000000342411-148              000040
100005056201431052230120150143105223012015               0000000000000342411-151              000041
100005056301431053230120150143105323012015               0000000000000342413-1                000042
100005056401431054230120150143105423012015               0000000000000342413-2                000043
100005056501431055230120150143105523012015               0000000000000342413-3                000044
9000043                                                                                       000045
