0RETORNONOTIFICAÇÃO ELETRONICA        28092011CONF                                            000001
100003082200634404270920110063440427092011               0000000000000145977-1                000002
100003082300634405270920110063440527092011               0000000000000145977-5                000003
100003082400634406270920110063440627092011               0000000000000145977-6                000004
9000003                                                                                       000005
