0RETORNONOTIFICAÇÃO ELETRONICA        17012014CONF                                            000001
100004593201119537160120140111953716012014               0000000000000278716-1                000002
100004593501119538160120140111953816012014               0000000000000278716-2                000003
100004593401119539160120140111953916012014               0000000000000278716-3                000004
100004593301119540160120140111954016012014               0000000000000278716-4                000005
100004599101119541160120140111954116012014               0000000000000278716-5                000006
100004599401119542160120140111954216012014               0000000000000278716-6                000007
100004599201119543160120140111954316012014               0000000000000278716-7                000008
100004603201119544160120140111954416012014               0000000000000278716-8                000009
100004592601119545160120140111954516012014               0000000000000278716-9                000010
100004592501119546160120140111954616012014               0000000000000278716-10               000011
9000010                                                                                       000012
