0RETORNONOTIFICAÇÃO ELETRONICA        31072013CONF                                            000001
100004274601007464300720130100746430072013               0000000000000248876-1                000002
100004274701007465300720130100746530072013               0000000000000248876-3                000003
100004274501007466300720130100746630072013               0000000000000248876-4                000004
100004274801007467300720130100746730072013               0000000000000248876-5                000005
100004276201007468300720130100746830072013               0000000000000248886-1                000006
100004276301007469300720130100746930072013               0000000000000248886-3                000007
100004275701007470300720130100747030072013               0000000000000248886-4                000008
100004276001007471300720130100747130072013               0000000000000248886-5                000009
100004276101007472300720130100747230072013               0000000000000248886-6                000010
100004275901007473300720130100747330072013               0000000000000248886-7                000011
100004275801007474300720130100747430072013               0000000000000248886-8                000012
9000011                                                                                       000013
