0RETORNONOTIFICAÇÃO ELETRONICA        08082014CONF                                            000001
100004868101292871050820140129287105082014               0000000000000314266-1                000002
100004868201292872050820140129287205082014               0000000000000314266-2                000003
100004870701292873050820140129287305082014               0000000000000314266-3                000004
100004870801292874050820140129287405082014               0000000000000314266-6                000005
100004872401294657070820140129465707082014               0000000000000314751-1                000006
100004872501294658070820140129465807082014               0000000000000314751-3                000007
100004872601294659070820140129465907082014               0000000000000314751-4                000008
100004872701294660070820140129466007082014               0000000000000314751-7                000009
100004872801294661070820140129466107082014               0000000000000314751-8                000010
100004874401294662070820140129466207082014               0000000000000314751-9                000011
9000010                                                                                       000012
