0RETORNONOTIFICAÇÃO ELETRONICA        23112012CONF                                            000001
100003854400860057211120120086005721112012               0000000000000205810-1                000002
100003863100860058211120120086005821112012               0000000000000205810-2                000003
100003863200860059211120120086005921112012               0000000000000205810-3                000004
100003863300860060211120120086006021112012               0000000000000205810-4                000005
100003863400860061211120120086006121112012               0000000000000205810-5                000006
100003863500860062211120120086006221112012               0000000000000205810-6                000007
100003863600860063211120120086006321112012               0000000000000205810-10               000008
100003863700860064211120120086006421112012               0000000000000205810-12               000009
100003865800860065211120120086006521112012               0000000000000205814-1                000010
100003865900860066211120120086006621112012               0000000000000205814-2                000011
100003866000860067211120120086006721112012               0000000000000205814-3                000012
100003866100860068211120120086006821112012               0000000000000205814-6                000013
100003866200860069211120120086006921112012               0000000000000205814-7                000014
100003866300860070211120120086007021112012               0000000000000205814-8                000015
100003866400860071211120120086007121112012               0000000000000205814-9                000016
100003866500860072211120120086007221112012               0000000000000205814-11               000017
100003866600860073211120120086007321112012               0000000000000205814-12               000018
100003866700860074211120120086007421112012               0000000000000205814-13               000019
100003866800860075211120120086007521112012               0000000000000205814-14               000020
100003866900860076211120120086007621112012               0000000000000205814-15               000021
100003868500860077211120120086007721112012               0000000000000205815-1                000022
100003868600860078211120120086007821112012               0000000000000205815-2                000023
100003868700860079211120120086007921112012               0000000000000205815-3                000024
100003869100860080211120120086008021112012               0000000000000205815-4                000025
100003869700860081211120120086008121112012               0000000000000205815-5                000026
100003871500860082211120120086008221112012               0000000000000205815-6                000027
100003871600860083211120120086008321112012               0000000000000205815-7                000028
9000027                                                                                       000029
