0RETORNONOTIFICAÇÃO ELETRONICA        10122012CONF                                            000001
100003901900870087061220120087008706122012               0000000000000208922-1                000002
100003913700870088061220120087008806122012               0000000000000208922-2                000003
100003912900870089061220120087008906122012               0000000000000208922-3                000004
100003912500870090061220120087009006122012               0000000000000208922-9                000005
100003915600870091061220120087009106122012               0000000000000208922-10               000006
100003913200870092061220120087009206122012               0000000000000208922-11               000007
100003908100870093061220120087009306122012               0000000000000208922-12               000008
100003913400870094061220120087009406122012               0000000000000208922-13               000009
100003913000870095061220120087009506122012               0000000000000208922-14               000010
100003913100870096061220120087009606122012               0000000000000208922-15               000011
100003913500870097061220120087009706122012               0000000000000208922-16               000012
100003915700870098061220120087009806122012               0000000000000208922-17               000013
100003913600870099061220120087009906122012               0000000000000208922-18               000014
100003910700870100061220120087010006122012               0000000000000208922-19               000015
100003908200870104061220120087010406122012               0000000000000208922-91               000016
100003913300870105061220120087010506122012               0000000000000208922-92               000017
9000016                                                                                       000018
