0RETORNONOTIFICAÇÃO ELETRONICA        09112010CONF                                            000001
100002488900426455091120100042645509112010               0000000000000115138-1                000002
100002489000426456091120100042645609112010               0000000000000115138-2                000003
100002489100426457091120100042645709112010               0000000000000115138-3                000004
100002489200426458091120100042645809112010               0000000000000115138-5                000005
100002489300426459091120100042645909112010               0000000000000115138-6                000006
100002489400426460091120100042646009112010               0000000000000115138-7                000007
100002489500426461091120100042646109112010               0000000000000115138-8                000008
100002489900426462091120100042646209112010               0000000000000115138-9                000009
100002490000426463091120100042646309112010               0000000000000115138-10               000010
100002490100426464091120100042646409112010               0000000000000115138-11               000011
100002490200426465091120100042646509112010               0000000000000115138-12               000012
100002490300426466091120100042646609112010               0000000000000115138-13               000013
100002490400426467091120100042646709112010               0000000000000115138-14               000014
100002490500426468091120100042646809112010               0000000000000115138-15               000015
100002490600426469091120100042646909112010               0000000000000115138-16               000016
100002491100426470091120100042647009112010               0000000000000115138-17               000017
9000016                                                                                       000018
