0RETORNONOTIFICAÇÃO ELETRONICA        24052012CONF                                            000001
100003542400767353220520120076735322052012               0000000000000175705-1                000002
100003542500767354220520120076735422052012               0000000000000175705-2                000003
100003542600767355220520120076735522052012               0000000000000175705-3                000004
100003543000767356220520120076735622052012               0000000000000175705-4                000005
100003543700767357220520120076735722052012               0000000000000175705-5                000006
100003544300767358220520120076735822052012               0000000000000175705-6                000007
100003544400767359220520120076735922052012               0000000000000175705-7                000008
100003544500767360220520120076736022052012               0000000000000175705-10               000009
100003544600767361220520120076736122052012               0000000000000175705-12               000010
100003544700767362220520120076736222052012               0000000000000175705-15               000011
100003544800767363220520120076736322052012               0000000000000175705-16               000012
100003544900767364220520120076736422052012               0000000000000175705-19               000013
100003545000767365220520120076736522052012               0000000000000175705-21               000014
100003545100767366220520120076736622052012               0000000000000175705-24               000015
100003545200767367220520120076736722052012               0000000000000175705-54               000016
100003545300767368220520120076736822052012               0000000000000175705-58               000017
100003545400767369220520120076736922052012               0000000000000175710-1                000018
100003545500767370220520120076737022052012               0000000000000175710-2                000019
100003545900767371220520120076737122052012               0000000000000175710-3                000020
9000019                                                                                       000021
