0RETORNONOTIFICAÇÃO ELETRONICA        07062013OCOR                                            000001
100004095100926707010420130092670701042013FA105100391BR  0000016052013228998-2                000002
100004083500926714010420130092671401042013FA105100405BR  0000010052013229000-9                000003
100004104500926743010420130092674301042013FA105100414BR  0000016052013229015-1                000004
100004117400934369080420130093436908042013FA136028391BR  0000003062013230109-1                000005
100004119700936668120420130093666812042013FA105213138BR  0000031052013230657-8                000006
100004132100948033300420130094803330042013FA105079345BR  0000009052013233982-1                000007
100004138200948035300420130094803530042013FA105079362BR  0000009052013233983-1                000008
100004138300948036300420130094803630042013FA105079376BR  0000009052013233983-2                000009
100004137500948037300420130094803730042013FA105079380BR  0000014052013233983-3                000010
100004135500948040300420130094804030042013FA105079416BR  0000010052013233983-7                000011
100004135600948042300420130094804230042013FA105079433BR  0002323052013233983-10               000012
100004135300948044300420130094804430042013FA105079455BR  0002309052013233983-12               000013
100004138700948047300420130094804730042013FA105079481BR  0000010052013233986-2                000014
100004139700948048300420130094804830042013FA105079495BR  0000009052013233986-3                000015
100004138400948049300420130094804930042013FA105079504BR  0000009052013233986-4                000016
100004138600948052300420130094805230042013FA105079535BR  0000009052013233986-7                000017
100004141300948054300420130094805430042013FA105079552BR  0000017052013233988-2                000018
100004143700948056300420130094805630042013FA105079570BR  0000016052013233988-4                000019
100004144100948057300420130094805730042013FA105079583BR  0000709052013233990-1                000020
100004144200948058300420130094805830042013FA105079597BR  0000009052013233990-2                000021
100004143800948065300420130094806530042013FA105079668BR  0000009052013233990-13               000022
100004143200948066300420130094806630042013FA105079671BR  0000009052013233990-14               000023
100004143300948067300420130094806730042013FA105079685BR  0000009052013233990-15               000024
100004144800948068300420130094806830042013FA105079699BR  0000109052013233990-16               000025
100004142900948070300420130094807030042013FA105079711BR  0000009052013233990-19               000026
100004145300948071300420130094807130042013FA105079725BR  0000016052013233990-20               000027
100004145200948072300420130094807230042013FA105079739BR  0000209052013233990-21               000028
100004144400948073300420130094807330042013FA105079742BR  0000010052013233990-22               000029
100004141600948074300420130094807430042013FA105079756BR  0000009052013233990-23               000030
100004146200948076300420130094807630042013FA105079773BR  0000009052013233990-25               000031
100004146500948079300420130094807930042013FA105079800BR  0000009052013233991-2                000032
100004147200948081300420130094808130042013FA105079827BR  0000009052013233993-1                000033
100004147900948083300420130094808330042013FA105079844BR  0000010052013233993-3                000034
100004150200948093300420130094809330042013FA105079946BR  0000009052013233994-9                000035
100004152400948094300420130094809430042013FA105079950BR  0000009052013233994-10               000036
100004152300948096300420130094809630042013FA105079977BR  0000009052013233994-12               000037
100004151500948097300420130094809730042013FA105079985BR  0000010052013233994-13               000038
100004160000948102300420130094810230042013FA105080034BR  0000009052013233997-3                000039
100004160100948104300420130094810430042013FA105080051BR  0000010052013233997-5                000040
100004163200948111300420130094811130042013FA105080122BR  0000009052013233999-6                000041
100004163300948112300420130094811230042013FA105080136BR  0000014052013233999-7                000042
100004163600948113300420130094811330042013FA105080140BR  0000009052013233999-8                000043
100004169100948115300420130094811530042013FA105080167BR  0000010052013234000-2                000044
100004169000948116300420130094811630042013FA105080175BR  0000010052013234000-8                000045
100004168700948119300420130094811930042013FA105080207BR  0000014052013234000-13               000046
100004168600948120300420130094812030042013FA105080215BR  0000009052013234000-14               000047
100004165400948124300420130094812430042013FA105080255BR  0000010052013234000-18               000048
100004165600948125300420130094812530042013FA105080269BR  0000016052013234000-19               000049
100004169200948128300420130094812830042013FA105080290BR  0000009052013234002-1                000050
100004169400948135300420130094813530042013FA105080365BR  0002321052013234002-11               000051
100004170500948612020520130094861202052013FA105083755BR  0000016052013234084-2                000052
100004170600948613020520130094861302052013FA105083764BR  0000009052013234084-3                000053
100004171800948614020520130094861402052013FA105083778BR  0000810052013234084-5                000054
100004174700000000000000000000000000000000FA105170137BR  0000024052013236350-1                000055
100004174100000000000000000000000000000000FA105170145BR  0000824052013236350-3                000056
100004174300000000000000000000000000000000FA105170154BR  0000021052013236350-4                000057
100004174200000000000000000000000000000000FA105170168BR  0000021052013236350-6                000058
100004174000000000000000000000000000000000FA105170171BR  0000021052013236350-9                000059
100004174800000000000000000000000000000000FA105170185BR  0000020052013236350-10               000060
100004174600000000000000000000000000000000FA105170199BR  0001224052013236350-11               000061
100004174400000000000000000000000000000000FA105170208BR  0000005062013236350-12               000062
100004174500000000000000000000000000000000FA105170211BR  0000023052013236350-13               000063
100004174900000000000000000000000000000000FA105170225BR  0000024052013236350-14               000064
100004177100000000000000000000000000000000FA105170239BR  0000023052013236351-1                000065
100004177800000000000000000000000000000000FA105170242BR  0000024052013236351-2                000066
100004177900000000000000000000000000000000FA105170256BR  0000020052013236351-3                000067
100004178000000000000000000000000000000000FA105170260BR  0000020052013236351-4                000068
100004177600000000000000000000000000000000FA105170273BR  0000005062013236351-5                000069
100004177700000000000000000000000000000000FA105170287BR  0000005062013236351-6                000070
100004176600000000000000000000000000000000FA105170295BR  0000020052013236351-8                000071
100004175000000000000000000000000000000000FA105170300BR  0000021052013236351-9                000072
100004177500000000000000000000000000000000FA105170327BR  0000021052013236351-11               000073
100004180000000000000000000000000000000000FA105170335BR  0000023052013236353-1                000074
100004180400000000000000000000000000000000FA105170344BR  0000021052013236353-2                000075
100004179900000000000000000000000000000000FA105170358BR  0000028052013236353-3                000076
100004180100000000000000000000000000000000FA105170361BR  0000020052013236353-4                000077
100004182200000000000000000000000000000000FA105170375BR  0000028052013236353-5                000078
100004187600000000000000000000000000000000FA105170389BR  0000722052013236353-6                000079
100004187500000000000000000000000000000000FA105170392BR  0000021052013236353-7                000080
100004187400000000000000000000000000000000FA105170401BR  0000023052013236353-9                000081
100004187300000000000000000000000000000000FA105170415BR  0000023052013236353-12               000082
100004187200000000000000000000000000000000FA105170429BR  0000021052013236353-14               000083
100004187100000000000000000000000000000000FA105170432BR  0000021052013236353-15               000084
100004187000000000000000000000000000000000FA105170446BR  0000023052013236353-19               000085
100004186800000000000000000000000000000000FA105170463BR  0000021052013236353-25               000086
100004186700000000000000000000000000000000FA105170477BR  0000028052013236353-26               000087
100004186600000000000000000000000000000000FA105170485BR  0000023052013236353-29               000088
100004186500000000000000000000000000000000FA105170494BR  0000023052013236353-31               000089
100004186400000000000000000000000000000000FA105170503BR  0000024052013236353-35               000090
100004186300000000000000000000000000000000FA105170517BR  0000023052013236353-36               000091
100004186200000000000000000000000000000000FA105170525BR  0000024052013236353-40               000092
100004186100000000000000000000000000000000FA105170534BR  0000028052013236353-44               000093
100004186000000000000000000000000000000000FA105170548BR  0000005062013236353-46               000094
100004185900000000000000000000000000000000FA105170551BR  0000024052013236353-49               000095
100004185800000000000000000000000000000000FA105170565BR  0000024052013236353-51               000096
100004185600000000000000000000000000000000FA105170582BR  0000023052013236353-55               000097
100004185500000000000000000000000000000000FA105170596BR  0000023052013236353-57               000098
100004185400000000000000000000000000000000FA105170605BR  0000023052013236353-59               000099
100004185300000000000000000000000000000000FA105170619BR  0000021052013236353-61               000100
100004185200000000000000000000000000000000FA105170622BR  0000024052013236353-63               000101
100004185100000000000000000000000000000000FA105170636BR  0000005062013236353-64               000102
100004185000000000000000000000000000000000FA105170640BR  0000020052013236353-72               000103
100004184900000000000000000000000000000000FA105170653BR  0000024052013236353-73               000104
100004184800000000000000000000000000000000FA105170667BR  0000028052013236353-75               000105
100004184700000000000000000000000000000000FA105170675BR  0000028052013236353-76               000106
100004184600000000000000000000000000000000FA105170684BR  0000023052013236353-83               000107
100004184500000000000000000000000000000000FA105170698BR  0000028052013236353-89               000108
100004184200000000000000000000000000000000FA105170724BR  0000028052013236353-108              000109
100004184000000000000000000000000000000000FA105170741BR  0000021052013236353-118              000110
100004183900000000000000000000000000000000FA105170755BR  0000021052013236353-121              000111
100004183800000000000000000000000000000000FA105170769BR  0000020052013236353-124              000112
100004183700000000000000000000000000000000FA105170772BR  0000028052013236353-126              000113
100004183600000000000000000000000000000000FA105170786BR  0000023052013236353-132              000114
100004183500000000000000000000000000000000FA105170790BR  0000028052013236353-136              000115
100004183400000000000000000000000000000000FA105170809BR  0000024052013236353-138              000116
100004183200000000000000000000000000000000FA105170826BR  0000005062013236353-145              000117
100004183100000000000000000000000000000000FA105170830BR  0000024052013236353-149              000118
100004183100000000000000000000000000000000FA105170843BR  0000024052013236353-165              000119
100004183000000000000000000000000000000000FA105170857BR  0000028052013236353-182              000120
100004182900000000000000000000000000000000FA105170865BR  0000021052013236353-191              000121
100004182800000000000000000000000000000000FA105170874BR  0000024052013236353-198              000122
100004182700000000000000000000000000000000FA105170888BR  0000021052013236353-200              000123
100004182600000000000000000000000000000000FA105170891BR  0000023052013236353-201              000124
100004182500000000000000000000000000000000FA105170905BR  0000028052013236353-208              000125
100004182400000000000000000000000000000000FA105170914BR  0000024052013236353-214              000126
100004182300000000000000000000000000000000FA105170928BR  0000020052013236353-238              000127
100004180200000000000000000000000000000000FA105170931BR  0000023052013236353-243              000128
100004180300000000000000000000000000000000FA105170945BR  0000023052013236353-245              000129
100004180500000000000000000000000000000000FA105170959BR  0000023052013236353-246              000130
100004180600000000000000000000000000000000FA105170962BR  0000028052013236353-247              000131
100004179100000000000000000000000000000000FA105170976BR  0000028052013236353-248              000132
100004189900000000000000000000000000000000FA105170993BR  0000024052013236354-2                000133
100004189800000000000000000000000000000000FA105171000BR  0000021052013236354-3                000134
100004188000000000000000000000000000000000FA105171013BR  0000021052013236354-4                000135
100004187900000000000000000000000000000000FA105171035BR  0000021052013236354-6                000136
100004190100000000000000000000000000000000FA105171044BR  0000021052013236355-1                000137
100004190200000000000000000000000000000000FA105171058BR  0000023052013236355-2                000138
100004190400000000000000000000000000000000FA105171061BR  0000021052013236355-4                000139
100004192900000000000000000000000000000000FA105171075BR  0000021052013236355-5                000140
100004193100000000000000000000000000000000FA105171089BR  0000023052013236355-8                000141
100004193200000000000000000000000000000000FA105171092BR  0000023052013236355-9                000142
100004190300000000000000000000000000000000FA105171101BR  0000028052013236355-12               000143
100004190000000000000000000000000000000000FA105171115BR  0000020052013236355-13               000144
100004190500000000000000000000000000000000FA105171129BR  0000021052013236355-14               000145
100004175600000000000000000000000000000000FA105171132BR  0000024052013236356-1                000146
100004193300000000000000000000000000000000FA105171146BR  0000021052013236356-2                000147
100004188700000000000000000000000000000000FA105171150BR  0000023052013236356-3                000148
100004195900000000000000000000000000000000FA105171163BR  0000021052013236357-1                000149
100004196600000000000000000000000000000000FA105171177BR  0000020052013236357-2                000150
100004196000000000000000000000000000000000FA105171185BR  0000021052013236357-3                000151
100004198200000000000000000000000000000000FA105171194BR  0000021052013236357-4                000152
100004195800000000000000000000000000000000FA105171203BR  0000023052013236357-5                000153
100004200100000000000000000000000000000000FA105171217BR  0000020052013236359-1                000154
100004200500000000000000000000000000000000FA105171225BR  0000020052013236359-7                000155
100004200400000000000000000000000000000000FA105171234BR  0000021052013236359-8                000156
100004200300000000000000000000000000000000FA105171248BR  0000020052013236359-9                000157
100004200200000000000000000000000000000000FA105171251BR  0000021052013236359-10               000158
100004198300000000000000000000000000000000FA105171265BR  0000021052013236359-14               000159
100004198400000000000000000000000000000000FA105171279BR  0000024052013236359-21               000160
100004200600958524160520130095852416052013FA105179445BR  0000023052013236673-1                000161
100004200700958525160520130095852516052013FA105179459BR  0000028052013236673-2                000162
100004200800958526160520130095852616052013FA105179462BR  0000031052013236673-3                000163
100004206200958527160520130095852716052013FA105179476BR  0000024052013236675-1                000164
100004204300958528160520130095852816052013FA105179480BR  0000024052013236675-2                000165
100004205800958529160520130095852916052013FA105179493BR  0000022052013236675-3                000166
100004199000958530160520130095853016052013FA105179502BR  0000022052013236675-4                000167
100004205000958531160520130095853116052013FA105179516BR  0000024052013236675-5                000168
100004205700958532160520130095853216052013FA105179520BR  0000028052013236675-6                000169
100004199100958533160520130095853316052013FA105179533BR  0000023052013236675-7                000170
100004207000958534160520130095853416052013FA105179547BR  0000022052013236675-8                000171
100004200900958535160520130095853516052013FA105179555BR  0000028052013236675-9                000172
100004207200959321200520130095932120052013FA105187075BR  0000024052013236915-2                000173
100004209800959322200520130095932220052013FA105187089BR  0000024052013236915-3                000174
100004207300959323200520130095932320052013FA105187092BR  0000023052013236915-4                000175
100004210100961069220520130096106922052013FA105203317BR  0000005062013237187-1                000176
100004209900961071220520130096107122052013FA105203334BR  0000031052013237187-3                000177
100004210800961072220520130096107222052013FA105203348BR  0000031052013237187-4                000178
100004210900961073220520130096107322052013FA105203351BR  0000031052013237187-5                000179
100004210000961074220520130096107422052013FA105203365BR  0000028052013237187-6                000180
100004211900961075220520130096107522052013FA105203379BR  0000031052013237621-1                000181
100004212000961076220520130096107622052013FA105203382BR  0000031052013237621-2                000182
100004212100961077220520130096107722052013FA105203396BR  0000031052013237621-3                000183
100004213900961078220520130096107822052013FA105203405BR  0000031052013237623-1                000184
100004212800961079220520130096107922052013FA105203419BR  0000028052013237623-2                000185
100004214100961080220520130096108022052013FA105203422BR  0000004062013237623-3                000186
100004215000961081220520130096108122052013FA105203436BR  0000031052013237623-4                000187
100004213800961082220520130096108222052013FA105203440BR  0000004062013237623-5                000188
100004212300961083220520130096108322052013FA105203453BR  0000028052013237623-6                000189
100004216200966157290520130096615729052013FA136030483BR  0000005062013238770-4                000190
100004220300966162290520130096616229052013FA136030537BR  0000005062013238771-11               000191
100004217700966167290520130096616729052013FA136030585BR  0000005062013238771-16               000192
100004218100966168290520130096616829052013FA136030599BR  0000005062013238771-19               000193
100004220800966170290520130096617029052013FA136030611BR  0000005062013238772-1                000194
100004228400966191290520130096619129052013FA136030829BR  0000805062013238775-36               000195
100004227300966201290520130096620129052013FA136030925BR  0000005062013238775-99               000196
100004223600966207290520130096620729052013FA136030982BR  0000005062013238775-107              000197
100004216500966210290520130096621029052013FA136031016BR  0000805062013238775-110              000198
9000197                                                                                       000199
