0RETORNONOTIFICAÇÃO ELETRONICA        05092014OCOR                                            000001
100004882301301945180820140130194518082014FA283420794BR  0000028082014316327-3                000002
100004883201303878190820140130387819082014FA283434935BR  0000028082014316749-5                000003
100004883801303881190820140130388119082014FA283434966BR  0000028082014316749-15               000004
100004884101303884190820140130388419082014FA283434997BR  0000028082014316896-3                000005
100004884401303886190820140130388619082014FA283435017BR  0000028082014316896-6                000006
100004884601303887190820140130388719082014FA283435025BR  0000029082014316896-7                000007
100004884701304984210820140130498421082014FA283442914BR  0000028082014317372-1                000008
100004884801304985210820140130498521082014FA283442928BR  0000028082014317372-2                000009
100004884901304986210820140130498621082014FA283442931BR  0000028082014317372-3                000010
100004885201304989210820140130498921082014FA283442962BR  0000028082014317372-6                000011
100004886801305553220820140130555322082014FA283447871BR  0000004092014317646-1                000012
100004886901305554220820140130555422082014FA283447885BR  0000001092014317646-2                000013
100004887001305555220820140130555522082014FA283447899BR  0000029082014317646-3                000014
100004887101305556220820140130555622082014FA283447908BR  0000029082014317646-4                000015
100004887301305557220820140130555722082014FA283447911BR  0000029082014317646-5                000016
100004887401305558220820140130555822082014FA283447925BR  0000029082014317646-6                000017
100004887501305559220820140130555922082014FA283447939BR  0000029082014317646-7                000018
100004887601305560220820140130556022082014FA283447942BR  0000029082014317646-8                000019
100004888601305561220820140130556122082014FA283447956BR  0000029082014317646-9                000020
100004888801305562220820140130556222082014FA283447960BR  0000028082014317646-10               000021
100004889001305563220820140130556322082014FA283447973BR  0000001092014317646-11               000022
100004889101305564220820140130556422082014FA283447987BR  0000001092014317646-12               000023
100004889201305565220820140130556522082014FA283447995BR  0000001092014317646-13               000024
100004889301305566220820140130556622082014FA283448007BR  0000001092014317646-14               000025
100004889401305567220820140130556722082014FA283448015BR  0000028082014317646-15               000026
100004889500000000000000000000000000000000FA294413216BR  0000001092014318099-1                000027
100004889600000000000000000000000000000000FA294413220BR  0000501092014318099-2                000028
100004890500000000000000000000000000000000FA294413233BR  0000004092014318099-3                000029
100004890800000000000000000000000000000000FA294413247BR  0000004092014318099-4                000030
100004891000000000000000000000000000000000FA294413255BR  0000001092014318272-1                000031
100004892601311246290820140131124629082014FA294429896BR  0000204092014318601-5                000032
100004893501311247290820140131124729082014FA294429905BR  0000004092014318848-1                000033
100004894101311249290820140131124929082014FA294429922BR  0000004092014318848-3                000034
9000033                                                                                       000035
