0RETORNONOTIFICAÇÃO ELETRONICA        11052012OCOR                                            000001
100003502800756638020520120075663802052012FR851987315BR  0000009052012172350-2                000002
100003505300756644020520120075664402052012FR851987372BR  0000009052012172350-8                000003
100003509400756661020520120075666102052012FR851987545BR  0000009052012172734-10               000004
100003509600756663020520120075666302052012FR851987562BR  0000009052012172734-12               000005
100003510400756664020520120075666402052012FR851987576BR  0000009052012172734-13               000006
100003513200759789070520120075978907052012FR852018865BR  0000010052012173273-1                000007
9000006                                                                                       000008
