0RETORNONOTIFICAÇÃO ELETRONICA        14052014OCOR                                            000001
100004705401193841100420140119384110042014FA270943483BR  0000002052014294333-2                000002
100004711001197144140420140119714414042014FA270973675BR  0000002052014295349-19               000003
100004712401197152140420140119715214042014FA270973750BR  0000002052014295350-5                000004
100004714401201045170420140120104517042014FA271005465BR  0000002052014296021-1                000005
100004714801201049170420140120104917042014FA271005505BR  0000008052014296021-5                000006
100004717201201054170420140120105417042014FA271005559BR  0000002052014296104-2                000007
100004717301201055170420140120105517042014FA271005562BR  0000030042014296104-3                000008
100004717701201059170420140120105917042014FA271005602BR  0000002052014296104-9                000009
100004718401203860240420140120386024042014FA271025916BR  0000005052014296803-1                000010
100004718501203861240420140120386124042014FA271025920BR  0000030042014296803-2                000011
100004718601203862240420140120386224042014FA271025933BR  0000005052014296803-3                000012
100004718701203863240420140120386324042014FA271025947BR  0000030042014296803-4                000013
100004718801203864240420140120386424042014FA271025955BR  0000002052014296803-5                000014
100004718901203865240420140120386524042014FA271025964BR  0000012052014296803-6                000015
100004719001203866240420140120386624042014FA271025978BR  0000229042014296803-7                000016
100004720401203867240420140120386724042014FA271025981BR  0000008052014296804-1                000017
100004720501203868240420140120386824042014FA271025995BR  0000005052014296804-2                000018
100004720601203869240420140120386924042014FA271026001BR  0000008052014296804-3                000019
100004720701203870240420140120387024042014FA271026015BR  0000005052014296804-4                000020
100004724001206600280420140120660028042014FA271048925BR  0000012052014297531-1                000021
100004724301206603280420140120660328042014FA271048951BR  0000005052014297531-5                000022
100004724401206604280420140120660428042014FA271048965BR  0000005052014297531-9                000023
100004724501206605280420140120660528042014FA271048979BR  0000005052014297531-10               000024
100004728901206606280420140120660628042014FA271048982BR  0000005052014297533-1                000025
100004729001206607280420140120660728042014FA271048996BR  0000005052014297533-2                000026
100004729201206609280420140120660928042014FA271049016BR  0000106052014297533-4                000027
100004729301206610280420140120661028042014FA271049020BR  0000005052014297533-5                000028
100004729401206611280420140120661128042014FA271049033BR  0000005052014297533-6                000029
100004729501206612280420140120661228042014FA271049047BR  0000005052014297533-9                000030
100004726401206613280420140120661328042014FA271049055BR  0000005052014297539-1                000031
100004726501206614280420140120661428042014FA271049064BR  0000005052014297539-2                000032
100004726601206615280420140120661528042014FA271049078BR  0000707052014297539-4                000033
100004726701206616280420140120661628042014FA271049081BR  0000005052014297539-6                000034
100004726801206617280420140120661728042014FA271049095BR  0000005052014297539-7                000035
100004731501209413300420140120941330042014FA271070742BR  0000007052014297921-1                000036
100004731601209414300420140120941430042014FA271070756BR  0000008052014297921-3                000037
100004731701209415300420140120941530042014FA271070760BR  0000008052014297921-4                000038
100004734001209416300420140120941630042014FA271070773BR  0000008052014297921-16               000039
100004734101209417300420140120941730042014FA271070787BR  0000008052014297921-18               000040
100004734201209418300420140120941830042014FA271070795BR  0000807052014297972-1                000041
100004734301209419300420140120941930042014FA271070800BR  0000007052014297972-2                000042
100004734401209420300420140120942030042014FA271070813BR  0000008052014297972-3                000043
100004734501209421300420140120942130042014FA271070827BR  0000008052014297972-4                000044
100004734701209423300420140120942330042014FA271070844BR  0000008052014297972-7                000045
100004734801209424300420140120942430042014FA271070858BR  0000008052014297972-8                000046
100004735001209426300420140120942630042014FA271070875BR  0000005052014297972-10               000047
100004735101209427300420140120942730042014FA271070889BR  0000008052014297972-11               000048
100004736201209428300420140120942830042014FA271070892BR  0000005052014297972-13               000049
100004736301209429300420140120942930042014FA271070901BR  0000012052014297972-14               000050
100004736401209430300420140120943030042014FA271070915BR  0000006052014297972-15               000051
100004736501209431300420140120943130042014FA271070929BR  0000008052014297972-16               000052
100004736801209434300420140120943430042014FA271070950BR  0000008052014297972-23               000053
100004737001209436300420140120943630042014FA271070977BR  0000012052014297972-44               000054
100004737101209437300420140120943730042014FA271070985BR  0000012052014297972-45               000055
100004737401217903070520140121790307052014FA271144842BR  0000013052014298307-4                000056
100004707801217905070520140121790507052014FA271144860BR  0000013052014298677-1                000057
100004714301217906070520140121790607052014FA271144873BR  0000012052014298677-2                000058
100004728701217913070520140121791307052014FA271144944BR  0000012052014298677-9                000059
100004732701217920070520140121792007052014FA271145012BR  0000013052014298677-16               000060
100004738301217921070520140121792107052014FA271145026BR  0000013052014298677-17               000061
100004738401217922070520140121792207052014FA271145030BR  0000013052014298677-18               000062
100004738601217924070520140121792407052014FA271145057BR  0000013052014298677-20               000063
100004738701217925070520140121792507052014FA271145065BR  0000013052014298677-21               000064
100004739201217926070520140121792607052014FA271145074BR  0000013052014298677-22               000065
9000064                                                                                       000066
