0RETORNONOTIFICAÇÃO ELETRONICA        05062012OCOR                                            000001
100003535500765198180520120076519818052012FR852072870BR  0000004062012175282-1                000002
100003544500767360220520120076736022052012FR971503500BR  0000004062012175705-10               000003
100003548800768985240520120076898524052012FR971519685BR  0000504062012175960-9                000004
100003549200770923280520120077092328052012FR971539036BR  0000004062012176428-1                000005
100003549500770926280520120077092628052012FR971539067BR  0000004062012176428-4                000006
100003549800770927280520120077092728052012FR971539075BR  0000004062012176428-5                000007
100003550700770928280520120077092828052012FR971539084BR  0000004062012176435-1                000008
100003550800770929280520120077092928052012FR971539098BR  0000004062012176435-2                000009
100003551000770931280520120077093128052012FR971539115BR  0000004062012176435-5                000010
100003551100770932280520120077093228052012FR971539124BR  0000004062012176435-6                000011
100003551900770933280520120077093328052012FR971539138BR  0000004062012176435-7                000012
100003552000770934280520120077093428052012FR971539141BR  0000004062012176435-8                000013
100003552100770935280520120077093528052012FR971539155BR  0000004062012176435-9                000014
100003552200770936280520120077093628052012FR971539169BR  0000004062012176435-10               000015
100003552800770937280520120077093728052012FR971539172BR  0000004062012176435-11               000016
100003552900770938280520120077093828052012FR971539186BR  0000004062012176435-18               000017
100003553400770943280520120077094328052012FR971539230BR  0000004062012176463-2                000018
100003554600770944280520120077094428052012FR971539243BR  0000004062012176463-7                000019
100003555200770945280520120077094528052012FR971539257BR  0000004062012176463-8                000020
100003555300770946280520120077094628052012FR971539265BR  0000004062012176463-9                000021
100003555800772095300520120077209530052012FR971550694BR  0000004062012177060-5                000022
100003559800772107300520120077210730052012FR971550819BR  0000004062012177062-7                000023
100003560400772113300520120077211330052012FR971550875BR  0000004062012177062-17               000024
9000023                                                                                       000025
