0RETORNONOTIFICAÇÃO ELETRONICA        09062011OCOR                                            000001
100002785300000000000000000000000000000000JL014261451BR  0000007062011132213-1                000002
100002787600000000000000000000000000000000JL014261540BR  0000007062011132384-6                000003
100002787800000000000000000000000000000000JL014261567BR  0000007062011132384-10               000004
100002787900000000000000000000000000000000JL014261575BR  0000007062011132384-11               000005
100002788000000000000000000000000000000000JL014261584BR  0000007062011132384-12               000006
100002788100000000000000000000000000000000JL014261598BR  0000007062011132384-14               000007
100002790300000000000000000000000000000000JL014261624BR  0000007062011132384-27               000008
100002790300000000000000000000000000000000JL014263262BR  0000007062011132384-48               000009
100002791400000000000000000000000000000000JL014261730BR  0000007062011132384-93               000010
100002792600000000000000000000000000000000JL014261859BR  0000007062011132384-129              000011
100002794000000000000000000000000000000000JL014261995BR  0000007062011132384-150              000012
100002794200000000000000000000000000000000JL014262015BR  0000007062011132535-2                000013
100002794400000000000000000000000000000000JL014262032BR  0000007062011132535-6                000014
9000013                                                                                       000015
