0RETORNONOTIFICAÇÃO ELETRONICA        08042011OCOR                                            000001
100002683700498243250320110049824325032011RL955673261BR  0000007042011125432-7                000002
100002684100497739240320110049773924032011RL955668346BR  0000007042011125619-5                000003
100002684500497743240320110049774324032011RL955668385BR  0000007042011125619-14               000004
100002684500498250250320110049825025032011RL955673332BR  0000007042011125619-15               000005
100002691300502004300320110050200430032011RL963820341BR  0000007042011126006-2                000006
9000005                                                                                       000007
