0RETORNONOTIFICAÇÃO ELETRONICA        11072014OCOR                                            000001
100004767901233430290520140123343029052014FA271263782BR  0000010072014302899-1                000002
100004779301245689110620140124568911062014FA283008950BR  0000004072014305005-8                000003
100004792501249134160620140124913416062014FA283033897BR  0000202072014305572-23               000004
100004793701249146160620140124914616062014FA283034019BR  0000007072014305572-93               000005
100004795901249168160620140124916816062014FA283034230BR  0000004072014305572-166              000006
100004796001249169160620140124916916062014FA283034243BR  0000007072014305572-170              000007
100004802301249232160620140124923216062014FA283034875BR  0000204072014305572-304              000008
100004802901249238160620140124923816062014FA283034932BR  0000004072014305572-316              000009
100004811201249308160620140124930816062014FA283035632BR  0000003072014305579-48               000010
100004813501249331160620140124933116062014FA283035867BR  0000003072014305579-78               000011
100004777401252884230620140125288423062014FA283061907BR  0000003072014306555-6                000012
100004784001252890230620140125289023062014FA283061969BR  0000003072014306555-12               000013
100004787801252891230620140125289123062014FA283061972BR  0000003072014306555-13               000014
100004819301252902230620140125290223062014FA283062085BR  0000003072014306555-24               000015
100004822601254337250620140125433725062014FA283072326BR  0000009072014306794-3                000016
100004822901254340250620140125434025062014FA283072357BR  0001204072014306823-4                000017
100004823001254341250620140125434125062014FA283072365BR  0000003072014306823-5                000018
100004823101254342250620140125434225062014FA283072374BR  0000202072014306823-6                000019
100004823201254343250620140125434325062014FA283072388BR  0000007072014306823-7                000020
100004823801254344250620140125434425062014FA283072391BR  0001203072014306823-8                000021
100004823901254345250620140125434525062014FA283072405BR  0001203072014306823-9                000022
100004825101257174260620140125717426062014FA283093745BR  0000003072014307280-1                000023
100004825201257175260620140125717526062014FA283093754BR  0000004072014307280-2                000024
100004825301257176260620140125717626062014FA283093768BR  0000410072014307280-3                000025
100004825601257179260620140125717926062014FA283093799BR  0000004072014307280-6                000026
100004825701257180260620140125718026062014FA283093808BR  0000003072014307383-1                000027
100004825801257181260620140125718126062014FA283093811BR  0000007072014307383-2                000028
100004826401260321010720140126032101072014FA283115256BR  0000007072014308139-1                000029
100004826501260322010720140126032201072014FA283115260BR  0000207072014308139-2                000030
100004827701260324010720140126032401072014FA283115287BR  0000107072014308141-2                000031
100004827801260325010720140126032501072014FA283115295BR  0000007072014308141-3                000032
100004827901260326010720140126032601072014FA283115300BR  0000007072014308141-4                000033
100004828701260329010720140126032901072014FA283115335BR  0000007072014308141-12               000034
100004829401260330010720140126033001072014FA283115344BR  0000007072014308141-13               000035
100004829501260331010720140126033101072014FA283115358BR  0000007072014308141-14               000036
100004829701260333010720140126033301072014FA283115375BR  0000207072014308141-28               000037
100004829801260334010720140126033401072014FA283115389BR  0000007072014308141-31               000038
100004829901260335010720140126033501072014FA283115392BR  0000107072014308141-35               000039
100004830001260336010720140126033601072014FA283115401BR  0000007072014308141-40               000040
100004830101260337010720140126033701072014FA283115415BR  0000010072014308210-1                000041
100004830201260338010720140126033801072014FA283115429BR  0000207072014308210-2                000042
100004831401264181030720140126418103072014FA283149997BR  0000010072014308514-4                000043
100004831501264182030720140126418203072014FA283150006BR  0000010072014308514-5                000044
9000043                                                                                       000045
