0RETORNONOTIFICAÇÃO ELETRONICA        12032015OCOR                                            000001
100005063601440723190220150144072319022015FA318680125BR  0000003032015346459-2                000002
100005064301440725190220150144072519022015FA318680148BR  0000009032015346461-1                000003
100005064401440726190220150144072619022015FA318680151BR  0000003032015346461-2                000004
100005064501440727190220150144072719022015FA318680165BR  0000003032015346461-5                000005
100005065301440818190220150144081819022015FA318681072BR  0000005032015346875-1                000006
100005065901440821190220150144082119022015FA318681109BR  0000404032015346876-1                000007
100005066401441210230220150144121023022015FA318684269BR  0000006032015347473-1                000008
100005067101441739260220150144173926022015FA318687662BR  0000004032015347750-1                000009
100005067401441741260220150144174126022015FA318687680BR  0000005032015348099-1                000010
100005068301441745260220150144174526022015FA318687720BR  0000003032015348237-1                000011
100005068701441748260220150144174826022015FA318687755BR  0000005032015348237-13               000012
100005068901441750260220150144175026022015FA318687778BR  0000004032015348237-35               000013
100005069001441751260220150144175126022015FA318687781BR  0000003032015348237-63               000014
100005069101441752260220150144175226022015FA318687795BR  0000004032015348237-83               000015
100005069401442364040320150144236404032015FA318691812BR  0000209032015348445-1                000016
100005070501442365040320150144236504032015FA318691826BR  0000009032015349005-1                000017
9000016                                                                                       000018
