0RETORNONOTIFICAÇÃO ELETRONICA        12112014OCOR                                            000001
100004992101355140211020140135514021102014FA294757260BR  0000005112014328510-2                000002
100004993901356638231020140135663823102014FA294769149BR  0000705112014329162-2                000003
100004995301360895291020140136089529102014FA294799432BR  0000006112014329845-1                000004
100004995401360896291020140136089629102014FA294799446BR  0000006112014329845-2                000005
100004995701360897291020140136089729102014FA294799450BR  0000006112014329845-8                000006
100004995801360898291020140136089829102014FA294799463BR  0000005112014329845-13               000007
100004996101360905291020140136090529102014FA294799534BR  0000005112014329920-1                000008
100004996201360906291020140136090629102014FA294799548BR  0000006112014329920-2                000009
100004996401360908291020140136090829102014FA294799565BR  0000010112014329920-5                000010
100004996501360909291020140136090929102014FA294799579BR  0000005112014329920-6                000011
100004996601360910291020140136091029102014FA294799582BR  0000006112014329920-7                000012
100004996901360913291020140136091329102014FA294799619BR  0000007112014329920-10               000013
100004997201360914291020140136091429102014FA294799622BR  0000005112014329920-11               000014
100004997401362363311020140136236331102014FA294808426BR  0000011112014330269-1                000015
100004997801362367311020140136236731102014FA294808465BR  0000006112014330269-5                000016
100004998901362368311020140136236831102014FA294808474BR  0000711112014330617-1                000017
100004999001362369311020140136236931102014FA294808488BR  0000105112014330617-2                000018
100004999201362371311020140136237131102014FA294808505BR  0000010112014330617-9                000019
100004999301362372311020140136237231102014FA294808514BR  0000206112014330617-15               000020
100004999501366360031120140136636003112014FA294845477BR  0000010112014330846-2                000021
100004999701369637041120140136963704112014FA294862869BR  0000011112014331065-1                000022
100005002201372233061120140137223306112014FA294881620BR  0000011112014331523-1                000023
100005002501372236061120140137223606112014FA294881655BR  0000011112014331523-5                000024
9000023                                                                                       000025
