0RETORNONOTIFICAÇÃO ELETRONICA        05072010OCOR                                            000001
100002262500292329150620100029232915062010RL724394536BR  0000029062010102978-3                000002
100002270200292848170620100029284817062010RL724399621BR  0000001072010103220-3                000003
100002272100292852170620100029285217062010RL724399666BR  0000001072010103220-7                000004
100002272200292853170620100029285317062010RL724399670BR  0000029062010103220-8                000005
100002272500293081180620100029308118062010RL724402674BR  0001230062010103354-2                000006
100002273700293082180620100029308218062010RL724402688BR  0000029062010103354-3                000007
100002273800293083180620100029308318062010RL724402691BR  0000029062010103354-4                000008
100002273900293084180620100029308418062010RL724402705BR  0000029062010103354-5                000009
100002274000293085180620100029308518062010RL724402714BR  0000029062010103354-6                000010
100002274500293321210620100029332121062010RL724405070BR  0000002072010103500-1                000011
100002274600293322210620100029332221062010RL724405083BR  0000001072010103500-3                000012
100002274700293323210620100029332321062010RL724405097BR  0000001072010103500-5                000013
100002274800293324210620100029332421062010RL724405106BR  0000001072010103500-6                000014
100002274900293325210620100029332521062010RL724405110BR  0000029062010103500-8                000015
100002275000293326210620100029332621062010RL724405123BR  0000029062010103500-9                000016
100002275200293328210620100029332821062010RL724405145BR  0000029062010103500-18               000017
100002278000294199220620100029419922062010RL724412994BR  0000002072010103644-3                000018
100002278200294201220620100029420122062010RL724413014BR  0000002072010103644-5                000019
100002278300294202220620100029420222062010RL724413028BR  0000001072010103644-6                000020
100002281200294406230620100029440623062010RL724415063BR  0000002072010103757-1                000021
100002281300294407230620100029440723062010RL724415077BR  0000002072010103757-4                000022
100002281400294408230620100029440823062010RL724415085BR  0000002072010103757-5                000023
100002284300294409230620100029440923062010RL724415094BR  0000002072010103757-6                000024
100002284400294413230620100029441323062010RL724415134BR  0000002072010103872-4                000025
100002284500294414230620100029441423062010RL724415148BR  0000002072010103872-5                000026
100002284600295184240620100029518424062010RL724422841BR  0000002072010103964-1                000027
100002284700295185240620100029518524062010RL724422855BR  0000002072010103964-2                000028
100002284800295186240620100029518624062010RL724422869BR  0000002072010103964-3                000029
100002285000295188240620100029518824062010RL724422886BR  0000002072010103964-5                000030
100002285100295189240620100029518924062010RL724422890BR  0000002072010103964-6                000031
100002286800295191240620100029519124062010RL724422912BR  0000002072010103964-8                000032
100002286900295192240620100029519224062010RL724422926BR  0000002072010103964-9                000033
100002287500295193240620100029519324062010RL724422930BR  0000702072010103964-10               000034
100002286100295593250620100029559325062010RL724426945BR  0000002072010104160-1                000035
100002287100295594250620100029559425062010RL724426959BR  0000002072010104160-2                000036
100002288200295597250620100029559725062010RL724426980BR  0000002072010104160-5                000037
100002288300295598250620100029559825062010RL724426993BR  0000002072010104160-6                000038
9000037                                                                                       000039
