0RETORNONOTIFICAÇÃO ELETRONICA        08082014OCOR                                            000001
100004857901286219290720140128621929072014FA283311406BR  0000407082014312476-2                000002
100004858301286223290720140128622329072014FA283311445BR  0000205082014312476-6                000003
100004858401286224290720140128622429072014FA283311454BR  0000205082014312476-7                000004
100004861401286230290720140128623029072014FA283311511BR  0000007082014312999-5                000005
100004862401287589310720140128758931072014FA283318713BR  0000007082014313298-1                000006
100004862701287591310720140128759131072014FA283318735BR  0000007082014313298-3                000007
100004863601287593310720140128759331072014FA283318758BR  0000006082014313525-1                000008
100004863701287594310720140128759431072014FA283318761BR  0000007082014313525-3                000009
100004863801287595310720140128759531072014FA283318775BR  0000007082014313525-4                000010
100004863901287596310720140128759631072014FA283318789BR  0000007082014313525-5                000011
100004866801289813040820140128981304082014FA283336513BR  0000207082014314065-6                000012
9000011                                                                                       000013
