0RETORNONOTIFICAÇÃO ELETRONICA        13062011OCOR                                            000001
100002785400000000000000000000000000000000JL014261465BR  0000010062011132213-2                000002
100002785500000000000000000000000000000000JL014261479BR  0000010062011132213-3                000003
100002787100000000000000000000000000000000JL014261482BR  0000010062011132213-4                000004
100002787300000000000000000000000000000000JL014261505BR  0000010062011132213-6                000005
100002787400000000000000000000000000000000JL014261519BR  0000010062011132213-7                000006
100002787500000000000000000000000000000000JL014261536BR  0000010062011132384-5                000007
100002787700000000000000000000000000000000JL014261553BR  0000010062011132384-7                000008
100002790100000000000000000000000000000000JL014261607BR  0000010062011132384-15               000009
100002790200000000000000000000000000000000JL014261615BR  0000010062011132384-19               000010
100002790400000000000000000000000000000000JL014261638BR  0000010062011132384-58               000011
100002790500000000000000000000000000000000JL014261641BR  0000010062011132384-61               000012
100002790600000000000000000000000000000000JL014261655BR  0000010062011132384-62               000013
100002790800000000000000000000000000000000JL014261672BR  0000010062011132384-65               000014
100002790900000000000000000000000000000000JL014261686BR  0000010062011132384-67               000015
100002791000000000000000000000000000000000JL014261690BR  0000010062011132384-70               000016
100002791200000000000000000000000000000000JL014261712BR  0000010062011132384-78               000017
100002791800000000000000000000000000000000JL014261774BR  0000010062011132384-110              000018
100002792000000000000000000000000000000000JL014261791BR  0000010062011132384-116              000019
100002792100000000000000000000000000000000JL014261805BR  0000010062011132384-124              000020
100002792400000000000000000000000000000000JL014261831BR  0000010062011132384-127              000021
100002792500000000000000000000000000000000JL014261845BR  0000010062011132384-128              000022
100002792800000000000000000000000000000000JL014261876BR  0000010062011132384-131              000023
100002792900000000000000000000000000000000JL014261880BR  0000010062011132384-132              000024
100002793000000000000000000000000000000000JL014261893BR  0000010062011132384-134              000025
100002793100000000000000000000000000000000JL014261902BR  0000010062011132384-135              000026
100002793200000000000000000000000000000000JL014261916BR  0000010062011132384-137              000027
100002793300000000000000000000000000000000JL014261920BR  0000010062011132384-138              000028
100002793400000000000000000000000000000000JL014261933BR  0000010062011132384-139              000029
100002793500000000000000000000000000000000JL014261947BR  0000010062011132384-140              000030
100002794100000000000000000000000000000000JL014262001BR  0000010062011132535-1                000031
100002794300000000000000000000000000000000JL014262029BR  0000010062011132535-3                000032
100002795300550633030620110055063303062011JL014287856BR  0001210062011132648-2                000033
100002795700550637030620110055063703062011JL014287895BR  0000010062011132789-1                000034
100002795800550638030620110055063803062011JL014287900BR  0001210062011132789-2                000035
100002796100550641030620110055064103062011JL014287935BR  0000010062011132789-5                000036
9000035                                                                                       000037
