0RETORNONOTIFICAÇÃO ELETRONICA        07112011OCOR                                            000001
100003130600648161241020110064816124102011JL014588670BR  0000004112011149067-1                000002
100003147600648167241020110064816724102011RQ047819393BR  0000004112011149067-8                000003
100003142300651267261020110065126726102011JL014589012BR  0000004112011149237-1                000004
100003142400651268261020110065126826102011JL014589026BR  0000004112011149237-2                000005
100003142500651269261020110065126926102011JL014589030BR  0000004112011149237-3                000006
100003142600651270261020110065127026102011JL014589043BR  0000004112011149237-4                000007
100003150900651276261020110065127626102011RQ047850098BR  0000004112011149237-11               000008
100003145300651920271020110065192027102011JL014589193BR  0000004112011149439-2                000009
100003146100651921271020110065192127102011JL014589202BR  0000004112011149439-3                000010
100003146200651922271020110065192227102011JL014589216BR  0000004112011149439-4                000011
100003146300651923271020110065192327102011JL014589220BR  0000004112011149439-5                000012
100003150300651925271020110065192527102011JL014589233BR  0000004112011149439-7                000013
100003150400651926271020110065192627102011JL014589247BR  0000004112011149439-8                000014
100003150500651927271020110065192727102011JL014589255BR  0000004112011149439-9                000015
100003152800652767281020110065276728102011RQ047864389BR  0000004112011149637-1                000016
100003152900652768281020110065276828102011RQ047864392BR  0000004112011149637-2                000017
100003153000652769281020110065276928102011RQ047864401BR  0000004112011149637-3                000018
100003153100652770281020110065277028102011RQ047864415BR  0000004112011149637-7                000019
100003153700652773281020110065277328102011RQ047864446BR  0000004112011149637-10               000020
100003154700652775281020110065277528102011RQ047864450BR  0000004112011149637-12               000021
100003154800652776281020110065277628102011RQ047864463BR  0000004112011149637-18               000022
100003154900652777281020110065277728102011RQ047864477BR  0000004112011149637-27               000023
100003155000652778281020110065277828102011RQ047864485BR  0000004112011149637-33               000024
9000023                                                                                       000025
