0RETORNONOTIFICAÇÃO ELETRONICA        15122011OCOR                                            000001
100003227500685131061220110068513106122011RQ046275752BR  0000013122011154511-2                000002
100003227700685133061220110068513306122011RQ046275770BR  0000013122011154511-4                000003
100003227900685134061220110068513406122011RQ046275783BR  0000013122011154511-5                000004
100003228100685136061220110068513606122011RQ046275806BR  0000213122011154511-7                000005
100003232400685139061220110068513906122011RQ046275837BR  0000013122011154511-26               000006
100003233000685154061220110068515406122011RQ046275987BR  0000013122011154524-10               000007
100003233100685155061220110068515506122011RQ046275995BR  0000013122011154524-11               000008
100003233200685156061220110068515606122011JL014610523BR  0000013122011154524-12               000009
100003234900685160061220110068516006122011RQ046276024BR  0000513122011154529-3                000010
100003235000685161061220110068516106122011RQ046276038BR  0000013122011154529-4                000011
100003238700685163061220110068516306122011RQ046276055BR  0000013122011154529-7                000012
100003239200000000000000000000000000000000RQ046287486BR  0000013122011154791-1                000013
9000012                                                                                       000014
