0RETORNONOTIFICAÇÃO ELETRONICA        04072012OCOR                                            000001
100003582900778312130620120077831213062012FR971611583BR  0000402072012178769-28               000002
100003594600780021190620120078002119062012FR971628235BR  0000002072012179643-6                000003
100003597500781010210620120078101021062012FR971638011BR  0000002072012179984-1                000004
100003601400781016210620120078101621062012FR971638073BR  0000002072012179985-6                000005
100003602900784378260620120078437826062012FR971671692BR  0000002072012180647-2                000006
100003606100784386260620120078438626062012FR971671777BR  0000002072012180649-7                000007
100003606200784387260620120078438726062012FR971671785BR  0000002072012180649-8                000008
100003606300784388260620120078438826062012FR971671794BR  0000002072012180649-9                000009
9000008                                                                                       000010
