0RETORNONOTIFICAÇÃO ELETRONICA        04042012OCOR                                            000001
100003422900728936090320120072893609032012RQ205579542BR  0001203042012166011-34               000002
100003446800737529270320120073752927032012FR851796470BR  0000003042012168364-7                000003
100003449200737535270320120073753527032012FR851796537BR  0000003042012168365-4                000004
100003452000739663280320120073966328032012FR851817815BR  0000003042012168540-2                000005
100003452100739664280320120073966428032012FR851817824BR  0000003042012168540-4                000006
100003452200739665280320120073966528032012FR851817838BR  0000003042012168540-5                000007
100003452300739666280320120073966628032012FR851817841BR  0000003042012168540-6                000008
100003452400739667280320120073966728032012FR851817855BR  0000003042012168540-7                000009
100003456200742242300320120074224230032012FR851843585BR  0000003042012168895-3                000010
9000009                                                                                       000011
