0RETORNONOTIFICAÇÃO ELETRONICA        09092011OCOR                                            000001
100002984900616074010920110061607401092011RM948326607BR  0000008092011142714-1                000002
100002995200616078010920110061607801092011RM948326615BR  0000008092011142714-5                000003
100002995500616080010920110061608001092011RM948326638BR  0000008092011142714-9                000004
100002995900616083010920110061608301092011RM948326655BR  0000008092011142820-1                000005
100002987500616695020920110061669502092011RM948331615BR  0000008092011143116-2                000006
100002988300616696020920110061669602092011RM948331624BR  0000108092011143116-3                000007
100002990500616703020920110061670302092011RM948331638BR  0000008092011143116-10               000008
100002990600616704020920110061670402092011JL014573984BR  0000008092011143116-11               000009
100002996900616710020920110061671002092011RM948331686BR  0000008092011143116-17               000010
100002997200616711020920110061671102092011RM948331690BR  0000008092011143116-18               000011
9000010                                                                                       000012
