0RETORNONOTIFICAÇÃO ELETRONICA        15122011OCOR                                            000001
100003202100672823281120110067282328112011JL014602535BR  0000014122011152890-1                000002
100003217000675120291120110067512029112011JL014603108BR  0000014122011153475-10               000003
100003217100675121291120110067512129112011JL014603111BR  0000014122011153475-16               000004
100003232500685140061220110068514006122011RQ046275845BR  0000214122011154511-34               000005
100003232600685141061220110068514106122011RQ046275854BR  0000414122011154511-46               000006
100003232700685142061220110068514206122011RQ046275868BR  0000214122011154511-58               000007
100003232800685143061220110068514306122011RQ046275871BR  0000414122011154511-84               000008
100003232900000000000000000000000000000000RQ046275885BR  0000114122011154511-100              000009
100003232900000000000000000000000000000000RQ046277064BR  0000114122011154511-127              000010
100003234800685159061220110068515906122011RQ046276015BR  0000014122011154529-2                000011
100003238900685165061220110068516506122011RQ046276072BR  0000014122011154529-10               000012
100003239000685166061220110068516606122011RQ046276086BR  0000014122011154529-12               000013
100003241900000000000000000000000000000000RQ046287512BR  0000214122011154791-23               000014
100003242100686415091220110068641509122011RQ046287999BR  0000014122011154923-2                000015
100003242600686420091220110068642009122011RQ046288040BR  0000214122011154923-16               000016
9000015                                                                                       000017
