0RETORNONOTIFICAÇÃO ELETRONICA        20012011OCOR                                            000001
100002541800437123141220100043712314122010RL847889334BR  0000014012011117754-10               000002
100002546400446811030120110044681103012011RL893546950BR  0000014012011118797-1                000003
100002550200446814030120110044681403012011RL893546985BR  0000014012011118797-4                000004
100002550500446815030120110044681503012011RL893546994BR  0000014012011118797-5                000005
100002551800446817030120110044681703012011RL893547014BR  0000914012011118797-7                000006
100002552300446818030120110044681803012011RL893547028BR  0000014012011118797-8                000007
100002552400446819030120110044681903012011RL893547031BR  0000014012011118797-9                000008
100002552600446820030120110446820
03012011RL893547045BR  0000014012011118797-10               000009
100002553000446822030120110044682203012011RL893547062BR  0000014012011118797-12               000010
100002553700446823030120110044682303012011RL893547076BR  0000014012011118797-13               000011
100002553800446824030120110044682403012011RL893547080BR  0000014012011118797-14               000012
100002554100446825030120110044682503012011RL893547093BR  0000014012011118797-15               000013
100002567300446826030120110044682603012011RL893547102BR  0000014012011118797-16               000014
100002567300449036060120110044903606012011RL893566384BR  0000014012011118797-17               000015
100002567400446827030120110044682703012011RL893547116BR  0000014012011118797-20               000016
100002567500446828030120110044682803012011RL893547120BR  0000014012011118797-21               000017
100002567600446829030120110044682903012011RL893547133BR  0000014012011118797-22               000018
100002567700446830030120110044683003012011RL893547147BR  0000014012011118797-23               000019
100002567700000000000000000000000000000000RL893566398BR  0000014012011118797-24               000020
100002567900446832030120110044683203012011RL893547164BR  0000014012011118797-27               000021
100002568000446833030120110044683303012011RL893547178BR  0000014012011118797-28               000022
100002565700448685040120110044868504012011RL893563017BR  0000014012011118840-1                000023
100002565800448686040120110044868604012011RL893563025BR  0000014012011118840-2                000024
100002568100448687040120110044868704012011RL893563034BR  0000014012011118840-3                000025
100002568200448688040120110044868804012011RL893563048BR  0000014012011118840-4                000026
100002568300448689040120110044868904012011RL893563051BR  0000014012011118840-5                000027
9000026                                                                                       000028
