0RETORNONOTIFICAÇÃO ELETRONICA        10052011OCOR                                            000001
100002728700520875270420110052087527042011RL963994753BR  0000009052011128703-1                000002
100002729100520879270420110052087927042011RL963994798BR  0000009052011128703-8                000003
100002729200520880270420110052088027042011RL963994807BR  0000009052011128703-9                000004
100002731700520883270420110052088327042011RL963994838BR  0000009052011128822-3                000005
100002731800520884270420110052088427042011RL963994841BR  0000009052011128822-4                000006
100002729800521086270420110052108627042011RL963996860BR  0000009052011128929-1                000007
100002730400521087270420110052108727042011RL963996873BR  0000009052011128929-2                000008
100002730500521088270420110052108827042011RL963996887BR  0000009052011128929-3                000009
100002734200521089270420110052108927042011RL963996895BR  0000009052011128929-4                000010
100002734700521090270420110052109027042011RL963996900BR  0000009052011128929-5                000011
100002734800521091270420110052109127042011RL963996913BR  0000009052011128929-6                000012
100002734900521092270420110052109227042011RL963996927BR  0000009052011128929-9                000013
9000012                                                                                       000014
