0RETORNONOTIFICAÇÃO ELETRONICA        02082011OCOR                                            000001
100002908000584091250720110058409125072011RM923713450BR  0000001082011138230-1                000002
100002910300584093250720110058409325072011RM923713463BR  0000001082011138230-3                000003
100002911000584094250720110058409425072011RM923713477BR  0000001082011138230-4                000004
100002912800584095250720110058409525072011RM923713485BR  0000001082011138230-5                000005
100002912900584096250720110058409625072011JL014550728BR  0000001082011138230-6                000006
100002913700584097250720110058409725072011JL014550731BR  0000001082011138230-7                000007
100002914300584099250720110058409925072011RM923713494BR  0000001082011138230-9                000008
100002915600585593260720110058559326072011RM923726590BR  0000001082011138292-4                000009
100002917100585595260720110058559526072011JL014551710BR  0000001082011138292-6                000010
100002917300585597260720110058559726072011RM923726612BR  0000001082011138292-8                000011
100002917400585598260720110058559826072011JL014551723BR  0000001082011138292-9                000012
9000011                                                                                       000013
