0RETORNONOTIFICAÇÃO ELETRONICA        04052011OCOR                                            000001
100002720700510779150420110051077915042011RL963899810BR  0000003052011127942-1                000002
100002722700511650180420110051165018042011RL963907808BR  0000003052011128216-2                000003
100002722800511651180420110051165118042011RL963907811BR  0000003052011128216-3                000004
100002722900511652180420110051165218042011RL963907825BR  0000003052011128216-4                000005
100002724200511653180420110051165318042011RL963907839BR  0000003052011128216-5                000006
100002725600511658180420110051165818042011RL963907887BR  0000003052011128216-10               000007
100002726700512430200420110051243020042011RL963914636BR  0000003052011128353-2                000008
100002726800512431200420110051243120042011RL963914640BR  0000003052011128353-3                000009
9000008                                                                                       000010
