0RETORNONOTIFICAÇÃO ELETRONICA        10062014OCOR                                            000001
100004724201206602280420140120660228042014FA271048948BR  0000002062014297531-3                000002
100004742001219172090520140121917209052014FA271155200BR  0000009062014299091-9                000003
100004759201225635220520140122563522052014FA271201275BR  0000002062014301378-10               000004
100004759301225636220520140122563622052014FA271201289BR  0000002062014301378-11               000005
100004759401225637220520140122563722052014FA271201292BR  0000002062014301378-12               000006
100004759501225695220520140122569522052014FA271201831BR  0000002062014301769-1                000007
100004761101227088260520140122708826052014FA271212131BR  0000002062014302002-1                000008
100004761201227089260520140122708926052014FA271212145BR  0000002062014302002-4                000009
100004762501232570280520140123257028052014FA271256968BR  0000006062014302577-1                000010
100004762601232571280520140123257128052014FA271256971BR  0000002062014302577-2                000011
100004762701232572280520140123257228052014FA271256985BR  0000002062014302577-3                000012
100004762801232573280520140123257328052014FA271256999BR  0000009062014302577-4                000013
100004762901232574280520140123257428052014FA271257005BR  0000002062014302577-5                000014
100004763101232576280520140123257628052014FA271257022BR  0000009062014302577-8                000015
100004765601232578280520140123257828052014FA271257040BR  0000002062014302578-1                000016
100004765701232579280520140123257928052014FA271257053BR  0000006062014302578-2                000017
100004765801232580280520140123258028052014FA271257067BR  0000009062014302578-3                000018
100004765901232581280520140123258128052014FA271257075BR  0000102062014302578-4                000019
100004766001232582280520140123258228052014FA271257084BR  0000005062014302578-5                000020
100004766101232583280520140123258328052014FA271257098BR  0000006062014302578-6                000021
100004766201232584280520140123258428052014FA271257107BR  0000002062014302578-7                000022
100004767801232585280520140123258528052014FA271257115BR  0000002062014302578-14               000023
100004768001233431290520140123343129052014FA271263796BR  0000005062014302899-2                000024
100004768101233432290520140123343229052014FA271263805BR  0000005062014302899-3                000025
100004768201233433290520140123343329052014FA271263819BR  0000005062014302899-4                000026
100004768301233434290520140123343429052014FA271263822BR  0000002062014302899-5                000027
100004769501233435290520140123343529052014FA271263836BR  0000005062014302899-7                000028
100004769601233436290520140123343629052014FA271263840BR  0000506062014302899-13               000029
100004769801233438290520140123343829052014FA271263867BR  0000105062014302899-33               000030
100004770001233440290520140123344029052014FA271263884BR  0000006062014302899-42               000031
100004770101233441290520140123344129052014FA271263898BR  0000005062014302899-45               000032
100004770201233442290520140123344229052014FA271263907BR  0000009062014302899-50               000033
100004770401233444290520140123344429052014FA271263924BR  0001204062014302899-68               000034
100004766901233445290520140123344529052014FA271263938BR  0000005062014303008-1                000035
100004770501233446290520140123344629052014FA271263941BR  0000005062014303008-2                000036
100004770601233447290520140123344729052014FA271263955BR  0000005062014303008-3                000037
100004771501233449290520140123344929052014FA271263972BR  0000009062014303008-5                000038
100004771801233450290520140123345029052014FA271263986BR  0000006062014303008-6                000039
100004772201237881030620140123788103062014FA271297715BR  0000006062014303248-1                000040
100004773601237885030620140123788503062014FA271297755BR  0000009062014303529-1                000041
100004773801237887030620140123788703062014FA271297772BR  0000006062014303529-4                000042
100004773901237888030620140123788803062014FA271297786BR  0000009062014303529-5                000043
100004775701237890030620140123789003062014FA271297809BR  0000009062014303529-14               000044
100004775801240825050620140124082505062014FA282972969BR  0000009062014303951-1                000045
100004776101240828050620140124082805062014FA282972990BR  0000109062014303951-5                000046
100004776201240829050620140124082905062014FA282973006BR  0000009062014303951-6                000047
100004776501240832050620140124083205062014FA282973037BR  0000009062014303951-10               000048
9000047                                                                                       000049
