0RETORNONOTIFICAÇÃO ELETRONICA        09032010OCOR                                            000001
100002039700243154220220100024315422022010FR584347317BR  000000803201086452-6                 000002
100002058400246564250220100024656425022010FR584382075BR  000000803201086815-3                 000003
100002061100249831020320100024983102032010FR584414762BR  000000803201087366-8                 000004
100002064900249839020320100024983902032010FR584414847BR  000120803201087369-5                 000005
100002070300249853020320100024985302032010FR584414983BR  000000803201087369-21                000006
9000005                                                                                       000007
