0RETORNONOTIFICAÇÃO ELETRONICA        02012013OCOR                                            000001
100003886200865159301120120086515930112012FA062955095BR  0000021122012207724-2                000002
100003920400872465131220120087246513122012FA063024272BR  0000026122012210415-24               000003
100003920300872466131220120087246613122012FA063024286BR  0000026122012210415-25               000004
100003920600872467131220120087246713122012FA063024290BR  0000021122012210415-26               000005
100003923100872469131220120087246913122012FA063024312BR  0000027122012210420-2                000006
100003922700872471131220120087247113122012FA063024330BR  0000021122012210420-5                000007
100003922900872473131220120087247313122012FA063024357BR  0000026122012210420-7                000008
100003926300873313181220120087331318122012FA063032044BR  0000026122012211237-1                000009
100003926400873314181220120087331418122012FA063032058BR  0000026122012211237-2                000010
100003926200873315181220120087331518122012FA063032061BR  0000021122012211237-3                000011
100003927500873316181220120087331618122012FA063032075BR  0000026122012211242-1                000012
100003927900873318181220120087331818122012FA063032092BR  0000027122012211242-7                000013
100003927600873319181220120087331918122012FA063032101BR  0000026122012211242-8                000014
100003927800873320181220120087332018122012FA063032115BR  0000026122012211242-9                000015
100003929100873321181220120087332118122012FA063032129BR  0000026122012211242-10               000016
100003923300873322181220120087332218122012FA063032132BR  0000121122012211242-11               000017
100003930200000000000000000000000000000000FA063036960BR  0000026122012211626-7                000018
100003930200000000000000000000000000000000FA063036973BR  0000026122012211626-20               000019
100003930000873831191220120087383119122012FA063036995BR  0000026122012211626-43               000020
100003932500874647201220120087464720122012FA063044688BR  0000027122012211940-1                000021
100003932600874648201220120087464820122012FA063044691BR  0000026122012211940-2                000022
100003933900874650201220120087465020122012FA063044714BR  0000027122012211943-2                000023
100003933800874651201220120087465120122012FA063044728BR  0000027122012211943-3                000024
100003934000874652201220120087465220122012FA063044731BR  0000026122012211943-4                000025
100003934200874653201220120087465320122012FA063044745BR  0000026122012211943-5                000026
100003938500874965211220120087496521122012FA063047640BR  0000027122012212133-2                000027
100003938600874966211220120087496621122012FA063047653BR  0000027122012212133-3                000028
100003938800874970211220120087497021122012FA063047698BR  0000527122012212133-7                000029
100003938400874971211220120087497121122012FA063047707BR  0000026122012212133-8                000030
9000029                                                                                       000031
