0RETORNONOTIFICAÇÃO ELETRONICA        05082014OCOR                                            000001
100004847301279737220720140127973722072014FA283264520BR  0000004082014311242-5                000002
100004849901279743220720140127974322072014FA283264581BR  0000031072014311815-4                000003
100004850201279746220720140127974622072014FA283264618BR  0000201082014311815-7                000004
100004851301279753220720140127975322072014FA283264683BR  0000031072014311818-4                000005
100004852301279757220720140127975722072014FA283264723BR  0000031072014311818-9                000006
100004852401279758220720140127975822072014FA283264737BR  0000001082014311818-10               000007
100004853701281066240720140128106624072014FA283274221BR  0000031072014312091-1                000008
100004853801281067240720140128106724072014FA283274235BR  0000031072014312091-2                000009
100004853901281068240720140128106824072014FA283274249BR  0000004082014312091-3                000010
100004854001281069240720140128106924072014FA283274252BR  0000004082014312091-5                000011
100004854201281071240720140128107124072014FA283274270BR  0000031072014312091-7                000012
100004854401281073240720140128107324072014FA283274297BR  0000031072014312091-11               000013
100004855601281077240720140128107724072014FA283274337BR  0000004082014312278-3                000014
100004855701281078240720140128107824072014FA283274345BR  0000031072014312278-4                000015
100004857101281083240720140128108324072014FA283274399BR  0000031072014312278-9                000016
100004857301281084240720140128108424072014FA283274408BR  0000001082014312278-10               000017
100004857401281085240720140128108524072014FA283274411BR  0000001082014312278-11               000018
100004857801286218290720140128621829072014FA283311397BR  0000004082014312476-1                000019
100004858001286220290720140128622029072014FA283311410BR  0000004082014312476-3                000020
100004858101286221290720140128622129072014FA283311423BR  0000004082014312476-4                000021
100004859001286225290720140128622529072014FA283311468BR  0000004082014312476-8                000022
100004861001286226290720140128622629072014FA283311471BR  0000001082014312999-1                000023
100004861101286227290720140128622729072014FA283311485BR  0000004082014312999-2                000024
100004861201286228290720140128622829072014FA283311499BR  0000001082014312999-3                000025
100004861301286229290720140128622929072014FA283311508BR  0000004082014312999-4                000026
100004861701286231290720140128623129072014FA283311525BR  0000004082014312999-6                000027
100004862501287590310720140128759031072014FA283318727BR  0000004082014313298-2                000028
9000027                                                                                       000029
