0RETORNONOTIFICAÇÃO ELETRONICA        09052013OCOR                                            000001
100004135200948043300420130094804330042013FA105079447BR  0000508052013233983-11               000002
100004144700948059300420130094805930042013FA105079606BR  0000008052013233990-3                000003
100004147300948084300420130094808430042013FA105079858BR  0000808052013233993-4                000004
100004150800948091300420130094809130042013FA105079929BR  0000008052013233994-7                000005
100004165300948123300420130094812330042013FA105080241BR  0000008052013234000-17               000006
100004166000948126300420130094812630042013FA105080272BR  0000808052013234000-21               000007
100004170000948133300420130094813330042013FA105080343BR  0000008052013234002-9                000008
100004170100948134300420130094813430042013FA105080357BR  0000008052013234002-10               000009
100004170400948611020520130094861102052013FA105083747BR  0000008052013234084-1                000010
9000009                                                                                       000011
