0RETORNONOTIFICAÇÃO ELETRONICA        14062011OCOR                                            000001
100002791500000000000000000000000000000000JL014261743BR  0000013062011132384-97               000002
100002791700000000000000000000000000000000JL014261765BR  0000013062011132384-106              000003
100002793700000000000000000000000000000000JL014261964BR  0000013062011132384-144              000004
100002793900000000000000000000000000000000JL014261981BR  0000013062011132384-149              000005
100002795600550636030620110055063603062011JL014287887BR  0002313062011132648-6                000006
100002796200550642030620110055064203062011JL014287944BR  0000013062011132789-6                000007
100002798100551812060620110055181206062011JL014299275BR  0000013062011132961-4                000008
100002788700551819060620110055181906062011JL014299341BR  0000013062011132965-8                000009
100002789200551820060620110055182006062011JL014299355BR  0000013062011132965-9                000010
100002789300551821060620110055182106062011JL014299369BR  0000013062011132965-10               000011
100002789500551822060620110055182206062011JL014299372BR  0000013062011132965-11               000012
100002797300551824060620110055182406062011JL014299390BR  0000013062011132965-13               000013
100002797400551825060620110055182506062011JL014299409BR  0000013062011132965-14               000014
100002801100551826060620110055182606062011JL014299412BR  0000013062011132965-15               000015
9000014                                                                                       000016
