0RETORNONOTIFICAÇÃO ELETRONICA        05092012OCOR                                            000001
100003696800816710220820120081671022082012FR971987431BR  0000003092012189807-1                000002
100003709500816715220820120081671522082012FR971987480BR  0000003092012189807-6                000003
100003709900816719220820120081671922082012FR971987520BR  0001204092012189807-13               000004
100003710200816721220820120081672122082012FR971987547BR  0000003092012189807-15               000005
100003711400816723220820120081672322082012FR971987564BR  0000003092012189811-1                000006
100003711800816727220820120081672722082012FR971987604BR  0001204092012189811-6                000007
100003713500816730220820120081673022082012FR971987635BR  0000003092012189817-1                000008
100003714500816734220820120081673422082012FR971987670BR  0000204092012189817-9                000009
100003715600816735220820120081673522082012FR971987683BR  0000003092012189817-10               000010
100003715400816736220820120081673622082012FR971987697BR  0000003092012189824-1                000011
100003716200816738220820120081673822082012FR971987710BR  0000003092012189824-3                000012
100003718400816745220820120081674522082012FR971987785BR  0000003092012189827-5                000013
100003719700818101240820120081810124082012FA012302839BR  0000003092012190293-1                000014
100003720600818103240820120081810324082012FA012302856BR  0000003092012190293-3                000015
100003720700818104240820120081810424082012FA012302860BR  0000003092012190293-4                000016
100003722600818105240820120081810524082012FA012302873BR  0000003092012190293-5                000017
100003722700818106240820120081810624082012FA012302887BR  0000003092012190293-6                000018
100003722800818107240820120081810724082012FA012302895BR  0000003092012190293-7                000019
100003722900818108240820120081810824082012FA012302900BR  0000003092012190293-8                000020
100003723100818110240820120081811024082012FA012302927BR  0000003092012190293-16               000021
100003723200818111240820120081811124082012FA012302935BR  0000003092012190293-17               000022
100003723300818112240820120081811224082012FA012302944BR  0000003092012190293-20               000023
100003723400818113240820120081811324082012FA012302958BR  0000003092012190293-21               000024
100003723500818114240820120081811424082012FA012302961BR  0000003092012190293-22               000025
100003723700818116240820120081811624082012FA012302989BR  0000003092012190293-25               000026
100003723800818117240820120081811724082012FA012302992BR  0000003092012190293-27               000027
100003724500818118240820120081811824082012FA012303009BR  0000003092012190293-29               000028
100003724600818119240820120081811924082012FA012303012BR  0000003092012190293-30               000029
100003724900818120240820120081812024082012FA012303026BR  0000003092012190293-31               000030
100003725000819450280820120081945028082012FA012316047BR  0000003092012190573-1                000031
100003725100819451280820120081945128082012FA012316055BR  0000003092012190573-2                000032
100003725200819452280820120081945228082012FA012316064BR  0000003092012190573-3                000033
100003725300819453280820120081945328082012FA012316078BR  0000003092012190573-4                000034
100003725500819455280820120081945528082012FA012316095BR  0000003092012190573-6                000035
100003725600819456280820120081945628082012FA012316104BR  0000003092012190573-7                000036
100003725700819457280820120081945728082012FA012316118BR  0000003092012190573-8                000037
100003726200819458280820120081945828082012FA012316121BR  0000003092012190573-9                000038
100003726800819459280820120081945928082012FA012316135BR  0000003092012190573-10               000039
100003726900819460280820120081946028082012FA012316149BR  0000003092012190573-11               000040
100003727000819461280820120081946128082012FA012316152BR  0000003092012190573-12               000041
100003727200819462280820120081946228082012FA012316166BR  0000003092012190573-13               000042
100003727300819463280820120081946328082012FA012316170BR  0000003092012190573-14               000043
100003727400819464280820120081946428082012FA012316183BR  0000003092012190573-15               000044
100003721400819466280820120081946628082012FA012316206BR  0000003092012190576-2                000045
100003727600819468280820120081946828082012FA012316223BR  0000004092012190576-5                000046
100003727700819469280820120081946928082012FA012316237BR  0000103092012190576-6                000047
100003727800819470280820120081947028082012FA012316245BR  0000003092012190576-7                000048
100003728100819473280820120081947328082012FA012316271BR  0000003092012190576-15               000049
100003728600819474280820120081947428082012FA012316285BR  0000003092012190576-16               000050
100003730200819477280820120081947728082012FA012316311BR  0000003092012190601-3                000051
100003730500819480280820120081948028082012FA012316342BR  0000003092012190601-12               000052
100003730600819481280820120081948128082012FA012316356BR  0000003092012190601-13               000053
100003733100819482280820120081948228082012FA012316360BR  0000003092012190601-14               000054
100003733200819483280820120081948328082012FA012316373BR  0000003092012190601-15               000055
100003733400819485280820120081948528082012FA012316395BR  0000003092012190601-17               000056
100003733600819487280820120081948728082012FA012316413BR  0000003092012190601-19               000057
100003733700819488280820120081948828082012FA012316427BR  0000003092012190601-20               000058
100003733800819489280820120081948928082012FA012316435BR  0000003092012190601-21               000059
100003734200819493280820120081949328082012FA012316475BR  0000003092012190601-31               000060
100003734300819494280820120081949428082012FA012316489BR  0000003092012190601-32               000061
100003734600819497280820120081949728082012FA012316515BR  0000003092012190601-43               000062
100003734800819499280820120081949928082012FA012316532BR  0000704092012190601-53               000063
100003734900819500280820120081950028082012FA012316546BR  0000003092012190601-55               000064
100003735100819502280820120081950228082012FA012316563BR  0000003092012190601-59               000065
100003735300819504280820120081950428082012FA012316585BR  0000003092012190601-67               000066
100003735400819505280820120081950528082012FA012316594BR  0000003092012190601-72               000067
100003735500819506280820120081950628082012FA012316603BR  0000003092012190601-79               000068
100003735700819508280820120081950828082012FA012316625BR  0000003092012190601-88               000069
100003735800819509280820120081950928082012FA012316634BR  0000003092012190601-92               000070
100003736200819513280820120081951328082012FA012316679BR  0000003092012190601-113              000071
100003736400819515280820120081951528082012FA012316696BR  0000003092012190601-125              000072
100003736600819517280820120081951728082012FA012316719BR  0000003092012190601-150              000073
100003736700819518280820120081951828082012FA012316722BR  0000003092012190601-161              000074
100003736800819519280820120081951928082012FA012316736BR  0000904092012190601-167              000075
100003737100819522280820120081952228082012FA012316767BR  0000904092012190601-204              000076
100003737200819523280820120081952328082012FA012316775BR  0000904092012190601-206              000077
100003737300819524280820120081952428082012FA012316784BR  0000003092012190601-208              000078
100003737400819525280820120081952528082012FA012316798BR  0000003092012190601-238              000079
100003737500819526280820120081952628082012FA012316807BR  0000903092012190601-263              000080
100003737700819528280820120081952828082012FA012316824BR  0000003092012190601-303              000081
100003737800819529280820120081952928082012FA012316838BR  0000003092012190601-312              000082
100003737900000000000000000000000000000000FA012316841BR  0000003092012190601-324              000083
100003737900000000000000000000000000000000FA012319817BR  0000003092012190601-353              000084
100003738000819531280820120081953128082012FA012316855BR  0000003092012190601-382              000085
100003738100819532280820120081953228082012FA012316869BR  0000003092012190601-397              000086
9000085                                                                                       000087
