0RETORNONOTIFICAÇÃO ELETRONICA        09112010OCOR                                            000001
100002467900405027211020100040502721102010RL793367235BR  0000009112010113853-7                000002
100002473800416986271020100041698627102010RL847686464BR  0000009112010114234-2                000003
100002474300416987271020100041698727102010RL847686478BR  0000109112010114234-3                000004
100002474400416988271020100041698827102010RL847686481BR  0000009112010114234-4                000005
100002476000418031281020100041803128102010RL847696974BR  0000009112010114343-1                000006
100002476200418033281020100041803328102010RL847696991BR  0000009112010114343-4                000007
100002476400418035281020100041803528102010RL847697011BR  0000009112010114343-14               000008
100002476500418036281020100041803628102010RL847697025BR  0000009112010114343-15               000009
100002476600418720291020100041872029102010RL847703865BR  0000009112010114432-1                000010
100002476700418721291020100041872129102010RL847703879BR  0000009112010114432-2                000011
100002476800418722291020100041872229102010RL847703882BR  0000009112010114432-5                000012
100002477800418723291020100041872329102010RL847703896BR  0000009112010114432-6                000013
100002478000418724291020100041872429102010RL847703905BR  0000009112010114432-7                000014
100002478500418725291020100041872529102010RL847703919BR  0000009112010114432-8                000015
9000014                                                                                       000016
