0RETORNONOTIFICAÇÃO ELETRONICA        27042012OCOR                                            000001
100003475900749229130420120074922913042012FR851913556BR  0000026042012170432-2                000002
100003479400750951190420120075095119042012FR851930673BR  0000026042012171319-9                000003
100003477800750952190420120075095219042012FR851930687BR  0000026042012171320-1                000004
100003480900750954190420120075095419042012FR851930700BR  0000026042012171320-5                000005
100003481100750956190420120075095619042012FR851930727BR  0000026042012171320-8                000006
100003481200750957190420120075095719042012FR851930735BR  0000026042012171320-9                000007
100003482600000000000000000000000000000000FR851930775BR  0000026042012171320-13               000008
100003482600000000000000000000000000000000FR851936398BR  0000026042012171320-37               000009
100003482700751541190420120075154119042012FR851936424BR  0000026042012171365-1                000010
100003483600751547190420120075154719042012FR851936486BR  0000026042012171370-1                000011
100003484200751548190420120075154819042012FR851936490BR  0000026042012171370-2                000012
100003484400751550190420120075155019042012FR851936512BR  0000026042012171370-4                000013
100003484500751551190420120075155119042012FR851936526BR  0000026042012171370-5                000014
100003484600751552190420120075155219042012FR851936530BR  0000026042012171370-6                000015
100003484700751553190420120075155319042012FR851936543BR  0000026042012171370-7                000016
100003487000751929200420120075192920042012FR851940300BR  0000026042012171500-5                000017
100003487200751930200420120075193020042012FR851940313BR  0000026042012171500-6                000018
100003487400751931200420120075193120042012FR851940327BR  0000026042012171500-7                000019
100003487600751932200420120075193220042012FR851940335BR  0000026042012171500-8                000020
100003488200751933200420120075193320042012FR851940344BR  0000026042012171500-9                000021
100003488300751934200420120075193420042012FR851940358BR  0000026042012171500-10               000022
9000021                                                                                       000023
