0RETORNONOTIFICAÇÃO ELETRONICA        07102010OCOR                                            000001
100002392600396442280920100039644228092010RL793279916BR  0000007102010110122-1                000002
100002392800396443280920100039644328092010RL793279920BR  0000007102010110122-3                000003
100002392900396444280920100039644428092010RL793279933BR  0000007102010110122-4                000004
100002393000396445280920100039644528092010RL793279947BR  0000807102010110122-5                000005
100002393100396446280920100039644628092010RL793279955BR  0000007102010110122-6                000006
100002395900396447280920100039644728092010RL793279964BR  0000007102010110257-5                000007
100002396100396449280920100039644928092010RL793279981BR  0000007102010110257-9                000008
100002386900396451280920100039645128092010RL793280004BR  0000007102010110365-2                000009
100002387100396452280920100039645228092010RL793280018BR  0000007102010110365-3                000010
100002387500396453280920100039645328092010RL793280021BR  0000007102010110365-4                000011
100002389800396454280920100039645428092010RL793280035BR  0000007102010110365-5                000012
100002389900396455280920100039645528092010RL793280049BR  0002307102010110365-6                000013
100002391600396458280920100039645828092010RL793280070BR  0000007102010110365-9                000014
100002394100396459280920100039645928092010RL793280083BR  0000007102010110365-10               000015
100002396200396460280920100039646028092010RL793280097BR  0000007102010110365-11               000016
100002396300396461280920100039646128092010RL793280106BR  0000007102010110365-13               000017
100002396400396462280920100039646228092010RL793280110BR  0000007102010110365-14               000018
100002396500396463280920100039646328092010RL793280123BR  0000007102010110365-15               000019
100002396700396464280920100039646428092010RL793280137BR  0000007102010110466-3                000020
100002396800396465280920100039646528092010RL793280145BR  0000007102010110466-4                000021
100002398700396466280920100039646628092010RL793280154BR  0000007102010110710-1                000022
100002406500396467280920100039646728092010RL793280168BR  0000007102010110710-3                000023
100002398200396468280920100039646828092010RL793280171BR  0000007102010110818-1                000024
100002399000396469280920100039646928092010RL793280185BR  0000007102010110818-2                000025
100002399100396470280920100039647028092010RL793280199BR  0000007102010110818-3                000026
100002406600396471280920100039647128092010RL793280208BR  0000007102010110818-4                000027
100002406700396472280920100039647228092010RL793280211BR  0000007102010110818-5                000028
100002419700391695200920100039169520092010RL793232556BR  0000807102010111520-14               000029
100002422200392187210920100039218721092010RL793237425BR  0000007102010111628-9                000030
100002425000392190210920100039219021092010RL793237451BR  0000505102010111628-12               000031
100002426600393676220920100039367622092010RL793252309BR  0000007102010111756-4                000032
100002408800394186230920100039418623092010RL793257399BR  0000007102010111888-1                000033
100002408900394187230920100039418723092010RL793257408BR  0000007102010111888-2                000034
100002414800394190230920100039419023092010RL793257439BR  0000005102010111888-5                000035
100002432700395514270920100039551427092010RL793270642BR  0000007102010112122-1                000036
100002432800395515270920100039551527092010RL793270656BR  0000007102010112122-3                000037
100002433000395517270920100039551727092010RL793270673BR  0000007102010112122-7                000038
100002433100395518270920100039551827092010RL793270687BR  0000007102010112122-8                000039
100002436400396473280920100039647328092010RL793280225BR  0000007102010112219-1                000040
100002436500396474280920100039647428092010RL793280239BR  0000007102010112219-2                000041
100002436700396476280920100039647628092010RL793280256BR  0000007102010112219-7                000042
100002436800396477280920100039647728092010RL793280260BR  0000007102010112219-9                000043
100002414000397007290920100039700729092010RL793285545BR  0000007102010112352-1                000044
100002414100397008290920100039700829092010RL793285559BR  0000007102010112352-2                000045
100002414500397009290920100039700929092010RL793285562BR  0000007102010112352-3                000046
100002421200397011290920100039701129092010RL793285580BR  0000007102010112352-5                000047
100002421300397012290920100039701229092010RL793285593BR  0000007102010112352-6                000048
100002436900397014290920100039701429092010RL793285616BR  0000007102010112352-8                000049
100002437000397015290920100039701529092010RL793285620BR  0000007102010112352-9                000050
100002437100397016290920100039701629092010RL793285633BR  0000007102010112352-10               000051
100002439800397017290920100039701729092010RL793285647BR  0000007102010112352-11               000052
100002421500397019290920100039701929092010RL793285664BR  0000007102010112437-1                000053
100002424700397021290920100039702129092010RL793285681BR  0000007102010112437-3                000054
100002432100397022290920100039702229092010RL793285695BR  0000007102010112437-4                000055
100002433600397023290920100039702329092010RL793285704BR  0000007102010112437-5                000056
100002433700397024290920100039702429092010RL793285718BR  0000007102010112437-6                000057
100002433800397025290920100039702529092010RL793285721BR  0000007102010112437-7                000058
100002440000397026290920100039702629092010RL793285735BR  0000007102010112437-8                000059
100002440100397027290920100039702729092010RL793285749BR  0000007102010112437-9                000060
100002440200397028290920100039702829092010RL793285752BR  0000007102010112437-10               000061
100002440300397029290920100039702929092010RL793285766BR  0000007102010112437-11               000062
100002440400397030290920100039703029092010RL793285770BR  0000007102010112437-15               000063
100002440500397031290920100039703129092010RL793285783BR  0000007102010112437-16               000064
9000063                                                                                       000065
