0RETORNONOTIFICAÇÃO ELETRONICA        02122011OCOR                                            000001
100003169600660914071120110066091407112011JL014592095BR  0000501122011150625-11               000002
100003169700660915071120110066091507112011JL014592100BR  0000501122011150625-12               000003
100003197800669876231120110066987623112011JL014601305BR  0000001122011152354-8                000004
9000003                                                                                       000005
