0RETORNONOTIFICAÇÃO ELETRONICA        07022011OCOR                                            000001
100002584900455631210120110045563121012011RL893627565BR  0000004022011120284-15               000002
100002585000455632210120110045563221012011RL893627579BR  0000004022011120284-16               000003
100002586900455651210120110045565121012011RL893627769BR  0000204022011120288-4                000004
9000003                                                                                       000005
