0RETORNONOTIFICAÇÃO ELETRONICA        05122011OCOR                                            000001
100003188300665693161120110066569316112011JL014599346BR  0000002122011151597-34               000002
100003194500666539181120110066653918112011JL014600469BR  0000002122011151967-9                000003
100003199200669878231120110066987823112011RQ046432223BR  0000002122011152357-2                000004
9000003                                                                                       000005
