0RETORNONOTIFICAÇÃO ELETRONICA        20102011OCOR                                            000001
100003067400626727210920110062672721092011JL014578519BR  0000019102011145170-2                000002
100003091500639951051020110063995105102011RM948945525BR  0000019102011147062-10               000003
100003097000639956051020110063995605102011JL014583195BR  0000019102011147062-15               000004
100003097200639957051020110063995705102011RM948945565BR  0000019102011147062-16               000005
100003115300641900071020110064190007102011RM948964096BR  0000019102011147318-3                000006
100003101700642600111020110064260011102011JL014584390BR  0000019102011147689-3                000007
100003115500642602111020110064260211102011RM948970525BR  0000019102011147689-5                000008
100003117300642604111020110064260411102011RM948970542BR  0000019102011147689-7                000009
100003117700642608111020110064260811102011RM948970573BR  0000019102011147689-11               000010
100003119700643278131020110064327813102011RM948976845BR  0000019102011147870-7                000011
100003126300000000000000000000000000000000RM948977245BR  0000019102011147870-61               000012
100003126300000000000000000000000000000000RM948977523BR  0000019102011147870-79               000013
100003126300000000000000000000000000000000RM948983373BR  0000019102011147870-97               000014
100003126500644161141020110064416114102011RM948985272BR  0000019102011148072-2                000015
9000014                                                                                       000016
