0RETORNONOTIFICAÇÃO ELETRONICA        08092011OCOR                                            000001
100002975900613101260820110061310126082011JL014571952BR  0001206092011142149-7                000002
100002976100613103260820110061310326082011RM948300247BR  0000006092011142150-2                000003
100002976200613104260820110061310426082011RM948300255BR  0000806092011142150-3                000004
100002977600613108260820110061310826082011RM948300295BR  0000206092011142198-1                000005
100002977700613109260820110061310926082011RM948300304BR  0000006092011142198-2                000006
100002977800613110260820110061311026082011RM948300318BR  0000006092011142198-3                000007
100002982600613922290820110061392229082011JL014572122BR  0000006092011142344-8                000008
100002978900615375300820110061537530082011JL014572710BR  0000006092011142570-1                000009
100002980000615376300820110061537630082011RM948320856BR  0000006092011142570-2                000010
100002983900615377300820110061537730082011JL014572723BR  0000006092011142570-3                000011
100002984600615378300820110061537830082011JL014572737BR  0000006092011142570-4                000012
100002984700615379300820110061537930082011RM948320860BR  0000406092011142570-5                000013
100002994100615383300820110061538330082011RM948320900BR  0000006092011142570-9                000014
100002994900615387300820110061538730082011JL014572745BR  0000006092011142570-13               000015
100002995000615388300820110061538830082011JL014572754BR  0000006092011142570-14               000016
100002995100615389300820110061538930082011JL014572768BR  0000006092011142570-15               000017
100002996000616084010920110061608401092011RM948326669BR  0000006092011142820-2                000018
100002996100616085010920110061608501092011RM948326672BR  0000006092011142820-3                000019
9000018                                                                                       000020
