0RETORNONOTIFICAÇÃO ELETRONICA        14102014OCOR                                            000001
100004907301321382090920140132138209092014FA294503526BR  0000809102014320743-5                000002
100004967301331948230920140133194823092014FA294581744BR  0000113102014323608-508              000003
100004967901331954230920140133195423092014FA294581801BR  0000010102014323608-514              000004
100004976201332037230920140133203723092014FA294582634BR  0001209102014323608-628              000005
100004976801332043230920140133204323092014FA294582696BR  0000010102014323608-673              000006
100004979501335725290920140133572529092014FA294612530BR  0000009102014324399-2                000007
100004979601335726290920140133572629092014FA294612543BR  0000509102014324399-3                000008
100004979701335727290920140133572729092014FA294612557BR  0000009102014324399-4                000009
100004980501335733290920140133573329092014FA294612614BR  0000010102014324659-5                000010
100004980801342366031020140134236603102014FA294661875BR  0000010102014325008-1                000011
100004981101342369031020140134236903102014FA294661907BR  0000110102014325008-5                000012
100004981401342371031020140134237103102014FA294661924BR  0000013102014325263-1                000013
100004981501342372031020140134237203102014FA294661938BR  0000013102014325263-2                000014
100004981601342373031020140134237303102014FA294661941BR  0000209102014325263-3                000015
100004981901342374031020140134237403102014FA294661955BR  0000013102014325390-1                000016
100004982001342375031020140134237503102014FA294661969BR  0000013102014325390-2                000017
100004982201342377031020140134237703102014FA294661986BR  0000013102014325390-4                000018
100004982301342378031020140134237803102014FA294661990BR  0000013102014325390-5                000019
100004982401342379031020140134237903102014FA294662006BR  0000209102014325390-6                000020
100004983600000000000000000000000000000000FA294676040BR  0000013102014325566-6                000021
100004984200000000000000000000000000000000FA294676053BR  0000013102014325566-7                000022
100004984500000000000000000000000000000000FA294676084BR  0000013102014326119-2                000023
100004985000000000000000000000000000000000FA294676115BR  0000013102014326121-2                000024
9000023                                                                                       000025
