0RETORNONOTIFICAÇÃO ELETRONICA        20092010OCOR                                            000001
100002255700000000000000000000000000000000RL793185309BR  0000014092010102383-5                000002
100002255800000000000000000000000000000000RL793185312BR  0000014092010102383-7                000003
100002362600000000000000000000000000000000RL793180814BR  0000014092010108209-7                000004
100002362900000000000000000000000000000000RL793180828BR  0000014092010108209-11               000005
100002363100382941250820100038294125082010RL793144542BR  0000006092010108346-1                000006
100002376000319521200820100031952120082010RL793110380BR  0000003092010109213-1                000007
100002376300319524200820100031952420082010RL793110416BR  0000210092010109213-12               000008
100002376400319525200820100031952520082010RL793110420BR  0000003092010109213-13               000009
100002376500319526200820100031952620082010RL793110433BR  0000003092010109213-14               000010
100002379000379897230820100037989723082010RL793114130BR  0000002092010109345-1                000011
100002379100379898230820100037989823082010RL793114143BR  0000002092010109345-2                000012
100002365800381320240820100038132024082010RL793128332BR  0000002092010109468-1                000013
100002367200381321240820100038132124082010RL793128346BR  0000003092010109468-2                000014
100002368700381322240820100038132224082010RL793128350BR  0000008092010109468-3                000015
100002368800381323240820100038132324082010RL793128363BR  0000003092010109468-4                000016
100002370600381324240820100038132424082010RL793128377BR  0000003092010109468-5                000017
100002372800381325240820100038132524082010RL793128385BR  0000001092010109468-6                000018
100002373300381326240820100038132624082010RL793128394BR  0000001092010109468-7                000019
100002374700381327240820100038132724082010RL793128403BR  0000001092010109468-8                000020
100002380000381328240820100038132824082010RL793128417BR  0000003092010109468-9                000021
100002380800381329240820100038132924082010RL793128425BR  0000003092010109468-10               000022
100002380900381330240820100038133024082010RL793128434BR  0000001092010109468-11               000023
100002384300381331240820100038133124082010RL793128448BR  0000002092010109468-12               000024
100002386300383884300820100038388430082010RL793153915BR  0000009092010109672-5                000025
100002388700385375300820100038537530082010RL793168813BR  0000008092010109867-8                000026
100002388800385376300820100038537630082010RL793168827BR  0001208092010109867-9                000027
100002390400385377300820100038537730082010RL793168835BR  0000014092010109867-10               000028
100002400800389653100920100038965310092010RL793212239BR  0000017092010110611-4                000029
100002401000389655100920100038965510092010RL793212256BR  0000017092010110611-6                000030
100002401100389656100920100038965610092010RL793212260BR  0000017092010110611-7                000031
100002401200389657100920100038965710092010RL793212273BR  0000017092010110611-8                000032
100002401300389658100920100038965810092010RL793212287BR  0000017092010110611-11               000033
100002403700389660100920100038966010092010RL793212300BR  0000117092010110611-13               000034
100002403800389661100920100038966110092010RL793212313BR  0000117092010110611-14               000035
100002403900389662100920100038966210092010RL793212327BR  0000117092010110611-15               000036
100002404000389663100920100038966310092010RL793212335BR  0000017092010110611-16               000037
100002404200389665100920100038966510092010RL793212358BR  0000017092010110612-1                000038
100002404400389667100920100038966710092010RL793212375BR  0000017092010110612-5                000039
100002404600389669100920100038966910092010RL793212392BR  0000017092010110612-7                000040
100002404700389670100920100038967010092010RL793212401BR  0000017092010110612-8                000041
9000040                                                                                       000042
