0RETORNONOTIFICAÇÃO ELETRONICA        03102013OCOR                                            000001
100004413701037852230920130103785223092013FA159360077BR  0000001102013258055-4                000002
100004419001037870230920130103787023092013FA159360253BR  0000001102013258386-1                000003
100004418901037871230920130103787123092013FA159360267BR  0000002102013258386-2                000004
100004409801039775240920130103977524092013FA159379229BR  0000002102013258721-6                000005
100004427201041128260920130104112826092013FA159392429BR  0000802102013259163-44               000006
9000005                                                                                       000007
