0RETORNONOTIFICAÇÃO ELETRONICA        11072013OCOR                                            000001
100004234100972062110620130097206211062013FA136086845BR  0000008072013240432-6                000002
100004253100974979190620130097497919062013FA136107275BR  0000808072013242047-4                000003
100004259000974996190620130097499619062013FA136107443BR  0000008072013242052-6                000004
100004259100974997190620130097499719062013FA136107457BR  0000008072013242052-7                000005
100004265700981363270620130098136327062013FA136154465BR  0000710072013243350-1                000006
100004264300981369270620130098136927062013FA136154528BR  0000008072013243350-11               000007
100004267900981372270620130098137227062013FA136154559BR  0000008072013243351-4                000008
100004270000981373270620130098137327062013FA136154562BR  0000008072013243352-1                000009
100004270100981376270620130098137627062013FA136154593BR  0000008072013243352-4                000010
9000009                                                                                       000011
