0RETORNONOTIFICAÇÃO ELETRONICA        06042011OCOR                                            000001
100002683400498240250320110049824025032011RL955673235BR  0000006042011125432-1                000002
100002683900498245250320110049824525032011RL955673289BR  0000006042011125619-2                000003
100002693700502008300320110050200830032011RL963820386BR  0000006042011126006-6                000004
100002693800502009300320110050200930032011RL963820390BR  0000006042011126006-7                000005
9000004                                                                                       000006
