0RETORNONOTIFICAÇÃO ELETRONICA        13082012OCOR                                            000001
100003663000800058300720120080005830072012FR971827443BR  0000010082012185353-48               000002
100003663800801910310720120080191031072012FR971845901BR  0000010082012185787-4                000003
100003666800801926310720120080192631072012FR971846062BR  0000010082012185787-22               000004
100003667900801937310720120080193731072012FR971846178BR  0000010082012185787-35               000005
100003668700801943310720120080194331072012FR971846235BR  0000010082012185794-6                000006
100003670100801953310720120080195331072012FR971846337BR  0000010082012185796-3                000007
100003670200801954310720120080195431072012FR971846345BR  0000010082012185796-4                000008
100003674400801973310720120080197331072012FR971846535BR  0000010082012185804-4                000009
100003678200802806010820120080280601082012FR971854744BR  0000010082012186101-1                000010
100003678400802807010820120080280701082012FR971854758BR  0000010082012186101-3                000011
100003679800000000000000000000000000000000FR971854801BR  0000010082012186101-76               000012
100003679800000000000000000000000000000000FR971854815BR  0000010082012186101-100              000013
100003679800000000000000000000000000000000FR971854829BR  0000010082012186101-124              000014
100003679800000000000000000000000000000000FR971854832BR  0000010082012186101-148              000015
100003680300802823010820120080282301082012FR971854917BR  0000010082012186101-315              000016
100003680600802826010820120080282601082012FR971854948BR  0000010082012186101-369              000017
100003680900802829010820120080282901082012FR971854979BR  0000010082012186101-421              000018
100003681000802830010820120080283001082012FR971854982BR  0000010082012186101-425              000019
9000018                                                                                       000020
