0RETORNONOTIFICAÇÃO ELETRONICA        22042014OCOR                                            000001
100004681201176488240320140117648824032014FA246186179BR  0000008042014291473-4                000002
100004683801176493240320140117649324032014FA246186222BR  0000008042014291502-3                000003
100004687101177953250320140117795325032014FA270806902BR  0000010042014291677-4                000004
100004687301177955250320140117795525032014FA270806920BR  0000014042014291677-6                000005
100004687401177956250320140117795625032014FA270806933BR  0000008042014291677-7                000006
100004695100000000000000000000000000000000FA270894283BR  0000017042014293035-1                000007
100004695200000000000000000000000000000000FA270894297BR  0000014042014293035-2                000008
100004695300000000000000000000000000000000FA270894306BR  0000014042014293035-3                000009
100004696100000000000000000000000000000000FA270894310BR  0000014042014293067-1                000010
100004696200000000000000000000000000000000FA270894323BR  0000010042014293067-2                000011
100004697400000000000000000000000000000000FA270894337BR  0000011042014293722-1                000012
100004697500000000000000000000000000000000FA270894345BR  0000010042014293722-2                000013
100004697600000000000000000000000000000000FA270894354BR  0000011042014293722-3                000014
100004697700000000000000000000000000000000FA270894368BR  0000009042014293722-5                000015
100004697800000000000000000000000000000000FA270894371BR  0000009042014293722-6                000016
100004689200000000000000000000000000000000FA270894385BR  0000010042014293727-1                000017
100004691100000000000000000000000000000000FA270894399BR  0000014042014293727-2                000018
100004693300000000000000000000000000000000FA270894408BR  0000010042014293727-3                000019
100004695400000000000000000000000000000000FA270894411BR  0000014042014293727-4                000020
100004699900000000000000000000000000000000FA270894425BR  0000017042014293727-5                000021
100004700000000000000000000000000000000000FA270894439BR  0000010042014293727-6                000022
100004701700000000000000000000000000000000FA270894442BR  0000014042014293758-1                000023
100004701800000000000000000000000000000000FA270894456BR  0000011042014293758-2                000024
100004701900000000000000000000000000000000FA270894460BR  0000014042014293758-3                000025
100004702000000000000000000000000000000000FA270894473BR  0000014042014293758-4                000026
100004702100000000000000000000000000000000FA270894487BR  0000010042014293758-5                000027
100004703700000000000000000000000000000000FA270902081BR  0000017042014294068-1                000028
100004703800000000000000000000000000000000FA270902095BR  0000014042014294068-2                000029
100004703900000000000000000000000000000000FA270902104BR  0000010042014294068-3                000030
100004704000000000000000000000000000000000FA270902118BR  0000014042014294068-4                000031
100004704100000000000000000000000000000000FA270902121BR  0000014042014294068-5                000032
100004706801193842100420140119384210042014FA270943497BR  0000015042014294723-1                000033
100004707101193845100420140119384510042014FA270943523BR  0000017042014294723-7                000034
100004707201193846100420140119384610042014FA270943537BR  0000015042014294723-8                000035
100004707401193848100420140119384810042014FA270943554BR  0000017042014294723-10               000036
100004709001193849100420140119384910042014FA270943568BR  0000017042014294880-1                000037
100004709201193851100420140119385110042014FA270943585BR  0000816042014294880-3                000038
100004709301193852100420140119385210042014FA270943599BR  0000017042014294880-4                000039
100004709601193855100420140119385510042014FA270943625BR  0000016042014294880-8                000040
100004709801193857100420140119385710042014FA270943642BR  0000017042014294880-10               000041
100004709901193858100420140119385810042014FA270943656BR  0000017042014294880-11               000042
100004704401197135140420140119713514042014FA270973587BR  0000817042014295349-9                000043
100004710801197142140420140119714214042014FA270973658BR  0000117042014295349-17               000044
9000043                                                                                       000045
