0RETORNONOTIFICAÇÃO ELETRONICA        09022011OCOR                                            000001
100002577000455630210120110045563021012011RL893627551BR  0000008022011120284-14               000002
100002591100455647210120110045564721012011RL893627724BR  0000008022011120286-4                000003
100002596100464343270120110046434327012011RL893711135BR  0000008022011120684-1                000004
100002598100464344270120110046434427012011RL893711149BR  0000008022011120699-1                000005
100002598200464345270120110046434527012011RL893711152BR  0000008022011120699-2                000006
100002598300464346270120110046434627012011RL893711166BR  0000008022011120699-3                000007
100002598400464347270120110046434727012011RL893711170BR  0000008022011120699-4                000008
100002598500464348270120110046434827012011RL893711183BR  0000008022011120699-5                000009
100002598600464349270120110046434927012011RL893711197BR  0000008022011120699-6                000010
100002594100464351270120110046435127012011RL893711210BR  0000008022011120700-1                000011
100002594600464352270120110046435227012011RL893711223BR  0000008022011120700-2                000012
100002594700464353270120110046435327012011RL893711237BR  0000008022011120700-3                000013
100002599600464354270120110046435427012011RL893711245BR  0000008022011120700-4                000014
100002599700464355270120110046435527012011RL893711254BR  0000008022011120700-5                000015
100002599800464356270120110046435627012011RL893711268BR  0000008022011120700-6                000016
100002599900464357270120110046435727012011RL893711271BR  0000008022011120700-7                000017
100002600000466641310120110046664131012011RL893733728BR  0000008022011120955-1                000018
100002600100466642310120110046664231012011RL893733731BR  0000008022011120955-2                000019
100002600200466643310120110046664331012011RL893733745BR  0000008022011120955-3                000020
100002600300466644310120110046664431012011RL893733759BR  0000008022011120955-4                000021
100002600400466645310120110046664531012011RL893733762BR  0000008022011120955-5                000022
100002600500466646310120110046664631012011RL893733776BR  0000008022011120955-6                000023
100002600700466648310120110046664831012011RL893733793BR  0000008022011120955-8                000024
100002604300466649310120110046664931012011RL893733802BR  0000008022011120957-1                000025
100002604400466650310120110046665031012011RL893733816BR  0000008022011120957-2                000026
100002604500466651310120110046665131012011RL893733820BR  0000008022011120957-6                000027
100002604700468466010220110046846601022011RL893747801BR  0000008022011121241-2                000028
100002607500468470010220110046847001022011RL893747846BR  0000508022011121241-6                000029
100002607600468471010220110046847101022011RL893747850BR  0000208022011121241-11               000030
100002607700468472010220110046847201022011RL893747863BR  0000008022011121241-16               000031
100002607800468473010220110046847301022011RL893747877BR  0000008022011121244-1                000032
100002608000468475010220110046847501022011RL893747894BR  0000008022011121244-3                000033
100002608200468477010220110046847701022011RL893747917BR  0000808022011121244-5                000034
100002611600469627020220110046962702022011RL893758968BR  0000008022011121401-4                000035
100002611900469630020220110046963002022011RL893758999BR  0002308022011121401-10               000036
100002612000469631020220110046963102022011RL893759005BR  0000008022011121401-11               000037
9000036                                                                                       000038
