0RETORNONOTIFICAÇÃO ELETRONICA        05042012OCOR                                            000001
100003396000737524270320120073752427032012FR851796421BR  0000004042012168364-1                000002
100003446900737530270320120073753027032012FR851796483BR  0000004042012168364-8                000003
100003447500737532270320120073753227032012FR851796506BR  0000004042012168365-1                000004
100003449000737533270320120073753327032012FR851796510BR  0000004042012168365-2                000005
100003449600737539270320120073753927032012FR851796571BR  0000004042012168365-9                000006
100003450400739662280320120073966228032012FR851817807BR  0000004042012168540-1                000007
100003456000742240300320120074224030032012FR851843563BR  0000004042012168895-1                000008
100003456600742246300320120074224630032012FR851843625BR  0000004042012168895-7                000009
100003457800742248300320120074224830032012FR851843648BR  0000004042012168895-9                000010
100003457900742249300320120074224930032012FR851843651BR  0000004042012168895-10               000011
9000010                                                                                       000012
