0RETORNONOTIFICAÇÃO ELETRONICA        10102011OCOR                                            000001
100003003100624625140920110062462514092011RM948803859BR  0000007102011144338-2                000002
100003091600635753300920110063575330092011RM948905742BR  0000007102011146561-1                000003
100003091800635755300920110063575530092011RM948905756BR  0000407102011146561-6                000004
100003091900635756300920110063575630092011RM948905760BR  0000007102011146561-7                000005
9000004                                                                                       000006
