0RETORNONOTIFICAÇÃO ELETRONICA        15062011OCOR                                            000001
100002783500000000000000000000000000000000JL014246295BR  0000814062011132077-3                000002
100002785200000000000000000000000000000000JL014246304BR  0000014062011132077-4                000003
100002791100000000000000000000000000000000JL014261709BR  0000014062011132384-72               000004
100002791600000000000000000000000000000000JL014261757BR  0000014062011132384-100              000005
100002791900000000000000000000000000000000JL014261788BR  0000014062011132384-113              000006
100002792200000000000000000000000000000000JL014261814BR  0000014062011132384-125              000007
100002792700000000000000000000000000000000JL014261862BR  0000014062011132384-130              000008
100002798000551811060620110055181106062011JL014299267BR  0000014062011132961-3                000009
100002783200551813060620110055181306062011JL014299284BR  0000014062011132965-2                000010
100002783600551814060620110055181406062011JL014299298BR  0000014062011132965-3                000011
100002784200551815060620110055181506062011JL014299307BR  0000014062011132965-4                000012
100002802700551827060620110055182706062011JL014299426BR  0000014062011132965-16               000013
9000012                                                                                       000014
