0RETORNONOTIFICAÇÃO ELETRONICA        13082013OCOR                                            000001
100004274601007464300720130100746430072013FA136420020BR  0000012082013248876-1                000002
100004274701007465300720130100746530072013FA136420033BR  0000009082013248876-3                000003
100004276201007468300720130100746830072013FA136420064BR  0000009082013248886-1                000004
100004276001007471300720130100747130072013FA136420095BR  0000009082013248886-5                000005
100004281701007490310720130100749031072013FA136420197BR  0000009082013248951-1                000006
100004278601007498310720130100749831072013FA136420271BR  0000009082013248951-9                000007
100004282101007499310720130100749931072013FA136420285BR  0000012082013248952-1                000008
100004281801007503310720130100750331072013FA136420325BR  0000009082013248952-6                000009
100004284801007504310720130100750431072013FA136420339BR  0000012082013248952-7                000010
100004285201007507310720130100750731072013FA136420360BR  0000009082013249061-3                000011
100004285901007509310720130100750931072013FA136420387BR  0000012082013249061-5                000012
100004285401007510310720130100751031072013FA136420395BR  0002312082013249061-6                000013
100004285501007512310720130100751231072013FA136420413BR  0000109082013249061-8                000014
100004286101007519310720130100751931072013FA136420489BR  0000009082013249062-4                000015
100004290001007520310720130100752031072013FA136420492BR  0000009082013249063-1                000016
100004293701008193010820130100819301082013FA136427028BR  0000012082013249161-4                000017
100004296001008198010820130100819801082013FA136427076BR  0000012082013249164-3                000018
100004295401008199010820130100819901082013FA136427080BR  0000012082013249164-4                000019
100004295601008200010820130100820001082013FA136427093BR  0000012082013249164-5                000020
100004295801008201010820130100820101082013FA136427102BR  0000012082013249164-6                000021
100004295701008202010820130100820201082013FA136427116BR  0000012082013249164-7                000022
100004295501008203010820130100820301082013FA136427120BR  0000012082013249164-8                000023
100004297401008205010820130100820501082013FA136427147BR  0000009082013249170-2                000024
100004297301008207010820130100820701082013FA136427164BR  0000012082013249170-4                000025
100004303001008209010820130100820901082013FA136427181BR  0000012082013249172-1                000026
100004303201008210010820130100821001082013FA136427195BR  0000012082013249172-2                000027
100004299201008212010820130100821201082013FA136427218BR  0000012082013249172-4                000028
100004302501008213010820130100821301082013FA136427221BR  0000012082013249172-5                000029
100004302901008214010820130100821401082013FA136427235BR  0000012082013249172-6                000030
100004302701008216010820130100821601082013FA136427252BR  0000012082013249172-10               000031
100004302601008217010820130100821701082013FA136427266BR  0000009082013249172-12               000032
100004302001008225010820130100822501082013FA136427345BR  0000712082013249172-27               000033
100004301801008227010820130100822701082013FA136427368BR  0000212082013249172-29               000034
100004301401008231010820130100823101082013FA136427408BR  0000012082013249172-41               000035
100004301201008233010820130100823301082013FA136427425BR  0000712082013249172-43               000036
100004300201008237010820130100823701082013FA136427460BR  0000012082013249205-1                000037
100004303501008240010820130100824001082013FA136427495BR  0000009082013249205-4                000038
100004307301008246010820130100824601082013FA136427558BR  0000012082013249219-2                000039
100004307101008247010820130100824701082013FA136427561BR  0000009082013249219-3                000040
100004306801008249010820130100824901082013FA136427589BR  0000012082013249219-5                000041
100004309401008251010820130100825101082013FA136427601BR  0000012082013249219-7                000042
100004309301008252010820130100825201082013FA136427615BR  0000012082013249219-9                000043
100004309201008253010820130100825301082013FA136427629BR  0000012082013249219-13               000044
100004304901008255010820130100825501082013FA136427646BR  0000009082013249221-2                000045
100004305301008257010820130100825701082013FA136427663BR  0000012082013249221-5                000046
100004305001008260010820130100826001082013FA136427694BR  0000012082013249221-8                000047
100004305101008261010820130100826101082013FA136427703BR  0000012082013249221-9                000048
100004309501008263010820130100826301082013FA136427725BR  0000012082013249283-13               000049
100004309601008264010820130100826401082013FA136427734BR  0000009082013249283-14               000050
100004312601008267010820130100826701082013FA136427765BR  0000012082013249287-3                000051
100004314101008270010820130100827001082013FA136427796BR  0000012082013249290-3                000052
100004311801008271010820130100827101082013FA136427805BR  0000012082013249290-4                000053
100004316301008280010820130100828001082013FA136427898BR  0000012082013249293-3                000054
100004322401008289010820130100828901082013FA136427986BR  0000009082013249295-45               000055
100004322301008290010820130100829001082013FA136427990BR  0000012082013249295-46               000056
100004322201008291010820130100829101082013FA136428006BR  0000012082013249295-56               000057
100004321801008295010820130100829501082013FA136428045BR  0000012082013249295-127              000058
100004318601008300010820130100830001082013FA136428099BR  0000009082013249313-1                000059
100004324401008301010820130100830101082013FA136428108BR  0000012082013249313-2                000060
100004323101008302010820130100830201082013FA136428111BR  0000009082013249313-3                000061
100004322801008303010820130100830301082013FA136428125BR  0000012082013249313-4                000062
100004324201008306010820130100830601082013FA136428156BR  0000012082013249313-7                000063
100004324601008308010820130100830801082013FA136428173BR  0000012082013249313-9                000064
100004325801008309010820130100830901082013FA136428187BR  0000012082013249313-12               000065
100004325301008314010820130100831401082013FA136428235BR  0000009082013249313-35               000066
100004325101008316010820130100831601082013FA136428258BR  0000012082013249313-39               000067
100004324801008319010820130100831901082013FA136428289BR  0000012082013249313-52               000068
100004322901008323010820130100832301082013FA136428329BR  0000012082013249313-60               000069
100004320201008324010820130100832401082013FA136428332BR  0000012082013249313-61               000070
100004324501008325010820130100832501082013FA136428346BR  0000009082013249313-62               000071
100004327901011950060820130101195006082013FA136463833BR  0000012082013249547-3                000072
100004328301011953060820130101195306082013FA136463864BR  0000012082013249547-6                000073
100004337001011961060820130101196106082013FA136463949BR  0000012082013249992-7                000074
9000073                                                                                       000075
