0RETORNONOTIFICAÇÃO ELETRONICA        08052013OCOR                                            000001
100003997500900138050220130090013805022013FA104818019BR  0000030042013219603-2                000002
100004087900926673010420130092667301042013FA104896926BR  0000011042013228821-1                000003
100004072300926679010420130092667901042013FA104896988BR  0000009042013228824-1                000004
100004091000926696010420130092669601042013FA104897158BR  0000009042013228862-39               000005
100004093600926703010420130092670301042013FA104897229BR  0000009042013228997-1                000006
100004086100926708010420130092670801042013FA104897277BR  0000011042013229000-1                000007
100004086400926711010420130092671101042013FA104897303BR  0000009042013229000-4                000008
100004095600926716010420130092671601042013FA104897351BR  0000011042013229000-11               000009
100004084400926723010420130092672301042013FA104897422BR  0000011042013229000-18               000010
100004100400926734010420130092673401042013FA104897538BR  0000009042013229013-10               000011
100004110600934354080420130093435408042013FA104956426BR  0000011042013229984-16               000012
100004119200934372080420130093437208042013FA104956602BR  0000006052013230109-51               000013
100004132200948034300420130094803430042013FA105079359BR  0000007052013233982-2                000014
100004135400948038300420130094803830042013FA105079393BR  0000007052013233983-4                000015
100004135700948039300420130094803930042013FA105079402BR  0000007052013233983-5                000016
100004135100948041300420130094804130042013FA105079420BR  0000006052013233983-9                000017
100004136700948045300420130094804530042013FA105079464BR  0000007052013233983-13               000018
100004138500948046300420130094804630042013FA105079478BR  0000007052013233986-1                000019
100004138800948050300420130094805030042013FA105079518BR  0000006052013233986-5                000020
100004138900948051300420130094805130042013FA105079521BR  0000007052013233986-6                000021
100004141400948053300420130094805330042013FA105079549BR  0000007052013233988-1                000022
100004141500948055300420130094805530042013FA105079566BR  0000006052013233988-3                000023
100004144600948060300420130094806030042013FA105079610BR  0000007052013233990-4                000024
100004144300948061300420130094806130042013FA105079623BR  0000007052013233990-5                000025
100004146300948062300420130094806230042013FA105079637BR  0000007052013233990-6                000026
100004146400948063300420130094806330042013FA105079645BR  0000007052013233990-9                000027
100004144000948064300420130094806430042013FA105079654BR  0000007052013233990-12               000028
100004143600948069300420130094806930042013FA105079708BR  0000007052013233990-18               000029
100004144500948075300420130094807530042013FA105079760BR  0000007052013233990-24               000030
100004143900948077300420130094807730042013FA105079787BR  0000007052013233990-26               000031
100004146700948078300420130094807830042013FA105079795BR  0000007052013233991-1                000032
100004146600948080300420130094808030042013FA105079813BR  0000007052013233991-3                000033
100004148100948082300420130094808230042013FA105079835BR  0000007052013233993-2                000034
100004154100948085300420130094808530042013FA105079861BR  0000006052013233994-1                000035
100004149400948086300420130094808630042013FA105079875BR  0000007052013233994-2                000036
100004150000948087300420130094808730042013FA105079889BR  0000007052013233994-3                000037
100004149900948088300420130094808830042013FA105079892BR  0000007052013233994-4                000038
100004149800948089300420130094808930042013FA105079901BR  0000007052013233994-5                000039
100004150400948090300420130094809030042013FA105079915BR  0000007052013233994-6                000040
100004150700948092300420130094809230042013FA105079932BR  0000007052013233994-8                000041
100004150300948095300420130094809530042013FA105079963BR  0000007052013233994-11               000042
100004152500948098300420130094809830042013FA105079994BR  0000006052013233994-14               000043
100004159600948099300420130094809930042013FA105080003BR  0000007052013233995-1                000044
100004161800948100300420130094810030042013FA105080017BR  0000006052013233997-1                000045
100004160200948103300420130094810330042013FA105080048BR  0000007052013233997-4                000046
100004161500948105300420130094810530042013FA105080065BR  0000007052013233997-6                000047
100004163400948106300420130094810630042013FA105080079BR  0000007052013233999-1                000048
100004163100948107300420130094810730042013FA105080082BR  0000007052013233999-2                000049
100004164600948108300420130094810830042013FA105080096BR  0000007052013233999-3                000050
100004164100948109300420130094810930042013FA105080105BR  0000007052013233999-4                000051
100004163500948110300420130094811030042013FA105080119BR  0000007052013233999-5                000052
100004168500948114300420130094811430042013FA105080153BR  0000007052013234000-1                000053
100004168900948117300420130094811730042013FA105080184BR  0000007052013234000-9                000054
100004168800948118300420130094811830042013FA105080198BR  0000007052013234000-11               000055
100004165100948121300420130094812130042013FA105080224BR  0000007052013234000-15               000056
100004165200948122300420130094812230042013FA105080238BR  0000007052013234000-16               000057
100004165500948127300420130094812730042013FA105080286BR  0000007052013234000-22               000058
100004169300948129300420130094812930042013FA105080309BR  0000006052013234002-2                000059
100004169800948130300420130094813030042013FA105080312BR  0000007052013234002-3                000060
100004169500948131300420130094813130042013FA105080326BR  0000007052013234002-4                000061
100004169600948132300420130094813230042013FA105080330BR  0000007052013234002-8                000062
9000061                                                                                       000063
