0RETORNONOTIFICAÇÃO ELETRONICA        15102012OCOR                                            000001
100003764700827868130920120082786813092012FA012398341BR  0000001102012193599-16               000002
100003764800827869130920120082786913092012FA012398355BR  0000225092012193599-17               000003
100003767700827883130920120082788313092012FA012398491BR  0001225092012193599-38               000004
100003768200827888130920120082788813092012FA012398545BR  0000025092012193599-47               000005
100003768600827892130920120082789213092012FA012398580BR  0000025092012193599-66               000006
100003768800827894130920120082789413092012FA012398602BR  0000025092012193599-68               000007
100003769500828070130920120082807013092012FA012400368BR  0000025092012193619-7                000008
100003770000828071130920120082807113092012FA012400371BR  0000001102012193619-8                000009
100003766900833322260920120083332226092012FA012449922BR  0000001102012195796-3                000010
100003772400833323260920120083332326092012FA012449936BR  0000001102012195796-4                000011
100003780500833336260920120083333626092012FA012450069BR  0000001102012195798-10               000012
100003783000834271280920120083427128092012FA012458575BR  0000011102012196317-1                000013
100003783200834273280920120083427328092012FA012458592BR  0000011102012196317-3                000014
100003783300834274280920120083427428092012FA012458601BR  0000011102012196317-4                000015
100003783400834275280920120083427528092012FA012458615BR  0000011102012196317-5                000016
100003786600834281280920120083428128092012FA012458677BR  0000011102012196322-3                000017
100003786700834282280920120083428228092012FA012458685BR  0000011102012196322-4                000018
100003787200834287280920120083428728092012FA012458734BR  0000011102012196322-9                000019
100003787300834288280920120083428828092012FA012458748BR  0000011102012196322-10               000020
100003789600834965011020120083496501102012FA012464227BR  0000011102012196609-20               000021
100003792900834977011020120083497701102012FA012464346BR  0001210102012196637-6                000022
100003794300834982011020120083498201102012FA012464394BR  0000011102012196641-3                000023
100003796700838356021020120083835602102012FA012498061BR  0001210102012196756-4                000024
100003796900838358021020120083835802102012FA012498089BR  0000011102012196756-6                000025
100003799200838359021020120083835902102012FA012498092BR  0000011102012196756-7                000026
100003799300838360021020120083836002102012FA012498101BR  0000011102012196756-10               000027
100003799800838365021020120083836502102012FA012498150BR  0000011102012196764-4                000028
100003799900838366021020120083836602102012FA012498163BR  0000011102012196764-9                000029
100003804000839677081020120083967708102012FA012510173BR  0000011102012197387-9                000030
100003806000839684081020120083968408102012FA012510244BR  0000111102012197387-16               000031
9000030                                                                                       000032
