0RETORNONOTIFICAÇÃO ELETRONICA        08112013OCOR                                            000001
100004458401049351041020130104935104102013FA159471585BR  0000004112013261107-14               000002
100004484401060114251020130106011425102013FA159571694BR  0000001112013264120-1                000003
100004484201060115251020130106011525102013FA159571703BR  0000001112013264120-2                000004
100004484101060116251020130106011625102013FA159571717BR  0000131102013264120-3                000005
100004484301060117251020130106011725102013FA159571725BR  0000031102013264120-4                000006
100004484001060118251020130106011825102013FA159571734BR  0000004112013264120-5                000007
100004480501060119251020130106011925102013FA159571748BR  0000031102013264120-6                000008
100004484501060120251020130106012025102013FA159571751BR  0000031102013264120-7                000009
100004485701057296211020130105729621102013FA159545527BR  0000001112013264403-1                000010
100004490201058740231020130105874023102013FA159559115BR  0000031102013264830-1                000011
100004490401058741231020130105874123102013FA159559129BR  0000001112013264830-2                000012
100004490301058742231020130105874223102013FA159559132BR  0000004112013264830-3                000013
100004490101058743231020130105874323102013FA159559146BR  0000005112013264830-4                000014
100004492101060936251020130106093625102013FA159579905BR  0000004112013265317-1                000015
100004492001060937251020130106093725102013FA159579914BR  0000001112013265317-2                000016
100004491801060938251020130106093825102013FA159579928BR  0000030102013265317-3                000017
100004491901060939251020130106093925102013FA159579931BR  0000001112013265317-7                000018
100004492201060940251020130106094025102013FA159579945BR  0000001112013265317-17               000019
100004493701060941251020130106094125102013FA159579959BR  0000005112013265321-1                000020
100004493501060942251020130106094225102013FA159579962BR  0000001112013265321-2                000021
100004493801060943251020130106094325102013FA159579976BR  0000004112013265321-3                000022
100004493601060944251020130106094425102013FA159579980BR  0000001112013265321-4                000023
100004493401060945251020130106094525102013FA159579993BR  0000004112013265321-5                000024
100004495401063917291020130106391729102013FA159608363BR  0000004112013265634-2                000025
100004491101063918291020130106391829102013FA159608377BR  0000004112013265634-3                000026
100004494901063920291020130106392029102013FA159608394BR  0000004112013265634-5                000027
100004494801063923291020130106392329102013FA159608425BR  0000005112013265634-8                000028
100004494701063924291020130106392429102013FA159608434BR  0000004112013265634-9                000029
100004487401063925291020130106392529102013FA159608448BR  0000006112013265634-13               000030
100004487701063926291020130106392629102013FA159608451BR  0000006112013265634-14               000031
100004487601063927291020130106392729102013FA159608465BR  0000006112013265634-15               000032
100004487501063928291020130106392829102013FA159608479BR  0000006112013265634-16               000033
100004495501064639291020130106463929102013FA159615585BR  0000006112013265902-2                000034
100004495801064640291020130106464029102013FA159615599BR  0000004112013265902-3                000035
100004495601064642291020130106464229102013FA159615611BR  0000006112013265902-11               000036
100004497601065964311020130106596431102013FA159628615BR  0000006112013266185-2                000037
100004497501065966311020130106596631102013FA159628632BR  0000005112013266185-4                000038
100004497201065967311020130106596731102013FA159628646BR  0000007112013266185-5                000039
100004497101065969311020130106596931102013FA159628663BR  0000006112013266185-7                000040
100004499101066289311020130106628931102013FA159631866BR  0000007112013266428-1                000041
9000040                                                                                       000042
