0RETORNONOTIFICAÇÃO ELETRONICA        09102013OCOR                                            000001
100004427901041121260920130104112126092013FA159392358BR  0000008102013259163-32               000002
100004427501041125260920130104112526092013FA159392392BR  0000008102013259163-37               000003
100004433301042933270920130104293327092013FA159397465BR  0000008102013259606-5                000004
100004433101042934270920130104293427092013FA159397474BR  0000008102013259606-6                000005
100004435901043129270920130104312927092013FA159412199BR  0000008102013259845-4                000006
100004436101043130270920130104313027092013FA159412208BR  0000008102013259845-5                000007
100004435701043134270920130104313427092013FA159412242BR  0000008102013259845-9                000008
100004442301045120011020130104512001102013FA159430419BR  0000008102013260411-2                000009
100004442001045121011020130104512101102013FA159430422BR  0000008102013260411-3                000010
100004444501045129011020130104512901102013FA159430507BR  0000008102013260411-11               000011
100004444901046175021020130104617502102013FA159440597BR  0000008102013260638-3                000012
100004444701046177021020130104617702102013FA159440610BR  0000008102013260638-5                000013
100004447301048752031020130104875203102013FA159465421BR  0000008102013260924-9                000014
100004446901048755031020130104875503102013FA159465452BR  0000008102013260924-14               000015
9000014                                                                                       000016
