0RETORNONOTIFICAÇÃO ELETRONICA        03092013OCOR                                            000001
100004349701015230140820130101523014082013FA136494739BR  0000029082013251535-16               000002
100004362101018374220820130101837422082013FA159172122BR  0000129082013253012-2                000003
100004364101018380220820130101838022082013FA159172184BR  0000030082013253027-4                000004
100004364301018381220820130101838122082013FA159172198BR  0000028082013253027-5                000005
100004364001018382220820130101838222082013FA159172207BR  0000030082013253027-6                000006
100004364701018386220820130101838622082013FA159172241BR  0000129082013253027-10               000007
100004364801018387220820130101838722082013FA159172255BR  0000002092013253027-11               000008
100004367701018388220820130101838822082013FA159172269BR  0000029082013253034-1                000009
100004366201018389220820130101838922082013FA159172272BR  0000529082013253034-2                000010
100004366301018390220820130101839022082013FA159172286BR  0000030082013253034-3                000011
100004366401018392220820130101839222082013FA159172309BR  0000030082013253034-8                000012
100004368101018849230820130101884923082013FA159176875BR  0000002092013253296-6                000013
9000012                                                                                       000014
