0RETORNONOTIFICAÇÃO ELETRONICA        03122013OCOR                                            000001
100004460601049433041020130104943304102013FA188113577BR  0000002122013261107-171              000002
100004516901077847141120130107784714112013FA188096176BR  0000002122013268645-2                000003
100004523001077866141120130107786614112013FA188096366BR  0000029112013268647-47               000004
100004521101077885141120130107788514112013FA188096556BR  0000029112013268647-94               000005
100004523901079643201120130107964320112013FA188113360BR  0000029112013268956-1                000006
100004524001079644201120130107964420112013FA188113373BR  0000029112013268956-2                000007
100004525001079645201120130107964520112013FA188113387BR  0000029112013269417-1                000008
100004527201079646201120130107964620112013FA188113395BR  0002302122013269417-2                000009
100004525101079647201120130107964720112013FA188113400BR  0000028112013269417-5                000010
100004525201079648201120130107964820112013FA188113413BR  0000029112013269417-6                000011
100004527301079649201120130107964920112013FA188113427BR  0000028112013269419-1                000012
100004532101079997211120130107999721112013FA188115621BR  0001202122013269862-1                000013
100004532201079998211120130107999821112013FA188115635BR  0000029112013269862-2                000014
100004531701079999211120130107999921112013FA188115649BR  0000029112013269862-3                000015
100004532401080000211120130108000021112013FA188115652BR  0000029112013269862-4                000016
100004532001080001211120130108000121112013FA188115666BR  0000029112013269862-5                000017
100004532301080002211120130108000221112013FA188115670BR  0000028112013269862-6                000018
100004531801080003211120130108000321112013FA188115683BR  0000029112013269862-7                000019
100004445901080005211120130108000521112013FA188115706BR  0000002122013269863-1                000020
100004500701080006211120130108000621112013FA188115710BR  0000028112013269863-2                000021
100004504301080007211120130108000721112013FA188115723BR  0000029112013269863-3                000022
100004534401082290261120130108229026112013FA188137468BR  0000002122013270327-1                000023
100004534201082291261120130108229126112013FA188137471BR  0000002122013270327-2                000024
100004534301082292261120130108229226112013FA188137485BR  0000002122013270327-3                000025
100004534501082293261120130108229326112013FA188137499BR  0000029112013270327-4                000026
100004535801082295261120130108229526112013FA188137511BR  0000002122013270328-2                000027
100004537001082297261120130108229726112013FA188137539BR  0000002122013270328-5                000028
100004537101082298261120130108229826112013FA188137542BR  0000002122013270328-6                000029
100004536001082299261120130108229926112013FA188137556BR  0002302122013270328-7                000030
100004539701084538271120130108453827112013FA188159168BR  0000002122013270870-2                000031
9000030                                                                                       000032
