0RETORNONOTIFICAÇÃO ELETRONICA        09102012OCOR                                            000001
100003776500833316260920120083331626092012FA012449865BR  0000005102012195791-1                000002
100003776600833317260920120083331726092012FA012449879BR  0000005102012195791-3                000003
100003776700833318260920120083331826092012FA012449882BR  0000004102012195791-4                000004
100003776800833319260920120083331926092012FA012449896BR  0000208102012195791-5                000005
100003761400833320260920120083332026092012FA012449905BR  0000005102012195796-1                000006
100003761700833321260920120083332126092012FA012449919BR  0000004102012195796-2                000007
100003772700833324260920120083332426092012FA012449940BR  0000005102012195796-5                000008
100003775700833325260920120083332526092012FA012449953BR  0000005102012195796-6                000009
100003775800833326260920120083332626092012FA012449967BR  0000008102012195796-7                000010
100003778400833327260920120083332726092012FA012449975BR  0000004102012195796-8                000011
100003778500833328260920120083332826092012FA012449984BR  0000004102012195796-9                000012
100003778600833329260920120083332926092012FA012449998BR  0000004102012195796-10               000013
100003778700833330260920120083333026092012FA012450007BR  0000004102012195796-11               000014
100003779100833331260920120083333126092012FA012450015BR  0000004102012195796-12               000015
100003779700833332260920120083333226092012FA012450024BR  0000004102012195796-13               000016
100003779800833333260920120083333326092012FA012450038BR  0000004102012195796-14               000017
100003780400833335260920120083333526092012FA012450055BR  0000004102012195798-2                000018
100003780600833337260920120083333726092012FA012450072BR  0000008102012195798-11               000019
100003782900833338260920120083333826092012FA012450086BR  0000005102012195798-13               000020
100003783100834272280920120083427228092012FA012458589BR  0000008102012196317-2                000021
100003785100834276280920120083427628092012FA012458629BR  0000008102012196317-6                000022
100003785200834277280920120083427728092012FA012458632BR  0000008102012196320-1                000023
100003785300834278280920120083427828092012FA012458646BR  0000008102012196320-3                000024
100003785900834279280920120083427928092012FA012458650BR  0000008102012196322-1                000025
100003786500834280280920120083428028092012FA012458663BR  0000008102012196322-2                000026
100003786800834283280920120083428328092012FA012458694BR  0000008102012196322-5                000027
100003786900834284280920120083428428092012FA012458703BR  0000008102012196322-6                000028
100003789000834959011020120083495901102012FA012464160BR  0000008102012196609-1                000029
100003789100834960011020120083496001102012FA012464173BR  0000008102012196609-2                000030
100003789200834961011020120083496101102012FA012464187BR  0000008102012196609-3                000031
100003789400834963011020120083496301102012FA012464200BR  0000008102012196609-6                000032
100003789500834964011020120083496401102012FA012464213BR  0000008102012196609-10               000033
100003791100834967011020120083496701102012FA012464244BR  0000008102012196609-22               000034
100003776400834968011020120083496801102012FA012464258BR  0000008102012196614-1                000035
100003792400834972011020120083497201102012FA012464292BR  0000008102012196637-1                000036
100003792600834974011020120083497401102012FA012464315BR  0000008102012196637-3                000037
100003792800834976011020120083497601102012FA012464332BR  0000008102012196637-5                000038
100003793000834978011020120083497801102012FA012464350BR  0000008102012196637-8                000039
100003793300834979011020120083497901102012FA012464363BR  0000008102012196637-9                000040
100003794100834980011020120083498001102012FA012464377BR  0000008102012196641-1                000041
100003796500838354021020120083835402102012FA012498044BR  0000008102012196756-2                000042
100003799500838362021020120083836202102012FA012498129BR  0000008102012196764-1                000043
100003799600838363021020120083836302102012FA012498132BR  0000108102012196764-2                000044
100003799700838364021020120083836402102012FA012498146BR  0001208102012196764-3                000045
9000044                                                                                       000046
