0RETORNONOTIFICAÇÃO ELETRONICA        20102010OCOR                                            000001
100002440800397845011020100039784501102010RL793293904BR  0001219102010112554-12               000002
100002445000000000000000000000000000000000RL793324592BR  0000019102010112792-2                000003
100002445100000000000000000000000000000000RL793324601BR  0000019102010112792-6                000004
100002445200398799051020100039879905102010RL793304289BR  0000019102010112792-7                000005
100002438500400416071020100040041607102010RL793320454BR  0000019102010112886-6                000006
100002441600400418071020100040041807102010RL793320471BR  0000019102010112886-8                000007
100002443200400421071020100040042107102010RL793320508BR  0000519102010112886-11               000008
100002448900400428071020100040042807102010RL793320573BR  0000019102010112886-19               000009
100002456000400807111020100040080711102010RL793324685BR  0000019102010113173-8                000010
100002456200400809111020100040080911102010RL793324703BR  0000019102010113173-13               000011
100002456400401234131020100040123413102010RL793328957BR  0000019102010113266-1                000012
9000011                                                                                       000013
