0RETORNONOTIFICAÇÃO ELETRONICA        03092010OCOR                                            000001
100002379000379897230820100037989723082010RL793114130BR  0000002092010109345-1                000002
100002379100379898230820100037989823082010RL793114143BR  0000002092010109345-2                000003
100002365800381320240820100038132024082010RL793128332BR  0000002092010109468-1                000004
100002384300381331240820100038133124082010RL793128448BR  0000002092010109468-12               000005
9000004                                                                                       000006
