0RETORNONOTIFICAÇÃO ELETRONICA        18112013OCOR                                            000001
100004371901024320280820130102432028082013FA159623992BR  0000011112013253994-1                000002
100004452801049407041020130104940704102013FA159472144BR  0000708112013261107-145              000003
100004495001063916291020130106391629102013FA159608350BR  0000008112013265634-1                000004
100004486801063919291020130106391929102013FA159608385BR  0000008112013265634-4                000005
100004491301063921291020130106392129102013FA159608403BR  0000008112013265634-6                000006
100004488901063922291020130106392229102013FA159608417BR  0000008112013265634-7                000007
100004495701064638291020130106463829102013FA159615571BR  0000008112013265902-1                000008
100004495901064641291020130106464129102013FA159615608BR  0000008112013265902-4                000009
100004497001065963311020130106596331102013FA159628601BR  0000011112013266185-1                000010
100004497301065965311020130106596531102013FA159628629BR  0000011112013266185-3                000011
100004497401065968311020130106596831102013FA159628650BR  0000008112013266185-6                000012
100004501001066290311020130106629031102013FA159631870BR  0000011112013266428-2                000013
100004491601066291311020130106629131102013FA159631883BR  0000011112013266428-3                000014
100004499001066292311020130106629231102013FA159631897BR  0000008112013266428-4                000015
100004499201066293311020130106629331102013FA159631906BR  0000008112013266428-5                000016
100004499301066294311020130106629431102013FA159631910BR  0000012112013266428-6                000017
100004499401066295311020130106629531102013FA159631923BR  0000008112013266428-7                000018
100004501101069507011120130106950701112013FA188016575BR  0000012112013266711-1                000019
100004501201069508011120130106950801112013FA188016589BR  0000012112013266711-2                000020
100004501401069509011120130106950901112013FA188016592BR  0000011112013266711-6                000021
100004501301069510011120130106951001112013FA188016601BR  0000013112013266711-7                000022
100004503701072614051120130107261405112013FA188047113BR  0000012112013266972-1                000023
100004503501072615051120130107261505112013FA188047127BR  0000011112013266972-2                000024
100004503201072616051120130107261605112013FA188047135BR  0000014112013266972-3                000025
100004503301072617051120130107261705112013FA188047144BR  0000011112013266972-4                000026
100004503801072618051120130107261805112013FA188047158BR  0000014112013266972-5                000027
100004503601072619051120130107261905112013FA188047161BR  0000012112013266972-6                000028
100004505801072947051120130107294705112013FA188050364BR  0000011112013267235-3                000029
100004506601072948051120130107294805112013FA188050378BR  0000014112013267235-4                000030
100004505901072949051120130107294905112013FA188050381BR  0000012112013267235-5                000031
100004506301072950051120130107295005112013FA188050395BR  0000013112013267235-6                000032
100004506401072951051120130107295105112013FA188050404BR  0000011112013267235-7                000033
100004506101072952051120130107295205112013FA188050418BR  0000014112013267235-19               000034
100004506001072954051120130107295405112013FA188050435BR  0000012112013267235-22               000035
100004505601072955051120130107295505112013FA188050449BR  0000013112013267235-23               000036
100004508201074919111120130107491911112013FA188068776BR  0000014112013267443-4                000037
100004509101074924111120130107492411112013FA188068820BR  0000014112013267443-9                000038
100004511001074928111120130107492811112013FA188068864BR  0000113112013267696-1                000039
100004513001074930111120130107493011112013FA188068881BR  0000014112013267918-2                000040
100004513101074935111120130107493511112013FA188068935BR  0000014112013267918-9                000041
9000040                                                                                       000042
