0RETORNONOTIFICAÇÃO ELETRONICA        28062010OCOR                                            000001
100002104300260962220320100026096222032010FR584529907BR  000003003201090110-1                 000002
100002106600262553240320100026255324032010FR584546445BR  000000104201090340-6                 000003
100002106700262554240320100026255424032010FR584546454BR  000000104201090340-7                 000004
100002106800262555240320100026255524032010FR584546468BR  000080104201090340-8                 000005
100002109500262556240320100026255624032010FR584546471BR  000003103201090340-9                 000006
100002109600262557240320100026255724032010FR584546485BR  000003103201090343-1                 000007
100002109700262558240320100026255824032010FR584546499BR  000003103201090343-2                 000008
100002109800262559240320100026255924032010FR584546508BR  000000104201090343-3                 000009
100002109900262560240320100026256024032010FR584546511BR  000003103201090343-4                 000010
100002110000262561240320100026256124032010FR584546525BR  000000504201090343-7                 000011
100002110100262562240320100026256224032010FR584546539BR  000003103201090343-8                 000012
100002110200262563240320100026256324032010FR584546542BR  000000704201090343-9                 000013
100002110300262564240320100026256424032010FR584546556BR  000003103201090343-14                000014
100002111600262565240320100026256524032010FR584546560BR  000003103201090343-15                000015
100002111700262566240320100026256624032010FR584546573BR  000003103201090343-16                000016
100002111800262567240320100026256724032010FR584546587BR  000003103201090343-17                000017
100002111900262568240320100026256824032010FR584546595BR  000003103201090343-18                000018
100002112700263400250320100026340025032010FR584554858BR  000000104201090743-1                 000019
100002112800263401250320100026340125032010FR584554861BR  000000104201090743-2                 000020
100002112900263402250320100026340225032010FR584554875BR  000000904201090743-3                 000021
100002113000263403250320100026340325032010FR584554889BR  000000104201090743-4                 000022
100002113100263404250320100026340425032010FR584554892BR  000000104201090743-5                 000023
100002113200263405250320100026340525032010FR584554901BR  000000104201090743-6                 000024
100002113300263406250320100026340625032010FR584554915BR  000000104201090743-8                 000025
100002113400263407250320100026340725032010FR584554929BR  000003103201090743-9                 000026
100002117900263987260320100026398726032010FR584561394BR  000000104201090882-1                 000027
100002118000263988260320100026398826032010FR584561403BR  000000104201090882-2                 000028
100002118100263989260320100026398926032010FR584561417BR  000000104201090882-3                 000029
100002118200263990260320100026399026032010FR584561425BR  000000104201090882-4                 000030
100002118300263991260320100026399126032010FR584561434BR  000000104201090882-5                 000031
100002118400265017290320100026501729032010FR584571635BR  000000504201090998-1                 000032
100002118500265018290320100026501829032010FR584571649BR  000000704201090998-2                 000033
100002118600265019290320100026501929032010FR584571652BR  000000704201090998-3                 000034
100002118700265020290320100026502029032010FR584571666BR  000000704201090998-4                 000035
100002118800265021290320100026502129032010FR584571670BR  000000504201090998-5                 000036
100002111100265867300320100026586730032010FR584580138BR  000001204201091423-1                 000037
100002111500265868300320100026586830032010FR584580141BR  000001304201091423-2                 000038
100002116800265869300320100026586930032010FR584580155BR  000001204201091423-3                 000039
100002117600265870300320100026587030032010FR584580169BR  000000504201091423-4                 000040
100002119300265871300320100026587130032010FR584580172BR  000000504201091423-5                 000041
100002119400265872300320100026587230032010FR584580186BR  000000504201091423-6                 000042
100002120200265873300320100026587330032010FR584580190BR  000001204201091423-7                 000043
100002120700265874300320100026587430032010FR584580209BR  000001604201091423-8                 000044
100002120800265875300320100026587530032010FR584580212BR  000000904201091423-12                000045
100002120900265876300320100026587630032010FR584580226BR  000000904201091423-13                000046
100002121000265877300320100026587730032010FR584580230BR  000001204201091423-14                000047
100002121100265878300320100026587830032010FR584580243BR  000001204201091423-17                000048
100002121200265879300320100026587930032010FR584580257BR  000001204201091423-19                000049
100002121300265880300320100026588030032010FR584580265BR  000000704201091423-20                000050
100002124400265881300320100026588130032010FR584580274BR  000001204201091423-22                000051
100002124900265882300320100026588230032010FR584580288BR  000000504201091423-23                000052
100002125000267348310320100026734831032010FR584595075BR  000001204201091703-1                 000053
100002126000267349310320100026734931032010FR584595089BR  000001204201091703-2                 000054
100002126700267350310320100026735031032010FR584595092BR  000021204201091703-3                 000055
100002127200270325060420100027032506042010FR584624871BR  000001504201091869-1                 000056
100002127300270326060420100027032606042010FR584624885BR  000001504201091869-2                 000057
100002127400270327060420100027032706042010FR584624899BR  000001504201091869-3                 000058
100002127500270328060420100027032806042010FR584624908BR  000001504201091869-4                 000059
100002127600270329060420100027032906042010FR584624911BR  000001504201091869-5                 000060
100002127800270331060420100027033106042010FR584624939BR  000231904201091869-7                 000061
100002127900270332060420100027033206042010FR584624942BR  000001504201091869-8                 000062
100002128000270333060420100027033306042010FR584624956BR  000231504201091869-9                 000063
100002129500270334060420100027033406042010FR584624960BR  000001504201092054-1                 000064
100002129600270335060420100027033506042010FR584624973BR  000001504201092054-2                 000065
100002129700270336060420100027033606042010FR584624987BR  000001504201092054-3                 000066
100002129800270337060420100027033706042010FR584624995BR  000001504201092054-4                 000067
100002129900270338060420100027033806042010FR584625007BR  000001404201092054-5                 000068
100002130000270339060420100027033906042010FR584625015BR  000001504201092054-7                 000069
100002130100270340060420100027034006042010FR584625024BR  000001504201092054-8                 000070
100002130200270341060420100027034106042010FR584625038BR  000001504201092054-9                 000071
100002130300270342060420100027034206042010FR584625041BR  000001504201092054-10                000072
100002130400270343060420100027034306042010FR584625055BR  000001504201092054-11                000073
100002131600270344060420100027034406042010FR584625069BR  000001504201092054-12                000074
100002132300270345060420100027034506042010FR584625072BR  000001504201092054-13                000075
100002133400270347060420100027034706042010FR584625090BR  000001504201092054-15                000076
100002134200270348060420100027034806042010FR584625109BR  000011504201092217-1                 000077
100002134300270349060420100027034906042010FR584625112BR  000001504201092217-2                 000078
100002134400270350060420100027035006042010FR584625126BR  000001504201092217-3                 000079
100002134500270351060420100027035106042010FR584625130BR  000001504201092217-4                 000080
100002134600270352060420100027035206042010FR584625143BR  000001404201092217-5                 000081
100002134700270353060420100027035306042010FR584625157BR  000001504201092217-6                 000082
100002134800270354060420100027035406042010FR584625165BR  000001504201092217-7                 000083
100002134900270355060420100027035506042010FR584625174BR  000001504201092217-8                 000084
100002135000270356060420100027035606042010FR584625188BR  000011504201092217-9                 000085
100002135100270357060420100027035706042010FR584625191BR  000001504201092217-10                000086
100002135200270358060420100027035806042010FR584625205BR  000001504201092217-11                000087
100002135300270359060420100027035906042010FR584625214BR  000001504201092217-12                000088
100002135400270360060420100027036006042010FR584625228BR  000001504201092217-13                000089
100002140200270361060420100027036106042010FR584625231BR  000001504201092330-1                 000090
100002140300270362060420100027036206042010FR584625245BR  000001204201092330-2                 000091
100002140400270363060420100027036306042010FR584625259BR  000001504201092330-3                 000092
100002140500270364060420100027036406042010FR584625262BR  000001404201092330-4                 000093
100002145400271160070420100027116007042010FR584633215BR  000001504201092467-1                 000094
100002145500271161070420100027116107042010FR584633224BR  000001504201092467-2                 000095
100002145600271162070420100027116207042010FR584633238BR  000001504201092467-3                 000096
100002145700271163070420100027116307042010FR584633241BR  000001504201092467-4                 000097
100002145800271164070420100027116407042010FR584633255BR  000001504201092467-5                 000098
100002145900271165070420100027116507042010FR584633269BR  000001504201092467-6                 000099
100002146000271166070420100027116607042010FR584633272BR  000001504201092467-14                000100
100002146100271167070420100027116707042010FR584633286BR  000001504201092467-15                000101
100002143400272895090420100027289509042010FR584650559BR  000001504201092706-1                 000102
100002146200272896090420100027289609042010FR584650562BR  000002204201092706-2                 000103
100002146300272897090420100027289709042010FR584650576BR  000001504201092706-3                 000104
100002146400272898090420100027289809042010FR584650580BR  000001504201092706-4                 000105
100002136600274690130420100027469013042010FR584669475BR  000002604201092912-1                 000106
100002143900274691130420100027469113042010FR584669484BR  000002704201092912-2                 000107
100002144000274692130420100027469213042010FR584669498BR  000002304201092912-3                 000108
100002144300274693130420100027469313042010FR584669507BR  000002304201092912-4                 000109
100002144600274694130420100027469413042010FR584669515BR  000002704201092912-5                 000110
100002145100274695130420100027469513042010FR584669524BR  000002704201092912-6                 000111
100002147500274696130420100027469613042010FR584669538BR  000002704201092912-7                 000112
100002148800274697130420100027469713042010FR584669541BR  000002604201092912-8                 000113
100002148900274698130420100027469813042010FR584669555BR  000002604201092912-9                 000114
100002149100274700130420100027470013042010FR584669572BR  000002704201092912-11                000115
100002149200274701130420100027470113042010FR584669586BR  000002604201092912-12                000116
100002149300274702130420100027470213042010FR584669590BR  000002704201092912-13                000117
100002150200274703130420100027470313042010FR584669609BR  000002204201092912-16                000118
100002150300274704130420100027470413042010FR584669612BR  000002304201092912-17                000119
100002150400274705130420100027470513042010FR584669626BR  000002304201092912-18                000120
100002151600274706130420100027470613042010FR584669630BR  000002204201093329-1                 000121
100002151700274707130420100027470713042010FR584669643BR  000002704201093329-2                 000122
100002151800274708130420100027470813042010FR584669657BR  000002604201093329-10                000123
100002232500287198310520100028719831052010RL705280235BR  0000011062010101308-4                000124
100002232700287199310520100028719931052010RL705280244BR  0000021062010101308-5                000125
100002233500287200310520100028720031052010RL705280258BR  0000011062010101308-6                000126
100002234200287205310520100028720531052010RL705280301BR  0000015062010101308-14               000127
100002234600287209310520100028720931052010RL705280346BR  0002316062010101351-4                000128
100002245700288136020620100028813602062010RL724352814BR  0000017062010101943-3                000129
100002246100288140020620100028814002062010RL724352859BR  0000011062010101943-8                000130
100002246200290457080620100029045708062010RL724375850BR  0000017062010102100-1                000131
100002246300290458080620100029045808062010RL724375863BR  0000017062010102100-2                000132
100002246400290459080620100029045908062010RL724375877BR  0000017062010102100-3                000133
100002246500290460080620100029046008062010RL724375885BR  0000017062010102100-5                000134
100002246600290461080620100029046108062010RL724375894BR  0000217062010102100-6                000135
100002246700290462080620100029046208062010RL724375903BR  0000017062010102100-7                000136
100002246800290463080620100029046308062010RL724375917BR  0000017062010102100-8                000137
100002247000290464080620100029046408062010RL724375925BR  0000017062010102100-9                000138
100002250600290465080620100029046508062010RL724375934BR  0000017062010102100-10               000139
100002250700290466080620100029046608062010RL724375948BR  0000017062010102100-11               000140
100002250800290467080620100029046708062010RL724375951BR  0000017062010102100-12               000141
100002252100290468080620100029046808062010RL724375965BR  0000017062010102100-13               000142
100002252200290469080620100029046908062010RL724375979BR  0000021062010102100-14               000143
100002252600290470080620100029047008062010RL724375982BR  0000024062010102216-1                000144
100002252700290471080620100029047108062010RL724375996BR  0000017062010102216-2                000145
100002252800290472080620100029047208062010RL724376002BR  0000017062010102216-3                000146
100002252900290473080620100029047308062010RL724376016BR  0000017062010102216-4                000147
100002254000290474080620100029047408062010RL724376020BR  0000017062010102216-5                000148
100002255900291553110620100029155311062010RL724386778BR  0000021062010102714-1                000149
100002256000291554110620100029155411062010RL724386781BR  0000021062010102714-2                000150
100002256100291555110620100029155511062010RL724386795BR  0000021062010102714-3                000151
100002256200291556110620100029155611062010RL724386804BR  0000021062010102714-4                000152
100002256300291557110620100029155711062010RL724386818BR  0000023062010102714-6                000153
100002256400291558110620100029155811062010RL724386821BR  0000017062010102714-7                000154
100002256500291559110620100029155911062010RL724386835BR  0000021062010102714-8                000155
100002256600291560110620100029156011062010RL724386849BR  0000023062010102714-9                000156
100002256800291561110620100029156111062010RL724386852BR  0000017062010102714-10               000157
100002257100291562110620100029156211062010RL724386866BR  0000021062010102714-11               000158
100002258200291563110620100029156311062010RL724386870BR  0000017062010102714-12               000159
100002258300291564110620100029156411062010RL724386883BR  0000017062010102714-13               000160
100002258400292323150620100029232315062010RL724394479BR  0000024062010102801-1                000161
100002258500292324150620100029232415062010RL724394482BR  0000024062010102801-2                000162
100002258600292325150620100029232515062010RL724394496BR  0002324062010102801-5                000163
100002258700292326150620100029232615062010RL724394505BR  0000024062010102801-6                000164
100002262300292327150620100029232715062010RL724394519BR  0002324062010102978-1                000165
100002262400292328150620100029232815062010RL724394522BR  0000024062010102978-2                000166
100002262600292330150620100029233015062010RL724394540BR  0000024062010102978-6                000167
100002262700292331150620100029233115062010RL724394553BR  0000524062010102978-9                000168
100002262800292332150620100029233215062010RL724394567BR  0000024062010102978-10               000169
100002262900292333150620100029233315062010RL724394575BR  0000524062010102978-11               000170
100002263000292334150620100029233415062010RL724394584BR  0000024062010102978-12               000171
100002263100292335150620100029233515062010RL724394598BR  0000524062010102978-13               000172
100002265100292336150620100029233615062010RL724394607BR  0001221062010103119-1                000173
100002266300292337150620100029233715062010RL724394615BR  0000024062010103119-2                000174
100002266400292338150620100029233815062010RL724394624BR  0000024062010103119-3                000175
100002267700292339150620100029233915062010RL724394638BR  0000024062010103119-4                000176
100002267800292340150620100029234015062010RL724394641BR  0000024062010103119-5                000177
100002271800292341150620100029234115062010RL724394655BR  0000024062010103119-6                000178
100002259800292846170620100029284617062010RL724399604BR  0000024062010103220-1                000179
100002260000292847170620100029284717062010RL724399618BR  0000024062010103220-2                000180
100002270800292849170620100029284917062010RL724399635BR  0000024062010103220-4                000181
100002271900292850170620100029285017062010RL724399649BR  0000024062010103220-5                000182
100002272000292851170620100029285117062010RL724399652BR  0000024062010103220-6                000183
100002272300293080180620100029308018062010RL724402665BR  0000024062010103354-1                000184
9000183                                                                                       000185
