0RETORNONOTIFICAÇÃO ELETRONICA        13062013OCOR                                            000001
100004171900948615020520130094861502052013FA105083781BR  0000215052013234084-6                000002
100004179800957511150520130095751115052013FA105170313BR  0000011062013236351-10               000003
100004186900957525150520130095752515052013FA105170450BR  0000007062013236353-23               000004
100004183300957561150520130095756115052013FA105170812BR  0000807062013236353-140              000005
100004211800961070220520130096107022052013FA105203325BR  0000007062013237187-2                000006
100004216100961085220520130096108522052013FA105203475BR  0000011062013237623-8                000007
100004216300966155290520130096615529052013FA136030466BR  0000007062013238770-1                000008
100004216400966156290520130096615629052013FA136030470BR  0000010062013238770-3                000009
100004220100966158290520130096615829052013FA136030497BR  0000010062013238771-1                000010
100004220600966159290520130096615929052013FA136030506BR  0000007062013238771-2                000011
100004220500966160290520130096616029052013FA136030510BR  0000010062013238771-4                000012
100004220400966161290520130096616129052013FA136030523BR  0000010062013238771-8                000013
100004220200966163290520130096616329052013FA136030545BR  0000007062013238771-12               000014
100004218000966164290520130096616429052013FA136030554BR  0000007062013238771-13               000015
100004217800966165290520130096616529052013FA136030568BR  0000007062013238771-14               000016
100004217900966166290520130096616629052013FA136030571BR  0000007062013238771-15               000017
100004217600966169290520130096616929052013FA136030608BR  0000006062013238771-20               000018
100004220700966171290520130096617129052013FA136030625BR  0000007062013238772-2                000019
100004222400966172290520130096617229052013FA136030639BR  0000006062013238773-1                000020
100004222500966173290520130096617329052013FA136030642BR  0000006062013238773-2                000021
100004227700966174290520130096617429052013FA136030656BR  0000010062013238775-1                000022
100004230000966175290520130096617529052013FA136030660BR  0000007062013238775-2                000023
100004229900966176290520130096617629052013FA136030673BR  0000007062013238775-5                000024
100004229800966177290520130096617729052013FA136030687BR  0002310062013238775-8                000025
100004229700966178290520130096617829052013FA136030695BR  0000007062013238775-9                000026
100004229600966179290520130096617929052013FA136030700BR  0000710062013238775-10               000027
100004229500966180290520130096618029052013FA136030713BR  0000006062013238775-12               000028
100004229400966181290520130096618129052013FA136030727BR  0000007062013238775-13               000029
100004229300966182290520130096618229052013FA136030735BR  0000007062013238775-15               000030
100004229200966183290520130096618329052013FA136030744BR  0000007062013238775-17               000031
100004229100966184290520130096618429052013FA136030758BR  0000707062013238775-25               000032
100004229000966185290520130096618529052013FA136030761BR  0000006062013238775-26               000033
100004228900966186290520130096618629052013FA136030775BR  0000011062013238775-28               000034
100004228800966187290520130096618729052013FA136030789BR  0000007062013238775-30               000035
100004228600966189290520130096618929052013FA136030801BR  0000007062013238775-34               000036
100004228300966192290520130096619229052013FA136030832BR  0000007062013238775-37               000037
100004228200966193290520130096619329052013FA136030846BR  0000007062013238775-38               000038
100004228100966194290520130096619429052013FA136030850BR  0000007062013238775-39               000039
100004228000966195290520130096619529052013FA136030863BR  0000007062013238775-40               000040
100004227900966196290520130096619629052013FA136030877BR  0000006062013238775-41               000041
100004227800966197290520130096619729052013FA136030885BR  0000006062013238775-42               000042
100004227100000000000000000000000000000000FA136030894BR  0000007062013238775-43               000043
100004227100000000000000000000000000000000FA136030903BR  0000007062013238775-73               000044
100004227400966200290520130096620029052013FA136030917BR  0000710062013238775-96               000045
100004227200966202290520130096620229052013FA136030934BR  0000707062013238775-102              000046
100004225700966203290520130096620329052013FA136030948BR  0000007062013238775-103              000047
100004223700966204290520130096620429052013FA136030951BR  0000007062013238775-104              000048
100004224000966205290520130096620529052013FA136030965BR  0000006062013238775-105              000049
100004227600966206290520130096620629052013FA136030979BR  0000006062013238775-106              000050
100004223400966208290520130096620829052013FA136030996BR  0000006062013238775-108              000051
100004216700966209290520130096620929052013FA136031002BR  0000007062013238775-109              000052
100004223900966211290520130096621129052013FA136031020BR  0000010062013238775-111              000053
100004223800966212290520130096621229052013FA136031033BR  0000007062013238775-112              000054
100004217500966213290520130096621329052013FA136031047BR  0000006062013238775-113              000055
9000054                                                                                       000056
