0RETORNONOTIFICAÇÃO ELETRONICA        08102014OCOR                                            000001
100004911301330264220920140133026422092014FA294569108BR  0000003102014323347-1                000002
100004917401330266220920140133026622092014FA294569125BR  0000006102014323347-3                000003
100004917701330269220920140133026922092014FA294569156BR  0000003102014323347-6                000004
100004917801330270220920140133027022092014FA294569160BR  0000006102014323347-7                000005
100004919501331473230920140133147323092014FA294576996BR  0000003102014323608-6                000006
100004920001331475230920140133147523092014FA294577016BR  0000002102014323608-8                000007
100004920601331481230920140133148123092014FA294577078BR  0000006102014323608-15               000008
100004920801331483230920140133148323092014FA294577095BR  0000002102014323608-17               000009
100004921001331485230920140133148523092014FA294577118BR  0000003102014323608-19               000010
100004922001331495230920140133149523092014FA294577210BR  0000003102014323608-29               000011
100004923001331505230920140133150523092014FA294577311BR  0000003102014323608-39               000012
100004924601331521230920140133152123092014FA294577475BR  0000001102014323608-55               000013
100004925001331525230920140133152523092014FA294577515BR  0000003102014323608-59               000014
100004925101331526230920140133152623092014FA294577529BR  0000003102014323608-60               000015
100004925201331527230920140133152723092014FA294577532BR  0000003102014323608-61               000016
100004925601331531230920140133153123092014FA294577577BR  0000003102014323608-65               000017
100004925701331532230920140133153223092014FA294577585BR  0000401102014323608-66               000018
100004926001331535230920140133153523092014FA294577617BR  0000003102014323608-69               000019
100004926701331542230920140133154223092014FA294577682BR  0000403102014323608-76               000020
100004926801331543230920140133154323092014FA294577696BR  0000003102014323608-77               000021
100004927301331548230920140133154823092014FA294577740BR  0000001102014323608-82               000022
100004927401331549230920140133154923092014FA294577753BR  0000003102014323608-83               000023
100004929501331570230920140133157023092014FA294577965BR  0000003102014323608-104              000024
100004929601331571230920140133157123092014FA294577974BR  0000003102014323608-105              000025
100004929801331573230920140133157323092014FA294577991BR  0000003102014323608-107              000026
100004929901331574230920140133157423092014FA294578008BR  0000006102014323608-108              000027
100004930701331582230920140133158223092014FA294578087BR  0000003102014323608-116              000028
100004931001331585230920140133158523092014FA294578113BR  0000402102014323608-119              000029
100004931101331586230920140133158623092014FA294578127BR  0000406102014323608-120              000030
100004931401331589230920140133158923092014FA294578158BR  0000002102014323608-123              000031
100004933001331605230920140133160523092014FA294578317BR  0000003102014323608-139              000032
100004933501331610230920140133161023092014FA294578365BR  0000003102014323608-144              000033
100004934301331618230920140133161823092014FA294578440BR  0000001102014323608-152              000034
100004935301331628230920140133162823092014FA294578541BR  0000003102014323608-162              000035
100004937701331652230920140133165223092014FA294578780BR  0000701102014323608-186              000036
100004937901331654230920140133165423092014FA294578802BR  0000702102014323608-188              000037
100004938301331658230920140133165823092014FA294578847BR  0000002102014323608-192              000038
100004939101331666230920140133166623092014FA294578921BR  0000402102014323608-200              000039
100004939401331669230920140133166923092014FA294578952BR  0000002102014323608-203              000040
100004939501331670230920140133167023092014FA294578966BR  0000006102014323608-204              000041
100004939601331671230920140133167123092014FA294578970BR  0000006102014323608-205              000042
100004940001331675230920140133167523092014FA294579017BR  0000402102014323608-209              000043
100004940701331682230920140133168223092014FA294579082BR  0000001102014323608-216              000044
100004940801331683230920140133168323092014FA294579096BR  0000002102014323608-217              000045
100004941501331690230920140133169023092014FA294579167BR  0000002102014323608-224              000046
100004941601331691230920140133169123092014FA294579175BR  0000002102014323608-225              000047
100004941701331692230920140133169223092014FA294579184BR  0000003102014323608-226              000048
100004942001331695230920140133169523092014FA294579215BR  0000003102014323608-229              000049
100004942201331697230920140133169723092014FA294579238BR  0000003102014323608-231              000050
100004942301331698230920140133169823092014FA294579241BR  0000003102014323608-232              000051
100004942401331699230920140133169923092014FA294579255BR  0000003102014323608-233              000052
100004942601331701230920140133170123092014FA294579272BR  0000002102014323608-235              000053
100004942701331702230920140133170223092014FA294579286BR  0000002102014323608-236              000054
100004942801331703230920140133170323092014FA294579290BR  0000002102014323608-237              000055
100004942901331704230920140133170423092014FA294579309BR  0000002102014323608-238              000056
100004943001331705230920140133170523092014FA294579312BR  0000002102014323608-239              000057
100004943101331706230920140133170623092014FA294579326BR  0000006102014323608-240              000058
100004943301331708230920140133170823092014FA294579343BR  0000001102014323608-242              000059
100004943601331711230920140133171123092014FA294579374BR  0000402102014323608-245              000060
100004943801331713230920140133171323092014FA294579391BR  0000003102014323608-247              000061
100004944201331717230920140133171723092014FA294579431BR  0000003102014323608-251              000062
100004944701331722230920140133172223092014FA294579480BR  0000002102014323608-257              000063
100004944801331723230920140133172323092014FA294579493BR  0000002102014323608-258              000064
100004945001331725230920140133172523092014FA294579516BR  0000002102014323608-260              000065
100004946001331735230920140133173523092014FA294579618BR  0000002102014323608-273              000066
100004946201331737230920140133173723092014FA294579635BR  0000002102014323608-275              000067
100004946501331740230920140133174023092014FA294579666BR  0000002102014323608-278              000068
100004946601331741230920140133174123092014FA294579670BR  0000002102014323608-279              000069
100004946901331744230920140133174423092014FA294579706BR  0000001102014323608-282              000070
100004947001331745230920140133174523092014FA294579710BR  0000002102014323608-283              000071
100004947101331746230920140133174623092014FA294579723BR  0000002102014323608-284              000072
100004947501331750230920140133175023092014FA294579768BR  0000002102014323608-289              000073
100004947701331752230920140133175223092014FA294579785BR  0000702102014323608-292              000074
100004947801331753230920140133175323092014FA294579799BR  0000003102014323608-293              000075
100004947901331754230920140133175423092014FA294579808BR  0000003102014323608-294              000076
100004948001331755230920140133175523092014FA294579811BR  0000203102014323608-295              000077
100004948301331758230920140133175823092014FA294579842BR  0000002102014323608-298              000078
100004948401331759230920140133175923092014FA294579856BR  0000002102014323608-299              000079
100004948601331761230920140133176123092014FA294579873BR  0000002102014323608-302              000080
100004948701331762230920140133176223092014FA294579887BR  0000002102014323608-303              000081
100004949301331768230920140133176823092014FA294579944BR  0000006102014323608-310              000082
100004949701331772230920140133177223092014FA294579989BR  0000702102014323608-316              000083
100004949801331773230920140133177323092014FA294579992BR  0000003102014323608-317              000084
100004949901331774230920140133177423092014FA294580001BR  0000007102014323608-318              000085
100004950101331776230920140133177623092014FA294580029BR  0000006102014323608-320              000086
100004950301331778230920140133177823092014FA294580046BR  0000002102014323608-322              000087
100004951001331785230920140133178523092014FA294580117BR  0000502102014323608-330              000088
100004951101331786230920140133178623092014FA294580125BR  0000001102014323608-331              000089
100004951201331787230920140133178723092014FA294580134BR  0000002102014323608-332              000090
100004951401331789230920140133178923092014FA294580151BR  0000002102014323608-334              000091
100004951601331791230920140133179123092014FA294580179BR  0000002102014323608-336              000092
100004951701331792230920140133179223092014FA294580182BR  0000003102014323608-337              000093
100004951801331793230920140133179323092014FA294580196BR  0000002102014323608-338              000094
100004952101331796230920140133179623092014FA294580222BR  0000002102014323608-341              000095
100004952201331797230920140133179723092014FA294580236BR  0000002102014323608-342              000096
100004952401331799230920140133179923092014FA294580253BR  0000003102014323608-344              000097
100004952501331800230920140133180023092014FA294580267BR  0000002102014323608-345              000098
100004952601331801230920140133180123092014FA294580275BR  0000003102014323608-346              000099
100004953001331805230920140133180523092014FA294580315BR  0000006102014323608-350              000100
100004953101331806230920140133180623092014FA294580324BR  0000006102014323608-351              000101
100004953201331807230920140133180723092014FA294580338BR  0000002102014323608-352              000102
100004953401331809230920140133180923092014FA294580355BR  0000002102014323608-355              000103
100004953501331810230920140133181023092014FA294580369BR  0000403102014323608-356              000104
100004953601331811230920140133181123092014FA294580372BR  0000002102014323608-357              000105
100004953701331812230920140133181223092014FA294580386BR  0000003102014323608-358              000106
100004953801331813230920140133181323092014FA294580390BR  0000403102014323608-359              000107
100004953901331814230920140133181423092014FA294580409BR  0000003102014323608-360              000108
100004954101331816230920140133181623092014FA294580426BR  0000003102014323608-362              000109
100004954201331817230920140133181723092014FA294580430BR  0000002102014323608-363              000110
100004954301331818230920140133181823092014FA294580443BR  0000006102014323608-364              000111
100004954401331819230920140133181923092014FA294580457BR  0000006102014323608-365              000112
100004954501331820230920140133182023092014FA294580465BR  0000001102014323608-366              000113
100004954701331822230920140133182223092014FA294580488BR  0000702102014323608-369              000114
100004954801331823230920140133182323092014FA294580491BR  0000702102014323608-370              000115
100004954901331824230920140133182423092014FA294580505BR  0000001102014323608-371              000116
100004955101331826230920140133182623092014FA294580528BR  0000002102014323608-373              000117
100004955201331827230920140133182723092014FA294580531BR  0000002102014323608-374              000118
100004955501331830230920140133183023092014FA294580562BR  0000403102014323608-377              000119
100004955601331831230920140133183123092014FA294580576BR  0000003102014323608-378              000120
100004955701331832230920140133183223092014FA294580580BR  0000003102014323608-379              000121
100004955901331834230920140133183423092014FA294580602BR  0000002102014323608-381              000122
100004956001331835230920140133183523092014FA294580616BR  0000003102014323608-382              000123
100004956101331836230920140133183623092014FA294580620BR  0000002102014323608-383              000124
100004956201331837230920140133183723092014FA294580633BR  0000003102014323608-384              000125
100004956301331838230920140133183823092014FA294580647BR  0000002102014323608-385              000126
100004956401331839230920140133183923092014FA294580655BR  0000002102014323608-386              000127
100004956601331841230920140133184123092014FA294580678BR  0000002102014323608-388              000128
100004956701331842230920140133184223092014FA294580681BR  0000002102014323608-389              000129
100004957101331846230920140133184623092014FA294580721BR  0000002102014323608-393              000130
100004957301331848230920140133184823092014FA294580749BR  0000002102014323608-396              000131
100004957601331851230920140133185123092014FA294580770BR  0000002102014323608-399              000132
100004957701331852230920140133185223092014FA294580783BR  0000006102014323608-400              000133
100004957801331853230920140133185323092014FA294580797BR  0000006102014323608-401              000134
100004958101331856230920140133185623092014FA294580823BR  0000003102014323608-404              000135
100004958301331858230920140133185823092014FA294580845BR  0000006102014323608-407              000136
100004958401331859230920140133185923092014FA294580854BR  0000002102014323608-408              000137
100004958601331861230920140133186123092014FA294580871BR  0000002102014323608-410              000138
100004958701331862230920140133186223092014FA294580885BR  0000002102014323608-411              000139
100004958801331863230920140133186323092014FA294580899BR  0000002102014323608-412              000140
100004958901331864230920140133186423092014FA294580908BR  0000002102014323608-413              000141
100004959001331865230920140133186523092014FA294580911BR  0000002102014323608-414              000142
100004959101331866230920140133186623092014FA294580925BR  0000003102014323608-415              000143
100004959301331868230920140133186823092014FA294580942BR  0000703102014323608-418              000144
100004959401331869230920140133186923092014FA294580956BR  0000002102014323608-419              000145
100004959501331870230920140133187023092014FA294580960BR  0000002102014323608-420              000146
100004959701331872230920140133187223092014FA294580987BR  0000006102014323608-422              000147
100004959801331873230920140133187323092014FA294580995BR  0000002102014323608-423              000148
100004960201331877230920140133187723092014FA294581038BR  0000002102014323608-427              000149
100004960301331878230920140133187823092014FA294581041BR  0000002102014323608-429              000150
100004960501331880230920140133188023092014FA294581069BR  0000006102014323608-432              000151
100004960701331882230920140133188223092014FA294581086BR  0001203102014323608-434              000152
100004960801331883230920140133188323092014FA294581090BR  0000003102014323608-436              000153
100004961001331885230920140133188523092014FA294581112BR  0000002102014323608-438              000154
100004961101331886230920140133188623092014FA294581126BR  0000003102014323608-439              000155
100004961301331888230920140133188823092014FA294581143BR  0000002102014323608-442              000156
100004961401331889230920140133188923092014FA294581157BR  0000006102014323608-443              000157
100004961701331892230920140133189223092014FA294581188BR  0000006102014323608-447              000158
100004961801331893230920140133189323092014FA294581191BR  0000002102014323608-448              000159
100004961901331894230920140133189423092014FA294581205BR  0000003102014323608-449              000160
100004962001331895230920140133189523092014FA294581214BR  0000002102014323608-450              000161
100004962201331897230920140133189723092014FA294581231BR  0000002102014323608-452              000162
100004962401331899230920140133189923092014FA294581259BR  0000002102014323608-454              000163
100004962501331900230920140133190023092014FA294581262BR  0000003102014323608-455              000164
100004962601331901230920140133190123092014FA294581276BR  0000002102014323608-456              000165
100004962701331902230920140133190223092014FA294581280BR  0000002102014323608-457              000166
100004962901331904230920140133190423092014FA294581302BR  0000002102014323608-460              000167
100004963001331905230920140133190523092014FA294581316BR  0000002102014323608-461              000168
100004963101331906230920140133190623092014FA294581320BR  0000002102014323608-462              000169
100004963201331907230920140133190723092014FA294581333BR  0000002102014323608-463              000170
100004963601331911230920140133191123092014FA294581378BR  0000002102014323608-468              000171
100004963701331912230920140133191223092014FA294581381BR  0000002102014323608-469              000172
100004963801331913230920140133191323092014FA294581395BR  0000002102014323608-470              000173
100004963901331914230920140133191423092014FA294581404BR  0000003102014323608-471              000174
100004964401331919230920140133191923092014FA294581452BR  0000003102014323608-477              000175
100004964701331922230920140133192223092014FA294581483BR  0000006102014323608-480              000176
100004964801331923230920140133192323092014FA294581497BR  0000003102014323608-481              000177
100004965001331925230920140133192523092014FA294581510BR  0000003102014323608-483              000178
100004965101331926230920140133192623092014FA294581523BR  0000002102014323608-484              000179
100004965501331930230920140133193023092014FA294581568BR  0000002102014323608-488              000180
100004965901331934230920140133193423092014FA294581608BR  0000006102014323608-493              000181
100004966001331935230920140133193523092014FA294581611BR  0000006102014323608-494              000182
100004966101331936230920140133193623092014FA294581625BR  0000002102014323608-495              000183
100004966201331937230920140133193723092014FA294581639BR  0000003102014323608-496              000184
100004966301331938230920140133193823092014FA294581642BR  0000702102014323608-497              000185
100004966501331940230920140133194023092014FA294581660BR  0000002102014323608-500              000186
100004966601331941230920140133194123092014FA294581673BR  0000002102014323608-501              000187
100004966901331944230920140133194423092014FA294581700BR  0000002102014323608-504              000188
100004967001331945230920140133194523092014FA294581713BR  0000003102014323608-505              000189
100004967101331946230920140133194623092014FA294581727BR  0000403102014323608-506              000190
100004967501331950230920140133195023092014FA294581761BR  0000002102014323608-510              000191
100004967701331952230920140133195223092014FA294581789BR  0000003102014323608-512              000192
100004968001331955230920140133195523092014FA294581815BR  0000401102014323608-515              000193
100004968101331956230920140133195623092014FA294581829BR  0000002102014323608-517              000194
100004968401331959230920140133195923092014FA294581850BR  0000002102014323608-522              000195
100004968501331960230920140133196023092014FA294581863BR  0000007102014323608-523              000196
100004968601331961230920140133196123092014FA294581877BR  0000403102014323608-524              000197
100004968701331962230920140133196223092014FA294581885BR  0000007102014323608-525              000198
100004968801331963230920140133196323092014FA294581894BR  0000007102014323608-526              000199
100004968901331964230920140133196423092014FA294581903BR  0000007102014323608-527              000200
100004969001331965230920140133196523092014FA294581917BR  0000002102014323608-528              000201
100004969101331966230920140133196623092014FA294581925BR  0000002102014323608-529              000202
100004969601331971230920140133197123092014FA294581979BR  0000003102014323608-535              000203
100004969801331973230920140133197323092014FA294581996BR  0000002102014323608-537              000204
100004969901331974230920140133197423092014FA294582002BR  0000002102014323608-538              000205
100004970001331975230920140133197523092014FA294582016BR  0000002102014323608-539              000206
100004970101331976230920140133197623092014FA294582020BR  0000002102014323608-540              000207
100004970301331978230920140133197823092014FA294582047BR  0000006102014323608-542              000208
100004970601331981230920140133198123092014FA294582078BR  0000002102014323608-545              000209
100004970701331982230920140133198223092014FA294582081BR  0000006102014323608-546              000210
100004971001331985230920140133198523092014FA294582118BR  0000002102014323608-549              000211
100004971201331987230920140133198723092014FA294582135BR  0000006102014323608-551              000212
100004971401331989230920140133198923092014FA294582152BR  0000403102014323608-553              000213
100004972201331997230920140133199723092014FA294582237BR  0000002102014323608-566              000214
100004972301331998230920140133199823092014FA294582245BR  0000702102014323608-567              000215
100004972401331999230920140133199923092014FA294582254BR  0000002102014323608-568              000216
100004972501332000230920140133200023092014FA294582268BR  0000002102014323608-569              000217
100004972801332003230920140133200323092014FA294582299BR  0000002102014323608-573              000218
100004973101332006230920140133200623092014FA294582325BR  0000002102014323608-578              000219
100004973201332007230920140133200723092014FA294582339BR  0000401102014323608-579              000220
100004973701332012230920140133201223092014FA294582387BR  0000002102014323608-585              000221
100004973801332013230920140133201323092014FA294582395BR  0000002102014323608-586              000222
100004974001332015230920140133201523092014FA294582413BR  0000002102014323608-588              000223
100004974101332016230920140133201623092014FA294582427BR  0000002102014323608-589              000224
100004974201332017230920140133201723092014FA294582435BR  0000003102014323608-591              000225
100004974301332018230920140133201823092014FA294582444BR  0000006102014323608-592              000226
100004974401332019230920140133201923092014FA294582458BR  0000002102014323608-593              000227
100004974601332021230920140133202123092014FA294582475BR  0000002102014323608-595              000228
100004974801332023230920140133202323092014FA294582492BR  0001203102014323608-598              000229
100004974901332024230920140133202423092014FA294582501BR  0000002102014323608-599              000230
100004975101332026230920140133202623092014FA294582529BR  0000002102014323608-601              000231
100004975201332027230920140133202723092014FA294582532BR  0000006102014323608-602              000232
100004975301332028230920140133202823092014FA294582546BR  0000002102014323608-603              000233
100004975401332029230920140133202923092014FA294582550BR  0000006102014323608-605              000234
100004975701332032230920140133203223092014FA294582585BR  0000007102014323608-608              000235
100004975901332034230920140133203423092014FA294582603BR  0000002102014323608-610              000236
100004976301332038230920140133203823092014FA294582648BR  0000002102014323608-631              000237
100004976401332039230920140133203923092014FA294582651BR  0000002102014323608-634              000238
100004976501332040230920140133204023092014FA294582665BR  0000003102014323608-637              000239
100004976601332041230920140133204123092014FA294582679BR  0000003102014323608-639              000240
100004976701332042230920140133204223092014FA294582682BR  0000002102014323608-666              000241
100004977001332045230920140133204523092014FA294582719BR  0000006102014323608-694              000242
100004977101332046230920140133204623092014FA294582722BR  0000002102014323608-709              000243
100004977201332047230920140133204723092014FA294582736BR  0000002102014323608-720              000244
100004977301332048230920140133204823092014FA294582740BR  0000003102014323608-735              000245
100004977401332049230920140133204923092014FA294582753BR  0000003102014323608-765              000246
100004977501332050230920140133205023092014FA294582767BR  0000202102014323608-776              000247
100004977601332051230920140133205123092014FA294582775BR  0000403102014323608-779              000248
100004977701332052230920140133205223092014FA294582784BR  0000003102014323608-782              000249
100004977801332053230920140133205323092014FA294582798BR  0000202102014323608-806              000250
100004977901332054230920140133205423092014FA294582807BR  0000002102014323608-810              000251
100004978001332055230920140133205523092014FA294582815BR  0000003102014323608-827              000252
100004978500000000000000000000000000000000FA294590953BR  0000002102014324131-1                000253
100004978600000000000000000000000000000000FA294590967BR  0000006102014324131-2                000254
100004978700000000000000000000000000000000FA294590975BR  0000002102014324131-3                000255
100004979401335724290920140133572429092014FA294612526BR  0000006102014324399-1                000256
100004918301335729290920140133572929092014FA294612574BR  0000003102014324659-1                000257
100004978301335730290920140133573029092014FA294612588BR  0000003102014324659-2                000258
100004978401335731290920140133573129092014FA294612591BR  0000006102014324659-3                000259
100004980401335732290920140133573229092014FA294612605BR  0000006102014324659-4                000260
100004980601335734290920140133573429092014FA294612628BR  0000006102014324659-6                000261
9000260                                                                                       000262
