0RETORNONOTIFICAÇÃO ELETRONICA        16112012OCOR                                            000001
100003823400842766181020120084276618102012FA012539441BR  0000001112012199703-7                000002
100003823600842768181020120084276818102012FA012539469BR  0000005112012199703-9                000003
100003827400849184261020120084918426102012FA012602294BR  0000005112012201182-1                000004
100003829400849185261020120084918526102012FA012602303BR  0000005112012201182-2                000005
100003829700849186261020120084918626102012FA012602317BR  0000131102012201182-3                000006
100003829800849187261020120084918726102012FA012602325BR  0000005112012201182-4                000007
100003829900849188261020120084918826102012FA012602334BR  0000001112012201182-5                000008
100003833000849190261020120084919026102012FA012602351BR  0000005112012201186-2                000009
100003833100849191261020120084919126102012FA012602365BR  0000005112012201186-3                000010
100003833200849192261020120084919226102012FA012602379BR  0000005112012201186-4                000011
100003833300849193261020120084919326102012FA012602382BR  0000005112012201186-5                000012
100003833400849194261020120084919426102012FA012602396BR  0000005112012201186-6                000013
100003834400849195261020120084919526102012FA012602405BR  0000005112012201189-1                000014
100003834500849196261020120084919626102012FA012602419BR  0000005112012201189-2                000015
100003834600849197261020120084919726102012FA012602422BR  0000001112012201189-3                000016
100003834700849198261020120084919826102012FA012602436BR  0000005112012201189-4                000017
100003834800849199261020120084919926102012FA012602440BR  0000001112012201189-5                000018
100003834900849200261020120084920026102012FA012602453BR  0000005112012201189-6                000019
100003837200849201261020120084920126102012FA012602467BR  0000001112012201193-1                000020
100003837300849202261020120084920226102012FA012602475BR  0000005112012201193-2                000021
100003837400849203261020120084920326102012FA012602484BR  0000005112012201193-3                000022
100003831600851259311020120085125931102012FA012621143BR  0000012112012201971-1                000023
100003838400851261311020120085126131102012FA012621165BR  0000009112012201971-3                000024
100003838700851263311020120085126331102012FA012621188BR  0000009112012201971-5                000025
100003838800851264311020120085126431102012FA012621191BR  0000009112012201971-6                000026
100003838900851265311020120085126531102012FA012621205BR  0000012112012201971-8                000027
100003839000851266311020120085126631102012FA012621214BR  0000107112012201971-10               000028
100003839100851267311020120085126731102012FA012621228BR  0000012112012201971-11               000029
100003839200851268311020120085126831102012FA012621231BR  0000013112012201971-13               000030
100003839300851269311020120085126931102012FA012621245BR  0000012112012201971-15               000031
100003839400851270311020120085127031102012FA012621259BR  0000008112012201971-19               000032
100003839500851271311020120085127131102012FA012621262BR  0000012112012201971-20               000033
100003839600851272311020120085127231102012FA012621276BR  0000012112012201971-23               000034
100003840500851273311020120085127331102012FA012621280BR  0000014112012201971-25               000035
100003816700851275311020120085127531102012FA012621302BR  0000009112012201980-2                000036
100003841000851276311020120085127631102012FA012621316BR  0000413112012201980-3                000037
100003841100851277311020120085127731102012FA012621320BR  0000008112012201980-5                000038
100003841200851278311020120085127831102012FA012621333BR  0000008112012201980-8                000039
100003841300851279311020120085127931102012FA012621347BR  0000008112012201980-9                000040
100003841400851280311020120085128031102012FA012621355BR  0000007112012201980-10               000041
100003841500851281311020120085128131102012FA012621364BR  0000008112012201980-11               000042
100003841600851282311020120085128231102012FA012621378BR  0000012112012201980-12               000043
100003841700851283311020120085128331102012FA012621381BR  0000008112012201980-13               000044
100003842000851284311020120085128431102012FA012621395BR  0000012112012201980-14               000045
100003842200851285311020120085128531102012FA012621404BR  0000012112012201980-15               000046
100003842300851286311020120085128631102012FA012621418BR  0000012112012201980-16               000047
100003842500851287311020120085128731102012FA012621421BR  0000014112012201980-17               000048
100003843100851288311020120085128831102012FA012621435BR  0000012112012201988-1                000049
100003830100851357311020120085135731102012FA012622121BR  0000009112012202192-1                000050
100003835400851358311020120085135831102012FA012622135BR  0000014112012202192-2                000051
100003835500851359311020120085135931102012FA012622149BR  0000008112012202192-3                000052
100003835600851360311020120085136031102012FA012622152BR  0000012112012202192-4                000053
100003838500851361311020120085136131102012FA012622166BR  0000012112012202192-5                000054
100003843300851362311020120085136231102012FA012622170BR  0000012112012202192-6                000055
100003844100851363311020120085136331102012FA012622183BR  0000012112012202192-7                000056
100003844600851364311020120085136431102012FA012622197BR  0000012112012202192-8                000057
100003844700851365311020120085136531102012FA012622206BR  0000008112012202192-9                000058
100003844900851366311020120085136631102012FA012622210BR  0000012112012202192-10               000059
100003845000851367311020120085136731102012FA012622223BR  0000008112012202192-12               000060
100003845100851368311020120085136831102012FA012622237BR  0000012112012202192-13               000061
100003845200851369311020120085136931102012FA012622245BR  0000009112012202192-14               000062
100003845600851370311020120085137031102012FA012622254BR  0000107112012202192-15               000063
100003845900851371311020120085137131102012FA012622268BR  0000213112012202192-18               000064
100003846000851372311020120085137231102012FA012622271BR  0000009112012202192-19               000065
100003830000851373311020120085137331102012FA012622285BR  0000009112012202194-1                000066
100003835700851374311020120085137431102012FA012622299BR  0000012112012202194-2                000067
100003846500851375311020120085137531102012FA012622308BR  0000014112012202194-3                000068
100003847800851378311020120085137831102012FA012622339BR  0000012112012202194-6                000069
100003847900851379311020120085137931102012FA012622342BR  0000009112012202194-7                000070
100003848000851380311020120085138031102012FA012622356BR  0000012112012202194-8                000071
100003848100851381311020120085138131102012FA012622360BR  0000012112012202194-9                000072
100003848200851382311020120085138231102012FA012622373BR  0000009112012202194-10               000073
100003848300851383311020120085138331102012FA012622387BR  0000008112012202194-11               000074
100003848900851384311020120085138431102012FA012622395BR  0000009112012202194-12               000075
100003849000851385311020120085138531102012FA012622400BR  0000008112012202194-13               000076
100003849200851386311020120085138631102012FA012622413BR  0000009112012202194-14               000077
100003849400851387311020120085138731102012FA012622427BR  0000012112012202229-1                000078
100003849500851388311020120085138831102012FA012622435BR  0000012112012202229-2                000079
100003849600851389311020120085138931102012FA012622444BR  0000008112012202229-3                000080
100003849700851390311020120085139031102012FA012622458BR  0000012112012202229-6                000081
100003849800851391311020120085139131102012FA012622461BR  0000009112012202229-7                000082
100003850400851392311020120085139231102012FA012622475BR  0000014112012202229-26               000083
100003850500851393311020120085139331102012FA012622489BR  0000009112012202229-27               000084
100003851000851394311020120085139431102012FA012622492BR  0000008112012202282-1                000085
100003851100851395311020120085139531102012FA012622501BR  0000008112012202282-2                000086
100003851200851396311020120085139631102012FA012622515BR  0000008112012202282-3                000087
100003851400851397311020120085139731102012FA012622529BR  0000012112012202282-4                000088
100003852600851398311020120085139831102012FA012622532BR  0000009112012202282-5                000089
100003852700851399311020120085139931102012FA012622546BR  0000009112012202282-6                000090
100003852800851400311020120085140031102012FA012622550BR  0000009112012202282-7                000091
100003852900851401311020120085140131102012FA012622563BR  0000009112012202282-8                000092
100003853000851402311020120085140231102012FA012622577BR  0000009112012202282-9                000093
100003853100851403311020120085140331102012FA012622585BR  0000009112012202282-10               000094
100003853900851405311020120085140531102012FA012622603BR  0000008112012202291-2                000095
100003854000851406311020120085140631102012FA012622617BR  0000014112012202291-3                000096
100003854100851407311020120085140731102012FA012622625BR  0000012112012202291-4                000097
100003854200851408311020120085140831102012FA012622634BR  0000009112012202291-5                000098
100003854300851409311020120085140931102012FA012622648BR  0000012112012202291-7                000099
100003855300851410311020120085141031102012FA012622651BR  0000012112012202291-8                000100
100003856600851411311020120085141131102012FA012622665BR  0000009112012202291-9                000101
100003856700851412311020120085141231102012FA012622679BR  0000009112012202291-10               000102
100003856800851413311020120085141331102012FA012622682BR  0000009112012202291-13               000103
100003854600854515051120120085451505112012FA012652707BR  0000012112012202648-1                000104
100003856900854516051120120085451605112012FA012652715BR  0000012112012202648-2                000105
100003857100854518051120120085451805112012FA012652738BR  0000012112012202648-4                000106
100003857200854519051120120085451905112012FA012652741BR  0000012112012202648-5                000107
100003858500854524051120120085452405112012FA012652790BR  0000012112012202648-16               000108
100003859000854525051120120085452505112012FA012652809BR  0000112112012202648-17               000109
100003859100854526051120120085452605112012FA012652812BR  0000012112012202648-18               000110
100003859200854527051120120085452705112012FA012652826BR  0000012112012202648-19               000111
100003859900855730081120120085573008112012FA062379668BR  0000014112012203632-8                000112
9000111                                                                                       000113
