0RETORNONOTIFICAÇÃO ELETRONICA        13012015OCOR                                            000001
100005013901383796191120140138379619112014FA318280732BR  0000126122014333574-3                000002
100005023001396531031220140139653103122014FA318393059BR  0000019122014335648-6                000003
100005024701398073051220140139807305122014FA318410260BR  0000022122014336050-8                000004
100005028901406456181220140140645618122014FA318459302BR  0000030122014336773-1                000005
100005029301406460181220140140646018122014FA318459342BR  0000030122014337266-10               000006
100005029901406462181220140140646218122014FA318459360BR  0000023122014337268-1                000007
100005030801406464181220140140646418122014FA318459387BR  0000026122014337387-1                000008
100005031201407315191220140140731519122014FA318465688BR  0000026122014337577-1                000009
100005032101407317191220140140731719122014FA318465705BR  0001209012015337577-3                000010
100005032201407318191220140140731819122014FA318465714BR  0000707012015337577-17               000011
100005032301407319191220140140731919122014FA318465728BR  0000030122014337756-1                000012
100005032401407320191220140140732019122014FA318465731BR  0000026122014337756-2                000013
100005032501407321191220140140732119122014FA318465745BR  0000026122014337756-3                000014
100005032601407322191220140140732219122014FA318465759BR  0000030122014337756-4                000015
100005033201407323191220140140732319122014FA318465762BR  0000007012015337756-5                000016
100005034201407324191220140140732419122014FA318465776BR  0000030122014338095-1                000017
100005034801407325191220140140732519122014FA318465780BR  0000030122014338095-2                000018
100005034901407326191220140140732619122014FA318465793BR  0000030122014338095-5                000019
100005035001407327191220140140732719122014FA318465807BR  0000008012015338095-8                000020
100005035101407328191220140140732819122014FA318465816BR  0000030122014338095-9                000021
100005035201407329191220140140732919122014FA318465820BR  0000030122014338095-12               000022
100005035301407330191220140140733019122014FA318465833BR  0000030122014338095-14               000023
100005035401407331191220140140733119122014FA318465847BR  0000030122014338095-16               000024
100005035501407332191220140140733219122014FA318465855BR  0000030122014338095-18               000025
100005035701407334191220140140733419122014FA318465878BR  0000030122014338095-28               000026
100005035901407336191220140140733619122014FA318465895BR  0000030122014338095-32               000027
100005036001407337191220140140733719122014FA318465909BR  0000030122014338095-35               000028
100005036101407338191220140140733819122014FA318465918BR  0000030122014338095-36               000029
100005036201407339191220140140733919122014FA318465921BR  0000030122014338095-37               000030
100005036301407340191220140140734019122014FA318465935BR  0000030122014338095-38               000031
100005036401407341191220140140734119122014FA318465949BR  0000030122014338095-50               000032
9000031                                                                                       000033
