0RETORNONOTIFICAÇÃO ELETRONICA        02022011OCOR                                            000001
100002565500455619210120110045561921012011RL893627446BR  0000001022011120284-3                000002
100002566200455622210120110045562221012011RL893627477BR  0000001022011120284-6                000003
100002569300455624210120110045562421012011RL893627494BR  0000001022011120284-8                000004
100002571100455625210120110045562521012011RL893627503BR  0000001022011120284-9                000005
100002574400455627210120110045562721012011RL893627525BR  0000001022011120284-11               000006
100002574900455628210120110045562821012011RL893627534BR  0000001022011120284-12               000007
100002584700455637210120110045563721012011RL893627622BR  0000001022011120285-4                000008
100002584800455638210120110045563821012011RL893627636BR  0000001022011120285-5                000009
100002586400455639210120110045563921012011RL893627640BR  0000001022011120285-6                000010
100002590000455645210120110045564521012011RL893627707BR  0000001022011120286-2                000011
100002592500455652210120110045565221012011RL893627772BR  0000001022011120288-5                000012
100002592600455653210120110045565321012011RL893627786BR  0000001022011120288-6                000013
100002592900455656210120110045565621012011RL893627812BR  0000001022011120288-9                000014
100002593200455659210120110045565921012011RL893627843BR  0000001022011120289-7                000015
100002593700455662210120110045566221012011RL893627874BR  0000001022011120289-10               000016
100002593800455663210120110045566321012011RL893627888BR  0000001022011120289-11               000017
100002595800457920240120110045792024012011RL893648392BR  0000001022011120357-1                000018
9000017                                                                                       000019
