0RETORNONOTIFICAÇÃO ELETRONICA        13042015OCOR                                            000001
100005064601440728190220150144072819022015FA318680179BR  0000010042015346461-9                000002
100005072001447922010420150144792201042015FA318737845BR  0000008042015349793-12               000003
100005072101447923010420150144792301042015FA318737854BR  0000009042015349793-13               000004
100005072401447924010420150144792401042015FA318737868BR  0000007042015349793-14               000005
100005072501447925010420150144792501042015FA318737871BR  0000009042015349797-1                000006
100005072601447926010420150144792601042015FA318737885BR  0000010042015349797-2                000007
100005072701447927010420150144792701042015FA318737899BR  0000008042015349797-3                000008
100005073001447929010420150144792901042015FA318737911BR  0000007042015349797-5                000009
100005073101447930010420150144793001042015FA318737925BR  0000007042015349797-7                000010
100005073201447931010420150144793101042015FA318737939BR  0000007042015349797-8                000011
100005076901447938010420150144793801042015FA318738007BR  0000010042015353793-1                000012
100005077301447940010420150144794001042015FA318738024BR  0000010042015353793-6                000013
100005077501447942010420150144794201042015FA318738041BR  0000010042015353793-8                000014
100005078101447948010420150144794801042015FA318738109BR  0000009042015353793-37               000015
100005078201447949010420150144794901042015FA318738112BR  0000009042015353793-40               000016
100005078701447954010420150144795401042015FA318738165BR  0000409042015353793-55               000017
100005078901447956010420150144795601042015FA318738188BR  0000009042015353793-62               000018
100005079801447965010420150144796501042015FA318738276BR  0000409042015353793-91               000019
100005080501447972010420150144797201042015FA318738347BR  0000409042015353793-108              000020
100005081201447979010420150144797901042015FA318738418BR  0000010042015353793-120              000021
100005081801447982010420150144798201042015FA318738449BR  0000009042015353799-1                000022
100005081901447983010420150144798301042015FA318738452BR  0000007042015353799-2                000023
100005082401447986010420150144798601042015FA318738483BR  0000009042015353809-1                000024
100005083201447789310320150144778931032015FA318736876BR  0000010042015353815-1                000025
9000024                                                                                       000026
