0RETORNONOTIFICAÇÃO ELETRONICA        12072010OCOR                                            000001
100002276800294198220620100029419822062010RL724412985BR  0000008072010103644-2                000002
100002284100294412230620100029441223062010RL724415125BR  0000008072010103872-3                000003
100002284900295187240620100029518724062010RL724422872BR  0000008072010103964-4                000004
100002291300296374290620100029637429062010RL724434703BR  0000008072010104256-3                000005
100002291400296375290620100029637529062010RL724434717BR  0000808072010104256-4                000006
100002294500296881290620100029688129062010RL724439422BR  0000008072010104347-3                000007
100002296200297572010720100029757201072010RL751184055BR  0000008072010104503-1                000008
100002296300297573010720100029757301072010RL751184069BR  0000008072010104503-2                000009
100002296400297574010720100029757401072010RL751184072BR  0000009072010104503-6                000010
100002296800297776010720100029777601072010RL751186422BR  0000108072010104670-5                000011
9000010                                                                                       000012
