0RETORNONOTIFICAÇÃO ELETRONICA        11022014OCOR                                            000001
100004598801117737140120140111773714012014FA188473031BR  0001230012014277917-3                000002
100004592201121861210120140112186121012014FA188510600BR  0000031012014279699-1                000003
100004595601121868210120140112186821012014FA188510675BR  0000030012014279701-5                000004
100004606201121880210120140112188021012014FA188510794BR  0000030012014279709-1                000005
100004606601121882210120140112188221012014FA188510817BR  0000031012014279709-3                000006
100004609101121885210120140112188521012014FA188510848BR  0000030012014279710-1                000007
100004610401122613220120140112261322012014FA245701763BR  0000003022014279976-2                000008
100004610901122616220120140112261622012014FA245701794BR  0000006022014279976-6                000009
100004611901126222280120140112622228012014FA245734293BR  0000006022014280781-1                000010
100004611801126224280120140112622428012014FA245734316BR  0000004022014280781-3                000011
100004613601126226280120140112622628012014FA245734333BR  0000006022014280782-2                000012
100004615001126228280120140112622828012014FA245734355BR  0000003022014280992-2                000013
100004615101126229280120140112622928012014FA245734364BR  0000004022014280992-3                000014
100004616201126918290120140112691829012014FA245741833BR  0000004022014281569-1                000015
100004617401126919290120140112691929012014FA245741847BR  0001205022014281570-1                000016
100004617501126920290120140112692029012014FA245741855BR  0000203022014281570-2                000017
100004619001128960300120140112896030012014FA245761909BR  0000007022014281903-1                000018
100004619101128961300120140112896130012014FA245761912BR  0000006022014281903-2                000019
100004619201128962300120140112896230012014FA245761926BR  0000006022014281903-3                000020
100004619301128963300120140112896330012014FA245761930BR  0000006022014281903-4                000021
100004622401130400310120140113040031012014FA245775837BR  0000006022014282142-2                000022
100004622701130403310120140113040331012014FA245775868BR  0000004022014282142-6                000023
100004622901130405310120140113040531012014FA245775885BR  0000005022014282142-8                000024
100004623301130409310120140113040931012014FA245775925BR  0000007022014282142-23               000025
100004612601132418040220140113241804022014FA245794822BR  0000007022014282557-5                000026
100004618201132433040220140113243304022014FA245794972BR  0000006022014282557-20               000027
100004619801132434040220140113243404022014FA245794986BR  0000007022014282557-21               000028
100004623801132439040220140113243904022014FA245795037BR  0000007022014282557-26               000029
100004625501132441040220140113244104022014FA245795054BR  0000107022014282810-1                000030
100004625601132442040220140113244204022014FA245795068BR  0000007022014282810-2                000031
9000030                                                                                       000032
