0RETORNONOTIFICAÇÃO ELETRONICA        08022013OCOR                                            000001
100003920100872463131220120087246313122012FA063024255BR  0000208012013210415-2                000002
100003929800873827191220120087382719122012FA063164337BR  0000028012013211626-3                000003
100003937100874660201220120087466020122012FA063044816BR  0000007012013211948-7                000004
100003938300874964211220120087496421122012FA063047636BR  0000004012013212133-1                000005
100003941400876221271220120087622127122012FA063059413BR  0000104012013212387-1                000006
100003941100876223271220120087622327122012FA063059435BR  0000007012013212387-3                000007
100003941300876224271220120087622427122012FA063059444BR  0000007012013212387-4                000008
100003941200876225271220120087622527122012FA063059458BR  0000007012013212387-6                000009
100003941000876226271220120087622627122012FA063059461BR  0000007012013212387-7                000010
100003944300885766100120130088576610012013FA063151418BR  0000018012013215013-1                000011
100003946200885516100120130088551610012013FA063148918BR  0000016012013215265-1                000012
100003946800885518100120130088551810012013FA063148935BR  0000018012013215265-3                000013
100003946700885519100120130088551910012013FA063148949BR  0000017012013215265-4                000014
100003946500885521100120130088552110012013FA063148966BR  0000017012013215265-10               000015
100003946900885522100120130088552210012013FA063148970BR  0000017012013215265-11               000016
100003946000885525100120130088552510012013FA063149003BR  0000018012013215265-17               000017
100003949400885526100120130088552610012013FA063149017BR  0000017012013215269-1                000018
100003945300885527100120130088552710012013FA063149025BR  0000030012013215269-3                000019
100003945100885528100120130088552810012013FA063149034BR  0000017012013215269-4                000020
100003943900885529100120130088552910012013FA063149048BR  0000017012013215269-5                000021
100003940000885530100120130088553010012013FA063149051BR  0000018012013215269-6                000022
100003941900885531100120130088553110012013FA063149065BR  0000021012013215269-7                000023
100003940400885532100120130088553210012013FA063149079BR  0000017012013215269-8                000024
100003950300885533100120130088553310012013FA063149082BR  0000017012013215273-1                000025
100003950100885534100120130088553410012013FA063149096BR  0000021012013215273-2                000026
100003950200885536100120130088553610012013FA063149119BR  0000021012013215273-4                000027
100003950500885537100120130088553710012013FA063149122BR  0000017012013215273-5                000028
100003952300885538100120130088553810012013FA063149136BR  0000018012013215278-1                000029
100003952500885539100120130088553910012013FA063149140BR  0000021012013215278-2                000030
100003951800885540100120130088554010012013FA063149153BR  0000021012013215278-3                000031
100003952800885541100120130088554110012013FA063149167BR  0000018012013215278-4                000032
100003951900885542100120130088554210012013FA063149175BR  0000021012013215278-5                000033
100003952200885543100120130088554310012013FA063149184BR  0000021012013215278-6                000034
100003952000885545100120130088554510012013FA063149207BR  0000021012013215278-8                000035
100003952600885546100120130088554610012013FA063149215BR  0000017012013215278-9                000036
100003952900885547100120130088554710012013FA063149224BR  0000017012013215278-10               000037
100003952700885549100120130088554910012013FA063149241BR  0000717012013215278-12               000038
100003954700885551100120130088555110012013FA063149269BR  0000025012013215285-2                000039
100003954800885552100120130088555210012013FA063149272BR  0000017012013215285-3                000040
100003954900885553100120130088555310012013FA063149286BR  0000018012013215285-4                000041
100003954500885554100120130088555410012013FA063149290BR  0000017012013215285-7                000042
100003955800885555100120130088555510012013FA063149309BR  0000016012013215289-1                000043
100003956000885556100120130088555610012013FA063149312BR  0000016012013215289-2                000044
100003955900885557100120130088555710012013FA063149326BR  0000016012013215289-3                000045
100003953500885558100120130088555810012013FA063149330BR  0000017012013215289-4                000046
100003958400885559100120130088555910012013FA063149343BR  0000017012013215290-1                000047
100003958500885560100120130088556010012013FA063149357BR  0000018012013215290-2                000048
100003958600885561100120130088556110012013FA063149365BR  0000018012013215290-3                000049
100003958700885562100120130088556210012013FA063149374BR  0000017012013215290-4                000050
100003958800885563100120130088556310012013FA063149388BR  0000018012013215290-5                000051
100003960800885564100120130088556410012013FA063149391BR  0000018012013215292-1                000052
100003960900885565100120130088556510012013FA063149405BR  0000018012013215292-2                000053
100003960700885566100120130088556610012013FA063149414BR  0002318012013215292-3                000054
100003960500885567100120130088556710012013FA063149428BR  0000017012013215292-4                000055
100003962300885568100120130088556810012013FA063149431BR  0000017012013215292-8                000056
100003961000885569100120130088556910012013FA063149445BR  0000016012013215292-9                000057
100003959800885570100120130088557010012013FA063149459BR  0000021012013215292-11               000058
100003960200885571100120130088557110012013FA063149462BR  0000021012013215292-12               000059
100003960100885572100120130088557210012013FA063149476BR  0000021012013215292-13               000060
100003960000885573100120130088557310012013FA063149480BR  0000021012013215292-14               000061
100003959900885574100120130088557410012013FA063149493BR  0000021012013215292-15               000062
100003962000885577100120130088557710012013FA063149520BR  0000018012013215292-18               000063
100003964200885581100120130088558110012013FA063149564BR  0000021012013215294-2                000064
100003964300885582100120130088558210012013FA063149578BR  0000017012013215294-3                000065
100003962500885583100120130088558310012013FA063149581BR  0000021012013215294-4                000066
100003962600885584100120130088558410012013FA063149595BR  0000016012013215294-6                000067
100003966900885585100120130088558510012013FA063149604BR  0000021012013215295-1                000068
100003964600885586100120130088558610012013FA063149618BR  0000017012013215295-2                000069
100003964700885587100120130088558710012013FA063149621BR  0000017012013215295-3                000070
100003964900885588100120130088558810012013FA063149635BR  0000018012013215295-5                000071
100003965100885589100120130088558910012013FA063149649BR  0000021012013215295-6                000072
100003965400885590100120130088559010012013FA063149652BR  0000017012013215295-8                000073
100003965300885591100120130088559110012013FA063149666BR  0000021012013215295-9                000074
100003965200885592100120130088559210012013FA063149670BR  0000017012013215295-11               000075
100003965000885593100120130088559310012013FA063149683BR  0000017012013215295-12               000076
100003964800885594100120130088559410012013FA063149697BR  0000017012013215295-13               000077
100003968800895087290120130089508729012013FA063240064BR  0000004022013218284-1                000078
100003967100895088290120130089508829012013FA063240078BR  0000004022013218284-2                000079
100003967000895089290120130089508929012013FA063240081BR  0000004022013218284-4                000080
100003967200895090290120130089509029012013FA063240095BR  0000004022013218284-5                000081
100003969200895091290120130089509129012013FA063240104BR  0000004022013218286-1                000082
100003969300895092290120130089509229012013FA063240118BR  0000007022013218286-2                000083
100003969100895093290120130089509329012013FA063240121BR  0000004022013218286-3                000084
100003969400895094290120130089509429012013FA063240135BR  0002306022013218286-4                000085
100003969000895096290120130089509629012013FA063240152BR  0000004022013218286-7                000086
100003971100895097290120130089509729012013FA063240166BR  0000004022013218288-1                000087
100003972800895098290120130089509829012013FA063240170BR  0000004022013218290-1                000088
100003972600895099290120130089509929012013FA063240183BR  0000008022013218290-2                000089
100003972700895100290120130089510029012013FA063240197BR  0000004022013218290-3                000090
100003972900895101290120130089510129012013FA063240206BR  0000004022013218290-5                000091
100003972100895102290120130089510229012013FA063240210BR  0000006022013218293-1                000092
100003974000895104290120130089510429012013FA063240237BR  0000004022013218293-3                000093
100003974300895105290120130089510529012013FA063240245BR  0000004022013218293-4                000094
100003972300895106290120130089510629012013FA063240254BR  0000008022013218293-5                000095
100003973200895107290120130089510729012013FA063240268BR  0000004022013218293-6                000096
100003973300895108290120130089510829012013FA063240271BR  0000008022013218293-7                000097
100003973400895109290120130089510929012013FA063240285BR  0000008022013218293-8                000098
100003974400895111290120130089511129012013FA063240308BR  0000004022013218293-10               000099
100003974500895112290120130089511229012013FA063240311BR  0000004022013218293-11               000100
100003975500895113290120130089511329012013FA063240325BR  0000007022013218293-12               000101
100003973100895114290120130089511429012013FA063240339BR  0000007022013218293-13               000102
100003974600895115290120130089511529012013FA063240342BR  0000008022013218293-14               000103
100003976600895116290120130089511629012013FA063240356BR  0000008022013218294-1                000104
100003976700895117290120130089511729012013FA063240360BR  0000008022013218294-2                000105
100003977600895119290120130089511929012013FA063240387BR  0000004022013218297-3                000106
100003977800895120290120130089512029012013FA063240395BR  0000004022013218297-4                000107
100003977700895121290120130089512129012013FA063240400BR  0000004022013218297-5                000108
100003977500895122290120130089512229012013FA063240413BR  0000004022013218297-7                000109
100003978000895123290120130089512329012013FA063240427BR  0000008022013218297-8                000110
100003978200895124290120130089512429012013FA063240435BR  0000004022013218297-9                000111
100003979100895125290120130089512529012013FA063240444BR  0000008022013218301-1                000112
100003979900895126290120130089512629012013FA063240458BR  0000007022013218301-2                000113
100003973500895127290120130089512729012013FA063240461BR  0000008022013218301-3                000114
100003979200895128290120130089512829012013FA063240475BR  0000004022013218301-4                000115
100003979300895129290120130089512929012013FA063240489BR  0000004022013218301-5                000116
100003979400895130290120130089513029012013FA063240492BR  0000004022013218301-6                000117
100003980000895131290120130089513129012013FA063240501BR  0000008022013218301-7                000118
100003980300895133290120130089513329012013FA063240529BR  0000106022013218301-9                000119
100003980200895134290120130089513429012013FA063240532BR  0000008022013218301-10               000120
100003980100895135290120130089513529012013FA063240546BR  0000008022013218301-11               000121
100003980800895136290120130089513629012013FA063240550BR  0000004022013218301-12               000122
100003980900895137290120130089513729012013FA063240563BR  0000004022013218301-13               000123
100003983600895138290120130089513829012013FA063240577BR  0000007022013218303-1                000124
100003981900895139290120130089513929012013FA063240585BR  0000508022013218303-2                000125
100003983400895141290120130089514129012013FA063240603BR  0000001022013218303-4                000126
100003981800895142290120130089514229012013FA063240617BR  0000008022013218303-5                000127
100003982100895143290120130089514329012013FA063240625BR  0000004022013218303-6                000128
100003981700895146290120130089514629012013FA063240651BR  0000004022013218303-9                000129
100003982400895147290120130089514729012013FA063240665BR  0000008022013218303-10               000130
100003983900895149290120130089514929012013FA063240682BR  0000007022013218304-3                000131
100003984100895151290120130089515129012013FA063240705BR  0000004022013218304-5                000132
100003983800895152290120130089515229012013FA063240719BR  0000004022013218304-7                000133
100003984400895153290120130089515329012013FA063240722BR  0000004022013218304-11               000134
100003984800895154290120130089515429012013FA063240736BR  0000006022013218304-12               000135
100003984200895156290120130089515629012013FA063240753BR  0000004022013218304-14               000136
100003984600895157290120130089515729012013FA063240767BR  0000007022013218304-15               000137
100003985000895158290120130089515829012013FA063240775BR  0000006022013218304-16               000138
100003985500895159290120130089515929012013FA063240784BR  0000004022013218305-1                000139
100003987400895160290120130089516029012013FA063240798BR  0000007022013218305-2                000140
100003987500895161290120130089516129012013FA063240807BR  0000007022013218305-3                000141
100003986000895162290120130089516229012013FA063240815BR  0000004022013218305-4                000142
100003986100895163290120130089516329012013FA063240824BR  0000004022013218305-5                000143
100003986400895164290120130089516429012013FA063240838BR  0000004022013218305-6                000144
100003986200895165290120130089516529012013FA063240841BR  0000004022013218305-7                000145
100003985800895166290120130089516629012013FA063240855BR  0000004022013218305-8                000146
100003987100895167290120130089516729012013FA063240869BR  0000004022013218305-9                000147
100003985900895168290120130089516829012013FA063240872BR  0000008022013218305-10               000148
100003985600895169290120130089516929012013FA063240886BR  0000004022013218305-11               000149
100003985700895170290120130089517029012013FA063240890BR  0000008022013218305-13               000150
100003994700900132050220130090013205022013FA063288464BR  0000008022013219593-17               000151
100003998900900144050220130090014405022013FA063288583BR  0000008022013220041-4                000152
9000151                                                                                       000153
