0RETORNONOTIFICAÇÃO ELETRONICA        03102012OCOR                                            000001
100003764700827868130920120082786813092012FA012398341BR  0000001102012193599-16               000002
100003770000828071130920120082807113092012FA012400371BR  0000001102012193619-8                000003
100003766900833322260920120083332226092012FA012449922BR  0000001102012195796-3                000004
100003772400833323260920120083332326092012FA012449936BR  0000001102012195796-4                000005
100003780500833336260920120083333626092012FA012450069BR  0000001102012195798-10               000006
9000005                                                                                       000007
