0RETORNONOTIFICAÇÃO ELETRONICA        12032014OCOR                                            000001
100004622501130401310120140113040131012014FA245775845BR  0000027022014282142-3                000002
100004623401130410310120140113041031012014FA245775939BR  0000707032014282142-24               000003
100004632401139668110220140113966811022014FA245863602BR  0000028022014284244-3                000004
100004639101140940130220140114094013022014FA245875614BR  0000028022014284621-4                000005
100004642301140944130220140114094413022014FA245875659BR  0000006032014284923-4                000006
100004642401140945130220140114094513022014FA245875662BR  0000028022014284923-5                000007
100004640701141657140220140114165714022014FA245881800BR  0000027022014285204-1                000008
100004642901141661140220140114166114022014FA245881844BR  0000028022014285204-5                000009
100004644801141902170220140114190217022014FA245884151BR  0000006032014285515-7                000010
100004646001142634180220140114263418022014FA245890262BR  0000027022014285749-3                000011
100004647601145578240220140114557824022014FA245917645BR  0000006032014286542-1                000012
100004647701145579240220140114557924022014FA245917654BR  0000028022014286542-2                000013
100004647801145580240220140114558024022014FA245917668BR  0000006032014286542-3                000014
100004647901145581240220140114558124022014FA245917671BR  0000007032014286542-4                000015
100004648001145582240220140114558224022014FA245917685BR  0000006032014286542-6                000016
100004649301145583240220140114558324022014FA245917699BR  0000006032014286542-7                000017
100004649801145585240220140114558524022014FA245917711BR  0000006032014286543-1                000018
100004649901145586240220140114558624022014FA245917725BR  0000006032014286543-2                000019
100004650001145587240220140114558724022014FA245917739BR  0000006032014286543-3                000020
100004650101145588240220140114558824022014FA245917742BR  0000010032014286543-4                000021
100004651801145589240220140114558924022014FA245917756BR  0002310032014286543-6                000022
100004652601148321250220140114832125022014FA245943186BR  0000007032014287107-1                000023
100004652701148322250220140114832225022014FA245943190BR  0000007032014287107-2                000024
100004653101148323250220140114832325022014FA245943209BR  0000007032014287107-3                000025
100004653201148324250220140114832425022014FA245943212BR  0000010032014287107-4                000026
100004654901153005280220140115300528022014FA245987584BR  0000010032014287526-9                000027
100004655101153007280220140115300728022014FA245987607BR  0000010032014287611-2                000028
100004655301153009280220140115300928022014FA245987624BR  0000007032014287611-4                000029
9000028                                                                                       000030
