0RETORNONOTIFICAÇÃO ELETRONICA        04122014OCOR                                            000001
100005009701382272181120140138227218112014FA318269975BR  0000028112014333314-2                000002
100005010601382275181120140138227518112014FA318270001BR  0000003122014333314-7                000003
100005010801382277181120140138227718112014FA318270029BR  0000028112014333314-13               000004
100005010901382278181120140138227818112014FA318270032BR  0000028112014333314-14               000005
100005011001382279181120140138227918112014FA318270046BR  0000003122014333314-15               000006
100005011101382280181120140138228018112014FA318270050BR  0000028112014333314-17               000007
100005011201382281181120140138228118112014FA318270063BR  0000028112014333314-19               000008
100005011401382283181120140138228318112014FA318270085BR  0000228112014333314-22               000009
100005011501382284181120140138228418112014FA318270094BR  0000003122014333314-39               000010
100005011601382285181120140138228518112014FA318270103BR  0000028112014333314-50               000011
100005011901382288181120140138228818112014FA318270134BR  0001228112014333314-76               000012
100005012201382291181120140138229118112014FA318270165BR  0000028112014333314-82               000013
100005012301382292181120140138229218112014FA318270179BR  0000128112014333314-83               000014
100005012501382294181120140138229418112014FA318270196BR  0000028112014333314-87               000015
100005012601382295181120140138229518112014FA318270205BR  0000128112014333314-88               000016
100005012701382296181120140138229618112014FA318270219BR  0000002122014333314-89               000017
100005012801382297181120140138229718112014FA318270222BR  0000028112014333314-90               000018
100005013001382299181120140138229918112014FA318270240BR  0000928112014333314-94               000019
100005013201382301181120140138230118112014FA318270267BR  0000028112014333314-105              000020
100005013301382302181120140138230218112014FA318270275BR  0000028112014333314-108              000021
100005013401382303181120140138230318112014FA318270284BR  0000002122014333314-114              000022
100005014101383798191120140138379819112014FA318280750BR  0000201122014333574-17               000023
100005014301383800191120140138380019112014FA318280777BR  0000028112014333574-19               000024
100005014401383801191120140138380119112014FA318280785BR  0000401122014333574-20               000025
100005015001385962241120140138596224112014FA318298486BR  0000003122014334161-1                000026
100005015701385963241120140138596324112014FA318298490BR  0000003122014334161-2                000027
100005015801385964241120140138596424112014FA318298509BR  0000003122014334161-4                000028
100005015901385965241120140138596524112014FA318298512BR  0000003122014334161-8                000029
100005009201385967241120140138596724112014FA318298530BR  0000003122014334164-1                000030
100005009301385968241120140138596824112014FA318298543BR  0000003122014334164-2                000031
100005010201385969241120140138596924112014FA318298557BR  0000003122014334164-3                000032
100005013701385970241120140138597024112014FA318298565BR  0000002122014334164-4                000033
100005015401385971241120140138597124112014FA318298574BR  0000001122014334164-5                000034
100005016201385973241120140138597324112014FA318298591BR  0000002122014334164-8                000035
100005016301385974241120140138597424112014FA318298605BR  0000003122014334164-9                000036
100005016401385975241120140138597524112014FA318298614BR  0000002122014334164-10               000037
100005016501385976241120140138597624112014FA318298628BR  0000003122014334164-11               000038
100005016601385977241120140138597724112014FA318298631BR  0000001122014334164-12               000039
100005016701385978241120140138597824112014FA318298645BR  0000028112014334164-13               000040
100005017001385979241120140138597924112014FA318298659BR  0000002122014334164-16               000041
100005017201385981241120140138598124112014FA318298676BR  0000003122014334166-2                000042
100005017401390134271120140139013427112014FA318324654BR  0000002122014334341-2                000043
100005017501390135271120140139013527112014FA318324668BR  0000203122014334341-3                000044
100005018001390138271120140139013827112014FA318324699BR  0000203122014334740-3                000045
9000044                                                                                       000046
