0RETORNONOTIFICAÇÃO ELETRONICA        09082013OCOR                                            000001
100004274501007466300720130100746630072013FA136420047BR  0000008082013248876-4                000002
100004276301007469300720130100746930072013FA136420078BR  0000008082013248886-3                000003
100004278901007493310720130100749331072013FA136420223BR  0000008082013248951-4                000004
100004279001007497310720130100749731072013FA136420268BR  0000008082013248951-8                000005
100004281901007500310720130100750031072013FA136420299BR  0000008082013248952-2                000006
100004285301007506310720130100750631072013FA136420356BR  0000008082013249061-2                000007
100004284901007514310720130100751431072013FA136420435BR  0000007082013249061-10               000008
100004285001007515310720130100751531072013FA136420444BR  0000007082013249061-12               000009
100004287301007516310720130100751631072013FA136420458BR  0000008082013249062-1                000010
100004283401007517310720130100751731072013FA136420461BR  0000007082013249062-2                000011
100004295901008196010820130100819601082013FA136427059BR  0000008082013249164-1                000012
100004297701008204010820130100820401082013FA136427133BR  0000007082013249170-1                000013
100004297501008206010820130100820601082013FA136427155BR  0000008082013249170-3                000014
100004299301008219010820130100821901082013FA136427283BR  0000008082013249172-14               000015
100004300801008220010820130100822001082013FA136427297BR  0000208082013249172-15               000016
100004302301008222010820130100822201082013FA136427310BR  0000008082013249172-19               000017
100004301501008230010820130100823001082013FA136427399BR  0000008082013249172-37               000018
100004300901008236010820130100823601082013FA136427456BR  0000008082013249172-46               000019
100004303701008238010820130100823801082013FA136427473BR  0000007082013249205-2                000020
100004303901008242010820130100824201082013FA136427513BR  0000007082013249205-6                000021
100004307001008248010820130100824801082013FA136427575BR  0001207082013249219-4                000022
100004306901008250010820130100825001082013FA136427592BR  0000007082013249219-6                000023
100004309701008262010820130100826201082013FA136427717BR  0000007082013249283-1                000024
100004312401008266010820130100826601082013FA136427751BR  0000008082013249287-2                000025
100004315901008268010820130100826801082013FA136427779BR  0000008082013249290-1                000026
100004312201008269010820130100826901082013FA136427782BR  0000007082013249290-2                000027
100004322601008287010820130100828701082013FA136427969BR  0000008082013249295-34               000028
100004322001008293010820130100829301082013FA136428023BR  0000008082013249295-94               000029
100004318801008297010820130100829701082013FA136428068BR  0000008082013249295-135              000030
100004319001008298010820130100829801082013FA136428071BR  0000008082013249295-136              000031
100004323201008304010820130100830401082013FA136428139BR  0000208082013249313-5                000032
100004325701008310010820130100831001082013FA136428195BR  0000008082013249313-22               000033
100004322701008322010820130100832201082013FA136428315BR  0000107082013249313-59               000034
9000033                                                                                       000035
