0RETORNONOTIFICAÇÃO ELETRONICA        08102013OCOR                                            000001
100004420901039773240920130103977324092013FA159379201BR  0000007102013258721-3                000002
100004415301039774240920130103977424092013FA159379215BR  0000004102013258721-5                000003
100004420801039776240920130103977624092013FA159379232BR  0000003102013258721-7                000004
100004422201039777240920130103977724092013FA159379246BR  0000003102013258721-9                000005
100004423101039778240920130103977824092013FA159379250BR  0000003102013258721-10               000006
100004422501039779240920130103977924092013FA159379263BR  0000004102013258721-11               000007
100004422401039780240920130103978024092013FA159379277BR  0000004102013258721-12               000008
100004423501041102260920130104110226092013FA159392168BR  0000004102013259163-2                000009
100004423601041103260920130104110326092013FA159392171BR  0001207102013259163-4                000010
100004423701041104260920130104110426092013FA159392185BR  0000007102013259163-7                000011
100004426101041105260920130104110526092013FA159392199BR  0000007102013259163-8                000012
100004429301041107260920130104110726092013FA159392211BR  0000007102013259163-11               000013
100004429201041108260920130104110826092013FA159392225BR  0000007102013259163-13               000014
100004429001041110260920130104111026092013FA159392242BR  0000007102013259163-16               000015
100004428901041111260920130104111126092013FA159392256BR  0001207102013259163-17               000016
100004428801041112260920130104111226092013FA159392260BR  0000007102013259163-18               000017
100004428701041113260920130104111326092013FA159392273BR  0000007102013259163-20               000018
100004428601041114260920130104111426092013FA159392287BR  0000007102013259163-22               000019
100004428401041116260920130104111626092013FA159392300BR  0000004102013259163-25               000020
100004428301041117260920130104111726092013FA159392313BR  0000007102013259163-27               000021
100004428201041118260920130104111826092013FA159392327BR  0000007102013259163-28               000022
100004428101041119260920130104111926092013FA159392335BR  0000007102013259163-29               000023
100004427801041122260920130104112226092013FA159392361BR  0000007102013259163-33               000024
100004427601041124260920130104112426092013FA159392389BR  0001204102013259163-36               000025
100004427401041126260920130104112626092013FA159392401BR  0000007102013259163-38               000026
100004427301041127260920130104112726092013FA159392415BR  0000004102013259163-42               000027
100004427101041129260920130104112926092013FA159392432BR  0000007102013259163-49               000028
100004427001041130260920130104113026092013FA159392446BR  0000003102013259163-51               000029
100004426901041131260920130104113126092013FA159392450BR  0000007102013259163-54               000030
100004426801041132260920130104113226092013FA159392463BR  0000003102013259163-57               000031
100004426701041133260920130104113326092013FA159392477BR  0000007102013259163-60               000032
100004426601041134260920130104113426092013FA159392485BR  0000007102013259163-62               000033
100004426401041136260920130104113626092013FA159392503BR  0000007102013259163-67               000034
100004426301041137260920130104113726092013FA159392517BR  0002307102013259163-70               000035
100004426201041138260920130104113826092013FA159392525BR  0000007102013259163-72               000036
100004423301041139260920130104113926092013FA159392534BR  0000003102013259163-73               000037
100004423401041140260920130104114026092013FA159392548BR  0000007102013259163-74               000038
100004429601041141260920130104114126092013FA159392551BR  0000007102013259164-1                000039
100004429501041142260920130104114226092013FA159392565BR  0000004102013259164-2                000040
100004432401041143260920130104114326092013FA159392579BR  0000007102013259386-1                000041
100004432301041144260920130104114426092013FA159392582BR  0000003102013259386-2                000042
100004433401042930270920130104293027092013FA159397430BR  0000004102013259606-1                000043
100004433501042931270920130104293127092013FA159397443BR  0000004102013259606-3                000044
100004433201042932270920130104293227092013FA159397457BR  0000007102013259606-4                000045
100004436201043127270920130104312727092013FA159412171BR  0000003102013259845-1                000046
100004435801043128270920130104312827092013FA159412185BR  0000003102013259845-2                000047
100004436001043132270920130104313227092013FA159412225BR  0000007102013259845-7                000048
100004435601043133270920130104313327092013FA159412239BR  0000004102013259845-8                000049
100004431201044348011020130104434801102013FA159423112BR  0000007102013260103-1                000050
9000049                                                                                       000051
