0RETORNONOTIFICAÇÃO ELETRONICA        06042011OCOR                                            000001
100002677000491295210320110049129521032011RL893951039BR  0000005042011125197-5                000002
100002684000497738240320110049773824032011RL955668332BR  0000005042011125619-3                000003
100002684000498246250320110049824625032011RL955673292BR  0000005042011125619-4                000004
100002684100498247250320110049824725032011RL955673301BR  0000005042011125619-6                000005
9000004                                                                                       000006
