0RETORNONOTIFICAÇÃO ELETRONICA        02052011OCOR                                            000001
100002709600507291070420110050729107042011RL963868976BR  0000702052011127186-20               000002
100002715000508235110420110050823511042011RL963877465BR  0000002052011127617-26               000003
100002718100510119140420110051011914042011RL963894052BR  0000002052011127826-8                000004
100002720600510128140420110051012814042011RL963894145BR  0000002052011127827-10               000005
100002723600511026150420110051102615042011RL963902156BR  0000002052011128062-2                000006
100002723800511028150420110051102815042011RL963902173BR  0000002052011128062-6                000007
100002725200511657180420110051165718042011RL963907873BR  0000002052011128216-9                000008
100002726100511661180420110051166118042011RL963907913BR  0000702052011128216-13               000009
9000008                                                                                       000010
