0RETORNONOTIFICAÇÃO ELETRONICA        06122013OCOR                                            000001
100004521501077881141120130107788114112013FA188096511BR  0001203122013268647-81               000002
100004537301084524271120130108452427112013FA188159021BR  0000705122013270698-2                000003
100004528901084526271120130108452627112013FA188159049BR  0000003122013270698-16               000004
100004450501084528271120130108452827112013FA188159066BR  0000004122013270698-18               000005
100004537401084536271120130108453627112013FA188159145BR  0000003122013270698-26               000006
100004539501084539271120130108453927112013FA188159171BR  0000003122013270870-3                000007
100004541001085572281120130108557228112013FA188169240BR  0000003122013271067-5                000008
100004542501087638291120130108763829112013FA188186835BR  0000004122013271290-2                000009
9000008                                                                                       000010
