0RETORNONOTIFICAÇÃO ELETRONICA        10092013OCOR                                            000001
100004368301018845230820130101884523082013FA159176835BR  0000009092013253296-1                000002
100004367801018847230820130101884723082013FA159176858BR  0000006092013253296-4                000003
100004367201026455020920130102645502092013FA159251284BR  0000006092013254496-1                000004
100004355701026456020920130102645602092013FA159251298BR  0000005092013254496-2                000005
100004355601026458020920130102645802092013FA159251315BR  0000005092013254496-4                000006
100004357301026459020920130102645902092013FA159251324BR  0000005092013254496-5                000007
100004373401026464020920130102646402092013FA159251372BR  0000009092013254496-10               000008
100004361401026465020920130102646502092013FA159251386BR  0000009092013254496-11               000009
100004369401026477020920130102647702092013FA159251505BR  0000009092013254497-6                000010
100004375401026478020920130102647802092013FA159251514BR  0000006092013254497-7                000011
100004375601026483020920130102648302092013FA159251562BR  0000005092013254497-12               000012
100004375501026484020920130102648402092013FA159251576BR  0000006092013254497-13               000013
100004375301026485020920130102648502092013FA159251580BR  0000009092013254497-14               000014
100004377201026488020920130102648802092013FA159251616BR  0000006092013254712-3                000015
100004380101027052030920130102705203092013FA159256556BR  0000009092013254899-1                000016
9000015                                                                                       000017
