0RETORNONOTIFICAÇÃO ELETRONICA        12092011OCOR                                            000001
100002976300613105260820110061310526082011RM948300264BR  0000009092011142150-4                000002
100002986100616075010920110061607501092011JL014573560BR  0000009092011142714-2                000003
100002986200616076010920110061607601092011JL014573573BR  0000009092011142714-3                000004
100002986300616077010920110061607701092011JL014573587BR  0000009092011142714-4                000005
100002995300616082010920110061608201092011RM948326641BR  0000009092011142714-7                000006
100002995400616079010920110061607901092011RM948326624BR  0000009092011142714-8                000007
100002988800616698020920110061669802092011JL014573936BR  0000009092011143116-5                000008
100002991800616705020920110061670502092011RM948331641BR  0000009092011143116-12               000009
100002996700616708020920110061670802092011RM948331672BR  0000009092011143116-15               000010
9000009                                                                                       000011
