0RETORNONOTIFICAÇÃO ELETRONICA        20122011OCOR                                            000001
100003241800000000000000000000000000000000RQ046287509BR  0000019122011154791-11               000002
100003196800687231121220110068723112122011JL014611308BR  0000119122011155078-1                000003
100003245400687233121220110068723312122011RQ046296050BR  0000019122011155078-3                000004
9000003                                                                                       000005
