0RETORNONOTIFICAÇÃO ELETRONICA        01102010OCOR                                            000001
100002400400390735150920100039073515092010RL793223024BR  0000001102010111131-1                000002
100002401700390736150920100039073615092010RL793223038BR  0000001102010111131-2                000003
100002410400390738150920100039073815092010RL793223055BR  0000001102010111131-4                000004
100002410800390742150920100039074215092010RL793223090BR  0000001102010111131-8                000005
100002411300390747150920100039074715092010RL793223143BR  0000001102010111131-18               000006
100002413300390750150920100039075015092010RL793223174BR  0000001102010111131-21               000007
100002418300391533170920100039153317092010RL793230935BR  0000001102010111380-3                000008
100002418400392181210920100039218121092010RL793237363BR  0000001102010111380-5                000009
100002418500391535170920100039153517092010RL793230952BR  0000001102010111380-12               000010
100002419200391690200920100039169020092010RL793232508BR  0000001102010111520-6                000011
100002419300391691200920100039169120092010RL793232511BR  0001201102010111520-7                000012
100002419500391693200920100039169320092010RL793232539BR  0000001102010111520-10               000013
100002419600391694200920100039169420092010RL793232542BR  0000001102010111520-13               000014
100002419800391696200920100039169620092010RL793232560BR  0000001102010111520-15               000015
100002419900391697200920100039169720092010RL793232573BR  0000001102010111520-16               000016
100002420300391701200920100039170120092010RL793232613BR  0000001102010111520-22               000017
100002420400391702200920100039170220092010RL793232627BR  0000001102010111520-23               000018
100002420500391703200920100039170320092010RL793232635BR  0000001102010111520-24               000019
100002421700392182210920100039218221092010RL793237377BR  0000001102010111628-1                000020
100002421800392183210920100039218321092010RL793237385BR  0000001102010111628-2                000021
100002421900392184210920100039218421092010RL793237394BR  0000001102010111628-3                000022
100002422000392185210920100039218521092010RL793237403BR  0000001102010111628-4                000023
100002422100392186210920100039218621092010RL793237417BR  0000001102010111628-5                000024
100002424800392188210920100039218821092010RL793237434BR  0000001102010111628-10               000025
100002413200393673220920100039367322092010RL793252272BR  0000001102010111756-1                000026
100002426400393674220920100039367422092010RL793252286BR  0000001102010111756-2                000027
100002426500393675220920100039367522092010RL793252290BR  0000001102010111756-3                000028
100002426700393677220920100039367722092010RL793252312BR  0000001102010111756-5                000029
100002426800393678220920100039367822092010RL793252326BR  0000001102010111756-6                000030
100002426900393679220920100039367922092010RL793252330BR  0000001102010111756-7                000031
100002427000393680220920100039368022092010RL793252343BR  0000101102010111756-8                000032
100002427100393681220920100039368122092010RL793252357BR  0000001102010111756-9                000033
9000032                                                                                       000034
