0RETORNONOTIFICAÇÃO ELETRONICA        06082010OCOR                                            000001
100002321300304238160720100030423816072010RL751250236BR  0000005082010105798-10               000002
100002332200307573230720100030757323072010RL751283530BR  0000005082010106309-1                000003
100002332300307574230720100030757423072010RL751283543BR  0000104082010106309-3                000004
100002332400307575230720100030757523072010RL751283557BR  0000004082010106309-4                000005
100002335000307577230720100030757723072010RL751283574BR  0000005082010106450-2                000006
100002335100307578230720100030757823072010RL751283588BR  0000005082010106450-7                000007
100002335200307579230720100030757923072010RL751283591BR  0000005082010106450-11               000008
100002335300307580230720100030758023072010RL751283605BR  0000005082010106450-12               000009
100002335500308858260720100030885826072010RL751296388BR  0000005082010106555-1                000010
100002337700308859260720100030885926072010RL751296391BR  0000005082010106702-1                000011
100002337800308860260720100030886026072010RL751296405BR  0000005082010106702-2                000012
100002337900308861260720100030886126072010RL751296414BR  0000005082010106702-3                000013
100002338000308862260720100030886226072010RL751296428BR  0000005082010106702-4                000014
100002340900311593290720100031159329072010RL751323653BR  0000005082010106952-2                000015
100002344800311603290720100031160329072010RL751323755BR  0000005082010107083-7                000016
9000015                                                                                       000017
