0RETORNONOTIFICAÇÃO ELETRONICA        06012014OCOR                                            000001
100004570501098162201220130109816220122013FA188289004BR  0000003012014274360-3                000002
100004570101098166201220130109816620122013FA188289049BR  0000003012014274360-7                000003
100004572601098169201220130109816920122013FA188289070BR  0000003012014274574-1                000004
100004578701100690261220130110069026122013FA188313587BR  0000003012014274949-3                000005
100004561401100692261220130110069226122013FA188313600BR  0000003012014274949-5                000006
100004565001100693261220130110069326122013FA188313613BR  0000003012014274949-6                000007
100004578401100694261220130110069426122013FA188313627BR  0000003012014274949-7                000008
100004577501100696261220130110069626122013FA188313644BR  0000003012014274949-9                000009
100004576901100700261220130110070026122013FA188313689BR  0000003012014274949-13               000010
100004577101100703261220130110070326122013FA188313715BR  0000003012014274949-16               000011
100004577001100704261220130110070426122013FA188313729BR  0000003012014274949-17               000012
100004578601100712261220130110071226122013FA188313803BR  0000003012014274949-25               000013
9000012                                                                                       000014
