0RETORNONOTIFICAÇÃO ELETRONICA        14012014OCOR                                            000001
100004552001100698261220130110069826122013FA188313661BR  0000010012014274949-11               000002
100004580301100699261220130110069926122013FA188313675BR  0000010012014274949-12               000003
100004581901102704271220130110270427122013FA188331651BR  0000010012014275193-1                000004
100004585801107404020120140110740402012014FA188376794BR  0000008012014275403-2                000005
100004581101107405020120140110740502012014FA188376803BR  0000013012014275582-1                000006
100004587301107406020120140110740602012014FA188376817BR  0000009012014275582-2                000007
100004579201107407020120140110740702012014FA188376825BR  0000009012014275582-3                000008
100004581001107408020120140110740802012014FA188376834BR  0000009012014275582-4                000009
100004590201107416020120140110741602012014FA188376919BR  0000009012014275587-5                000010
9000009                                                                                       000011
