0RETORNONOTIFICAÇÃO ELETRONICA        08052012OCOR                                            000001
100003500200754283260420120075428326042012FR851963773BR  0000707052012172058-21               000002
100003501100754292260420120075429226042012FR851963861BR  0000007052012172058-70               000003
100003501500754296260420120075429626042012FR851963901BR  0000807052012172058-108              000004
100003506500000000000000000000000000000000FR851987390BR  0000007052012172350-10               000005
9000004                                                                                       000006
