0RETORNONOTIFICAÇÃO ELETRONICA        29042014OCOR                                            000001
100004610501122614220120140112261422012014FA245899743BR  0000222042014279976-3                000002
100004676501174065180320140117406518032014FA246166656BR  0000007042014290179-3                000003
100004677701174069180320140117406918032014FA246166695BR  0000004042014290179-8                000004
100004689601177959250320140117795925032014FA270806964BR  0000004042014291677-15               000005
100004683101179791270320140117979127032014FA270822848BR  0000004042014292053-4                000006
100004686101179796270320140117979627032014FA270822896BR  0000007042014292053-9                000007
100004690501179800270320140117980027032014FA270822936BR  0000007042014292053-13               000008
100004691801179802270320140117980227032014FA270822953BR  0000007042014292406-2                000009
100004692201179806270320140117980627032014FA270822998BR  0000004042014292406-8                000010
100004693201179808270320140117980827032014FA270823018BR  0000004042014292408-3                000011
100004705301193840100420140119384010042014FA270943470BR  0000025042014294333-1                000012
100004706901193843100420140119384310042014FA270943506BR  0000022042014294723-5                000013
100004707001193844100420140119384410042014FA270943510BR  0000022042014294723-6                000014
100004707301193847100420140119384710042014FA270943545BR  0000228042014294723-9                000015
100004709101193850100420140119385010042014FA270943571BR  0000025042014294880-2                000016
100004709401193853100420140119385310042014FA270943608BR  0000022042014294880-5                000017
100004709501193854100420140119385410042014FA270943611BR  0000022042014294880-7                000018
100004709701193856100420140119385610042014FA270943639BR  0000022042014294880-9                000019
100004698101197127140420140119712714042014FA270973508BR  0000023042014295349-1                000020
100004698201197128140420140119712814042014FA270973511BR  0000023042014295349-2                000021
100004698301197129140420140119712914042014FA270973525BR  0000023042014295349-3                000022
100004700601197130140420140119713014042014FA270973539BR  0000023042014295349-4                000023
100004700701197131140420140119713114042014FA270973542BR  0000023042014295349-5                000024
100004700901197132140420140119713214042014FA270973556BR  0000023042014295349-6                000025
100004701301197133140420140119713314042014FA270973560BR  0000023042014295349-7                000026
100004703301197134140420140119713414042014FA270973573BR  0000025042014295349-8                000027
100004705101197136140420140119713614042014FA270973595BR  0000023042014295349-10               000028
100004705801197137140420140119713714042014FA270973600BR  0000023042014295349-11               000029
100004706001197138140420140119713814042014FA270973613BR  0000023042014295349-12               000030
100004710501197139140420140119713914042014FA270973627BR  0000023042014295349-13               000031
100004710601197140140420140119714014042014FA270973635BR  0000022042014295349-15               000032
100004710701197141140420140119714114042014FA270973644BR  0000023042014295349-16               000033
100004710901197143140420140119714314042014FA270973661BR  0000023042014295349-18               000034
100004711101197145140420140119714514042014FA270973689BR  0001225042014295349-20               000035
100004711801197146140420140119714614042014FA270973692BR  0000025042014295349-21               000036
100004711901197147140420140119714714042014FA270973701BR  0000025042014295349-22               000037
100004712001197148140420140119714814042014FA270973715BR  0000025042014295349-23               000038
100004712101197149140420140119714914042014FA270973729BR  0000022042014295350-1                000039
100004712201197150140420140119715014042014FA270973732BR  0000023042014295350-2                000040
100004712301197151140420140119715114042014FA270973746BR  0000028042014295350-3                000041
100004713401198951150420140119895115042014FA270986974BR  0000023042014295643-1                000042
100004713501198952150420140119895215042014FA270986988BR  0000023042014295643-2                000043
100004713601198953150420140119895315042014FA270986991BR  0000028042014295643-3                000044
100004714501201046170420140120104617042014FA271005474BR  0000825042014296021-2                000045
100004714601201047170420140120104717042014FA271005488BR  0000025042014296021-3                000046
100004714701201048170420140120104817042014FA271005491BR  0000025042014296021-4                000047
100004714901201050170420140120105017042014FA271005514BR  0000028042014296021-6                000048
100004715001201051170420140120105117042014FA271005528BR  0000028042014296021-7                000049
100004715101201052170420140120105217042014FA271005531BR  0000024042014296021-8                000050
100004717001201053170420140120105317042014FA271005545BR  0000024042014296104-1                000051
100004717401201056170420140120105617042014FA271005576BR  0000023042014296104-4                000052
100004717501201057170420140120105717042014FA271005580BR  0000025042014296104-6                000053
100004717601201058170420140120105817042014FA271005593BR  0000025042014296104-7                000054
100004718301201060170420140120106017042014FA271005616BR  0000928042014296104-10               000055
100004720801203871240420140120387124042014FA271026029BR  0000028042014296804-5                000056
100004722901203872240420140120387224042014FA271026032BR  0000028042014296805-1                000057
9000056                                                                                       000058
