0RETORNONOTIFICAÇÃO ELETRONICA        27032013OCOR                                            000001
100003994200900126050220130090012605022013FA104818005BR  0000026032013219593-3                000002
100004030800905693200220130090569320022013FA063340005BR  0000025032013222440-7                000003
100004052200909537260220130090953726022013FA104732825BR  0000008032013223538-1                000004
100004052100909541260220130090954126022013FA104732865BR  0000012032013223538-5                000005
100004054400910175270220130091017527022013FA104738911BR  0000113032013223790-3                000006
100004054800910176270220130091017627022013FA104738925BR  0000012032013223790-6                000007
100004054700910177270220130091017727022013FA104738939BR  0000012032013223790-9                000008
100004054600910178270220130091017827022013FA104738942BR  0000111032013223790-11               000009
100004054500910179270220130091017927022013FA104738956BR  0000511032013223790-14               000010
100004054200910180270220130091018027022013FA104738960BR  0000018032013223790-15               000011
100004059200910852280220130091085228022013FA104745237BR  0000012032013224040-2                000012
100004059100910853280220130091085328022013FA104745245BR  0000011032013224040-9                000013
100004058800910856280220130091085628022013FA104745271BR  0000011032013224040-12               000014
100004058200910857280220130091085728022013FA104745285BR  0000011032013224040-13               000015
100004058400910858280220130091085828022013FA104745299BR  0000011032013224040-16               000016
100004058300910859280220130091085928022013FA104745308BR  0000015032013224040-25               000017
100004056300910860280220130091086028022013FA104745311BR  0000008032013224040-29               000018
100004058500910862280220130091086228022013FA104745339BR  0000008032013224040-31               000019
100004056200910863280220130091086328022013FA104745342BR  0000011032013224040-32               000020
100004056100910864280220130091086428022013FA104745356BR  0000008032013224040-33               000021
100004059700913072040320130091307204032013FA104766529BR  0000008032013224444-1                000022
100004059800913073040320130091307304032013FA104766532BR  0000012032013224444-2                000023
100004059500913074040320130091307404032013FA104766546BR  0000011032013224444-3                000024
100004059600913075040320130091307504032013FA104766550BR  0000008032013224444-4                000025
100004059400913076040320130091307604032013FA104766563BR  0000015032013224444-5                000026
100004059300913077040320130091307704032013FA104766577BR  0000014032013224444-12               000027
100004062400920127200320130092012720032013FA104833492BR  0000026032013227376-2                000028
100004062500920132200320130092013220032013FA104833546BR  0000025032013227376-8                000029
100004064700920133200320130092013320032013FA104833550BR  0000026032013227382-1                000030
100004064600920135200320130092013520032013FA104833577BR  0000026032013227382-3                000031
100004065000920137200320130092013720032013FA104833594BR  0000025032013227382-6                000032
100004064900920141200320130092014120032013FA104833634BR  0000026032013227382-12               000033
9000032                                                                                       000034
