0RETORNONOTIFICAÇÃO ELETRONICA        06032012OCOR                                            000001
100003395300722635270220120072263527022012RQ030523638BR  0000006032012164227-2                000002
100003398000723283280220120072328328022012RQ030530109BR  0000006032012164361-1                000003
100003398100723284280220120072328428022012RQ030530112BR  0000006032012164361-5                000004
100003398900723957290220120072395729022012RQ030536835BR  0000006032012164559-3                000005
100003399000723958290220120072395829022012RQ030536849BR  0000006032012164559-4                000006
100003399200723960290220120072396029022012RQ030536866BR  0000006032012164559-6                000007
100003396700723962290220120072396229022012RQ030536883BR  0000006032012164707-1                000008
100003404000723963290220120072396329022012RQ030536897BR  0000006032012164707-2                000009
100003404100723964290220120072396429022012RQ030536906BR  0000006032012164707-3                000010
100003404200723965290220120072396529022012RQ030536910BR  0000006032012164707-4                000011
100003404500723968290220120072396829022012RQ030536945BR  0000006032012164707-7                000012
100003405700723970290220120072397029022012RQ030536968BR  0000006032012164707-10               000013
100003406900000000000000000000000000000000RQ030530090BR  0000006032012164707-24               000014
100003407100724398010320120072439801032012RQ030541194BR  0000006032012164909-2                000015
100003407200724399010320120072439901032012RQ030541203BR  0000206032012164909-3                000016
9000015                                                                                       000017
