0RETORNONOTIFICAÇÃO ELETRONICA        10032010OCOR                                            000001
100002035700243149220220100024314922022010FR584347263BR  000000903201086452-1                 000002
100002038200243151220220100024315122022010FR584347285BR  000000903201086452-3                 000003
100002050300246557250220100024655725022010FR584382000BR  000000903201086813-1                 000004
100002054000246559250220100024655925022010FR584382027BR  000000903201086814-2                 000005
100002054600246560250220100024656025022010FR584382035BR  000000903201086814-3                 000006
100002054700246561250220100024656125022010FR584382044BR  000000903201086814-4                 000007
100002057000246562250220100024656225022010FR584382058BR  000000903201086815-1                 000008
100002058300246563250220100024656325022010FR584382061BR  000000903201086815-2                 000009
9000008                                                                                       000010
