0RETORNONOTIFICAÇÃO ELETRONICA        15092014OCOR                                            000001
100004895001315431030920140131543103092014FA294460729BR  0000012092014318998-3                000002
100004894701315436030920140131543603092014FA294460777BR  0000012092014319696-1                000003
100004897101315438030920140131543803092014FA294460794BR  0000012092014319696-3                000004
100004897801315442030920140131544203092014FA294460834BR  0000012092014319696-7                000005
100004901801315453030920140131545303092014FA294460940BR  0000012092014319778-3                000006
100004906000000000000000000000000000000000FA294503424BR  0000012092014320413-113              000007
100004906000000000000000000000000000000000FA294503438BR  0000012092014320413-143              000008
100004906601321375090920140132137509092014FA294503455BR  0000012092014320461-2                000009
100004906701321376090920140132137609092014FA294503469BR  0000012092014320461-3                000010
100004907601321385090920140132138509092014FA294503557BR  0000012092014320743-9                000011
100004907701321386090920140132138609092014FA294503565BR  0000012092014320743-10               000012
9000011                                                                                       000013
