0RETORNONOTIFICAÇÃO ELETRONICA        03112011OCOR                                            000001
100002999300621280080920110062128008092011RM948373916BR  0000801112011143513-5                000002
100003140400647381201020110064738120102011RQ047811810BR  0000001112011148731-18               000003
100003147700648168241020110064816824102011RQ047819402BR  0000001112011149067-9                000004
100003149300651274261020110065127426102011RQ047850075BR  0000001112011149237-8                000005
100003149400651275261020110065127526102011RQ047850084BR  0000001112011149237-9                000006
100003151000651929271020110065192927102011RQ047856396BR  0000001112011149439-11               000007
9000006                                                                                       000008
