0RETORNONOTIFICAÇÃO ELETRONICA        10122012OCOR                                            000001
100003871700861516231120120086151623112012FA062922415BR  0000007122012206124-1                000002
100003877000864465281120120086446528112012FA062948832BR  0000006122012207251-6                000003
100003881600864470281120120086447028112012FA062948885BR  0000006122012207252-2                000004
100003881700864471281120120086447128112012FA062948894BR  0000006122012207252-3                000005
100003879700864472281120120086447228112012FA062948903BR  0000006122012207252-4                000006
100003879500864474281120120086447428112012FA062948925BR  0000006122012207252-6                000007
100003879600864475281120120086447528112012FA062948934BR  0000006122012207252-7                000008
100003882000864479281120120086447928112012FA062948979BR  0000006122012207253-4                000009
100003883800864483281120120086448328112012FA062949016BR  0000006122012207255-5                000010
100003883700864484281120120086448428112012FA062949020BR  0000506122012207255-6                000011
100003883900864486281120120086448628112012FA062949047BR  0000006122012207255-8                000012
100003887000865160301120120086516030112012FA062955100BR  0000006122012207733-1                000013
100003887200865162301120120086516230112012FA062955127BR  0000007122012207733-3                000014
100003887300865163301120120086516330112012FA062955135BR  0000006122012207733-4                000015
100003887400865165301120120086516530112012FA062955158BR  0000006122012207733-6                000016
100003890000865167301120120086516730112012FA062955175BR  0000007122012207753-1                000017
100003892300865169301120120086516930112012FA062955192BR  0000006122012207753-3                000018
100003892600865171301120120086517130112012FA062955215BR  0000007122012207805-1                000019
100003892400865173301120120086517330112012FA062955232BR  0000006122012207805-3                000020
100003895900865179301120120086517930112012FA062955294BR  0000007122012207901-2                000021
100003896100865181301120120086518130112012FA062955317BR  0000007122012207901-4                000022
100003895800865186301120120086518630112012FA062955365BR  0000007122012207901-9                000023
100003898900865189301120120086518930112012FA062955396BR  0000006122012207901-60               000024
100003898700865191301120120086519130112012FA062955419BR  0000007122012207901-108              000025
100003896000865193301120120086519330112012FA062955436BR  0001206122012207901-129              000026
100003895700865194301120120086519430112012FA062955440BR  0000006122012207901-130              000027
9000026                                                                                       000028
