0RETORNONOTIFICAÇÃO ELETRONICA        19122011OCOR                                            000001
100003234700685157061220110068515706122011JL014610537BR  0000716122011154524-13               000002
100003241700000000000000000000000000000000RQ046287490BR  0000016122011154791-2                000003
100003242200686416091220110068641609122011RQ046288005BR  0000016122011154923-3                000004
100003242300686417091220110068641709122011RQ046288019BR  0000016122011154923-8                000005
100003245100686424091220110068642409122011JL014611223BR  0000016122011154923-20               000006
100003245300686426091220110068642609122011JL014611245BR  0000016122011154923-22               000007
9000006                                                                                       000008
