0RETORNONOTIFICAÇÃO ELETRONICA        03012012OCOR                                            000001
100003263400694297281220110069429728122011JL014615622BR  0000003012012156767-3                000002
100003204100694300281220110069430028122011RQ046362876BR  0000003012012156768-3                000003
100003204400694302281220110069430228122011RQ046362893BR  0000003012012156768-5                000004
100003204700694305281220110069430528122011RQ046362920BR  0000003012012156768-8                000005
100003266900694309281220110069430928122011RQ046362955BR  0000003012012156771-1                000006
100003267200694312281220110069431228122011RQ046362981BR  0000003012012156771-5                000007
100003267300694313281220110069431328122011JL014615640BR  0000003012012156771-6                000008
100003204200694319281220110069431928122011RQ046363046BR  0000003012012156773-4                000009
100003208500694320281220110069432028122011JL014615653BR  0000003012012156773-5                000010
100003211900694325281220110069432528122011RQ046363077BR  0000003012012156773-10               000011
100003212000694326281220110069432628122011RQ046363085BR  0000503012012156773-11               000012
100003212700694327281220110069432728122011RQ046363094BR  0000003012012156773-12               000013
100003273400694350281220110069435028122011RQ046363179BR  0000003012012156776-2                000014
100003273500694351281220110069435128122011RQ046363182BR  0000003012012156776-5                000015
100003273600694352281220110069435228122011RQ046363196BR  0000003012012156776-6                000016
9000015                                                                                       000017
