0RETORNONOTIFICAÇÃO ELETRONICA        08022010OCOR                                            000001
100002001900224375210120100022437521012010FR584156618BR  000000502201083115-1                 000002
100002002600224377210120100022437721012010FR584156635BR  000000402201083115-3                 000003
100002004000225989250120100022598925012010FR584173134BR  000000302201083689-2                 000004
100002004700225992250120100022599225012010FR584173165BR  000000502201083689-5                 000005
100002008100230791280120100023079128012010FR584222714BR  000000502201083986-1                 000006
100002008600230792280120100023079228012010FR584222728BR  000000302201083986-2                 000007
100002009100230793280120100023079328012010FR584222731BR  000000502201083986-3                 000008
100002009200230794280120100023079428012010FR584222745BR  000000502201083986-4                 000009
100002009400230795280120100023079528012010FR584222759BR  000000302201083986-5                 000010
100002009500230796280120100023079628012010FR584222762BR  000000302201083986-6                 000011
9000010                                                                                       000012
