0RETORNONOTIFICAÇÃO ELETRONICA        14092010OCOR                                            000001
100002255700000000000000000000000000000000RL793185309BR  0000014092010102383-5                000002
100002255800000000000000000000000000000000RL793185312BR  0000014092010102383-7                000003
100002362600000000000000000000000000000000RL793180814BR  0000014092010108209-7                000004
100002362900000000000000000000000000000000RL793180828BR  0000014092010108209-11               000005
100002390400385377300820100038537730082010RL793168835BR  0000014092010109867-10               000006
9000005                                                                                       000007
