0RETORNONOTIFICAÇÃO ELETRONICA        04052012OCOR                                            000001
100003483000751544190420120075154419042012FR851936455BR  0000002052012171365-5                000002
100003488400752635240420120075263524042012FR851947325BR  0000703052012171808-1                000003
100003488500752636240420120075263624042012FR851947339BR  0000002052012171808-2                000004
100003488600752637240420120075263724042012FR851947342BR  0000703052012171808-4                000005
100003488800752639240420120075263924042012FR851947360BR  0000002052012171808-7                000006
100003489300752642240420120075264224042012FR851947395BR  0000002052012171808-10               000007
100003489400752643240420120075264324042012FR851947400BR  0000002052012171808-11               000008
100003490400752646240420120075264624042012FR851947435BR  0000002052012171808-23               000009
100003490600752648240420120075264824042012FR851947458BR  0000002052012171808-34               000010
100003490900752651240420120075265124042012FR851947489BR  0000002052012171808-39               000011
100003491100752653240420120075265324042012FR851947501BR  0000002052012171808-43               000012
100003491300752655240420120075265524042012FR851947529BR  0000002052012171808-50               000013
100003491400752656240420120075265624042012FR851947532BR  0000002052012171808-57               000014
100003491500752657240420120075265724042012FR851947546BR  0000703052012171816-1                000015
100003493000752665240420120075266524042012FR851947625BR  0000002052012171816-9                000016
100003493400752666240420120075266624042012FR851947634BR  0000003052012171816-10               000017
100003493900752668240420120075266824042012FR851947651BR  0000002052012171816-12               000018
100003496400752670240420120075267024042012FR851947679BR  0000003052012171816-14               000019
100003496700754272260420120075427226042012FR851963668BR  0000003052012172058-1                000020
100003496900754273260420120075427326042012FR851963671BR  0000003052012172058-4                000021
100003497000754274260420120075427426042012FR851963685BR  0000002052012172058-5                000022
100003497100754275260420120075427526042012FR851963699BR  0000003052012172058-6                000023
100003499500754276260420120075427626042012FR851963708BR  0000002052012172058-7                000024
100003499600754277260420120075427726042012FR851963711BR  0000003052012172058-8                000025
100003499700754278260420120075427826042012FR851963725BR  0000002052012172058-9                000026
100003499800754279260420120075427926042012FR851963739BR  0000002052012172058-10               000027
100003499900754280260420120075428026042012FR851963742BR  0000002052012172058-12               000028
100003500000754281260420120075428126042012FR851963756BR  0000003052012172058-14               000029
100003500300754284260420120075428426042012FR851963787BR  0000103052012172058-23               000030
100003500400754285260420120075428526042012FR851963795BR  0000203052012172058-27               000031
100003500500754286260420120075428626042012FR851963800BR  0000003052012172058-32               000032
100003500600754287260420120075428726042012FR851963813BR  0000003052012172058-37               000033
100003500700754288260420120075428826042012FR851963827BR  0000103052012172058-43               000034
100003500900754290260420120075429026042012FR851963844BR  0000103052012172058-55               000035
100003501000754291260420120075429126042012FR851963858BR  0000003052012172058-63               000036
100003501200754293260420120075429326042012FR851963875BR  0000103052012172058-80               000037
100003501400754295260420120075429526042012FR851963892BR  0000002052012172058-97               000038
100003501600754615270420120075461527042012FR851967090BR  0000003052012172338-1                000039
100003501800754617270420120075461727042012FR851967112BR  0000003052012172338-3                000040
100003502000754619270420120075461927042012FR851967130BR  0000002052012172338-6                000041
100003504200754620270420120075462027042012FR851967143BR  0000003052012172338-7                000042
9000041                                                                                       000043
