0RETORNONOTIFICAÇÃO ELETRONICA        04062012OCOR                                            000001
100003537200765191180520120076519118052012FR852072804BR  0000031052012175276-8                000002
100003535700765199180520120076519918052012FR852072883BR  0000031052012175282-2                000003
100003535800765200180520120076520018052012FR852072897BR  0000031052012175282-3                000004
100003535900765201180520120076520118052012FR852072906BR  0000031052012175282-4                000005
100003542600767355220520120076735522052012FR971503456BR  0000031052012175705-3                000006
100003543000767356220520120076735622052012FR971503460BR  0000001062012175705-4                000007
100003544400767359220520120076735922052012FR971503495BR  0000031052012175705-7                000008
100003544600767361220520120076736122052012FR971503513BR  0000031052012175705-12               000009
100003544800767363220520120076736322052012FR971503535BR  0000031052012175705-16               000010
100003544900767364220520120076736422052012FR971503544BR  0000031052012175705-19               000011
100003545100767366220520120076736622052012FR971503561BR  0000031052012175705-24               000012
100003545200767367220520120076736722052012FR971503575BR  0000031052012175705-54               000013
100003545300767368220520120076736822052012FR971503589BR  0000031052012175705-58               000014
100003545500767370220520120076737022052012FR971503601BR  0000031052012175710-2                000015
100003545900767371220520120076737122052012FR971503615BR  0000001062012175710-3                000016
100003537600768977240520120076897724052012FR971519601BR  0000001062012175960-1                000017
100003538000768978240520120076897824052012FR971519615BR  0000001062012175960-2                000018
100003546700768979240520120076897924052012FR971519629BR  0000001062012175960-3                000019
100003546800768980240520120076898024052012FR971519632BR  0000001062012175960-4                000020
100003546900768981240520120076898124052012FR971519646BR  0000001062012175960-5                000021
100003547000768982240520120076898224052012FR971519650BR  0000001062012175960-6                000022
100003547100768983240520120076898324052012FR971519663BR  0000001062012175960-7                000023
100003548000768984240520120076898424052012FR971519677BR  0000001062012175960-8                000024
100003549000768986240520120076898624052012FR971519694BR  0000031052012175960-10               000025
100003549100768987240520120076898724052012FR971519703BR  0000031052012175960-11               000026
9000025                                                                                       000027
