0RETORNONOTIFICAÇÃO ELETRONICA        18122014OCOR                                            000001
100005002601372237061120140137223706112014FA294881664BR  0000015122014331523-6                000002
100005006601390130271120140139013027112014FA318324610BR  0000009122014332614-1                000003
100005011801382287181120140138228718112014FA318270125BR  0000012122014333314-74               000004
100005013801383795191120140138379519112014FA318280729BR  0000409122014333574-2                000005
100005016001385966241120140138596624112014FA318298526BR  0000009122014334161-9                000006
100005017301390133271120140139013327112014FA318324645BR  0000009122014334341-1                000007
100005018701390141271120140139014127112014FA318324725BR  0000409122014334742-3                000008
100005018801390142271120140139014227112014FA318324739BR  0000009122014334742-4                000009
100005019301391269281120140139126928112014FA318333293BR  0000015122014334963-1                000010
100005019401391270281120140139127028112014FA318333307BR  0000011122014334963-2                000011
100005019801392108011220140139210801122014FA318340250BR  0000009122014335165-1                000012
100005020001392110011220140139211001122014FA318340277BR  0000010122014335165-3                000013
100005020701392112011220140139211201122014FA318340294BR  0000012122014335165-6                000014
100005020801392113011220140139211301122014FA318340308BR  0000012122014335165-14               000015
100005020901392114011220140139211401122014FA318340317BR  0000010122014335165-15               000016
100005021001392115011220140139211501122014FA318340325BR  0000012122014335165-18               000017
100005021101392116011220140139211601122014FA318340334BR  0000015122014335165-21               000018
100005021201392117011220140139211701122014FA318340348BR  0000009122014335165-25               000019
100005021301392118011220140139211801122014FA318340351BR  0000009122014335165-27               000020
100005021401392119011220140139211901122014FA318340365BR  0000010122014335165-30               000021
100005022301396526031220140139652603122014FA318393008BR  0000109122014335646-1                000022
100005022601396527031220140139652703122014FA318393014BR  0000015122014335648-1                000023
100005022701396528031220140139652803122014FA318393028BR  0000012122014335648-2                000024
100005022801396529031220140139652903122014FA318393031BR  0000009122014335648-3                000025
100005022901396530031220140139653003122014FA318393045BR  0000015122014335648-4                000026
100005023101396532031220140139653203122014FA318393062BR  0000015122014335648-7                000027
100005023201396533031220140139653303122014FA318393076BR  0000012122014335648-8                000028
100005023301396534031220140139653403122014FA318393080BR  0000015122014335648-9                000029
100005023401396535031220140139653503122014FA318393093BR  0000212122014335648-10               000030
100005023801398067051220140139806705122014FA318410202BR  0000015122014336050-1                000031
100005023901398068051220140139806805122014FA318410211BR  0000015122014336050-2                000032
100005024301398069051220140139806905122014FA318410225BR  0000015122014336050-3                000033
100005024401398070051220140139807005122014FA318410239BR  0000015122014336050-4                000034
100005024501398071051220140139807105122014FA318410242BR  0000015122014336050-5                000035
100005024601398072051220140139807205122014FA318410256BR  0000015122014336050-7                000036
100005024801398074051220140139807405122014FA318410273BR  0000015122014336050-9                000037
100005024901398075051220140139807505122014FA318410287BR  0000015122014336050-10               000038
100005025101398076051220140139807605122014FA318410295BR  0000015122014336050-11               000039
100005025401398078051220140139807805122014FA318410313BR  0000015122014336053-1                000040
100005025501398079051220140139807905122014FA318410327BR  0000015122014336053-2                000041
9000040                                                                                       000042
