0RETORNONOTIFICAÇÃO ELETRONICA        10072012OCOR                                            000001
100003596800780023190620120078002319062012FR971628252BR  0000009072012179643-8                000002
100003602800784377260620120078437726062012FR971671689BR  0000006072012180647-1                000003
100003603000784379260620120078437926062012FR971671701BR  0000005072012180647-3                000004
100003604400784380260620120078438026062012FR971671715BR  0000005072012180649-1                000005
100003604800784382260620120078438226062012FR971671732BR  0001205072012180649-3                000006
100003604900784383260620120078438326062012FR971671746BR  0000005072012180649-4                000007
100003605000784384260620120078438426062012FR971671750BR  0000005072012180649-5                000008
100003605500784385260620120078438526062012FR971671763BR  0000006072012180649-6                000009
100003606600784389260620120078438926062012FR971671803BR  0000009072012180649-10               000010
100003606700784390260620120078439026062012FR971671817BR  0000005072012180650-1                000011
100003606800784391260620120078439126062012FR971671825BR  0000005072012180650-2                000012
100003606900784392260620120078439226062012FR971671834BR  0000005072012180650-7                000013
100003607100784393260620120078439326062012FR971671848BR  0000006072012180650-8                000014
100003599400788008020720120078800802072012FR971707644BR  0000009072012181506-3                000015
100003599500788009020720120078800902072012FR971707658BR  0000009072012181506-4                000016
100003599600788010020720120078801002072012FR971707661BR  0000009072012181506-5                000017
100003599700788011020720120078801102072012FR971707675BR  0000009072012181506-6                000018
100003600000788012020720120078801202072012FR971707689BR  0000009072012181506-7                000019
100003608300788013020720120078801302072012FR971707692BR  0000009072012181506-8                000020
100003608500788015020720120078801502072012FR971707715BR  0000009072012181506-10               000021
100003608900788019020720120078801902072012FR971707750BR  0000009072012181506-15               000022
100003609000788020020720120078802002072012FR971707763BR  0000009072012181506-19               000023
100003609500788021020720120078802102072012FR971707777BR  0000009072012181506-20               000024
100003610800788023020720120078802302072012FR971707794BR  0000009072012181508-2                000025
100003611900788025020720120078802502072012FR971707817BR  0000009072012181509-1                000026
100003612000788026020720120078802602072012FR971707825BR  0000009072012181509-2                000027
100003612100788027020720120078802702072012FR971707834BR  0000009072012181509-6                000028
100003612500788031020720120078803102072012FR971707879BR  0000009072012181509-16               000029
100003612600788032020720120078803202072012FR971707882BR  0000009072012181509-22               000030
100003612700788033020720120078803302072012FR971707896BR  0000009072012181509-24               000031
100003613200788035020720120078803502072012FR971707919BR  0000009072012181509-26               000032
100003613300788036020720120078803602072012FR971707922BR  0000009072012181509-27               000033
100003613400788037020720120078803702072012FR971707936BR  0000009072012181509-28               000034
100003615000788039020720120078803902072012FR971707953BR  0000509072012181509-32               000035
100003615100788040020720120078804002072012FR971707967BR  0000009072012181509-34               000036
100003615200788041020720120078804102072012FR971707975BR  0001205072012181509-36               000037
100003615500788044020720120078804402072012FR971708004BR  0001205072012181509-46               000038
100003615600788045020720120078804502072012FR971708018BR  0000009072012181509-50               000039
100003598300788046020720120078804602072012FR971708021BR  0000009072012181510-1                000040
100003598400788047020720120078804702072012FR971708035BR  0000009072012181510-2                000041
100003598500788048020720120078804802072012FR971708049BR  0000009072012181510-3                000042
100003598800788049020720120078804902072012FR971708052BR  0000009072012181510-4                000043
100003598900788050020720120078805002072012FR971708066BR  0000009072012181510-5                000044
100003599300788053020720120078805302072012FR971708097BR  0000009072012181510-8                000045
100003599800788054020720120078805402072012FR971708106BR  0000009072012181510-9                000046
100003599900788055020720120078805502072012FR971708110BR  0000009072012181510-10               000047
100003611300788056020720120078805602072012FR971708123BR  0000009072012181510-11               000048
100003615700788057020720120078805702072012FR971708137BR  0000009072012181510-12               000049
100003615800788058020720120078805802072012FR971708145BR  0000009072012181510-13               000050
100003615900788059020720120078805902072012FR971708154BR  0000009072012181510-14               000051
100003616100788061020720120078806102072012FR971708171BR  0000009072012181510-17               000052
100003617200788064020720120078806402072012FR971708208BR  0000009072012181510-20               000053
9000052                                                                                       000054
