0RETORNONOTIFICAÇÃO ELETRONICA        08082012OCOR                                            000001
100003615300788042020720120078804202072012FR971707984BR  0002307082012181509-39               000002
100003654100799987300720120079998730072012FR971826730BR  0000006082012185350-1                000003
100003654200799988300720120079998830072012FR971826743BR  0000006082012185350-2                000004
100003654300799989300720120079998930072012FR971826757BR  0000006082012185350-3                000005
100003655500799990300720120079999030072012FR971826765BR  0000006082012185350-10               000006
100003655600799991300720120079999130072012FR971826774BR  0000006082012185350-11               000007
100003655700799992300720120079999230072012FR971826788BR  0000006082012185350-12               000008
100003655800799993300720120079999330072012FR971826791BR  0000007082012185350-19               000009
100003655900799994300720120079999430072012FR971826805BR  0000006082012185350-20               000010
100003656000799995300720120079999530072012FR971826814BR  0000006082012185350-21               000011
100003656100799996300720120079999630072012FR971826828BR  0000006082012185350-23               000012
100003656200799997300720120079999730072012FR971826831BR  0000006082012185350-24               000013
100003656300799998300720120079999830072012FR971826845BR  0000006082012185350-28               000014
100003656400799999300720120079999930072012FR971826859BR  0000006082012185350-29               000015
100003656500800000300720120080000030072012FR971826862BR  0000006082012185350-31               000016
100003656600800001300720120080000130072012FR971826876BR  0000006082012185350-37               000017
100003656700800002300720120080000230072012FR971826880BR  0000006082012185350-44               000018
100003656800800003300720120080000330072012FR971826893BR  0000006082012185350-48               000019
100003656900800004300720120080000430072012FR971826902BR  0000007082012185350-50               000020
100003657000800005300720120080000530072012FR971826916BR  0000006082012185350-51               000021
100003657100800006300720120080000630072012FR971826920BR  0000006082012185352-1                000022
100003657200800007300720120080000730072012FR971826933BR  0000006082012185352-2                000023
100003657300800008300720120080000830072012FR971826947BR  0000006082012185352-3                000024
100003657400800009300720120080000930072012FR971826955BR  0000006082012185352-4                000025
100003657500800010300720120080001030072012FR971826964BR  0000006082012185352-5                000026
100003637300800013300720120080001330072012FR971826995BR  0000006082012185353-3                000027
100003637400800014300720120080001430072012FR971827001BR  0000006082012185353-4                000028
100003637500800015300720120080001530072012FR971827015BR  0000006082012185353-5                000029
100003638000800018300720120080001830072012FR971827046BR  0000006082012185353-8                000030
100003638100800019300720120080001930072012FR971827050BR  0000006082012185353-9                000031
100003638200800020300720120080002030072012FR971827063BR  0000006082012185353-10               000032
100003638300800021300720120080002130072012FR971827077BR  0000006082012185353-11               000033
100003638400800022300720120080002230072012FR971827085BR  0000006082012185353-12               000034
100003638500800023300720120080002330072012FR971827094BR  0000103082012185353-13               000035
100003638600800024300720120080002430072012FR971827103BR  0000103082012185353-14               000036
100003638700800025300720120080002530072012FR971827117BR  0000006082012185353-15               000037
100003638800800026300720120080002630072012FR971827125BR  0000006082012185353-16               000038
100003638900800027300720120080002730072012FR971827134BR  0000006082012185353-17               000039
100003639000800028300720120080002830072012FR971827148BR  0000006082012185353-18               000040
100003639800800029300720120080002930072012FR971827151BR  0000006082012185353-19               000041
100003639900800030300720120080003030072012FR971827165BR  0000006082012185353-20               000042
100003640100800032300720120080003230072012FR971827182BR  0000006082012185353-22               000043
100003640200800033300720120080003330072012FR971827196BR  0000006082012185353-23               000044
100003640300800034300720120080003430072012FR971827205BR  0000006082012185353-24               000045
100003640400800035300720120080003530072012FR971827219BR  0000006082012185353-25               000046
100003640500800036300720120080003630072012FR971827222BR  0000103082012185353-26               000047
100003640600800037300720120080003730072012FR971827236BR  0000103082012185353-27               000048
100003640700800038300720120080003830072012FR971827240BR  0000006082012185353-28               000049
100003642100800039300720120080003930072012FR971827253BR  0000006082012185353-29               000050
100003642300800041300720120080004130072012FR971827275BR  0000006082012185353-31               000051
100003642400800042300720120080004230072012FR971827284BR  0000006082012185353-32               000052
100003642800800044300720120080004430072012FR971827307BR  0000106082012185353-34               000053
100003642900800045300720120080004530072012FR971827315BR  0000103082012185353-35               000054
100003643000800046300720120080004630072012FR971827324BR  0000006082012185353-36               000055
100003658100800048300720120080004830072012FR971827341BR  0000006082012185353-38               000056
100003660300800051300720120080005130072012FR971827372BR  0000006082012185353-41               000057
100003660400800052300720120080005230072012FR971827386BR  0000006082012185353-42               000058
100003660500800053300720120080005330072012FR971827390BR  0000006082012185353-43               000059
100003660600800054300720120080005430072012FR971827409BR  0000006082012185353-44               000060
100003660700800055300720120080005530072012FR971827412BR  0000006082012185353-45               000061
100003663300800059300720120080005930072012FR971827457BR  0000006082012185353-49               000062
100003663400800060300720120080006030072012FR971827465BR  0000006082012185353-50               000063
100003663500801907310720120080190731072012FR971845875BR  0000006082012185787-1                000064
100003663700801909310720120080190931072012FR971845892BR  0000006082012185787-3                000065
100003664100801911310720120080191131072012FR971845915BR  0000807082012185787-5                000066
100003665900801917310720120080191731072012FR971845977BR  0001207082012185787-13               000067
100003666500801923310720120080192331072012FR971846031BR  0000107082012185787-19               000068
100003668000801938310720120080193831072012FR971846181BR  0000006082012185794-1                000069
100003668100801939310720120080193931072012FR971846195BR  0000006082012185794-2                000070
100003668200801940310720120080194031072012FR971846204BR  0000006082012185794-3                000071
100003668300801941310720120080194131072012FR971846218BR  0000006082012185794-4                000072
100003668400801942310720120080194231072012FR971846221BR  0000006082012185794-5                000073
100003668900801944310720120080194431072012FR971846249BR  0000006082012185794-7                000074
100003669500801946310720120080194631072012FR971846266BR  0000006082012185794-9                000075
100003669700801948310720120080194831072012FR971846283BR  0000006082012185794-24               000076
100003669800801949310720120080194931072012FR971846297BR  0000006082012185794-28               000077
100003669900801950310720120080195031072012FR971846306BR  0000006082012185794-29               000078
100003670300801955310720120080195531072012FR971846354BR  0000006082012185796-5                000079
100003670600801958310720120080195831072012FR971846385BR  0000006082012185796-9                000080
100003671800801959310720120080195931072012FR971846399BR  0000006082012185796-10               000081
100003671900801960310720120080196031072012FR971846408BR  0000006082012185796-11               000082
100003672000801961310720120080196131072012FR971846411BR  0000006082012185799-1                000083
100003672200801963310720120080196331072012FR971846439BR  0000006082012185799-3                000084
100003672300801964310720120080196431072012FR971846442BR  0000006082012185799-6                000085
100003672400801965310720120080196531072012FR971846456BR  0000006082012185799-7                000086
100003672600801967310720120080196731072012FR971846473BR  0000006082012185799-10               000087
100003674100801968310720120080196831072012FR971846487BR  0000006082012185799-11               000088
100003674200801969310720120080196931072012FR971846495BR  0000006082012185799-16               000089
100003672900801970310720120080197031072012FR971846500BR  0000006082012185804-1                000090
100003673400801971310720120080197131072012FR971846513BR  0000006082012185804-2                000091
100003674300801972310720120080197231072012FR971846527BR  0000006082012185804-3                000092
100003674500801974310720120080197431072012FR971846544BR  0000006082012185804-5                000093
100003676300000000000000000000000000000000FR971846575BR  0000006082012185804-8                000094
100003676300000000000000000000000000000000FR971847567BR  0000006082012185804-37               000095
100003676300000000000000000000000000000000FR971847575BR  0000006082012185804-66               000096
100003676400801978310720120080197831072012FR971846589BR  0000006082012185809-1                000097
100003676500801979310720120080197931072012FR971846592BR  0000006082012185809-2                000098
100003676600801980310720120080198031072012FR971846601BR  0000006082012185809-3                000099
100003676700801981310720120080198131072012FR971846615BR  0000006082012185809-4                000100
9000099                                                                                       000101
