0RETORNONOTIFICAÇÃO ELETRONICA        07072011OCOR                                            000001
100002801200553221090620110055322109062011JL014311935BR  0000004072011133261-8                000002
100002815400556516160620110055651616062011JL014343853BR  0000004072011133979-13               000003
100002816800556519160620110055651916062011JL014343884BR  0000004072011133979-16               000004
9000003                                                                                       000005
