0RETORNONOTIFICAÇÃO ELETRONICA        08122014OCOR                                            000001
100005007501390131271120140139013127112014FA318324623BR  0000004122014332614-2                000002
100005007901390132271120140139013227112014FA318324637BR  0000004122014332614-3                000003
100005016101385972241120140138597224112014FA318298588BR  0000005122014334164-6                000004
100005017101385980241120140138598024112014FA318298662BR  0000005122014334166-1                000005
100005017801390136271120140139013627112014FA318324671BR  0000404122014334740-1                000006
100005017901390137271120140139013727112014FA318324685BR  0000005122014334740-2                000007
100005018501390139271120140139013927112014FA318324702BR  0000005122014334742-1                000008
100005018601390140271120140139014027112014FA318324711BR  0000004122014334742-2                000009
100005019201390143271120140139014327112014FA318324742BR  0000004122014334742-8                000010
100005019901392109011220140139210901122014FA318340263BR  0000205122014335165-2                000011
100005020101392111011220140139211101122014FA318340285BR  0000005122014335165-4                000012
100005021501392120011220140139212001122014FA318340379BR  0000005122014335165-31               000013
100005021601392121011220140139212101122014FA318340382BR  0000005122014335165-34               000014
9000013                                                                                       000015
