0RETORNONOTIFICAÇÃO ELETRONICA        08032010OCOR                                            000001
100002039500243153220220100024315322022010FR584347303BR  000000503201086452-5                 000002
100002043100243157220220100024315722022010FR584347348BR  000000503201086454-2                 000003
100002043600243158220220100024315822022010FR584347351BR  000000303201086454-3                 000004
100002058500246565250220100024656525022010FR584382089BR  000000503201086815-5                 000005
9000004                                                                                       000006
