0RETORNONOTIFICAÇÃO ELETRONICA        18102010OCOR                                            000001
100002440600397843011020100039784301102010RL793293881BR  0000018102010112554-9                000002
100002445500000000000000000000000000000000RL793324615BR  0000018102010112792-11               000003
100002445600000000000000000000000000000000RL793324629BR  0000018102010112792-19               000004
100002439500400417071020100040041707102010RL793320468BR  0000018102010112886-7                000005
100002442300400419071020100040041907102010RL793320485BR  0000018102010112886-9                000006
100002442500400420071020100040042007102010RL793320499BR  0000018102010112886-10               000007
100002443300400422071020100040042207102010RL793320511BR  0000018102010112886-12               000008
100002443400400423071020100040042307102010RL793320525BR  0000018102010112886-13               000009
100002448500400424071020100040042407102010RL793320539BR  0000018102010112886-14               000010
100002448600400425071020100040042507102010RL793320542BR  0000018102010112886-15               000011
100002448700400426071020100040042607102010RL793320556BR  0000018102010112886-16               000012
100002448800400427071020100040042707102010RL793320560BR  0000018102010112886-17               000013
100002448000400431071020100040043107102010RL793320600BR  0000018102010112978-1                000014
100002450200400432071020100040043207102010RL793320613BR  0000018102010112978-2                000015
100002450400400433071020100040043307102010RL793320627BR  0000018102010112978-3                000016
100002451200400434071020100040043407102010RL793320635BR  0000018102010112978-4                000017
100002451300400435071020100040043507102010RL793320644BR  0000018102010112978-5                000018
100002451600400438071020100040043807102010RL793320675BR  0000018102010112978-14               000019
100002451700400802111020100040080211102010RL793324632BR  0000018102010113063-1                000020
100002453400400804111020100040080411102010RL793324650BR  0000018102010113173-5                000021
100002453500400805111020100040080511102010RL793324663BR  0000018102010113173-6                000022
100002456100400808111020100040080811102010RL793324694BR  0002318102010113173-12               000023
9000022                                                                                       000024
