0RETORNONOTIFICAÇÃO ELETRONICA        03042012OCOR                                            000001
100003432200735749230320120073574923032012JL225481578BR  0000502042012167945-3                000002
100003446500737526270320120073752627032012FR851796449BR  0000002042012168364-3                000003
100003446600737527270320120073752727032012FR851796452BR  0000002042012168364-4                000004
100003446700737528270320120073752827032012FR851796466BR  0000002042012168364-6                000005
100003449300737536270320120073753627032012FR851796545BR  0000002042012168365-5                000006
100003449400737537270320120073753727032012FR851796554BR  0000002042012168365-6                000007
100003449500737538270320120073753827032012FR851796568BR  0000002042012168365-8                000008
9000007                                                                                       000009
