0RETORNONOTIFICAÇÃO ELETRONICA        12042013OCOR                                            000001
100004062900920126200320130092012620032013FA104833489BR  0000001042013227376-1                000002
100004062700920128200320130092012820032013FA104833501BR  0000001042013227376-3                000003
100004062800920129200320130092012920032013FA104833515BR  0000028032013227376-4                000004
100004062300920130200320130092013020032013FA104833529BR  0000001042013227376-6                000005
100004062600920131200320130092013120032013FA104833532BR  0000001042013227376-7                000006
100004044400920134200320130092013420032013FA104833563BR  0000028032013227382-2                000007
100004064800920136200320130092013620032013FA104833585BR  0000001042013227382-5                000008
100004065100920138200320130092013820032013FA104833603BR  0000001042013227382-9                000009
100004050400920139200320130092013920032013FA104833617BR  0000802042013227382-10               000010
100004067900920140200320130092014020032013FA104833625BR  0000210042013227382-11               000011
100004055600920142200320130092014220032013FA104833648BR  0000028032013227382-13               000012
100004068500923635260320130092363526032013FA104867814BR  0000004042013227772-1                000013
100004068300923636260320130092363626032013FA104867828BR  0000004042013227772-2                000014
100004068800923637260320130092363726032013FA104867831BR  0000008042013227772-7                000015
100004068900923638260320130092363826032013FA104867845BR  0000004042013227772-9                000016
100004068000923639260320130092363926032013FA104867859BR  0000002042013227772-10               000017
100004068100923640260320130092364026032013FA104867862BR  0000008042013227772-11               000018
100004068200923641260320130092364126032013FA104867876BR  0000004042013227772-12               000019
100004068600923643260320130092364326032013FA104867893BR  0000004042013227772-15               000020
100004068700923644260320130092364426032013FA104867902BR  0000003042013227772-16               000021
100004071300923645260320130092364526032013FA104867916BR  0000004042013227775-1                000022
100004071200923646260320130092364626032013FA104867920BR  0000004042013227775-2                000023
100004071100923647260320130092364726032013FA104867933BR  0000004042013227775-3                000024
100004074600923650260320130092365026032013FA104867964BR  0000004042013227777-1                000025
100004074700923651260320130092365126032013FA104867978BR  0001203042013227777-2                000026
100004072800923652260320130092365226032013FA104867981BR  0000004042013227777-4                000027
100004072900923653260320130092365326032013FA104867995BR  0000004042013227777-6                000028
100004075000925725270320130092572527032013FA104888567BR  0000004042013228574-1                000029
100004075100925726270320130092572627032013FA104888575BR  0000003042013228574-3                000030
100004075200925727270320130092572727032013FA104888584BR  0000008042013228574-4                000031
100004074800925728270320130092572827032013FA104888598BR  0000004042013228574-5                000032
100004075300925730270320130092573027032013FA104888615BR  0000004042013228574-7                000033
100004078200925731270320130092573127032013FA104888624BR  0000004042013228576-1                000034
100004077900925732270320130092573227032013FA104888638BR  0000004042013228576-2                000035
100004078300925733270320130092573327032013FA104888641BR  0000003042013228576-3                000036
100004078000925734270320130092573427032013FA104888655BR  0000008042013228576-4                000037
100004078100925735270320130092573527032013FA104888669BR  0000004042013228576-5                000038
100004080600925737270320130092573727032013FA104888686BR  0000003042013228578-4                000039
100004080300925738270320130092573827032013FA104888690BR  0000004042013228578-5                000040
100004080400925739270320130092573927032013FA104888709BR  0000003042013228578-6                000041
100004083700925741270320130092574127032013FA104888726BR  0000003042013228579-1                000042
100004083800925742270320130092574227032013FA104888730BR  0000004042013228579-2                000043
100004085600925746270320130092574627032013FA104888774BR  0000004042013228581-2                000044
100004087400925747270320130092574727032013FA104888788BR  0000003042013228581-3                000045
100004085800925748270320130092574827032013FA104888791BR  0000008042013228581-10               000046
100004087900926673010420130092667301042013FA104896926BR  0000011042013228821-1                000047
100004087700926674010420130092667401042013FA104896930BR  0000008042013228821-3                000048
100004088000926675010420130092667501042013FA104896943BR  0000008042013228821-4                000049
100004087600926676010420130092667601042013FA104896957BR  0000008042013228821-5                000050
100004087500926677010420130092667701042013FA104896965BR  0000008042013228821-6                000051
100004087800926678010420130092667801042013FA104896974BR  0000008042013228821-7                000052
100004072300926679010420130092667901042013FA104896988BR  0000009042013228824-1                000053
100004089300926682010420130092668201042013FA104897011BR  0000008042013228824-5                000054
100004089500926683010420130092668301042013FA104897025BR  0000008042013228824-6                000055
100004076400926684010420130092668401042013FA104897039BR  0000008042013228824-7                000056
100004090000926686010420130092668601042013FA104897056BR  0000004042013228862-2                000057
100004091200926687010420130092668701042013FA104897060BR  0000008042013228862-3                000058
100004090800926688010420130092668801042013FA104897073BR  0000008042013228862-4                000059
100004090900926689010420130092668901042013FA104897087BR  0000008042013228862-5                000060
100004092800926691010420130092669101042013FA104897100BR  0000708042013228862-14               000061
100004092700926692010420130092669201042013FA104897113BR  0000008042013228862-26               000062
100004090600926693010420130092669301042013FA104897127BR  0000008042013228862-36               000063
100004091000926696010420130092669601042013FA104897158BR  0000009042013228862-39               000064
100004091100926697010420130092669701042013FA104897161BR  0000008042013228862-40               000065
100004092900926698010420130092669801042013FA104897175BR  0000008042013228862-41               000066
100004093300926699010420130092669901042013FA104897189BR  0000008042013228862-42               000067
100004093200926700010420130092670001042013FA104897192BR  0000008042013228862-43               000068
100004093100926701010420130092670101042013FA104897201BR  0000008042013228862-44               000069
100004093000926702010420130092670201042013FA104897215BR  0000008042013228862-45               000070
100004093600926703010420130092670301042013FA104897229BR  0000009042013228997-1                000071
100004093400926704010420130092670401042013FA104897232BR  0000008042013228997-2                000072
100004093500926705010420130092670501042013FA104897246BR  0000008042013228997-3                000073
100004095200926706010420130092670601042013FA104897250BR  0000008042013228998-1                000074
100004086100926708010420130092670801042013FA104897277BR  0000011042013229000-1                000075
100004081200926709010420130092670901042013FA104897285BR  0000004042013229000-2                000076
100004097200926710010420130092671001042013FA104897294BR  0000008042013229000-3                000077
100004086400926711010420130092671101042013FA104897303BR  0000009042013229000-4                000078
100004096800926712010420130092671201042013FA104897317BR  0000008042013229000-5                000079
100004078800926713010420130092671301042013FA104897325BR  0000004042013229000-8                000080
100004097000926715010420130092671501042013FA104897348BR  0000008042013229000-10               000081
100004095600926716010420130092671601042013FA104897351BR  0000011042013229000-11               000082
100004082700926717010420130092671701042013FA104897365BR  0000008042013229000-12               000083
100004082800926719010420130092671901042013FA104897382BR  0000008042013229000-14               000084
100004096900926720010420130092672001042013FA104897396BR  0000008042013229000-15               000085
100004097100926721010420130092672101042013FA104897405BR  0000104042013229000-16               000086
100004079300926722010420130092672201042013FA104897419BR  0000008042013229000-17               000087
100004084400926723010420130092672301042013FA104897422BR  0000011042013229000-18               000088
100004088500926724010420130092672401042013FA104897436BR  0000008042013229000-19               000089
100004091900926725010420130092672501042013FA104897440BR  0000008042013229000-20               000090
100004099200926726010420130092672601042013FA104897453BR  0000008042013229013-1                000091
100004100700926727010420130092672701042013FA104897467BR  0000008042013229013-2                000092
100004097700926731010420130092673101042013FA104897507BR  0000008042013229013-6                000093
100004099500926732010420130092673201042013FA104897515BR  0000004042013229013-7                000094
100004100900926733010420130092673301042013FA104897524BR  0000008042013229013-9                000095
100004100400926734010420130092673401042013FA104897538BR  0000009042013229013-10               000096
100004103900926735010420130092673501042013FA104897541BR  0000008042013229014-1                000097
100004104000926736010420130092673601042013FA104897555BR  0000008042013229014-2                000098
100004101500926737010420130092673701042013FA104897569BR  0000008042013229014-3                000099
100004101200926738010420130092673801042013FA104897572BR  0000008042013229014-5                000100
100004101400926740010420130092674001042013FA104897590BR  0000008042013229014-7                000101
100004101000926741010420130092674101042013FA104897609BR  0000008042013229014-8                000102
100004101100926742010420130092674201042013FA104897612BR  0000008042013229014-9                000103
100004104600926744010420130092674401042013FA104897630BR  0000008042013229015-5                000104
100004106300926745010420130092674501042013FA104897643BR  0000008042013229015-10               000105
100004104700926747010420130092674701042013FA104897665BR  0000008042013229015-12               000106
100004108600926748010420130092674801042013FA104897674BR  0000008042013229017-1                000107
100004108800926749010420130092674901042013FA104897688BR  0000008042013229017-2                000108
100004107600926750010420130092675001042013FA104897691BR  0000008042013229017-3                000109
100004107900926751010420130092675101042013FA104897705BR  0000008042013229017-5                000110
100004107700926752010420130092675201042013FA104897714BR  0000008042013229017-6                000111
100004107800926753010420130092675301042013FA104897728BR  0000008042013229017-7                000112
100004107400926754010420130092675401042013FA104897731BR  0000008042013229017-9                000113
100004107500926755010420130092675501042013FA104897745BR  0000008042013229017-10               000114
100004110600934354080420130093435408042013FA104956426BR  0000011042013229984-16               000115
9000114                                                                                       000116
