0RETORNONOTIFICAÇÃO ELETRONICA        08072013OCOR                                            000001
100004261800981353270620130098135327062013FA136154369BR  0000004072013243348-1                000002
100004261600981354270620130098135427062013FA136154372BR  0000005072013243348-2                000003
100004262900981355270620130098135527062013FA136154386BR  0000005072013243348-3                000004
100004261700981356270620130098135627062013FA136154390BR  0000005072013243348-4                000005
100004263100981357270620130098135727062013FA136154409BR  0000005072013243348-5                000006
100004263400981358270620130098135827062013FA136154412BR  0000005072013243348-6                000007
100004263300981359270620130098135927062013FA136154426BR  0000005072013243348-7                000008
100004263200981360270620130098136027062013FA136154430BR  0000005072013243348-8                000009
100004263900981361270620130098136127062013FA136154443BR  0000004072013243349-1                000010
100004264000981362270620130098136227062013FA136154457BR  0000004072013243349-2                000011
100004265900981365270620130098136527062013FA136154488BR  0000004072013243350-4                000012
100004265800981366270620130098136627062013FA136154491BR  0000004072013243350-6                000013
100004265600981367270620130098136727062013FA136154505BR  0000004072013243350-8                000014
100004265500981368270620130098136827062013FA136154514BR  0000004072013243350-10               000015
100004268000981370270620130098137027062013FA136154531BR  0000004072013243351-1                000016
100004268100981371270620130098137127062013FA136154545BR  0000005072013243351-3                000017
100004270200981374270620130098137427062013FA136154576BR  0000005072013243352-2                000018
100004270300981375270620130098137527062013FA136154580BR  0000004072013243352-3                000019
9000018                                                                                       000020
