0RETORNONOTIFICAÇÃO ELETRONICA        06122012OCOR                                            000001
100003857300854520051120120085452005112012FA012652755BR  0000230112012202648-9                000002
100003863400860061211120120086006121112012FA062908705BR  0000003122012205810-5                000003
100003866200860069211120120086006921112012FA062908780BR  0000104122012205814-7                000004
100003866300860070211120120086007021112012FA062908793BR  0000030112012205814-8                000005
100003866500860072211120120086007221112012FA062908816BR  0000030112012205814-11               000006
100003868500860077211120120086007721112012FA062908864BR  0000030112012205815-1                000007
100003869700860081211120120086008121112012FA062908904BR  0000003122012205815-5                000008
100003871500860082211120120086008221112012FA062908918BR  0000003122012205815-6                000009
100003871800861517231120120086151723112012FA062922424BR  0000003122012206124-2                000010
100003871900861518231120120086151823112012FA062922438BR  0000030112012206124-4                000011
100003872000861519231120120086151923112012FA062922441BR  0000003122012206124-6                000012
100003873000861520231120120086152023112012FA062922455BR  0000003122012206124-7                000013
100003873800861521231120120086152123112012FA062922469BR  0000003122012206127-1                000014
100003873900861522231120120086152223112012FA062922472BR  0000003122012206127-2                000015
100003877700864460281120120086446028112012FA062948789BR  0000003122012207251-1                000016
100003876900864461281120120086446128112012FA062948792BR  0000003122012207251-2                000017
100003877600864462281120120086446228112012FA062948801BR  0000003122012207251-3                000018
100003877900864463281120120086446328112012FA062948815BR  0000003122012207251-4                000019
100003878000864464281120120086446428112012FA062948829BR  0000003122012207251-5                000020
100003879400864469281120120086446928112012FA062948877BR  0000003122012207252-1                000021
100003882300864476281120120086447628112012FA062948948BR  0000003122012207253-1                000022
100003881800864477281120120086447728112012FA062948951BR  0000003122012207253-2                000023
100003881900864478281120120086447828112012FA062948965BR  0000003122012207253-3                000024
100003882100864480281120120086448028112012FA062948982BR  0000003122012207253-6                000025
100003882200864481281120120086448128112012FA062948996BR  0000003122012207253-8                000026
100003884100864482281120120086448228112012FA062949002BR  0000003122012207255-1                000027
100003884300864485281120120086448528112012FA062949033BR  0000003122012207255-7                000028
100003885200864488281120120086448828112012FA062949064BR  0000003122012207255-10               000029
100003885800864489281120120086448928112012FA062949078BR  0000003122012207255-11               000030
100003885700864490281120120086449028112012FA062949081BR  0000003122012207255-12               000031
100003885600864491281120120086449128112012FA062949095BR  0000003122012207255-13               000032
100003885500864492281120120086449228112012FA062949104BR  0000003122012207255-14               000033
100003885400864493281120120086449328112012FA062949118BR  0000003122012207255-15               000034
100003884200864495281120120086449528112012FA062949135BR  0000003122012207255-17               000035
100003887500865164301120120086516430112012FA062955144BR  0000005122012207733-5                000036
100003895500865185301120120086518530112012FA062955351BR  0000005122012207901-8                000037
9000036                                                                                       000038
