0RETORNONOTIFICAÇÃO ELETRONICA        07052012OCOR                                            000001
100003488900752640240420120075264024042012FR851947373BR  0000004052012171808-8                000002
100003500100754282260420120075428226042012FR851963760BR  0000004052012172058-18               000003
100003500800754289260420120075428926042012FR851963835BR  0000704052012172058-51               000004
100003501300754294260420120075429426042012FR851963889BR  0000004052012172058-88               000005
100003501700754616270420120075461627042012FR851967109BR  0000004052012172338-2                000006
100003501900754618270420120075461827042012FR851967126BR  0000004052012172338-4                000007
9000006                                                                                       000008
