0RETORNONOTIFICAÇÃO ELETRONICA        02032015OCOR                                            000001
100005035801407335191220140140733519122014FA318465881BR  0000006022015338095-31               000002
100005034001428070190120150142807019012015FA318595095BR  0000006022015341025-2                000003
100005046201428080190120150142808019012015FA318595192BR  0000703022015341025-12               000004
100005046701428084190120150142808419012015FA318595232BR  0000006022015341261-3                000005
100005049101428090190120150142809019012015FA318595294BR  0000006022015341271-1                000006
100005049401428093190120150142809319012015FA318595325BR  0000006022015341271-4                000007
100005051501431013230120150143101323012015FA318612837BR  0000006022015341930-1                000008
100005052101431014230120150143101423012015FA318612845BR  0000006022015342411-1                000009
100005052201431015230120150143101523012015FA318612854BR  0000006022015342411-2                000010
100005052701431017230120150143101723012015FA318612871BR  0000006022015342411-18               000011
100005052801431018230120150143101823012015FA318612885BR  0000005022015342411-22               000012
100005052901431019230120150143101923012015FA318612899BR  0000006022015342411-32               000013
100005053101431021230120150143102123012015FA318612911BR  0000006022015342411-44               000014
100005053301431023230120150143102323012015FA318612939BR  0000005022015342411-55               000015
100005053701431027230120150143102723012015FA318612973BR  0000003022015342411-77               000016
100005054001431030230120150143103023012015FA318613007BR  0000004022015342411-86               000017
100005054201431032230120150143103223012015FA318613024BR  0000006022015342411-92               000018
100005054401431034230120150143103423012015FA318613041BR  0000006022015342411-96               000019
100005054601431036230120150143103623012015FA318613069BR  0000004022015342411-99               000020
100005054701431037230120150143103723012015FA318613072BR  0000006022015342411-102              000021
100005055601431046230120150143104623012015FA318613165BR  0000006022015342411-127              000022
100005055801431048230120150143104823012015FA318613188BR  0000004022015342411-135              000023
100005056301431053230120150143105323012015FA318613231BR  0000005022015342413-1                000024
100005056800000000000000000000000000000000FA318644287BR  0000009022015342857-1                000025
100005056900000000000000000000000000000000FA318644295BR  0000004022015343634-1                000026
100005057000000000000000000000000000000000FA318644300BR  0000406022015343634-2                000027
100005045900000000000000000000000000000000FA318644313BR  0000009022015343643-1                000028
100005046900000000000000000000000000000000FA318644327BR  0000009022015343643-2                000029
100005047900000000000000000000000000000000FA318644335BR  0000006022015343643-3                000030
100005050100000000000000000000000000000000FA318644344BR  0000006022015343643-4                000031
100005050700000000000000000000000000000000FA318644358BR  0000006022015343643-5                000032
100005051400000000000000000000000000000000FA318644361BR  0000006022015343643-6                000033
100005056700000000000000000000000000000000FA318644375BR  0000013022015343643-7                000034
100005057300000000000000000000000000000000FA318644389BR  0000006022015343643-8                000035
100005057400000000000000000000000000000000FA318644392BR  0000012022015343643-9                000036
100005057600000000000000000000000000000000FA318644415BR  0000009022015343643-11               000037
100005057800000000000000000000000000000000FA318644432BR  0000105022015343643-13               000038
100005058100000000000000000000000000000000FA318644446BR  0000013022015343644-1                000039
100005058200000000000000000000000000000000FA318644450BR  0000006022015343644-2                000040
100005058400000000000000000000000000000000FA318648536BR  0000013022015343755-1                000041
100005058700000000000000000000000000000000FA318649593BR  0000010022015344111-1                000042
100005058800000000000000000000000000000000FA318649602BR  0000009022015344111-3                000043
100005058900000000000000000000000000000000FA318649616BR  0000006022015344111-4                000044
100005060901439845090220150143984509022015FA318674448BR  0000213022015345484-2                000045
100005061701439842090220150143984209022015FA318674417BR  0000019022015345487-9                000046
100005061801439843090220150143984309022015FA318674425BR  0000213022015345487-10               000047
100005062701440088100220150144008810022015FA318676713BR  0000027022015345832-1                000048
100005062901440090100220150144009010022015FA318676735BR  0000013022015345832-5                000049
100005063001440091100220150144009110022015FA318676744BR  0000019022015345832-6                000050
100005063501440722190220150144072219022015FA318680117BR  0000026022015346459-1                000051
100005063701440724190220150144072419022015FA318680134BR  0000027022015346459-3                000052
100005065401440819190220150144081919022015FA318681086BR  0000026022015346875-2                000053
100005065501440820190220150144082019022015FA318681090BR  0000027022015346875-3                000054
100005066101441209230220150144120923022015FA318684255BR  0000227022015347150-1                000055
100005066501441211230220150144121123022015FA318684272BR  0000227022015347473-2                000056
9000055                                                                                       000057
