0RETORNONOTIFICAÇÃO ELETRONICA        30042013OCOR                                            000001
100004059000910854280220130091085428022013FA104745254BR  0002317042013224040-10               000002
100004076200926681010420130092668101042013FA104897008BR  0000012042013228824-4                000003
100004089900926685010420130092668501042013FA104897042BR  0000016042013228862-1                000004
100004092600926690010420130092669001042013FA104897095BR  0000016042013228862-6                000005
100004099300926728010420130092672801042013FA104897475BR  0000012042013229013-3                000006
100004099100926730010420130092673001042013FA104897498BR  0000012042013229013-5                000007
100004108100926756010420130092675601042013FA104897759BR  0000016042013229017-11               000008
100004112800934340080420130093434008042013FA104956284BR  0000019042013229984-1                000009
100004112600934341080420130093434108042013FA104956298BR  0000016042013229984-2                000010
100004110700934342080420130093434208042013FA104956307BR  0000016042013229984-3                000011
100004110000934343080420130093434308042013FA104956315BR  0000016042013229984-4                000012
100004110200934344080420130093434408042013FA104956324BR  0000016042013229984-5                000013
100004110100934345080420130093434508042013FA104956338BR  0000016042013229984-6                000014
100004111000934346080420130093434608042013FA104956341BR  0000015042013229984-7                000015
100004112400934347080420130093434708042013FA104956355BR  0000015042013229984-8                000016
100004110300934348080420130093434808042013FA104956369BR  0000016042013229984-9                000017
100004111500934349080420130093434908042013FA104956372BR  0000016042013229984-10               000018
100004110900934350080420130093435008042013FA104956386BR  0000016042013229984-11               000019
100004110400934351080420130093435108042013FA104956390BR  0000019042013229984-12               000020
100004110500934352080420130093435208042013FA104956409BR  0000016042013229984-13               000021
100004110800934353080420130093435308042013FA104956412BR  0000015042013229984-14               000022
100004111600934355080420130093435508042013FA104956430BR  0000015042013229984-17               000023
100004111400934356080420130093435608042013FA104956443BR  0000016042013229984-18               000024
100004115100934357080420130093435708042013FA104956457BR  0000016042013229987-1                000025
100004113100934358080420130093435808042013FA104956465BR  0000022042013229987-2                000026
100004114300934359080420130093435908042013FA104956474BR  0000016042013229987-3                000027
100004114400934360080420130093436008042013FA104956488BR  0000016042013229987-4                000028
100004113000934361080420130093436108042013FA104956491BR  0000016042013229987-5                000029
100004113200934362080420130093436208042013FA104956505BR  0000016042013229987-6                000030
100004115200000000000000000000000000000000FA104956514BR  0000016042013229987-7                000031
100004115200000000000000000000000000000000FA104958152BR  0000016042013229987-35               000032
100004115200000000000000000000000000000000FA104958166BR  0000016042013229987-63               000033
100004115200000000000000000000000000000000FA104958170BR  0000016042013229987-91               000034
100004115000934364080420130093436408042013FA104956528BR  0000016042013229987-119              000035
100004113900934365080420130093436508042013FA104956531BR  0000016042013229987-120              000036
100004114200934366080420130093436608042013FA104956545BR  0000016042013229987-121              000037
100004114100934367080420130093436708042013FA104956559BR  0000016042013229987-122              000038
100004114000934368080420130093436808042013FA104956562BR  0000016042013229987-123              000039
100004119400000000000000000000000000000000FA104956580BR  0000018042013230109-5                000040
100004119400000000000000000000000000000000FA104958183BR  0000018042013230109-32               000041
100004119300934371080420130093437108042013FA104956593BR  0000012042013230109-48               000042
100004119100934373080420130093437308042013FA104956616BR  0000019042013230109-72               000043
100004119000934374080420130093437408042013FA104956620BR  0000012042013230109-81               000044
100004118900934375080420130093437508042013FA104956633BR  0000016042013230109-84               000045
100004118800934376080420130093437608042013FA104956647BR  0000016042013230109-101              000046
100004118700934377080420130093437708042013FA104956655BR  0000016042013230109-104              000047
100004118600934378080420130093437808042013FA104956664BR  0000016042013230109-105              000048
100004118500934379080420130093437908042013FA104956678BR  0000016042013230109-111              000049
100004118400934380080420130093438008042013FA104956681BR  0000718042013230109-112              000050
100004118300934381080420130093438108042013FA104956695BR  0000019042013230109-117              000051
100004118200934382080420130093438208042013FA104956704BR  0000018042013230109-118              000052
100004118100934383080420130093438308042013FA104956718BR  0000016042013230109-124              000053
100004118000934384080420130093438408042013FA104956721BR  0000016042013230109-126              000054
100004117900934385080420130093438508042013FA104956735BR  0000012042013230109-130              000055
100004117800934386080420130093438608042013FA104956749BR  0000016042013230109-135              000056
100004117700934387080420130093438708042013FA104956752BR  0000016042013230109-136              000057
100004117600934388080420130093438808042013FA104956766BR  0000015042013230109-140              000058
100004117500934389080420130093438908042013FA104956770BR  0000016042013230109-145              000059
100004115700934390080420130093439008042013FA104956783BR  0000018042013230109-147              000060
100004117200934391080420130093439108042013FA104956797BR  0000016042013230109-150              000061
100004115500934392080420130093439208042013FA104956806BR  0000016042013230109-151              000062
100004116800934393080420130093439308042013FA104956810BR  0000016042013230109-152              000063
100004115400934394080420130093439408042013FA104956823BR  0000012042013230109-153              000064
100004115600934395080420130093439508042013FA104956837BR  0000016042013230109-154              000065
100004116300934396080420130093439608042013FA104956845BR  0000016042013230109-155              000066
100004117000934397080420130093439708042013FA104956854BR  0000019042013230109-156              000067
100004116500934398080420130093439808042013FA104956868BR  0000016042013230109-157              000068
100004115300934399080420130093439908042013FA104956871BR  0000015042013230109-158              000069
100004119600000000000000000000000000000000FA104975986BR  0000022042013230657-1                000070
100004120000000000000000000000000000000000FA104975990BR  0000022042013230657-7                000071
100004119900000000000000000000000000000000FA104976010BR  0000022042013230657-9                000072
100004119800000000000000000000000000000000FA104976023BR  0000019042013230657-10               000073
100004121000000000000000000000000000000000FA104976037BR  0000022042013230657-11               000074
100004119500000000000000000000000000000000FA104976045BR  0000022042013230657-12               000075
100004121700000000000000000000000000000000FA104976054BR  0000022042013230657-13               000076
100004121700000000000000000000000000000000FA104980473BR  0000022042013230657-43               000077
100004121700000000000000000000000000000000FA104980487BR  0000022042013230657-73               000078
100004121700000000000000000000000000000000FA104980495BR  0000022042013230657-103              000079
100004122000000000000000000000000000000000FA104978214BR  0000022042013231272-1                000080
100004122100000000000000000000000000000000FA104978228BR  0000022042013231272-2                000081
100004121900000000000000000000000000000000FA104978231BR  0001226042013231272-3                000082
100004121800000000000000000000000000000000FA104978245BR  0000022042013231272-4                000083
100004122200000000000000000000000000000000FA104978259BR  0000022042013231278-1                000084
100004124100000000000000000000000000000000FA104978262BR  0000019042013231278-2                000085
100004124200000000000000000000000000000000FA104978276BR  0000026042013231278-3                000086
100004124300000000000000000000000000000000FA104978280BR  0000019042013231278-4                000087
100004124600000000000000000000000000000000FA104978293BR  0000022042013231278-6                000088
100004124000000000000000000000000000000000FA104978302BR  0000022042013231278-7                000089
100004127100000000000000000000000000000000FA104978316BR  0000022042013231279-1                000090
100004127700000000000000000000000000000000FA104978320BR  0000022042013231279-7                000091
100004127200000000000000000000000000000000FA104978333BR  0000019042013231279-8                000092
100004130200000000000000000000000000000000FA104978347BR  0000022042013231281-1                000093
100004130300000000000000000000000000000000FA104978355BR  0000022042013231281-2                000094
100004130100000000000000000000000000000000FA104978364BR  0000022042013231281-4                000095
9000094                                                                                       000096
