0RETORNONOTIFICAÇÃO ELETRONICA        06062011OCOR                                            000001
100002776700540136230520110054013623052011RL964175066BR  0000002062011131326-3                000002
100002760400544824260520110054482426052011JL014231905BR  0000002062011131795-1                000003
100002761800544827260520110054482726052011JL014231931BR  0000002062011131795-4                000004
100002771000544828260520110054482826052011JL014231945BR  0000002062011131795-5                000005
100002773200544832260520110054483226052011JL014231980BR  0000002062011131795-9                000006
100002773800544833260520110054483326052011JL014231993BR  0000002062011131795-10               000007
100002774200544834260520110054483426052011JL014232000BR  0000002062011131795-11               000008
100002774500544835260520110054483526052011JL014232013BR  0000002062011131795-12               000009
100002774800544836260520110054483626052011JL014232027BR  0000002062011131795-13               000010
100002780200544840260520110054484026052011JL014232061BR  0000002062011131795-17               000011
100002780300544841260520110054484126052011JL014232075BR  0000002062011131795-18               000012
100002780400544842260520110054484226052011JL014232089BR  0000002062011131795-19               000013
100002780900544844260520110054484426052011JL014232101BR  0000002062011131795-21               000014
100002779700544846260520110054484626052011JL014232129BR  0000002062011131926-1                000015
100002779800544847260520110054484726052011JL014232132BR  0000002062011131926-2                000016
100002780600544848260520110054484826052011JL014232146BR  0000002062011131926-3                000017
100002781000544849260520110054484926052011JL014232150BR  0000002062011131926-4                000018
100002781100544850260520110054485026052011JL014232163BR  0000002062011131926-5                000019
100002781200544851260520110054485126052011JL014232177BR  0000002062011131926-6                000020
100002781300544852260520110054485226052011JL014232185BR  0000002062011131926-7                000021
100002781400544853260520110054485326052011JL014232194BR  0000002062011131926-8                000022
100002781500544854260520110054485426052011JL014232203BR  0000002062011131926-9                000023
100002781800544855260520110054485526052011JL014232217BR  0000002062011131926-10               000024
100002782200544859260520110054485926052011JL014232251BR  0000002062011131926-14               000025
100002782300544860260520110054486026052011JL014232265BR  0000002062011131926-15               000026
100002782400544861260520110054486126052011JL014232279BR  0000002062011131926-16               000027
100002782500544862260520110054486226052011JL014232282BR  0000002062011131926-17               000028
9000027                                                                                       000029
