0RETORNONOTIFICAÇÃO ELETRONICA        16122013OCOR                                            000001
100004505701072946051120130107294605112013FA188050355BR  0001213122013267235-2                000002
100004535701082294261120130108229426112013FA188137508BR  0000010122013270328-1                000003
100004535901082296261120130108229626112013FA188137525BR  0000006122013270328-3                000004
100004537501084523271120130108452327112013FA188159018BR  0000006122013270698-1                000005
100004535601084525271120130108452527112013FA188159035BR  0000006122013270698-15               000006
100004537601084527271120130108452727112013FA188159052BR  0000006122013270698-17               000007
100004537201084529271120130108452927112013FA188159070BR  0000011122013270698-19               000008
100004534901084530271120130108453027112013FA188159083BR  0000006122013270698-20               000009
100004536101084531271120130108453127112013FA188159097BR  0000006122013270698-21               000010
100004530801084532271120130108453227112013FA188159106BR  0000006122013270698-22               000011
100004531101084533271120130108453327112013FA188159110BR  0000006122013270698-23               000012
100004531001084534271120130108453427112013FA188159123BR  0000006122013270698-24               000013
100004530901084535271120130108453527112013FA188159137BR  0000006122013270698-25               000014
100004539401084537271120130108453727112013FA188159154BR  0000006122013270870-1                000015
100004539601084540271120130108454027112013FA188159185BR  0000006122013270870-4                000016
100004541101085571281120130108557128112013FA188169236BR  0000009122013271067-1                000017
100004541201085573281120130108557328112013FA188169253BR  0000009122013271067-6                000018
100004542301087637291120130108763729112013FA188186821BR  0000009122013271290-1                000019
100004542401087639291120130108763929112013FA188186849BR  0000010122013271290-3                000020
100004542601087640291120130108764029112013FA188186852BR  0000010122013271290-4                000021
100004544201088148021220130108814802122013FA188191526BR  0000012122013271589-1                000022
100004544301088149021220130108814902122013FA188191530BR  0000006122013271589-2                000023
100004544401088150021220130108815002122013FA188191543BR  0000006122013271589-3                000024
100004505401090269031220130109026903122013FA188214862BR  0000011122013271841-2                000025
100004545901090270031220130109027003122013FA188214876BR  0000012122013271841-3                000026
100004546201090271031220130109027103122013FA188214880BR  0000006122013271841-4                000027
100004546001090272031220130109027203122013FA188214893BR  0000011122013271841-5                000028
100004533701090273031220130109027303122013FA188214902BR  0000011122013271841-6                000029
100004546101090274031220130109027403122013FA188214916BR  0000013122013271841-7                000030
100004545601090275031220130109027503122013FA188214920BR  0000011122013271841-8                000031
100004536601090276031220130109027603122013FA188214933BR  0000009122013271841-10               000032
100004547901090279031220130109027903122013FA188214964BR  0000812122013271841-13               000033
100004525801090282031220130109028203122013FA188214995BR  0000012122013271841-18               000034
100004545501090283031220130109028303122013FA188215001BR  0000010122013271841-19               000035
100004519901090284031220130109028403122013FA188215015BR  0000012122013271841-20               000036
100004524101090285031220130109028503122013FA188215029BR  0000011122013271841-21               000037
100004519601090286031220130109028603122013FA188215032BR  0000006122013271841-22               000038
100004545801090287031220130109028703122013FA188215046BR  0000009122013271841-23               000039
100004548201090781041220130109078104122013FA188218277BR  0000012122013272053-2                000040
100004548401090782041220130109078204122013FA188218285BR  0000011122013272053-5                000041
100004548501090783041220130109078304122013FA188218294BR  0000011122013272053-6                000042
100004548301090784041220130109078404122013FA188218303BR  0000010122013272053-7                000043
100004551301091709061220130109170906122013FA188227472BR  0000012122013272294-5                000044
100004551401091710061220130109171006122013FA188227486BR  0000012122013272294-6                000045
100004543601092050091220130109205009122013FA188230485BR  0000013122013272481-4                000046
100004543801092051091220130109205109122013FA188230499BR  0000013122013272481-5                000047
100004543701092052091220130109205209122013FA188230508BR  0000013122013272481-6                000048
100004553601092054091220130109205409122013FA188230525BR  0000013122013272481-8                000049
100004553401092060091220130109206009122013FA188230587BR  0000012122013272481-14               000050
100004556001093720091220130109372009122013FA188247070BR  0000013122013272755-2                000051
9000050                                                                                       000052
