0RETORNONOTIFICAÇÃO ELETRONICA        02022010OCOR                                            000001
100002001400223675200120100022367520012010FR584149798BR  00000        82947-1                 000002
100002001900224375210120100022437521012010FR584156618BR  00000        83115-1                 000003
100002002000224376210120100022437621012010FR584156621BR  000002901201083115-2                 000004
100002002600224377210120100022437721012010FR584156635BR  00000        83115-3                 000005
100002003200224378210120100022437821012010FR584156649BR  000002901201083115-4                 000006
100002003400224379210120100022437921012010FR584156652BR  00000        83115-5                 000007
100002003600224380210120100022438021012010FR584156666BR  000000102201083115-6                 000008
100002003700225988250120100022598825012010FR584173125BR  000000102201083689-1                 000009
100002004000225989250120100022598925012010FR584173134BR  00000        83689-2                 000010
100002004300225990250120100022599025012010FR584173148BR  000000102201083689-3                 000011
100002004600225991250120100022599125012010FR584173151BR  000000102201083689-4                 000012
100002004700225992250120100022599225012010FR584173165BR  00000        83689-5                 000013
100002006900225993250120100022599325012010FR584173179BR  000000102201083690-1                 000014
100002008100230791280120100023079128012010FR584222714BR  00000        83986-1                 000015
100002008600230792280120100023079228012010FR584222728BR  00000        83986-2                 000016
100002009100230793280120100023079328012010FR584222731BR  00000        83986-3                 000017
100002009200230794280120100023079428012010FR584222745BR  00000        83986-4                 000018
100002009400230795280120100023079528012010FR584222759BR  00000        83986-5                 000019
100002009500230796280120100023079628012010FR584222762BR  00000        83986-6                 000020
9000019                                                                                       000021
