0RETORNONOTIFICAÇÃO ELETRONICA        03022015OCOR                                            000001
100005044401420436080120150142043608012015FA318546262BR  0000002022015339202-6                000002
100005039501428071190120150142807119012015FA318595100BR  0000002022015341025-3                000003
100005053801431028230120150143102823012015FA318612987BR  0000002022015342411-80               000004
100005053901431029230120150143102923012015FA318612995BR  0000002022015342411-83               000005
100005054101431031230120150143103123012015FA318613015BR  0000002022015342411-90               000006
100005054301431033230120150143103323012015FA318613038BR  0000002022015342411-95               000007
100005054901431039230120150143103923012015FA318613090BR  0000002022015342411-108              000008
100005055101431041230120150143104123012015FA318613112BR  0000002022015342411-112              000009
100005055301431043230120150143104323012015FA318613130BR  0000002022015342411-119              000010
100005056001431050230120150143105023012015FA318613205BR  0000002022015342411-143              000011
9000010                                                                                       000012
