0RETORNONOTIFICAÇÃO ELETRONICA        12072011OCOR                                            000001
100002824500564664240620110056466424062011JL014423097BR  0000007072011134783-2                000002
100002824900564666240620110056466624062011JL014423110BR  0000507072011134783-4                000003
100002825000564667240620110056466724062011JL014423123BR  0000007072011134783-5                000004
100002826100564668240620110056466824062011JL014423137BR  0000007072011134783-6                000005
100002826200564669240620110056466924062011JL014423145BR  0000007072011134783-7                000006
100002826300564670240620110056467024062011JL014423154BR  0000007072011134783-8                000007
100002826400564671240620110056467124062011JL014423168BR  0000007072011134783-9                000008
100002826500564672240620110056467224062011JL014423171BR  0000007072011134783-10               000009
100002826600564673240620110056467324062011JL014423185BR  0000007072011134783-11               000010
100002831300564674240620110056467424062011JL014423199BR  0000207072011134783-12               000011
100002831400564675240620110056467524062011JL014423208BR  0000007072011134783-13               000012
100002815900564676240620110056467624062011JL014423211BR  0000007072011134786-1                000013
100002831500564677240620110056467724062011JL014423225BR  0000007072011134786-2                000014
100002831600564678240620110056467824062011JL014423239BR  0000007072011134786-3                000015
100002831700564679240620110056467924062011JL014423242BR  0000107072011134786-4                000016
100002831900564681240620110056468124062011JL014423260BR  0000107072011134786-6                000017
100002832000564682240620110056468224062011JL014423273BR  0000107072011134786-7                000018
9000017                                                                                       000019
