0RETORNONOTIFICAÇÃO ELETRONICA        26072010OCOR                                            000001
100002088200256523120320100025652312032010FR584484065BR  000001903201088836-1                 000002
100002088300256524120320100025652412032010FR584484074BR  000001903201088836-2                 000003
100002088400256525120320100025652512032010FR584484088BR  000001903201088836-3                 000004
100002088500256526120320100025652612032010FR584484091BR  000002203201088836-4                 000005
100002090500257854160320100025785416032010FR584498665BR  000002303201089202-1                 000006
100002090600257855160320100025785516032010FR584498674BR  000052503201089202-2                 000007
100002090700257856160320100025785616032010FR584498688BR  000002303201089202-3                 000008
100002090800257857160320100025785716032010FR584498691BR  000002503201089202-5                 000009
100002089600257858160320100025785816032010FR584498705BR  000002303201089480-1                 000010
100002090400257859160320100025785916032010FR584498714BR  000002503201089480-2                 000011
100002093200257860160320100025786016032010FR584498728BR  000002303201089480-3                 000012
100002093300257861160320100025786116032010FR584498731BR  000002303201089480-4                 000013
100002093400257862160320100025786216032010FR584498745BR  000002403201089480-5                 000014
100002093500257863160320100025786316032010FR584498759BR  000052403201089480-6                 000015
100002093600257864160320100025786416032010FR584498762BR  000002403201089480-7                 000016
100002096100259904190320100025990419032010FR584519445BR  000002503201089765-1                 000017
100002098500259905190320100025990519032010FR584519459BR  000002503201089880-1                 000018
100002098600259906190320100025990619032010FR584519462BR  000002503201089880-2                 000019
100002098700259907190320100025990719032010FR584519476BR  000002503201089880-3                 000020
100002098800259908190320100025990819032010FR584519480BR  000002403201089880-4                 000021
100002100900259894190320100025989419032010FR584519343BR  000002503201090014-1                 000022
100002101000259895190320100025989519032010FR584519357BR  000002403201090014-2                 000023
100002101100259896190320100025989619032010FR584519365BR  000002503201090014-3                 000024
100002101200259897190320100025989719032010FR584519374BR  000002503201090014-4                 000025
100002101300259898190320100025989819032010FR584519388BR  000003003201090014-5                 000026
100002101400259899190320100025989919032010FR584519391BR  000002403201090014-6                 000027
100002101500259900190320100025990019032010FR584519405BR  000002403201090014-7                 000028
100002101600259901190320100025990119032010FR584519414BR  000002403201090014-8                 000029
100002101700259902190320100025990219032010FR584519428BR  000002403201090014-9                 000030
100002101800259903190320100025990319032010FR584519431BR  000002403201090014-10                000031
100002104400260963220320100026096322032010FR584529915BR  000000104201090110-2                 000032
100002104500260964220320100026096422032010FR584529924BR  000003003201090110-3                 000033
100002104600260965220320100026096522032010FR584529938BR  000013003201090110-4                 000034
100002104700260966220320100026096622032010FR584529941BR  000000504201090110-5                 000035
100002104800260967220320100026096722032010FR584529955BR  000000104201090110-7                 000036
100002097100262548240320100026254824032010FR584546397BR  000013103201090340-1                 000037
100002097500262549240320100026254924032010FR584546406BR  000000704201090340-2                 000038
100002105800262551240320100026255124032010FR584546423BR  000003103201090340-4                 000039
100002106300262552240320100026255224032010FR584546437BR  000003103201090340-5                 000040
100002132400270346060420100027034606042010FR584625086BR  000001504201092054-14                000041
100002149000274699130420100027469913042010FR584669569BR  000002204201092912-10                000042
100002303100300183060720100030018306072010RL751209962BR  0000021072010104869-7                000043
100002308600301003070720100030100307072010RL751218160BR  0000021072010105152-1                000044
100002309100301345080720100030134508072010RL751221481BR  0000523072010105281-4                000045
100002301300303207130720100030320713072010RL751240021BR  0000022072010105493-1                000046
100002302000303208130720100030320813072010RL751240035BR  0000022072010105493-2                000047
100002302200303209130720100030320913072010RL751240049BR  0000022072010105493-3                000048
100002304000303210130720100030321013072010RL751240052BR  0000022072010105493-4                000049
100002307000303211130720100030321113072010RL751240066BR  0000022072010105493-5                000050
100002308000303212130720100030321213072010RL751240070BR  0000022072010105493-6                000051
100002311300303213130720100030321313072010RL751240083BR  0000022072010105493-7                000052
100002311400303214130720100030321413072010RL751240097BR  0000022072010105493-9                000053
100002313000303215130720100030321513072010RL751240106BR  0000022072010105493-10               000054
100002311600303216130720100030321613072010RL751240110BR  0000022072010105495-1                000055
100002312200303217130720100030321713072010RL751240123BR  0000022072010105495-2                000056
100002312300303218130720100030321813072010RL751240137BR  0000022072010105495-3                000057
100002315100303219130720100030321913072010RL751240145BR  0000022072010105495-4                000058
100002316200303221130720100030322113072010RL751240168BR  0000022072010105495-6                000059
100002318300303222130720100030322213072010RL751240171BR  0000022072010105648-1                000060
100002320500303223130720100030322313072010RL751240185BR  0002322072010105648-2                000061
100002320600303224130720100030322413072010RL751240199BR  0000022072010105648-5                000062
100002320700303225130720100030322513072010RL751240208BR  0000022072010105648-6                000063
100002318100304231160720100030423116072010RL751250165BR  0000022072010105798-2                000064
100002320800304233160720100030423316072010RL751250182BR  0000022072010105798-4                000065
100002321100304236160720100030423616072010RL751250219BR  0000022072010105798-7                000066
100002321200304237160720100030423716072010RL751250222BR  0000022072010105798-8                000067
100002321600304241160720100030424116072010RL751250267BR  0000022072010105798-22               000068
100002321700304242160720100030424216072010RL751250275BR  0000022072010105933-1                000069
9000068                                                                                       000070
