0RETORNONOTIFICAÇÃO ELETRONICA        11072011OCOR                                            000001
100002799800553218090620110055321809062011JL014311904BR  0000005072011133261-5                000002
100002808200554893140620110055489314062011JL014328391BR  0000005072011133662-4                000003
100002812500555634150620110055563415062011JL014335375BR  0000006072011133805-8                000004
100002820500558732210620110055873221062011JL014364677BR  0000005072011134459-2                000005
100002820700558734210620110055873421062011JL014364694BR  0000905072011134459-6                000006
100002821100558737210620110055873721062011JL014364725BR  0000005072011134459-13               000007
100002822300558743210620110055874321062011JL014364782BR  0000005072011134461-3                000008
100002822500558745210620110055874521062011JL014364805BR  0000005072011134461-5                000009
100002822700558747210620110055874721062011JL014364822BR  0000005072011134461-7                000010
100002825400558750210620110055875021062011JL014364853BR  0000005072011134461-15               000011
100002825700558753210620110055875321062011JL014364884BR  0000005072011134461-37               000012
100002826000558754210620110055875421062011JL014364898BR  0000005072011134461-41               000013
100002824500564664240620110056466424062011JL014423097BR  0000007072011134783-2                000014
100002824900564666240620110056466624062011JL014423110BR  0000507072011134783-4                000015
100002825000564667240620110056466724062011JL014423123BR  0000007072011134783-5                000016
100002826100564668240620110056466824062011JL014423137BR  0000007072011134783-6                000017
100002826200564669240620110056466924062011JL014423145BR  0000007072011134783-7                000018
100002826300564670240620110056467024062011JL014423154BR  0000007072011134783-8                000019
100002826400564671240620110056467124062011JL014423168BR  0000007072011134783-9                000020
100002826500564672240620110056467224062011JL014423171BR  0000007072011134783-10               000021
100002826600564673240620110056467324062011JL014423185BR  0000007072011134783-11               000022
100002831300564674240620110056467424062011JL014423199BR  0000207072011134783-12               000023
100002831400564675240620110056467524062011JL014423208BR  0000007072011134783-13               000024
100002815900564676240620110056467624062011JL014423211BR  0000007072011134786-1                000025
100002831500564677240620110056467724062011JL014423225BR  0000007072011134786-2                000026
100002831600564678240620110056467824062011JL014423239BR  0000007072011134786-3                000027
100002831700564679240620110056467924062011JL014423242BR  0000107072011134786-4                000028
100002831900564681240620110056468124062011JL014423260BR  0000107072011134786-6                000029
100002832000564682240620110056468224062011JL014423273BR  0000107072011134786-7                000030
9000029                                                                                       000031
