0RETORNONOTIFICAÇÃO ELETRONICA        07102011OCOR                                            000001
100003001200622812090920110062281209092011JL014576433BR  0000006102011143798-3                000002
100003077300632845260920110063284526092011RM948881079BR  0000006102011145748-3                000003
100003082200634404270920110063440427092011RM948895055BR  0000006102011145977-1                000004
100003089300635751300920110063575130092011RM948905725BR  0000006102011146406-2                000005
9000004                                                                                       000006
