0RETORNONOTIFICAÇÃO ELETRONICA        09092010OCOR                                            000001
100002363100382941250820100038294125082010RL793144542BR  0000006092010108346-1                000002
100002376000319521200820100031952120082010RL793110380BR  0000003092010109213-1                000003
100002376400319525200820100031952520082010RL793110420BR  0000003092010109213-13               000004
100002376500319526200820100031952620082010RL793110433BR  0000003092010109213-14               000005
100002367200381321240820100038132124082010RL793128346BR  0000003092010109468-2                000006
100002368700381322240820100038132224082010RL793128350BR  0000008092010109468-3                000007
100002368800381323240820100038132324082010RL793128363BR  0000003092010109468-4                000008
100002370600381324240820100038132424082010RL793128377BR  0000003092010109468-5                000009
100002380000381328240820100038132824082010RL793128417BR  0000003092010109468-9                000010
100002380800381329240820100038132924082010RL793128425BR  0000003092010109468-10               000011
100002388700385375300820100038537530082010RL793168813BR  0000008092010109867-8                000012
100002388800385376300820100038537630082010RL793168827BR  0001208092010109867-9                000013
9000012                                                                                       000014
