0RETORNONOTIFICAÇÃO ELETRONICA        06032013OCOR                                            000001
100003885300864494281120120086449428112012FA063332242BR  0000025022013207255-16               000002
100003999100900147050220130090014705022013FA063288610BR  0000025022013220041-7                000003
100004003400900159050220130090015905022013FA063288739BR  0000027022013220048-11               000004
100004008500902831140220130090283114022013FA063314306BR  0000705032013220921-8                000005
100004013300902836140220130090283614022013FA063314354BR  0000025022013221012-24               000006
100004013200902837140220130090283714022013FA063314368BR  0000026022013221012-27               000007
100004014300903346140220130090334614022013FA063318784BR  0000025022013221350-3                000008
100004014200903352140220130090335214022013FA063318841BR  0000025022013221350-12               000009
100004027500904146150220130090414615022013FA063326635BR  0000025022013221455-8                000010
100004016700904148150220130090414815022013FA063326658BR  0000025022013221455-10               000011
100004016900904150150220130090415015022013FA063326675BR  0000025022013221455-13               000012
100004016500904151150220130090415115022013FA063326689BR  0000027022013221455-14               000013
100004016600904152150220130090415215022013FA063326692BR  0000025022013221455-15               000014
100004019200905364190220130090536419022013FA063337063BR  0000125022013222107-3                000015
100004019600905365190220130090536519022013FA063337077BR  0000025022013222107-4                000016
100004019500905366190220130090536619022013FA063337085BR  0000025022013222107-5                000017
100004028000905367190220130090536719022013FA063337094BR  0000025022013222107-8                000018
100004027800905369190220130090536919022013FA063337117BR  0000026022013222107-10               000019
100004007400905370190220130090537019022013FA063337125BR  0000025022013222107-11               000020
100004007800905371190220130090537119022013FA063337134BR  0000004032013222107-12               000021
100004027900905372190220130090537219022013FA063337148BR  0000025022013222107-13               000022
100004028600905375190220130090537519022013FA063337179BR  0000025022013222108-2                000023
100004029000905376190220130090537619022013FA063337182BR  0000026022013222108-3                000024
100004037600905378190220130090537819022013FA063337205BR  0000025022013222108-5                000025
100004037500905379190220130090537919022013FA063337219BR  0000025022013222108-8                000026
100004037400905380190220130090538019022013FA063337222BR  0000025022013222108-11               000027
100004037200905382190220130090538219022013FA063337240BR  0000026022013222108-16               000028
100004037000905384190220130090538419022013FA063337267BR  0000025022013222108-22               000029
100004036900905385190220130090538519022013FA063337275BR  0000025022013222108-25               000030
100004036600905388190220130090538819022013FA063337307BR  0000127022013222108-33               000031
100004036500905389190220130090538919022013FA063337315BR  0000025022013222108-35               000032
100004036400905390190220130090539019022013FA063337324BR  0000025022013222108-37               000033
100004036300905391190220130090539119022013FA063337338BR  0000025022013222108-39               000034
100004036200905392190220130090539219022013FA063337341BR  0000025022013222108-41               000035
100004036000905394190220130090539419022013FA063337369BR  0000025022013222108-45               000036
100004035900905395190220130090539519022013FA063337372BR  0000025022013222108-47               000037
100004035600905398190220130090539819022013FA063337409BR  0000026022013222108-53               000038
100004035500905399190220130090539919022013FA063337412BR  0000025022013222108-55               000039
100004035400905400190220130090540019022013FA063337426BR  0000026022013222108-57               000040
100004035300905401190220130090540119022013FA063337430BR  0000026022013222108-59               000041
100004035200905402190220130090540219022013FA063337443BR  0000025022013222108-60               000042
100004035100905403190220130090540319022013FA063337457BR  0000028022013222108-62               000043
100004034900905405190220130090540519022013FA063337474BR  0000025022013222108-66               000044
100004034800905406190220130090540619022013FA063337488BR  0000026022013222108-67               000045
100004034700905407190220130090540719022013FA063337491BR  0000026022013222108-70               000046
100004034600905408190220130090540819022013FA063337505BR  0000026022013222108-72               000047
100004034400905410190220130090541019022013FA063337528BR  0000025022013222108-76               000048
100004034200905412190220130090541219022013FA063337545BR  0000026022013222108-78               000049
100004034000905414190220130090541419022013FA063337562BR  0000025022013222108-82               000050
100004033900905415190220130090541519022013FA063337576BR  0000025022013222108-84               000051
100004033700905417190220130090541719022013FA063337593BR  0000028022013222108-88               000052
100004033600905418190220130090541819022013FA063337602BR  0000025022013222108-89               000053
100004033500905419190220130090541919022013FA063337616BR  0000025022013222108-90               000054
100004033400905420190220130090542019022013FA063337620BR  0000025022013222108-91               000055
100004033300905421190220130090542119022013FA063337633BR  0000025022013222108-92               000056
100004033200905422190220130090542219022013FA063337647BR  0000028022013222108-94               000057
100004033000905424190220130090542419022013FA063337664BR  0000026022013222108-96               000058
100004032900905425190220130090542519022013FA063337678BR  0000025022013222108-97               000059
100004032800905426190220130090542619022013FA063337681BR  0000004032013222108-98               000060
100004032700905427190220130090542719022013FA063337695BR  0000025022013222108-99               000061
100004032600905428190220130090542819022013FA063337704BR  0000025022013222108-100              000062
100004032400905430190220130090543019022013FA063337721BR  0000025022013222108-102              000063
100004032300905431190220130090543119022013FA063337735BR  0000025022013222108-103              000064
100004032200905432190220130090543219022013FA063337749BR  0000025022013222108-104              000065
100004032100905433190220130090543319022013FA063337752BR  0000025022013222108-105              000066
100004032000905434190220130090543419022013FA063337766BR  0000025022013222108-106              000067
100004031900905435190220130090543519022013FA063337770BR  0000025022013222108-107              000068
100004031800905436190220130090543619022013FA063337783BR  0000026022013222108-108              000069
100004031600905438190220130090543819022013FA063337806BR  0000025022013222108-110              000070
100004037900905688200220130090568820022013FA063339957BR  0000026022013222440-1                000071
100004037800905695200220130090569520022013FA063340028BR  0000025022013222440-9                000072
100004040400000000000000000000000000000000FA063352905BR  0000005032013222788-1                000073
100004040300000000000000000000000000000000FA063352919BR  0000004032013222788-2                000074
100004040500000000000000000000000000000000FA063352922BR  0000004032013222788-3                000075
100004048100000000000000000000000000000000FA063352953BR  0000005032013222996-2                000076
100004047200000000000000000000000000000000FA063352967BR  0000005032013222996-3                000077
100004048000000000000000000000000000000000FA063352984BR  0000028022013222996-12               000078
100004047300000000000000000000000000000000FA063352998BR  0000005032013222996-15               000079
100004047700000000000000000000000000000000FA063353004BR  0000028022013222996-18               000080
100004047500000000000000000000000000000000FA063353018BR  0000004032013222996-21               000081
100004047600000000000000000000000000000000FA063353021BR  0000004032013222996-22               000082
100004047800000000000000000000000000000000FA063353035BR  0000004032013222996-23               000083
100004049800907330250220130090733025022013FA063355314BR  0000004032013223204-1                000084
100004049900907332250220130090733225022013FA063355331BR  0000004032013223204-8                000085
100004052300909538260220130090953826022013FA104732834BR  0000004032013223538-2                000086
100004052000909544260220130090954426022013FA104732896BR  0000005032013223538-8                000087
100004054900910173270220130091017327022013FA104738899BR  0000004032013223790-1                000088
9000087                                                                                       000089
