0RETORNONOTIFICAÇÃO ELETRONICA        30052012OCOR                                            000001
100002058300246563250220100024656325022010FR584382061BR  000000903201086815-2                 000002
100002058400246564250220100024656425022010FR584382075BR  000000803201086815-3                 000003
100002060900249829020320100024982902032010FR584414745BR  000001203201087366-6                 000004
100002061000249830020320100024983002032010FR584414759BR  000001203201087366-7                 000005
100002061100249831020320100024983102032010FR584414762BR  000000803201087366-8                 000006
100002063500249833020320100024983302032010FR584414780BR  000001203201087368-1                 000007
100002063600249834020320100024983402032010FR584414793BR  000001203201087368-2                 000008
100002067200249842020320100024984202032010FR584414878BR  000001203201087369-8                 000009
100002067300249843020320100024984302032010FR584414881BR  000001603201087369-9                 000010
100002067400249844020320100024984402032010FR584414895BR  000001203201087369-10                000011
100002067500249845020320100024984502032010FR584414904BR  000001203201087369-11                000012
100002067600249846020320100024984602032010FR584414918BR  000001803201087369-12                000013
100002067700249847020320100024984702032010FR584414921BR  000001203201087369-13                000014
100002067800249848020320100024984802032010FR584414935BR  000001203201087369-14                000015
100002067900249849020320100024984902032010FR584414949BR  000001603201087369-15                000016
100002068000249850020320100024985002032010FR584414952BR  000001203201087369-17                000017
100002068100249851020320100024985102032010FR584414966BR  000001603201087369-18                000018
100002068100250392030320100025039203032010FR584420374BR  000001603201087369-19                000019
100002077400253523090320100025352309032010FR584453412BR  000002203201088401-1                 000020
100002077500253524090320100025352409032010FR584453426BR  000001903201088401-2                 000021
100002077600253525090320100025352509032010FR584453430BR  000002403201088401-6                 000022
100002077700253526090320100025352609032010FR584453443BR  000001903201088401-7                 000023
100002081700255862110320100025586211032010FR584476719BR  000001903201088662-6                 000024
100002081800255863110320100025586311032010FR584476722BR  000001903201088662-7                 000025
100002081900255864110320100025586411032010FR584476736BR  000001903201088662-8                 000026
100002082000255865110320100025586511032010FR584476740BR  000001903201088662-9                 000027
100002082100255866110320100025586611032010FR584476753BR  000001903201088662-10                000028
100002082200255867110320100025586711032010FR584476767BR  000001903201088662-11                000029
100002082300255868110320100025586811032010FR584476775BR  000001903201088662-13                000030
100002082400255869110320100025586911032010FR584476784BR  000022203201088662-16                000031
100002082500255870110320100025587011032010FR584476798BR  000003003201088662-17                000032
100002082600255871110320100025587111032010FR584476807BR  000003003201088662-19                000033
100002082700255872110320100025587211032010FR584476815BR  000002403201088662-22                000034
100002085400255874110320100025587411032010FR584476838BR  000002203201088664-1                 000035
100002085500255875110320100025587511032010FR584476841BR  000001903201088664-2                 000036
100002085600255876110320100025587611032010FR584476855BR  000001903201088664-3                 000037
100002715000508235110420110050823511042011RL963877465BR  0000002052011127617-26               000038
100002718100510119140420110051011914042011RL963894052BR  0000002052011127826-8                000039
100002720600510128140420110051012814042011RL963894145BR  0000002052011127827-10               000040
100002723600511026150420110051102615042011RL963902156BR  0000002052011128062-2                000041
100002723800511028150420110051102815042011RL963902173BR  0000002052011128062-6                000042
100002782700546340300520110054634030052011JL014246278BR  0000006062011132077-1                000043
100002782800546341300520110054634130052011JL014246281BR  0000009062011132077-2                000044
100002785300547894010620110054789401062011JL014261451BR  0000007062011132213-1                000045
100002785400547895010620110054789501062011JL014261465BR  0000010062011132213-2                000046
100002785500547896010620110054789601062011JL014261479BR  0000010062011132213-3                000047
100002790000547901010620110054790101062011JL014261522BR  0000015062011132384-1                000048
100002787500547902010620110054790201062011JL014261536BR  0000010062011132384-5                000049
100002787600547903010620110054790301062011JL014261540BR  0000007062011132384-6                000050
100002787700547904010620110054790401062011JL014261553BR  0000010062011132384-7                000051
100002787800547905010620110054790501062011JL014261567BR  0000007062011132384-10               000052
100002787900547906010620110054790601062011JL014261575BR  0000007062011132384-11               000053
100002788000547907010620110054790701062011JL014261584BR  0000007062011132384-12               000054
100002788100547908010620110054790801062011JL014261598BR  0000007062011132384-14               000055
100002790100547909010620110054790901062011JL014261607BR  0000010062011132384-15               000056
100002790200547910010620110054791001062011JL014261615BR  0000010062011132384-19               000057
100002790300547911010620110054791101062011JL014261624BR  0000007062011132384-27               000058
100002790300548126010620110054812601062011JL014263262BR  0000007062011132384-48               000059
100002790400547912010620110054791201062011JL014261638BR  0000010062011132384-58               000060
100002790500547913010620110054791301062011JL014261641BR  0000010062011132384-61               000061
100002790600547914010620110054791401062011JL014261655BR  0000010062011132384-62               000062
100002790800547916010620110054791601062011JL014261672BR  0000010062011132384-65               000063
100002790900547917010620110054791701062011JL014261686BR  0000010062011132384-67               000064
100002791000547918010620110054791801062011JL014261690BR  0000010062011132384-70               000065
100002791100547919010620110054791901062011JL014261709BR  0000014062011132384-72               000066
100002791200547920010620110054792001062011JL014261712BR  0000010062011132384-78               000067
100002791300547921010620110054792101062011JL014261726BR  0000015062011132384-87               000068
100002791400547922010620110054792201062011JL014261730BR  0000007062011132384-93               000069
100002791500547923010620110054792301062011JL014261743BR  0000013062011132384-97               000070
100002791600547924010620110054792401062011JL014261757BR  0000014062011132384-100              000071
100002791700547925010620110054792501062011JL014261765BR  0000013062011132384-106              000072
100002791800547926010620110054792601062011JL014261774BR  0000010062011132384-110              000073
100002791900547927010620110054792701062011JL014261788BR  0000014062011132384-113              000074
100002792000547928010620110054792801062011JL014261791BR  0000010062011132384-116              000075
100002792100547929010620110054792901062011JL014261805BR  0000010062011132384-124              000076
100002792200547930010620110054793001062011JL014261814BR  0000014062011132384-125              000077
100002792300547931010620110054793101062011JL014261828BR  0000015062011132384-126              000078
100002792400547932010620110054793201062011JL014261831BR  0000010062011132384-127              000079
100002792500547933010620110054793301062011JL014261845BR  0000010062011132384-128              000080
100002792600547934010620110054793401062011JL014261859BR  0000007062011132384-129              000081
100002792700547935010620110054793501062011JL014261862BR  0000014062011132384-130              000082
100002792800547936010620110054793601062011JL014261876BR  0000010062011132384-131              000083
100002792900547937010620110054793701062011JL014261880BR  0000010062011132384-132              000084
100002793000547938010620110054793801062011JL014261893BR  0000010062011132384-134              000085
100002793100547939010620110054793901062011JL014261902BR  0000010062011132384-135              000086
100002793200547940010620110054794001062011JL014261916BR  0000010062011132384-137              000087
100002793300547941010620110054794101062011JL014261920BR  0000010062011132384-138              000088
100002793400547942010620110054794201062011JL014261933BR  0000010062011132384-139              000089
100002793500547943010620110054794301062011JL014261947BR  0000010062011132384-140              000090
100002793700547945010620110054794501062011JL014261964BR  0000013062011132384-144              000091
100002793800547946010620110054794601062011JL014261978BR  0000015062011132384-146              000092
100002793900547947010620110054794701062011JL014261981BR  0000013062011132384-149              000093
100002794000547948010620110054794801062011JL014261995BR  0000007062011132384-150              000094
100002794100547949010620110054794901062011JL014262001BR  0000010062011132535-1                000095
100002794200547950010620110054795001062011JL014262015BR  0000007062011132535-2                000096
100002794300547951010620110054795101062011JL014262029BR  0000010062011132535-3                000097
100002794400547952010620110054795201062011JL014262032BR  0000007062011132535-6                000098
100003084300635000280920110063500028092011RM948899582BR  0000521102011146248-4                000099
100003097800637614041020110063761404102011RM948923848BR  0000021102011146910-3                000100
100003103300639961051020110063996105102011RM948945605BR  0000021102011147062-21               000101
100003117500642606111020110064260611102011RM948970556BR  0000021102011147689-9                000102
100003119000642609111020110064260911102011RM948970587BR  0000021102011147689-12               000103
100003119100642610111020110064261011102011RM948970595BR  0000021102011147689-13               000104
100003119400643275131020110064327513102011RM948976810BR  0000021102011147870-2                000105
100003119600643277131020110064327713102011RM948976837BR  0000021102011147870-6                000106
100003119800643279131020110064327913102011RM948976854BR  0000021102011147870-8                000107
100003123400643290131020110064329013102011RM948976956BR  0000021102011147870-19               000108
100003123600643292131020110064329213102011RM948976973BR  0000021102011147870-24               000109
100003126100643317131020110064331713102011RM948977228BR  0000021102011147870-58               000110
100003126600644162141020110064416214102011RM948985286BR  0000021102011148072-9                000111
100003280600698509090120120069850909012012RQ049603284BR  0000017012012157660-1                000112
100003285000698518090120120069851809012012RQ049603355BR  0000017012012157660-21               000113
100003285200698520090120120069852009012012JL014617345BR  0000017012012157660-25               000114
100003286400698532090120120069853209012012RQ049603474BR  0000017012012157660-47               000115
100003288300698551090120120069855109012012RQ049603664BR  0000016012012157660-80               000116
100003288400698552090120120069855209012012RQ049603678BR  0000016012012157660-82               000117
100003288500698553090120120069855309012012RQ049603681BR  0000016012012157660-83               000118
100003288600698554090120120069855409012012RQ049603695BR  0000016012012157660-84               000119
100003288700698555090120120069855509012012RQ049603704BR  0000016012012157660-85               000120
100003288800698556090120120069855609012012RQ049603718BR  0000016012012157660-87               000121
100003288900698557090120120069855709012012RQ049603721BR  0000016012012157660-88               000122
100003289000698558090120120069855809012012RQ049603735BR  0000016012012157660-89               000123
100003289100698559090120120069855909012012RQ049603749BR  0000016012012157660-93               000124
100003289200698560090120120069856009012012RQ049603752BR  0000016012012157660-94               000125
100003289300698561090120120069856109012012RQ049603766BR  0000016012012157660-95               000126
100003289400698562090120120069856209012012RQ049603770BR  0000016012012157660-96               000127
100003289500698563090120120069856309012012RQ049603783BR  0000016012012157660-97               000128
100003289600698564090120120069856409012012RQ049603797BR  0000016012012157660-98               000129
100003289700698565090120120069856509012012RQ049603806BR  0000016012012157660-99               000130
100003289800698566090120120069856609012012RQ049603810BR  0000016012012157660-101              000131
100003289900698567090120120069856709012012RQ049603823BR  0000016012012157660-105              000132
100003290000698568090120120069856809012012RQ049603837BR  0000016012012157660-106              000133
100003290100698569090120120069856909012012RQ049603845BR  0000016012012157660-107              000134
100003290200698570090120120069857009012012RQ049603854BR  0000016012012157660-108              000135
100003290300698571090120120069857109012012RQ049603868BR  0000016012012157660-109              000136
100003290400698572090120120069857209012012RQ049603871BR  0000016012012157660-110              000137
100003290500698573090120120069857309012012RQ049603885BR  0000016012012157660-111              000138
100003290600698574090120120069857409012012RQ049603899BR  0000016012012157660-112              000139
100003290700698575090120120069857509012012RQ049603908BR  0000016012012157660-113              000140
100003290800698576090120120069857609012012RQ049603911BR  0000016012012157660-114              000141
100003290900698577090120120069857709012012RQ049603925BR  0000016012012157660-115              000142
100003291000698578090120120069857809012012RQ049603939BR  0000016012012157660-117              000143
100003291100698579090120120069857909012012RQ049603942BR  0000016012012157660-118              000144
100003291200698580090120120069858009012012RQ049603956BR  0000016012012157660-119              000145
100003291300698581090120120069858109012012RQ049603960BR  0000416012012157660-120              000146
100003291400698582090120120069858209012012RQ049603973BR  0000016012012157660-123              000147
100003291500698583090120120069858309012012RQ049603987BR  0000016012012157660-125              000148
100003291600698584090120120069858409012012RQ049603995BR  0000016012012157660-126              000149
100003291700698585090120120069858509012012RQ049604007BR  0000016012012157660-127              000150
100003291800698586090120120069858609012012RQ049604015BR  0000016012012157660-128              000151
100003291900698587090120120069858709012012RQ049604024BR  0000016012012157660-129              000152
100003292000698588090120120069858809012012RQ049604038BR  0000016012012157660-131              000153
100003292100698589090120120069858909012012RQ049604041BR  0000216012012157660-132              000154
100003292200698590090120120069859009012012RQ049604055BR  0000016012012157660-133              000155
100003292300698591090120120069859109012012RQ049604069BR  0000016012012157660-134              000156
100003292400698592090120120069859209012012RQ049604072BR  0000016012012157660-136              000157
100003292500698593090120120069859309012012RQ049604086BR  0000016012012157660-137              000158
100003292600698594090120120069859409012012RQ049604090BR  0000016012012157660-139              000159
100003292700698595090120120069859509012012RQ049604109BR  0000717012012157660-141              000160
100003292800698596090120120069859609012012RQ049604112BR  0000016012012157660-142              000161
100003292900698597090120120069859709012012RQ049604126BR  0000016012012157660-143              000162
100003293000698598090120120069859809012012RQ049604130BR  0000016012012157660-144              000163
100003293100698599090120120069859909012012RQ049604143BR  0000016012012157660-145              000164
100003293200698600090120120069860009012012RQ049604157BR  0000016012012157660-146              000165
100003293300698601090120120069860109012012RQ049604165BR  0000717012012157660-147              000166
100003293400698602090120120069860209012012RQ049604174BR  0000016012012157660-148              000167
100003293500698603090120120069860309012012RQ049604188BR  0000016012012157660-149              000168
100003293600698604090120120069860409012012RQ049604191BR  0000016012012157660-150              000169
100003293700698605090120120069860509012012RQ049604205BR  0000016012012157660-151              000170
100003293800698606090120120069860609012012RQ049604214BR  0000016012012157660-152              000171
100003293900698607090120120069860709012012RQ049604228BR  0000016012012157660-153              000172
100003294000698608090120120069860809012012RQ049604231BR  0000016012012157660-154              000173
100003294100698609090120120069860909012012RQ049604245BR  0000016012012157660-155              000174
100003294200698610090120120069861009012012RQ049604259BR  0000016012012157660-156              000175
100003294300698611090120120069861109012012RQ049604262BR  0000016012012157660-158              000176
100003294400698612090120120069861209012012RQ049604276BR  0000016012012157660-159              000177
100003294500698613090120120069861309012012RQ049604280BR  0000016012012157660-160              000178
100003294600698614090120120069861409012012RQ049604293BR  0000016012012157660-161              000179
100003294700698615090120120069861509012012RQ049604302BR  0000016012012157660-162              000180
100003294800698616090120120069861609012012RQ049604316BR  0000016012012157660-163              000181
100003294900698617090120120069861709012012RQ049604320BR  0000016012012157660-164              000182
100003295000698618090120120069861809012012RQ049604333BR  0000016012012157660-165              000183
100003295100698619090120120069861909012012RQ049604347BR  0000016012012157660-166              000184
100003295200698620090120120069862009012012RQ049604355BR  0000016012012157660-167              000185
100003295300698621090120120069862109012012RQ049604364BR  0000016012012157660-168              000186
100003295400698622090120120069862209012012RQ049604378BR  0000016012012157660-169              000187
100003295600698624090120120069862409012012RQ049604395BR  0000016012012157660-171              000188
100003295700698625090120120069862509012012RQ049604404BR  0000016012012157660-172              000189
100003295800698626090120120069862609012012RQ049604418BR  0000016012012157660-173              000190
100003295900698627090120120069862709012012JL014617359BR  0000016012012157660-174              000191
100003296000698628090120120069862809012012RQ049604421BR  0000016012012157660-175              000192
100003296100698629090120120069862909012012RQ049604435BR  0000016012012157660-176              000193
100003296200698630090120120069863009012012RQ049604449BR  0000016012012157660-177              000194
100003296300698631090120120069863109012012RQ049604452BR  0000016012012157660-179              000195
100003296400698632090120120069863209012012RQ049604466BR  0000016012012157660-180              000196
100003296500698633090120120069863309012012RQ049604470BR  0000016012012157660-181              000197
100003296600698634090120120069863409012012RQ049604483BR  0000016012012157660-183              000198
100003296700698635090120120069863509012012RQ049604497BR  0000016012012157660-184              000199
100003296800698636090120120069863609012012RQ049604506BR  0000016012012157660-185              000200
100003297000698638090120120069863809012012RQ049604523BR  0000016012012157660-188              000201
100003297100698639090120120069863909012012RQ049604537BR  0000016012012157660-189              000202
100003297200698640090120120069864009012012RQ049604545BR  0000016012012157660-190              000203
100003297300698641090120120069864109012012RQ049604554BR  0000016012012157660-191              000204
100003297400698642090120120069864209012012RQ049604568BR  0000016012012157660-192              000205
100003297500698643090120120069864309012012RQ049604571BR  0000016012012157660-193              000206
100003297600698644090120120069864409012012RQ049604585BR  0000016012012157660-194              000207
100003297700698645090120120069864509012012RQ049604599BR  0000016012012157660-195              000208
100003297800698646090120120069864609012012RQ049604608BR  0000016012012157660-196              000209
100003297900698647090120120069864709012012RQ049604611BR  0000016012012157660-197              000210
100003298000698648090120120069864809012012RQ049604625BR  0000016012012157660-199              000211
100003298100698649090120120069864909012012RQ049604639BR  0000016012012157660-200              000212
100003298200698650090120120069865009012012RQ049604642BR  0000016012012157660-201              000213
100003298300698651090120120069865109012012RQ049604656BR  0000016012012157660-202              000214
100003298400698652090120120069865209012012RQ049604660BR  0000216012012157660-203              000215
100003298500698653090120120069865309012012RQ049604673BR  0000016012012157660-204              000216
100003298600698654090120120069865409012012RQ049604687BR  0000016012012157660-205              000217
100003298700698655090120120069865509012012RQ049604695BR  0000016012012157660-206              000218
100003298800698656090120120069865609012012RQ049604700BR  0000016012012157660-207              000219
100003298900698657090120120069865709012012RQ049604713BR  0000016012012157660-208              000220
100003299000698658090120120069865809012012RQ049604727BR  0000516012012157660-209              000221
100003299100698659090120120069865909012012RQ049604735BR  0000016012012157660-210              000222
100003299200698660090120120069866009012012RQ049604744BR  0000016012012157660-211              000223
100003299300698661090120120069866109012012RQ049604758BR  0000016012012157660-212              000224
100003299400698662090120120069866209012012RQ049604761BR  0000016012012157660-213              000225
100003299500698663090120120069866309012012RQ049604775BR  0000016012012157660-214              000226
100003299600698664090120120069866409012012RQ049604789BR  0000016012012157660-215              000227
100003299700698665090120120069866509012012RQ049604792BR  0000016012012157660-216              000228
100003299800698666090120120069866609012012RQ049604801BR  0000016012012157660-217              000229
100003299900698667090120120069866709012012RQ049604815BR  0000016012012157660-219              000230
100003300000698668090120120069866809012012RQ049604829BR  0000016012012157660-220              000231
100003300100698669090120120069866909012012RQ049604832BR  0000016012012157660-221              000232
100003300200698670090120120069867009012012RQ049604846BR  0000016012012157660-222              000233
100003300300698671090120120069867109012012RQ049604850BR  0000016012012157660-223              000234
100003300500698673090120120069867309012012RQ049604877BR  0000016012012157660-225              000235
100003300600698674090120120069867409012012RQ049604885BR  0000016012012157660-226              000236
100003300700698675090120120069867509012012RQ049604894BR  0000016012012157660-227              000237
100003300800698676090120120069867609012012RQ049604903BR  0000016012012157660-228              000238
100003300900698677090120120069867709012012RQ049604917BR  0000016012012157660-229              000239
100003301000698678090120120069867809012012RQ049604925BR  0000016012012157660-230              000240
100003301100698679090120120069867909012012RQ049604934BR  0000016012012157660-231              000241
100003301200698680090120120069868009012012RQ049604948BR  0000016012012157660-232              000242
100003301300698681090120120069868109012012RQ049604951BR  0000016012012157660-233              000243
100003301400698682090120120069868209012012RQ049604965BR  0000016012012157660-234              000244
100003301500698683090120120069868309012012RQ049604979BR  0000016012012157660-235              000245
100003301700698685090120120069868509012012RQ049604996BR  0000016012012157660-237              000246
100003301800698686090120120069868609012012RQ049605002BR  0000016012012157660-238              000247
100003301900698687090120120069868709012012RQ049605016BR  0000016012012157660-239              000248
100003302000698688090120120069868809012012RQ049605020BR  0000016012012157660-240              000249
100003302100698689090120120069868909012012RQ049605033BR  0000016012012157660-241              000250
100003302200698690090120120069869009012012RQ049605047BR  0000016012012157660-242              000251
100003302300698691090120120069869109012012RQ049605055BR  0000016012012157660-243              000252
100003302400698692090120120069869209012012RQ049605064BR  0000016012012157660-244              000253
100003302500698693090120120069869309012012RQ049605078BR  0000016012012157660-245              000254
100003302600698694090120120069869409012012RQ049605081BR  0000016012012157660-246              000255
100003302700698695090120120069869509012012RQ049605095BR  0000016012012157660-247              000256
100003302800698696090120120069869609012012RQ049605104BR  0000016012012157660-248              000257
100003302900698697090120120069869709012012RQ049605118BR  0000016012012157660-249              000258
100003303000698698090120120069869809012012RQ049605121BR  0000016012012157660-250              000259
100003303100698699090120120069869909012012RQ049605135BR  0000016012012157660-251              000260
100003303200698700090120120069870009012012RQ049605149BR  0000216012012157660-252              000261
100003303300698701090120120069870109012012RQ049605152BR  0000016012012157660-253              000262
100003303400698702090120120069870209012012RQ049605166BR  0000016012012157660-254              000263
100003303500698703090120120069870309012012RQ049605170BR  0000016012012157660-255              000264
100003303600698704090120120069870409012012RQ049605183BR  0000216012012157660-256              000265
100003303700698705090120120069870509012012RQ049605197BR  0000016012012157660-257              000266
100003303800698706090120120069870609012012RQ049605206BR  0000016012012157660-258              000267
100003303900698707090120120069870709012012RQ049605210BR  0000016012012157660-259              000268
100003304000698708090120120069870809012012RQ049605223BR  0000016012012157660-260              000269
100003304100698709090120120069870909012012RQ049605237BR  0000016012012157660-261              000270
100003304200698710090120120069871009012012RQ049605245BR  0000016012012157660-262              000271
100003304300698711090120120069871109012012RQ049605254BR  0000016012012157660-263              000272
100003304400698712090120120069871209012012RQ049605268BR  0000016012012157660-264              000273
100003304500698713090120120069871309012012RQ049605271BR  0000016012012157660-265              000274
100003304600698714090120120069871409012012RQ049605285BR  0000016012012157660-266              000275
100003304700698715090120120069871509012012RQ049605299BR  0000016012012157660-267              000276
100003304800698716090120120069871609012012RQ049605308BR  0000016012012157660-268              000277
100003304900698717090120120069871709012012RQ049605311BR  0000016012012157660-269              000278
100003305000698718090120120069871809012012RQ049605325BR  0000016012012157660-270              000279
100003305100698719090120120069871909012012RQ049605339BR  0000016012012157660-271              000280
100003305200698720090120120069872009012012RQ049605342BR  0000016012012157660-272              000281
100003305300698721090120120069872109012012RQ049605356BR  0000717012012157660-273              000282
100003305400698722090120120069872209012012RQ049605360BR  0000016012012157660-274              000283
100003305500698723090120120069872309012012RQ049605373BR  0000016012012157660-275              000284
100003305600698724090120120069872409012012RQ049605387BR  0000016012012157660-276              000285
100003305700698725090120120069872509012012RQ049605395BR  0000016012012157660-277              000286
100003305800698726090120120069872609012012RQ049605400BR  0000016012012157660-278              000287
100003305900698727090120120069872709012012RQ049605413BR  0000016012012157660-279              000288
100003306000698728090120120069872809012012RQ049605427BR  0000016012012157660-280              000289
100003306100698729090120120069872909012012RQ049605435BR  0000017012012157660-281              000290
100003306200698730090120120069873009012012RQ049605444BR  0000016012012157660-282              000291
100003306300698731090120120069873109012012RQ049605458BR  0000016012012157660-283              000292
100003306400698732090120120069873209012012RQ049605461BR  0000016012012157660-284              000293
100003306500698733090120120069873309012012RQ049605475BR  0000017012012157660-285              000294
100003306600698734090120120069873409012012RQ049605489BR  0000016012012157660-286              000295
100003306700698735090120120069873509012012RQ049605492BR  0000016012012157660-287              000296
100003306800698736090120120069873609012012RQ049605501BR  0000016012012157660-288              000297
100003306900698737090120120069873709012012RQ049605515BR  0000516012012157660-289              000298
100003307000698738090120120069873809012012RQ049605529BR  0000016012012157660-290              000299
100003307100698739090120120069873909012012RQ049605532BR  0000016012012157660-291              000300
100003307200698740090120120069874009012012RQ049605546BR  0000016012012157660-292              000301
100003307300698741090120120069874109012012RQ049605550BR  0000016012012157660-293              000302
100003307400698742090120120069874209012012RQ049605563BR  0000016012012157660-294              000303
100003307500698743090120120069874309012012RQ049605577BR  0000016012012157660-295              000304
100003307600698744090120120069874409012012RQ049605585BR  0000016012012157660-296              000305
100003307700698745090120120069874509012012RQ049605594BR  0000016012012157660-297              000306
100003307800698746090120120069874609012012RQ049605603BR  0000016012012157660-298              000307
100003307900698747090120120069874709012012RQ049605617BR  0000016012012157660-299              000308
100003308000698748090120120069874809012012RQ049605625BR  0000016012012157660-300              000309
100003308100698749090120120069874909012012RQ049605634BR  0000016012012157660-301              000310
100003308200698750090120120069875009012012RQ049605648BR  0000016012012157660-302              000311
100003308300698751090120120069875109012012RQ049605651BR  0000016012012157660-303              000312
100003308400698752090120120069875209012012RQ049605665BR  0000916012012157660-305              000313
100003308500698753090120120069875309012012JL014617362BR  0000017012012157660-306              000314
100003308600698754090120120069875409012012RQ049605679BR  0000017012012157660-309              000315
100003308700698755090120120069875509012012RQ049605682BR  0000016012012157660-310              000316
100003308800698756090120120069875609012012RQ049605696BR  0000016012012157660-311              000317
100003308900698757090120120069875709012012RQ049605705BR  0000016012012157660-312              000318
100003309000698758090120120069875809012012RQ049605719BR  0000016012012157660-313              000319
100003309100698759090120120069875909012012RQ049605722BR  0000016012012157660-314              000320
100003309200698760090120120069876009012012RQ049605736BR  0000016012012157660-315              000321
100003309300698761090120120069876109012012RQ049605740BR  0000016012012157660-316              000322
100003309400698762090120120069876209012012RQ049605753BR  0000016012012157660-317              000323
100003309500698763090120120069876309012012RQ049605767BR  0000016012012157660-318              000324
100003309700698765090120120069876509012012RQ049605784BR  0000016012012157660-321              000325
100003310100698769090120120069876909012012RQ049605824BR  0000416012012157660-326              000326
100003310200698770090120120069877009012012RQ049605838BR  0000016012012157660-327              000327
100003310300698771090120120069877109012012RQ049605841BR  0000416012012157660-328              000328
100003310400698772090120120069877209012012RQ049605855BR  0000016012012157670-1                000329
100003313200703362110120120070336211012012RQ049647492BR  0000017012012157995-21               000330
100003313300703363110120120070336311012012RQ049647501BR  0000017012012157995-22               000331
100003313400703364110120120070336411012012RQ049647515BR  0000017012012157995-23               000332
100003313500703365110120120070336511012012RQ049647529BR  0000017012012157995-24               000333
100003313800703368110120120070336811012012RQ049647550BR  0000017012012157995-27               000334
100003314400703369110120120070336911012012RQ049647563BR  0000016012012157998-1                000335
100003314600703371110120120070337111012012RQ049647585BR  0000017012012157998-3                000336
100003314700703372110120120070337211012012RQ049647594BR  0000017012012157998-4                000337
100003314800703373110120120070337311012012RQ049647603BR  0000016012012157998-5                000338
100003314900703374110120120070337411012012RQ049647617BR  0000016012012157998-6                000339
100003315000703375110120120070337511012012RQ049647625BR  0000017012012157998-8                000340
100003317600703407110120120070340711012012RQ049647943BR  0000016012012158007-39               000341
100003317700703408110120120070340811012012RQ049647957BR  0000016012012158007-40               000342
100003317900703410110120120070341011012012RQ049647974BR  0000016012012158009-2                000343
100003323500704114120120120070411412012012RQ049655009BR  0000017012012158228-10               000344
100003423700730938140320120073093814032012RJ341897121BR  0000020032012166288-1                000345
100003425700730939140320120073093914032012RJ341897135BR  0000520032012166288-2                000346
100003425900730941140320120073094114032012RJ341897152BR  0000020032012166288-4                000347
100003426000730942140320120073094214032012RJ341897166BR  0000020032012166288-7                000348
100003426400730951140320120073095114032012RJ341897254BR  0000020032012166293-11               000349
100003426500730952140320120073095214032012RJ341897268BR  0000020032012166293-12               000350
100003426600730953140320120073095314032012RJ341897271BR  0000019032012166293-13               000351
100003430900731489150320120073148915032012RJ341902657BR  0000019032012166719-5                000352
100003473100747714110420120074771411042012FR851898403BR  0000024042012170226-11               000353
100003481000750955190420120075095519042012FR851930713BR  0000024042012171320-7                000354
100003482800751542190420120075154219042012FR851936438BR  0000024042012171365-2                000355
100003486900751928200420120075192820042012FR851940295BR  0000024042012171500-4                000356
100003504300756641020520120075664102052012FR851987341BR  0000014052012172350-5                000357
100003504400756642020520120075664202052012FR851987355BR  0000008052012172350-6                000358
100003504500756643020520120075664302052012FR851987369BR  0000008052012172350-7                000359
100003506700756649020520120075664902052012FR851987426BR  0000008052012172732-2                000360
100003506800756650020520120075665002052012FR851987430BR  0000008052012172732-3                000361
100003506900756651020520120075665102052012FR851987443BR  0000008052012172732-5                000362
100003509300756660020520120075666002052012FR851987531BR  0000008052012172734-9                000363
100003509400756661020520120075666102052012FR851987545BR  0000009052012172734-10               000364
100003509500756662020520120075666202052012FR851987559BR  0000008052012172734-11               000365
100003509600756663020520120075666302052012FR851987562BR  0000009052012172734-12               000366
100003512000759779070520120075977907052012FR852018763BR  0000014052012173265-1                000367
100003515200759782070520120075978207052012FR852018794BR  0000016052012173266-1                000368
100003515300759783070520120075978307052012FR852018803BR  0000014052012173266-2                000369
100003515400759784070520120075978407052012FR852018817BR  0000014052012173266-4                000370
100003515600759786070520120075978607052012FR852018834BR  0000014052012173266-6                000371
100003517100759791070520120075979107052012FR852018882BR  0000814052012173273-3                000372
100003517300759793070520120075979307052012FR852018905BR  0000014052012173273-5                000373
100003517700759797070520120075979707052012FR852018940BR  0000015052012173273-10               000374
100003517800759798070520120075979807052012FR852018953BR  0000014052012173273-11               000375
100003519200760411090520120076041109052012FR852025027BR  0001222052012173677-1                000376
100003519400760413090520120076041309052012FR852025044BR  0000015052012173677-4                000377
100003519500760414090520120076041409052012FR852025058BR  0000015052012173677-5                000378
100003521100761083100520120076108310052012FR852031739BR  0000015052012174052-1                000379
100003521300761085100520120076108510052012FR852031756BR  0000022052012174052-3                000380
100003521400761086100520120076108610052012FR852031760BR  0000022052012174052-4                000381
100003521500761087100520120076108710052012FR852031773BR  0000014052012174052-5                000382
100003521600761088100520120076108810052012FR852031787BR  0000016052012174052-8                000383
100003521700761089100520120076108910052012FR852031795BR  0000015052012174052-9                000384
100003521800761090100520120076109010052012FR852031800BR  0000014052012174052-10               000385
100003523900761094100520120076109410052012FR852031844BR  0000016052012174071-5                000386
100003528100761100100520120076110010052012FR852031901BR  0000016052012174212-5                000387
100003528200761101100520120076110110052012FR852031915BR  0000515052012174212-6                000388
100003528300761102100520120076110210052012FR852031929BR  0000016052012174212-7                000389
100003528400761103100520120076110310052012FR852031932BR  0000016052012174212-8                000390
100003531200762175140520120076217514052012FR852042643BR  0000025052012174510-1                000391
100003531400762177140520120076217714052012FR852042665BR  0000022052012174510-3                000392
100003531500762178140520120076217814052012FR852042674BR  0000022052012174510-4                000393
100003542500767354220520120076735422052012FR971503442BR  0000029052012175705-2                000394
100003543700767357220520120076735722052012FR971503473BR  0000029052012175705-5                000395
100003544300767358220520120076735822052012FR971503487BR  0000029052012175705-6                000396
100003545000767365220520120076736522052012FR971503558BR  0000029052012175705-21               000397
100003545400767369220520120076736922052012FR971503592BR  0000029052012175710-1                000398
9000397                                                                                       000399
