0RETORNONOTIFICAÇÃO ELETRONICA        06112014OCOR                                            000001
100004993301356634231020140135663423102014FA294769104BR  0000003112014329073-3                000002
100004993401356635231020140135663523102014FA294769118BR  0000003112014329073-4                000003
100004994401360894291020140136089429102014FA294799429BR  0000003112014329383-1                000004
100004996301360907291020140136090729102014FA294799551BR  0000003112014329920-4                000005
100004996701360911291020140136091129102014FA294799596BR  0000004112014329920-8                000006
100004996801360912291020140136091229102014FA294799605BR  0000003112014329920-9                000007
9000006                                                                                       000008
