0RETORNONOTIFICAÇÃO ELETRONICA        18062014OCOR                                            000001
100004770301233443290520140123344329052014FA271263915BR  0000716062014302899-60               000002
100004772401237883030620140123788303062014FA271297738BR  0000016062014303248-3                000003
100004776301240830050620140124083005062014FA282973010BR  0000016062014303951-8                000004
100004778401240836050620140124083605062014FA282973071BR  0000016062014303951-25               000005
100004778500000000000000000000000000000000FA282973085BR  0000016062014303951-41               000006
100004778500000000000000000000000000000000FA282973099BR  0000016062014303951-71               000007
100004778701245683110620140124568311062014FA283008892BR  0000016062014305005-2                000008
100004778901245685110620140124568511062014FA283008915BR  0000016062014305005-4                000009
100004779001245686110620140124568611062014FA283008929BR  0000016062014305005-5                000010
100004779101245687110620140124568711062014FA283008932BR  0000016062014305005-6                000011
100004779201245688110620140124568811062014FA283008946BR  0000016062014305005-7                000012
100004779401245690110620140124569011062014FA283008963BR  0000016062014305005-9                000013
100004780801245693110620140124569311062014FA283008994BR  0000016062014305005-18               000014
100004781101245696110620140124569611062014FA283009028BR  0000016062014305005-28               000015
100004781401245699110620140124569911062014FA283009059BR  0000016062014305005-54               000016
100004781501245700110620140124570011062014FA283009062BR  0000016062014305005-55               000017
100004781701245702110620140124570211062014FA283009080BR  0000016062014305005-57               000018
100004781801245703110620140124570311062014FA283009093BR  0000016062014305005-58               000019
100004782001245705110620140124570511062014FA283009116BR  0000016062014305005-60               000020
100004782101245706110620140124570611062014FA283009120BR  0000016062014305005-61               000021
100004782201245707110620140124570711062014FA283009133BR  0000016062014305005-63               000022
100004782301245708110620140124570811062014FA283009147BR  0000016062014305005-66               000023
100004782401245709110620140124570911062014FA283009155BR  0000016062014305007-1                000024
100004782501245710110620140124571011062014FA283009164BR  0000016062014305007-2                000025
100004783101245713110620140124571311062014FA283009195BR  0000016062014305007-5                000026
100004783901245715110620140124571511062014FA283009218BR  0000016062014305008-1                000027
100004784801245716110620140124571611062014FA283009221BR  0000016062014305008-2                000028
100004784901245717110620140124571711062014FA283009235BR  0000016062014305008-10               000029
100004785001245718110620140124571811062014FA283009249BR  0000016062014305008-40               000030
100004785301245721110620140124572111062014FA283009270BR  0000016062014305008-56               000031
100004785501245723110620140124572311062014FA283009297BR  0000016062014305008-58               000032
100004785801245726110620140124572611062014FA283009323BR  0000016062014305008-63               000033
100004786101245729110620140124572911062014FA283009354BR  0000016062014305008-76               000034
100004786401245732110620140124573211062014FA283009385BR  0000016062014305008-84               000035
100004786501245733110620140124573311062014FA283009399BR  0000016062014305008-85               000036
100004786701245735110620140124573511062014FA283009411BR  0000016062014305008-87               000037
100004787001245738110620140124573811062014FA283009442BR  0000016062014305008-93               000038
100004787101245739110620140124573911062014FA283009456BR  0000016062014305008-94               000039
100004787201245740110620140124574011062014FA283009460BR  0000016062014305008-103              000040
100004787301245741110620140124574111062014FA283009473BR  0000016062014305008-104              000041
100004787701245745110620140124574511062014FA283009513BR  0000016062014305009-3                000042
100004788701245746110620140124574611062014FA283009527BR  0000016062014305009-4                000043
100004788801245747110620140124574711062014FA283009535BR  0000016062014305009-8                000044
100004789301245752110620140124575211062014FA283009589BR  0000016062014305010-5                000045
9000044                                                                                       000046
