0RETORNONOTIFICAÇÃO ELETRONICA        06092012OCOR                                            000001
100003709900816719220820120081671922082012FR971987520BR  0001204092012189807-13               000002
100003711800816727220820120081672722082012FR971987604BR  0001204092012189811-6                000003
100003714500816734220820120081673422082012FR971987670BR  0000204092012189817-9                000004
100003727500819467280820120081946728082012FA012316210BR  0000006092012190576-3                000005
100003727600819468280820120081946828082012FA012316223BR  0000004092012190576-5                000006
100003730100819476280820120081947628082012FA012316308BR  0000006092012190601-2                000007
100003730300819478280820120081947828082012FA012316325BR  0000006092012190601-5                000008
100003730400819479280820120081947928082012FA012316339BR  0000005092012190601-6                000009
100003734800819499280820120081949928082012FA012316532BR  0000704092012190601-53               000010
100003735000819501280820120081950128082012FA012316550BR  0000905092012190601-57               000011
100003735200819503280820120081950328082012FA012316577BR  0000006092012190601-64               000012
100003736500819516280820120081951628082012FA012316705BR  0000706092012190601-145              000013
100003736800819519280820120081951928082012FA012316736BR  0000904092012190601-167              000014
100003737100819522280820120081952228082012FA012316767BR  0000904092012190601-204              000015
100003737200819523280820120081952328082012FA012316775BR  0000904092012190601-206              000016
100003738200000000000000000000000000000000FA012316872BR  0000705092012190601-423              000017
100003738200000000000000000000000000000000FA012319825BR  0000705092012190601-440              000018
100003741100821850310820120082185031082012FA012339768BR  0000006092012191321-30               000019
100003742000821859310820120082185931082012FA012339856BR  0000005092012191332-6                000020
100003739000821862310820120082186231082012FA012339887BR  0000006092012191361-1                000021
100003746900821870310820120082187031082012FA012339961BR  0000006092012191361-22               000022
9000021                                                                                       000023
