0RETORNONOTIFICAÇÃO ELETRONICA        21092011OCOR                                            000001
100002846600574305070720110057430507072011JL014564850BR  0000019092011136047-16               000002
100002969100613100260820110061310026082011RM948300220BR  0000019092011142149-6                000003
100002995600616081010920110061608101092011JL014573595BR  0000019092011142714-10               000004
100002988500616697020920110061669702092011JL014573922BR  0000019092011143116-4                000005
100002989200616699020920110061669902092011JL014573940BR  0000019092011143116-6                000006
100002989300616700020920110061670002092011JL014573953BR  0000019092011143116-7                000007
100002990400616702020920110061670202092011JL014573975BR  0000019092011143116-9                000008
100002999700621283080920110062128308092011RM948373947BR  0000019092011143513-8                000009
100002999900621285080920110062128508092011JL014576040BR  0000019092011143513-10               000010
100003000000621286080920110062128608092011JL014576053BR  0000019092011143513-11               000011
100003000300621291080920110062129108092011JL014576067BR  0000019092011143678-7                000012
100003001800623432120920110062343212092011RM948393779BR  0000019092011143952-4                000013
100003001900623433120920110062343312092011RM948393782BR  0000019092011143952-5                000014
100003002000623434120920110062343412092011RM948393796BR  0000019092011143952-6                000015
100003002100623435120920110062343512092011RM948393805BR  0000019092011143952-7                000016
9000015                                                                                       000017
