0RETORNONOTIFICAÇÃO ELETRONICA        08032013OCOR                                            000001
100003971400895110290120130089511029012013FA063240299BR  0000019022013218293-9                000002
100003980400895132290120130089513229012013FA063240515BR  0000022022013218301-8                000003
100003983300895145290120130089514529012013FA063240648BR  0000819022013218303-8                000004
100003988200900121050220130090012105022013FA063288359BR  0000019022013219585-8                000005
100003994300900125050220130090012505022013FA063288393BR  0000019022013219593-1                000006
100003994500900128050220130090012805022013FA063288420BR  0000022022013219593-5                000007
100003994600900129050220130090012905022013FA063288433BR  0000022022013219593-6                000008
100003999300900153050220130090015305022013FA063288671BR  0000019022013220041-13               000009
100004006900902819140220130090281914022013FA063314181BR  0000019022013220606-1                000010
100004007100902820140220130090282014022013FA063314195BR  0000019022013220606-2                000011
100004011000902829140220130090282914022013FA063314283BR  0000019022013220921-3                000012
100004012800902833140220130090283314022013FA063314323BR  0000019022013221012-2                000013
100004013400902835140220130090283514022013FA063314345BR  0000019022013221012-19               000014
100004013100902838140220130090283814022013FA063314371BR  0000019022013221012-35               000015
100004013000902839140220130090283914022013FA063314385BR  0000019022013221012-37               000016
100004012900902840140220130090284014022013FA063314399BR  0000022022013221012-38               000017
100004011100902841140220130090284114022013FA063314408BR  0000019022013221012-39               000018
100004014100903348140220130090334814022013FA063318807BR  0000019022013221350-5                000019
100004027700904144150220130090414415022013FA063326613BR  0000022022013221455-2                000020
100004027400904147150220130090414715022013FA063326644BR  0000022022013221455-9                000021
100004037100905383190220130090538319022013FA063337253BR  0000022022013222108-18               000022
100004036800905386190220130090538619022013FA063337284BR  0000022022013222108-28               000023
100004035000905404190220130090540419022013FA063337465BR  0000022022013222108-63               000024
100004034500905409190220130090540919022013FA063337514BR  0000022022013222108-73               000025
100004034300905411190220130090541119022013FA063337531BR  0000022022013222108-77               000026
100004029400905689200220130090568920022013FA063339965BR  0000022022013222440-2                000027
100004029300905692200220130090569220022013FA063339991BR  0000022022013222440-6                000028
100004047400907035220220130090703522022013FA063352940BR  0000007032013222996-1                000029
100004050000907331250220130090733125022013FA063355328BR  0000006032013223204-2                000030
100004052400909539260220130090953926022013FA104732848BR  0000007032013223538-3                000031
100004052500909540260220130090954026022013FA104732851BR  0000007032013223538-4                000032
100004051800909542260220130090954226022013FA104732879BR  0000007032013223538-6                000033
100004051900909543260220130090954326022013FA104732882BR  0000007032013223538-7                000034
100004054300910174270220130091017427022013FA104738908BR  0000007032013223790-2                000035
100004058700910851280220130091085128022013FA104745223BR  0000807032013224040-1                000036
100004058900910855280220130091085528022013FA104745268BR  0000007032013224040-11               000037
100004058600910861280220130091086128022013FA104745325BR  0000007032013224040-30               000038
9000037                                                                                       000039
