0RETORNONOTIFICAÇÃO ELETRONICA        05112010OCOR                                            000001
100002342300311594290720100031159429072010RL793359115BR  0000004112010106952-3                000002
100002342400311595290720100031159529072010RL793359129BR  0000004112010106952-4                000003
100002469800412201251020100041220125102010RL847638659BR  0000004112010114044-2                000004
100002469900412202251020100041220225102010RL847638662BR  0000004112010114044-4                000005
100002470000412203251020100041220325102010RL847638676BR  0000004112010114044-5                000006
100002470200412205251020100041220525102010RL847638693BR  0000004112010114044-7                000007
100002470300412206251020100041220625102010RL847638702BR  0000104112010114044-8                000008
100002468600415632261020100041563226102010RL847672920BR  0000004112010114132-2                000009
100002468700415633261020100041563326102010RL847672933BR  0000004112010114132-3                000010
100002468800415634261020100041563426102010RL847672947BR  0000004112010114132-4                000011
100002469000415635261020100041563526102010RL847672955BR  0000004112010114132-5                000012
100002469300415636261020100041563626102010RL847672964BR  0000504112010114132-6                000013
100002471400415638261020100041563826102010RL847672981BR  0000004112010114132-8                000014
100002471800415640261020100041564026102010RL847673001BR  0000004112010114132-10               000015
100002471900415641261020100041564126102010RL847673015BR  0000004112010114132-11               000016
100002472000415642261020100041564226102010RL847673029BR  0000004112010114132-12               000017
100002472600415646261020100041564626102010RL847673063BR  0000004112010114132-16               000018
100002472700415647261020100041564726102010RL847673077BR  0000004112010114132-17               000019
100002473600415650261020100041565026102010RL847673103BR  0000004112010114132-20               000020
9000019                                                                                       000021
