0RETORNONOTIFICAÇÃO ELETRONICA        08082012REGI                                            000001
100003678200802806010820120080280601082012               0000000000000186101-1                000002
100003678400802807010820120080280701082012               0000000000000186101-3                000003
100003679100802808010820120080280801082012               0000000000000186101-4                000004
100003679700802811010820120080281101082012               0000000000000186101-57               000005
100003680000802820010820120080282001082012               0000000000000186101-271              000006
100003680100802821010820120080282101082012               0000000000000186101-277              000007
100003680200802822010820120080282201082012               0000000000000186101-295              000008
100003680300802823010820120080282301082012               0000000000000186101-315              000009
100003680400802824010820120080282401082012               0000000000000186101-331              000010
100003680500802825010820120080282501082012               0000000000000186101-349              000011
100003680600802826010820120080282601082012               0000000000000186101-369              000012
100003680700802827010820120080282701082012               0000000000000186101-388              000013
100003680800802828010820120080282801082012               0000000000000186101-405              000014
100003680900802829010820120080282901082012               0000000000000186101-421              000015
100003681000802830010820120080283001082012               0000000000000186101-425              000016
9000015                                                                                       000017
