0RETORNONOTIFICAÇÃO ELETRONICA        02122010REGI                                            000001
100002523100434105021220100043410502122010               0000000000000116892-1                000002
100002523200434106021220100043410602122010               0000000000000116892-2                000003
100002523300434107021220100043410702122010               0000000000000116892-3                000004
100002523400434108021220100043410802122010               0000000000000116892-4                000005
100002523500434109021220100043410902122010               0000000000000116892-5                000006
9000005                                                                                       000007
