0RETORNONOTIFICAÇÃO ELETRONICA        29112010REGI                                            000001
100002509400431053291120100043105329112010               0000000000000116554-1                000002
100002510800431054291120100043105429112010               0000000000000116554-2                000003
100002511100431055291120100043105529112010               0000000000000116554-3                000004
100002511400431056291120100043105629112010               0000000000000116554-4                000005
100002515000431057291120100043105729112010               0000000000000116554-5                000006
100002515800431058291120100043105829112010               0000000000000116554-6                000007
100002516700431059291120100043105929112010               0000000000000116554-7                000008
100002517100431060291120100043106029112010               0000000000000116554-8                000009
100002517200431061291120100043106129112010               0000000000000116554-9                000010
100002517300431062291120100043106229112010               0000000000000116554-10               000011
100002517400431063291120100043106329112010               0000000000000116554-11               000012
100002517500431064291120100043106429112010               0000000000000116554-12               000013
100002517600431065291120100043106529112010               0000000000000116554-13               000014
100002518100431066291120100043106629112010               0000000000000116554-14               000015
100002518200431067291120100043106729112010               0000000000000116554-15               000016
100002518300431068291120100043106829112010               0000000000000116554-16               000017
100002518400431069291120100043106929112010               0000000000000116554-17               000018
100002518500431070291120100043107029112010               0000000000000116554-18               000019
100002518600431071291120100043107129112010               0000000000000116554-19               000020
100002519000431072291120100043107229112010               0000000000000116554-20               000021
100002519100431073291120100043107329112010               0000000000000116554-21               000022
100002519300431074291120100043107429112010               0000000000000116554-22               000023
100002519600431075291120100043107529112010               0000000000000116554-23               000024
100002519700431076291120100043107629112010               0000000000000116554-24               000025
100002519800431077291120100043107729112010               0000000000000116554-25               000026
9000025                                                                                       000027
