0RETORNONOTIFICAÇÃO ELETRONICA        07062011REGI                                            000001
100002798000551811060620110055181106062011               0000000000000132961-3                000002
100002798100551812060620110055181206062011               0000000000000132961-4                000003
100002783200551813060620110055181306062011               0000000000000132965-2                000004
100002783600551814060620110055181406062011               0000000000000132965-3                000005
100002784200551815060620110055181506062011               0000000000000132965-4                000006
100002784800551816060620110055181606062011               0000000000000132965-5                000007
100002785600551817060620110055181706062011               0000000000000132965-6                000008
100002786300551818060620110055181806062011               0000000000000132965-7                000009
100002788700551819060620110055181906062011               0000000000000132965-8                000010
100002789200551820060620110055182006062011               0000000000000132965-9                000011
100002789300551821060620110055182106062011               0000000000000132965-10               000012
100002789500551822060620110055182206062011               0000000000000132965-11               000013
100002797100551823060620110055182306062011               0000000000000132965-12               000014
100002797300551824060620110055182406062011               0000000000000132965-13               000015
100002797400551825060620110055182506062011               0000000000000132965-14               000016
100002801100551826060620110055182606062011               0000000000000132965-15               000017
100002802700551827060620110055182706062011               0000000000000132965-16               000018
9000017                                                                                       000019
