0RETORNONOTIFICAÇÃO ELETRONICA        03092013REGI                                            000001
100004371901024320280820130102432028082013               0000000000000253994-1                000002
100004372001024321280820130102432128082013               0000000000000253994-2                000003
100004367201026455020920130102645502092013               0000000000000254496-1                000004
100004355701026456020920130102645602092013               0000000000000254496-2                000005
100004373501026457020920130102645702092013               0000000000000254496-3                000006
100004355601026458020920130102645802092013               0000000000000254496-4                000007
100004357301026459020920130102645902092013               0000000000000254496-5                000008
100004373601026460020920130102646002092013               0000000000000254496-6                000009
100004358601026461020920130102646102092013               0000000000000254496-7                000010
100004362601026462020920130102646202092013               0000000000000254496-8                000011
100004369001026463020920130102646302092013               0000000000000254496-9                000012
100004373401026464020920130102646402092013               0000000000000254496-10               000013
100004361401026465020920130102646502092013               0000000000000254496-11               000014
100004368801026466020920130102646602092013               0000000000000254496-12               000015
100004355001026467020920130102646702092013               0000000000000254496-13               000016
100004355101026468020920130102646802092013               0000000000000254496-14               000017
100004360101026469020920130102646902092013               0000000000000254496-15               000018
100004360201026470020920130102647002092013               0000000000000254496-16               000019
100004354801026471020920130102647102092013               0000000000000254496-17               000020
100004376501026472020920130102647202092013               0000000000000254497-1                000021
100004375201026473020920130102647302092013               0000000000000254497-2                000022
100004362801026474020920130102647402092013               0000000000000254497-3                000023
100004366601026475020920130102647502092013               0000000000000254497-4                000024
100004375001026476020920130102647602092013               0000000000000254497-5                000025
100004369401026477020920130102647702092013               0000000000000254497-6                000026
100004375401026478020920130102647802092013               0000000000000254497-7                000027
100004353301026479020920130102647902092013               0000000000000254497-8                000028
100004369101026480020920130102648002092013               0000000000000254497-9                000029
100004376701026481020920130102648102092013               0000000000000254497-10               000030
100004355501026482020920130102648202092013               0000000000000254497-11               000031
100004375601026483020920130102648302092013               0000000000000254497-12               000032
100004375501026484020920130102648402092013               0000000000000254497-13               000033
100004375301026485020920130102648502092013               0000000000000254497-14               000034
100004376901026486020920130102648602092013               0000000000000254712-1                000035
100004377001026487020920130102648702092013               0000000000000254712-2                000036
100004377201026488020920130102648802092013               0000000000000254712-3                000037
100004377101026489020920130102648902092013               0000000000000254712-5                000038
9000037                                                                                       000039
