0RETORNONOTIFICAÇÃO ELETRONICA        18022011REGI                                            000001
100002633400477092180220110047709218022011               0000000000000122818-1                000002
100002633500477093180220110047709318022011               0000000000000122818-2                000003
100002633600477094180220110047709418022011               0000000000000122818-4                000004
100002633700477095180220110047709518022011               0000000000000122818-7                000005
100002633800477096180220110047709618022011               0000000000000122818-8                000006
100002633900477097180220110047709718022011               0000000000000122818-9                000007
9000006                                                                                       000008
