0RETORNONOTIFICAÇÃO ELETRONICA        23062014REGI                                            000001
100004816201250974180620140125097418062014               0000000000000306109-1                000002
100004816301250975180620140125097518062014               0000000000000306109-2                000003
100004816401250976180620140125097618062014               0000000000000306109-3                000004
100004816501250977180620140125097718062014               0000000000000306109-4                000005
9000004                                                                                       000006
