0RETORNONOTIFICAÇÃO ELETRONICA        08122014REGI                                            000001
100005023801398067051220140139806705122014               0000000000000336050-1                000002
100005023901398068051220140139806805122014               0000000000000336050-2                000003
100005024301398069051220140139806905122014               0000000000000336050-3                000004
100005024401398070051220140139807005122014               0000000000000336050-4                000005
100005024501398071051220140139807105122014               0000000000000336050-5                000006
100005024601398072051220140139807205122014               0000000000000336050-7                000007
100005024701398073051220140139807305122014               0000000000000336050-8                000008
100005024801398074051220140139807405122014               0000000000000336050-9                000009
100005024901398075051220140139807505122014               0000000000000336050-10               000010
100005025101398076051220140139807605122014               0000000000000336050-11               000011
100005025301398077051220140139807705122014               0000000000000336050-12               000012
100005025401398078051220140139807805122014               0000000000000336053-1                000013
100005025501398079051220140139807905122014               0000000000000336053-2                000014
9000013                                                                                       000015
