0RETORNONOTIFICAÇÃO ELETRONICA        08052013REGI                                            000001
100004119600936666120420130093666612042013FA104975986BR  0000022042013230657-1                000002
100004120000936667120420130093666712042013FA104975990BR  0000022042013230657-7                000003
100004119700936668120420130093666812042013               0000000000000230657-8                000004
100004119900936669120420130093666912042013FA104976010BR  0000022042013230657-9                000005
100004119800936670120420130093667012042013FA104976023BR  0000019042013230657-10               000006
100004121000936671120420130093667112042013FA104976037BR  0000022042013230657-11               000007
100004119500936672120420130093667212042013FA104976045BR  0000022042013230657-12               000008
100004122000936889120420130093688912042013FA104978214BR  0000022042013231272-1                000009
100004122100936890120420130093689012042013FA104978228BR  0000022042013231272-2                000010
100004121900936891120420130093689112042013FA104978231BR  0001226042013231272-3                000011
100004121800936892120420130093689212042013FA104978245BR  0000022042013231272-4                000012
100004122200936893120420130093689312042013FA104978259BR  0000022042013231278-1                000013
100004124100936894120420130093689412042013FA104978262BR  0000019042013231278-2                000014
100004124200936895120420130093689512042013FA104978276BR  0000026042013231278-3                000015
100004124300936896120420130093689612042013FA104978280BR  0000019042013231278-4                000016
100004124600936897120420130093689712042013FA104978293BR  0000022042013231278-6                000017
100004124000936898120420130093689812042013FA104978302BR  0000022042013231278-7                000018
100004127100936899120420130093689912042013FA104978316BR  0000022042013231279-1                000019
100004127700936900120420130093690012042013FA104978320BR  0000022042013231279-7                000020
100004127200936901120420130093690112042013FA104978333BR  0000019042013231279-8                000021
100004130200936902120420130093690212042013FA104978347BR  0000022042013231281-1                000022
100004130300936903120420130093690312042013FA104978355BR  0000022042013231281-2                000023
100004130100936904120420130093690412042013FA104978364BR  0000022042013231281-4                000024
100004132100948033300420130094803330042013               0000000000000233982-1                000025
100004132200948034300420130094803430042013FA105079359BR  0000007052013233982-2                000026
100004138200948035300420130094803530042013               0000000000000233983-1                000027
100004138300948036300420130094803630042013               0000000000000233983-2                000028
100004137500948037300420130094803730042013               0000000000000233983-3                000029
100004135400948038300420130094803830042013FA105079393BR  0000007052013233983-4                000030
100004135700948039300420130094803930042013FA105079402BR  0000007052013233983-5                000031
100004135500948040300420130094804030042013               0000000000000233983-7                000032
100004135100948041300420130094804130042013FA105079420BR  0000006052013233983-9                000033
100004135600948042300420130094804230042013               0000000000000233983-10               000034
100004135200948043300420130094804330042013               0000000000000233983-11               000035
100004135300948044300420130094804430042013               0000000000000233983-12               000036
100004136700948045300420130094804530042013FA105079464BR  0000007052013233983-13               000037
100004138500948046300420130094804630042013FA105079478BR  0000007052013233986-1                000038
100004138700948047300420130094804730042013               0000000000000233986-2                000039
100004139700948048300420130094804830042013               0000000000000233986-3                000040
100004138400948049300420130094804930042013               0000000000000233986-4                000041
100004138800948050300420130094805030042013FA105079518BR  0000006052013233986-5                000042
100004138900948051300420130094805130042013FA105079521BR  0000007052013233986-6                000043
100004138600948052300420130094805230042013               0000000000000233986-7                000044
100004141400948053300420130094805330042013FA105079549BR  0000007052013233988-1                000045
100004141300948054300420130094805430042013               0000000000000233988-2                000046
100004141500948055300420130094805530042013FA105079566BR  0000006052013233988-3                000047
100004143700948056300420130094805630042013               0000000000000233988-4                000048
100004144100948057300420130094805730042013               0000000000000233990-1                000049
100004144200948058300420130094805830042013               0000000000000233990-2                000050
100004144700948059300420130094805930042013               0000000000000233990-3                000051
100004144600948060300420130094806030042013FA105079610BR  0000007052013233990-4                000052
100004144300948061300420130094806130042013FA105079623BR  0000007052013233990-5                000053
100004146300948062300420130094806230042013FA105079637BR  0000007052013233990-6                000054
100004146400948063300420130094806330042013FA105079645BR  0000007052013233990-9                000055
100004144000948064300420130094806430042013FA105079654BR  0000007052013233990-12               000056
100004143800948065300420130094806530042013               0000000000000233990-13               000057
100004143200948066300420130094806630042013               0000000000000233990-14               000058
100004143300948067300420130094806730042013               0000000000000233990-15               000059
100004144800948068300420130094806830042013               0000000000000233990-16               000060
100004143600948069300420130094806930042013FA105079708BR  0000007052013233990-18               000061
100004142900948070300420130094807030042013               0000000000000233990-19               000062
100004145300948071300420130094807130042013               0000000000000233990-20               000063
100004145200948072300420130094807230042013               0000000000000233990-21               000064
100004144400948073300420130094807330042013               0000000000000233990-22               000065
100004141600948074300420130094807430042013               0000000000000233990-23               000066
100004144500948075300420130094807530042013FA105079760BR  0000007052013233990-24               000067
100004146200948076300420130094807630042013               0000000000000233990-25               000068
100004143900948077300420130094807730042013FA105079787BR  0000007052013233990-26               000069
100004146700948078300420130094807830042013FA105079795BR  0000007052013233991-1                000070
100004146500948079300420130094807930042013               0000000000000233991-2                000071
100004146600948080300420130094808030042013FA105079813BR  0000007052013233991-3                000072
100004147200948081300420130094808130042013               0000000000000233993-1                000073
100004148100948082300420130094808230042013FA105079835BR  0000007052013233993-2                000074
100004147900948083300420130094808330042013               0000000000000233993-3                000075
100004147300948084300420130094808430042013               0000000000000233993-4                000076
100004154100948085300420130094808530042013FA105079861BR  0000006052013233994-1                000077
100004149400948086300420130094808630042013FA105079875BR  0000007052013233994-2                000078
100004150000948087300420130094808730042013FA105079889BR  0000007052013233994-3                000079
100004149900948088300420130094808830042013FA105079892BR  0000007052013233994-4                000080
100004149800948089300420130094808930042013FA105079901BR  0000007052013233994-5                000081
100004150400948090300420130094809030042013FA105079915BR  0000007052013233994-6                000082
100004150800948091300420130094809130042013               0000000000000233994-7                000083
100004150700948092300420130094809230042013FA105079932BR  0000007052013233994-8                000084
100004150200948093300420130094809330042013               0000000000000233994-9                000085
100004152400948094300420130094809430042013               0000000000000233994-10               000086
100004150300948095300420130094809530042013FA105079963BR  0000007052013233994-11               000087
100004152300948096300420130094809630042013               0000000000000233994-12               000088
100004151500948097300420130094809730042013               0000000000000233994-13               000089
100004152500948098300420130094809830042013FA105079994BR  0000006052013233994-14               000090
100004159600948099300420130094809930042013FA105080003BR  0000007052013233995-1                000091
100004161800948100300420130094810030042013FA105080017BR  0000006052013233997-1                000092
100004160600948101300420130094810130042013               0000000000000233997-2                000093
100004160000948102300420130094810230042013               0000000000000233997-3                000094
100004160200948103300420130094810330042013FA105080048BR  0000007052013233997-4                000095
100004160100948104300420130094810430042013               0000000000000233997-5                000096
100004161500948105300420130094810530042013FA105080065BR  0000007052013233997-6                000097
100004163400948106300420130094810630042013FA105080079BR  0000007052013233999-1                000098
100004163100948107300420130094810730042013FA105080082BR  0000007052013233999-2                000099
100004164600948108300420130094810830042013FA105080096BR  0000007052013233999-3                000100
100004164100948109300420130094810930042013FA105080105BR  0000007052013233999-4                000101
100004163500948110300420130094811030042013FA105080119BR  0000007052013233999-5                000102
100004163200948111300420130094811130042013               0000000000000233999-6                000103
100004163300948112300420130094811230042013               0000000000000233999-7                000104
100004163600948113300420130094811330042013               0000000000000233999-8                000105
100004168500948114300420130094811430042013FA105080153BR  0000007052013234000-1                000106
100004169100948115300420130094811530042013               0000000000000234000-2                000107
100004169000948116300420130094811630042013               0000000000000234000-8                000108
100004168900948117300420130094811730042013FA105080184BR  0000007052013234000-9                000109
100004168800948118300420130094811830042013FA105080198BR  0000007052013234000-11               000110
100004168700948119300420130094811930042013               0000000000000234000-13               000111
100004168600948120300420130094812030042013               0000000000000234000-14               000112
100004165100948121300420130094812130042013FA105080224BR  0000007052013234000-15               000113
100004165200948122300420130094812230042013FA105080238BR  0000007052013234000-16               000114
100004165300948123300420130094812330042013               0000000000000234000-17               000115
100004165400948124300420130094812430042013               0000000000000234000-18               000116
100004165600948125300420130094812530042013               0000000000000234000-19               000117
100004166000948126300420130094812630042013               0000000000000234000-21               000118
100004165500948127300420130094812730042013FA105080286BR  0000007052013234000-22               000119
100004169200948128300420130094812830042013               0000000000000234002-1                000120
100004169300948129300420130094812930042013FA105080309BR  0000006052013234002-2                000121
100004169800948130300420130094813030042013FA105080312BR  0000007052013234002-3                000122
100004169500948131300420130094813130042013FA105080326BR  0000007052013234002-4                000123
100004169600948132300420130094813230042013FA105080330BR  0000007052013234002-8                000124
100004170000948133300420130094813330042013               0000000000000234002-9                000125
100004170100948134300420130094813430042013               0000000000000234002-10               000126
100004169400948135300420130094813530042013               0000000000000234002-11               000127
100004170400948611020520130094861102052013               0000000000000234084-1                000128
100004170500948612020520130094861202052013               0000000000000234084-2                000129
100004170600948613020520130094861302052013               0000000000000234084-3                000130
100004171800948614020520130094861402052013               0000000000000234084-5                000131
100004171900948615020520130094861502052013               0000000000000234084-6                000132
9000131                                                                                       000133
