0RETORNONOTIFICAÇÃO ELETRONICA        06122013REGI                                            000001
100004545701090268031220130109026803122013               0000000000000271841-1                000002
100004505401090269031220130109026903122013               0000000000000271841-2                000003
100004545901090270031220130109027003122013               0000000000000271841-3                000004
100004546201090271031220130109027103122013               0000000000000271841-4                000005
100004546001090272031220130109027203122013               0000000000000271841-5                000006
100004533701090273031220130109027303122013               0000000000000271841-6                000007
100004546101090274031220130109027403122013               0000000000000271841-7                000008
100004545601090275031220130109027503122013               0000000000000271841-8                000009
100004536601090276031220130109027603122013               0000000000000271841-10               000010
100004547601090277031220130109027703122013               0000000000000271841-11               000011
100004548001090278031220130109027803122013               0000000000000271841-12               000012
100004547901090279031220130109027903122013               0000000000000271841-13               000013
100004547801090280031220130109028003122013               0000000000000271841-14               000014
100004547701090281031220130109028103122013               0000000000000271841-16               000015
100004525801090282031220130109028203122013               0000000000000271841-18               000016
100004545501090283031220130109028303122013               0000000000000271841-19               000017
100004519901090284031220130109028403122013               0000000000000271841-20               000018
100004524101090285031220130109028503122013               0000000000000271841-21               000019
100004519601090286031220130109028603122013               0000000000000271841-22               000020
100004545801090287031220130109028703122013               0000000000000271841-23               000021
100004548101090780041220130109078004122013               0000000000000272053-1                000022
100004548201090781041220130109078104122013               0000000000000272053-2                000023
100004548401090782041220130109078204122013               0000000000000272053-5                000024
100004548501090783041220130109078304122013               0000000000000272053-6                000025
100004548301090784041220130109078404122013               0000000000000272053-7                000026
100004548601090785041220130109078504122013               0000000000000272053-8                000027
9000026                                                                                       000028
