0RETORNONOTIFICAÇÃO ELETRONICA        06122010REGI                                            000001
100002523600435025031220100043502503122010               0000000000000116984-1                000002
100002523700435026031220100043502603122010               0000000000000116984-2                000003
100002523800435027031220100043502703122010               0000000000000116984-3                000004
100002523900435028031220100043502803122010               0000000000000116984-4                000005
100002524000435029031220100043502903122010               0000000000000116984-5                000006
100002524100435030031220100043503003122010               0000000000000116984-7                000007
100002524200435031031220100043503103122010               0000000000000116984-8                000008
100002524300435032031220100043503203122010               0000000000000116984-9                000009
9000008                                                                                       000010
