0RETORNONOTIFICAÇÃO ELETRONICA        14092012REGI                                            000001
100003760300827854130920120082785413092012               0000000000000193599-1                000002
100003760800827855130920120082785513092012               0000000000000193599-2                000003
100003760900827856130920120082785613092012               0000000000000193599-3                000004
100003761000827857130920120082785713092012               0000000000000193599-4                000005
100003761100827858130920120082785813092012               0000000000000193599-5                000006
100003762000827859130920120082785913092012               0000000000000193599-6                000007
100003762300827860130920120082786013092012               0000000000000193599-7                000008
100003764000827861130920120082786113092012               0000000000000193599-8                000009
100003764100827862130920120082786213092012               0000000000000193599-10               000010
100003764200827863130920120082786313092012               0000000000000193599-11               000011
100003764300827864130920120082786413092012               0000000000000193599-12               000012
100003764400827865130920120082786513092012               0000000000000193599-13               000013
100003764500827866130920120082786613092012               0000000000000193599-14               000014
100003764600827867130920120082786713092012               0000000000000193599-15               000015
100003764700827868130920120082786813092012               0000000000000193599-16               000016
100003764800827869130920120082786913092012               0000000000000193599-17               000017
100003764900827870130920120082787013092012               0000000000000193599-18               000018
100003765000827871130920120082787113092012               0000000000000193599-19               000019
100003765100827872130920120082787213092012               0000000000000193599-20               000020
100003765400827873130920120082787313092012               0000000000000193599-21               000021
100003765500827874130920120082787413092012               0000000000000193599-22               000022
100003765800827875130920120082787513092012               0000000000000193599-23               000023
100003767000827876130920120082787613092012               0000000000000193599-24               000024
100003767100827877130920120082787713092012               0000000000000193599-26               000025
100003767200827878130920120082787813092012               0000000000000193599-29               000026
100003767300827879130920120082787913092012               0000000000000193599-30               000027
100003767400827880130920120082788013092012               0000000000000193599-31               000028
100003767500827881130920120082788113092012               0000000000000193599-35               000029
100003767600827882130920120082788213092012               0000000000000193599-36               000030
100003767700827883130920120082788313092012               0000000000000193599-38               000031
100003767800827884130920120082788413092012               0000000000000193599-40               000032
100003767900827885130920120082788513092012               0000000000000193599-41               000033
100003768000827886130920120082788613092012               0000000000000193599-42               000034
100003768100827887130920120082788713092012               0000000000000193599-45               000035
100003768200827888130920120082788813092012               0000000000000193599-47               000036
100003768300827889130920120082788913092012               0000000000000193599-49               000037
100003768400827890130920120082789013092012               0000000000000193599-58               000038
100003768500827891130920120082789113092012               0000000000000193599-64               000039
100003768600827892130920120082789213092012               0000000000000193599-66               000040
100003768700827893130920120082789313092012               0000000000000193599-67               000041
100003768800827894130920120082789413092012               0000000000000193599-68               000042
100003768900827895130920120082789513092012               0000000000000193599-71               000043
100003766100828064130920120082806413092012               0000000000000193619-1                000044
100003769000828065130920120082806513092012               0000000000000193619-2                000045
100003769100828066130920120082806613092012               0000000000000193619-3                000046
100003769200828067130920120082806713092012               0000000000000193619-4                000047
100003769300828068130920120082806813092012               0000000000000193619-5                000048
100003769400828069130920120082806913092012               0000000000000193619-6                000049
100003769500828070130920120082807013092012               0000000000000193619-7                000050
100003770000828071130920120082807113092012               0000000000000193619-8                000051
100003770300828072130920120082807213092012               0000000000000193619-9                000052
100003770800828073130920120082807313092012               0000000000000193619-10               000053
9000052                                                                                       000054
