0RETORNONOTIFICAÇÃO ELETRONICA        12052011REGI                                            000001
100002755400535200120520110053520012052011               0000000000000130234-1                000002
100002755500535201120520110053520112052011               0000000000000130234-2                000003
100002755700535202120520110053520212052011               0000000000000130234-3                000004
100002755800535203120520110053520312052011               0000000000000130234-4                000005
100002755900535204120520110053520412052011               0000000000000130234-5                000006
100002756000535205120520110053520512052011               0000000000000130234-6                000007
9000006                                                                                       000008
