0RETORNONOTIFICAÇÃO ELETRONICA        03042012REGI                                            000001
100003458000743884020420120074388402042012               0000000000000169112-1                000002
100003458100743885020420120074388502042012               0000000000000169112-3                000003
100003458200743886020420120074388602042012               0000000000000169112-4                000004
100003458300743887020420120074388702042012               0000000000000169112-5                000005
100003458400743888020420120074388802042012               0000000000000169112-11               000006
100003458500743889020420120074388902042012               0000000000000169112-12               000007
100003458600743890020420120074389002042012               0000000000000169112-13               000008
100003458700743891020420120074389102042012               0000000000000169112-14               000009
100003460300743892020420120074389202042012               0000000000000169112-15               000010
100003460400743893020420120074389302042012               0000000000000169112-16               000011
100003460500743894020420120074389402042012               0000000000000169112-17               000012
100003460600743895020420120074389502042012               0000000000000169112-18               000013
9000012                                                                                       000014
