0RETORNONOTIFICAÇÃO ELETRONICA        22062010REGI                                            000001
100002274500293321210620100029332121062010               0000000000000103500-1                000002
100002274600293322210620100029332221062010               0000000000000103500-3                000003
100002274700293323210620100029332321062010               0000000000000103500-5                000004
100002274800293324210620100029332421062010               0000000000000103500-6                000005
100002274900293325210620100029332521062010               0000000000000103500-8                000006
100002275000293326210620100029332621062010               0000000000000103500-9                000007
100002275100293327210620100029332721062010               0000000000000103500-10               000008
100002275200293328210620100029332821062010               0000000000000103500-18               000009
9000008                                                                                       000010
