0RETORNONOTIFICAÇÃO ELETRONICA        27052014REGI                                            000001
100004761101227088260520140122708826052014               0000000000000302002-1                000002
100004761201227089260520140122708926052014               0000000000000302002-4                000003
100004761301227090260520140122709026052014               0000000000000302002-5                000004
100004761401227091260520140122709126052014               0000000000000302002-6                000005
100004761501227092260520140122709226052014               0000000000000302002-7                000006
9000005                                                                                       000007
