0RETORNONOTIFICAÇÃO ELETRONICA        10092013REGI                                            000001
100004380201029913050920130102991305092013               0000000000000255609-1                000002
100004380301029914050920130102991405092013               0000000000000255609-2                000003
100004381701029915050920130102991505092013               0000000000000255609-3                000004
100004382101029916050920130102991605092013               0000000000000255609-4                000005
100004381801029917050920130102991705092013               0000000000000255609-5                000006
100004382201029918050920130102991805092013               0000000000000255609-6                000007
100004383301029919050920130102991905092013               0000000000000255609-10               000008
100004383201029920050920130102992005092013               0000000000000255609-11               000009
100004383101029921050920130102992105092013               0000000000000255609-12               000010
100004383001029922050920130102992205092013               0000000000000255609-13               000011
100004382901029923050920130102992305092013               0000000000000255609-17               000012
100004382801029924050920130102992405092013               0000000000000255609-19               000013
100004382701029925050920130102992505092013               0000000000000255609-22               000014
100004382601029926050920130102992605092013               0000000000000255609-24               000015
100004382501029927050920130102992705092013               0000000000000255609-27               000016
100004382401029928050920130102992805092013               0000000000000255609-29               000017
100004382301029929050920130102992905092013               0000000000000255609-31               000018
100004381301029930050920130102993005092013               0000000000000255609-32               000019
100004384001029931050920130102993105092013               0000000000000255620-1                000020
100004383601029932050920130102993205092013               0000000000000255620-2                000021
100004383701029933050920130102993305092013               0000000000000255620-6                000022
100004383901029934050920130102993405092013               0000000000000255620-7                000023
100004383801029935050920130102993505092013               0000000000000255620-8                000024
100004383401029936050920130102993605092013               0000000000000255620-9                000025
100004383501029937050920130102993705092013               0000000000000255620-10               000026
100004386101029938050920130102993805092013               0000000000000255620-11               000027
100004386901029939050920130102993905092013               0000000000000255627-1                000028
100004386301029940050920130102994005092013               0000000000000255627-2                000029
100004386501029941050920130102994105092013               0000000000000255627-3                000030
100004386601029942050920130102994205092013               0000000000000255627-4                000031
100004387101029943050920130102994305092013               0000000000000255627-5                000032
100004384901029944050920130102994405092013               0000000000000255627-6                000033
100004389801029945050920130102994505092013               0000000000000255627-7                000034
100004393601029946050920130102994605092013               0000000000000255627-9                000035
100004393501029947050920130102994705092013               0000000000000255627-12               000036
100004393401029948050920130102994805092013               0000000000000255627-14               000037
100004393301029949050920130102994905092013               0000000000000255627-16               000038
100004393201029950050920130102995005092013               0000000000000255627-18               000039
100004393101029951050920130102995105092013               0000000000000255627-21               000040
100004393001029952050920130102995205092013               0000000000000255627-24               000041
100004392901029953050920130102995305092013               0000000000000255627-28               000042
100004392801029954050920130102995405092013               0000000000000255627-30               000043
100004392701029955050920130102995505092013               0000000000000255627-33               000044
100004392601029956050920130102995605092013               0000000000000255627-39               000045
100004392501029957050920130102995705092013               0000000000000255627-40               000046
100004392401029958050920130102995805092013               0000000000000255627-41               000047
100004392301029959050920130102995905092013               0000000000000255627-42               000048
100004392201029960050920130102996005092013               0000000000000255627-43               000049
100004392101029961050920130102996105092013               0000000000000255627-44               000050
100004392001029962050920130102996205092013               0000000000000255627-45               000051
100004391901029963050920130102996305092013               0000000000000255627-46               000052
100004391801029964050920130102996405092013               0000000000000255627-47               000053
100004391701029965050920130102996505092013               0000000000000255627-48               000054
100004391601029966050920130102996605092013               0000000000000255627-49               000055
100004391501029967050920130102996705092013               0000000000000255627-50               000056
100004391401029968050920130102996805092013               0000000000000255627-51               000057
100004391301029969050920130102996905092013               0000000000000255627-52               000058
100004391201029970050920130102997005092013               0000000000000255627-53               000059
100004391101029971050920130102997105092013               0000000000000255627-54               000060
100004391001029972050920130102997205092013               0000000000000255627-55               000061
100004390901029973050920130102997305092013               0000000000000255627-56               000062
100004390801029974050920130102997405092013               0000000000000255627-57               000063
100004390701029975050920130102997505092013               0000000000000255627-58               000064
100004390601029976050920130102997605092013               0000000000000255627-59               000065
100004390501029977050920130102997705092013               0000000000000255627-68               000066
100004390401029978050920130102997805092013               0000000000000255627-70               000067
100004390301029979050920130102997905092013               0000000000000255627-72               000068
100004390201029980050920130102998005092013               0000000000000255627-76               000069
100004390101029981050920130102998105092013               0000000000000255627-78               000070
100004390001029982050920130102998205092013               0000000000000255627-80               000071
100004389901029983050920130102998305092013               0000000000000255627-81               000072
100004386401029984050920130102998405092013               0000000000000255627-83               000073
100004386801029985050920130102998505092013               0000000000000255627-84               000074
100004386201029986050920130102998605092013               0000000000000255627-85               000075
100004387001029987050920130102998705092013               0000000000000255627-86               000076
100004386701029988050920130102998805092013               0000000000000255627-87               000077
9000076                                                                                       000078
