0RETORNONOTIFICAÇÃO ELETRONICA        10082011REGI                                            000001
100002934500593229090820110059322909082011               0000000000000140035-1                000002
100002937000593230090820110059323009082011               0000000000000140035-2                000003
100002945800593231090820110059323109082011               0000000000000140035-3                000004
100002945900593232090820110059323209082011               0000000000000140035-4                000005
100002946000593233090820110059323309082011               0000000000000140035-5                000006
100002946100593234090820110059323409082011               0000000000000140035-6                000007
100002946200593235090820110059323509082011               0000000000000140035-7                000008
100002946400593236090820110059323609082011               0000000000000140035-8                000009
100002947000593237090820110059323709082011               0000000000000140035-9                000010
100002947100593238090820110059323809082011               0000000000000140041-1                000011
100002947200593239090820110059323909082011               0000000000000140041-2                000012
100002947300593240090820110059324009082011               0000000000000140041-3                000013
100002947400593241090820110059324109082011               0000000000000140041-4                000014
100002948800593242090820110059324209082011               0000000000000140041-5                000015
9000014                                                                                       000016
