0RETORNONOTIFICAÇÃO ELETRONICA        19112014REGI                                            000001
100005008001380743171120140138074317112014               0000000000000332853-1                000002
100005008101380744171120140138074417112014               0000000000000332853-2                000003
100005008201380745171120140138074517112014               0000000000000332853-3                000004
100005008401380746171120140138074617112014               0000000000000333126-1                000005
100005008501380747171120140138074717112014               0000000000000333126-2                000006
100005009601382271181120140138227118112014               0000000000000333314-1                000007
100005009701382272181120140138227218112014               0000000000000333314-2                000008
100005009801382273181120140138227318112014               0000000000000333314-3                000009
100005009901382274181120140138227418112014               0000000000000333314-4                000010
100005010601382275181120140138227518112014               0000000000000333314-7                000011
100005010701382276181120140138227618112014               0000000000000333314-10               000012
100005010801382277181120140138227718112014               0000000000000333314-13               000013
100005010901382278181120140138227818112014               0000000000000333314-14               000014
100005011001382279181120140138227918112014               0000000000000333314-15               000015
100005011101382280181120140138228018112014               0000000000000333314-17               000016
100005011201382281181120140138228118112014               0000000000000333314-19               000017
100005011301382282181120140138228218112014               0000000000000333314-21               000018
100005011401382283181120140138228318112014               0000000000000333314-22               000019
100005011501382284181120140138228418112014               0000000000000333314-39               000020
100005011601382285181120140138228518112014               0000000000000333314-50               000021
100005011701382286181120140138228618112014               0000000000000333314-72               000022
100005011801382287181120140138228718112014               0000000000000333314-74               000023
100005011901382288181120140138228818112014               0000000000000333314-76               000024
100005012001382289181120140138228918112014               0000000000000333314-78               000025
100005012101382290181120140138229018112014               0000000000000333314-79               000026
100005012201382291181120140138229118112014               0000000000000333314-82               000027
100005012301382292181120140138229218112014               0000000000000333314-83               000028
100005012401382293181120140138229318112014               0000000000000333314-84               000029
100005012501382294181120140138229418112014               0000000000000333314-87               000030
100005012601382295181120140138229518112014               0000000000000333314-88               000031
100005012701382296181120140138229618112014               0000000000000333314-89               000032
100005012801382297181120140138229718112014               0000000000000333314-90               000033
100005012901382298181120140138229818112014               0000000000000333314-92               000034
100005013001382299181120140138229918112014               0000000000000333314-94               000035
100005013101382300181120140138230018112014               0000000000000333314-96               000036
100005013201382301181120140138230118112014               0000000000000333314-105              000037
100005013301382302181120140138230218112014               0000000000000333314-108              000038
100005013401382303181120140138230318112014               0000000000000333314-114              000039
9000038                                                                                       000040
