0RETORNONOTIFICAÇÃO ELETRONICA        14102013REGI                                            000001
100004472701052206111020130105220611102013               0000000000000262426-1                000002
100004474301052207111020130105220711102013               0000000000000262426-2                000003
100004474401052208111020130105220811102013               0000000000000262426-3                000004
100004474601052382111020130105238211102013               0000000000000262828-1                000005
100004474501052383111020130105238311102013               0000000000000262828-2                000006
9000005                                                                                       000007
