0RETORNONOTIFICAÇÃO ELETRONICA        28032012REGI                                            000001
100003396000737524270320120073752427032012               0000000000000168364-1                000002
100003424900737525270320120073752527032012               0000000000000168364-2                000003
100003446500737526270320120073752627032012               0000000000000168364-3                000004
100003446600737527270320120073752727032012               0000000000000168364-4                000005
100003446700737528270320120073752827032012               0000000000000168364-6                000006
100003446800737529270320120073752927032012               0000000000000168364-7                000007
100003446900737530270320120073753027032012               0000000000000168364-8                000008
100003447000737531270320120073753127032012               0000000000000168364-9                000009
100003447500737532270320120073753227032012               0000000000000168365-1                000010
100003449000737533270320120073753327032012               0000000000000168365-2                000011
100003449100737534270320120073753427032012               0000000000000168365-3                000012
100003449200737535270320120073753527032012               0000000000000168365-4                000013
100003449300737536270320120073753627032012               0000000000000168365-5                000014
100003449400737537270320120073753727032012               0000000000000168365-6                000015
100003449500737538270320120073753827032012               0000000000000168365-8                000016
100003449600737539270320120073753927032012               0000000000000168365-9                000017
9000016                                                                                       000018
