0RETORNONOTIFICAÇÃO ELETRONICA        10032010REGI                                            000001
100002072000253518090320100025351809032010               000000000000088400-1                 000002
100002072300253519090320100025351909032010               000000000000088400-2                 000003
100002072800253520090320100025352009032010               000000000000088400-3                 000004
100002077100253521090320100025352109032010               000000000000088400-4                 000005
100002077200253522090320100025352209032010               000000000000088400-5                 000006
100002077400253523090320100025352309032010               000000000000088401-1                 000007
100002077500253524090320100025352409032010               000000000000088401-2                 000008
100002077600253525090320100025352509032010               000000000000088401-6                 000009
100002077700253526090320100025352609032010               000000000000088401-7                 000010
9000009                                                                                       000011
