0RETORNONOTIFICAÇÃO ELETRONICA        15072010REGI                                            000001
100002301300303207130720100030320713072010               0000000000000105493-1                000002
100002302000303208130720100030320813072010               0000000000000105493-2                000003
100002302200303209130720100030320913072010               0000000000000105493-3                000004
100002304000303210130720100030321013072010               0000000000000105493-4                000005
100002307000303211130720100030321113072010               0000000000000105493-5                000006
100002308000303212130720100030321213072010               0000000000000105493-6                000007
100002311300303213130720100030321313072010               0000000000000105493-7                000008
100002311400303214130720100030321413072010               0000000000000105493-9                000009
100002313000303215130720100030321513072010               0000000000000105493-10               000010
100002311600303216130720100030321613072010               0000000000000105495-1                000011
100002312200303217130720100030321713072010               0000000000000105495-2                000012
100002312300303218130720100030321813072010               0000000000000105495-3                000013
100002315100303219130720100030321913072010               0000000000000105495-4                000014
100002316100303220130720100030322013072010               0000000000000105495-5                000015
100002316200303221130720100030322113072010               0000000000000105495-6                000016
100002318300303222130720100030322213072010               0000000000000105648-1                000017
100002320500303223130720100030322313072010               0000000000000105648-2                000018
100002320600303224130720100030322413072010               0000000000000105648-5                000019
100002320700303225130720100030322513072010               0000000000000105648-6                000020
9000019                                                                                       000021
