0RETORNONOTIFICAÇÃO ELETRONICA        30082012REGI                                            000001
100003725000819450280820120081945028082012               0000000000000190573-1                000002
100003725100819451280820120081945128082012               0000000000000190573-2                000003
100003725200819452280820120081945228082012               0000000000000190573-3                000004
100003725300819453280820120081945328082012               0000000000000190573-4                000005
100003725400819454280820120081945428082012               0000000000000190573-5                000006
100003725500819455280820120081945528082012               0000000000000190573-6                000007
100003725600819456280820120081945628082012               0000000000000190573-7                000008
100003725700819457280820120081945728082012               0000000000000190573-8                000009
100003726200819458280820120081945828082012               0000000000000190573-9                000010
100003726800819459280820120081945928082012               0000000000000190573-10               000011
100003726900819460280820120081946028082012               0000000000000190573-11               000012
100003727000819461280820120081946128082012               0000000000000190573-12               000013
100003727200819462280820120081946228082012               0000000000000190573-13               000014
100003727300819463280820120081946328082012               0000000000000190573-14               000015
100003727400819464280820120081946428082012               0000000000000190573-15               000016
100003720800819465280820120081946528082012               0000000000000190576-1                000017
100003721400819466280820120081946628082012               0000000000000190576-2                000018
100003727500819467280820120081946728082012               0000000000000190576-3                000019
100003727600819468280820120081946828082012               0000000000000190576-5                000020
100003727700819469280820120081946928082012               0000000000000190576-6                000021
100003727800819470280820120081947028082012               0000000000000190576-7                000022
100003727900819471280820120081947128082012               0000000000000190576-13               000023
100003728000819472280820120081947228082012               0000000000000190576-14               000024
100003728100819473280820120081947328082012               0000000000000190576-15               000025
100003728600819474280820120081947428082012               0000000000000190576-16               000026
100003730000819475280820120081947528082012               0000000000000190601-1                000027
100003730100819476280820120081947628082012               0000000000000190601-2                000028
100003730200819477280820120081947728082012               0000000000000190601-3                000029
100003730300819478280820120081947828082012               0000000000000190601-5                000030
100003730400819479280820120081947928082012               0000000000000190601-6                000031
100003730500819480280820120081948028082012               0000000000000190601-12               000032
100003730600819481280820120081948128082012               0000000000000190601-13               000033
100003733100819482280820120081948228082012               0000000000000190601-14               000034
100003733200819483280820120081948328082012               0000000000000190601-15               000035
100003733300819484280820120081948428082012               0000000000000190601-16               000036
100003733400819485280820120081948528082012               0000000000000190601-17               000037
100003733500819486280820120081948628082012               0000000000000190601-18               000038
100003733600819487280820120081948728082012               0000000000000190601-19               000039
100003733700819488280820120081948828082012               0000000000000190601-20               000040
100003733800819489280820120081948928082012               0000000000000190601-21               000041
100003733900819490280820120081949028082012               0000000000000190601-23               000042
100003734000819491280820120081949128082012               0000000000000190601-25               000043
100003734100819492280820120081949228082012               0000000000000190601-26               000044
100003734200819493280820120081949328082012               0000000000000190601-31               000045
100003734300819494280820120081949428082012               0000000000000190601-32               000046
100003734400819495280820120081949528082012               0000000000000190601-35               000047
100003734500819496280820120081949628082012               0000000000000190601-39               000048
100003734600819497280820120081949728082012               0000000000000190601-43               000049
100003734700819498280820120081949828082012               0000000000000190601-46               000050
100003734800819499280820120081949928082012               0000000000000190601-53               000051
100003734900819500280820120081950028082012               0000000000000190601-55               000052
100003735000819501280820120081950128082012               0000000000000190601-57               000053
100003735100819502280820120081950228082012               0000000000000190601-59               000054
100003735200819503280820120081950328082012               0000000000000190601-64               000055
100003735300819504280820120081950428082012               0000000000000190601-67               000056
100003735400819505280820120081950528082012               0000000000000190601-72               000057
100003735500819506280820120081950628082012               0000000000000190601-79               000058
100003735600819507280820120081950728082012               0000000000000190601-83               000059
100003735700819508280820120081950828082012               0000000000000190601-88               000060
100003735800819509280820120081950928082012               0000000000000190601-92               000061
100003735900819510280820120081951028082012               0000000000000190601-94               000062
100003736000819511280820120081951128082012               0000000000000190601-100              000063
100003736100819512280820120081951228082012               0000000000000190601-103              000064
100003736200819513280820120081951328082012               0000000000000190601-113              000065
100003736300819514280820120081951428082012               0000000000000190601-115              000066
100003736400819515280820120081951528082012               0000000000000190601-125              000067
100003736500819516280820120081951628082012               0000000000000190601-145              000068
100003736600819517280820120081951728082012               0000000000000190601-150              000069
100003736700819518280820120081951828082012               0000000000000190601-161              000070
100003736800819519280820120081951928082012               0000000000000190601-167              000071
100003736900819520280820120081952028082012               0000000000000190601-168              000072
100003737000819521280820120081952128082012               0000000000000190601-181              000073
100003737100819522280820120081952228082012               0000000000000190601-204              000074
100003737200819523280820120081952328082012               0000000000000190601-206              000075
100003737300819524280820120081952428082012               0000000000000190601-208              000076
100003737400819525280820120081952528082012               0000000000000190601-238              000077
100003737500819526280820120081952628082012               0000000000000190601-263              000078
100003737600819527280820120081952728082012               0000000000000190601-284              000079
100003737700819528280820120081952828082012               0000000000000190601-303              000080
100003737800819529280820120081952928082012               0000000000000190601-312              000081
100003738000819531280820120081953128082012               0000000000000190601-382              000082
100003738100819532280820120081953228082012               0000000000000190601-397              000083
9000082                                                                                       000084
