0RETORNONOTIFICAÇÃO ELETRONICA        15102012REGI                                            000001
100003806600840605091020120084060509102012               0000000000000198179-1                000002
100003806700840606091020120084060609102012               0000000000000198179-9                000003
100003806800840607091020120084060709102012               0000000000000198179-14               000004
100003806900840608091020120084060809102012               0000000000000198179-16               000005
100003807000840609091020120084060909102012               0000000000000198179-17               000006
100003807100840610091020120084061009102012               0000000000000198179-18               000007
100003807200840611091020120084061109102012               0000000000000198179-19               000008
100003809200840612091020120084061209102012               0000000000000198184-1                000009
100003809300840613091020120084061309102012               0000000000000198184-2                000010
100003809400840614091020120084061409102012               0000000000000198184-3                000011
100003809500840615091020120084061509102012               0000000000000198184-4                000012
100003809600840616091020120084061609102012               0000000000000198184-5                000013
100003809700840617091020120084061709102012               0000000000000198184-6                000014
100003807900840618091020120084061809102012               0000000000000198187-1                000015
100003808500840619091020120084061909102012               0000000000000198187-2                000016
100003810000840620091020120084062009102012               0000000000000198187-3                000017
100003810600840621091020120084062109102012               0000000000000198187-4                000018
100003810700840622091020120084062209102012               0000000000000198187-5                000019
100003810800840623091020120084062309102012               0000000000000198187-6                000020
100003811400840624091020120084062409102012               0000000000000198187-7                000021
100003811500840625091020120084062509102012               0000000000000198187-8                000022
100003811600840626091020120084062609102012               0000000000000198187-9                000023
100003811700840627091020120084062709102012               0000000000000198187-10               000024
100003811800840628091020120084062809102012               0000000000000198187-11               000025
100003811900840629091020120084062909102012               0000000000000198187-16               000026
100003812000840630091020120084063009102012               0000000000000198187-17               000027
100003812100840631091020120084063109102012               0000000000000198187-18               000028
100003812200840632091020120084063209102012               0000000000000198187-19               000029
100003812400840633091020120084063309102012               0000000000000198187-20               000030
100003812500840634091020120084063409102012               0000000000000198187-21               000031
100003813900840635091020120084063509102012               0000000000000198187-22               000032
9000031                                                                                       000033
