0RETORNONOTIFICAÇÃO ELETRONICA        21022013REGI                                            000001
100004006900902819140220130090281914022013FA063314181BR  0000019022013220606-1                000002
100004007100902820140220130090282014022013FA063314195BR  0000019022013220606-2                000003
100003997200902821140220130090282114022013               0000000000000220606-3                000004
100003997400902822140220130090282214022013               0000000000000220606-4                000005
100003997300902823140220130090282314022013               0000000000000220606-5                000006
100004006700902824140220130090282414022013FA063314235BR  0000018022013220606-6                000007
100004006600902825140220130090282514022013FA063314249BR  0000018022013220606-7                000008
100004006800902826140220130090282614022013               0000000000000220606-8                000009
100004007000902827140220130090282714022013FA063314266BR  0000018022013220606-9                000010
100004010800902828140220130090282814022013FA063314270BR  0000018022013220921-1                000011
100004011000902829140220130090282914022013FA063314283BR  0000019022013220921-3                000012
100004010900902830140220130090283014022013               0000000000000220921-7                000013
100004008500902831140220130090283114022013               0000000000000220921-8                000014
100004011200902832140220130090283214022013               0000000000000221012-1                000015
100004012800902833140220130090283314022013FA063314323BR  0000019022013221012-2                000016
100004013500902834140220130090283414022013FA063314337BR  0000018022013221012-3                000017
100004013400902835140220130090283514022013FA063314345BR  0000019022013221012-19               000018
100004013300902836140220130090283614022013               0000000000000221012-24               000019
100004013200902837140220130090283714022013               0000000000000221012-27               000020
100004013100902838140220130090283814022013FA063314371BR  0000019022013221012-35               000021
100004013000902839140220130090283914022013FA063314385BR  0000019022013221012-37               000022
100004012900902840140220130090284014022013               0000000000000221012-38               000023
100004011100902841140220130090284114022013FA063314408BR  0000019022013221012-39               000024
100004014000903344140220130090334414022013FA063318767BR  0000118022013221350-1                000025
100004013700903345140220130090334514022013               0000000000000221350-2                000026
100004014300903346140220130090334614022013               0000000000000221350-3                000027
100004013600903347140220130090334714022013FA063318798BR  0000020022013221350-4                000028
100004014100903348140220130090334814022013FA063318807BR  0000019022013221350-5                000029
100004013800903349140220130090334914022013               0000000000000221350-9                000030
100004014400903350140220130090335014022013FA063318824BR  0000020022013221350-10               000031
100004013900903351140220130090335114022013               0000000000000221350-11               000032
100004014200903352140220130090335214022013               0000000000000221350-12               000033
100004027300904143150220130090414315022013               0000000000000221455-1                000034
100004027700904144150220130090414415022013               0000000000000221455-2                000035
100004027600904145150220130090414515022013               0000000000000221455-5                000036
100004027500904146150220130090414615022013               0000000000000221455-8                000037
100004027400904147150220130090414715022013               0000000000000221455-9                000038
100004016700904148150220130090414815022013               0000000000000221455-10               000039
100004016800904149150220130090414915022013               0000000000000221455-12               000040
100004016900904150150220130090415015022013               0000000000000221455-13               000041
100004016500904151150220130090415115022013               0000000000000221455-14               000042
100004016600904152150220130090415215022013               0000000000000221455-15               000043
100004007300905362190220130090536219022013               0000000000000222107-1                000044
100004028100905363190220130090536319022013               0000000000000222107-2                000045
100004019200905364190220130090536419022013               0000000000000222107-3                000046
100004019600905365190220130090536519022013               0000000000000222107-4                000047
100004019500905366190220130090536619022013               0000000000000222107-5                000048
100004028000905367190220130090536719022013               0000000000000222107-8                000049
100004028200905368190220130090536819022013               0000000000000222107-9                000050
100004027800905369190220130090536919022013               0000000000000222107-10               000051
100004007400905370190220130090537019022013               0000000000000222107-11               000052
100004007800905371190220130090537119022013               0000000000000222107-12               000053
100004027900905372190220130090537219022013               0000000000000222107-13               000054
100004024000905373190220130090537319022013               0000000000000222107-14               000055
100004028900905374190220130090537419022013               0000000000000222108-1                000056
100004028600905375190220130090537519022013               0000000000000222108-2                000057
100004029000905376190220130090537619022013               0000000000000222108-3                000058
100004031500905377190220130090537719022013               0000000000000222108-4                000059
100004037600905378190220130090537819022013               0000000000000222108-5                000060
100004037500905379190220130090537919022013               0000000000000222108-8                000061
100004037400905380190220130090538019022013               0000000000000222108-11               000062
100004037300905381190220130090538119022013               0000000000000222108-14               000063
100004037200905382190220130090538219022013               0000000000000222108-16               000064
100004037100905383190220130090538319022013               0000000000000222108-18               000065
100004037000905384190220130090538419022013               0000000000000222108-22               000066
100004036900905385190220130090538519022013               0000000000000222108-25               000067
100004036800905386190220130090538619022013               0000000000000222108-28               000068
100004036700905387190220130090538719022013               0000000000000222108-30               000069
100004036600905388190220130090538819022013               0000000000000222108-33               000070
100004036500905389190220130090538919022013               0000000000000222108-35               000071
100004036400905390190220130090539019022013               0000000000000222108-37               000072
100004036300905391190220130090539119022013               0000000000000222108-39               000073
100004036200905392190220130090539219022013               0000000000000222108-41               000074
100004036100905393190220130090539319022013               0000000000000222108-43               000075
100004036000905394190220130090539419022013               0000000000000222108-45               000076
100004035900905395190220130090539519022013               0000000000000222108-47               000077
100004035800905396190220130090539619022013               0000000000000222108-49               000078
100004035700905397190220130090539719022013               0000000000000222108-51               000079
100004035600905398190220130090539819022013               0000000000000222108-53               000080
100004035500905399190220130090539919022013               0000000000000222108-55               000081
100004035400905400190220130090540019022013               0000000000000222108-57               000082
100004035300905401190220130090540119022013               0000000000000222108-59               000083
100004035200905402190220130090540219022013               0000000000000222108-60               000084
100004035100905403190220130090540319022013               0000000000000222108-62               000085
100004035000905404190220130090540419022013               0000000000000222108-63               000086
100004034900905405190220130090540519022013               0000000000000222108-66               000087
100004034800905406190220130090540619022013               0000000000000222108-67               000088
100004034700905407190220130090540719022013               0000000000000222108-70               000089
100004034600905408190220130090540819022013               0000000000000222108-72               000090
100004034500905409190220130090540919022013               0000000000000222108-73               000091
100004034400905410190220130090541019022013               0000000000000222108-76               000092
100004034300905411190220130090541119022013               0000000000000222108-77               000093
100004034200905412190220130090541219022013               0000000000000222108-78               000094
100004034100905413190220130090541319022013               0000000000000222108-80               000095
100004034000905414190220130090541419022013               0000000000000222108-82               000096
100004033900905415190220130090541519022013               0000000000000222108-84               000097
100004033800905416190220130090541619022013               0000000000000222108-86               000098
100004033700905417190220130090541719022013               0000000000000222108-88               000099
100004033600905418190220130090541819022013               0000000000000222108-89               000100
100004033500905419190220130090541919022013               0000000000000222108-90               000101
100004033400905420190220130090542019022013               0000000000000222108-91               000102
100004033300905421190220130090542119022013               0000000000000222108-92               000103
100004033200905422190220130090542219022013               0000000000000222108-94               000104
100004033100905423190220130090542319022013               0000000000000222108-95               000105
100004033000905424190220130090542419022013               0000000000000222108-96               000106
100004032900905425190220130090542519022013               0000000000000222108-97               000107
100004032800905426190220130090542619022013               0000000000000222108-98               000108
100004032700905427190220130090542719022013               0000000000000222108-99               000109
100004032600905428190220130090542819022013               0000000000000222108-100              000110
100004032500905429190220130090542919022013               0000000000000222108-101              000111
100004032400905430190220130090543019022013               0000000000000222108-102              000112
100004032300905431190220130090543119022013               0000000000000222108-103              000113
100004032200905432190220130090543219022013               0000000000000222108-104              000114
100004032100905433190220130090543319022013               0000000000000222108-105              000115
100004032000905434190220130090543419022013               0000000000000222108-106              000116
100004031900905435190220130090543519022013               0000000000000222108-107              000117
100004031800905436190220130090543619022013               0000000000000222108-108              000118
100004031700905437190220130090543719022013               0000000000000222108-109              000119
100004031600905438190220130090543819022013               0000000000000222108-110              000120
100004037900905688200220130090568820022013               0000000000000222440-1                000121
100004029400905689200220130090568920022013               0000000000000222440-2                000122
100004027200905690200220130090569020022013               0000000000000222440-3                000123
100004037700905691200220130090569120022013               0000000000000222440-4                000124
100004029300905692200220130090569220022013               0000000000000222440-6                000125
100004030800905693200220130090569320022013               0000000000000222440-7                000126
100004038000905694200220130090569420022013               0000000000000222440-8                000127
100004037800905695200220130090569520022013               0000000000000222440-9                000128
9000127                                                                                       000129
