0RETORNONOTIFICAÇÃO ELETRONICA        03122013REGI                                            000001
100004541101085571281120130108557128112013               0000000000000271067-1                000002
100004541001085572281120130108557228112013               0000000000000271067-5                000003
100004541201085573281120130108557328112013               0000000000000271067-6                000004
100004542301087637291120130108763729112013               0000000000000271290-1                000005
100004542501087638291120130108763829112013               0000000000000271290-2                000006
100004542401087639291120130108763929112013               0000000000000271290-3                000007
100004542601087640291120130108764029112013               0000000000000271290-4                000008
100004544201088148021220130108814802122013               0000000000000271589-1                000009
100004544301088149021220130108814902122013               0000000000000271589-2                000010
100004544401088150021220130108815002122013               0000000000000271589-3                000011
9000010                                                                                       000012
