0RETORNONOTIFICAÇÃO ELETRONICA        16062011REGI                                            000001
100002812100555630150620110055563015062011               0000000000000133805-1                000002
100002812200555631150620110055563115062011               0000000000000133805-2                000003
100002812300555632150620110055563215062011               0000000000000133805-3                000004
100002812400555633150620110055563315062011               0000000000000133805-6                000005
100002812500555634150620110055563415062011               0000000000000133805-8                000006
100002812600555635150620110055563515062011               0000000000000133805-9                000007
100002812700555636150620110055563615062011               0000000000000133805-10               000008
100002812800555637150620110055563715062011               0000000000000133805-11               000009
9000008                                                                                       000010
