0RETORNONOTIFICAÇÃO ELETRONICA        02032015REGI                                            000001
100005059001439834090220150143983409022015               0000000000000344394-1                000002
100005060801439835090220150143983509022015               0000000000000345484-1                000003
100005060901439845090220150143984509022015FA318674448BR  0000213022015345484-2                000004
100005058301439836090220150143983609022015               0000000000000345487-1                000005
100005059101439837090220150143983709022015               0000000000000345487-2                000006
100005060701439838090220150143983809022015               0000000000000345487-3                000007
100005061401439839090220150143983909022015               0000000000000345487-4                000008
100005061501439840090220150143984009022015               0000000000000345487-5                000009
100005061601439841090220150143984109022015               0000000000000345487-6                000010
100005061701439842090220150143984209022015FA318674417BR  0000019022015345487-9                000011
100005061801439843090220150143984309022015FA318674425BR  0000213022015345487-10               000012
100005062401439844090220150143984409022015               0000000000000345487-11               000013
100005062701440088100220150144008810022015FA318676713BR  0000027022015345832-1                000014
100005062801440089100220150144008910022015               0000000000000345832-2                000015
100005062901440090100220150144009010022015FA318676735BR  0000013022015345832-5                000016
100005063001440091100220150144009110022015FA318676744BR  0000019022015345832-6                000017
100005063101440721190220150144072119022015               0000000000000346139-1                000018
100005063501440722190220150144072219022015FA318680117BR  0000026022015346459-1                000019
100005063601440723190220150144072319022015               0000000000000346459-2                000020
100005063701440724190220150144072419022015FA318680134BR  0000027022015346459-3                000021
100005064301440725190220150144072519022015               0000000000000346461-1                000022
100005064401440726190220150144072619022015               0000000000000346461-2                000023
100005064501440727190220150144072719022015               0000000000000346461-5                000024
100005064601440728190220150144072819022015               0000000000000346461-9                000025
100005065301440818190220150144081819022015               0000000000000346875-1                000026
100005065401440819190220150144081919022015FA318681086BR  0000026022015346875-2                000027
100005065501440820190220150144082019022015FA318681090BR  0000027022015346875-3                000028
100005065901440821190220150144082119022015               0000000000000346876-1                000029
100005066101441209230220150144120923022015FA318684255BR  0000227022015347150-1                000030
100005066401441210230220150144121023022015               0000000000000347473-1                000031
100005066501441211230220150144121123022015FA318684272BR  0000227022015347473-2                000032
100005067101441739260220150144173926022015               0000000000000347750-1                000033
100005067201441740260220150144174026022015               0000000000000347750-2                000034
100005067401441741260220150144174126022015               0000000000000348099-1                000035
100005067501441742260220150144174226022015               0000000000000348099-2                000036
100005067601441743260220150144174326022015               0000000000000348099-3                000037
100005067701441744260220150144174426022015               0000000000000348099-4                000038
100005068301441745260220150144174526022015               0000000000000348237-1                000039
100005068501441746260220150144174626022015               0000000000000348237-2                000040
100005068601441747260220150144174726022015               0000000000000348237-10               000041
100005068701441748260220150144174826022015               0000000000000348237-13               000042
100005068801441749260220150144174926022015               0000000000000348237-31               000043
100005068901441750260220150144175026022015               0000000000000348237-35               000044
100005069001441751260220150144175126022015               0000000000000348237-63               000045
100005069101441752260220150144175226022015               0000000000000348237-83               000046
100005069201441753260220150144175326022015               0000000000000348237-85               000047
100005069301441754260220150144175426022015               0000000000000348237-89               000048
9000047                                                                                       000049
