0RETORNONOTIFICAÇÃO ELETRONICA        22112011REGI                                            000001
100003171200666511181120110066651118112011               0000000000000151965-1                000002
100003185000666512181120110066651218112011               0000000000000151965-2                000003
100003185100666513181120110066651318112011               0000000000000151965-3                000004
100003185200666514181120110066651418112011               0000000000000151965-4                000005
100003185300666515181120110066651518112011               0000000000000151965-5                000006
100003185400666516181120110066651618112011               0000000000000151965-6                000007
100003185500666517181120110066651718112011               0000000000000151965-7                000008
100003186400666518181120110066651818112011               0000000000000151965-8                000009
100003186500666519181120110066651918112011               0000000000000151965-9                000010
100003186600666520181120110066652018112011               0000000000000151965-10               000011
100003188400666521181120110066652118112011               0000000000000151965-11               000012
100003188500666522181120110066652218112011               0000000000000151965-14               000013
100003188600666523181120110066652318112011               0000000000000151965-15               000014
100003188700666524181120110066652418112011               0000000000000151965-16               000015
100003188800666525181120110066652518112011               0000000000000151965-17               000016
100003188900666526181120110066652618112011               0000000000000151965-18               000017
100003189000666527181120110066652718112011               0000000000000151965-19               000018
100003189100666528181120110066652818112011               0000000000000151965-24               000019
100003189200666529181120110066652918112011               0000000000000151965-25               000020
100003189600666530181120110066653018112011               0000000000000151965-26               000021
100003189800666531181120110066653118112011               0000000000000151965-27               000022
100003190400666532181120110066653218112011               0000000000000151965-28               000023
100003190800666533181120110066653318112011               0000000000000151965-29               000024
100003190900666534181120110066653418112011               0000000000000151965-30               000025
100003191000666535181120110066653518112011               0000000000000151965-31               000026
100003191100666536181120110066653618112011               0000000000000151965-32               000027
100003191600666537181120110066653718112011               0000000000000151965-33               000028
100003191700666538181120110066653818112011               0000000000000151965-34               000029
100003194500666539181120110066653918112011               0000000000000151967-9                000030
100003194600666540181120110066654018112011               0000000000000151967-21               000031
100003194700666713181120110066671318112011               0000000000000152104-1                000032
100003194800666714181120110066671418112011               0000000000000152104-2                000033
100003197300666715181120110066671518112011               0000000000000152104-6                000034
9000033                                                                                       000035
