0RETORNONOTIFICAÇÃO ELETRONICA        14092011REGI                                            000001
100003003000624624140920110062462414092011               0000000000000144338-1                000002
100003003100624625140920110062462514092011               0000000000000144338-2                000003
100003003200624626140920110062462614092011               0000000000000144338-3                000004
9000003                                                                                       000005
