0RETORNONOTIFICAÇÃO ELETRONICA        25072014REGI                                            000001
100004842601275267160720140127526716072014FA283229925BR  0000021072014309864-1                000002
100004842701275268160720140127526816072014FA283229939BR  0000024072014309864-2                000003
100004842901275269160720140127526916072014FA283229942BR  0000021072014309864-3                000004
100004843701275270160720140127527016072014FA283229956BR  0000024072014310550-1                000005
100004843801275271160720140127527116072014FA283229960BR  0000021072014310550-2                000006
100004843901275272160720140127527216072014               0000000000000310550-3                000007
100004844801275273160720140127527316072014FA283229987BR  0000021072014310551-1                000008
100004844901275274160720140127527416072014FA283229995BR  0000021072014310551-2                000009
100004845001275275160720140127527516072014FA283230000BR  0000221072014310551-4                000010
100004845901275443160720140127544316072014FA283231570BR  0000024072014310717-1                000011
100004846001275444160720140127544416072014FA283231583BR  0000024072014310717-2                000012
100004846101275445160720140127544516072014FA283231597BR  0000021072014310717-3                000013
100004846201275446160720140127544616072014FA283231606BR  0000023072014310717-5                000014
100004846501279733220720140127973322072014               0000000000000311242-1                000015
100004846601279734220720140127973422072014               0000000000000311242-2                000016
100004847101279735220720140127973522072014               0000000000000311242-3                000017
100004847201279736220720140127973622072014               0000000000000311242-4                000018
100004847301279737220720140127973722072014               0000000000000311242-5                000019
100004848301279738220720140127973822072014               0000000000000311245-1                000020
100004848401279739220720140127973922072014               0000000000000311245-2                000021
100004848501279740220720140127974022072014               0000000000000311245-3                000022
100004848601279741220720140127974122072014               0000000000000311245-4                000023
100004849801279742220720140127974222072014               0000000000000311815-1                000024
100004849901279743220720140127974322072014               0000000000000311815-4                000025
100004850001279744220720140127974422072014               0000000000000311815-5                000026
100004850101279745220720140127974522072014               0000000000000311815-6                000027
100004850201279746220720140127974622072014               0000000000000311815-7                000028
100004850301279747220720140127974722072014               0000000000000311815-9                000029
100004850401279748220720140127974822072014               0000000000000311815-12               000030
100004852001279749220720140127974922072014               0000000000000311815-13               000031
100004851001279750220720140127975022072014               0000000000000311818-1                000032
100004851101279751220720140127975122072014               0000000000000311818-2                000033
100004851201279752220720140127975222072014               0000000000000311818-3                000034
100004851301279753220720140127975322072014               0000000000000311818-4                000035
100004851501279754220720140127975422072014               0000000000000311818-5                000036
100004852101279755220720140127975522072014               0000000000000311818-6                000037
100004852201279756220720140127975622072014               0000000000000311818-8                000038
100004852301279757220720140127975722072014               0000000000000311818-9                000039
100004852401279758220720140127975822072014               0000000000000311818-10               000040
100004852601279759220720140127975922072014               0000000000000311818-11               000041
100004853701281066240720140128106624072014               0000000000000312091-1                000042
100004853801281067240720140128106724072014               0000000000000312091-2                000043
100004853901281068240720140128106824072014               0000000000000312091-3                000044
100004854001281069240720140128106924072014               0000000000000312091-5                000045
100004854101281070240720140128107024072014               0000000000000312091-6                000046
100004854201281071240720140128107124072014               0000000000000312091-7                000047
100004854301281072240720140128107224072014               0000000000000312091-9                000048
100004854401281073240720140128107324072014               0000000000000312091-11               000049
100004854501281074240720140128107424072014               0000000000000312091-12               000050
100004855401281075240720140128107524072014               0000000000000312278-1                000051
100004855501281076240720140128107624072014               0000000000000312278-2                000052
100004855601281077240720140128107724072014               0000000000000312278-3                000053
100004855701281078240720140128107824072014               0000000000000312278-4                000054
100004856701281079240720140128107924072014               0000000000000312278-5                000055
100004856801281080240720140128108024072014               0000000000000312278-6                000056
100004856901281081240720140128108124072014               0000000000000312278-7                000057
100004857001281082240720140128108224072014               0000000000000312278-8                000058
100004857101281083240720140128108324072014               0000000000000312278-9                000059
100004857301281084240720140128108424072014               0000000000000312278-10               000060
100004857401281085240720140128108524072014               0000000000000312278-11               000061
100004857501281086240720140128108624072014               0000000000000312278-12               000062
9000061                                                                                       000063
