0RETORNONOTIFICAÇÃO ELETRONICA        24012011REGI                                            000001
100002564300455617210120110045561721012011               0000000000000120284-1                000002
100002564400455618210120110045561821012011               0000000000000120284-2                000003
100002565500455619210120110045561921012011               0000000000000120284-3                000004
100002565600455620210120110045562021012011               0000000000000120284-4                000005
100002566000455621210120110045562121012011               0000000000000120284-5                000006
100002566200455622210120110045562221012011               0000000000000120284-6                000007
100002569200455623210120110045562321012011               0000000000000120284-7                000008
100002569300455624210120110045562421012011               0000000000000120284-8                000009
100002571100455625210120110045562521012011               0000000000000120284-9                000010
100002573800455626210120110045562621012011               0000000000000120284-10               000011
100002574400455627210120110045562721012011               0000000000000120284-11               000012
100002574900455628210120110045562821012011               0000000000000120284-12               000013
100002575200455629210120110045562921012011               0000000000000120284-13               000014
100002577000455630210120110045563021012011               0000000000000120284-14               000015
100002584900455631210120110045563121012011               0000000000000120284-15               000016
100002585000455632210120110045563221012011               0000000000000120284-16               000017
100002585100455633210120110045563321012011               0000000000000120284-17               000018
100002580400455634210120110045563421012011               0000000000000120285-1                000019
100002580700455635210120110045563521012011               0000000000000120285-2                000020
100002580800455636210120110045563621012011               0000000000000120285-3                000021
100002584700455637210120110045563721012011               0000000000000120285-4                000022
100002584800455638210120110045563821012011               0000000000000120285-5                000023
100002586400455639210120110045563921012011               0000000000000120285-6                000024
100002586500455640210120110045564021012011               0000000000000120285-7                000025
100002586600455641210120110045564121012011               0000000000000120285-8                000026
100002586700455642210120110045564221012011               0000000000000120285-14               000027
100002586800455643210120110045564321012011               0000000000000120285-15               000028
100002589900455644210120110045564421012011               0000000000000120286-1                000029
100002590000455645210120110045564521012011               0000000000000120286-2                000030
100002590100455646210120110045564621012011               0000000000000120286-3                000031
100002591100455647210120110045564721012011               0000000000000120286-4                000032
100002581700455648210120110045564821012011               0000000000000120288-1                000033
100002581800455649210120110045564921012011               0000000000000120288-2                000034
100002586000455650210120110045565021012011               0000000000000120288-3                000035
100002586900455651210120110045565121012011               0000000000000120288-4                000036
100002592500455652210120110045565221012011               0000000000000120288-5                000037
100002592600455653210120110045565321012011               0000000000000120288-6                000038
100002592700455654210120110045565421012011               0000000000000120288-7                000039
100002592800455655210120110045565521012011               0000000000000120288-8                000040
100002592900455656210120110045565621012011               0000000000000120288-9                000041
100002593000455657210120110045565721012011               0000000000000120289-1                000042
100002593100455658210120110045565821012011               0000000000000120289-5                000043
100002593200455659210120110045565921012011               0000000000000120289-7                000044
100002593300455660210120110045566021012011               0000000000000120289-8                000045
100002593600455661210120110045566121012011               0000000000000120289-9                000046
100002593700455662210120110045566221012011               0000000000000120289-10               000047
100002593800455663210120110045566321012011               0000000000000120289-11               000048
9000047                                                                                       000049
