0RETORNONOTIFICAÇÃO ELETRONICA        04082011REGI                                            000001
100002933200591309030820110059130903082011               0000000000000139242-1                000002
100002933300591310030820110059131003082011               0000000000000139242-2                000003
100002933400591311030820110059131103082011               0000000000000139242-4                000004
100002933500591312030820110059131203082011               0000000000000139242-5                000005
100002933600591313030820110059131303082011               0000000000000139242-6                000006
100002933700591314030820110059131403082011               0000000000000139242-7                000007
100002933800591315030820110059131503082011               0000000000000139242-8                000008
100002933900591316030820110059131603082011               0000000000000139242-9                000009
100002916500591317030820110059131703082011               0000000000000139311-1                000010
100002934200591318030820110059131803082011               0000000000000139311-2                000011
100002935200591319030820110059131903082011               0000000000000139311-3                000012
100002935300591320030820110059132003082011               0000000000000139311-4                000013
100002935400591321030820110059132103082011               0000000000000139311-5                000014
9000013                                                                                       000015
