0RETORNONOTIFICAÇÃO ELETRONICA        10102011REGI                                            000001
100003114000641898071020110064189807102011               0000000000000147318-1                000002
100003114100641899071020110064189907102011               0000000000000147318-2                000003
100003115300641900071020110064190007102011               0000000000000147318-3                000004
9000003                                                                                       000005
