0RETORNONOTIFICAÇÃO ELETRONICA        15062011REGI                                            000001
100002806200554877140620110055487714062011               0000000000000133660-1                000002
100002806300554878140620110055487814062011               0000000000000133660-2                000003
100002806400554879140620110055487914062011               0000000000000133660-3                000004
100002806500554880140620110055488014062011               0000000000000133660-4                000005
100002806600554881140620110055488114062011               0000000000000133660-6                000006
100002806700554882140620110055488214062011               0000000000000133660-7                000007
100002806800554883140620110055488314062011               0000000000000133660-8                000008
100002806900554884140620110055488414062011               0000000000000133660-9                000009
100002807000554885140620110055488514062011               0000000000000133660-10               000010
100002807100554886140620110055488614062011               0000000000000133660-13               000011
100002807600554887140620110055488714062011               0000000000000133660-16               000012
100002809400554888140620110055488814062011               0000000000000133660-17               000013
100002809500554889140620110055488914062011               0000000000000133660-18               000014
100002807200554890140620110055489014062011               0000000000000133662-1                000015
100002807300554891140620110055489114062011               0000000000000133662-2                000016
100002807400554892140620110055489214062011               0000000000000133662-3                000017
100002808200554893140620110055489314062011               0000000000000133662-4                000018
100002808300554894140620110055489414062011               0000000000000133662-5                000019
100002808400554895140620110055489514062011               0000000000000133662-6                000020
100002809000554896140620110055489614062011               0000000000000133662-7                000021
100002809600554897140620110055489714062011               0000000000000133662-8                000022
100002809700554898140620110055489814062011               0000000000000133662-9                000023
9000022                                                                                       000024
