0RETORNONOTIFICAÇÃO ELETRONICA        27112012REGI                                            000001
100003871700861516231120120086151623112012               0000000000000206124-1                000002
100003871800861517231120120086151723112012               0000000000000206124-2                000003
100003871900861518231120120086151823112012               0000000000000206124-4                000004
100003872000861519231120120086151923112012               0000000000000206124-6                000005
100003873000861520231120120086152023112012               0000000000000206124-7                000006
100003873800861521231120120086152123112012               0000000000000206127-1                000007
100003873900861522231120120086152223112012               0000000000000206127-2                000008
9000007                                                                                       000009
