0RETORNONOTIFICAÇÃO ELETRONICA        16042012REGI                                            000001
100003474000749228130420120074922813042012               0000000000000170432-1                000002
100003475900749229130420120074922913042012               0000000000000170432-2                000003
100003476000749230130420120074923013042012               0000000000000170432-8                000004
100003476100749231130420120074923113042012               0000000000000170432-12               000005
100003477400749232130420120074923213042012               0000000000000170432-13               000006
100003477500749392130420120074939213042012               0000000000000170583-1                000007
100003477600749393130420120074939313042012               0000000000000170583-3                000008
100003477700749394130420120074939413042012               0000000000000170583-4                000009
9000008                                                                                       000010
