0RETORNONOTIFICAÇÃO ELETRONICA        01122010REGI                                            000001
100002518900432924011220100043292401122010               0000000000000116771-1                000002
100002520300432925011220100043292501122010               0000000000000116771-2                000003
100002520400432926011220100043292601122010               0000000000000116771-3                000004
100002520500432927011220100043292701122010               0000000000000116771-4                000005
100002522000432928011220100043292801122010               0000000000000116771-5                000006
100002522100432929011220100043292901122010               0000000000000116771-6                000007
100002522600432930011220100043293001122010               0000000000000116771-7                000008
100002523000432931011220100043293101122010               0000000000000116771-8                000009
9000008                                                                                       000010
