0RETORNONOTIFICAÇÃO ELETRONICA        01082013REGI                                            000001
100004281701007490310720130100749031072013               0000000000000248951-1                000002
100004278701007491310720130100749131072013               0000000000000248951-2                000003
100004278801007492310720130100749231072013               0000000000000248951-3                000004
100004278901007493310720130100749331072013               0000000000000248951-4                000005
100004278401007494310720130100749431072013               0000000000000248951-5                000006
100004278501007495310720130100749531072013               0000000000000248951-6                000007
100004281001007496310720130100749631072013               0000000000000248951-7                000008
100004279001007497310720130100749731072013               0000000000000248951-8                000009
100004278601007498310720130100749831072013               0000000000000248951-9                000010
100004282101007499310720130100749931072013               0000000000000248952-1                000011
100004281901007500310720130100750031072013               0000000000000248952-2                000012
100004282201007501310720130100750131072013               0000000000000248952-4                000013
100004282001007502310720130100750231072013               0000000000000248952-5                000014
100004281801007503310720130100750331072013               0000000000000248952-6                000015
100004284801007504310720130100750431072013               0000000000000248952-7                000016
100004285101007505310720130100750531072013               0000000000000249061-1                000017
100004285301007506310720130100750631072013               0000000000000249061-2                000018
100004285201007507310720130100750731072013               0000000000000249061-3                000019
100004285801007508310720130100750831072013               0000000000000249061-4                000020
100004285901007509310720130100750931072013               0000000000000249061-5                000021
100004285401007510310720130100751031072013               0000000000000249061-6                000022
100004285601007511310720130100751131072013               0000000000000249061-7                000023
100004285501007512310720130100751231072013               0000000000000249061-8                000024
100004285701007513310720130100751331072013               0000000000000249061-9                000025
100004284901007514310720130100751431072013               0000000000000249061-10               000026
100004285001007515310720130100751531072013               0000000000000249061-12               000027
100004287301007516310720130100751631072013               0000000000000249062-1                000028
100004283401007517310720130100751731072013               0000000000000249062-2                000029
100004287201007518310720130100751831072013               0000000000000249062-3                000030
100004286101007519310720130100751931072013               0000000000000249062-4                000031
100004290001007520310720130100752031072013               0000000000000249063-1                000032
9000031                                                                                       000033
