0RETORNONOTIFICAÇÃO ELETRONICA        01112011REGI                                            000001
100003152800652767281020110065276728102011               0000000000000149637-1                000002
100003152900652768281020110065276828102011               0000000000000149637-2                000003
100003153000652769281020110065276928102011               0000000000000149637-3                000004
100003153100652770281020110065277028102011               0000000000000149637-7                000005
100003153200652771281020110065277128102011               0000000000000149637-8                000006
100003153300652772281020110065277228102011               0000000000000149637-9                000007
100003153700652773281020110065277328102011               0000000000000149637-10               000008
100003153900652774281020110065277428102011               0000000000000149637-11               000009
100003154700652775281020110065277528102011               0000000000000149637-12               000010
100003154800652776281020110065277628102011               0000000000000149637-18               000011
100003154900652777281020110065277728102011               0000000000000149637-27               000012
100003155000652778281020110065277828102011               0000000000000149637-33               000013
100003155100652779281020110065277928102011               0000000000000149637-44               000014
100003155200652780281020110065278028102011               0000000000000149637-61               000015
9000014                                                                                       000016
