0RETORNONOTIFICAÇÃO ELETRONICA        07062013REGI                                            000001
100004200600958524160520130095852416052013FA105179445BR  0000023052013236673-1                000002
100004200700958525160520130095852516052013FA105179459BR  0000028052013236673-2                000003
100004200800958526160520130095852616052013FA105179462BR  0000031052013236673-3                000004
100004206200958527160520130095852716052013FA105179476BR  0000024052013236675-1                000005
100004204300958528160520130095852816052013FA105179480BR  0000024052013236675-2                000006
100004205800958529160520130095852916052013FA105179493BR  0000022052013236675-3                000007
100004199000958530160520130095853016052013FA105179502BR  0000022052013236675-4                000008
100004205000958531160520130095853116052013FA105179516BR  0000024052013236675-5                000009
100004205700958532160520130095853216052013FA105179520BR  0000028052013236675-6                000010
100004199100958533160520130095853316052013FA105179533BR  0000023052013236675-7                000011
100004207000958534160520130095853416052013FA105179547BR  0000022052013236675-8                000012
100004200900958535160520130095853516052013FA105179555BR  0000028052013236675-9                000013
100004209100959320200520130095932020052013               0000000000000236915-1                000014
100004207200959321200520130095932120052013FA105187075BR  0000024052013236915-2                000015
100004209800959322200520130095932220052013FA105187089BR  0000024052013236915-3                000016
100004207300959323200520130095932320052013FA105187092BR  0000023052013236915-4                000017
100004207500959324200520130095932420052013               0000000000000236915-5                000018
100004207100959325200520130095932520052013               0000000000000236915-6                000019
100004207400959326200520130095932620052013               0000000000000236915-7                000020
100004210100961069220520130096106922052013FA105203317BR  0000005062013237187-1                000021
100004211800961070220520130096107022052013               0000000000000237187-2                000022
100004209900961071220520130096107122052013FA105203334BR  0000031052013237187-3                000023
100004210800961072220520130096107222052013FA105203348BR  0000031052013237187-4                000024
100004210900961073220520130096107322052013FA105203351BR  0000031052013237187-5                000025
100004210000961074220520130096107422052013FA105203365BR  0000028052013237187-6                000026
100004211900961075220520130096107522052013FA105203379BR  0000031052013237621-1                000027
100004212000961076220520130096107622052013FA105203382BR  0000031052013237621-2                000028
100004212100961077220520130096107722052013FA105203396BR  0000031052013237621-3                000029
100004213900961078220520130096107822052013FA105203405BR  0000031052013237623-1                000030
100004212800961079220520130096107922052013FA105203419BR  0000028052013237623-2                000031
100004214100961080220520130096108022052013FA105203422BR  0000004062013237623-3                000032
100004215000961081220520130096108122052013FA105203436BR  0000031052013237623-4                000033
100004213800961082220520130096108222052013FA105203440BR  0000004062013237623-5                000034
100004212300961083220520130096108322052013FA105203453BR  0000028052013237623-6                000035
100004214000961084220520130096108422052013               0000000000000237623-7                000036
100004216100961085220520130096108522052013               0000000000000237623-8                000037
100004216300966155290520130096615529052013               0000000000000238770-1                000038
100004216400966156290520130096615629052013               0000000000000238770-3                000039
100004216200966157290520130096615729052013FA136030483BR  0000005062013238770-4                000040
100004220100966158290520130096615829052013               0000000000000238771-1                000041
100004220600966159290520130096615929052013               0000000000000238771-2                000042
100004220500966160290520130096616029052013               0000000000000238771-4                000043
100004220400966161290520130096616129052013               0000000000000238771-8                000044
100004220300966162290520130096616229052013FA136030537BR  0000005062013238771-11               000045
100004220200966163290520130096616329052013               0000000000000238771-12               000046
100004218000966164290520130096616429052013               0000000000000238771-13               000047
100004217800966165290520130096616529052013               0000000000000238771-14               000048
100004217900966166290520130096616629052013               0000000000000238771-15               000049
100004217700966167290520130096616729052013FA136030585BR  0000005062013238771-16               000050
100004218100966168290520130096616829052013FA136030599BR  0000005062013238771-19               000051
100004217600966169290520130096616929052013               0000000000000238771-20               000052
100004220800966170290520130096617029052013FA136030611BR  0000005062013238772-1                000053
100004220700966171290520130096617129052013               0000000000000238772-2                000054
100004222400966172290520130096617229052013               0000000000000238773-1                000055
100004222500966173290520130096617329052013               0000000000000238773-2                000056
100004227700966174290520130096617429052013               0000000000000238775-1                000057
100004230000966175290520130096617529052013               0000000000000238775-2                000058
100004229900966176290520130096617629052013               0000000000000238775-5                000059
100004229800966177290520130096617729052013               0000000000000238775-8                000060
100004229700966178290520130096617829052013               0000000000000238775-9                000061
100004229600966179290520130096617929052013               0000000000000238775-10               000062
100004229500966180290520130096618029052013               0000000000000238775-12               000063
100004229400966181290520130096618129052013               0000000000000238775-13               000064
100004229300966182290520130096618229052013               0000000000000238775-15               000065
100004229200966183290520130096618329052013               0000000000000238775-17               000066
100004229100966184290520130096618429052013               0000000000000238775-25               000067
100004229000966185290520130096618529052013               0000000000000238775-26               000068
100004228900966186290520130096618629052013               0000000000000238775-28               000069
100004228800966187290520130096618729052013               0000000000000238775-30               000070
100004228700966188290520130096618829052013               0000000000000238775-32               000071
100004228600966189290520130096618929052013               0000000000000238775-34               000072
100004228500966190290520130096619029052013               0000000000000238775-35               000073
100004228400966191290520130096619129052013FA136030829BR  0000805062013238775-36               000074
100004228300966192290520130096619229052013               0000000000000238775-37               000075
100004228200966193290520130096619329052013               0000000000000238775-38               000076
100004228100966194290520130096619429052013               0000000000000238775-39               000077
100004228000966195290520130096619529052013               0000000000000238775-40               000078
100004227900966196290520130096619629052013               0000000000000238775-41               000079
100004227800966197290520130096619729052013               0000000000000238775-42               000080
100004227400966200290520130096620029052013               0000000000000238775-96               000081
100004227300966201290520130096620129052013FA136030925BR  0000005062013238775-99               000082
100004227200966202290520130096620229052013               0000000000000238775-102              000083
100004225700966203290520130096620329052013               0000000000000238775-103              000084
100004223700966204290520130096620429052013               0000000000000238775-104              000085
100004224000966205290520130096620529052013               0000000000000238775-105              000086
100004227600966206290520130096620629052013               0000000000000238775-106              000087
100004223600966207290520130096620729052013FA136030982BR  0000005062013238775-107              000088
100004223400966208290520130096620829052013               0000000000000238775-108              000089
100004216700966209290520130096620929052013               0000000000000238775-109              000090
100004216500966210290520130096621029052013FA136031016BR  0000805062013238775-110              000091
100004223900966211290520130096621129052013               0000000000000238775-111              000092
100004223800966212290520130096621229052013               0000000000000238775-112              000093
100004217500966213290520130096621329052013               0000000000000238775-113              000094
9000093                                                                                       000095
