0RETORNONOTIFICAÇÃO ELETRONICA        02012013REGI                                            000001
100003938300874964211220120087496421122012               0000000000000212133-1                000002
100003938500874965211220120087496521122012FA063047640BR  0000027122012212133-2                000003
100003938600874966211220120087496621122012FA063047653BR  0000027122012212133-3                000004
100003935700874967211220120087496721122012               0000000000000212133-4                000005
100003938700874968211220120087496821122012               0000000000000212133-5                000006
100003937600874969211220120087496921122012               0000000000000212133-6                000007
100003938800874970211220120087497021122012FA063047698BR  0000527122012212133-7                000008
100003938400874971211220120087497121122012FA063047707BR  0000026122012212133-8                000009
100003938100874972211220120087497221122012               0000000000000212133-9                000010
100003938900874973211220120087497321122012               0000000000000212133-10               000011
100003938200874974211220120087497421122012               0000000000000212133-11               000012
100003941400876221271220120087622127122012               0000000000000212387-1                000013
100003941500876222271220120087622227122012               0000000000000212387-2                000014
100003941100876223271220120087622327122012               0000000000000212387-3                000015
100003941300876224271220120087622427122012               0000000000000212387-4                000016
100003941200876225271220120087622527122012               0000000000000212387-6                000017
100003941000876226271220120087622627122012               0000000000000212387-7                000018
9000017                                                                                       000019
