0RETORNONOTIFICAÇÃO ELETRONICA        05082014REGI                                            000001
100004862401287589310720140128758931072014               0000000000000313298-1                000002
100004862501287590310720140128759031072014FA283318727BR  0000004082014313298-2                000003
100004862701287591310720140128759131072014               0000000000000313298-3                000004
100004863001287592310720140128759231072014               0000000000000313298-4                000005
100004863601287593310720140128759331072014               0000000000000313525-1                000006
100004863701287594310720140128759431072014               0000000000000313525-3                000007
100004863801287595310720140128759531072014               0000000000000313525-4                000008
100004863901287596310720140128759631072014               0000000000000313525-5                000009
100004862301289803040820140128980304082014               0000000000000313860-1                000010
100004864901289804040820140128980404082014               0000000000000313860-2                000011
100004865001289805040820140128980504082014               0000000000000313860-4                000012
100004865101289806040820140128980604082014               0000000000000313860-5                000013
100004865201289807040820140128980704082014               0000000000000313860-7                000014
100004866301289808040820140128980804082014               0000000000000313860-8                000015
100004866401289809040820140128980904082014               0000000000000314065-1                000016
100004866501289810040820140128981004082014               0000000000000314065-2                000017
100004866601289811040820140128981104082014               0000000000000314065-3                000018
100004866701289812040820140128981204082014               0000000000000314065-4                000019
100004866801289813040820140128981304082014               0000000000000314065-6                000020
100004866901289814040820140128981404082014               0000000000000314065-13               000021
100004868301289815040820140128981504082014               0000000000000314065-16               000022
100004868401289816040820140128981604082014               0000000000000314065-20               000023
100004868501289817040820140128981704082014               0000000000000314065-23               000024
100004868601289818040820140128981804082014               0000000000000314065-24               000025
100004868701289819040820140128981904082014               0000000000000314065-25               000026
100004868801289820040820140128982004082014               0000000000000314065-26               000027
100004868901289821040820140128982104082014               0000000000000314065-30               000028
100004869001289822040820140128982204082014               0000000000000314065-44               000029
100004869101289823040820140128982304082014               0000000000000314065-46               000030
100004869201289824040820140128982404082014               0000000000000314065-48               000031
100004869301289825040820140128982504082014               0000000000000314065-51               000032
100004869401289826040820140128982604082014               0000000000000314065-54               000033
100004869501289827040820140128982704082014               0000000000000314065-57               000034
100004869601289828040820140128982804082014               0000000000000314065-60               000035
100004869701289829040820140128982904082014               0000000000000314065-63               000036
100004869801289830040820140128983004082014               0000000000000314065-67               000037
100004869901289831040820140128983104082014               0000000000000314065-70               000038
100004870001289832040820140128983204082014               0000000000000314065-73               000039
100004870101289833040820140128983304082014               0000000000000314065-74               000040
100004870201289834040820140128983404082014               0000000000000314065-77               000041
100004870301289835040820140128983504082014               0000000000000314065-80               000042
100004870401289836040820140128983604082014               0000000000000314065-84               000043
100004870501289837040820140128983704082014               0000000000000314065-87               000044
100004870601289838040820140128983804082014               0000000000000314065-88               000045
9000044                                                                                       000046
