0RETORNONOTIFICAÇÃO ELETRONICA        20102014REGI                                            000001
100004990301352954171020140135295417102014               0000000000000327972-1                000002
100004990401352955171020140135295517102014               0000000000000327972-2                000003
100004990501352956171020140135295617102014               0000000000000327972-3                000004
100004990601352957171020140135295717102014               0000000000000327972-4                000005
100004991001352958171020140135295817102014               0000000000000327972-5                000006
100004991201352959171020140135295917102014               0000000000000328178-1                000007
100004991301352960171020140135296017102014               0000000000000328178-2                000008
100004992001352961171020140135296117102014               0000000000000328178-3                000009
9000008                                                                                       000010
