0RETORNONOTIFICAÇÃO ELETRONICA        20122010REGI                                            000001
100002544200437721171220100043772117122010               0000000000000118174-1                000002
100002544300437722171220100043772217122010               0000000000000118174-2                000003
100002544400437723171220100043772317122010               0000000000000118174-4                000004
100002544500437724171220100043772417122010               0000000000000118174-5                000005
100002544600437725171220100043772517122010               0000000000000118174-6                000006
9000005                                                                                       000007
