0RETORNONOTIFICAÇÃO ELETRONICA        22102010REGI                                            000001
100002467600405024211020100040502421102010               0000000000000113853-1                000002
100002467700405025211020100040502521102010               0000000000000113853-2                000003
100002467800405026211020100040502621102010               0000000000000113853-3                000004
100002467900405027211020100040502721102010               0000000000000113853-7                000005
100002468000405028211020100040502821102010               0000000000000113853-8                000006
100002468100405029211020100040502921102010               0000000000000113853-9                000007
9000006                                                                                       000008
