0RETORNONOTIFICAÇÃO ELETRONICA        06092012REGI                                            000001
100003759700825380050920120082538005092012               0000000000000192055-1                000002
100003759800825381050920120082538105092012               0000000000000192055-8                000003
100003759900825382050920120082538205092012               0000000000000192055-9                000004
100003760000825383050920120082538305092012               0000000000000192055-10               000005
100003760100825384050920120082538405092012               0000000000000192055-11               000006
100003760200825385050920120082538505092012               0000000000000192055-12               000007
100003762500825386050920120082538605092012               0000000000000192055-13               000008
100003762600825387050920120082538705092012               0000000000000192055-15               000009
100003762700825388050920120082538805092012               0000000000000192055-18               000010
100003762800825389050920120082538905092012               0000000000000192055-21               000011
100003762900825390050920120082539005092012               0000000000000192055-22               000012
100003763000825391050920120082539105092012               0000000000000192055-23               000013
100003763100825392050920120082539205092012               0000000000000192055-26               000014
100003763200825393050920120082539305092012               0000000000000192055-27               000015
100003763300825394050920120082539405092012               0000000000000192055-28               000016
100003763400825395050920120082539505092012               0000000000000192055-29               000017
100003763500825396050920120082539605092012               0000000000000192055-30               000018
100003763600825397050920120082539705092012               0000000000000192055-31               000019
100003763700825398050920120082539805092012               0000000000000192055-33               000020
100003763800825399050920120082539905092012               0000000000000192055-34               000021
100003763900825400050920120082540005092012               0000000000000192055-35               000022
9000021                                                                                       000023
