0RETORNONOTIFICAÇÃO ELETRONICA        23092010REGI                                            000001
100002415200392179210920100039217921092010               0000000000000111259-1                000002
100002415300392180210920100039218021092010               0000000000000111259-7                000003
100002418400392181210920100039218121092010               0000000000000111380-5                000004
100002421700392182210920100039218221092010               0000000000000111628-1                000005
100002421800392183210920100039218321092010               0000000000000111628-2                000006
100002421900392184210920100039218421092010               0000000000000111628-3                000007
100002422000392185210920100039218521092010               0000000000000111628-4                000008
100002422100392186210920100039218621092010               0000000000000111628-5                000009
100002422200392187210920100039218721092010               0000000000000111628-9                000010
100002424800392188210920100039218821092010               0000000000000111628-10               000011
100002424900392189210920100039218921092010               0000000000000111628-11               000012
100002425000392190210920100039219021092010               0000000000000111628-12               000013
100002425100392191210920100039219121092010               0000000000000111628-14               000014
100002425200392192210920100039219221092010               0000000000000111628-16               000015
100002425300392193210920100039219321092010               0000000000000111628-18               000016
100002425400392194210920100039219421092010               0000000000000111628-20               000017
100002425500392195210920100039219521092010               0000000000000111628-22               000018
100002425600392196210920100039219621092010               0000000000000111628-23               000019
100002425700392197210920100039219721092010               0000000000000111628-25               000020
100002425800392198210920100039219821092010               0000000000000111628-28               000021
100002425900392199210920100039219921092010               0000000000000111628-30               000022
100002426000392200210920100039220021092010               0000000000000111628-32               000023
100002426100392201210920100039220121092010               0000000000000111628-35               000024
100002426200392202210920100039220221092010               0000000000000111628-37               000025
100002426300392203210920100039220321092010               0000000000000111628-38               000026
100002413200393673220920100039367322092010               0000000000000111756-1                000027
100002426400393674220920100039367422092010               0000000000000111756-2                000028
100002426500393675220920100039367522092010               0000000000000111756-3                000029
100002426600393676220920100039367622092010               0000000000000111756-4                000030
100002426700393677220920100039367722092010               0000000000000111756-5                000031
100002426800393678220920100039367822092010               0000000000000111756-6                000032
100002426900393679220920100039367922092010               0000000000000111756-7                000033
100002427000393680220920100039368022092010               0000000000000111756-8                000034
100002427100393681220920100039368122092010               0000000000000111756-9                000035
9000034                                                                                       000036
