0RETORNONOTIFICAÇÃO ELETRONICA        30052012REGI                                            000001
100002058300246563250220100024656325022010FR584382061BR  000000903201086815-2                 000002
100002058400246564250220100024656425022010FR584382075BR  000000803201086815-3                 000003
100002060900249829020320100024982902032010FR584414745BR  000001203201087366-6                 000004
100002061000249830020320100024983002032010FR584414759BR  000001203201087366-7                 000005
100002061100249831020320100024983102032010FR584414762BR  000000803201087366-8                 000006
100002063500249833020320100024983302032010FR584414780BR  000001203201087368-1                 000007
100002063600249834020320100024983402032010FR584414793BR  000001203201087368-2                 000008
100002067200249842020320100024984202032010FR584414878BR  000001203201087369-8                 000009
100002067300249843020320100024984302032010FR584414881BR  000001603201087369-9                 000010
100002067400249844020320100024984402032010FR584414895BR  000001203201087369-10                000011
100002067500249845020320100024984502032010FR584414904BR  000001203201087369-11                000012
100002067600249846020320100024984602032010FR584414918BR  000001803201087369-12                000013
100002067700249847020320100024984702032010FR584414921BR  000001203201087369-13                000014
100002067800249848020320100024984802032010FR584414935BR  000001203201087369-14                000015
100002067900249849020320100024984902032010FR584414949BR  000001603201087369-15                000016
100002067900250391030320100025039103032010               000000000000087369-16                000017
100002068000249850020320100024985002032010FR584414952BR  000001203201087369-17                000018
100002068100249851020320100024985102032010FR584414966BR  000001603201087369-18                000019
100002068100250392030320100025039203032010FR584420374BR  000001603201087369-19                000020
100002077200253522090320100025352209032010               000000000000088400-5                 000021
100002077400253523090320100025352309032010FR584453412BR  000002203201088401-1                 000022
100002077500253524090320100025352409032010FR584453426BR  000001903201088401-2                 000023
100002077600253525090320100025352509032010FR584453430BR  000002403201088401-6                 000024
100002077700253526090320100025352609032010FR584453443BR  000001903201088401-7                 000025
100002081700255862110320100025586211032010FR584476719BR  000001903201088662-6                 000026
100002081800255863110320100025586311032010FR584476722BR  000001903201088662-7                 000027
100002081900255864110320100025586411032010FR584476736BR  000001903201088662-8                 000028
100002082000255865110320100025586511032010FR584476740BR  000001903201088662-9                 000029
100002082100255866110320100025586611032010FR584476753BR  000001903201088662-10                000030
100002082200255867110320100025586711032010FR584476767BR  000001903201088662-11                000031
100002082300255868110320100025586811032010FR584476775BR  000001903201088662-13                000032
100002082400255869110320100025586911032010FR584476784BR  000022203201088662-16                000033
100002082500255870110320100025587011032010FR584476798BR  000003003201088662-17                000034
100002082600255871110320100025587111032010FR584476807BR  000003003201088662-19                000035
100002082700255872110320100025587211032010FR584476815BR  000002403201088662-22                000036
100002085400255874110320100025587411032010FR584476838BR  000002203201088664-1                 000037
100002085500255875110320100025587511032010FR584476841BR  000001903201088664-2                 000038
100002085600255876110320100025587611032010FR584476855BR  000001903201088664-3                 000039
100002153600282958210520100028295821052010               000000000000093517-1                 000040
100002153700282959210520100028295921052010               000000000000093517-2                 000041
100002153800282960210520100028296021052010               000000000000093517-3                 000042
100002153900282961210520100028296121052010               000000000000093517-4                 000043
100002154000282962210520100028296221052010               000000000000093517-5                 000044
100002154100282963210520100028296321052010               000000000000093517-6                 000045
100002154200282964210520100028296421052010               000000000000093517-7                 000046
100002154300282965210520100028296521052010               000000000000093517-8                 000047
100002154400282966210520100028296621052010               000000000000093517-9                 000048
100002157700282968210520100028296821052010               000000000000093785-1                 000049
100002157800282969210520100028296921052010               000000000000093785-2                 000050
100002157900282970210520100028297021052010               000000000000093785-3                 000051
100002158000282971210520100028297121052010               000000000000094046-1                 000052
100002158100282972210520100028297221052010               000000000000094046-2                 000053
100002164800282973210520100028297321052010               000000000000094424-1                 000054
100002164900282974210520100028297421052010               000000000000094424-2                 000055
100002165000282975210520100028297521052010               000000000000094424-3                 000056
100002165100282976210520100028297621052010               000000000000094424-4                 000057
100002165200282977210520100028297721052010               000000000000094424-5                 000058
100002165300282978210520100028297821052010               000000000000094424-7                 000059
100002165400282979210520100028297921052010               000000000000094424-8                 000060
100002169200282980210520100028298021052010               000000000000094647-1                 000061
100002169300282981210520100028298121052010               000000000000094647-2                 000062
100002169400282982210520100028298221052010               000000000000094647-3                 000063
100002169500282983210520100028298321052010               000000000000094647-4                 000064
100002169600282984210520100028298421052010               000000000000094647-5                 000065
100002169700282985210520100028298521052010               000000000000094647-6                 000066
100002174300282986210520100028298621052010               000000000000095042-1                 000067
100002174400282987210520100028298721052010               000000000000095042-2                 000068
100002174500282988210520100028298821052010               000000000000095042-3                 000069
100002174600282989210520100028298921052010               000000000000095042-4                 000070
100002174700284591250520100028459125052010               000000000000095252-1                 000071
100002174800284592250520100028459225052010               000000000000095252-2                 000072
100002174900284593250520100028459325052010               000000000000095252-3                 000073
100002175000284594250520100028459425052010               000000000000095252-4                 000074
100002175100284595250520100028459525052010               000000000000095252-5                 000075
100002175200284596250520100028459625052010               000000000000095252-8                 000076
100002175300284597250520100028459725052010               000000000000095252-9                 000077
100002175400284598250520100028459825052010               000000000000095252-10                000078
100002175500284599250520100028459925052010               000000000000095252-11                000079
100002175600284600250520100028460025052010               000000000000095252-12                000080
100002175700284601250520100028460125052010               000000000000095252-16                000081
100002175800284602250520100028460225052010               000000000000095252-17                000082
100002181300277824100520100027782410052010               000000000000096200-1                 000083
100002181400277825100520100027782510052010               000000000000096200-2                 000084
100002181500287173310520100028717331052010               000000000000096528-1                 000085
100002181600287174310520100028717431052010               000000000000096528-2                 000086
100002181700287175310520100028717531052010               000000000000096528-3                 000087
100002181800287176310520100028717631052010               000000000000096528-4                 000088
100002181900287177310520100028717731052010               000000000000096528-5                 000089
100002182000287178310520100028717831052010               000000000000096528-13                000090
100002185200287180310520100028718031052010               000000000000096585-2                 000091
100002185300287181310520100028718131052010               000000000000096585-3                 000092
100002191600287183310520100028718331052010               000000000000096929-1                 000093
100002188600287184310520100028718431052010               000000000000096929-11                000094
100002188700287185310520100028718531052010               000000000000096929-12                000095
100002188800287186310520100028718631052010               000000000000096929-13                000096
100002191700287187310520100028718731052010               000000000000097323-1                 000097
100002191800287188310520100028718831052010               000000000000097323-2                 000098
100002191900287189310520100028718931052010               000000000000097323-3                 000099
100002192000287190310520100028719031052010               000000000000097323-4                 000100
100002192100287191310520100028719131052010               000000000000097323-5                 000101
100002192200287192310520100028719231052010               000000000000097323-6                 000102
100002192300287193310520100028719331052010               000000000000097323-17                000103
100002194200277826100520100027782610052010               000000000000097594-1                 000104
100002194300277827100520100027782710052010               000000000000097594-2                 000105
100002194400277828100520100027782810052010               000000000000097594-4                 000106
100002194500277829100520100027782910052010               000000000000097594-5                 000107
100002194600277830100520100027783010052010               000000000000097594-6                 000108
100002194700277831100520100027783110052010               000000000000097594-7                 000109
100002194800277832100520100027783210052010               000000000000097594-8                 000110
100002194900277833100520100027783310052010               000000000000097594-12                000111
100002195000277834100520100027783410052010               000000000000097594-13                000112
100002195100277835100520100027783510052010               000000000000097594-39                000113
100002195200277836100520100027783610052010               000000000000097799-1                 000114
100002195300277837100520100027783710052010               000000000000097799-2                 000115
100002197400277838100520100027783810052010               000000000000098046-1                 000116
100002197500277839100520100027783910052010               000000000000098046-2                 000117
100002197600277840100520100027784010052010               000000000000098046-3                 000118
100002197700277841100520100027784110052010               000000000000098046-4                 000119
100002197800277842100520100027784210052010               000000000000098046-5                 000120
100002197900277843100520100027784310052010               000000000000098046-6                 000121
100002201200277846100520100027784610052010               000000000000098271-2                 000122
100002201300277847100520100027784710052010               000000000000098271-3                 000123
100002201400277848100520100027784810052010               000000000000098271-4                 000124
100002204000280917130520100028091713052010               000000000000098459-1                 000125
100002204100280918130520100028091813052010               000000000000098459-2                 000126
100002204200280919130520100028091913052010               000000000000098459-3                 000127
100002204300280920130520100028092013052010               000000000000098459-5                 000128
100002204400280921130520100028092113052010               000000000000098459-7                 000129
100002208800281259140520100028125914052010               000000000000098872-7                 000130
100002208900281260140520100028126014052010               000000000000098872-8                 000131
100002209000281261140520100028126114052010               000000000000098872-9                 000132
100002209100281263140520100028126314052010               000000000000098906-2                 000133
100002209200281264140520100028126414052010               000000000000098906-3                 000134
100002209300281265140520100028126514052010               000000000000098906-4                 000135
100002211200282201180520100028220118052010               000000000000099312-1                 000136
100002211300282202180520100028220218052010               000000000000099312-2                 000137
100002213400282203180520100028220318052010               000000000000099534-1                 000138
100002213500282204180520100028220418052010               000000000000099534-2                 000139
100002213600282205180520100028220518052010               000000000000099534-3                 000140
100002216600282924200520100028292420052010               0000000000000100169-1                000141
100002216700282925200520100028292520052010               0000000000000100169-2                000142
100002216800282926200520100028292620052010               0000000000000100169-3                000143
100002216900282927200520100028292720052010               0000000000000100169-4                000144
100002217000282928200520100028292820052010               0000000000000100169-6                000145
100002217100282929200520100028292920052010               0000000000000100169-7                000146
100002217200282930200520100028293020052010               0000000000000100169-8                000147
100002217300282931200520100028293120052010               0000000000000100169-9                000148
100002217400282932200520100028293220052010               0000000000000100169-10               000149
100002217500282933200520100028293320052010               0000000000000100169-11               000150
100002219100282934200520100028293420052010               0000000000000100171-1                000151
100002219200282935200520100028293520052010               0000000000000100171-2                000152
100002219300282936200520100028293620052010               0000000000000100171-3                000153
100002219400282937200520100028293720052010               0000000000000100171-4                000154
100002219500282938200520100028293820052010               0000000000000100171-5                000155
100002219600282939200520100028293920052010               0000000000000100171-6                000156
100002219700282940200520100028294020052010               0000000000000100171-7                000157
100002219800282941200520100028294120052010               0000000000000100171-8                000158
100002219900283002210520100028300221052010               0000000000000100204-10               000159
100002220000283003210520100028300321052010               0000000000000100204-20               000160
100002220100283004210520100028300421052010               0000000000000100204-21               000161
100002220300283006210520100028300621052010               0000000000000100204-23               000162
100002220400283007210520100028300721052010               0000000000000100204-24               000163
100002220500283008210520100028300821052010               0000000000000100204-25               000164
100002220600283009210520100028300921052010               0000000000000100204-26               000165
100002224100283014210520100028301421052010               0000000000000100204-31               000166
100002224200283015210520100028301521052010               0000000000000100204-43               000167
100002224300283016210520100028301621052010               0000000000000100204-55               000168
100002224400283017210520100028301721052010               0000000000000100204-67               000169
100002224500283018210520100028301821052010               0000000000000100204-79               000170
100002224600283019210520100028301921052010               0000000000000100204-91               000171
100002224700283020210520100028302021052010               0000000000000100204-107              000172
100002224800283021210520100028302121052010               0000000000000100204-119              000173
100002224900283022210520100028302221052010               0000000000000100204-131              000174
100002225000283023210520100028302321052010               0000000000000100204-143              000175
100002225100283024210520100028302421052010               0000000000000100204-155              000176
100002225200283025210520100028302521052010               0000000000000100204-171              000177
100002225300283026210520100028302621052010               0000000000000100204-187              000178
100002225400283027210520100028302721052010               0000000000000100204-203              000179
100002225500283028210520100028302821052010               0000000000000100204-215              000180
100002225600283029210520100028302921052010               0000000000000100204-219              000181
100002225700284603250520100028460325052010               0000000000000100444-1                000182
100002225800284604250520100028460425052010               0000000000000100444-5                000183
100002225900284605250520100028460525052010               0000000000000100444-6                000184
100002226000284606250520100028460625052010               0000000000000100444-7                000185
100002226100284607250520100028460725052010               0000000000000100444-8                000186
100002226200284608250520100028460825052010               0000000000000100444-9                000187
100002228600285821270520100028582127052010               0000000000000100874-1                000188
100002228700285822270520100028582227052010               0000000000000100874-6                000189
100002228800285823270520100028582327052010               0000000000000100874-8                000190
100002230400285824270520100028582427052010               0000000000000101156-1                000191
100002230500285825270520100028582527052010               0000000000000101156-2                000192
100002230600285826270520100028582627052010               0000000000000101156-3                000193
100002230700285827270520100028582727052010               0000000000000101156-5                000194
100002230800285828270520100028582827052010               0000000000000101156-7                000195
100002233700285829270520100028582927052010               0000000000000101156-8                000196
100002233800287201310520100028720131052010               0000000000000101308-7                000197
100002233900287202310520100028720231052010               0000000000000101308-8                000198
100002234000287203310520100028720331052010               0000000000000101308-9                000199
100002234100287204310520100028720431052010               0000000000000101308-13               000200
100002234300287206310520100028720631052010               0000000000000101351-1                000201
100002234400287207310520100028720731052010               0000000000000101351-2                000202
100002234500287208310520100028720831052010               0000000000000101351-3                000203
100002245500288134020620100028813402062010               0000000000000101943-1                000204
100002245600288135020620100028813502062010               0000000000000101943-2                000205
100002245800288137020620100028813702062010               0000000000000101943-5                000206
100002245900288138020620100028813802062010               0000000000000101943-6                000207
100002246000288139020620100028813902062010               0000000000000101943-7                000208
100002321000304235160720100030423516072010               0000000000000105798-6                000209
100002343200311598290720100031159829072010               0000000000000106952-7                000210
100002385900383880300820100038388030082010               0000000000000109672-1                000211
100002386000383881300820100038388130082010               0000000000000109672-2                000212
100002386100383882300820100038388230082010               0000000000000109672-3                000213
100002386200383883300820100038388330082010               0000000000000109672-4                000214
100002386400383885300820100038388530082010               0000000000000109773-1                000215
100002387800383886300820100038388630082010               0000000000000109773-2                000216
100002387900383887300820100038388730082010               0000000000000109773-10               000217
100002388200385370300820100038537030082010               0000000000000109867-1                000218
100002388300385371300820100038537130082010               0000000000000109867-2                000219
100002388400385372300820100038537230082010               0000000000000109867-5                000220
100002388500385373300820100038537330082010               0000000000000109867-6                000221
100002388600385374300820100038537430082010               0000000000000109867-7                000222
100002715000508235110420110050823511042011RL963877465BR  0000002052011127617-26               000223
100002718100510119140420110051011914042011RL963894052BR  0000002052011127826-8                000224
100002720600510128140420110051012814042011RL963894145BR  0000002052011127827-10               000225
100002723600511026150420110051102615042011RL963902156BR  0000002052011128062-2                000226
100002723800511028150420110051102815042011RL963902173BR  0000002052011128062-6                000227
100002762500536651160520110053665116052011               0000000000000130731-16               000228
100002780500544843260520110054484326052011               0000000000000131795-20               000229
100002782000544857260520110054485726052011               0000000000000131926-12               000230
100002782100544858260520110054485826052011               0000000000000131926-13               000231
100002782700546340300520110054634030052011JL014246278BR  0000006062011132077-1                000232
100002782800546341300520110054634130052011JL014246281BR  0000009062011132077-2                000233
100002785300547894010620110054789401062011JL014261451BR  0000007062011132213-1                000234
100002785400547895010620110054789501062011JL014261465BR  0000010062011132213-2                000235
100002785500547896010620110054789601062011JL014261479BR  0000010062011132213-3                000236
100002790000547901010620110054790101062011JL014261522BR  0000015062011132384-1                000237
100002787500547902010620110054790201062011JL014261536BR  0000010062011132384-5                000238
100002787600547903010620110054790301062011JL014261540BR  0000007062011132384-6                000239
100002787700547904010620110054790401062011JL014261553BR  0000010062011132384-7                000240
100002787800547905010620110054790501062011JL014261567BR  0000007062011132384-10               000241
100002787900547906010620110054790601062011JL014261575BR  0000007062011132384-11               000242
100002788000547907010620110054790701062011JL014261584BR  0000007062011132384-12               000243
100002788100547908010620110054790801062011JL014261598BR  0000007062011132384-14               000244
100002790100547909010620110054790901062011JL014261607BR  0000010062011132384-15               000245
100002790200547910010620110054791001062011JL014261615BR  0000010062011132384-19               000246
100002790300547911010620110054791101062011JL014261624BR  0000007062011132384-27               000247
100002790300548126010620110054812601062011JL014263262BR  0000007062011132384-48               000248
100002790400547912010620110054791201062011JL014261638BR  0000010062011132384-58               000249
100002790500547913010620110054791301062011JL014261641BR  0000010062011132384-61               000250
100002790600547914010620110054791401062011JL014261655BR  0000010062011132384-62               000251
100002790800547916010620110054791601062011JL014261672BR  0000010062011132384-65               000252
100002790900547917010620110054791701062011JL014261686BR  0000010062011132384-67               000253
100002791000547918010620110054791801062011JL014261690BR  0000010062011132384-70               000254
100002791100547919010620110054791901062011JL014261709BR  0000014062011132384-72               000255
100002791200547920010620110054792001062011JL014261712BR  0000010062011132384-78               000256
100002791300547921010620110054792101062011JL014261726BR  0000015062011132384-87               000257
100002791400547922010620110054792201062011JL014261730BR  0000007062011132384-93               000258
100002791500547923010620110054792301062011JL014261743BR  0000013062011132384-97               000259
100002791600547924010620110054792401062011JL014261757BR  0000014062011132384-100              000260
100002791700547925010620110054792501062011JL014261765BR  0000013062011132384-106              000261
100002791800547926010620110054792601062011JL014261774BR  0000010062011132384-110              000262
100002791900547927010620110054792701062011JL014261788BR  0000014062011132384-113              000263
100002792000547928010620110054792801062011JL014261791BR  0000010062011132384-116              000264
100002792100547929010620110054792901062011JL014261805BR  0000010062011132384-124              000265
100002792200547930010620110054793001062011JL014261814BR  0000014062011132384-125              000266
100002792300547931010620110054793101062011JL014261828BR  0000015062011132384-126              000267
100002792400547932010620110054793201062011JL014261831BR  0000010062011132384-127              000268
100002792500547933010620110054793301062011JL014261845BR  0000010062011132384-128              000269
100002792600547934010620110054793401062011JL014261859BR  0000007062011132384-129              000270
100002792700547935010620110054793501062011JL014261862BR  0000014062011132384-130              000271
100002792800547936010620110054793601062011JL014261876BR  0000010062011132384-131              000272
100002792900547937010620110054793701062011JL014261880BR  0000010062011132384-132              000273
100002793000547938010620110054793801062011JL014261893BR  0000010062011132384-134              000274
100002793100547939010620110054793901062011JL014261902BR  0000010062011132384-135              000275
100002793200547940010620110054794001062011JL014261916BR  0000010062011132384-137              000276
100002793300547941010620110054794101062011JL014261920BR  0000010062011132384-138              000277
100002793400547942010620110054794201062011JL014261933BR  0000010062011132384-139              000278
100002793500547943010620110054794301062011JL014261947BR  0000010062011132384-140              000279
100002793700547945010620110054794501062011JL014261964BR  0000013062011132384-144              000280
100002793800547946010620110054794601062011JL014261978BR  0000015062011132384-146              000281
100002793900547947010620110054794701062011JL014261981BR  0000013062011132384-149              000282
100002794000547948010620110054794801062011JL014261995BR  0000007062011132384-150              000283
100002794100547949010620110054794901062011JL014262001BR  0000010062011132535-1                000284
100002794200547950010620110054795001062011JL014262015BR  0000007062011132535-2                000285
100002794300547951010620110054795101062011JL014262029BR  0000010062011132535-3                000286
100002794400547952010620110054795201062011JL014262032BR  0000007062011132535-6                000287
100003084300635000280920110063500028092011RM948899582BR  0000521102011146248-4                000288
100003097800637614041020110063761404102011RM948923848BR  0000021102011146910-3                000289
100003103300639961051020110063996105102011RM948945605BR  0000021102011147062-21               000290
100003117500642606111020110064260611102011RM948970556BR  0000021102011147689-9                000291
100003119000642609111020110064260911102011RM948970587BR  0000021102011147689-12               000292
100003119100642610111020110064261011102011RM948970595BR  0000021102011147689-13               000293
100003119400643275131020110064327513102011RM948976810BR  0000021102011147870-2                000294
100003119600643277131020110064327713102011RM948976837BR  0000021102011147870-6                000295
100003119800643279131020110064327913102011RM948976854BR  0000021102011147870-8                000296
100003123400643290131020110064329013102011RM948976956BR  0000021102011147870-19               000297
100003123600643292131020110064329213102011RM948976973BR  0000021102011147870-24               000298
100003126100643317131020110064331713102011RM948977228BR  0000021102011147870-58               000299
100003126600644162141020110064416214102011RM948985286BR  0000021102011148072-9                000300
100003254200691273201220110069127320122011               0000000000000156150-1                000301
100003254300691274201220110069127420122011               0000000000000156150-2                000302
100003254600691277201220110069127720122011               0000000000000156150-15               000303
100003255800691278201220110069127820122011               0000000000000156150-16               000304
100003256000691280201220110069128020122011               0000000000000156150-61               000305
100003256100691281201220110069128120122011               0000000000000156150-67               000306
100003256200691282201220110069128220122011               0000000000000156150-72               000307
100003256500691285201220110069128520122011               0000000000000156150-79               000308
100003256600691286201220110069128620122011               0000000000000156150-80               000309
100003256700691287201220110069128720122011               0000000000000156150-81               000310
100003256800691288201220110069128820122011               0000000000000156150-82               000311
100003257100691291201220110069129120122011               0000000000000156150-87               000312
100003257300691293201220110069129320122011               0000000000000156150-91               000313
100003257700691297201220110069129720122011               0000000000000156150-99               000314
100003257800691298201220110069129820122011               0000000000000156179-1                000315
100003257900691299201220110069129920122011               0000000000000156179-2                000316
100003259500691301201220110069130120122011               0000000000000156180-1                000317
100003259600691302201220110069130220122011               0000000000000156180-2                000318
100003280600698509090120120069850909012012RQ049603284BR  0000017012012157660-1                000319
100003284600698514090120120069851409012012               0000000000000157660-15               000320
100003285000698518090120120069851809012012RQ049603355BR  0000017012012157660-21               000321
100003285200698520090120120069852009012012JL014617345BR  0000017012012157660-25               000322
100003286400698532090120120069853209012012RQ049603474BR  0000017012012157660-47               000323
100003286700698535090120120069853509012012               0000000000000157660-54               000324
100003287600698544090120120069854409012012               0000000000000157660-68               000325
100003288300698551090120120069855109012012RQ049603664BR  0000016012012157660-80               000326
100003288400698552090120120069855209012012RQ049603678BR  0000016012012157660-82               000327
100003288500698553090120120069855309012012RQ049603681BR  0000016012012157660-83               000328
100003288600698554090120120069855409012012RQ049603695BR  0000016012012157660-84               000329
100003288700698555090120120069855509012012RQ049603704BR  0000016012012157660-85               000330
100003288800698556090120120069855609012012RQ049603718BR  0000016012012157660-87               000331
100003288900698557090120120069855709012012RQ049603721BR  0000016012012157660-88               000332
100003289000698558090120120069855809012012RQ049603735BR  0000016012012157660-89               000333
100003289100698559090120120069855909012012RQ049603749BR  0000016012012157660-93               000334
100003289200698560090120120069856009012012RQ049603752BR  0000016012012157660-94               000335
100003289300698561090120120069856109012012RQ049603766BR  0000016012012157660-95               000336
100003289400698562090120120069856209012012RQ049603770BR  0000016012012157660-96               000337
100003289500698563090120120069856309012012RQ049603783BR  0000016012012157660-97               000338
100003289600698564090120120069856409012012RQ049603797BR  0000016012012157660-98               000339
100003289700698565090120120069856509012012RQ049603806BR  0000016012012157660-99               000340
100003289800698566090120120069856609012012RQ049603810BR  0000016012012157660-101              000341
100003289900698567090120120069856709012012RQ049603823BR  0000016012012157660-105              000342
100003290000698568090120120069856809012012RQ049603837BR  0000016012012157660-106              000343
100003290100698569090120120069856909012012RQ049603845BR  0000016012012157660-107              000344
100003290200698570090120120069857009012012RQ049603854BR  0000016012012157660-108              000345
100003290300698571090120120069857109012012RQ049603868BR  0000016012012157660-109              000346
100003290400698572090120120069857209012012RQ049603871BR  0000016012012157660-110              000347
100003290500698573090120120069857309012012RQ049603885BR  0000016012012157660-111              000348
100003290600698574090120120069857409012012RQ049603899BR  0000016012012157660-112              000349
100003290700698575090120120069857509012012RQ049603908BR  0000016012012157660-113              000350
100003290800698576090120120069857609012012RQ049603911BR  0000016012012157660-114              000351
100003290900698577090120120069857709012012RQ049603925BR  0000016012012157660-115              000352
100003291000698578090120120069857809012012RQ049603939BR  0000016012012157660-117              000353
100003291100698579090120120069857909012012RQ049603942BR  0000016012012157660-118              000354
100003291200698580090120120069858009012012RQ049603956BR  0000016012012157660-119              000355
100003291300698581090120120069858109012012RQ049603960BR  0000416012012157660-120              000356
100003291400698582090120120069858209012012RQ049603973BR  0000016012012157660-123              000357
100003291500698583090120120069858309012012RQ049603987BR  0000016012012157660-125              000358
100003291600698584090120120069858409012012RQ049603995BR  0000016012012157660-126              000359
100003291700698585090120120069858509012012RQ049604007BR  0000016012012157660-127              000360
100003291800698586090120120069858609012012RQ049604015BR  0000016012012157660-128              000361
100003291900698587090120120069858709012012RQ049604024BR  0000016012012157660-129              000362
100003292000698588090120120069858809012012RQ049604038BR  0000016012012157660-131              000363
100003292100698589090120120069858909012012RQ049604041BR  0000216012012157660-132              000364
100003292200698590090120120069859009012012RQ049604055BR  0000016012012157660-133              000365
100003292300698591090120120069859109012012RQ049604069BR  0000016012012157660-134              000366
100003292400698592090120120069859209012012RQ049604072BR  0000016012012157660-136              000367
100003292500698593090120120069859309012012RQ049604086BR  0000016012012157660-137              000368
100003292600698594090120120069859409012012RQ049604090BR  0000016012012157660-139              000369
100003292700698595090120120069859509012012RQ049604109BR  0000717012012157660-141              000370
100003292800698596090120120069859609012012RQ049604112BR  0000016012012157660-142              000371
100003292900698597090120120069859709012012RQ049604126BR  0000016012012157660-143              000372
100003293000698598090120120069859809012012RQ049604130BR  0000016012012157660-144              000373
100003293100698599090120120069859909012012RQ049604143BR  0000016012012157660-145              000374
100003293200698600090120120069860009012012RQ049604157BR  0000016012012157660-146              000375
100003293300698601090120120069860109012012RQ049604165BR  0000717012012157660-147              000376
100003293400698602090120120069860209012012RQ049604174BR  0000016012012157660-148              000377
100003293500698603090120120069860309012012RQ049604188BR  0000016012012157660-149              000378
100003293600698604090120120069860409012012RQ049604191BR  0000016012012157660-150              000379
100003293700698605090120120069860509012012RQ049604205BR  0000016012012157660-151              000380
100003293800698606090120120069860609012012RQ049604214BR  0000016012012157660-152              000381
100003293900698607090120120069860709012012RQ049604228BR  0000016012012157660-153              000382
100003294000698608090120120069860809012012RQ049604231BR  0000016012012157660-154              000383
100003294100698609090120120069860909012012RQ049604245BR  0000016012012157660-155              000384
100003294200698610090120120069861009012012RQ049604259BR  0000016012012157660-156              000385
100003294300698611090120120069861109012012RQ049604262BR  0000016012012157660-158              000386
100003294400698612090120120069861209012012RQ049604276BR  0000016012012157660-159              000387
100003294500698613090120120069861309012012RQ049604280BR  0000016012012157660-160              000388
100003294600698614090120120069861409012012RQ049604293BR  0000016012012157660-161              000389
100003294700698615090120120069861509012012RQ049604302BR  0000016012012157660-162              000390
100003294800698616090120120069861609012012RQ049604316BR  0000016012012157660-163              000391
100003294900698617090120120069861709012012RQ049604320BR  0000016012012157660-164              000392
100003295000698618090120120069861809012012RQ049604333BR  0000016012012157660-165              000393
100003295100698619090120120069861909012012RQ049604347BR  0000016012012157660-166              000394
100003295200698620090120120069862009012012RQ049604355BR  0000016012012157660-167              000395
100003295300698621090120120069862109012012RQ049604364BR  0000016012012157660-168              000396
100003295400698622090120120069862209012012RQ049604378BR  0000016012012157660-169              000397
100003295600698624090120120069862409012012RQ049604395BR  0000016012012157660-171              000398
100003295700698625090120120069862509012012RQ049604404BR  0000016012012157660-172              000399
100003295800698626090120120069862609012012RQ049604418BR  0000016012012157660-173              000400
100003295900698627090120120069862709012012JL014617359BR  0000016012012157660-174              000401
100003296000698628090120120069862809012012RQ049604421BR  0000016012012157660-175              000402
100003296100698629090120120069862909012012RQ049604435BR  0000016012012157660-176              000403
100003296200698630090120120069863009012012RQ049604449BR  0000016012012157660-177              000404
100003296300698631090120120069863109012012RQ049604452BR  0000016012012157660-179              000405
100003296400698632090120120069863209012012RQ049604466BR  0000016012012157660-180              000406
100003296500698633090120120069863309012012RQ049604470BR  0000016012012157660-181              000407
100003296600698634090120120069863409012012RQ049604483BR  0000016012012157660-183              000408
100003296700698635090120120069863509012012RQ049604497BR  0000016012012157660-184              000409
100003296800698636090120120069863609012012RQ049604506BR  0000016012012157660-185              000410
100003296900698637090120120069863709012012               0000000000000157660-187              000411
100003297000698638090120120069863809012012RQ049604523BR  0000016012012157660-188              000412
100003297100698639090120120069863909012012RQ049604537BR  0000016012012157660-189              000413
100003297200698640090120120069864009012012RQ049604545BR  0000016012012157660-190              000414
100003297300698641090120120069864109012012RQ049604554BR  0000016012012157660-191              000415
100003297400698642090120120069864209012012RQ049604568BR  0000016012012157660-192              000416
100003297500698643090120120069864309012012RQ049604571BR  0000016012012157660-193              000417
100003297600698644090120120069864409012012RQ049604585BR  0000016012012157660-194              000418
100003297700698645090120120069864509012012RQ049604599BR  0000016012012157660-195              000419
100003297800698646090120120069864609012012RQ049604608BR  0000016012012157660-196              000420
100003297900698647090120120069864709012012RQ049604611BR  0000016012012157660-197              000421
100003298000698648090120120069864809012012RQ049604625BR  0000016012012157660-199              000422
100003298100698649090120120069864909012012RQ049604639BR  0000016012012157660-200              000423
100003298200698650090120120069865009012012RQ049604642BR  0000016012012157660-201              000424
100003298300698651090120120069865109012012RQ049604656BR  0000016012012157660-202              000425
100003298400698652090120120069865209012012RQ049604660BR  0000216012012157660-203              000426
100003298500698653090120120069865309012012RQ049604673BR  0000016012012157660-204              000427
100003298600698654090120120069865409012012RQ049604687BR  0000016012012157660-205              000428
100003298700698655090120120069865509012012RQ049604695BR  0000016012012157660-206              000429
100003298800698656090120120069865609012012RQ049604700BR  0000016012012157660-207              000430
100003298900698657090120120069865709012012RQ049604713BR  0000016012012157660-208              000431
100003299000698658090120120069865809012012RQ049604727BR  0000516012012157660-209              000432
100003299100698659090120120069865909012012RQ049604735BR  0000016012012157660-210              000433
100003299200698660090120120069866009012012RQ049604744BR  0000016012012157660-211              000434
100003299300698661090120120069866109012012RQ049604758BR  0000016012012157660-212              000435
100003299400698662090120120069866209012012RQ049604761BR  0000016012012157660-213              000436
100003299500698663090120120069866309012012RQ049604775BR  0000016012012157660-214              000437
100003299600698664090120120069866409012012RQ049604789BR  0000016012012157660-215              000438
100003299700698665090120120069866509012012RQ049604792BR  0000016012012157660-216              000439
100003299800698666090120120069866609012012RQ049604801BR  0000016012012157660-217              000440
100003299900698667090120120069866709012012RQ049604815BR  0000016012012157660-219              000441
100003300000698668090120120069866809012012RQ049604829BR  0000016012012157660-220              000442
100003300100698669090120120069866909012012RQ049604832BR  0000016012012157660-221              000443
100003300200698670090120120069867009012012RQ049604846BR  0000016012012157660-222              000444
100003300300698671090120120069867109012012RQ049604850BR  0000016012012157660-223              000445
100003300500698673090120120069867309012012RQ049604877BR  0000016012012157660-225              000446
100003300600698674090120120069867409012012RQ049604885BR  0000016012012157660-226              000447
100003300700698675090120120069867509012012RQ049604894BR  0000016012012157660-227              000448
100003300800698676090120120069867609012012RQ049604903BR  0000016012012157660-228              000449
100003300900698677090120120069867709012012RQ049604917BR  0000016012012157660-229              000450
100003301000698678090120120069867809012012RQ049604925BR  0000016012012157660-230              000451
100003301100698679090120120069867909012012RQ049604934BR  0000016012012157660-231              000452
100003301200698680090120120069868009012012RQ049604948BR  0000016012012157660-232              000453
100003301300698681090120120069868109012012RQ049604951BR  0000016012012157660-233              000454
100003301400698682090120120069868209012012RQ049604965BR  0000016012012157660-234              000455
100003301500698683090120120069868309012012RQ049604979BR  0000016012012157660-235              000456
100003301600698684090120120069868409012012               0000000000000157660-236              000457
100003301700698685090120120069868509012012RQ049604996BR  0000016012012157660-237              000458
100003301800698686090120120069868609012012RQ049605002BR  0000016012012157660-238              000459
100003301900698687090120120069868709012012RQ049605016BR  0000016012012157660-239              000460
100003302000698688090120120069868809012012RQ049605020BR  0000016012012157660-240              000461
100003302100698689090120120069868909012012RQ049605033BR  0000016012012157660-241              000462
100003302200698690090120120069869009012012RQ049605047BR  0000016012012157660-242              000463
100003302300698691090120120069869109012012RQ049605055BR  0000016012012157660-243              000464
100003302400698692090120120069869209012012RQ049605064BR  0000016012012157660-244              000465
100003302500698693090120120069869309012012RQ049605078BR  0000016012012157660-245              000466
100003302600698694090120120069869409012012RQ049605081BR  0000016012012157660-246              000467
100003302700698695090120120069869509012012RQ049605095BR  0000016012012157660-247              000468
100003302800698696090120120069869609012012RQ049605104BR  0000016012012157660-248              000469
100003302900698697090120120069869709012012RQ049605118BR  0000016012012157660-249              000470
100003303000698698090120120069869809012012RQ049605121BR  0000016012012157660-250              000471
100003303100698699090120120069869909012012RQ049605135BR  0000016012012157660-251              000472
100003303200698700090120120069870009012012RQ049605149BR  0000216012012157660-252              000473
100003303300698701090120120069870109012012RQ049605152BR  0000016012012157660-253              000474
100003303400698702090120120069870209012012RQ049605166BR  0000016012012157660-254              000475
100003303500698703090120120069870309012012RQ049605170BR  0000016012012157660-255              000476
100003303600698704090120120069870409012012RQ049605183BR  0000216012012157660-256              000477
100003303700698705090120120069870509012012RQ049605197BR  0000016012012157660-257              000478
100003303800698706090120120069870609012012RQ049605206BR  0000016012012157660-258              000479
100003303900698707090120120069870709012012RQ049605210BR  0000016012012157660-259              000480
100003304000698708090120120069870809012012RQ049605223BR  0000016012012157660-260              000481
100003304100698709090120120069870909012012RQ049605237BR  0000016012012157660-261              000482
100003304200698710090120120069871009012012RQ049605245BR  0000016012012157660-262              000483
100003304300698711090120120069871109012012RQ049605254BR  0000016012012157660-263              000484
100003304400698712090120120069871209012012RQ049605268BR  0000016012012157660-264              000485
100003304500698713090120120069871309012012RQ049605271BR  0000016012012157660-265              000486
100003304600698714090120120069871409012012RQ049605285BR  0000016012012157660-266              000487
100003304700698715090120120069871509012012RQ049605299BR  0000016012012157660-267              000488
100003304800698716090120120069871609012012RQ049605308BR  0000016012012157660-268              000489
100003304900698717090120120069871709012012RQ049605311BR  0000016012012157660-269              000490
100003305000698718090120120069871809012012RQ049605325BR  0000016012012157660-270              000491
100003305100698719090120120069871909012012RQ049605339BR  0000016012012157660-271              000492
100003305200698720090120120069872009012012RQ049605342BR  0000016012012157660-272              000493
100003305300698721090120120069872109012012RQ049605356BR  0000717012012157660-273              000494
100003305400698722090120120069872209012012RQ049605360BR  0000016012012157660-274              000495
100003305500698723090120120069872309012012RQ049605373BR  0000016012012157660-275              000496
100003305600698724090120120069872409012012RQ049605387BR  0000016012012157660-276              000497
100003305700698725090120120069872509012012RQ049605395BR  0000016012012157660-277              000498
100003305800698726090120120069872609012012RQ049605400BR  0000016012012157660-278              000499
100003305900698727090120120069872709012012RQ049605413BR  0000016012012157660-279              000500
100003306000698728090120120069872809012012RQ049605427BR  0000016012012157660-280              000501
100003306100698729090120120069872909012012RQ049605435BR  0000017012012157660-281              000502
100003306200698730090120120069873009012012RQ049605444BR  0000016012012157660-282              000503
100003306300698731090120120069873109012012RQ049605458BR  0000016012012157660-283              000504
100003306400698732090120120069873209012012RQ049605461BR  0000016012012157660-284              000505
100003306500698733090120120069873309012012RQ049605475BR  0000017012012157660-285              000506
100003306600698734090120120069873409012012RQ049605489BR  0000016012012157660-286              000507
100003306700698735090120120069873509012012RQ049605492BR  0000016012012157660-287              000508
100003306800698736090120120069873609012012RQ049605501BR  0000016012012157660-288              000509
100003306900698737090120120069873709012012RQ049605515BR  0000516012012157660-289              000510
100003307000698738090120120069873809012012RQ049605529BR  0000016012012157660-290              000511
100003307100698739090120120069873909012012RQ049605532BR  0000016012012157660-291              000512
100003307200698740090120120069874009012012RQ049605546BR  0000016012012157660-292              000513
100003307300698741090120120069874109012012RQ049605550BR  0000016012012157660-293              000514
100003307400698742090120120069874209012012RQ049605563BR  0000016012012157660-294              000515
100003307500698743090120120069874309012012RQ049605577BR  0000016012012157660-295              000516
100003307600698744090120120069874409012012RQ049605585BR  0000016012012157660-296              000517
100003307700698745090120120069874509012012RQ049605594BR  0000016012012157660-297              000518
100003307800698746090120120069874609012012RQ049605603BR  0000016012012157660-298              000519
100003307900698747090120120069874709012012RQ049605617BR  0000016012012157660-299              000520
100003308000698748090120120069874809012012RQ049605625BR  0000016012012157660-300              000521
100003308100698749090120120069874909012012RQ049605634BR  0000016012012157660-301              000522
100003308200698750090120120069875009012012RQ049605648BR  0000016012012157660-302              000523
100003308300698751090120120069875109012012RQ049605651BR  0000016012012157660-303              000524
100003308400698752090120120069875209012012RQ049605665BR  0000916012012157660-305              000525
100003308500698753090120120069875309012012JL014617362BR  0000017012012157660-306              000526
100003308600698754090120120069875409012012RQ049605679BR  0000017012012157660-309              000527
100003308700698755090120120069875509012012RQ049605682BR  0000016012012157660-310              000528
100003308800698756090120120069875609012012RQ049605696BR  0000016012012157660-311              000529
100003308900698757090120120069875709012012RQ049605705BR  0000016012012157660-312              000530
100003309000698758090120120069875809012012RQ049605719BR  0000016012012157660-313              000531
100003309100698759090120120069875909012012RQ049605722BR  0000016012012157660-314              000532
100003309200698760090120120069876009012012RQ049605736BR  0000016012012157660-315              000533
100003309300698761090120120069876109012012RQ049605740BR  0000016012012157660-316              000534
100003309400698762090120120069876209012012RQ049605753BR  0000016012012157660-317              000535
100003309500698763090120120069876309012012RQ049605767BR  0000016012012157660-318              000536
100003309700698765090120120069876509012012RQ049605784BR  0000016012012157660-321              000537
100003310100698769090120120069876909012012RQ049605824BR  0000416012012157660-326              000538
100003310200698770090120120069877009012012RQ049605838BR  0000016012012157660-327              000539
100003310300698771090120120069877109012012RQ049605841BR  0000416012012157660-328              000540
100003310400698772090120120069877209012012RQ049605855BR  0000016012012157670-1                000541
100003313200703362110120120070336211012012RQ049647492BR  0000017012012157995-21               000542
100003313300703363110120120070336311012012RQ049647501BR  0000017012012157995-22               000543
100003313400703364110120120070336411012012RQ049647515BR  0000017012012157995-23               000544
100003313500703365110120120070336511012012RQ049647529BR  0000017012012157995-24               000545
100003313800703368110120120070336811012012RQ049647550BR  0000017012012157995-27               000546
100003314400703369110120120070336911012012RQ049647563BR  0000016012012157998-1                000547
100003314600703371110120120070337111012012RQ049647585BR  0000017012012157998-3                000548
100003314700703372110120120070337211012012RQ049647594BR  0000017012012157998-4                000549
100003314800703373110120120070337311012012RQ049647603BR  0000016012012157998-5                000550
100003314900703374110120120070337411012012RQ049647617BR  0000016012012157998-6                000551
100003315000703375110120120070337511012012RQ049647625BR  0000017012012157998-8                000552
100003315900703399110120120070339911012012               0000000000000158007-23               000553
100003317600703407110120120070340711012012RQ049647943BR  0000016012012158007-39               000554
100003317700703408110120120070340811012012RQ049647957BR  0000016012012158007-40               000555
100003317900703410110120120070341011012012RQ049647974BR  0000016012012158009-2                000556
100003323500704114120120120070411412012012RQ049655009BR  0000017012012158228-10               000557
100003323600704115120120120070411512012012               0000000000000158228-12               000558
100003324900705290160120120070529016012012               0000000000000158713-1                000559
100003325100705292160120120070529216012012               0000000000000158713-6                000560
100003325200705293160120120070529316012012               0000000000000158713-7                000561
100003328400707401190120120070740119012012               0000000000000158716-4                000562
100003328500707402190120120070740219012012               0000000000000158716-5                000563
100003329500707403190120120070740319012012               0000000000000158942-1                000564
100003329600707404190120120070740419012012               0000000000000158942-10               000565
100003331500707408190120120070740819012012               0000000000000159380-4                000566
100003331700707410190120120070741019012012               0000000000000159380-8                000567
100003333600707416190120120070741619012012               0000000000000159382-6                000568
100003333700707417190120120070741719012012               0000000000000159382-8                000569
100003333800707418190120120070741819012012               0000000000000159382-9                000570
100003335100707929230120120070792923012012               0000000000000159618-8                000571
100003344100710793310120120071079331012012               0000000000000160681-2                000572
100003344200710794310120120071079431012012               0000000000000160681-3                000573
100003344400710796310120120071079631012012               0000000000000160682-2                000574
100003344500710797310120120071079731012012               0000000000000160682-3                000575
100003346700710800310120120071080031012012               0000000000000160683-3                000576
100003346800710801310120120071080131012012               0000000000000160683-4                000577
100003346900710802310120120071080231012012               0000000000000160683-8                000578
100003354400712235020220120071223502022012               0000000000000161587-2                000579
100003354500712236020220120071223602022012               0000000000000161587-5                000580
100003354600712237020220120071223702022012               0000000000000161587-6                000581
100003357000713764030220120071376403022012               0000000000000161835-3                000582
100003360700713768030220120071376803022012               0000000000000161835-8                000583
100003360800713769030220120071376903022012               0000000000000161835-10               000584
100003361000713771030220120071377103022012               0000000000000161835-17               000585
100003361200713773030220120071377303022012               0000000000000161835-27               000586
100003361700713778030220120071377803022012               0000000000000161835-32               000587
100003361900713780030220120071378003022012               0000000000000161835-34               000588
100003362000713781030220120071378103022012               0000000000000161835-36               000589
100003362200713783030220120071378303022012               0000000000000161835-42               000590
100003362300713784030220120071378403022012               0000000000000161835-45               000591
100003362900714290070220120071429007022012               0000000000000162034-5                000592
100003365800714293070220120071429307022012               0000000000000162034-11               000593
100003370900715963100220120071596310022012               0000000000000162775-1                000594
100003371000715964100220120071596410022012               0000000000000162775-2                000595
100003371100715965100220120071596510022012               0000000000000162775-7                000596
100003373200715968100220120071596810022012               0000000000000162777-2                000597
100003373300715969100220120071596910022012               0000000000000162777-3                000598
100003375300716440130220120071644013022012               0000000000000162995-1                000599
100003375500716442130220120071644213022012               0000000000000162995-3                000600
100003375600716443130220120071644313022012               0000000000000162995-4                000601
100003375700716444130220120071644413022012               0000000000000162995-16               000602
100003375800716445130220120071644513022012               0000000000000162995-17               000603
100003378400717326140220120071732614022012               0000000000000163400-1                000604
100003378600717328140220120071732814022012               0000000000000163400-3                000605
100003380500717337140220120071733714022012               0000000000000163408-7                000606
100003380600717338140220120071733814022012               0000000000000163408-8                000607
100003380900717341140220120071734114022012               0000000000000163408-11               000608
100003381000717342140220120071734214022012               0000000000000163408-12               000609
100003381100717343140220120071734314022012               0000000000000163408-13               000610
100003381200717344140220120071734414022012               0000000000000163408-14               000611
100003381300717345140220120071734514022012               0000000000000163408-16               000612
100003390400722626270220120072262627022012               0000000000000164224-1                000613
100003390500722627270220120072262727022012               0000000000000164224-10               000614
100003390600722628270220120072262827022012               0000000000000164224-12               000615
100003392400722629270220120072262927022012               0000000000000164225-1                000616
100003392500722630270220120072263027022012               0000000000000164225-2                000617
100003392600722631270220120072263127022012               0000000000000164225-3                000618
100003392700722632270220120072263227022012               0000000000000164225-4                000619
100003392800722633270220120072263327022012               0000000000000164225-8                000620
100003395200722634270220120072263427022012               0000000000000164227-1                000621
100003395400722636270220120072263627022012               0000000000000164227-4                000622
100003395600722638270220120072263827022012               0000000000000164227-6                000623
100003395700722639270220120072263927022012               0000000000000164227-7                000624
100003398200723285280220120072328528022012               0000000000000164361-9                000625
100003399100723959290220120072395929022012               0000000000000164559-5                000626
100003404400723967290220120072396729022012               0000000000000164707-6                000627
100003407000724397010320120072439701032012               0000000000000164909-1                000628
100003407300724400010320120072440001032012               0000000000000164909-4                000629
100003408400726685060320120072668506032012               0000000000000165127-1                000630
100003410400726686060320120072668606032012               0000000000000165133-1                000631
100003410500726687060320120072668706032012               0000000000000165133-2                000632
100003410800726690060320120072669006032012               0000000000000165133-5                000633
100003414200726691060320120072669106032012               0000000000000165411-1                000634
100003414300726692060320120072669206032012               0000000000000165411-2                000635
100003414400726693060320120072669306032012               0000000000000165411-5                000636
100003414500726694060320120072669406032012               0000000000000165411-6                000637
100003414600726695060320120072669506032012               0000000000000165411-8                000638
100003414700726696060320120072669606032012               0000000000000165411-9                000639
100003417100726866060320120072686606032012               0000000000000165545-1                000640
100003420600728930090320120072893009032012               0000000000000166011-9                000641
100003423300728940090320120072894009032012               0000000000000166011-64               000642
100003423700730938140320120073093814032012RJ341897121BR  0000020032012166288-1                000643
100003425700730939140320120073093914032012RJ341897135BR  0000520032012166288-2                000644
100003425900730941140320120073094114032012RJ341897152BR  0000020032012166288-4                000645
100003426000730942140320120073094214032012RJ341897166BR  0000020032012166288-7                000646
100003426400730951140320120073095114032012RJ341897254BR  0000020032012166293-11               000647
100003426500730952140320120073095214032012RJ341897268BR  0000020032012166293-12               000648
100003426600730953140320120073095314032012RJ341897271BR  0000019032012166293-13               000649
100003430900731489150320120073148915032012RJ341902657BR  0000019032012166719-5                000650
100003454000739853290320120073985329032012               0000000000000168693-1                000651
100003454100739854290320120073985429032012               0000000000000168693-2                000652
100003456100742241300320120074224130032012               0000000000000168895-2                000653
100003456500742245300320120074224530032012               0000000000000168895-6                000654
100003456700742247300320120074224730032012               0000000000000168895-8                000655
100003458700743891020420120074389102042012               0000000000000169112-14               000656
100003473100747714110420120074771411042012FR851898403BR  0000024042012170226-11               000657
100003481000750955190420120075095519042012FR851930713BR  0000024042012171320-7                000658
100003482800751542190420120075154219042012FR851936438BR  0000024042012171365-2                000659
100003486900751928200420120075192820042012FR851940295BR  0000024042012171500-4                000660
100003488700752638240420120075263824042012               0000000000000171808-5                000661
100003491000752652240420120075265224042012               0000000000000171808-40               000662
100003504300756641020520120075664102052012FR851987341BR  0000014052012172350-5                000663
100003504400756642020520120075664202052012FR851987355BR  0000008052012172350-6                000664
100003504500756643020520120075664302052012FR851987369BR  0000008052012172350-7                000665
100003506700756649020520120075664902052012FR851987426BR  0000008052012172732-2                000666
100003506800756650020520120075665002052012FR851987430BR  0000008052012172732-3                000667
100003506900756651020520120075665102052012FR851987443BR  0000008052012172732-5                000668
100003509300756660020520120075666002052012FR851987531BR  0000008052012172734-9                000669
100003509400756661020520120075666102052012FR851987545BR  0000009052012172734-10               000670
100003509500756662020520120075666202052012FR851987559BR  0000008052012172734-11               000671
100003509600756663020520120075666302052012FR851987562BR  0000009052012172734-12               000672
100003512000759779070520120075977907052012FR852018763BR  0000014052012173265-1                000673
100003512100759780070520120075978007052012               0000000000000173265-2                000674
100003512200759781070520120075978107052012               0000000000000173265-3                000675
100003515200759782070520120075978207052012FR852018794BR  0000016052012173266-1                000676
100003515300759783070520120075978307052012FR852018803BR  0000014052012173266-2                000677
100003515400759784070520120075978407052012FR852018817BR  0000014052012173266-4                000678
100003515500759785070520120075978507052012               0000000000000173266-5                000679
100003515600759786070520120075978607052012FR852018834BR  0000014052012173266-6                000680
100003517100759791070520120075979107052012FR852018882BR  0000814052012173273-3                000681
100003517200759792070520120075979207052012               0000000000000173273-4                000682
100003517300759793070520120075979307052012FR852018905BR  0000014052012173273-5                000683
100003517400759794070520120075979407052012               0000000000000173273-6                000684
100003517500759795070520120075979507052012               0000000000000173273-7                000685
100003517600759796070520120075979607052012               0000000000000173273-8                000686
100003517700759797070520120075979707052012FR852018940BR  0000015052012173273-10               000687
100003517800759798070520120075979807052012FR852018953BR  0000014052012173273-11               000688
100003517900759799070520120075979907052012               0000000000000173273-12               000689
100003519200760411090520120076041109052012FR852025027BR  0001222052012173677-1                000690
100003519300760412090520120076041209052012               0000000000000173677-2                000691
100003519400760413090520120076041309052012FR852025044BR  0000015052012173677-4                000692
100003519500760414090520120076041409052012FR852025058BR  0000015052012173677-5                000693
100003519600760415090520120076041509052012               0000000000000173677-6                000694
100003521100761083100520120076108310052012FR852031739BR  0000015052012174052-1                000695
100003521200761084100520120076108410052012               0000000000000174052-2                000696
100003521300761085100520120076108510052012FR852031756BR  0000022052012174052-3                000697
100003521400761086100520120076108610052012FR852031760BR  0000022052012174052-4                000698
100003521500761087100520120076108710052012FR852031773BR  0000014052012174052-5                000699
100003521600761088100520120076108810052012FR852031787BR  0000016052012174052-8                000700
100003521700761089100520120076108910052012FR852031795BR  0000015052012174052-9                000701
100003521800761090100520120076109010052012FR852031800BR  0000014052012174052-10               000702
100003523800761093100520120076109310052012               0000000000000174071-1                000703
100003523900761094100520120076109410052012FR852031844BR  0000016052012174071-5                000704
100003528100761100100520120076110010052012FR852031901BR  0000016052012174212-5                000705
100003528200761101100520120076110110052012FR852031915BR  0000515052012174212-6                000706
100003528300761102100520120076110210052012FR852031929BR  0000016052012174212-7                000707
100003528400761103100520120076110310052012FR852031932BR  0000016052012174212-8                000708
100003531200762175140520120076217514052012FR852042643BR  0000025052012174510-1                000709
100003531300762176140520120076217614052012               0000000000000174510-2                000710
100003531400762177140520120076217714052012FR852042665BR  0000022052012174510-3                000711
100003531500762178140520120076217814052012FR852042674BR  0000022052012174510-4                000712
9000711                                                                                       000713
