0RETORNONOTIFICAÇÃO ELETRONICA        01112011REGI                                            000001
100003155300653127311020110065312731102011               0000000000000149815-1                000002
100003155400653128311020110065312831102011               0000000000000149815-2                000003
100003157900653129311020110065312931102011               0000000000000149816-2                000004
100003158000653130311020110065313031102011               0000000000000149816-3                000005
100003158100653131311020110065313131102011               0000000000000149816-5                000006
100003158200653132311020110065313231102011               0000000000000149816-7                000007
100003158300653133311020110065313331102011               0000000000000149816-8                000008
100003159700653134311020110065313431102011               0000000000000149816-9                000009
100003159800653135311020110065313531102011               0000000000000149816-10               000010
100003159900653136311020110065313631102011               0000000000000149816-11               000011
9000010                                                                                       000012
