0RETORNONOTIFICAÇÃO ELETRONICA        12082010REGI                                            000001
100002236700316617110820100031661711082010               0000000000000101793-1                000002
100002236800316618110820100031661811082010               0000000000000101793-4                000003
100002236900316619110820100031661911082010               0000000000000101793-5                000004
100002237000316620110820100031662011082010               0000000000000101793-8                000005
100002237100316621110820100031662111082010               0000000000000101793-9                000006
100002237200316622110820100031662211082010               0000000000000101793-10               000007
100002239600316623110820100031662311082010               0000000000000101794-1                000008
100002239700316624110820100031662411082010               0000000000000101794-2                000009
100002239800316625110820100031662511082010               0000000000000101794-3                000010
100002239900316626110820100031662611082010               0000000000000101794-4                000011
100002240000316627110820100031662711082010               0000000000000101794-5                000012
100002240100316628110820100031662811082010               0000000000000101794-7                000013
100002240200316629110820100031662911082010               0000000000000101794-8                000014
100002240300316630110820100031663011082010               0000000000000101794-9                000015
100002240400316631110820100031663111082010               0000000000000101794-10               000016
100002241200316632110820100031663211082010               0000000000000101795-1                000017
100002242000316633110820100031663311082010               0000000000000101795-2                000018
100002242100316634110820100031663411082010               0000000000000101795-3                000019
100002242200316635110820100031663511082010               0000000000000101795-4                000020
100002242300316636110820100031663611082010               0000000000000101795-5                000021
100002242400316637110820100031663711082010               0000000000000101795-7                000022
100002242500316638110820100031663811082010               0000000000000101795-9                000023
100002242700316639110820100031663911082010               0000000000000101795-10               000024
100002245300316640110820100031664011082010               0000000000000101795-11               000025
100002245400316641110820100031664111082010               0000000000000101795-12               000026
100002253000316642110820100031664211082010               0000000000000102383-1                000027
100002255500316643110820100031664311082010               0000000000000102383-2                000028
100002255600316644110820100031664411082010               0000000000000102383-3                000029
100002255700316645110820100031664511082010               0000000000000102383-4                000030
100002255800316646110820100031664611082010               0000000000000102383-6                000031
100002325000316647110820100031664711082010               0000000000000106041-1                000032
100002325100316648110820100031664811082010               0000000000000106041-6                000033
100002325200316649110820100031664911082010               0000000000000106041-8                000034
100002325300316650110820100031665011082010               0000000000000106041-9                000035
100002328200316651110820100031665111082010               0000000000000106165-1                000036
100002328300316652110820100031665211082010               0000000000000106165-2                000037
100002328400316653110820100031665311082010               0000000000000106165-3                000038
100002328500316654110820100031665411082010               0000000000000106165-4                000039
100002331700316655110820100031665511082010               0000000000000106165-6                000040
100002331800316656110820100031665611082010               0000000000000106165-7                000041
100002332000316657110820100031665711082010               0000000000000106165-8                000042
100002332100316658110820100031665811082010               0000000000000106165-35               000043
100002351000316659110820100031665911082010               0000000000000107563-1                000044
100002351100316660110820100031666011082010               0000000000000107563-2                000045
100002351200316661110820100031666111082010               0000000000000107563-3                000046
100002346100316662110820100031666211082010               0000000000000107695-1                000047
100002347900316663110820100031666311082010               0000000000000107695-2                000048
100002349000316664110820100031666411082010               0000000000000107695-3                000049
100002352700316665110820100031666511082010               0000000000000107695-4                000050
100002352800316666110820100031666611082010               0000000000000107695-5                000051
100002352900316667110820100031666711082010               0000000000000107695-7                000052
100002355600316851110820100031685111082010               0000000000000107695-8                000053
100002355700316669110820100031666911082010               0000000000000107695-42               000054
100002355700316852110820100031685211082010               0000000000000107695-55               000055
100002355800316609110820100031660911082010               0000000000000107842-1                000056
100002355900316610110820100031661011082010               0000000000000107842-11               000057
100002356000316611110820100031661111082010               0000000000000107842-12               000058
100002356100316612110820100031661211082010               0000000000000107842-13               000059
100002356200316613110820100031661311082010               0000000000000107842-14               000060
100002356300316614110820100031661411082010               0000000000000107842-15               000061
100002356400316615110820100031661511082010               0000000000000107842-16               000062
100002356500316616110820100031661611082010               0000000000000107842-17               000063
100002356600316670110820100031667011082010               0000000000000107951-1                000064
100002356700316671110820100031667111082010               0000000000000107951-2                000065
100002356800316672110820100031667211082010               0000000000000107951-3                000066
100002356900316673110820100031667311082010               0000000000000107951-4                000067
100002357000316674110820100031667411082010               0000000000000107951-5                000068
100002351600316675110820100031667511082010               0000000000000108209-1                000069
100002351900316676110820100031667611082010               0000000000000108209-2                000070
100002354900316677110820100031667711082010               0000000000000108209-3                000071
100002355200316678110820100031667811082010               0000000000000108209-4                000072
100002360200316679110820100031667911082010               0000000000000108209-5                000073
100002362600316680110820100031668011082010               0000000000000108209-6                000074
100002362700316681110820100031668111082010               0000000000000108209-8                000075
100002362800316682110820100031668211082010               0000000000000108209-9                000076
100002362900316683110820100031668311082010               0000000000000108209-10               000077
100002363000316684110820100031668411082010               0000000000000108209-12               000078
100002358500316685110820100031668511082010               0000000000000108211-1                000079
100002358600316686110820100031668611082010               0000000000000108211-2                000080
100002358700316687110820100031668711082010               0000000000000108211-3                000081
100002360400316688110820100031668811082010               0000000000000108211-4                000082
9000081                                                                                       000083
