0RETORNONOTIFICAÇÃO ELETRONICA        19102011REGI                                            000001
100003113600646839181020110064683918102011               0000000000000148201-1                000002
100003115000646840181020110064684018102011               0000000000000148201-2                000003
100003116400646841181020110064684118102011               0000000000000148201-3                000004
100003116500646842181020110064684218102011               0000000000000148201-4                000005
100003116600646843181020110064684318102011               0000000000000148201-5                000006
100003121200646844181020110064684418102011               0000000000000148201-6                000007
100003121300646845181020110064684518102011               0000000000000148201-7                000008
100003121400646846181020110064684618102011               0000000000000148201-8                000009
100003121500646847181020110064684718102011               0000000000000148201-9                000010
100003129300646848181020110064684818102011               0000000000000148201-10               000011
100003129400646849181020110064684918102011               0000000000000148201-11               000012
100003129500646850181020110064685018102011               0000000000000148201-12               000013
100003129600646851181020110064685118102011               0000000000000148201-13               000014
100003131400646852181020110064685218102011               0000000000000148201-14               000015
100003131500646853181020110064685318102011               0000000000000148201-20               000016
100003131600646854181020110064685418102011               0000000000000148201-26               000017
100003131700646855181020110064685518102011               0000000000000148201-30               000018
100003131800646856181020110064685618102011               0000000000000148201-33               000019
100003131900646857181020110064685718102011               0000000000000148201-34               000020
100003132000646858181020110064685818102011               0000000000000148201-41               000021
100003132100646859181020110064685918102011               0000000000000148201-43               000022
100003132200646860181020110064686018102011               0000000000000148201-46               000023
9000022                                                                                       000024
