0RETORNONOTIFICAÇÃO ELETRONICA        12042012REGI                                            000001
100003469900747704110420120074770411042012               0000000000000170226-1                000002
100003471200747705110420120074770511042012               0000000000000170226-2                000003
100003471300747706110420120074770611042012               0000000000000170226-3                000004
100003471400747707110420120074770711042012               0000000000000170226-4                000005
100003471500747708110420120074770811042012               0000000000000170226-5                000006
100003472600747709110420120074770911042012               0000000000000170226-6                000007
100003472700747710110420120074771011042012               0000000000000170226-7                000008
100003472800747711110420120074771111042012               0000000000000170226-8                000009
100003472900747712110420120074771211042012               0000000000000170226-9                000010
100003473000747713110420120074771311042012               0000000000000170226-10               000011
100003473100747714110420120074771411042012               0000000000000170226-11               000012
9000011                                                                                       000013
