0RETORNONOTIFICAÇÃO ELETRONICA        26082013REGI                                            000001
100004361801018373220820130101837322082013               0000000000000253012-1                000002
100004362101018374220820130101837422082013               0000000000000253012-2                000003
100004362201018375220820130101837522082013               0000000000000253012-3                000004
100004362301018376220820130101837622082013               0000000000000253012-4                000005
100004361901018377220820130101837722082013               0000000000000253012-5                000006
100004362001018378220820130101837822082013               0000000000000253012-6                000007
100004364201018379220820130101837922082013               0000000000000253027-1                000008
100004364101018380220820130101838022082013               0000000000000253027-4                000009
100004364301018381220820130101838122082013               0000000000000253027-5                000010
100004364001018382220820130101838222082013               0000000000000253027-6                000011
100004360801018383220820130101838322082013               0000000000000253027-7                000012
100004365401018384220820130101838422082013               0000000000000253027-8                000013
100004365301018385220820130101838522082013               0000000000000253027-9                000014
100004364701018386220820130101838622082013               0000000000000253027-10               000015
100004364801018387220820130101838722082013               0000000000000253027-11               000016
100004367701018388220820130101838822082013               0000000000000253034-1                000017
100004366201018389220820130101838922082013               0000000000000253034-2                000018
100004366301018390220820130101839022082013               0000000000000253034-3                000019
100004366501018391220820130101839122082013               0000000000000253034-5                000020
100004366401018392220820130101839222082013               0000000000000253034-8                000021
100004366101018393220820130101839322082013               0000000000000253034-11               000022
9000021                                                                                       000023
