0RETORNONOTIFICAÇÃO ELETRONICA        10062014REGI                                            000001
100004772201237881030620140123788103062014FA271297715BR  0000006062014303248-1                000002
100004772301237882030620140123788203062014               0000000000000303248-2                000003
100004772401237883030620140123788303062014               0000000000000303248-3                000004
100004772501237884030620140123788403062014               0000000000000303248-4                000005
100004773601237885030620140123788503062014FA271297755BR  0000009062014303529-1                000006
100004773701237886030620140123788603062014               0000000000000303529-2                000007
100004773801237887030620140123788703062014FA271297772BR  0000006062014303529-4                000008
100004773901237888030620140123788803062014FA271297786BR  0000009062014303529-5                000009
100004775601237889030620140123788903062014               0000000000000303529-10               000010
100004775701237890030620140123789003062014FA271297809BR  0000009062014303529-14               000011
100004775801240825050620140124082505062014FA282972969BR  0000009062014303951-1                000012
100004775901240826050620140124082605062014               0000000000000303951-2                000013
100004776001240827050620140124082705062014               0000000000000303951-4                000014
100004776101240828050620140124082805062014FA282972990BR  0000109062014303951-5                000015
100004776201240829050620140124082905062014FA282973006BR  0000009062014303951-6                000016
100004776301240830050620140124083005062014               0000000000000303951-8                000017
100004776401240831050620140124083105062014               0000000000000303951-9                000018
100004776501240832050620140124083205062014FA282973037BR  0000009062014303951-10               000019
100004776601240833050620140124083305062014               0000000000000303951-11               000020
100004778201240834050620140124083405062014               0000000000000303951-13               000021
100004778301240835050620140124083505062014               0000000000000303951-16               000022
100004778401240836050620140124083605062014               0000000000000303951-25               000023
9000022                                                                                       000024
