0RETORNONOTIFICAÇÃO ELETRONICA        29102014REGI                                            000001
100004993101356632231020140135663223102014               0000000000000329073-1                000002
100004993201356633231020140135663323102014               0000000000000329073-2                000003
100004993301356634231020140135663423102014               0000000000000329073-3                000004
100004993401356635231020140135663523102014               0000000000000329073-4                000005
100004993501356636231020140135663623102014               0000000000000329073-5                000006
100004993801356637231020140135663723102014               0000000000000329162-1                000007
100004993901356638231020140135663823102014               0000000000000329162-2                000008
100004994001356639231020140135663923102014               0000000000000329162-12               000009
100004994101356640231020140135664023102014               0000000000000329162-13               000010
100004994301356641231020140135664123102014               0000000000000329162-18               000011
9000010                                                                                       000012
