0RETORNONOTIFICAÇÃO ELETRONICA        18112013REGI                                            000001
100004508301074916111120130107491611112013               0000000000000267443-1                000002
100004508401074917111120130107491711112013               0000000000000267443-2                000003
100004508101074918111120130107491811112013               0000000000000267443-3                000004
100004508201074919111120130107491911112013FA188068776BR  0000014112013267443-4                000005
100004508801074920111120130107492011112013               0000000000000267443-5                000006
100004508901074921111120130107492111112013               0000000000000267443-6                000007
100004508701074922111120130107492211112013               0000000000000267443-7                000008
100004509001074923111120130107492311112013               0000000000000267443-8                000009
100004509101074924111120130107492411112013FA188068820BR  0000014112013267443-9                000010
100004508001074925111120130107492511112013               0000000000000267443-10               000011
100004508601074926111120130107492611112013               0000000000000267443-11               000012
100004508501074927111120130107492711112013               0000000000000267443-12               000013
100004511001074928111120130107492811112013FA188068864BR  0000113112013267696-1                000014
100004512801074929111120130107492911112013               0000000000000267918-1                000015
100004513001074930111120130107493011112013FA188068881BR  0000014112013267918-2                000016
100004512901074931111120130107493111112013               0000000000000267918-3                000017
100004512601074932111120130107493211112013               0000000000000267918-5                000018
100004512701074933111120130107493311112013               0000000000000267918-6                000019
100004513201074934111120130107493411112013               0000000000000267918-7                000020
100004513101074935111120130107493511112013FA188068935BR  0000014112013267918-9                000021
100004515101075749121120130107574912112013               0000000000000268259-1                000022
100004515001075750121120130107575012112013               0000000000000268259-2                000023
100004515201075751121120130107575112112013               0000000000000268259-3                000024
100004514801075752121120130107575212112013               0000000000000268259-4                000025
100004514901075753121120130107575312112013               0000000000000268259-5                000026
100004516701077846141120130107784614112013               0000000000000268645-1                000027
100004516901077847141120130107784714112013               0000000000000268645-2                000028
100004516801077848141120130107784814112013               0000000000000268645-3                000029
100004517001077849141120130107784914112013               0000000000000268645-4                000030
100004517101077850141120130107785014112013               0000000000000268645-5                000031
100004506701077851141120130107785114112013               0000000000000268645-6                000032
100004519201077852141120130107785214112013               0000000000000268647-1                000033
100004520301077853141120130107785314112013               0000000000000268647-3                000034
100004520401077854141120130107785414112013               0000000000000268647-4                000035
100004519501077855141120130107785514112013               0000000000000268647-5                000036
100004519301077856141120130107785614112013               0000000000000268647-6                000037
100004520501077857141120130107785714112013               0000000000000268647-7                000038
100004523801077858141120130107785814112013               0000000000000268647-17               000039
100004523701077859141120130107785914112013               0000000000000268647-20               000040
100004523601077860141120130107786014112013               0000000000000268647-26               000041
100004523501077861141120130107786114112013               0000000000000268647-29               000042
100004523401077862141120130107786214112013               0000000000000268647-30               000043
100004523301077863141120130107786314112013               0000000000000268647-31               000044
100004523201077864141120130107786414112013               0000000000000268647-45               000045
100004523101077865141120130107786514112013               0000000000000268647-46               000046
100004523001077866141120130107786614112013               0000000000000268647-47               000047
100004522901077867141120130107786714112013               0000000000000268647-48               000048
100004522801077868141120130107786814112013               0000000000000268647-49               000049
100004522701077869141120130107786914112013               0000000000000268647-50               000050
100004522601077870141120130107787014112013               0000000000000268647-51               000051
100004522501077871141120130107787114112013               0000000000000268647-53               000052
100004522401077872141120130107787214112013               0000000000000268647-54               000053
100004522301077873141120130107787314112013               0000000000000268647-56               000054
100004522201077874141120130107787414112013               0000000000000268647-58               000055
100004522101077875141120130107787514112013               0000000000000268647-59               000056
100004522001077876141120130107787614112013               0000000000000268647-63               000057
100004521901077877141120130107787714112013               0000000000000268647-65               000058
100004521801077878141120130107787814112013               0000000000000268647-67               000059
100004521701077879141120130107787914112013               0000000000000268647-70               000060
100004521601077880141120130107788014112013               0000000000000268647-74               000061
100004521501077881141120130107788114112013               0000000000000268647-81               000062
100004521401077882141120130107788214112013               0000000000000268647-82               000063
100004521301077883141120130107788314112013               0000000000000268647-92               000064
100004521201077884141120130107788414112013               0000000000000268647-93               000065
100004521101077885141120130107788514112013               0000000000000268647-94               000066
100004521001077886141120130107788614112013               0000000000000268647-97               000067
100004520901077887141120130107788714112013               0000000000000268647-99               000068
100004520801077888141120130107788814112013               0000000000000268647-100              000069
100004520701077889141120130107788914112013               0000000000000268647-104              000070
100004520601077890141120130107789014112013               0000000000000268647-107              000071
100004519401077891141120130107789114112013               0000000000000268647-110              000072
9000071                                                                                       000073
