0RETORNONOTIFICAÇÃO ELETRONICA        05092012REGI                                            000001
100003733000821837310820120082183731082012               0000000000000191321-1                000002
100003738800821838310820120082183831082012               0000000000000191321-2                000003
100003740000821839310820120082183931082012               0000000000000191321-3                000004
100003740100821840310820120082184031082012               0000000000000191321-4                000005
100003740200821841310820120082184131082012               0000000000000191321-5                000006
100003740300821842310820120082184231082012               0000000000000191321-6                000007
100003740400821843310820120082184331082012               0000000000000191321-7                000008
100003740500821844310820120082184431082012               0000000000000191321-10               000009
100003740600821845310820120082184531082012               0000000000000191321-13               000010
100003740700821846310820120082184631082012               0000000000000191321-16               000011
100003740800821847310820120082184731082012               0000000000000191321-19               000012
100003740900821848310820120082184831082012               0000000000000191321-20               000013
100003741000821849310820120082184931082012               0000000000000191321-21               000014
100003741100821850310820120082185031082012               0000000000000191321-30               000015
100003741200821851310820120082185131082012               0000000000000191321-32               000016
100003741300821852310820120082185231082012               0000000000000191321-39               000017
100003741400821853310820120082185331082012               0000000000000191321-50               000018
100003741500821854310820120082185431082012               0000000000000191332-1                000019
100003741600821855310820120082185531082012               0000000000000191332-2                000020
100003741700821856310820120082185631082012               0000000000000191332-3                000021
100003741800821857310820120082185731082012               0000000000000191332-4                000022
100003741900821858310820120082185831082012               0000000000000191332-5                000023
100003742000821859310820120082185931082012               0000000000000191332-6                000024
100003742100821860310820120082186031082012               0000000000000191332-7                000025
100003742200821861310820120082186131082012               0000000000000191332-8                000026
100003739000821862310820120082186231082012               0000000000000191361-1                000027
100003742900821863310820120082186331082012               0000000000000191361-2                000028
100003743800821864310820120082186431082012               0000000000000191361-3                000029
100003743900821865310820120082186531082012               0000000000000191361-9                000030
100003744000821866310820120082186631082012               0000000000000191361-10               000031
100003744100821867310820120082186731082012               0000000000000191361-12               000032
100003744200821868310820120082186831082012               0000000000000191361-13               000033
100003744300821869310820120082186931082012               0000000000000191361-21               000034
100003746900821870310820120082187031082012               0000000000000191361-22               000035
100003747000821871310820120082187131082012               0000000000000191361-31               000036
100003747200821872310820120082187231082012               0000000000000191361-44               000037
100003747300821873310820120082187331082012               0000000000000191361-61               000038
100003747400821874310820120082187431082012               0000000000000191361-73               000039
100003747500821875310820120082187531082012               0000000000000191361-89               000040
100003747600821876310820120082187631082012               0000000000000191361-106              000041
100003747700821877310820120082187731082012               0000000000000191361-124              000042
100003747800821878310820120082187831082012               0000000000000191361-149              000043
100003748000821879310820120082187931082012               0000000000000191361-170              000044
100003748100822003030920120082200303092012               0000000000000191652-1                000045
100003748200822004030920120082200403092012               0000000000000191652-2                000046
100003748300822005030920120082200503092012               0000000000000191652-3                000047
100003748400822006030920120082200603092012               0000000000000191652-4                000048
100003749900822007030920120082200703092012               0000000000000191652-5                000049
100003750000822008030920120082200803092012               0000000000000191652-8                000050
100003750100822009030920120082200903092012               0000000000000191652-11               000051
100003750200822010030920120082201003092012               0000000000000191652-14               000052
100003750300822011030920120082201103092012               0000000000000191652-17               000053
100003750400822012030920120082201203092012               0000000000000191652-20               000054
100003750500822013030920120082201303092012               0000000000000191652-22               000055
100003750600822014030920120082201403092012               0000000000000191655-1                000056
100003750700822015030920120082201503092012               0000000000000191655-14               000057
100003754100822016030920120082201603092012               0000000000000191655-15               000058
100003754200822017030920120082201703092012               0000000000000191655-17               000059
100003754300822018030920120082201803092012               0000000000000191655-24               000060
100003754400822019030920120082201903092012               0000000000000191655-35               000061
100003749400822020030920120082202003092012               0000000000000191656-1                000062
100003749600822021030920120082202103092012               0000000000000191656-2                000063
100003751500822022030920120082202203092012               0000000000000191656-3                000064
100003754500822023030920120082202303092012               0000000000000191656-4                000065
100003754600822024030920120082202403092012               0000000000000191656-5                000066
100003754700822025030920120082202503092012               0000000000000191656-6                000067
100003756700822026030920120082202603092012               0000000000000191656-7                000068
100003756800822027030920120082202703092012               0000000000000191656-9                000069
100003756900822028030920120082202803092012               0000000000000191656-11               000070
100003757000822029030920120082202903092012               0000000000000191656-13               000071
100003757100822030030920120082203003092012               0000000000000191656-14               000072
100003757200822031030920120082203103092012               0000000000000191656-27               000073
100003757300822032030920120082203203092012               0000000000000191656-31               000074
100003757400822033030920120082203303092012               0000000000000191656-33               000075
100003745400824972040920120082497204092012               0000000000000191793-1                000076
100003755900824973040920120082497304092012               0000000000000191793-2                000077
100003757500824974040920120082497404092012               0000000000000191793-3                000078
100003757600824975040920120082497504092012               0000000000000191793-4                000079
100003757700824976040920120082497604092012               0000000000000191793-5                000080
100003757800824977040920120082497704092012               0000000000000191793-6                000081
9000080                                                                                       000082
