0RETORNONOTIFICAÇÃO ELETRONICA        28012011REGI                                            000001
100002596100464343270120110046434327012011               0000000000000120684-1                000002
100002598100464344270120110046434427012011               0000000000000120699-1                000003
100002598200464345270120110046434527012011               0000000000000120699-2                000004
100002598300464346270120110046434627012011               0000000000000120699-3                000005
100002598400464347270120110046434727012011               0000000000000120699-4                000006
100002598500464348270120110046434827012011               0000000000000120699-5                000007
100002598600464349270120110046434927012011               0000000000000120699-6                000008
100002599500464350270120110046435027012011               0000000000000120699-8                000009
100002594100464351270120110046435127012011               0000000000000120700-1                000010
100002594600464352270120110046435227012011               0000000000000120700-2                000011
100002594700464353270120110046435327012011               0000000000000120700-3                000012
100002599600464354270120110046435427012011               0000000000000120700-4                000013
100002599700464355270120110046435527012011               0000000000000120700-5                000014
100002599800464356270120110046435627012011               0000000000000120700-6                000015
100002599900464357270120110046435727012011               0000000000000120700-7                000016
9000015                                                                                       000017
