0RETORNONOTIFICAÇÃO ELETRONICA        18112010REGI                                            000001
100002498000428349171120100042834917112010               0000000000000115654-1                000002
100002498100428350171120100042835017112010               0000000000000115654-2                000003
100002498400428351171120100042835117112010               0000000000000115654-3                000004
100002499800428352171120100042835217112010               0000000000000115654-4                000005
100002500100428353171120100042835317112010               0000000000000115654-5                000006
100002500200428354171120100042835417112010               0000000000000115654-6                000007
100002500300428355171120100042835517112010               0000000000000115654-7                000008
100002500400428356171120100042835617112010               0000000000000115654-8                000009
100002500500428357171120100042835717112010               0000000000000115654-9                000010
100002500600428358171120100042835817112010               0000000000000115654-10               000011
100002500700428359171120100042835917112010               0000000000000115654-11               000012
100002500800428360171120100042836017112010               0000000000000115654-12               000013
100002500900428361171120100042836117112010               0000000000000115654-13               000014
100002501400428362171120100042836217112010               0000000000000115654-14               000015
100002501800428363171120100042836317112010               0000000000000115654-15               000016
9000015                                                                                       000017
