0RETORNONOTIFICAÇÃO ELETRONICA        08032012REGI                                            000001
100003411600728597080320120072859708032012               0000000000000165821-1                000002
100003413500728598080320120072859808032012               0000000000000165821-2                000003
100003418700728599080320120072859908032012               0000000000000165821-3                000004
100003418800728600080320120072860008032012               0000000000000165821-4                000005
100003418900728601080320120072860108032012               0000000000000165821-5                000006
100003419000728602080320120072860208032012               0000000000000165821-6                000007
9000006                                                                                       000008
