0RETORNONOTIFICAÇÃO ELETRONICA        23052011REGI                                            000001
100002773400539365200520110053936520052011               0000000000000131148-1                000002
100002773500539366200520110053936620052011               0000000000000131237-1                000003
100002773600539367200520110053936720052011               0000000000000131237-2                000004
100002773700539368200520110053936820052011               0000000000000131237-3                000005
100002775900539369200520110053936920052011               0000000000000131237-5                000006
100002776000539370200520110053937020052011               0000000000000131237-13               000007
100002776100539371200520110053937120052011               0000000000000131237-19               000008
100002776200539372200520110053937220052011               0000000000000131237-24               000009
100002776300539373200520110053937320052011               0000000000000131237-30               000010
100002776400539374200520110053937420052011               0000000000000131237-37               000011
9000010                                                                                       000012
