0RETORNONOTIFICAÇÃO ELETRONICA        01092011REGI                                            000001
100002984900616074010920110061607401092011               0000000000000142714-1                000002
100002986100616075010920110061607501092011               0000000000000142714-2                000003
100002986200616076010920110061607601092011               0000000000000142714-3                000004
100002986300616077010920110061607701092011               0000000000000142714-4                000005
100002995200616078010920110061607801092011               0000000000000142714-5                000006
100002995300616082010920110061608201092011               0000000000000142714-7                000007
100002995400616079010920110061607901092011               0000000000000142714-8                000008
100002995500616080010920110061608001092011               0000000000000142714-9                000009
100002995600616081010920110061608101092011               0000000000000142714-10               000010
100002995900616083010920110061608301092011               0000000000000142820-1                000011
100002996000616084010920110061608401092011               0000000000000142820-2                000012
100002996100616085010920110061608501092011               0000000000000142820-3                000013
100002996600616086010920110061608601092011               0000000000000142820-4                000014
9000013                                                                                       000015
