0RETORNONOTIFICAÇÃO ELETRONICA        26052014REGI                                            000001
100004752101223606190520140122360619052014               0000000000000300615-1                000002
100004752201223607190520140122360719052014               0000000000000300615-2                000003
100004752301223608190520140122360819052014FA271187794BR  0000023052014300615-3                000004
100004752401223609190520140122360919052014               0000000000000300615-4                000005
100004752501223610190520140122361019052014               0000000000000300615-5                000006
100004752601223611190520140122361119052014               0000000000000300615-6                000007
100004754401223612190520140122361219052014               0000000000000300730-1                000008
100004754501223613190520140122361319052014               0000000000000300730-2                000009
100004754601223614190520140122361419052014FA271187851BR  0000123052014300730-3                000010
100004756001223760190520140122376019052014               0000000000000301042-1                000011
100004757401223761190520140122376119052014               0000000000000301042-2                000012
100004757501223762190520140122376219052014               0000000000000301042-3                000013
100004753701225626220520140122562622052014               0000000000000301378-1                000014
100004755201225627220520140122562722052014               0000000000000301378-2                000015
100004755501225628220520140122562822052014               0000000000000301378-3                000016
100004755601225629220520140122562922052014               0000000000000301378-4                000017
100004755901225630220520140122563022052014               0000000000000301378-5                000018
100004757601225631220520140122563122052014               0000000000000301378-6                000019
100004757701225632220520140122563222052014               0000000000000301378-7                000020
100004757801225633220520140122563322052014               0000000000000301378-8                000021
100004757901225634220520140122563422052014               0000000000000301378-9                000022
100004759201225635220520140122563522052014               0000000000000301378-10               000023
100004759301225636220520140122563622052014               0000000000000301378-11               000024
100004759401225637220520140122563722052014               0000000000000301378-12               000025
100004759501225695220520140122569522052014               0000000000000301769-1                000026
100004759601225696220520140122569622052014               0000000000000301769-2                000027
100004759701225697220520140122569722052014               0000000000000301769-3                000028
9000027                                                                                       000029
