0RETORNONOTIFICAÇÃO ELETRONICA        05092014REGI                                            000001
100004892201311242290820140131124229082014               0000000000000318601-1                000002
100004892301311243290820140131124329082014               0000000000000318601-2                000003
100004892401311244290820140131124429082014               0000000000000318601-3                000004
100004892501311245290820140131124529082014               0000000000000318601-4                000005
100004892601311246290820140131124629082014FA294429896BR  0000204092014318601-5                000006
100004893501311247290820140131124729082014FA294429905BR  0000004092014318848-1                000007
100004894001311248290820140131124829082014               0000000000000318848-2                000008
100004894101311249290820140131124929082014FA294429922BR  0000004092014318848-3                000009
100004894201311250290820140131125029082014               0000000000000318848-4                000010
100004894301311251290820140131125129082014               0000000000000318848-5                000011
100004894801315429030920140131542903092014               0000000000000318998-1                000012
100004894901315430030920140131543003092014               0000000000000318998-2                000013
100004895001315431030920140131543103092014               0000000000000318998-3                000014
100004895101315432030920140131543203092014               0000000000000318998-4                000015
100004896401315433030920140131543303092014               0000000000000318998-6                000016
100004896501315434030920140131543403092014               0000000000000318998-7                000017
100004896601315435030920140131543503092014               0000000000000318998-8                000018
100004894701315436030920140131543603092014               0000000000000319696-1                000019
100004897001315437030920140131543703092014               0000000000000319696-2                000020
100004897101315438030920140131543803092014               0000000000000319696-3                000021
100004897201315439030920140131543903092014               0000000000000319696-4                000022
100004897301315440030920140131544003092014               0000000000000319696-5                000023
100004897701315441030920140131544103092014               0000000000000319696-6                000024
100004897801315442030920140131544203092014               0000000000000319696-7                000025
100004897901315443030920140131544303092014               0000000000000319696-8                000026
100004899001315444030920140131544403092014               0000000000000319696-9                000027
100004899201315445030920140131544503092014               0000000000000319697-1                000028
100004899301315446030920140131544603092014               0000000000000319697-2                000029
100004899401315447030920140131544703092014               0000000000000319697-3                000030
100004899501315448030920140131544803092014               0000000000000319697-5                000031
100004899601315449030920140131544903092014               0000000000000319697-6                000032
100004899701315450030920140131545003092014               0000000000000319697-7                000033
100004901601315451030920140131545103092014               0000000000000319778-1                000034
100004901701315452030920140131545203092014               0000000000000319778-2                000035
100004901801315453030920140131545303092014               0000000000000319778-3                000036
100004901901315454030920140131545403092014               0000000000000319778-4                000037
100004902001315455030920140131545503092014               0000000000000319778-5                000038
100004900901316717040920140131671704092014               0000000000000320020-1                000039
100004902601316718040920140131671804092014               0000000000000320020-2                000040
100004902701316719040920140131671904092014               0000000000000320020-3                000041
100004902801316720040920140131672004092014               0000000000000320020-4                000042
100004902901316721040920140131672104092014               0000000000000320020-6                000043
100004903001316722040920140131672204092014               0000000000000320020-7                000044
100004903101316723040920140131672304092014               0000000000000320020-8                000045
100004903201316724040920140131672404092014               0000000000000320020-9                000046
100004903301316725040920140131672504092014               0000000000000320020-10               000047
100004903401316726040920140131672604092014               0000000000000320020-11               000048
100004903901316727040920140131672704092014               0000000000000320020-15               000049
9000048                                                                                       000050
