0RETORNONOTIFICAÇÃO ELETRONICA        12082014REGI                                            000001
100004876401296417110820140129641711082014               0000000000000315246-1                000002
100004876501296418110820140129641811082014               0000000000000315246-2                000003
100004876601296419110820140129641911082014               0000000000000315246-5                000004
100004876701296420110820140129642011082014               0000000000000315246-6                000005
9000004                                                                                       000006
