0RETORNONOTIFICAÇÃO ELETRONICA        20082014REGI                                            000001
100004877001298487120820140129848712082014FA283400256BR  0000018082014315544-1                000002
100004877101298488120820140129848812082014FA283400260BR  0000018082014315544-2                000003
100004877201298489120820140129848912082014FA283400273BR  0000018082014315544-3                000004
100004877301298490120820140129849012082014               0000000000000315544-4                000005
100004878801298491120820140129849112082014FA283400295BR  0000018082014315544-7                000006
100004879401300299140820140130029914082014               0000000000000315906-1                000007
100004879601300300140820140130030014082014               0000000000000316061-1                000008
100004880401300301140820140130030114082014               0000000000000316061-2                000009
100004880501300302140820140130030214082014               0000000000000316061-3                000010
100004880601300303140820140130030314082014               0000000000000316061-5                000011
100004880701300304140820140130030414082014               0000000000000316061-6                000012
100004882001300305140820140130030514082014               0000000000000316061-8                000013
100004882101301943180820140130194318082014               0000000000000316327-1                000014
100004882201301944180820140130194418082014               0000000000000316327-2                000015
100004882301301945180820140130194518082014               0000000000000316327-3                000016
100004882401301946180820140130194618082014               0000000000000316327-4                000017
9000016                                                                                       000018
