0RETORNONOTIFICAÇÃO ELETRONICA        27042011REGI                                            000001
100002727800513870260420110051387026042011               0000000000000128593-1                000002
100002728300513871260420110051387126042011               0000000000000128593-2                000003
100002728400513872260420110051387226042011               0000000000000128593-3                000004
100002728500513873260420110051387326042011               0000000000000128593-4                000005
100002728600513874260420110051387426042011               0000000000000128593-5                000006
9000005                                                                                       000007
