0RETORNONOTIFICAÇÃO ELETRONICA        29022012REGI                                            000001
100003398000723283280220120072328328022012               0000000000000164361-1                000002
100003398100723284280220120072328428022012               0000000000000164361-5                000003
100003398200723285280220120072328528022012               0000000000000164361-9                000004
100003398300723286280220120072328628022012               0000000000000164361-11               000005
9000004                                                                                       000006
