0RETORNONOTIFICAÇÃO ELETRONICA        18042011REGI                                            000001
100002720700510779150420110051077915042011               0000000000000127942-1                000002
100002720800510780150420110051078015042011               0000000000000127942-2                000003
100002720900510781150420110051078115042011               0000000000000127942-3                000004
100002723400510782150420110051078215042011               0000000000000127942-4                000005
100002723500511025150420110051102515042011               0000000000000128062-1                000006
100002723600511026150420110051102615042011               0000000000000128062-2                000007
100002723700511027150420110051102715042011               0000000000000128062-5                000008
100002723800511028150420110051102815042011               0000000000000128062-6                000009
9000008                                                                                       000010
