0RETORNONOTIFICAÇÃO ELETRONICA        13012015REGI                                            000001
100005031201407315191220140140731519122014FA318465688BR  0000026122014337577-1                000002
100005031301407316191220140140731619122014               0000000000000337577-2                000003
100005032101407317191220140140731719122014FA318465705BR  0001209012015337577-3                000004
100005032201407318191220140140731819122014FA318465714BR  0000707012015337577-17               000005
100005032301407319191220140140731919122014FA318465728BR  0000030122014337756-1                000006
100005032401407320191220140140732019122014FA318465731BR  0000026122014337756-2                000007
100005032501407321191220140140732119122014FA318465745BR  0000026122014337756-3                000008
100005032601407322191220140140732219122014FA318465759BR  0000030122014337756-4                000009
100005033201407323191220140140732319122014FA318465762BR  0000007012015337756-5                000010
100005034201407324191220140140732419122014FA318465776BR  0000030122014338095-1                000011
100005034801407325191220140140732519122014FA318465780BR  0000030122014338095-2                000012
100005034901407326191220140140732619122014FA318465793BR  0000030122014338095-5                000013
100005035001407327191220140140732719122014FA318465807BR  0000008012015338095-8                000014
100005035101407328191220140140732819122014FA318465816BR  0000030122014338095-9                000015
100005035201407329191220140140732919122014FA318465820BR  0000030122014338095-12               000016
100005035301407330191220140140733019122014FA318465833BR  0000030122014338095-14               000017
100005035401407331191220140140733119122014FA318465847BR  0000030122014338095-16               000018
100005035501407332191220140140733219122014FA318465855BR  0000030122014338095-18               000019
100005035601407333191220140140733319122014               0000000000000338095-24               000020
100005035701407334191220140140733419122014FA318465878BR  0000030122014338095-28               000021
100005035801407335191220140140733519122014               0000000000000338095-31               000022
100005035901407336191220140140733619122014FA318465895BR  0000030122014338095-32               000023
100005036001407337191220140140733719122014FA318465909BR  0000030122014338095-35               000024
100005036101407338191220140140733819122014FA318465918BR  0000030122014338095-36               000025
100005036201407339191220140140733919122014FA318465921BR  0000030122014338095-37               000026
100005036301407340191220140140734019122014FA318465935BR  0000030122014338095-38               000027
100005036401407341191220140140734119122014FA318465949BR  0000030122014338095-50               000028
100005038501420414080120150142041408012015               0000000000000339165-1                000029
100005038601420415080120150142041508012015               0000000000000339165-2                000030
100005038701420416080120150142041608012015               0000000000000339165-3                000031
100005038801420417080120150142041708012015               0000000000000339165-4                000032
100005038901420418080120150142041808012015               0000000000000339165-5                000033
100005039001420419080120150142041908012015               0000000000000339165-6                000034
100005040301420420080120150142042008012015               0000000000000339178-1                000035
100005040401420421080120150142042108012015               0000000000000339178-2                000036
100005040501420422080120150142042208012015               0000000000000339178-3                000037
100005040701420423080120150142042308012015               0000000000000339180-1                000038
100005040801420424080120150142042408012015               0000000000000339180-2                000039
100005041201420425080120150142042508012015               0000000000000339182-1                000040
100005041301420426080120150142042608012015               0000000000000339182-2                000041
100005041401420427080120150142042708012015               0000000000000339182-3                000042
100005042801420428080120150142042808012015               0000000000000339197-1                000043
100005042901420429080120150142042908012015               0000000000000339197-2                000044
100005043001420430080120150142043008012015               0000000000000339197-3                000045
100005043901420431080120150142043108012015               0000000000000339202-1                000046
100005044001420432080120150142043208012015               0000000000000339202-2                000047
100005044101420433080120150142043308012015               0000000000000339202-3                000048
100005044201420434080120150142043408012015               0000000000000339202-4                000049
100005044301420435080120150142043508012015               0000000000000339202-5                000050
100005044401420436080120150142043608012015               0000000000000339202-6                000051
100005044501420437080120150142043708012015               0000000000000339202-7                000052
100005044601420438080120150142043808012015               0000000000000339202-8                000053
100005044701420439080120150142043908012015               0000000000000339202-10               000054
9000053                                                                                       000055
