0RETORNONOTIFICAÇÃO ELETRONICA        21032012REGI                                            000001
100003423700730938140320120073093814032012RJ341897121BR  0000020032012166288-1                000002
100003425700730939140320120073093914032012RJ341897135BR  0000520032012166288-2                000003
100003425800730940140320120073094014032012               0000000000000166288-3                000004
100003425900730941140320120073094114032012RJ341897152BR  0000020032012166288-4                000005
100003426000730942140320120073094214032012RJ341897166BR  0000020032012166288-7                000006
100003426100730943140320120073094314032012               0000000000000166288-19               000007
100003370000730944140320120073094414032012               0000000000000166293-1                000008
100003399500730945140320120073094514032012RJ341897197BR  0000020032012166293-2                000009
100003414900730946140320120073094614032012               0000000000000166293-3                000010
100003416400730947140320120073094714032012               0000000000000166293-4                000011
100003416500730948140320120073094814032012               0000000000000166293-5                000012
100003426200730949140320120073094914032012               0000000000000166293-6                000013
100003426300730950140320120073095014032012               0000000000000166293-10               000014
100003426400730951140320120073095114032012RJ341897254BR  0000020032012166293-11               000015
100003426500730952140320120073095214032012RJ341897268BR  0000020032012166293-12               000016
100003426600730953140320120073095314032012RJ341897271BR  0000019032012166293-13               000017
100003427900731482150320120073148215032012               0000000000000166717-1                000018
100003428000731483150320120073148315032012               0000000000000166717-2                000019
100003428100731484150320120073148415032012               0000000000000166717-3                000020
100003428200731485150320120073148515032012               0000000000000166717-4                000021
100003371900731486150320120073148615032012               0000000000000166719-1                000022
100003430700731487150320120073148715032012               0000000000000166719-2                000023
100003430800731488150320120073148815032012               0000000000000166719-3                000024
100003430900731489150320120073148915032012RJ341902657BR  0000019032012166719-5                000025
100003431000731490150320120073149015032012               0000000000000166719-7                000026
100003431100731491150320120073149115032012               0000000000000166719-10               000027
100003432300731492150320120073149215032012               0000000000000166719-11               000028
100003432400731493150320120073149315032012               0000000000000166719-13               000029
100003432500731494150320120073149415032012               0000000000000166719-15               000030
100003432600731495150320120073149515032012               0000000000000166719-17               000031
100003432700731496150320120073149615032012               0000000000000166719-18               000032
100003379900731973160320120073197316032012               0000000000000166960-1                000033
100003380000731974160320120073197416032012               0000000000000166960-2                000034
100003383900731975160320120073197516032012               0000000000000166960-3                000035
100003432800731976160320120073197616032012               0000000000000166960-4                000036
100003432900731977160320120073197716032012               0000000000000166960-5                000037
100003433000731978160320120073197816032012               0000000000000166960-8                000038
100003433100731979160320120073197916032012               0000000000000166960-9                000039
100003434500731980160320120073198016032012               0000000000000166960-10               000040
100003434600731981160320120073198116032012               0000000000000166960-11               000041
100003388900731982160320120073198216032012               0000000000000166963-1                000042
100003391000731983160320120073198316032012               0000000000000166963-2                000043
100003434700731984160320120073198416032012               0000000000000166963-3                000044
100003434800731985160320120073198516032012               0000000000000166963-4                000045
100003434900731986160320120073198616032012               0000000000000166963-5                000046
100003435000731987160320120073198716032012               0000000000000166963-6                000047
100003437800731988160320120073198816032012               0000000000000166963-7                000048
100003386400732822200320120073282220032012               0000000000000167452-1                000049
100003392100732823200320120073282320032012               0000000000000167452-2                000050
100003392300732824200320120073282420032012               0000000000000167452-3                000051
100003398500732825200320120073282520032012               0000000000000167452-4                000052
100003437900732826200320120073282620032012               0000000000000167452-5                000053
100003438000732827200320120073282720032012               0000000000000167452-23               000054
100003438100732828200320120073282820032012               0000000000000167452-24               000055
100003438200732829200320120073282920032012               0000000000000167452-25               000056
100003438300732830200320120073283020032012               0000000000000167452-26               000057
100003438400732831200320120073283120032012               0000000000000167452-27               000058
100003438500732832200320120073283220032012               0000000000000167452-28               000059
100003439900732833200320120073283320032012               0000000000000167455-1                000060
100003440000732834200320120073283420032012               0000000000000167455-8                000061
100003440100732835200320120073283520032012               0000000000000167455-9                000062
100003440200732836200320120073283620032012               0000000000000167455-10               000063
9000062                                                                                       000064
