0RETORNONOTIFICAÇÃO ELETRONICA        19042011REGI                                            000001
100002721400511649180420110051164918042011               0000000000000128216-1                000002
100002722700511650180420110051165018042011               0000000000000128216-2                000003
100002722800511651180420110051165118042011               0000000000000128216-3                000004
100002722900511652180420110051165218042011               0000000000000128216-4                000005
100002724200511653180420110051165318042011               0000000000000128216-5                000006
100002724300511654180420110051165418042011               0000000000000128216-6                000007
100002724400511655180420110051165518042011               0000000000000128216-7                000008
100002725100511656180420110051165618042011               0000000000000128216-8                000009
100002725200511657180420110051165718042011               0000000000000128216-9                000010
100002725600511658180420110051165818042011               0000000000000128216-10               000011
100002725700511659180420110051165918042011               0000000000000128216-11               000012
100002725800511660180420110051166018042011               0000000000000128216-12               000013
100002726100511661180420110051166118042011               0000000000000128216-13               000014
100002726300511662180420110051166218042011               0000000000000128216-14               000015
9000014                                                                                       000016
