0RETORNONOTIFICAÇÃO ELETRONICA        14102011REGI                                            000001
100003126400644160141020110064416014102011               0000000000000148072-1                000002
100003126500644161141020110064416114102011               0000000000000148072-2                000003
100003126600644162141020110064416214102011               0000000000000148072-9                000004
9000003                                                                                       000005
