0RETORNONOTIFICAÇÃO ELETRONICA        21102011REGI                                            000001
100003135800647373201020110064737320102011               0000000000000148565-1                000002
100003135900647374201020110064737420102011               0000000000000148565-2                000003
100003136000647375201020110064737520102011               0000000000000148565-3                000004
100003136100647376201020110064737620102011               0000000000000148565-4                000005
100003140000647377201020110064737720102011               0000000000000148731-1                000006
100003140100647378201020110064737820102011               0000000000000148731-2                000007
100003140200647379201020110064737920102011               0000000000000148731-15               000008
100003140300647380201020110064738020102011               0000000000000148731-16               000009
100003140400647381201020110064738120102011               0000000000000148731-18               000010
100003143100647382201020110064738220102011               0000000000000148731-20               000011
9000010                                                                                       000012
