0RETORNONOTIFICAÇÃO ELETRONICA        22012014REGI                                            000001
100004591401121859210120140112185921012014               0000000000000279698-1                000002
100004592001121860210120140112186021012014               0000000000000279698-2                000003
100004592201121861210120140112186121012014               0000000000000279699-1                000004
100004593901121862210120140112186221012014               0000000000000279700-3                000005
100004594101121863210120140112186321012014               0000000000000279700-7                000006
100004594201121864210120140112186421012014               0000000000000279700-8                000007
100004595801121865210120140112186521012014               0000000000000279701-2                000008
100004596001121866210120140112186621012014               0000000000000279701-3                000009
100004595901121867210120140112186721012014               0000000000000279701-4                000010
100004595601121868210120140112186821012014               0000000000000279701-5                000011
100004596301121869210120140112186921012014               0000000000000279701-7                000012
100004596201121870210120140112187021012014               0000000000000279701-18               000013
100004596101121871210120140112187121012014               0000000000000279701-19               000014
100004591901121872210120140112187221012014               0000000000000279703-2                000015
100004597401121873210120140112187321012014               0000000000000279703-3                000016
100004589701121874210120140112187421012014               0000000000000279703-5                000017
100004567101121875210120140112187521012014               0000000000000279703-6                000018
100004571601121876210120140112187621012014               0000000000000279703-7                000019
100004584801121877210120140112187721012014               0000000000000279703-8                000020
100004597301121878210120140112187821012014               0000000000000279703-9                000021
100004598201121879210120140112187921012014               0000000000000279703-10               000022
100004606201121880210120140112188021012014               0000000000000279709-1                000023
100004606301121881210120140112188121012014               0000000000000279709-2                000024
100004606601121882210120140112188221012014               0000000000000279709-3                000025
100004606501121883210120140112188321012014               0000000000000279709-4                000026
100004606401121884210120140112188421012014               0000000000000279709-5                000027
100004609101121885210120140112188521012014               0000000000000279710-1                000028
9000027                                                                                       000029
