0RETORNONOTIFICAÇÃO ELETRONICA        11052012REGI                                            000001
100003519200760411090520120076041109052012               0000000000000173677-1                000002
100003519300760412090520120076041209052012               0000000000000173677-2                000003
100003519400760413090520120076041309052012               0000000000000173677-4                000004
100003519500760414090520120076041409052012               0000000000000173677-5                000005
100003519600760415090520120076041509052012               0000000000000173677-6                000006
100003521000760416090520120076041609052012               0000000000000173677-7                000007
100003521100761083100520120076108310052012               0000000000000174052-1                000008
100003521200761084100520120076108410052012               0000000000000174052-2                000009
100003521300761085100520120076108510052012               0000000000000174052-3                000010
100003521400761086100520120076108610052012               0000000000000174052-4                000011
100003521500761087100520120076108710052012               0000000000000174052-5                000012
100003521600761088100520120076108810052012               0000000000000174052-8                000013
100003521700761089100520120076108910052012               0000000000000174052-9                000014
100003521800761090100520120076109010052012               0000000000000174052-10               000015
100003522900761091100520120076109110052012               0000000000000174052-11               000016
100003523000761092100520120076109210052012               0000000000000174052-12               000017
100003523800761093100520120076109310052012               0000000000000174071-1                000018
100003523900761094100520120076109410052012               0000000000000174071-5                000019
100003528000761095100520120076109510052012               0000000000000174071-6                000020
100003524200761096100520120076109610052012               0000000000000174212-1                000021
100003524400761097100520120076109710052012               0000000000000174212-2                000022
100003524500761098100520120076109810052012               0000000000000174212-3                000023
100003527100761099100520120076109910052012               0000000000000174212-4                000024
100003528100761100100520120076110010052012               0000000000000174212-5                000025
100003528200761101100520120076110110052012               0000000000000174212-6                000026
100003528300761102100520120076110210052012               0000000000000174212-7                000027
100003528400761103100520120076110310052012               0000000000000174212-8                000028
9000027                                                                                       000029
