0RETORNONOTIFICAÇÃO ELETRONICA        20072012REGI                                            000001
100003645500796881190720120079688119072012               0000000000000184100-1                000002
100003646300796882190720120079688219072012               0000000000000184100-2                000003
100003647400796883190720120079688319072012               0000000000000184100-3                000004
100003647900796884190720120079688419072012               0000000000000184102-1                000005
100003649100796885190720120079688519072012               0000000000000184102-2                000006
100003648300796886190720120079688619072012               0000000000000184105-1                000007
100003649200796887190720120079688719072012               0000000000000184105-2                000008
100003652000796888190720120079688819072012               0000000000000184105-3                000009
100003652100796889190720120079688919072012               0000000000000184105-4                000010
100003652200796890190720120079689019072012               0000000000000184105-6                000011
100003652300796891190720120079689119072012               0000000000000184105-7                000012
100003652400796892190720120079689219072012               0000000000000184105-8                000013
100003652500796893190720120079689319072012               0000000000000184105-9                000014
100003652600796894190720120079689419072012               0000000000000184105-10               000015
100003652700796895190720120079689519072012               0000000000000184105-14               000016
100003652800796896190720120079689619072012               0000000000000184105-16               000017
100003652900796897190720120079689719072012               0000000000000184105-18               000018
100003653000796898190720120079689819072012               0000000000000184105-19               000019
100003653100796899190720120079689919072012               0000000000000184105-20               000020
100003653200796900190720120079690019072012               0000000000000184105-22               000021
100003653300796901190720120079690119072012               0000000000000184105-23               000022
100003653400796902190720120079690219072012               0000000000000184105-25               000023
100003653500796903190720120079690319072012               0000000000000184105-28               000024
100003653600796904190720120079690419072012               0000000000000184105-30               000025
100003653700796905190720120079690519072012               0000000000000184105-32               000026
100003653800796906190720120079690619072012               0000000000000184105-33               000027
100003653900796907190720120079690719072012               0000000000000184105-34               000028
100003654000796908190720120079690819072012               0000000000000184105-36               000029
9000028                                                                                       000030
