0RETORNONOTIFICAÇÃO ELETRONICA        20122012REGI                                            000001
100003926300873313181220120087331318122012               0000000000000211237-1                000002
100003926400873314181220120087331418122012               0000000000000211237-2                000003
100003926200873315181220120087331518122012               0000000000000211237-3                000004
100003927500873316181220120087331618122012               0000000000000211242-1                000005
100003929600873317181220120087331718122012               0000000000000211242-3                000006
100003927900873318181220120087331818122012               0000000000000211242-7                000007
100003927600873319181220120087331918122012               0000000000000211242-8                000008
100003927800873320181220120087332018122012               0000000000000211242-9                000009
100003929100873321181220120087332118122012               0000000000000211242-10               000010
100003923300873322181220120087332218122012               0000000000000211242-11               000011
100003923400873323181220120087332318122012               0000000000000211242-12               000012
100003927700873324181220120087332418122012               0000000000000211242-13               000013
100003929700873825191220120087382519122012               0000000000000211626-1                000014
100003929900873826191220120087382619122012               0000000000000211626-2                000015
100003929800873827191220120087382719122012               0000000000000211626-3                000016
100003930100873830191220120087383019122012               0000000000000211626-42               000017
100003930000873831191220120087383119122012               0000000000000211626-43               000018
9000017                                                                                       000019
