0RETORNONOTIFICAÇÃO ELETRONICA        07042015REGI                                            000001
100005064201447913010420150144791301042015               0000000000000349793-1                000002
100005065001447914010420150144791401042015               0000000000000349793-2                000003
100005065101447915010420150144791501042015               0000000000000349793-3                000004
100005065801447916010420150144791601042015               0000000000000349793-4                000005
100005066201447917010420150144791701042015               0000000000000349793-5                000006
100005068201447918010420150144791801042015               0000000000000349793-7                000007
100005070701447919010420150144791901042015               0000000000000349793-8                000008
100005071801447920010420150144792001042015               0000000000000349793-10               000009
100005071901447921010420150144792101042015               0000000000000349793-11               000010
100005072001447922010420150144792201042015               0000000000000349793-12               000011
100005072101447923010420150144792301042015               0000000000000349793-13               000012
100005072401447924010420150144792401042015               0000000000000349793-14               000013
100005072501447925010420150144792501042015               0000000000000349797-1                000014
100005072601447926010420150144792601042015               0000000000000349797-2                000015
100005072701447927010420150144792701042015               0000000000000349797-3                000016
100005072801447928010420150144792801042015               0000000000000349797-4                000017
100005073001447929010420150144792901042015               0000000000000349797-5                000018
100005073101447930010420150144793001042015               0000000000000349797-7                000019
100005073201447931010420150144793101042015               0000000000000349797-8                000020
100005074601447932010420150144793201042015               0000000000000353789-2                000021
100005075601447933010420150144793301042015               0000000000000353789-3                000022
100005075801447934010420150144793401042015               0000000000000353790-1                000023
100005075901447935010420150144793501042015               0000000000000353790-2                000024
100005076001447936010420150144793601042015               0000000000000353790-3                000025
100005076101447937010420150144793701042015               0000000000000353790-4                000026
100005076901447938010420150144793801042015               0000000000000353793-1                000027
100005077201447939010420150144793901042015               0000000000000353793-2                000028
100005077301447940010420150144794001042015               0000000000000353793-6                000029
100005077401447941010420150144794101042015               0000000000000353793-7                000030
100005077501447942010420150144794201042015               0000000000000353793-8                000031
100005077601447943010420150144794301042015               0000000000000353793-13               000032
100005077701447944010420150144794401042015               0000000000000353793-16               000033
100005077801447945010420150144794501042015               0000000000000353793-21               000034
100005077901447946010420150144794601042015               0000000000000353793-28               000035
100005078001447947010420150144794701042015               0000000000000353793-31               000036
100005078101447948010420150144794801042015               0000000000000353793-37               000037
100005078201447949010420150144794901042015               0000000000000353793-40               000038
100005078301447950010420150144795001042015               0000000000000353793-42               000039
100005078401447951010420150144795101042015               0000000000000353793-46               000040
100005078501447952010420150144795201042015               0000000000000353793-48               000041
100005078601447953010420150144795301042015               0000000000000353793-51               000042
100005078701447954010420150144795401042015               0000000000000353793-55               000043
100005078801447955010420150144795501042015               0000000000000353793-59               000044
100005078901447956010420150144795601042015               0000000000000353793-62               000045
100005079001447957010420150144795701042015               0000000000000353793-65               000046
100005079101447958010420150144795801042015               0000000000000353793-67               000047
100005079201447959010420150144795901042015               0000000000000353793-72               000048
100005079301447960010420150144796001042015               0000000000000353793-75               000049
100005079401447961010420150144796101042015               0000000000000353793-80               000050
100005079501447962010420150144796201042015               0000000000000353793-82               000051
100005079601447963010420150144796301042015               0000000000000353793-86               000052
100005079701447964010420150144796401042015               0000000000000353793-89               000053
100005079801447965010420150144796501042015               0000000000000353793-91               000054
100005079901447966010420150144796601042015               0000000000000353793-92               000055
100005080001447967010420150144796701042015               0000000000000353793-94               000056
100005080101447968010420150144796801042015               0000000000000353793-95               000057
100005080201447969010420150144796901042015               0000000000000353793-97               000058
100005080301447970010420150144797001042015               0000000000000353793-99               000059
100005080401447971010420150144797101042015               0000000000000353793-104              000060
100005080501447972010420150144797201042015               0000000000000353793-108              000061
100005080601447973010420150144797301042015               0000000000000353793-109              000062
100005080701447974010420150144797401042015               0000000000000353793-111              000063
100005080801447975010420150144797501042015               0000000000000353793-113              000064
100005080901447976010420150144797601042015               0000000000000353793-115              000065
100005081001447977010420150144797701042015               0000000000000353793-118              000066
100005081101447978010420150144797801042015               0000000000000353793-119              000067
100005081201447979010420150144797901042015               0000000000000353793-120              000068
100005081301447980010420150144798001042015               0000000000000353793-121              000069
100005081401447981010420150144798101042015               0000000000000353793-127              000070
100005081801447982010420150144798201042015               0000000000000353799-1                000071
100005081901447983010420150144798301042015               0000000000000353799-2                000072
100005082101447984010420150144798401042015               0000000000000353800-1                000073
100005082201447985010420150144798501042015               0000000000000353800-2                000074
100005082401447986010420150144798601042015               0000000000000353809-1                000075
100005082501447987010420150144798701042015               0000000000000353809-2                000076
100005082601447784310320150144778431032015               0000000000000353809-3                000077
100005082701447785310320150144778531032015               0000000000000353809-4                000078
100005082801447786310320150144778631032015               0000000000000353809-5                000079
100005082901447787310320150144778731032015FA318736859BR  0000006042015353809-6                000080
100005083001447788310320150144778831032015FA318736862BR  0000006042015353809-7                000081
100005083201447789310320150144778931032015               0000000000000353815-1                000082
100005083301447790310320150144779031032015               0000000000000353815-2                000083
100005077001447791310320150144779131032015               0000000000000353816-1                000084
100005077101447792310320150144779231032015               0000000000000353816-2                000085
100005082001447793310320150144779331032015               0000000000000353816-3                000086
100005083401447794310320150144779431032015               0000000000000353816-4                000087
100005083501447795310320150144779531032015               0000000000000353820-1                000088
9000087                                                                                       000089
