0RETORNONOTIFICAÇÃO ELETRONICA        14122010REGI                                            000001
100002536400436655131220100043665513122010               0000000000000117541-1                000002
100002536500436656131220100043665613122010               0000000000000117541-2                000003
100002536800436657131220100043665713122010               0000000000000117689-1                000004
100002537300436658131220100043665813122010               0000000000000117689-2                000005
100002538100436659131220100043665913122010               0000000000000117689-3                000006
100002538200436660131220100043666013122010               0000000000000117689-4                000007
100002538300436661131220100043666113122010               0000000000000117689-5                000008
100002538400436662131220100043666213122010               0000000000000117689-6                000009
100002538500436663131220100043666313122010               0000000000000117689-7                000010
9000009                                                                                       000011
