0RETORNONOTIFICAÇÃO ELETRONICA        07122011REGI                                            000001
100003219600679321021220110067932102122011               0000000000000153741-7                000002
100003219700679322021220110067932202122011               0000000000000153938-1                000003
100003219800679323021220110067932302122011               0000000000000153938-2                000004
100003219900679324021220110067932402122011               0000000000000153938-3                000005
100003220000679325021220110067932502122011               0000000000000153938-4                000006
100003222100679326021220110067932602122011               0000000000000153939-1                000007
100003222200679327021220110067932702122011               0000000000000153939-2                000008
100003222300679328021220110067932802122011               0000000000000153939-3                000009
100003222400679329021220110067932902122011               0000000000000153939-7                000010
100003222500679330021220110067933002122011               0000000000000153939-8                000011
100003227100679331021220110067933102122011               0000000000000153939-13               000012
100003227200679332021220110067933202122011               0000000000000153939-16               000013
100003227300679333021220110067933302122011               0000000000000153939-23               000014
100003227400685130061220110068513006122011               0000000000000154511-1                000015
100003227500685131061220110068513106122011               0000000000000154511-2                000016
100003227600685132061220110068513206122011               0000000000000154511-3                000017
100003227700685133061220110068513306122011               0000000000000154511-4                000018
100003227900685134061220110068513406122011               0000000000000154511-5                000019
100003228000685135061220110068513506122011               0000000000000154511-6                000020
100003228100685136061220110068513606122011               0000000000000154511-7                000021
100003232200685137061220110068513706122011               0000000000000154511-8                000022
100003232300685138061220110068513806122011               0000000000000154511-16               000023
100003232400685139061220110068513906122011               0000000000000154511-26               000024
100003232500685140061220110068514006122011               0000000000000154511-34               000025
100003232600685141061220110068514106122011               0000000000000154511-46               000026
100003232700685142061220110068514206122011               0000000000000154511-58               000027
100003232800685143061220110068514306122011               0000000000000154511-84               000028
100003039500685145061220110068514506122011               0000000000000154524-1                000029
100003039600685146061220110068514606122011               0000000000000154524-2                000030
100003039700685147061220110068514706122011               0000000000000154524-3                000031
100003039800685148061220110068514806122011               0000000000000154524-4                000032
100003039900685149061220110068514906122011               0000000000000154524-5                000033
100003040000685150061220110068515006122011               0000000000000154524-6                000034
9000033                                                                                       000035
