0RETORNONOTIFICAÇÃO ELETRONICA        08082011REGI                                            000001
100002937500591771040820110059177104082011               0000000000000139600-1                000002
100002937600591772040820110059177204082011               0000000000000139600-2                000003
100002937700591773040820110059177304082011               0000000000000139600-3                000004
100002937800591774040820110059177404082011               0000000000000139600-4                000005
100002937900591775040820110059177504082011               0000000000000139600-5                000006
100002938000591776040820110059177604082011               0000000000000139600-6                000007
100002938100591777040820110059177704082011               0000000000000139600-7                000008
100002938200591778040820110059177804082011               0000000000000139600-8                000009
100002938900591779040820110059177904082011               0000000000000139600-9                000010
100002939700591780040820110059178004082011               0000000000000139600-10               000011
100002939800591781040820110059178104082011               0000000000000139600-11               000012
100002939900591782040820110059178204082011               0000000000000139600-12               000013
100002940000591783040820110059178304082011               0000000000000139600-13               000014
100002940100591784040820110059178404082011               0000000000000139600-14               000015
100002940200591785040820110059178504082011               0000000000000139600-15               000016
100002940300591786040820110059178604082011               0000000000000139600-16               000017
100002940400591787040820110059178704082011               0000000000000139600-17               000018
100002940500591788040820110059178804082011               0000000000000139600-18               000019
100002940600591789040820110059178904082011               0000000000000139600-19               000020
100002940700591790040820110059179004082011               0000000000000139600-20               000021
100002940800591791040820110059179104082011               0000000000000139600-21               000022
100002940900591792040820110059179204082011               0000000000000139600-22               000023
100002941000591793040820110059179304082011               0000000000000139600-23               000024
100002941100591794040820110059179404082011               0000000000000139600-24               000025
100002941200591795040820110059179504082011               0000000000000139600-25               000026
100002941300591796040820110059179604082011               0000000000000139600-26               000027
100002941400591797040820110059179704082011               0000000000000139600-27               000028
100002941500591798040820110059179804082011               0000000000000139600-28               000029
100002941600591799040820110059179904082011               0000000000000139600-30               000030
100002941700591800040820110059180004082011               0000000000000139600-32               000031
100002941800591801040820110059180104082011               0000000000000139600-34               000032
100002941900591802040820110059180204082011               0000000000000139600-36               000033
100002942000591803040820110059180304082011               0000000000000139600-37               000034
100002942100591804040820110059180404082011               0000000000000139600-39               000035
100002942200591805040820110059180504082011               0000000000000139600-40               000036
100002942300591806040820110059180604082011               0000000000000139600-42               000037
100002942400591807040820110059180704082011               0000000000000139600-43               000038
100002942500591808040820110059180804082011               0000000000000139600-44               000039
100002942600591809040820110059180904082011               0000000000000139600-46               000040
100002942700591810040820110059181004082011               0000000000000139600-48               000041
100002942800591811040820110059181104082011               0000000000000139600-49               000042
100002942900591812040820110059181204082011               0000000000000139600-51               000043
100002943000591813040820110059181304082011               0000000000000139600-54               000044
100002943100591814040820110059181404082011               0000000000000139600-57               000045
100002943200591815040820110059181504082011               0000000000000139600-60               000046
100002943300591816040820110059181604082011               0000000000000139600-63               000047
100002943400591817040820110059181704082011               0000000000000139600-66               000048
100002943500591818040820110059181804082011               0000000000000139600-70               000049
100002943600591819040820110059181904082011               0000000000000139600-74               000050
100002943700591820040820110059182004082011               0000000000000139600-77               000051
100002943800591821040820110059182104082011               0000000000000139600-82               000052
100002943900591822040820110059182204082011               0000000000000139600-86               000053
100002944000591823040820110059182304082011               0000000000000139600-88               000054
9000053                                                                                       000055
