0RETORNONOTIFICAÇÃO ELETRONICA        04092013REGI                                            000001
100004380101027052030920130102705203092013               0000000000000254899-1                000002
100004378001027053030920130102705303092013               0000000000000254899-2                000003
100004380001027054030920130102705403092013               0000000000000254899-3                000004
100004378701027055030920130102705503092013               0000000000000254899-4                000005
100004379101027056030920130102705603092013               0000000000000254899-5                000006
9000005                                                                                       000007
