0RETORNONOTIFICAÇÃO ELETRONICA        19122011REGI                                            000001
100003253100690509161220110069050916122011               0000000000000155833-1                000002
100003253200690510161220110069051016122011               0000000000000155833-2                000003
100003253300690511161220110069051116122011               0000000000000155833-3                000004
100003253400690512161220110069051216122011               0000000000000155833-4                000005
9000004                                                                                       000006
