0RETORNONOTIFICAÇÃO ELETRONICA        19082013REGI                                            000001
100004354401016880160820130101688016082013               0000000000000252026-1                000002
100004354501016881160820130101688116082013               0000000000000252026-2                000003
100004357901016882160820130101688216082013               0000000000000252027-1                000004
100004357801016883160820130101688316082013               0000000000000252027-3                000005
100004358001016884160820130101688416082013               0000000000000252027-4                000006
9000005                                                                                       000007
