0RETORNONOTIFICAÇÃO ELETRONICA        26072010REGI                                            000001
100002088200256523120320100025652312032010FR584484065BR  000001903201088836-1                 000002
100002088300256524120320100025652412032010FR584484074BR  000001903201088836-2                 000003
100002088400256525120320100025652512032010FR584484088BR  000001903201088836-3                 000004
100002088500256526120320100025652612032010FR584484091BR  000002203201088836-4                 000005
100002090500257854160320100025785416032010FR584498665BR  000002303201089202-1                 000006
100002090600257855160320100025785516032010FR584498674BR  000052503201089202-2                 000007
100002090700257856160320100025785616032010FR584498688BR  000002303201089202-3                 000008
100002090700282990210520100028299021052010               000000000000089202-4                 000009
100002090800257857160320100025785716032010FR584498691BR  000002503201089202-5                 000010
100002090800282991210520100028299121052010               000000000000089202-6                 000011
100002089600257858160320100025785816032010FR584498705BR  000002303201089480-1                 000012
100002090400257859160320100025785916032010FR584498714BR  000002503201089480-2                 000013
100002093200257860160320100025786016032010FR584498728BR  000002303201089480-3                 000014
100002093300257861160320100025786116032010FR584498731BR  000002303201089480-4                 000015
100002093400257862160320100025786216032010FR584498745BR  000002403201089480-5                 000016
100002093500257863160320100025786316032010FR584498759BR  000052403201089480-6                 000017
100002093600257864160320100025786416032010FR584498762BR  000002403201089480-7                 000018
100002093600282992210520100028299221052010               000000000000089480-8                 000019
100002096100259904190320100025990419032010FR584519445BR  000002503201089765-1                 000020
100002098500259905190320100025990519032010FR584519459BR  000002503201089880-1                 000021
100002098600259906190320100025990619032010FR584519462BR  000002503201089880-2                 000022
100002098700259907190320100025990719032010FR584519476BR  000002503201089880-3                 000023
100002098800259908190320100025990819032010FR584519480BR  000002403201089880-4                 000024
100002100900259894190320100025989419032010FR584519343BR  000002503201090014-1                 000025
100002101000259895190320100025989519032010FR584519357BR  000002403201090014-2                 000026
100002101100259896190320100025989619032010FR584519365BR  000002503201090014-3                 000027
100002101200259897190320100025989719032010FR584519374BR  000002503201090014-4                 000028
100002101300259898190320100025989819032010FR584519388BR  000003003201090014-5                 000029
100002101400259899190320100025989919032010FR584519391BR  000002403201090014-6                 000030
100002101500259900190320100025990019032010FR584519405BR  000002403201090014-7                 000031
100002101600259901190320100025990119032010FR584519414BR  000002403201090014-8                 000032
100002101700259902190320100025990219032010FR584519428BR  000002403201090014-9                 000033
100002101800259903190320100025990319032010FR584519431BR  000002403201090014-10                000034
100002101800282957210520100028295721052010               000000000000090014-11                000035
100002104400260963220320100026096322032010FR584529915BR  000000104201090110-2                 000036
100002104500260964220320100026096422032010FR584529924BR  000003003201090110-3                 000037
100002104600260965220320100026096522032010FR584529938BR  000013003201090110-4                 000038
100002104700260966220320100026096622032010FR584529941BR  000000504201090110-5                 000039
100002104800260967220320100026096722032010FR584529955BR  000000104201090110-7                 000040
100002097100262548240320100026254824032010FR584546397BR  000013103201090340-1                 000041
100002097500262549240320100026254924032010FR584546406BR  000000704201090340-2                 000042
100002098100262550240320100026255024032010               000000000000090340-3                 000043
100002105800262551240320100026255124032010FR584546423BR  000003103201090340-4                 000044
100002106300262552240320100026255224032010FR584546437BR  000003103201090340-5                 000045
100002127700270330060420100027033006042010               000000000000091869-6                 000046
100002132400270346060420100027034606042010FR584625086BR  000001504201092054-14                000047
100002149000274699130420100027469913042010FR584669569BR  000002204201092912-10                000048
100002332200307573230720100030757323072010               0000000000000106309-1                000049
100002332300307574230720100030757423072010               0000000000000106309-3                000050
100002332400307575230720100030757523072010               0000000000000106309-4                000051
100002334900307576230720100030757623072010               0000000000000106450-1                000052
100002335000307577230720100030757723072010               0000000000000106450-2                000053
100002335100307578230720100030757823072010               0000000000000106450-7                000054
100002335200307579230720100030757923072010               0000000000000106450-11               000055
100002335300307580230720100030758023072010               0000000000000106450-12               000056
100002335400307581230720100030758123072010               0000000000000106450-13               000057
9000056                                                                                       000058
