0RETORNONOTIFICAÇÃO ELETRONICA        24092013REGI                                            000001
100004409001034743170920130103474317092013FA159330132BR  0000020092013257379-1                000002
100004408901034744170920130103474417092013               0000000000000257379-2                000003
100004408701034745170920130103474517092013               0000000000000257379-4                000004
100004406601034746170920130103474617092013               0000000000000257379-5                000005
100004411201034747170920130103474717092013FA159330177BR  0000023092013257379-6                000006
100004408801034748170920130103474817092013               0000000000000257379-7                000007
100004411101034749170920130103474917092013FA159330194BR  0000023092013257379-8                000008
100004411601034750170920130103475017092013               0000000000000257596-1                000009
100004411501034751170920130103475117092013               0000000000000257596-2                000010
100004411401034752170920130103475217092013               0000000000000257596-3                000011
100004411301034753170920130103475317092013               0000000000000257596-4                000012
100004414101037851230920130103785123092013               0000000000000258055-1                000013
100004413701037852230920130103785223092013               0000000000000258055-4                000014
100004413901037853230920130103785323092013               0000000000000258055-5                000015
100004413801037854230920130103785423092013               0000000000000258055-6                000016
100004414001037855230920130103785523092013               0000000000000258055-7                000017
100004417301037856230920130103785623092013               0000000000000258282-1                000018
100004416901037857230920130103785723092013               0000000000000258282-2                000019
100004417401037858230920130103785823092013               0000000000000258282-3                000020
100004417001037859230920130103785923092013               0000000000000258282-4                000021
100004417201037860230920130103786023092013               0000000000000258282-5                000022
100004417101037861230920130103786123092013               0000000000000258282-6                000023
100004415201037862230920130103786223092013               0000000000000258282-7                000024
100004400001037863230920130103786323092013               0000000000000258282-8                000025
100004399701037864230920130103786423092013               0000000000000258282-9                000026
100004399901037865230920130103786523092013               0000000000000258282-10               000027
100004402501037866230920130103786623092013               0000000000000258282-11               000028
100004403001037867230920130103786723092013               0000000000000258282-12               000029
100004417501037868230920130103786823092013               0000000000000258282-13               000030
100004417601037869230920130103786923092013               0000000000000258282-14               000031
100004419001037870230920130103787023092013               0000000000000258386-1                000032
100004418901037871230920130103787123092013               0000000000000258386-2                000033
100004420601037872230920130103787223092013               0000000000000258386-3                000034
100004418801037873230920130103787323092013               0000000000000258386-4                000035
9000034                                                                                       000036
