0RETORNONOTIFICAÇÃO ELETRONICA        13112014REGI                                            000001
100005005401377810121120140137781012112014               0000000000000332394-1                000002
100005005501377811121120140137781112112014               0000000000000332394-2                000003
100005005601377812121120140137781212112014               0000000000000332394-3                000004
100005005701377813121120140137781312112014               0000000000000332394-4                000005
100005006101377814121120140137781412112014               0000000000000332394-5                000006
100005006201377815121120140137781512112014               0000000000000332394-6                000007
100005006301377816121120140137781612112014               0000000000000332394-8                000008
100005006401377817121120140137781712112014               0000000000000332394-16               000009
100005006501377818121120140137781812112014               0000000000000332394-17               000010
9000009                                                                                       000011
