0RETORNONOTIFICAÇÃO ELETRONICA        04052011REGI                                            000001
100002743100529082040520110052908204052011               0000000000000129440-1                000002
100002743200529083040520110052908304052011               0000000000000129440-2                000003
100002743300529084040520110052908404052011               0000000000000129440-3                000004
100002743600529085040520110052908504052011               0000000000000129440-4                000005
9000004                                                                                       000006
