0RETORNONOTIFICAÇÃO ELETRONICA        27092011REGI                                            000001
100003077200632844260920110063284426092011               0000000000000145748-1                000002
100003077300632845260920110063284526092011               0000000000000145748-3                000003
100003080100632846260920110063284626092011               0000000000000145748-5                000004
100003080200632847260920110063284726092011               0000000000000145817-1                000005
100003082100632848260920110063284826092011               0000000000000145817-2                000006
9000005                                                                                       000007
