0RETORNONOTIFICAÇÃO ELETRONICA        20122010REGI                                            000001
100002542600438866201220100043886620122010               0000000000000118264-1                000002
100002546600438867201220100043886720122010               0000000000000118264-2                000003
100002546700438868201220100043886820122010               0000000000000118264-3                000004
100002546800438869201220100043886920122010               0000000000000118264-4                000005
100002546900438870201220100043887020122010               0000000000000118264-5                000006
100002547000438871201220100043887120122010               0000000000000118264-6                000007
100002547100438872201220100043887220122010               0000000000000118264-7                000008
100002547200438873201220100043887320122010               0000000000000118264-8                000009
100002547300438874201220100043887420122010               0000000000000118264-9                000010
100002547400438875201220100043887520122010               0000000000000118264-10               000011
100002548000438876201220100043887620122010               0000000000000118264-11               000012
100002549200438877201220100043887720122010               0000000000000118338-1                000013
100002549300438878201220100043887820122010               0000000000000118338-2                000014
100002549400438879201220100043887920122010               0000000000000118338-3                000015
100002549500438880201220100043888020122010               0000000000000118338-4                000016
100002549600438881201220100043888120122010               0000000000000118338-5                000017
100002549700438882201220100043888220122010               0000000000000118338-6                000018
100002549800438883201220100043888320122010               0000000000000118338-7                000019
100002550600438884201220100043888420122010               0000000000000118338-9                000020
9000019                                                                                       000021
