0RETORNONOTIFICAÇÃO ELETRONICA        07072011REGI                                            000001
100002827300569683040720110056968304072011               0000000000000135396-1                000002
100002827400569684040720110056968404072011               0000000000000135396-2                000003
100002827500569685040720110056968504072011               0000000000000135396-3                000004
100002827600569686040720110056968604072011               0000000000000135396-4                000005
100002828800569687040720110056968704072011               0000000000000135396-5                000006
100002829700569688040720110056968804072011               0000000000000135396-6                000007
100002829900569689040720110056968904072011               0000000000000135396-7                000008
100002830600569690040720110056969004072011               0000000000000135396-8                000009
100002830900569691040720110056969104072011               0000000000000135396-9                000010
100002832100569692040720110056969204072011               0000000000000135396-10               000011
100002832200569693040720110056969304072011               0000000000000135396-11               000012
100002832300569694040720110056969404072011               0000000000000135396-12               000013
100002832400569695040720110056969504072011               0000000000000135396-14               000014
100002832700569696040720110056969604072011               0000000000000135396-15               000015
100002833600569697040720110056969704072011               0000000000000135396-16               000016
100002833800569698040720110056969804072011               0000000000000135396-18               000017
100002829800569699040720110056969904072011               0000000000000135401-1                000018
100002832900569700040720110056970004072011               0000000000000135401-2                000019
100002833900569701040720110056970104072011               0000000000000135401-3                000020
100002830000569702040720110056970204072011               0000000000000135404-1                000021
100002830100569703040720110056970304072011               0000000000000135404-2                000022
100002833000569704040720110056970404072011               0000000000000135404-3                000023
100002835600569705040720110056970504072011               0000000000000135404-4                000024
100002835700569706040720110056970604072011               0000000000000135404-5                000025
100002836200569707040720110056970704072011               0000000000000135404-6                000026
100002836300569708040720110056970804072011               0000000000000135404-8                000027
100002836400569709040720110056970904072011               0000000000000135404-9                000028
100002836500569710040720110056971004072011               0000000000000135404-10               000029
100002836600569711040720110056971104072011               0000000000000135404-11               000030
100002836700569712040720110056971204072011               0000000000000135404-12               000031
100002836800569713040720110056971304072011               0000000000000135404-13               000032
100002836900569714040720110056971404072011               0000000000000135404-14               000033
100002834300569715040720110056971504072011               0000000000000135406-1                000034
100002837000569716040720110056971604072011               0000000000000135406-2                000035
100002837100569717040720110056971704072011               0000000000000135406-3                000036
100002837200569718040720110056971804072011               0000000000000135406-4                000037
100002837300569719040720110056971904072011               0000000000000135406-5                000038
100002837400569720040720110056972004072011               0000000000000135406-6                000039
100002837500569721040720110056972104072011               0000000000000135406-7                000040
100002837600569722040720110056972204072011               0000000000000135406-8                000041
100002837700569723040720110056972304072011               0000000000000135406-9                000042
100002839000569724040720110056972404072011               0000000000000135406-10               000043
100002839900569725040720110056972504072011               0000000000000135406-11               000044
100002840000569726040720110056972604072011               0000000000000135695-1                000045
100002840100569727040720110056972704072011               0000000000000135695-2                000046
100002840200569728040720110056972804072011               0000000000000135695-3                000047
100002840300569729040720110056972904072011               0000000000000135695-4                000048
100002840400569730040720110056973004072011               0000000000000135695-5                000049
100002841600569731040720110056973104072011               0000000000000135695-6                000050
100002841800569732040720110056973204072011               0000000000000135695-20               000051
100002842300569733040720110056973304072011               0000000000000135695-21               000052
100002843200569734040720110056973404072011               0000000000000135695-22               000053
100002843400569735040720110056973504072011               0000000000000135717-1                000054
100002843500569736040720110056973604072011               0000000000000135717-3                000055
100002843600569737040720110056973704072011               0000000000000135717-4                000056
100002843700569738040720110056973804072011               0000000000000135717-5                000057
100002844700572871050720110057287105072011               0000000000000135910-1                000058
100002844800572872050720110057287205072011               0000000000000135910-2                000059
100002844900572873050720110057287305072011               0000000000000135910-3                000060
100002845000572874050720110057287405072011               0000000000000135910-4                000061
100002845100572875050720110057287505072011               0000000000000135910-5                000062
100002845200572876050720110057287605072011               0000000000000135910-6                000063
100002850300572877050720110057287705072011               0000000000000135910-7                000064
100002850400572878050720110057287805072011               0000000000000135910-11               000065
100002850500572879050720110057287905072011               0000000000000135910-21               000066
100002850600572880050720110057288005072011               0000000000000135910-23               000067
100002850700572881050720110057288105072011               0000000000000135910-30               000068
100002850800572882050720110057288205072011               0000000000000135910-39               000069
100002850900572883050720110057288305072011               0000000000000135910-49               000070
100002851000572884050720110057288405072011               0000000000000135910-61               000071
9000070                                                                                       000072
