0RETORNONOTIFICAÇÃO ELETRONICA        30082011REGI                                            000001
100002959000613096260820110061309626082011               0000000000000142149-1                000002
100002967400613097260820110061309726082011               0000000000000142149-2                000003
100002968900613098260820110061309826082011               0000000000000142149-3                000004
100002969000613099260820110061309926082011               0000000000000142149-4                000005
100002969100613100260820110061310026082011               0000000000000142149-6                000006
100002975900613101260820110061310126082011               0000000000000142149-7                000007
100002976000613102260820110061310226082011               0000000000000142150-1                000008
100002976100613103260820110061310326082011               0000000000000142150-2                000009
100002976200613104260820110061310426082011               0000000000000142150-3                000010
100002976300613105260820110061310526082011               0000000000000142150-4                000011
100002977100613106260820110061310626082011               0000000000000142150-5                000012
100002977500613107260820110061310726082011               0000000000000142150-6                000013
100002977600613108260820110061310826082011               0000000000000142198-1                000014
100002977700613109260820110061310926082011               0000000000000142198-2                000015
100002977800613110260820110061311026082011               0000000000000142198-3                000016
9000015                                                                                       000017
