0RETORNONOTIFICAÇÃO ELETRONICA        02102014REGI                                            000001
100004950101331776230920140133177623092014               0000000000000323608-320              000002
100004950201331777230920140133177723092014FA294580032BR  0000029092014323608-321              000003
100004950301331778230920140133177823092014               0000000000000323608-322              000004
100004950401331779230920140133177923092014FA294580050BR  0000030092014323608-323              000005
100004950501331780230920140133178023092014FA294580063BR  0000430092014323608-324              000006
100004950601331781230920140133178123092014FA294580077BR  0000030092014323608-326              000007
100004950701331782230920140133178223092014FA294580085BR  0000029092014323608-327              000008
100004950801331783230920140133178323092014FA294580094BR  0000030092014323608-328              000009
100004950901331784230920140133178423092014FA294580103BR  0000030092014323608-329              000010
100004951001331785230920140133178523092014               0000000000000323608-330              000011
100004951101331786230920140133178623092014               0000000000000323608-331              000012
100004951201331787230920140133178723092014               0000000000000323608-332              000013
100004951301331788230920140133178823092014FA294580148BR  0000029092014323608-333              000014
100004951401331789230920140133178923092014               0000000000000323608-334              000015
100004951501331790230920140133179023092014FA294580165BR  0000029092014323608-335              000016
100004951601331791230920140133179123092014               0000000000000323608-336              000017
100004951701331792230920140133179223092014               0000000000000323608-337              000018
100004951801331793230920140133179323092014               0000000000000323608-338              000019
100004951901331794230920140133179423092014FA294580205BR  0000029092014323608-339              000020
100004952001331795230920140133179523092014FA294580219BR  0000230092014323608-340              000021
100004952101331796230920140133179623092014               0000000000000323608-341              000022
100004952201331797230920140133179723092014               0000000000000323608-342              000023
100004952301331798230920140133179823092014               0000000000000323608-343              000024
100004952401331799230920140133179923092014               0000000000000323608-344              000025
100004952501331800230920140133180023092014               0000000000000323608-345              000026
100004952601331801230920140133180123092014               0000000000000323608-346              000027
100004952701331802230920140133180223092014FA294580284BR  0000030092014323608-347              000028
100004952801331803230920140133180323092014FA294580298BR  0000026092014323608-348              000029
100004952901331804230920140133180423092014FA294580307BR  0000030092014323608-349              000030
100004953001331805230920140133180523092014               0000000000000323608-350              000031
100004953101331806230920140133180623092014               0000000000000323608-351              000032
100004953201331807230920140133180723092014               0000000000000323608-352              000033
100004953301331808230920140133180823092014FA294580341BR  0000030092014323608-353              000034
100004953401331809230920140133180923092014               0000000000000323608-355              000035
100004953501331810230920140133181023092014               0000000000000323608-356              000036
100004953601331811230920140133181123092014               0000000000000323608-357              000037
100004953701331812230920140133181223092014               0000000000000323608-358              000038
100004953801331813230920140133181323092014               0000000000000323608-359              000039
100004953901331814230920140133181423092014               0000000000000323608-360              000040
100004954001331815230920140133181523092014FA294580412BR  0000029092014323608-361              000041
100004954101331816230920140133181623092014               0000000000000323608-362              000042
100004954201331817230920140133181723092014               0000000000000323608-363              000043
100004954301331818230920140133181823092014               0000000000000323608-364              000044
100004954401331819230920140133181923092014               0000000000000323608-365              000045
100004954501331820230920140133182023092014               0000000000000323608-366              000046
100004954601331821230920140133182123092014FA294580474BR  0000029092014323608-368              000047
100004954701331822230920140133182223092014               0000000000000323608-369              000048
100004954801331823230920140133182323092014               0000000000000323608-370              000049
100004954901331824230920140133182423092014               0000000000000323608-371              000050
100004955001331825230920140133182523092014FA294580514BR  0000030092014323608-372              000051
100004955101331826230920140133182623092014               0000000000000323608-373              000052
100004955201331827230920140133182723092014               0000000000000323608-374              000053
100004955301331828230920140133182823092014FA294580545BR  0000029092014323608-375              000054
100004955401331829230920140133182923092014FA294580559BR  0000029092014323608-376              000055
100004955501331830230920140133183023092014               0000000000000323608-377              000056
100004955601331831230920140133183123092014               0000000000000323608-378              000057
100004955701331832230920140133183223092014               0000000000000323608-379              000058
100004955801331833230920140133183323092014FA294580593BR  0000029092014323608-380              000059
100004955901331834230920140133183423092014               0000000000000323608-381              000060
100004956001331835230920140133183523092014               0000000000000323608-382              000061
100004956101331836230920140133183623092014               0000000000000323608-383              000062
100004956201331837230920140133183723092014               0000000000000323608-384              000063
100004956301331838230920140133183823092014               0000000000000323608-385              000064
100004956401331839230920140133183923092014               0000000000000323608-386              000065
100004956501331840230920140133184023092014FA294580664BR  0000029092014323608-387              000066
100004956601331841230920140133184123092014               0000000000000323608-388              000067
100004956701331842230920140133184223092014               0000000000000323608-389              000068
100004956801331843230920140133184323092014FA294580695BR  0000426092014323608-390              000069
100004956901331844230920140133184423092014FA294580704BR  0000029092014323608-391              000070
100004957001331845230920140133184523092014FA294580718BR  0000029092014323608-392              000071
100004957101331846230920140133184623092014               0000000000000323608-393              000072
100004957201331847230920140133184723092014FA294580735BR  0000029092014323608-394              000073
100004957301331848230920140133184823092014               0000000000000323608-396              000074
100004957401331849230920140133184923092014FA294580752BR  0000130092014323608-397              000075
100004957501331850230920140133185023092014FA294580766BR  0000029092014323608-398              000076
100004957601331851230920140133185123092014               0000000000000323608-399              000077
100004957701331852230920140133185223092014               0000000000000323608-400              000078
100004957801331853230920140133185323092014               0000000000000323608-401              000079
100004957901331854230920140133185423092014FA294580806BR  0000029092014323608-402              000080
100004958001331855230920140133185523092014FA294580810BR  0000030092014323608-403              000081
100004958101331856230920140133185623092014               0000000000000323608-404              000082
100004958201331857230920140133185723092014               0000000000000323608-406              000083
100004958301331858230920140133185823092014               0000000000000323608-407              000084
100004958401331859230920140133185923092014               0000000000000323608-408              000085
100004958501331860230920140133186023092014FA294580868BR  0000030092014323608-409              000086
100004958601331861230920140133186123092014               0000000000000323608-410              000087
100004958701331862230920140133186223092014               0000000000000323608-411              000088
100004958801331863230920140133186323092014               0000000000000323608-412              000089
100004958901331864230920140133186423092014               0000000000000323608-413              000090
100004959001331865230920140133186523092014               0000000000000323608-414              000091
100004959101331866230920140133186623092014               0000000000000323608-415              000092
100004959201331867230920140133186723092014FA294580939BR  0000030092014323608-416              000093
100004959301331868230920140133186823092014               0000000000000323608-418              000094
100004959401331869230920140133186923092014               0000000000000323608-419              000095
100004959501331870230920140133187023092014               0000000000000323608-420              000096
100004959601331871230920140133187123092014FA294580973BR  0000026092014323608-421              000097
100004959701331872230920140133187223092014               0000000000000323608-422              000098
100004959801331873230920140133187323092014               0000000000000323608-423              000099
100004959901331874230920140133187423092014FA294581007BR  0000430092014323608-424              000100
100004960001331875230920140133187523092014FA294581015BR  0000030092014323608-425              000101
100004960101331876230920140133187623092014FA294581024BR  0000029092014323608-426              000102
100004960201331877230920140133187723092014               0000000000000323608-427              000103
100004960301331878230920140133187823092014               0000000000000323608-429              000104
100004960401331879230920140133187923092014FA294581055BR  0000029092014323608-430              000105
100004960501331880230920140133188023092014               0000000000000323608-432              000106
100004960601331881230920140133188123092014FA294581072BR  0000029092014323608-433              000107
100004960701331882230920140133188223092014               0000000000000323608-434              000108
100004960801331883230920140133188323092014               0000000000000323608-436              000109
100004960901331884230920140133188423092014FA294581109BR  0000429092014323608-437              000110
100004961001331885230920140133188523092014               0000000000000323608-438              000111
100004961101331886230920140133188623092014               0000000000000323608-439              000112
100004961201331887230920140133188723092014FA294581130BR  0000029092014323608-440              000113
100004961301331888230920140133188823092014               0000000000000323608-442              000114
100004961401331889230920140133188923092014               0000000000000323608-443              000115
100004961501331890230920140133189023092014FA294581165BR  0000029092014323608-444              000116
100004961601331891230920140133189123092014FA294581174BR  0000030092014323608-445              000117
100004961701331892230920140133189223092014               0000000000000323608-447              000118
100004961801331893230920140133189323092014               0000000000000323608-448              000119
100004961901331894230920140133189423092014               0000000000000323608-449              000120
100004962001331895230920140133189523092014               0000000000000323608-450              000121
100004962101331896230920140133189623092014FA294581228BR  0000029092014323608-451              000122
100004962201331897230920140133189723092014               0000000000000323608-452              000123
100004962301331898230920140133189823092014               0000000000000323608-453              000124
100004962401331899230920140133189923092014               0000000000000323608-454              000125
100004962501331900230920140133190023092014               0000000000000323608-455              000126
100004962601331901230920140133190123092014               0000000000000323608-456              000127
100004962701331902230920140133190223092014               0000000000000323608-457              000128
100004962801331903230920140133190323092014FA294581293BR  0000030092014323608-458              000129
100004962901331904230920140133190423092014               0000000000000323608-460              000130
100004963001331905230920140133190523092014               0000000000000323608-461              000131
100004963101331906230920140133190623092014               0000000000000323608-462              000132
100004963201331907230920140133190723092014               0000000000000323608-463              000133
100004963301331908230920140133190823092014FA294581347BR  0000029092014323608-464              000134
100004963401331909230920140133190923092014               0000000000000323608-465              000135
100004963501331910230920140133191023092014FA294581364BR  0000029092014323608-466              000136
100004963601331911230920140133191123092014               0000000000000323608-468              000137
100004963701331912230920140133191223092014               0000000000000323608-469              000138
100004963801331913230920140133191323092014               0000000000000323608-470              000139
100004963901331914230920140133191423092014               0000000000000323608-471              000140
100004964001331915230920140133191523092014FA294581418BR  0000029092014323608-472              000141
100004964101331916230920140133191623092014FA294581421BR  0000030092014323608-473              000142
100004964201331917230920140133191723092014FA294581435BR  0001230092014323608-474              000143
100004964301331918230920140133191823092014FA294581449BR  0000030092014323608-476              000144
100004964401331919230920140133191923092014               0000000000000323608-477              000145
100004964501331920230920140133192023092014FA294581466BR  0000029092014323608-478              000146
100004964601331921230920140133192123092014FA294581470BR  0000029092014323608-479              000147
100004964701331922230920140133192223092014               0000000000000323608-480              000148
100004964801331923230920140133192323092014               0000000000000323608-481              000149
100004964901331924230920140133192423092014FA294581506BR  0000429092014323608-482              000150
100004965001331925230920140133192523092014               0000000000000323608-483              000151
100004965101331926230920140133192623092014               0000000000000323608-484              000152
100004965201331927230920140133192723092014FA294581537BR  0000029092014323608-485              000153
100004965301331928230920140133192823092014FA294581545BR  0000030092014323608-486              000154
100004965401331929230920140133192923092014FA294581554BR  0000029092014323608-487              000155
100004965501331930230920140133193023092014               0000000000000323608-488              000156
100004965601331931230920140133193123092014FA294581571BR  0000029092014323608-489              000157
100004965701331932230920140133193223092014FA294581585BR  0000029092014323608-490              000158
100004965801331933230920140133193323092014FA294581599BR  0000026092014323608-491              000159
100004965901331934230920140133193423092014               0000000000000323608-493              000160
100004966001331935230920140133193523092014               0000000000000323608-494              000161
100004966101331936230920140133193623092014               0000000000000323608-495              000162
100004966201331937230920140133193723092014               0000000000000323608-496              000163
100004966301331938230920140133193823092014               0000000000000323608-497              000164
100004966401331939230920140133193923092014FA294581656BR  0000029092014323608-498              000165
100004966501331940230920140133194023092014               0000000000000323608-500              000166
100004966601331941230920140133194123092014               0000000000000323608-501              000167
100004966701331942230920140133194223092014               0000000000000323608-502              000168
100004966801331943230920140133194323092014FA294581695BR  0000029092014323608-503              000169
100004966901331944230920140133194423092014               0000000000000323608-504              000170
100004967001331945230920140133194523092014               0000000000000323608-505              000171
100004967101331946230920140133194623092014               0000000000000323608-506              000172
100004967201331947230920140133194723092014FA294581735BR  0000029092014323608-507              000173
100004967301331948230920140133194823092014               0000000000000323608-508              000174
100004967401331949230920140133194923092014FA294581758BR  0000029092014323608-509              000175
100004967501331950230920140133195023092014               0000000000000323608-510              000176
100004967601331951230920140133195123092014FA294581775BR  0000029092014323608-511              000177
100004967701331952230920140133195223092014               0000000000000323608-512              000178
100004967801331953230920140133195323092014FA294581792BR  0000129092014323608-513              000179
100004967901331954230920140133195423092014               0000000000000323608-514              000180
100004968001331955230920140133195523092014               0000000000000323608-515              000181
100004968101331956230920140133195623092014               0000000000000323608-517              000182
100004968201331957230920140133195723092014FA294581832BR  0000030092014323608-518              000183
100004968301331958230920140133195823092014FA294581846BR  0000130092014323608-520              000184
100004968401331959230920140133195923092014               0000000000000323608-522              000185
100004968501331960230920140133196023092014               0000000000000323608-523              000186
100004968601331961230920140133196123092014               0000000000000323608-524              000187
100004968701331962230920140133196223092014               0000000000000323608-525              000188
100004968801331963230920140133196323092014               0000000000000323608-526              000189
100004968901331964230920140133196423092014               0000000000000323608-527              000190
100004969001331965230920140133196523092014               0000000000000323608-528              000191
100004969101331966230920140133196623092014               0000000000000323608-529              000192
100004969201331967230920140133196723092014FA294581934BR  0000029092014323608-530              000193
100004969301331968230920140133196823092014FA294581948BR  0000030092014323608-531              000194
100004969401331969230920140133196923092014FA294581951BR  0000030092014323608-532              000195
100004969501331970230920140133197023092014FA294581965BR  0000029092014323608-534              000196
100004969601331971230920140133197123092014               0000000000000323608-535              000197
100004969701331972230920140133197223092014FA294581982BR  0000029092014323608-536              000198
100004969801331973230920140133197323092014               0000000000000323608-537              000199
100004969901331974230920140133197423092014               0000000000000323608-538              000200
100004970001331975230920140133197523092014               0000000000000323608-539              000201
100004970101331976230920140133197623092014               0000000000000323608-540              000202
100004970201331977230920140133197723092014FA294582033BR  0000029092014323608-541              000203
100004970301331978230920140133197823092014               0000000000000323608-542              000204
100004970401331979230920140133197923092014FA294582055BR  0000030092014323608-543              000205
100004970501331980230920140133198023092014FA294582064BR  0000026092014323608-544              000206
100004970601331981230920140133198123092014               0000000000000323608-545              000207
100004970701331982230920140133198223092014               0000000000000323608-546              000208
100004970801331983230920140133198323092014FA294582095BR  0000030092014323608-547              000209
100004970901331984230920140133198423092014FA294582104BR  0000029092014323608-548              000210
100004971001331985230920140133198523092014               0000000000000323608-549              000211
100004971101331986230920140133198623092014FA294582121BR  0000029092014323608-550              000212
100004971201331987230920140133198723092014               0000000000000323608-551              000213
100004971301331988230920140133198823092014FA294582149BR  0000029092014323608-552              000214
100004971401331989230920140133198923092014               0000000000000323608-553              000215
100004971501331990230920140133199023092014FA294582166BR  0000029092014323608-554              000216
100004971601331991230920140133199123092014FA294582170BR  0000029092014323608-555              000217
100004971701331992230920140133199223092014FA294582183BR  0000029092014323608-557              000218
100004971801331993230920140133199323092014FA294582197BR  0000226092014323608-559              000219
100004971901331994230920140133199423092014FA294582206BR  0000030092014323608-560              000220
100004972001331995230920140133199523092014FA294582210BR  0000029092014323608-561              000221
100004972101331996230920140133199623092014FA294582223BR  0000029092014323608-563              000222
100004972201331997230920140133199723092014               0000000000000323608-566              000223
100004972301331998230920140133199823092014               0000000000000323608-567              000224
100004972401331999230920140133199923092014               0000000000000323608-568              000225
100004972501332000230920140133200023092014               0000000000000323608-569              000226
100004972601332001230920140133200123092014FA294582271BR  0000029092014323608-570              000227
100004972701332002230920140133200223092014FA294582285BR  0000030092014323608-572              000228
100004972801332003230920140133200323092014               0000000000000323608-573              000229
100004972901332004230920140133200423092014FA294582308BR  0000029092014323608-574              000230
100004973001332005230920140133200523092014FA294582311BR  0000030092014323608-576              000231
100004973101332006230920140133200623092014               0000000000000323608-578              000232
100004973201332007230920140133200723092014               0000000000000323608-579              000233
100004973301332008230920140133200823092014FA294582342BR  0000030092014323608-580              000234
100004973401332009230920140133200923092014FA294582356BR  0000030092014323608-581              000235
100004973501332010230920140133201023092014FA294582360BR  0000029092014323608-582              000236
100004973601332011230920140133201123092014               0000000000000323608-584              000237
100004973701332012230920140133201223092014               0000000000000323608-585              000238
100004973801332013230920140133201323092014               0000000000000323608-586              000239
100004973901332014230920140133201423092014FA294582400BR  0000026092014323608-587              000240
100004974001332015230920140133201523092014               0000000000000323608-588              000241
100004974101332016230920140133201623092014               0000000000000323608-589              000242
100004974201332017230920140133201723092014               0000000000000323608-591              000243
100004974301332018230920140133201823092014               0000000000000323608-592              000244
100004974401332019230920140133201923092014               0000000000000323608-593              000245
100004974501332020230920140133202023092014FA294582461BR  0000026092014323608-594              000246
100004974601332021230920140133202123092014               0000000000000323608-595              000247
100004974701332022230920140133202223092014FA294582489BR  0000029092014323608-596              000248
100004974801332023230920140133202323092014               0000000000000323608-598              000249
100004974901332024230920140133202423092014               0000000000000323608-599              000250
100004975001332025230920140133202523092014FA294582515BR  0000029092014323608-600              000251
100004975101332026230920140133202623092014               0000000000000323608-601              000252
100004975201332027230920140133202723092014               0000000000000323608-602              000253
100004975301332028230920140133202823092014               0000000000000323608-603              000254
100004975401332029230920140133202923092014               0000000000000323608-605              000255
100004975501332030230920140133203023092014FA294582563BR  0000029092014323608-606              000256
100004975601332031230920140133203123092014FA294582577BR  0000030092014323608-607              000257
100004975701332032230920140133203223092014               0000000000000323608-608              000258
100004975801332033230920140133203323092014FA294582594BR  0000029092014323608-609              000259
100004975901332034230920140133203423092014               0000000000000323608-610              000260
100004976001332035230920140133203523092014FA294582617BR  0000030092014323608-611              000261
100004976101332036230920140133203623092014FA294582625BR  0000030092014323608-616              000262
100004976201332037230920140133203723092014               0000000000000323608-628              000263
100004976301332038230920140133203823092014               0000000000000323608-631              000264
100004976401332039230920140133203923092014               0000000000000323608-634              000265
100004976501332040230920140133204023092014               0000000000000323608-637              000266
100004976601332041230920140133204123092014               0000000000000323608-639              000267
100004976701332042230920140133204223092014               0000000000000323608-666              000268
100004976801332043230920140133204323092014               0000000000000323608-673              000269
100004976901332044230920140133204423092014               0000000000000323608-688              000270
100004977001332045230920140133204523092014               0000000000000323608-694              000271
100004977101332046230920140133204623092014               0000000000000323608-709              000272
100004977201332047230920140133204723092014               0000000000000323608-720              000273
100004977301332048230920140133204823092014               0000000000000323608-735              000274
100004977401332049230920140133204923092014               0000000000000323608-765              000275
100004977501332050230920140133205023092014               0000000000000323608-776              000276
100004977601332051230920140133205123092014               0000000000000323608-779              000277
100004977701332052230920140133205223092014               0000000000000323608-782              000278
100004977801332053230920140133205323092014               0000000000000323608-806              000279
100004977901332054230920140133205423092014               0000000000000323608-810              000280
100004978001332055230920140133205523092014               0000000000000323608-827              000281
100004978101332056230920140133205623092014FA294582824BR  0000029092014323608-830              000282
100004979401335724290920140133572429092014               0000000000000324399-1                000283
100004979501335725290920140133572529092014               0000000000000324399-2                000284
100004979601335726290920140133572629092014               0000000000000324399-3                000285
100004979701335727290920140133572729092014               0000000000000324399-4                000286
100004979801335728290920140133572829092014               0000000000000324399-5                000287
100004918301335729290920140133572929092014               0000000000000324659-1                000288
100004978301335730290920140133573029092014               0000000000000324659-2                000289
100004978401335731290920140133573129092014               0000000000000324659-3                000290
100004980401335732290920140133573229092014               0000000000000324659-4                000291
100004980501335733290920140133573329092014               0000000000000324659-5                000292
100004980601335734290920140133573429092014               0000000000000324659-6                000293
9000292                                                                                       000294
