0RETORNONOTIFICAÇÃO ELETRONICA        29042014REGI                                            000001
100004695101188171040420140118817104042014FA270894283BR  0000017042014293035-1                000002
100004695201188172040420140118817204042014FA270894297BR  0000014042014293035-2                000003
100004695301188173040420140118817304042014FA270894306BR  0000014042014293035-3                000004
100004696101188174040420140118817404042014FA270894310BR  0000014042014293067-1                000005
100004696201188175040420140118817504042014FA270894323BR  0000010042014293067-2                000006
100004697401188176040420140118817604042014FA270894337BR  0000011042014293722-1                000007
100004697501188177040420140118817704042014FA270894345BR  0000010042014293722-2                000008
100004697601188178040420140118817804042014FA270894354BR  0000011042014293722-3                000009
100004697701188179040420140118817904042014FA270894368BR  0000009042014293722-5                000010
100004697801188180040420140118818004042014FA270894371BR  0000009042014293722-6                000011
100004689201188181040420140118818104042014FA270894385BR  0000010042014293727-1                000012
100004691101188182040420140118818204042014FA270894399BR  0000014042014293727-2                000013
100004693301188183040420140118818304042014FA270894408BR  0000010042014293727-3                000014
100004695401188184040420140118818404042014FA270894411BR  0000014042014293727-4                000015
100004699901188185040420140118818504042014FA270894425BR  0000017042014293727-5                000016
100004700001188186040420140118818604042014FA270894439BR  0000010042014293727-6                000017
100004701701188187040420140118818704042014FA270894442BR  0000014042014293758-1                000018
100004701801188188040420140118818804042014FA270894456BR  0000011042014293758-2                000019
100004701901188189040420140118818904042014FA270894460BR  0000014042014293758-3                000020
100004702001188190040420140118819004042014FA270894473BR  0000014042014293758-4                000021
100004702101188191040420140118819104042014FA270894487BR  0000010042014293758-5                000022
100004703701189103070420140118910307042014FA270902081BR  0000017042014294068-1                000023
100004703801189104070420140118910407042014FA270902095BR  0000014042014294068-2                000024
100004703901189105070420140118910507042014FA270902104BR  0000010042014294068-3                000025
100004704001189106070420140118910607042014FA270902118BR  0000014042014294068-4                000026
100004704101189107070420140118910707042014FA270902121BR  0000014042014294068-5                000027
100004718401203860240420140120386024042014               0000000000000296803-1                000028
100004718501203861240420140120386124042014               0000000000000296803-2                000029
100004718601203862240420140120386224042014               0000000000000296803-3                000030
100004718701203863240420140120386324042014               0000000000000296803-4                000031
100004718801203864240420140120386424042014               0000000000000296803-5                000032
100004718901203865240420140120386524042014               0000000000000296803-6                000033
100004719001203866240420140120386624042014               0000000000000296803-7                000034
100004720401203867240420140120386724042014               0000000000000296804-1                000035
100004720501203868240420140120386824042014               0000000000000296804-2                000036
100004720601203869240420140120386924042014               0000000000000296804-3                000037
100004720701203870240420140120387024042014               0000000000000296804-4                000038
100004720801203871240420140120387124042014FA271026029BR  0000028042014296804-5                000039
100004722901203872240420140120387224042014FA271026032BR  0000028042014296805-1                000040
100004723001203873240420140120387324042014               0000000000000296805-2                000041
100004724001206600280420140120660028042014               0000000000000297531-1                000042
100004724101206601280420140120660128042014               0000000000000297531-2                000043
100004724201206602280420140120660228042014               0000000000000297531-3                000044
100004724301206603280420140120660328042014               0000000000000297531-5                000045
100004724401206604280420140120660428042014               0000000000000297531-9                000046
100004724501206605280420140120660528042014               0000000000000297531-10               000047
100004728901206606280420140120660628042014               0000000000000297533-1                000048
100004729001206607280420140120660728042014               0000000000000297533-2                000049
100004729101206608280420140120660828042014               0000000000000297533-3                000050
100004729201206609280420140120660928042014               0000000000000297533-4                000051
100004729301206610280420140120661028042014               0000000000000297533-5                000052
100004729401206611280420140120661128042014               0000000000000297533-6                000053
100004729501206612280420140120661228042014               0000000000000297533-9                000054
100004726401206613280420140120661328042014               0000000000000297539-1                000055
100004726501206614280420140120661428042014               0000000000000297539-2                000056
100004726601206615280420140120661528042014               0000000000000297539-4                000057
100004726701206616280420140120661628042014               0000000000000297539-6                000058
100004726801206617280420140120661728042014               0000000000000297539-7                000059
100004726901206618280420140120661828042014               0000000000000297539-8                000060
9000059                                                                                       000061
