0RETORNONOTIFICAÇÃO ELETRONICA        20062011REGI                                            000001
100002810200556504160620110055650416062011               0000000000000133979-1                000002
100002810300556505160620110055650516062011               0000000000000133979-2                000003
100002810400556506160620110055650616062011               0000000000000133979-3                000004
100002811200556507160620110055650716062011               0000000000000133979-4                000005
100002813400556508160620110055650816062011               0000000000000133979-5                000006
100002813600556509160620110055650916062011               0000000000000133979-6                000007
100002813700556510160620110055651016062011               0000000000000133979-7                000008
100002813900556511160620110055651116062011               0000000000000133979-8                000009
100002814600556512160620110055651216062011               0000000000000133979-9                000010
100002815100556513160620110055651316062011               0000000000000133979-10               000011
100002815200556514160620110055651416062011               0000000000000133979-11               000012
100002815300556515160620110055651516062011               0000000000000133979-12               000013
100002815400556516160620110055651616062011               0000000000000133979-13               000014
100002815800556517160620110055651716062011               0000000000000133979-14               000015
100002816000556518160620110055651816062011               0000000000000133979-15               000016
100002816800556519160620110055651916062011               0000000000000133979-16               000017
100002817000556520160620110055652016062011               0000000000000133979-17               000018
9000017                                                                                       000019
