0RETORNONOTIFICAÇÃO ELETRONICA        21092011REGI                                            000001
100003003900625142190920110062514219092011               0000000000000144571-1                000002
100003004000625143190920110062514319092011               0000000000000144571-3                000003
100003004100625144190920110062514419092011               0000000000000144571-9                000004
100003004400625145190920110062514519092011               0000000000000144571-19               000005
100003004500625146190920110062514619092011               0000000000000144571-20               000006
100003004600625147190920110062514719092011               0000000000000144571-21               000007
100003004700625148190920110062514819092011               0000000000000144571-22               000008
100003004800625149190920110062514919092011               0000000000000144571-23               000009
100003004900625150190920110062515019092011               0000000000000144571-24               000010
100003005000625151190920110062515119092011               0000000000000144571-25               000011
100003005100625152190920110062515219092011               0000000000000144571-26               000012
100003005200625137190920110062513719092011               0000000000000144758-1                000013
100003005300625138190920110062513819092011               0000000000000144758-4                000014
100003005400625139190920110062513919092011               0000000000000144758-6                000015
100003005500625140190920110062514019092011               0000000000000144758-7                000016
100003067200625141190920110062514119092011               0000000000000144758-8                000017
9000016                                                                                       000018
