0RETORNONOTIFICAÇÃO ELETRONICA        22042014REGI                                            000001
100004705301193840100420140119384010042014               0000000000000294333-1                000002
100004705401193841100420140119384110042014               0000000000000294333-2                000003
100004706801193842100420140119384210042014FA270943497BR  0000015042014294723-1                000004
100004706901193843100420140119384310042014               0000000000000294723-5                000005
100004707001193844100420140119384410042014               0000000000000294723-6                000006
100004707101193845100420140119384510042014FA270943523BR  0000017042014294723-7                000007
100004707201193846100420140119384610042014FA270943537BR  0000015042014294723-8                000008
100004707301193847100420140119384710042014               0000000000000294723-9                000009
100004707401193848100420140119384810042014FA270943554BR  0000017042014294723-10               000010
100004709001193849100420140119384910042014FA270943568BR  0000017042014294880-1                000011
100004709101193850100420140119385010042014               0000000000000294880-2                000012
100004709201193851100420140119385110042014FA270943585BR  0000816042014294880-3                000013
100004709301193852100420140119385210042014FA270943599BR  0000017042014294880-4                000014
100004709401193853100420140119385310042014               0000000000000294880-5                000015
100004709501193854100420140119385410042014               0000000000000294880-7                000016
100004709601193855100420140119385510042014FA270943625BR  0000016042014294880-8                000017
100004709701193856100420140119385610042014               0000000000000294880-9                000018
100004709801193857100420140119385710042014FA270943642BR  0000017042014294880-10               000019
100004709901193858100420140119385810042014FA270943656BR  0000017042014294880-11               000020
100004698101197127140420140119712714042014               0000000000000295349-1                000021
100004698201197128140420140119712814042014               0000000000000295349-2                000022
100004698301197129140420140119712914042014               0000000000000295349-3                000023
100004700601197130140420140119713014042014               0000000000000295349-4                000024
100004700701197131140420140119713114042014               0000000000000295349-5                000025
100004700901197132140420140119713214042014               0000000000000295349-6                000026
100004701301197133140420140119713314042014               0000000000000295349-7                000027
100004703301197134140420140119713414042014               0000000000000295349-8                000028
100004704401197135140420140119713514042014FA270973587BR  0000817042014295349-9                000029
100004705101197136140420140119713614042014               0000000000000295349-10               000030
100004705801197137140420140119713714042014               0000000000000295349-11               000031
100004706001197138140420140119713814042014               0000000000000295349-12               000032
100004710501197139140420140119713914042014               0000000000000295349-13               000033
100004710601197140140420140119714014042014               0000000000000295349-15               000034
100004710701197141140420140119714114042014               0000000000000295349-16               000035
100004710801197142140420140119714214042014FA270973658BR  0000117042014295349-17               000036
100004710901197143140420140119714314042014               0000000000000295349-18               000037
100004711001197144140420140119714414042014               0000000000000295349-19               000038
100004711101197145140420140119714514042014               0000000000000295349-20               000039
100004711801197146140420140119714614042014               0000000000000295349-21               000040
100004711901197147140420140119714714042014               0000000000000295349-22               000041
100004712001197148140420140119714814042014               0000000000000295349-23               000042
100004712101197149140420140119714914042014               0000000000000295350-1                000043
100004712201197150140420140119715014042014               0000000000000295350-2                000044
100004712301197151140420140119715114042014               0000000000000295350-3                000045
100004712401197152140420140119715214042014               0000000000000295350-5                000046
100004713401198951150420140119895115042014               0000000000000295643-1                000047
100004713501198952150420140119895215042014               0000000000000295643-2                000048
100004713601198953150420140119895315042014               0000000000000295643-3                000049
100004714401201045170420140120104517042014               0000000000000296021-1                000050
100004714501201046170420140120104617042014               0000000000000296021-2                000051
100004714601201047170420140120104717042014               0000000000000296021-3                000052
100004714701201048170420140120104817042014               0000000000000296021-4                000053
100004714801201049170420140120104917042014               0000000000000296021-5                000054
100004714901201050170420140120105017042014               0000000000000296021-6                000055
100004715001201051170420140120105117042014               0000000000000296021-7                000056
100004715101201052170420140120105217042014               0000000000000296021-8                000057
100004717001201053170420140120105317042014               0000000000000296104-1                000058
100004717201201054170420140120105417042014               0000000000000296104-2                000059
100004717301201055170420140120105517042014               0000000000000296104-3                000060
100004717401201056170420140120105617042014               0000000000000296104-4                000061
100004717501201057170420140120105717042014               0000000000000296104-6                000062
100004717601201058170420140120105817042014               0000000000000296104-7                000063
100004717701201059170420140120105917042014               0000000000000296104-9                000064
100004718301201060170420140120106017042014               0000000000000296104-10               000065
9000064                                                                                       000066
