0RETORNONOTIFICAÇÃO ELETRONICA        06042011REGI                                            000001
100002671500503894040420110050389404042011               0000000000000126648-1                000002
100002678100503895040420110050389504042011               0000000000000126648-2                000003
100002700400503896040420110050389604042011               0000000000000126648-3                000004
100002700500503897040420110050389704042011               0000000000000126648-4                000005
100002671200503898040420110050389804042011               0000000000000126825-1                000006
100002674000503899040420110050389904042011               0000000000000126825-2                000007
100002674100503900040420110050390004042011               0000000000000126825-3                000008
100002674200503901040420110050390104042011               0000000000000126825-4                000009
100002674600503902040420110050390204042011               0000000000000126825-5                000010
100002674700503903040420110050390304042011               0000000000000126825-6                000011
100002675200503904040420110050390404042011               0000000000000126825-7                000012
100002678600503905040420110050390504042011               0000000000000126825-8                000013
100002678700503906040420110050390604042011               0000000000000126825-9                000014
100002680500503907040420110050390704042011               0000000000000126825-10               000015
100002681100503908040420110050390804042011               0000000000000126825-11               000016
100002681400503909040420110050390904042011               0000000000000126825-12               000017
100002681500503910040420110050391004042011               0000000000000126825-13               000018
100002682700503911040420110050391104042011               0000000000000126825-14               000019
100002685300503912040420110050391204042011               0000000000000126825-15               000020
100002685700503913040420110050391304042011               0000000000000126825-16               000021
100002686700503914040420110050391404042011               0000000000000126825-17               000022
100002687200503915040420110050391504042011               0000000000000126825-18               000023
100002687700503916040420110050391604042011               0000000000000126825-19               000024
100002689100503917040420110050391704042011               0000000000000126825-20               000025
100002689700503918040420110050391804042011               0000000000000126825-21               000026
100002689900503919040420110050391904042011               0000000000000126825-22               000027
100002690300503920040420110050392004042011               0000000000000126825-23               000028
100002690700503921040420110050392104042011               0000000000000126825-24               000029
100002691000503922040420110050392204042011               0000000000000126825-25               000030
100002703400503923040420110050392304042011               0000000000000126825-26               000031
100002703500503924040420110050392404042011               0000000000000126825-27               000032
100002703600503925040420110050392504042011               0000000000000126825-28               000033
100002703700503926040420110050392604042011               0000000000000126825-29               000034
100002703800503927040420110050392704042011               0000000000000126825-30               000035
100002703900503928040420110050392804042011               0000000000000126825-31               000036
9000035                                                                                       000037
