0RETORNONOTIFICAÇÃO ELETRONICA        21122011REGI                                            000001
100003254200691273201220110069127320122011               0000000000000156150-1                000002
100003254300691274201220110069127420122011               0000000000000156150-2                000003
100003254400691275201220110069127520122011               0000000000000156150-8                000004
100003254500691276201220110069127620122011               0000000000000156150-14               000005
100003254600691277201220110069127720122011               0000000000000156150-15               000006
100003255800691278201220110069127820122011               0000000000000156150-16               000007
100003256000691280201220110069128020122011               0000000000000156150-61               000008
100003256100691281201220110069128120122011               0000000000000156150-67               000009
100003256200691282201220110069128220122011               0000000000000156150-72               000010
100003256300691283201220110069128320122011               0000000000000156150-77               000011
9000010                                                                                       000012
