0RETORNONOTIFICAÇÃO ELETRONICA        23112010REGI                                            000001
100002504200428912221120100042891222112010               0000000000000116030-1                000002
100002504700428913221120100042891322112010               0000000000000116030-2                000003
100002505700428914221120100042891422112010               0000000000000116030-3                000004
100002505800428915221120100042891522112010               0000000000000116030-4                000005
100002505900428916221120100042891622112010               0000000000000116030-5                000006
100002506000428917221120100042891722112010               0000000000000116030-6                000007
100002506100428918221120100042891822112010               0000000000000116030-7                000008
100002506300428919221120100042891922112010               0000000000000116030-8                000009
100002506900428920221120100042892022112010               0000000000000116030-9                000010
100002507000428921221120100042892122112010               0000000000000116030-10               000011
9000010                                                                                       000012
