0RETORNONOTIFICAÇÃO ELETRONICA        24112011REGI                                            000001
100003197400669872231120110066987223112011               0000000000000152354-1                000002
100003197500669873231120110066987323112011               0000000000000152354-2                000003
100003197600669874231120110066987423112011               0000000000000152354-3                000004
100003197700669875231120110066987523112011               0000000000000152354-7                000005
100003197800669876231120110066987623112011               0000000000000152354-8                000006
100003199100669877231120110066987723112011               0000000000000152357-1                000007
100003199200669878231120110066987823112011               0000000000000152357-2                000008
100003199300669879231120110066987923112011               0000000000000152357-3                000009
100003199400669880231120110066988023112011               0000000000000152357-4                000010
9000009                                                                                       000011
