0RETORNONOTIFICAÇÃO ELETRONICA        30112010REGI                                            000001
100002508100432786301120100043278630112010               0000000000000116662-1                000002
100002508800432787301120100043278730112010               0000000000000116662-2                000003
100002512400432788301120100043278830112010               0000000000000116662-3                000004
100002515900432789301120100043278930112010               0000000000000116662-4                000005
100002519400432790301120100043279030112010               0000000000000116662-5                000006
100002519900432791301120100043279130112010               0000000000000116662-6                000007
100002520000432792301120100043279230112010               0000000000000116662-7                000008
100002520100432793301120100043279330112010               0000000000000116662-8                000009
100002521100432794301120100043279430112010               0000000000000116662-9                000010
100002521600432795301120100043279530112010               0000000000000116662-10               000011
100002521700432796301120100043279630112010               0000000000000116662-11               000012
100002521800432797301120100043279730112010               0000000000000116662-12               000013
100002521900432798301120100043279830112010               0000000000000116662-16               000014
9000013                                                                                       000015
