0RETORNONOTIFICAÇÃO ELETRONICA        30062014REGI                                            000001
100004825101257174260620140125717426062014               0000000000000307280-1                000002
100004825201257175260620140125717526062014               0000000000000307280-2                000003
100004825301257176260620140125717626062014               0000000000000307280-3                000004
100004825401257177260620140125717726062014FA283093771BR  0000030062014307280-4                000005
100004825501257178260620140125717826062014FA283093785BR  0000030062014307280-5                000006
100004825601257179260620140125717926062014               0000000000000307280-6                000007
100004825701257180260620140125718026062014               0000000000000307383-1                000008
100004825801257181260620140125718126062014               0000000000000307383-2                000009
100004825901257182260620140125718226062014FA283093825BR  0000030062014307383-3                000010
9000009                                                                                       000011
