0RETORNONOTIFICAÇÃO ELETRONICA        16102012REGI                                            000001
100003812600841352151020120084135215102012               0000000000000198600-1                000002
100003814400841353151020120084135315102012               0000000000000198600-2                000003
100003814500841354151020120084135415102012               0000000000000198600-3                000004
100003814600841355151020120084135515102012               0000000000000198600-4                000005
100003814700841356151020120084135615102012               0000000000000198600-17               000006
100003814800841357151020120084135715102012               0000000000000198600-18               000007
100003814900841358151020120084135815102012               0000000000000198600-19               000008
100003815300841359151020120084135915102012               0000000000000198600-20               000009
100003813600841360151020120084136015102012               0000000000000198602-1                000010
100003816200841361151020120084136115102012               0000000000000198602-2                000011
100003816300841362151020120084136215102012               0000000000000198602-4                000012
100003816400841363151020120084136315102012               0000000000000198602-5                000013
100003816500841364151020120084136415102012               0000000000000198602-6                000014
100003818000841365151020120084136515102012               0000000000000198602-8                000015
100003818500841366151020120084136615102012               0000000000000198603-1                000016
100003818600841367151020120084136715102012               0000000000000198603-2                000017
100003818700841368151020120084136815102012               0000000000000198603-3                000018
100003818800841369151020120084136915102012               0000000000000198603-13               000019
9000018                                                                                       000020
