0RETORNONOTIFICAÇÃO ELETRONICA        04122014REGI                                            000001
100005019301391269281120140139126928112014               0000000000000334963-1                000002
100005019401391270281120140139127028112014               0000000000000334963-2                000003
100005019801392108011220140139210801122014               0000000000000335165-1                000004
100005019901392109011220140139210901122014               0000000000000335165-2                000005
100005020001392110011220140139211001122014               0000000000000335165-3                000006
100005020101392111011220140139211101122014               0000000000000335165-4                000007
100005020701392112011220140139211201122014               0000000000000335165-6                000008
100005020801392113011220140139211301122014               0000000000000335165-14               000009
100005020901392114011220140139211401122014               0000000000000335165-15               000010
100005021001392115011220140139211501122014               0000000000000335165-18               000011
100005021101392116011220140139211601122014               0000000000000335165-21               000012
100005021201392117011220140139211701122014               0000000000000335165-25               000013
100005021301392118011220140139211801122014               0000000000000335165-27               000014
100005021401392119011220140139211901122014               0000000000000335165-30               000015
100005021501392120011220140139212001122014               0000000000000335165-31               000016
100005021601392121011220140139212101122014               0000000000000335165-34               000017
100005022301396526031220140139652603122014               0000000000000335646-1                000018
100005022601396527031220140139652703122014               0000000000000335648-1                000019
100005022701396528031220140139652803122014               0000000000000335648-2                000020
100005022801396529031220140139652903122014               0000000000000335648-3                000021
100005022901396530031220140139653003122014               0000000000000335648-4                000022
100005023001396531031220140139653103122014               0000000000000335648-6                000023
100005023101396532031220140139653203122014               0000000000000335648-7                000024
100005023201396533031220140139653303122014               0000000000000335648-8                000025
100005023301396534031220140139653403122014               0000000000000335648-9                000026
100005023401396535031220140139653503122014               0000000000000335648-10               000027
9000026                                                                                       000028
