0RETORNONOTIFICAÇÃO ELETRONICA        17052012REGI                                            000001
100003532800763834150520120076383415052012               0000000000000174790-1                000002
100003533800763835150520120076383515052012               0000000000000174790-2                000003
100003533900763836150520120076383615052012               0000000000000174790-4                000004
100003534000763837150520120076383715052012               0000000000000174790-5                000005
100003534100763838150520120076383815052012               0000000000000174790-9                000006
100003534200763839150520120076383915052012               0000000000000174790-10               000007
100003534300763840150520120076384015052012               0000000000000174790-11               000008
100003534400763841150520120076384115052012               0000000000000174790-12               000009
100003535000763842150520120076384215052012               0000000000000174790-13               000010
100003535100763843150520120076384315052012               0000000000000174790-14               000011
100003535200763844150520120076384415052012               0000000000000174790-15               000012
100003535300763845150520120076384515052012               0000000000000174790-16               000013
100003536100763846150520120076384615052012               0000000000000174790-17               000014
100003536200763847150520120076384715052012               0000000000000174790-18               000015
100003536300763848150520120076384815052012               0000000000000174790-19               000016
100003536500763849150520120076384915052012               0000000000000174790-21               000017
100003536600763850150520120076385015052012               0000000000000174790-22               000018
100003536700763851150520120076385115052012               0000000000000174790-23               000019
9000018                                                                                       000020
