0RETORNONOTIFICAÇÃO ELETRONICA        19022010REGI                                            000001
100002027700237889100220100023788910022010               000000000000085632-1                 000002
100002028500237890100220100023789010022010               000000000000085632-2                 000003
100002029100237891100220100023789110022010               000000000000085632-3                 000004
9000003                                                                                       000005
