0RETORNONOTIFICAÇÃO ELETRONICA        12112010REGI                                            000001
100002494100427192121120100042719212112010               0000000000000115436-1                000002
100002494200427193121120100042719312112010               0000000000000115436-2                000003
100002494300427194121120100042719412112010               0000000000000115436-3                000004
100002494400427195121120100042719512112010               0000000000000115436-4                000005
100002494500427196121120100042719612112010               0000000000000115436-6                000006
100002494600427197121120100042719712112010               0000000000000115436-14               000007
100002494700427198121120100042719812112010               0000000000000115436-15               000008
100002494800427199121120100042719912112010               0000000000000115436-17               000009
100002495600427200121120100042720012112010               0000000000000115436-18               000010
100002495400427310121120100042731012112010               0000000000000115516-1                000011
100002495900427311121120100042731112112010               0000000000000115516-2                000012
100002496000427312121120100042731212112010               0000000000000115516-3                000013
100002496100427313121120100042731312112010               0000000000000115516-4                000014
100002497200427314121120100042731412112010               0000000000000115516-5                000015
100002497300427315121120100042731512112010               0000000000000115516-6                000016
100002497400427316121120100042731612112010               0000000000000115516-7                000017
100002497500427317121120100042731712112010               0000000000000115516-8                000018
100002497600427318121120100042731812112010               0000000000000115516-9                000019
100002497700427319121120100042731912112010               0000000000000115516-11               000020
100002497800427320121120100042732012112010               0000000000000115516-12               000021
100002497900427321121120100042732112112010               0000000000000115516-13               000022
9000021                                                                                       000023
