0RETORNONOTIFICAÇÃO ELETRONICA        22022011REGI                                            000001
100002638700478652220220110047865222022011               0000000000000122942-1                000002
100002638800478653220220110047865322022011               0000000000000122942-2                000003
100002638900478654220220110047865422022011               0000000000000122942-3                000004
100002639000478655220220110047865522022011               0000000000000122942-4                000005
100002641400478656220220110047865622022011               0000000000000122942-6                000006
100002641500478657220220110047865722022011               0000000000000122942-7                000007
100002641600478658220220110047865822022011               0000000000000122942-8                000008
9000007                                                                                       000009
