0RETORNONOTIFICAÇÃO ELETRONICA        25112013REGI                                            000001
100004523901079643201120130107964320112013               0000000000000268956-1                000002
100004524001079644201120130107964420112013               0000000000000268956-2                000003
100004525001079645201120130107964520112013               0000000000000269417-1                000004
100004527201079646201120130107964620112013               0000000000000269417-2                000005
100004525101079647201120130107964720112013               0000000000000269417-5                000006
100004525201079648201120130107964820112013               0000000000000269417-6                000007
100004527301079649201120130107964920112013               0000000000000269419-1                000008
100004527401079650201120130107965020112013               0000000000000269419-2                000009
100004532101079997211120130107999721112013               0000000000000269862-1                000010
100004532201079998211120130107999821112013               0000000000000269862-2                000011
100004531701079999211120130107999921112013               0000000000000269862-3                000012
100004532401080000211120130108000021112013               0000000000000269862-4                000013
100004532001080001211120130108000121112013               0000000000000269862-5                000014
100004532301080002211120130108000221112013               0000000000000269862-6                000015
100004531801080003211120130108000321112013               0000000000000269862-7                000016
100004531901080004211120130108000421112013               0000000000000269862-8                000017
100004445901080005211120130108000521112013               0000000000000269863-1                000018
100004500701080006211120130108000621112013               0000000000000269863-2                000019
100004504301080007211120130108000721112013               0000000000000269863-3                000020
9000019                                                                                       000021
