0RETORNONOTIFICAÇÃO ELETRONICA        06102011REGI                                            000001
100003036100639942051020110063994205102011               0000000000000147062-1                000002
100003073600639943051020110063994305102011               0000000000000147062-2                000003
100003073800639944051020110063994405102011               0000000000000147062-3                000004
100003075300639945051020110063994505102011               0000000000000147062-4                000005
100003078200639946051020110063994605102011               0000000000000147062-5                000006
100003080700639947051020110063994705102011               0000000000000147062-6                000007
100003087200639948051020110063994805102011               0000000000000147062-7                000008
100003090400639949051020110063994905102011               0000000000000147062-8                000009
100003091000639950051020110063995005102011               0000000000000147062-9                000010
100003091500639951051020110063995105102011               0000000000000147062-10               000011
100003092900639952051020110063995205102011               0000000000000147062-11               000012
100003093000639953051020110063995305102011               0000000000000147062-12               000013
100003093100639954051020110063995405102011               0000000000000147062-13               000014
100003095000639955051020110063995505102011               0000000000000147062-14               000015
100003097000639956051020110063995605102011               0000000000000147062-15               000016
100003097200639957051020110063995705102011               0000000000000147062-16               000017
100003097700639958051020110063995805102011               0000000000000147062-17               000018
100003103100639959051020110063995905102011               0000000000000147062-18               000019
100003103200639960051020110063996005102011               0000000000000147062-19               000020
100003103300639961051020110063996105102011               0000000000000147062-21               000021
100003103400639962051020110063996205102011               0000000000000147062-24               000022
100003103500639963051020110063996305102011               0000000000000147062-26               000023
100003103600639964051020110063996405102011               0000000000000147062-27               000024
100003104800639965051020110063996505102011               0000000000000147062-28               000025
100003105300639966051020110063996605102011               0000000000000147062-29               000026
100003111000639967051020110063996705102011               0000000000000147062-30               000027
9000026                                                                                       000028
