0RETORNONOTIFICAÇÃO ELETRONICA        29112011REGI                                            000001
100003202100672823281120110067282328112011               0000000000000152890-1                000002
100003202200672824281120110067282428112011               0000000000000152890-2                000003
100003205400672825281120110067282528112011               0000000000000152892-1                000004
100003205500672826281120110067282628112011               0000000000000152892-4                000005
100003205600672827281120110067282728112011               0000000000000152892-5                000006
100003205700672828281120110067282828112011               0000000000000152892-6                000007
100003209200672829281120110067282928112011               0000000000000153062-1                000008
100003209300672830281120110067283028112011               0000000000000153062-2                000009
100003209400672831281120110067283128112011               0000000000000153062-3                000010
100003209500672832281120110067283228112011               0000000000000153062-4                000011
100003209600672833281120110067283328112011               0000000000000153062-5                000012
100003212100672834281120110067283428112011               0000000000000153062-6                000013
100003212200672835281120110067283528112011               0000000000000153062-8                000014
100003212300672836281120110067283628112011               0000000000000153062-10               000015
100003212400672837281120110067283728112011               0000000000000153250-1                000016
100003212500672838281120110067283828112011               0000000000000153250-2                000017
100003212600672839281120110067283928112011               0000000000000153250-7                000018
100003214300672840281120110067284028112011               0000000000000153250-8                000019
9000018                                                                                       000020
