0RETORNONOTIFICAÇÃO ELETRONICA        12122011REGI                                            000001
100003040200685152061220110068515206122011               0000000000000154524-8                000002
100003040300685153061220110068515306122011               0000000000000154524-9                000003
100003233000685154061220110068515406122011               0000000000000154524-10               000004
100003233100685155061220110068515506122011               0000000000000154524-11               000005
100003233200685156061220110068515606122011               0000000000000154524-12               000006
100003234700685157061220110068515706122011               0000000000000154524-13               000007
100003193300685158061220110068515806122011               0000000000000154529-1                000008
100003234800685159061220110068515906122011               0000000000000154529-2                000009
100003234900685160061220110068516006122011               0000000000000154529-3                000010
100003235000685161061220110068516106122011               0000000000000154529-4                000011
100003235100685162061220110068516206122011               0000000000000154529-6                000012
100003238700685163061220110068516306122011               0000000000000154529-7                000013
100003238800685164061220110068516406122011               0000000000000154529-8                000014
100003238900685165061220110068516506122011               0000000000000154529-10               000015
100003239000685166061220110068516606122011               0000000000000154529-12               000016
100003239100685167061220110068516706122011               0000000000000154529-13               000017
100003242000686414091220110068641409122011               0000000000000154923-1                000018
100003242100686415091220110068641509122011               0000000000000154923-2                000019
100003242200686416091220110068641609122011               0000000000000154923-3                000020
100003242300686417091220110068641709122011               0000000000000154923-8                000021
100003242400686418091220110068641809122011               0000000000000154923-9                000022
100003242500686419091220110068641909122011               0000000000000154923-10               000023
100003242600686420091220110068642009122011               0000000000000154923-16               000024
100003244800686421091220110068642109122011               0000000000000154923-17               000025
100003244900686422091220110068642209122011               0000000000000154923-18               000026
100003245000686423091220110068642309122011               0000000000000154923-19               000027
100003245100686424091220110068642409122011               0000000000000154923-20               000028
100003245200686425091220110068642509122011               0000000000000154923-21               000029
100003245300686426091220110068642609122011               0000000000000154923-22               000030
9000029                                                                                       000031
