0RETORNONOTIFICAÇÃO ELETRONICA        07022011REGI                                            000001
100002612100471623040220110047162304022011               0000000000000121518-1                000002
100002612200471624040220110047162404022011               0000000000000121518-2                000003
100002612300471625040220110047162504022011               0000000000000121518-3                000004
100002612400471626040220110047162604022011               0000000000000121518-4                000005
100002612500471627040220110047162704022011               0000000000000121518-7                000006
100002612600471628040220110047162804022011               0000000000000121518-8                000007
100002612700471629040220110047162904022011               0000000000000121518-9                000008
100002616200471702040220110047170204022011               0000000000000121691-1                000009
100002616300471703040220110047170304022011               0000000000000121691-2                000010
100002616400471704040220110047170404022011               0000000000000121691-3                000011
100002616500471705040220110047170504022011               0000000000000121691-4                000012
100002616600471706040220110047170604022011               0000000000000121691-5                000013
100002618700471707040220110047170704022011               0000000000000121691-6                000014
100002618800471708040220110047170804022011               0000000000000121691-7                000015
9000014                                                                                       000016
