0RETORNONOTIFICAÇÃO ELETRONICA        08022010REGI                                            000001
100002013900234479030220100023447903022010               000000000000085013-1                 000002
100002014800234480030220100023448003022010               000000000000085013-2                 000003
100002015000234481030220100023448103022010               000000000000085013-3                 000004
100002021100234482030220100023448203022010               000000000000085020-1                 000005
9000004                                                                                       000006
