0RETORNONOTIFICAÇÃO ELETRONICA        12012011REGI                                            000001
100002546400446811030120110044681103012011               0000000000000118797-1                000002
100002549100446812030120110044681203012011               0000000000000118797-2                000003
100002550100446813030120110044681303012011               0000000000000118797-3                000004
100002550200446814030120110044681403012011               0000000000000118797-4                000005
100002550500446815030120110044681503012011               0000000000000118797-5                000006
100002551700446816030120110044681603012011               0000000000000118797-6                000007
100002551800446817030120110044681703012011               0000000000000118797-7                000008
100002552300446818030120110044681803012011               0000000000000118797-8                000009
100002552400446819030120110044681903012011               0000000000000118797-9                000010
100002552600446820030120110446820
03012011               0000000000000118797-10               000011
100002552700446821030120110044682103012011               0000000000000118797-11               000012
100002553000446822030120110044682203012011               0000000000000118797-12               000013
100002553700446823030120110044682303012011               0000000000000118797-13               000014
100002553800446824030120110044682403012011               0000000000000118797-14               000015
100002554100446825030120110044682503012011               0000000000000118797-15               000016
100002567300446826030120110044682603012011               0000000000000118797-16               000017
100002567300449036060120110044903606012011               0000000000000118797-17               000018
100002567300446826030120110044682603012011               0000000000000118797-18               000019
100002567400446827030120110044682703012011               0000000000000118797-20               000020
100002567500446828030120110044682803012011               0000000000000118797-21               000021
100002567600446829030120110044682903012011               0000000000000118797-22               000022
100002567700446830030120110044683003012011               0000000000000118797-23               000023
100002567700446831030120110044683103012011               0000000000000118797-25               000024
100002567800446831030120110044683103012011               0000000000000118797-26               000025
100002567900446832030120110044683203012011               0000000000000118797-27               000026
100002568000446833030120110044683303012011               0000000000000118797-28               000027
100002578400450798120120110045079812012011               0000000000000119556-1                000028
100002579600450799120120110045079912012011               0000000000000119559-1                000029
100002579700450800120120110045080012012011               0000000000000119559-2                000030
100002579800450801120120110045080112012011               0000000000000119559-5                000031
100002579900450802120120110045080212012011               0000000000000119559-6                000032
100002580000450803120120110045080312012011               0000000000000119559-7                000033
100002580100450804120120110045080412012011               0000000000000119559-8                000034
100002580200450805120120110045080512012011               0000000000000119559-9                000035
100002580300450806120120110045080612012011               0000000000000119559-10               000036
9000035                                                                                       000037
