0RETORNONOTIFICAÇÃO ELETRONICA        02052011REGI                                            000001
100002737500524617020520110052461702052011               0000000000000129224-1                000002
100002737600524618020520110052461802052011               0000000000000129224-4                000003
100002737700524619020520110052461902052011               0000000000000129224-5                000004
100002740200524620020520110052462002052011               0000000000000129224-7                000005
100002740300524621020520110052462102052011               0000000000000129224-8                000006
100002740400524622020520110052462202052011               0000000000000129224-9                000007
9000006                                                                                       000008
