0RETORNONOTIFICAÇÃO ELETRONICA        03082011REGI                                            000001
100002918600589844020820110058984402082011               0000000000000139026-1                000002
100002920800589845020820110058984502082011               0000000000000139026-2                000003
100002923300589846020820110058984602082011               0000000000000139026-3                000004
100002929800589847020820110058984702082011               0000000000000139026-4                000005
100002929900589848020820110058984802082011               0000000000000139026-5                000006
100002930000589849020820110058984902082011               0000000000000139026-6                000007
100002930100589850020820110058985002082011               0000000000000139026-7                000008
100002930200589851020820110058985102082011               0000000000000139026-8                000009
100002933100589852020820110058985202082011               0000000000000139026-9                000010
9000009                                                                                       000011
