0RETORNONOTIFICAÇÃO ELETRONICA        31032011REGI                                            000001
100002684700501991300320110050199130032011               0000000000000125722-1                000002
100002684800501992300320110050199230032011               0000000000000125722-2                000003
100002684900501993300320110050199330032011               0000000000000125722-3                000004
100002685000501994300320110050199430032011               0000000000000125722-4                000005
100002687900501995300320110050199530032011               0000000000000125722-5                000006
100002688000501996300320110050199630032011               0000000000000125722-6                000007
100002688100501997300320110050199730032011               0000000000000125861-1                000008
100002688200501998300320110050199830032011               0000000000000125861-2                000009
100002688300501999300320110050199930032011               0000000000000125861-6                000010
100002688400502000300320110050200030032011               0000000000000125861-9                000011
100002688500502001300320110050200130032011               0000000000000125861-10               000012
100002691100502002300320110050200230032011               0000000000000125861-11               000013
100002691200502003300320110050200330032011               0000000000000126006-1                000014
100002691300502004300320110050200430032011               0000000000000126006-2                000015
100002691400502005300320110050200530032011               0000000000000126006-3                000016
100002691500502006300320110050200630032011               0000000000000126006-4                000017
100002691600502007300320110050200730032011               0000000000000126006-5                000018
100002693700502008300320110050200830032011               0000000000000126006-6                000019
100002693800502009300320110050200930032011               0000000000000126006-7                000020
100002693900502010300320110050201030032011               0000000000000126006-8                000021
100002694000502011300320110050201130032011               0000000000000126160-1                000022
100002694100502012300320110050201230032011               0000000000000126160-2                000023
100002694200502013300320110050201330032011               0000000000000126160-3                000024
100002694300502014300320110050201430032011               0000000000000126160-4                000025
100002694400502015300320110050201530032011               0000000000000126160-5                000026
100002696200502016300320110050201630032011               0000000000000126160-6                000027
100002696300502017300320110050201730032011               0000000000000126160-7                000028
100002696400502018300320110050201830032011               0000000000000126160-8                000029
100002696500502167300320110050216730032011               0000000000000126360-1                000030
100002696600502168300320110050216830032011               0000000000000126360-2                000031
100002696700502169300320110050216930032011               0000000000000126360-3                000032
9000031                                                                                       000033
