0RETORNONOTIFICAÇÃO ELETRONICA        13062011REGI                                            000001
100002797800553211090620110055321109062011               0000000000000132961-1                000002
100002797900553212090620110055321209062011               0000000000000132961-2                000003
100002783000553213090620110055321309062011               0000000000000132965-1                000004
100002797000553214090620110055321409062011               0000000000000133261-1                000005
100002798900553215090620110055321509062011               0000000000000133261-2                000006
100002799000553216090620110055321609062011               0000000000000133261-3                000007
100002799700553217090620110055321709062011               0000000000000133261-4                000008
100002799800553218090620110055321809062011               0000000000000133261-5                000009
100002800600553219090620110055321909062011               0000000000000133261-6                000010
100002801000553220090620110055322009062011               0000000000000133261-7                000011
100002801200553221090620110055322109062011               0000000000000133261-8                000012
100002801700553222090620110055322209062011               0000000000000133261-9                000013
100002802500553223090620110055322309062011               0000000000000133261-10               000014
100002802800553224090620110055322409062011               0000000000000133261-11               000015
100002800300553225090620110055322509062011               0000000000000133266-1                000016
100002804600553226090620110055322609062011               0000000000000133266-2                000017
100002804700553227090620110055322709062011               0000000000000133266-3                000018
100002804800553228090620110055322809062011               0000000000000133266-4                000019
100002804900553229090620110055322909062011               0000000000000133266-5                000020
100002805000553230090620110055323009062011               0000000000000133266-8                000021
100002805100553231090620110055323109062011               0000000000000133266-11               000022
100002805200553232090620110055323209062011               0000000000000133266-12               000023
100002805300553233090620110055323309062011               0000000000000133266-15               000024
100002805400553234090620110055323409062011               0000000000000133266-16               000025
100002805500553235090620110055323509062011               0000000000000133266-17               000026
100002805600553236090620110055323609062011               0000000000000133266-19               000027
100002805700553237090620110055323709062011               0000000000000133266-20               000028
100002805800553238090620110055323809062011               0000000000000133266-21               000029
100002805900553239090620110055323909062011               0000000000000133266-22               000030
100002806000553240090620110055324009062011               0000000000000133266-28               000031
100002806100553241090620110055324109062011               0000000000000133266-29               000032
9000031                                                                                       000033
