0RETORNONOTIFICAÇÃO ELETRONICA        04112011REGI                                            000001
100003160300658433031120110065843303112011               0000000000000150213-1                000002
100003162000658434031120110065843403112011               0000000000000150351-1                000003
100003162100658435031120110065843503112011               0000000000000150351-9                000004
100003162200658436031120110065843603112011               0000000000000150351-14               000005
100003162300658437031120110065843703112011               0000000000000150351-17               000006
100003162400658438031120110065843803112011               0000000000000150351-18               000007
100003162500658439031120110065843903112011               0000000000000150351-19               000008
100003008600658440031120110065844003112011               0000000000000150352-1                000009
100003008700658441031120110065844103112011               0000000000000150352-2                000010
100003008800658442031120110065844203112011               0000000000000150352-3                000011
100003164500658443031120110065844303112011               0000000000000150352-4                000012
100003164600658444031120110065844403112011               0000000000000150352-5                000013
100003164700658445031120110065844503112011               0000000000000150352-6                000014
100003164800658446031120110065844603112011               0000000000000150352-8                000015
100003164900658447031120110065844703112011               0000000000000150352-9                000016
100003169900658448031120110065844803112011               0000000000000150352-10               000017
100003170000658449031120110065844903112011               0000000000000150352-11               000018
100003170100658450031120110065845003112011               0000000000000150352-12               000019
100003170200658451031120110065845103112011               0000000000000150352-13               000020
100003170300658452031120110065845203112011               0000000000000150352-14               000021
9000020                                                                                       000022
