0RETORNONOTIFICAÇÃO ELETRONICA        24082012REGI                                            000001
100003701300814845170820120081484517082012               0000000000000189106-1                000002
100003701400814846170820120081484617082012               0000000000000189106-2                000003
100003701500814847170820120081484717082012               0000000000000189106-3                000004
100003701600814848170820120081484817082012               0000000000000189106-4                000005
100003701700814849170820120081484917082012               0000000000000189106-5                000006
100003702300814850170820120081485017082012               0000000000000189106-6                000007
100003703600814851170820120081485117082012               0000000000000189106-7                000008
100003703700814852170820120081485217082012               0000000000000189106-9                000009
100003703800814853170820120081485317082012               0000000000000189106-11               000010
100003703900814854170820120081485417082012               0000000000000189106-13               000011
100003703100814855170820120081485517082012               0000000000000189109-1                000012
100003704000814856170820120081485617082012               0000000000000189109-2                000013
100003704100814857170820120081485717082012               0000000000000189109-3                000014
100003704900814858170820120081485817082012               0000000000000189109-4                000015
100003706100814859170820120081485917082012FR971974115BR  0000023082012189109-5                000016
100003697000814860170820120081486017082012               0000000000000189110-1                000017
100003697100814861170820120081486117082012               0000000000000189110-2                000018
100003706200814862170820120081486217082012               0000000000000189110-3                000019
100003706300814863170820120081486317082012FR971974150BR  0000023082012189110-4                000020
100003706400814864170820120081486417082012FR971974163BR  0000023082012189110-5                000021
100003706500814865170820120081486517082012FR971974177BR  0000023082012189110-6                000022
100003706600814866170820120081486617082012               0000000000000189110-7                000023
100003706700814867170820120081486717082012               0000000000000189110-8                000024
100003706800814868170820120081486817082012               0000000000000189110-11               000025
100003706900814869170820120081486917082012FR971974217BR  0000023082012189110-12               000026
100003707000814870170820120081487017082012FR971974225BR  0000023082012189110-17               000027
100003707700814871170820120081487117082012FR971974234BR  0000023082012189110-18               000028
100003708500814872170820120081487217082012               0000000000000189110-19               000029
100003709200814873170820120081487317082012               0000000000000189110-20               000030
100003696800816710220820120081671022082012               0000000000000189807-1                000031
100003707300816711220820120081671122082012               0000000000000189807-2                000032
100003707400816712220820120081671222082012               0000000000000189807-3                000033
100003709300816713220820120081671322082012               0000000000000189807-4                000034
100003709400816714220820120081671422082012               0000000000000189807-5                000035
100003709500816715220820120081671522082012               0000000000000189807-6                000036
100003709600816716220820120081671622082012               0000000000000189807-8                000037
100003709700816717220820120081671722082012               0000000000000189807-9                000038
100003709800816718220820120081671822082012               0000000000000189807-10               000039
100003709900816719220820120081671922082012               0000000000000189807-13               000040
100003710000816720220820120081672022082012               0000000000000189807-14               000041
100003710200816721220820120081672122082012               0000000000000189807-15               000042
100003711300816722220820120081672222082012               0000000000000189807-16               000043
100003711400816723220820120081672322082012               0000000000000189811-1                000044
100003711500816724220820120081672422082012               0000000000000189811-2                000045
100003711600816725220820120081672522082012               0000000000000189811-3                000046
100003711700816726220820120081672622082012               0000000000000189811-4                000047
100003711800816727220820120081672722082012               0000000000000189811-6                000048
100003711900816728220820120081672822082012               0000000000000189811-7                000049
100003712000816729220820120081672922082012               0000000000000189811-8                000050
100003713500816730220820120081673022082012               0000000000000189817-1                000051
100003713600816731220820120081673122082012               0000000000000189817-5                000052
100003713700816732220820120081673222082012               0000000000000189817-6                000053
100003713800816733220820120081673322082012               0000000000000189817-7                000054
100003714500816734220820120081673422082012               0000000000000189817-9                000055
100003715600816735220820120081673522082012               0000000000000189817-10               000056
100003715400816736220820120081673622082012               0000000000000189824-1                000057
100003716100816737220820120081673722082012               0000000000000189824-2                000058
100003716200816738220820120081673822082012               0000000000000189824-3                000059
100003717400816739220820120081673922082012               0000000000000189824-4                000060
100003717500816740220820120081674022082012               0000000000000189824-22               000061
100003712900816741220820120081674122082012               0000000000000189827-1                000062
100003717600816742220820120081674222082012               0000000000000189827-2                000063
100003717700816743220820120081674322082012               0000000000000189827-3                000064
100003717800816744220820120081674422082012               0000000000000189827-4                000065
100003718400816745220820120081674522082012               0000000000000189827-5                000066
100003719100816746220820120081674622082012               0000000000000189827-6                000067
9000066                                                                                       000068
