0RETORNONOTIFICAÇÃO ELETRONICA        14062012REGI                                            000001
100003571300778294130620120077829413062012               0000000000000178769-1                000002
100003571500778295130620120077829513062012               0000000000000178769-2                000003
100003579200778296130620120077829613062012               0000000000000178769-3                000004
100003579300778297130620120077829713062012               0000000000000178769-4                000005
100003579400778298130620120077829813062012               0000000000000178769-5                000006
100003579500778299130620120077829913062012               0000000000000178769-6                000007
100003580800778300130620120077830013062012               0000000000000178769-7                000008
100003581800778301130620120077830113062012               0000000000000178769-8                000009
100003581900778302130620120077830213062012               0000000000000178769-10               000010
100003582000778303130620120077830313062012               0000000000000178769-11               000011
100003582100778304130620120077830413062012               0000000000000178769-13               000012
100003582200778305130620120077830513062012               0000000000000178769-14               000013
100003582300778306130620120077830613062012               0000000000000178769-17               000014
100003582400778307130620120077830713062012               0000000000000178769-19               000015
100003582500778308130620120077830813062012               0000000000000178769-24               000016
100003582600778309130620120077830913062012               0000000000000178769-25               000017
100003582700778310130620120077831013062012               0000000000000178769-26               000018
100003582800778311130620120077831113062012               0000000000000178769-27               000019
100003582900778312130620120077831213062012               0000000000000178769-28               000020
100003583000778313130620120077831313062012               0000000000000178773-1                000021
100003583100778314130620120077831413062012               0000000000000178773-3                000022
100003583200778315130620120077831513062012               0000000000000178773-4                000023
100003584600778316130620120077831613062012               0000000000000178775-1                000024
100003584700778317130620120077831713062012               0000000000000178775-2                000025
100003584800778318130620120077831813062012               0000000000000178775-3                000026
100003584900778319130620120077831913062012               0000000000000178775-4                000027
100003585000778320130620120077832013062012               0000000000000178775-12               000028
100003586600778321130620120077832113062012               0000000000000178775-13               000029
100003586900778322130620120077832213062012               0000000000000178775-14               000030
9000029                                                                                       000031
