0RETORNONOTIFICAÇÃO ELETRONICA        21082013REGI                                            000001
100004359601017040190820130101704019082013               0000000000000252329-1                000002
100004359801017041190820130101704119082013               0000000000000252329-2                000003
100004359701017042190820130101704219082013               0000000000000252329-3                000004
9000003                                                                                       000005
