0RETORNONOTIFICAÇÃO ELETRONICA        01102010REGI                                            000001
100002423100397835011020100039783501102010               0000000000000112554-1                000002
100002428500397836011020100039783601102010               0000000000000112554-2                000003
100002431300397837011020100039783701102010               0000000000000112554-3                000004
100002433200397838011020100039783801102010               0000000000000112554-4                000005
100002438700397839011020100039783901102010               0000000000000112554-5                000006
100002438800397840011020100039784001102010               0000000000000112554-6                000007
100002438900397841011020100039784101102010               0000000000000112554-7                000008
100002439000397842011020100039784201102010               0000000000000112554-8                000009
100002440600397843011020100039784301102010               0000000000000112554-9                000010
100002440700397844011020100039784401102010               0000000000000112554-11               000011
100002440800397845011020100039784501102010               0000000000000112554-12               000012
100002440900397846011020100039784601102010               0000000000000112554-13               000013
100002441000397847011020100039784701102010               0000000000000112554-14               000014
100002441100397848011020100039784801102010               0000000000000112554-15               000015
9000014                                                                                       000016
