0RETORNONOTIFICAÇÃO ELETRONICA        22092011REGI                                            000001
100003067300626726210920110062672621092011               0000000000000145170-1                000002
100003067400626727210920110062672721092011               0000000000000145170-2                000003
100003067500626728210920110062672821092011               0000000000000145170-3                000004
100003069000626729210920110062672921092011               0000000000000145170-4                000005
100003069100626730210920110062673021092011               0000000000000145171-1                000006
100003069200626731210920110062673121092011               0000000000000145171-5                000007
100003072100626732210920110062673221092011               0000000000000145285-1                000008
100003072200626733210920110062673321092011               0000000000000145285-2                000009
100003072300626734210920110062673421092011               0000000000000145285-3                000010
100003074200626735210920110062673521092011               0000000000000145285-8                000011
100003074300626736210920110062673621092011               0000000000000145285-9                000012
9000011                                                                                       000013
