0RETORNONOTIFICAÇÃO ELETRONICA        17082010REGI                                            000001
100002367500318008160820100031800816082010               0000000000000108710-1                000002
100002367600318009160820100031800916082010               0000000000000108710-2                000003
100002367700318010160820100031801016082010               0000000000000108710-3                000004
100002367800318011160820100031801116082010               0000000000000108710-4                000005
100002367900318012160820100031801216082010               0000000000000108710-6                000006
100002368000318013160820100031801316082010               0000000000000108710-7                000007
100002368100318014160820100031801416082010               0000000000000108710-8                000008
100002370800318015160820100031801516082010               0000000000000108710-9                000009
100002370900318016160820100031801616082010               0000000000000108710-10               000010
100002371000318017160820100031801716082010               0000000000000108710-11               000011
100002371100318018160820100031801816082010               0000000000000108887-1                000012
100002371200318019160820100031801916082010               0000000000000108887-3                000013
100002371300318020160820100031802016082010               0000000000000108887-5                000014
100002371400318021160820100031802116082010               0000000000000108887-7                000015
100002371500318022160820100031802216082010               0000000000000108887-8                000016
9000015                                                                                       000017
