0RETORNONOTIFICAÇÃO ELETRONICA        12032010REGI                                            000001
100002074000255857110320100025585711032010               000000000000088662-1                 000002
100002079300255858110320100025585811032010               000000000000088662-2                 000003
100002079600255859110320100025585911032010               000000000000088662-3                 000004
100002080100255860110320100025586011032010               000000000000088662-4                 000005
100002080200255861110320100025586111032010               000000000000088662-5                 000006
100002081700255862110320100025586211032010               000000000000088662-6                 000007
100002081800255863110320100025586311032010               000000000000088662-7                 000008
100002081900255864110320100025586411032010               000000000000088662-8                 000009
100002082000255865110320100025586511032010               000000000000088662-9                 000010
100002082100255866110320100025586611032010               000000000000088662-10                000011
100002082200255867110320100025586711032010               000000000000088662-11                000012
100002082300255868110320100025586811032010               000000000000088662-13                000013
100002082400255869110320100025586911032010               000000000000088662-16                000014
100002082500255870110320100025587011032010               000000000000088662-17                000015
100002082600255871110320100025587111032010               000000000000088662-19                000016
100002082700255872110320100025587211032010               000000000000088662-22                000017
100002083900255873110320100025587311032010               000000000000088662-23                000018
100002085400255874110320100025587411032010               000000000000088664-1                 000019
100002085500255875110320100025587511032010               000000000000088664-2                 000020
100002085600255876110320100025587611032010               000000000000088664-3                 000021
100002085900255877110320100025587711032010               000000000000088664-4                 000022
100002088100255878110320100025587811032010               000000000000088664-5                 000023
9000022                                                                                       000024
