0RETORNONOTIFICAÇÃO ELETRONICA        08052012REGI                                            000001
100003512000759779070520120075977907052012               0000000000000173265-1                000002
100003512100759780070520120075978007052012               0000000000000173265-2                000003
100003512200759781070520120075978107052012               0000000000000173265-3                000004
100003515200759782070520120075978207052012               0000000000000173266-1                000005
100003515300759783070520120075978307052012               0000000000000173266-2                000006
100003515400759784070520120075978407052012               0000000000000173266-4                000007
100003515500759785070520120075978507052012               0000000000000173266-5                000008
100003515600759786070520120075978607052012               0000000000000173266-6                000009
100003516000759787070520120075978707052012               0000000000000173266-7                000010
100003516500759788070520120075978807052012               0000000000000173266-8                000011
100003513200759789070520120075978907052012               0000000000000173273-1                000012
100003516800759790070520120075979007052012               0000000000000173273-2                000013
100003517100759791070520120075979107052012               0000000000000173273-3                000014
100003517200759792070520120075979207052012               0000000000000173273-4                000015
100003517300759793070520120075979307052012               0000000000000173273-5                000016
100003517400759794070520120075979407052012               0000000000000173273-6                000017
100003517500759795070520120075979507052012               0000000000000173273-7                000018
100003517600759796070520120075979607052012               0000000000000173273-8                000019
100003517700759797070520120075979707052012               0000000000000173273-10               000020
100003517800759798070520120075979807052012               0000000000000173273-11               000021
100003517900759799070520120075979907052012               0000000000000173273-12               000022
100003518800759800070520120075980007052012               0000000000000173273-13               000023
9000022                                                                                       000024
