0RETORNONOTIFICAÇÃO ELETRONICA        27082012REGI                                            000001
100003719200818100240820120081810024082012               0000000000000190278-1                000002
100003719700818101240820120081810124082012               0000000000000190293-1                000003
100003720000818102240820120081810224082012               0000000000000190293-2                000004
100003720600818103240820120081810324082012               0000000000000190293-3                000005
100003720700818104240820120081810424082012               0000000000000190293-4                000006
100003722600818105240820120081810524082012               0000000000000190293-5                000007
100003722700818106240820120081810624082012               0000000000000190293-6                000008
100003722800818107240820120081810724082012               0000000000000190293-7                000009
100003722900818108240820120081810824082012               0000000000000190293-8                000010
100003723000818109240820120081810924082012               0000000000000190293-15               000011
100003723100818110240820120081811024082012               0000000000000190293-16               000012
100003723200818111240820120081811124082012               0000000000000190293-17               000013
100003723300818112240820120081811224082012               0000000000000190293-20               000014
100003723400818113240820120081811324082012               0000000000000190293-21               000015
100003723500818114240820120081811424082012               0000000000000190293-22               000016
100003723600818115240820120081811524082012               0000000000000190293-24               000017
100003723700818116240820120081811624082012               0000000000000190293-25               000018
100003723800818117240820120081811724082012               0000000000000190293-27               000019
100003724500818118240820120081811824082012               0000000000000190293-29               000020
100003724600818119240820120081811924082012               0000000000000190293-30               000021
100003724900818120240820120081812024082012               0000000000000190293-31               000022
9000021                                                                                       000023
