0RETORNONOTIFICAÇÃO ELETRONICA        12082011REGI                                            000001
100002953800594536120820110059453612082011               0000000000000140617-1                000002
100002953900594537120820110059453712082011               0000000000000140617-2                000003
100002954000594538120820110059453812082011               0000000000000140617-3                000004
100002954100594539120820110059453912082011               0000000000000140617-4                000005
100002954200594540120820110059454012082011               0000000000000140617-5                000006
100002954300594541120820110059454112082011               0000000000000140617-6                000007
9000006                                                                                       000008
