0RETORNONOTIFICAÇÃO ELETRONICA        27032013REGI                                            000001
100004062900920126200320130092012620032013               0000000000000227376-1                000002
100004062400920127200320130092012720032013FA104833492BR  0000026032013227376-2                000003
100004062700920128200320130092012820032013               0000000000000227376-3                000004
100004062800920129200320130092012920032013               0000000000000227376-4                000005
100004062300920130200320130092013020032013               0000000000000227376-6                000006
100004062600920131200320130092013120032013               0000000000000227376-7                000007
100004062500920132200320130092013220032013FA104833546BR  0000025032013227376-8                000008
100004064700920133200320130092013320032013FA104833550BR  0000026032013227382-1                000009
100004044400920134200320130092013420032013               0000000000000227382-2                000010
100004064600920135200320130092013520032013FA104833577BR  0000026032013227382-3                000011
100004064800920136200320130092013620032013               0000000000000227382-5                000012
100004065000920137200320130092013720032013FA104833594BR  0000025032013227382-6                000013
100004065100920138200320130092013820032013               0000000000000227382-9                000014
100004050400920139200320130092013920032013               0000000000000227382-10               000015
100004067900920140200320130092014020032013               0000000000000227382-11               000016
100004064900920141200320130092014120032013FA104833634BR  0000026032013227382-12               000017
100004055600920142200320130092014220032013               0000000000000227382-13               000018
100004068500923635260320130092363526032013               0000000000000227772-1                000019
100004068300923636260320130092363626032013               0000000000000227772-2                000020
100004068800923637260320130092363726032013               0000000000000227772-7                000021
100004068900923638260320130092363826032013               0000000000000227772-9                000022
100004068000923639260320130092363926032013               0000000000000227772-10               000023
100004068100923640260320130092364026032013               0000000000000227772-11               000024
100004068200923641260320130092364126032013               0000000000000227772-12               000025
100004068400923642260320130092364226032013               0000000000000227772-14               000026
100004068600923643260320130092364326032013               0000000000000227772-15               000027
100004068700923644260320130092364426032013               0000000000000227772-16               000028
100004071300923645260320130092364526032013               0000000000000227775-1                000029
100004071200923646260320130092364626032013               0000000000000227775-2                000030
100004071100923647260320130092364726032013               0000000000000227775-3                000031
100004071000923648260320130092364826032013               0000000000000227775-9                000032
100004070900923649260320130092364926032013               0000000000000227775-10               000033
100004074600923650260320130092365026032013               0000000000000227777-1                000034
100004074700923651260320130092365126032013               0000000000000227777-2                000035
100004072800923652260320130092365226032013               0000000000000227777-4                000036
100004072900923653260320130092365326032013               0000000000000227777-6                000037
9000036                                                                                       000038
