0RETORNONOTIFICAÇÃO ELETRONICA        01082012REGI                                            000001
100003663500801907310720120080190731072012               0000000000000185787-1                000002
100003663600801908310720120080190831072012               0000000000000185787-2                000003
100003663700801909310720120080190931072012               0000000000000185787-3                000004
100003663800801910310720120080191031072012               0000000000000185787-4                000005
100003664100801911310720120080191131072012               0000000000000185787-5                000006
100003664500801912310720120080191231072012               0000000000000185787-6                000007
100003664900801913310720120080191331072012               0000000000000185787-7                000008
100003665600801914310720120080191431072012               0000000000000185787-8                000009
100003665700801915310720120080191531072012               0000000000000185787-11               000010
100003665800801916310720120080191631072012               0000000000000185787-12               000011
100003665900801917310720120080191731072012               0000000000000185787-13               000012
100003666000801918310720120080191831072012               0000000000000185787-14               000013
100003666100801919310720120080191931072012               0000000000000185787-15               000014
100003666200801920310720120080192031072012               0000000000000185787-16               000015
100003666300801921310720120080192131072012               0000000000000185787-17               000016
100003666400801922310720120080192231072012               0000000000000185787-18               000017
100003666500801923310720120080192331072012               0000000000000185787-19               000018
100003666600801924310720120080192431072012               0000000000000185787-20               000019
100003666700801925310720120080192531072012               0000000000000185787-21               000020
100003666800801926310720120080192631072012               0000000000000185787-22               000021
100003666900801927310720120080192731072012               0000000000000185787-23               000022
100003667000801928310720120080192831072012               0000000000000185787-24               000023
100003667100801929310720120080192931072012               0000000000000185787-25               000024
100003667200801930310720120080193031072012               0000000000000185787-26               000025
100003667300801931310720120080193131072012               0000000000000185787-27               000026
100003667400801932310720120080193231072012               0000000000000185787-28               000027
100003667500801933310720120080193331072012               0000000000000185787-30               000028
100003667600801934310720120080193431072012               0000000000000185787-31               000029
100003667700801935310720120080193531072012               0000000000000185787-32               000030
100003667800801936310720120080193631072012               0000000000000185787-33               000031
100003667900801937310720120080193731072012               0000000000000185787-35               000032
100003668000801938310720120080193831072012               0000000000000185794-1                000033
100003668100801939310720120080193931072012               0000000000000185794-2                000034
100003668200801940310720120080194031072012               0000000000000185794-3                000035
100003668300801941310720120080194131072012               0000000000000185794-4                000036
100003668400801942310720120080194231072012               0000000000000185794-5                000037
100003668700801943310720120080194331072012               0000000000000185794-6                000038
100003668900801944310720120080194431072012               0000000000000185794-7                000039
100003669300801945310720120080194531072012               0000000000000185794-8                000040
100003669500801946310720120080194631072012               0000000000000185794-9                000041
100003669600801947310720120080194731072012               0000000000000185794-21               000042
100003669700801948310720120080194831072012               0000000000000185794-24               000043
100003669800801949310720120080194931072012               0000000000000185794-28               000044
100003669900801950310720120080195031072012               0000000000000185794-29               000045
100003659300801951310720120080195131072012               0000000000000185796-1                000046
100003670000801952310720120080195231072012               0000000000000185796-2                000047
100003670100801953310720120080195331072012               0000000000000185796-3                000048
100003670200801954310720120080195431072012               0000000000000185796-4                000049
100003670300801955310720120080195531072012               0000000000000185796-5                000050
100003670400801956310720120080195631072012               0000000000000185796-6                000051
100003670500801957310720120080195731072012               0000000000000185796-7                000052
100003670600801958310720120080195831072012               0000000000000185796-9                000053
100003671800801959310720120080195931072012               0000000000000185796-10               000054
100003671900801960310720120080196031072012               0000000000000185796-11               000055
100003672000801961310720120080196131072012               0000000000000185799-1                000056
100003672100801962310720120080196231072012               0000000000000185799-2                000057
100003672200801963310720120080196331072012               0000000000000185799-3                000058
100003672300801964310720120080196431072012               0000000000000185799-6                000059
100003672400801965310720120080196531072012               0000000000000185799-7                000060
100003672500801966310720120080196631072012               0000000000000185799-8                000061
100003672600801967310720120080196731072012               0000000000000185799-10               000062
100003674100801968310720120080196831072012               0000000000000185799-11               000063
100003674200801969310720120080196931072012               0000000000000185799-16               000064
100003672900801970310720120080197031072012               0000000000000185804-1                000065
100003673400801971310720120080197131072012               0000000000000185804-2                000066
100003674300801972310720120080197231072012               0000000000000185804-3                000067
100003674400801973310720120080197331072012               0000000000000185804-4                000068
100003674500801974310720120080197431072012               0000000000000185804-5                000069
100003674600801975310720120080197531072012               0000000000000185804-6                000070
100003674800801976310720120080197631072012               0000000000000185804-7                000071
100003676400801978310720120080197831072012               0000000000000185809-1                000072
100003676500801979310720120080197931072012               0000000000000185809-2                000073
100003676600801980310720120080198031072012               0000000000000185809-3                000074
100003676700801981310720120080198131072012               0000000000000185809-4                000075
9000074                                                                                       000076
