0RETORNONOTIFICAÇÃO ELETRONICA        30032011REGI                                            000001
100002680000498239250320110049823925032011               0000000000000125315-5                000002
100002683400498240250320110049824025032011               0000000000000125432-1                000003
100002683500498241250320110049824125032011               0000000000000125432-2                000004
100002683600498242250320110049824225032011               0000000000000125432-3                000005
100002683700498243250320110049824325032011               0000000000000125432-7                000006
100002683800498244250320110049824425032011               0000000000000125432-8                000007
100002683900497737240320110049773724032011               0000000000000125619-1                000008
100002683900498245250320110049824525032011               0000000000000125619-2                000009
100002684000497738240320110049773824032011               0000000000000125619-3                000010
100002684000498246250320110049824625032011               0000000000000125619-4                000011
100002684100497739240320110049773924032011               0000000000000125619-5                000012
100002684100498247250320110049824725032011               0000000000000125619-6                000013
100002684200497740240320110049774024032011               0000000000000125619-7                000014
100002684200498248250320110049824825032011               0000000000000125619-8                000015
100002684300497741240320110049774124032011               0000000000000125619-9                000016
100002684400497742240320110049774224032011               0000000000000125619-10               000017
100002684400498249250320110049824925032011               0000000000000125619-11               000018
100002684500497743240320110049774324032011               0000000000000125619-14               000019
100002684500498250250320110049825025032011               0000000000000125619-15               000020
9000019                                                                                       000021
