0RETORNONOTIFICAÇÃO ELETRONICA        08102013REGI                                            000001
100004447401048746031020130104874603102013               0000000000000260924-1                000002
100004446601048747031020130104874703102013               0000000000000260924-2                000003
100004446801048748031020130104874803102013               0000000000000260924-3                000004
100004446701048749031020130104874903102013               0000000000000260924-6                000005
100004447101048750031020130104875003102013               0000000000000260924-7                000006
100004447201048751031020130104875103102013               0000000000000260924-8                000007
100004447301048752031020130104875203102013               0000000000000260924-9                000008
100004446501048753031020130104875303102013               0000000000000260924-10               000009
100004447501048754031020130104875403102013               0000000000000260924-11               000010
100004446901048755031020130104875503102013               0000000000000260924-14               000011
100004447601048756031020130104875603102013               0000000000000260924-15               000012
100004447001048757031020130104875703102013               0000000000000260924-16               000013
100004449501049338041020130104933804102013               0000000000000261107-1                000014
100004449301049339041020130104933904102013               0000000000000261107-2                000015
100004449201049340041020130104934004102013               0000000000000261107-3                000016
100004449401049341041020130104934104102013               0000000000000261107-4                000017
100004451501049342041020130104934204102013               0000000000000261107-5                000018
100004459201049343041020130104934304102013               0000000000000261107-6                000019
100004459101049344041020130104934404102013               0000000000000261107-7                000020
100004459001049345041020130104934504102013               0000000000000261107-8                000021
100004458901049346041020130104934604102013               0000000000000261107-9                000022
100004458801049347041020130104934704102013               0000000000000261107-10               000023
100004458701049348041020130104934804102013               0000000000000261107-11               000024
100004458601049349041020130104934904102013               0000000000000261107-12               000025
100004458501049350041020130104935004102013               0000000000000261107-13               000026
100004458401049351041020130104935104102013               0000000000000261107-14               000027
100004458301049352041020130104935204102013               0000000000000261107-15               000028
100004458201049353041020130104935304102013               0000000000000261107-16               000029
100004458101049354041020130104935404102013               0000000000000261107-17               000030
100004458001049355041020130104935504102013               0000000000000261107-18               000031
100004457901049356041020130104935604102013               0000000000000261107-19               000032
100004457801049357041020130104935704102013               0000000000000261107-20               000033
100004457701049358041020130104935804102013               0000000000000261107-21               000034
100004457601049359041020130104935904102013               0000000000000261107-22               000035
100004457501049360041020130104936004102013               0000000000000261107-29               000036
100004457401049361041020130104936104102013               0000000000000261107-35               000037
100004457301049362041020130104936204102013               0000000000000261107-43               000038
100004457201049363041020130104936304102013               0000000000000261107-51               000039
100004457101049364041020130104936404102013               0000000000000261107-53               000040
100004457001049365041020130104936504102013               0000000000000261107-60               000041
100004456901049366041020130104936604102013               0000000000000261107-62               000042
100004456801049367041020130104936704102013               0000000000000261107-67               000043
100004456701049368041020130104936804102013               0000000000000261107-75               000044
100004456601049369041020130104936904102013               0000000000000261107-80               000045
100004456501049370041020130104937004102013               0000000000000261107-86               000046
100004456401049371041020130104937104102013               0000000000000261107-90               000047
100004456301049372041020130104937204102013               0000000000000261107-95               000048
100004456201049373041020130104937304102013               0000000000000261107-98               000049
100004456101049374041020130104937404102013               0000000000000261107-101              000050
100004456001049375041020130104937504102013               0000000000000261107-103              000051
100004455901049376041020130104937604102013               0000000000000261107-106              000052
100004455801049377041020130104937704102013               0000000000000261107-108              000053
100004455701049378041020130104937804102013               0000000000000261107-111              000054
100004455601049379041020130104937904102013               0000000000000261107-112              000055
100004455501049380041020130104938004102013               0000000000000261107-114              000056
100004455401049381041020130104938104102013               0000000000000261107-116              000057
100004455301049382041020130104938204102013               0000000000000261107-117              000058
100004455201049383041020130104938304102013               0000000000000261107-118              000059
100004455101049384041020130104938404102013               0000000000000261107-119              000060
100004455001049385041020130104938504102013               0000000000000261107-121              000061
100004454901049386041020130104938604102013               0000000000000261107-123              000062
100004454801049387041020130104938704102013               0000000000000261107-125              000063
100004454701049388041020130104938804102013               0000000000000261107-126              000064
100004454601049389041020130104938904102013               0000000000000261107-127              000065
100004454501049390041020130104939004102013               0000000000000261107-128              000066
100004454401049391041020130104939104102013               0000000000000261107-129              000067
100004454301049392041020130104939204102013               0000000000000261107-130              000068
100004454201049393041020130104939304102013               0000000000000261107-131              000069
100004454101049394041020130104939404102013               0000000000000261107-132              000070
100004454001049395041020130104939504102013               0000000000000261107-133              000071
100004453901049396041020130104939604102013               0000000000000261107-134              000072
100004453801049397041020130104939704102013               0000000000000261107-135              000073
100004453701049398041020130104939804102013               0000000000000261107-136              000074
100004453601049399041020130104939904102013               0000000000000261107-137              000075
100004453501049400041020130104940004102013               0000000000000261107-138              000076
100004453401049401041020130104940104102013               0000000000000261107-139              000077
100004453301049402041020130104940204102013               0000000000000261107-140              000078
100004453201049403041020130104940304102013               0000000000000261107-141              000079
100004453101049404041020130104940404102013               0000000000000261107-142              000080
100004453001049405041020130104940504102013               0000000000000261107-143              000081
100004452901049406041020130104940604102013               0000000000000261107-144              000082
100004452801049407041020130104940704102013               0000000000000261107-145              000083
100004452701049408041020130104940804102013               0000000000000261107-146              000084
100004452601049409041020130104940904102013               0000000000000261107-147              000085
100004452501049410041020130104941004102013               0000000000000261107-148              000086
100004452401049411041020130104941104102013               0000000000000261107-149              000087
100004452301049412041020130104941204102013               0000000000000261107-150              000088
100004452201049413041020130104941304102013               0000000000000261107-151              000089
100004452101049414041020130104941404102013               0000000000000261107-152              000090
100004452001049415041020130104941504102013               0000000000000261107-153              000091
100004451901049416041020130104941604102013               0000000000000261107-154              000092
100004451801049417041020130104941704102013               0000000000000261107-155              000093
100004451701049418041020130104941804102013               0000000000000261107-156              000094
100004451601049419041020130104941904102013               0000000000000261107-157              000095
100004461901049420041020130104942004102013               0000000000000261107-158              000096
100004461801049421041020130104942104102013               0000000000000261107-159              000097
100004461701049422041020130104942204102013               0000000000000261107-160              000098
100004461601049423041020130104942304102013               0000000000000261107-161              000099
100004461501049424041020130104942404102013               0000000000000261107-162              000100
100004461401049425041020130104942504102013               0000000000000261107-163              000101
100004461301049426041020130104942604102013               0000000000000261107-164              000102
100004461201049427041020130104942704102013               0000000000000261107-165              000103
100004461101049428041020130104942804102013               0000000000000261107-166              000104
100004461001049429041020130104942904102013               0000000000000261107-167              000105
100004460901049430041020130104943004102013               0000000000000261107-168              000106
100004460801049431041020130104943104102013               0000000000000261107-169              000107
100004460701049432041020130104943204102013               0000000000000261107-170              000108
100004460601049433041020130104943304102013               0000000000000261107-171              000109
100004460501049434041020130104943404102013               0000000000000261107-172              000110
100004460401049435041020130104943504102013               0000000000000261107-173              000111
100004460301049436041020130104943604102013               0000000000000261107-174              000112
100004460201049437041020130104943704102013               0000000000000261107-175              000113
100004460101049438041020130104943804102013               0000000000000261107-176              000114
100004460001049439041020130104943904102013               0000000000000261107-177              000115
100004459901049440041020130104944004102013               0000000000000261107-178              000116
100004459801049441041020130104944104102013               0000000000000261107-179              000117
100004459701049442041020130104944204102013               0000000000000261107-180              000118
100004459601049443041020130104944304102013               0000000000000261107-181              000119
100004459501049444041020130104944404102013               0000000000000261107-182              000120
100004459401049445041020130104944504102013               0000000000000261107-183              000121
100004459301049446041020130104944604102013               0000000000000261107-184              000122
100004462301050402071020130105040207102013               0000000000000261422-1                000123
100004462401050403071020130105040307102013               0000000000000261422-2                000124
100004462001050404071020130105040407102013               0000000000000261422-3                000125
100004462201050405071020130105040507102013               0000000000000261422-4                000126
100004462101050406071020130105040607102013               0000000000000261422-5                000127
9000126                                                                                       000128
