0RETORNONOTIFICAÇÃO ELETRONICA        29022012REGI                                            000001
100003398800723956290220120072395629022012               0000000000000164559-1                000002
100003398900723957290220120072395729022012               0000000000000164559-3                000003
100003399000723958290220120072395829022012               0000000000000164559-4                000004
100003399100723959290220120072395929022012               0000000000000164559-5                000005
100003399200723960290220120072396029022012               0000000000000164559-6                000006
100003399300723961290220120072396129022012               0000000000000164559-7                000007
100003396700723962290220120072396229022012               0000000000000164707-1                000008
100003404000723963290220120072396329022012               0000000000000164707-2                000009
100003404100723964290220120072396429022012               0000000000000164707-3                000010
100003404200723965290220120072396529022012               0000000000000164707-4                000011
100003404300723966290220120072396629022012               0000000000000164707-5                000012
100003404400723967290220120072396729022012               0000000000000164707-6                000013
100003404500723968290220120072396829022012               0000000000000164707-7                000014
100003404600723969290220120072396929022012               0000000000000164707-9                000015
100003405700723970290220120072397029022012               0000000000000164707-10               000016
100003406100723971290220120072397129022012               0000000000000164707-11               000017
100003406200723972290220120072397229022012               0000000000000164707-12               000018
100003406300723973290220120072397329022012               0000000000000164707-17               000019
100003406400723974290220120072397429022012               0000000000000164707-18               000020
100003406500723975290220120072397529022012               0000000000000164707-19               000021
100003406600723976290220120072397629022012               0000000000000164707-20               000022
100003406700723977290220120072397729022012               0000000000000164707-22               000023
100003406800723978290220120072397829022012               0000000000000164707-23               000024
9000023                                                                                       000025
