0RETORNONOTIFICAÇÃO ELETRONICA        11022011REGI                                            000001
100002603800473733100220110047373310022011               0000000000000121992-1                000002
100002605200473734100220110047373410022011               0000000000000121992-2                000003
100002607000473735100220110047373510022011               0000000000000121992-3                000004
100002607300473736100220110047373610022011               0000000000000121992-4                000005
100002610800473737100220110047373710022011               0000000000000121992-5                000006
100002613100473738100220110047373810022011               0000000000000121992-6                000007
100002613300473739100220110047373910022011               0000000000000121992-7                000008
100002613900473740100220110047374010022011               0000000000000121992-8                000009
100002614000473741100220110047374110022011               0000000000000121992-9                000010
100002614100473742100220110047374210022011               0000000000000121992-10               000011
100002624000473743100220110047374310022011               0000000000000121992-11               000012
100002624100473744100220110047374410022011               0000000000000121992-15               000013
100002624200473745100220110047374510022011               0000000000000121992-16               000014
9000013                                                                                       000015
