0RETORNONOTIFICAÇÃO ELETRONICA        20072010REGI                                            000001
100002316500304230160720100030423016072010               0000000000000105798-1                000002
100002318100304231160720100030423116072010               0000000000000105798-2                000003
100002319100304232160720100030423216072010               0000000000000105798-3                000004
100002320800304233160720100030423316072010               0000000000000105798-4                000005
100002320900304234160720100030423416072010               0000000000000105798-5                000006
100002321000304235160720100030423516072010               0000000000000105798-6                000007
100002321100304236160720100030423616072010               0000000000000105798-7                000008
100002321200304237160720100030423716072010               0000000000000105798-8                000009
100002321300304238160720100030423816072010               0000000000000105798-10               000010
100002321400304239160720100030423916072010               0000000000000105798-19               000011
100002321500304240160720100030424016072010               0000000000000105798-21               000012
100002321600304241160720100030424116072010               0000000000000105798-22               000013
100002321700304242160720100030424216072010               0000000000000105933-1                000014
9000013                                                                                       000015
