0RETORNONOTIFICAÇÃO ELETRONICA        30072010REGI                                            000001
100002340500311591290720100031159129072010               0000000000000106821-1                000002
100002334300311592290720100031159229072010               0000000000000106952-1                000003
100002340900311593290720100031159329072010               0000000000000106952-2                000004
100002342300311594290720100031159429072010               0000000000000106952-3                000005
100002342400311595290720100031159529072010               0000000000000106952-4                000006
100002342500311596290720100031159629072010               0000000000000106952-5                000007
100002342600311597290720100031159729072010               0000000000000106952-6                000008
100002343200311598290720100031159829072010               0000000000000106952-7                000009
100002343300311599290720100031159929072010               0000000000000106952-8                000010
100002344500311600290720100031160029072010               0000000000000106952-9                000011
100002344600311601290720100031160129072010               0000000000000107083-1                000012
100002344700311602290720100031160229072010               0000000000000107083-2                000013
100002344800311603290720100031160329072010               0000000000000107083-7                000014
100002344900311604290720100031160429072010               0000000000000107083-8                000015
100002345000311605290720100031160529072010               0000000000000107083-9                000016
9000015                                                                                       000017
