0RETORNONOTIFICAÇÃO ELETRONICA        25082010REGI                                            000001
100002365800381320240820100038132024082010               0000000000000109468-1                000002
100002367200381321240820100038132124082010               0000000000000109468-2                000003
100002368700381322240820100038132224082010               0000000000000109468-3                000004
100002368800381323240820100038132324082010               0000000000000109468-4                000005
100002370600381324240820100038132424082010               0000000000000109468-5                000006
100002372800381325240820100038132524082010               0000000000000109468-6                000007
100002373300381326240820100038132624082010               0000000000000109468-7                000008
100002374700381327240820100038132724082010               0000000000000109468-8                000009
100002380000381328240820100038132824082010               0000000000000109468-9                000010
100002380800381329240820100038132924082010               0000000000000109468-10               000011
100002380900381330240820100038133024082010               0000000000000109468-11               000012
100002384300381331240820100038133124082010               0000000000000109468-12               000013
9000012                                                                                       000014
