0RETORNONOTIFICAÇÃO ELETRONICA        05122011REGI                                            000001
100003217400679315021220110067931502122011               0000000000000153741-1                000002
100003217500679316021220110067931602122011               0000000000000153741-2                000003
100003217600679317021220110067931702122011               0000000000000153741-3                000004
100003217700679318021220110067931802122011               0000000000000153741-4                000005
100003217800679319021220110067931902122011               0000000000000153741-5                000006
9000005                                                                                       000007
