0RETORNONOTIFICAÇÃO ELETRONICA        20012012REGI                                            000001
100003243500707398190120120070739819012012               0000000000000158716-1                000002
100003245900707399190120120070739919012012               0000000000000158716-2                000003
100003246300707400190120120070740019012012               0000000000000158716-3                000004
100003328400707401190120120070740119012012               0000000000000158716-4                000005
100003328500707402190120120070740219012012               0000000000000158716-5                000006
100003329500707403190120120070740319012012               0000000000000158942-1                000007
100003329600707404190120120070740419012012               0000000000000158942-10               000008
100003330800707405190120120070740519012012               0000000000000158942-11               000009
100003331300707406190120120070740619012012               0000000000000159380-1                000010
100003331400707407190120120070740719012012               0000000000000159380-3                000011
100003331500707408190120120070740819012012               0000000000000159380-4                000012
100003331600707409190120120070740919012012               0000000000000159380-5                000013
100003331700707410190120120070741019012012               0000000000000159380-8                000014
100003246400707411190120120070741119012012               0000000000000159382-1                000015
100003250200707412190120120070741219012012               0000000000000159382-2                000016
100003255700707413190120120070741319012012               0000000000000159382-3                000017
9000016                                                                                       000018
