0RETORNONOTIFICAÇÃO ELETRONICA        20042011REGI                                            000001
100002726600512429200420110051242920042011               0000000000000128353-1                000002
100002726700512430200420110051243020042011               0000000000000128353-2                000003
100002726800512431200420110051243120042011               0000000000000128353-3                000004
100002726900512432200420110051243220042011               0000000000000128353-4                000005
100002727000512433200420110051243320042011               0000000000000128353-5                000006
9000005                                                                                       000007
