0RETORNONOTIFICAÇÃO ELETRONICA        28092010REGI                                            000001
100002432700395514270920100039551427092010               0000000000000112122-1                000002
100002432800395515270920100039551527092010               0000000000000112122-3                000003
100002432900395516270920100039551627092010               0000000000000112122-4                000004
100002433000395517270920100039551727092010               0000000000000112122-7                000005
100002433100395518270920100039551827092010               0000000000000112122-8                000006
9000005                                                                                       000007
