0RETORNONOTIFICAÇÃO ELETRONICA        15102010REGI                                            000001
100002453100402142151020100040214215102010               0000000000000113438-1                000002
100002453900402143151020100040214315102010               0000000000000113438-2                000003
100002454700402144151020100040214415102010               0000000000000113438-3                000004
100002454900402145151020100040214515102010               0000000000000113438-4                000005
100002456800402146151020100040214615102010               0000000000000113438-5                000006
100002462000402147151020100040214715102010               0000000000000113438-6                000007
9000006                                                                                       000008
