0RETORNONOTIFICAÇÃO ELETRONICA        18072011REGI                                            000001
100002896400578646140720110057864614072011               0000000000000136957-1                000002
100002898300578647140720110057864714072011               0000000000000136957-2                000003
100002898400578648140720110057864814072011               0000000000000136957-7                000004
100002898500578649140720110057864914072011               0000000000000136957-14               000005
100002898600578650140720110057865014072011               0000000000000137064-1                000006
100002898700578651140720110057865114072011               0000000000000137064-2                000007
100002898800578652140720110057865214072011               0000000000000137064-3                000008
100002898900578653140720110057865314072011               0000000000000137064-4                000009
9000008                                                                                       000010
