0RETORNONOTIFICAÇÃO ELETRONICA        20062012REGI                                            000001
100003589600780003190620120078000319062012               0000000000000179640-1                000002
100003589700780004190620120078000419062012               0000000000000179640-3                000003
100003590100780005190620120078000519062012               0000000000000179640-4                000004
100003590900780006190620120078000619062012               0000000000000179640-5                000005
100003591100780007190620120078000719062012               0000000000000179640-6                000006
100003591400780008190620120078000819062012               0000000000000179640-7                000007
100003590800780009190620120078000919062012               0000000000000179641-1                000008
100003591500780010190620120078001019062012               0000000000000179641-2                000009
100003591600780011190620120078001119062012               0000000000000179641-3                000010
100003591700780012190620120078001219062012               0000000000000179641-4                000011
100003591800780013190620120078001319062012               0000000000000179641-5                000012
100003591900780014190620120078001419062012               0000000000000179641-7                000013
100003592000780015190620120078001519062012               0000000000000179641-10               000014
100003589400780016190620120078001619062012               0000000000000179643-1                000015
100003593300780017190620120078001719062012               0000000000000179643-2                000016
100003593400780018190620120078001819062012               0000000000000179643-3                000017
100003593500780019190620120078001919062012               0000000000000179643-4                000018
100003593900780020190620120078002019062012               0000000000000179643-5                000019
100003594600780021190620120078002119062012               0000000000000179643-6                000020
100003596700780022190620120078002219062012               0000000000000179643-7                000021
100003596800780023190620120078002319062012               0000000000000179643-8                000022
100003596900780024190620120078002419062012               0000000000000179643-9                000023
100003597000780025190620120078002519062012               0000000000000179643-10               000024
100003597100780026190620120078002619062012               0000000000000179643-11               000025
100003597200780027190620120078002719062012               0000000000000179643-12               000026
100003597300780028190620120078002819062012               0000000000000179643-15               000027
100003597400780029190620120078002919062012               0000000000000179643-16               000028
9000027                                                                                       000029
