0RETORNONOTIFICAÇÃO ELETRONICA        09042014REGI                                            000001
100004686801177950250320140117795025032014FA270806876BR  0000031032014291677-1                000002
100004686901177951250320140117795125032014FA270806880BR  0000031032014291677-2                000003
100004687001177952250320140117795225032014FA270806893BR  0000031032014291677-3                000004
100004687101177953250320140117795325032014               0000000000000291677-4                000005
100004687201177954250320140117795425032014FA270806916BR  0000031032014291677-5                000006
100004687301177955250320140117795525032014               0000000000000291677-6                000007
100004687401177956250320140117795625032014               0000000000000291677-7                000008
100004689401177957250320140117795725032014FA270806947BR  0001228032014291677-8                000009
100004689501177958250320140117795825032014FA270806955BR  0000031032014291677-12               000010
100004689601177959250320140117795925032014               0000000000000291677-15               000011
100004689701177960250320140117796025032014FA270806978BR  0000003042014291677-17               000012
100004689801177961250320140117796125032014FA270806981BR  0000031032014291677-21               000013
100004689901177962250320140117796225032014FA270806995BR  0000031032014291677-23               000014
100004690001177963250320140117796325032014FA270807001BR  0000031032014291677-26               000015
100004690101177964250320140117796425032014FA270807015BR  0000031032014291677-28               000016
9000015                                                                                       000017
