0RETORNONOTIFICAÇÃO ELETRONICA        09082011REGI                                            000001
100002944100592471080820110059247108082011               0000000000000139769-1                000002
100002944200592472080820110059247208082011               0000000000000139769-4                000003
100002944300592473080820110059247308082011               0000000000000139769-5                000004
100002944400592474080820110059247408082011               0000000000000139769-7                000005
100002944500592475080820110059247508082011               0000000000000139769-9                000006
100002945700592476080820110059247608082011               0000000000000139769-10               000007
9000006                                                                                       000008
