0RETORNONOTIFICAÇÃO ELETRONICA        18122012REGI                                            000001
100003917200870622101220120087062210122012FA063006319BR  0000017122012209443-1                000002
100003917400870623101220120087062310122012FA063006322BR  0000017122012209443-2                000003
100003915900870624101220120087062410122012               0000000000000209443-3                000004
100003915800870625101220120087062510122012FA063006340BR  0000017122012209443-4                000005
100003916000870626101220120087062610122012FA063006353BR  0000017122012209443-5                000006
100003916100870627101220120087062710122012FA063006367BR  0000017122012209443-6                000007
100003918000870628101220120087062810122012FA063006375BR  0000014122012209445-1                000008
100003917700870629101220120087062910122012FA063006384BR  0000017122012209445-2                000009
100003918200870630101220120087063010122012FA063006398BR  0000014122012209445-3                000010
100003915100870631101220120087063110122012FA063006407BR  0000017122012209445-4                000011
100003918300870632101220120087063210122012FA063006415BR  0000017122012209445-5                000012
100003918500870633101220120087063310122012               0000000000000209445-6                000013
100003918400870634101220120087063410122012FA063006438BR  0000017122012209445-7                000014
100003918100870635101220120087063510122012FA063006441BR  0000017122012209445-10               000015
100003917600870636101220120087063610122012               0000000000000209445-11               000016
100003917500870637101220120087063710122012               0000000000000209445-12               000017
100003915300870638101220120087063810122012FA063006472BR  0000017122012209445-13               000018
100003917900870639101220120087063910122012FA063006486BR  0000017122012209445-14               000019
100003918700870640101220120087064010122012FA063006490BR  0000017122012209445-15               000020
100003917800870641101220120087064110122012FA063006509BR  0000017122012209445-16               000021
100003918600870642101220120087064210122012FA063006512BR  0000014122012209445-17               000022
100003920200872462131220120087246213122012FA063024241BR  0000017122012210415-1                000023
100003920100872463131220120087246313122012               0000000000000210415-2                000024
100003920500872464131220120087246413122012               0000000000000210415-3                000025
100003920400872465131220120087246513122012               0000000000000210415-24               000026
100003920300872466131220120087246613122012               0000000000000210415-25               000027
100003920600872467131220120087246713122012               0000000000000210415-26               000028
100003923000872468131220120087246813122012               0000000000000210420-1                000029
100003923100872469131220120087246913122012               0000000000000210420-2                000030
100003922600872470131220120087247013122012               0000000000000210420-4                000031
100003922700872471131220120087247113122012               0000000000000210420-5                000032
100003922800872472131220120087247213122012               0000000000000210420-6                000033
100003922900872473131220120087247313122012               0000000000000210420-7                000034
9000033                                                                                       000035
