0RETORNONOTIFICAÇÃO ELETRONICA        13082012REGI                                            000001
100003681100812729100820120081272910082012               0000000000000187671-1                000002
100003681200812730100820120081273010082012               0000000000000187671-2                000003
100003688600812731100820120081273110082012               0000000000000187684-1                000004
100003688700812732100820120081273210082012               0000000000000187684-2                000005
100003688800812733100820120081273310082012               0000000000000187684-3                000006
100003692200812734100820120081273410082012               0000000000000187684-4                000007
100003692300812735100820120081273510082012               0000000000000187684-5                000008
100003692400812736100820120081273610082012               0000000000000187684-6                000009
100003692500812737100820120081273710082012               0000000000000187684-7                000010
100003692600812738100820120081273810082012               0000000000000187684-8                000011
100003692700812739100820120081273910082012               0000000000000187684-9                000012
100003692800812740100820120081274010082012               0000000000000187684-10               000013
100003692900812741100820120081274110082012               0000000000000187684-11               000014
100003693000812742100820120081274210082012               0000000000000187684-12               000015
100003693100812743100820120081274310082012               0000000000000187684-13               000016
100003693200812744100820120081274410082012               0000000000000187684-14               000017
100003693300812745100820120081274510082012               0000000000000187684-15               000018
100003694900812746100820120081274610082012               0000000000000187684-16               000019
100003695000812747100820120081274710082012               0000000000000187688-1                000020
100003695100812748100820120081274810082012               0000000000000187688-2                000021
100003695200812749100820120081274910082012               0000000000000187688-3                000022
100003695300812750100820120081275010082012               0000000000000187688-4                000023
100003695400812751100820120081275110082012               0000000000000187688-5                000024
100003695500812752100820120081275210082012               0000000000000187688-7                000025
100003695600812753100820120081275310082012               0000000000000187688-8                000026
100003695700812754100820120081275410082012               0000000000000187688-10               000027
100003695800812755100820120081275510082012               0000000000000187688-12               000028
100003695900812756100820120081275610082012               0000000000000187688-14               000029
100003696000812757100820120081275710082012               0000000000000187688-16               000030
100003697600812758100820120081275810082012               0000000000000187688-17               000031
100003697700812759100820120081275910082012               0000000000000187688-30               000032
100003697900812760100820120081276010082012               0000000000000187688-42               000033
100003698000812761100820120081276110082012               0000000000000187688-56               000034
100003698100812762100820120081276210082012               0000000000000187688-68               000035
100003698200812763100820120081276310082012               0000000000000187688-80               000036
100003698300812764100820120081276410082012               0000000000000187688-92               000037
100003698400812765100820120081276510082012               0000000000000187688-107              000038
100003698500812766100820120081276610082012               0000000000000187688-122              000039
100003698600812767100820120081276710082012               0000000000000187690-1                000040
100003698700812768100820120081276810082012               0000000000000187690-12               000041
100003700100812769100820120081276910082012               0000000000000187690-22               000042
100003700200812770100820120081277010082012               0000000000000187690-34               000043
100003700300812771100820120081277110082012               0000000000000187690-39               000044
100003700400812772100820120081277210082012               0000000000000187690-42               000045
100003700500812773100820120081277310082012               0000000000000187690-47               000046
100003700600812774100820120081277410082012               0000000000000187690-53               000047
100003700800812776100820120081277610082012               0000000000000187690-92               000048
100003700900812777100820120081277710082012               0000000000000187690-101              000049
100003701000812778100820120081277810082012               0000000000000187690-104              000050
100003701100812779100820120081277910082012               0000000000000187690-120              000051
100003701200812780100820120081278010082012               0000000000000187690-121              000052
9000051                                                                                       000053
