0RETORNONOTIFICAÇÃO ELETRONICA        19082011REGI                                            000001
100002961500597053180820110059705318082011               0000000000000141281-1                000002
100002961600597054180820110059705418082011               0000000000000141281-2                000003
100002961700597055180820110059705518082011               0000000000000141281-3                000004
9000003                                                                                       000005
