0RETORNONOTIFICAÇÃO ELETRONICA        24052011REGI                                            000001
100002776500540134230520110054013423052011               0000000000000131326-1                000002
100002776600540135230520110054013523052011               0000000000000131326-2                000003
100002776700540136230520110054013623052011               0000000000000131326-3                000004
100002776800540137230520110054013723052011               0000000000000131326-4                000005
100002778300540138230520110054013823052011               0000000000000131326-5                000006
100002778400540139230520110054013923052011               0000000000000131326-6                000007
9000006                                                                                       000008
