0RETORNONOTIFICAÇÃO ELETRONICA        04042012REGI                                            000001
100003460700745390030420120074539003042012               0000000000000169389-1                000002
100003460800745391030420120074539103042012               0000000000000169389-2                000003
100003460900745392030420120074539203042012               0000000000000169389-3                000004
100003461000745393030420120074539303042012               0000000000000169389-4                000005
100003461100745394030420120074539403042012               0000000000000169389-5                000006
100003461200745395030420120074539503042012               0000000000000169389-6                000007
100003463200745396030420120074539603042012               0000000000000169389-8                000008
100003459000745397030420120074539703042012               0000000000000169394-1                000009
100003462800745398030420120074539803042012               0000000000000169394-2                000010
100003463000745399030420120074539903042012               0000000000000169394-3                000011
100003463100745400030420120074540003042012               0000000000000169394-4                000012
100003463700745401030420120074540103042012               0000000000000169394-5                000013
100003463800745402030420120074540203042012               0000000000000169394-9                000014
100003463900745403030420120074540303042012               0000000000000169394-10               000015
100003464600745404030420120074540403042012               0000000000000169394-12               000016
100003464700745405030420120074540503042012               0000000000000169394-13               000017
9000016                                                                                       000018
