0RETORNONOTIFICAÇÃO ELETRONICA        13102010REGI                                            000001
100002456400401234131020100040123413102010               0000000000000113266-1                000002
100002456500401235131020100040123513102010               0000000000000113266-2                000003
100002458300401236131020100040123613102010               0000000000000113266-4                000004
100002458400401239131020100040123913102010               0000000000000113266-8                000005
100002458400401237131020100040123713102010               0000000000000113266-34               000006
100002458500401238131020100040123813102010               0000000000000113266-55               000007
9000006                                                                                       000008
