0RETORNONOTIFICAÇÃO ELETRONICA        03012011REGI                                            000001
100002541300440690231220100044069023122010               0000000000000118534-1                000002
100002541500440691231220100044069123122010               0000000000000118534-2                000003
100002545700440692231220100044069223122010               0000000000000118534-3                000004
100002545800440693231220100044069323122010               0000000000000118534-4                000005
100002548900440694231220100044069423122010               0000000000000118534-5                000006
100002554200440695231220100044069523122010               0000000000000118534-6                000007
100002554300440696231220100044069623122010               0000000000000118534-7                000008
100002554400440771231220100044077123122010               0000000000000118575-1                000009
100002554500440772231220100044077223122010               0000000000000118575-2                000010
100002554600440773231220100044077323122010               0000000000000118575-3                000011
100002554700440774231220100044077423122010               0000000000000118575-6                000012
100002557300440775231220100044077523122010               0000000000000118575-7                000013
100002559700443260281220100044326028122010               0000000000000118681-1                000014
100002559800443261281220100044326128122010               0000000000000118681-2                000015
100002559900443262281220100044326228122010               0000000000000118681-3                000016
100002560000443263281220100044326328122010               0000000000000118681-4                000017
9000016                                                                                       000018
