0RETORNONOTIFICAÇÃO ELETRONICA        06052011REGI                                            000001
100002744100529521050520110052952105052011               0000000000000129591-1                000002
100002744200529522050520110052952205052011               0000000000000129591-4                000003
100002744300529523050520110052952305052011               0000000000000129591-6                000004
100002744400529524050520110052952405052011               0000000000000129591-7                000005
100002744500529525050520110052952505052011               0000000000000129591-8                000006
100002744600529526050520110052952605052011               0000000000000129591-10               000007
100002744700529527050520110052952705052011               0000000000000129591-16               000008
100002744800529528050520110052952805052011               0000000000000129591-17               000009
9000008                                                                                       000010
