0RETORNONOTIFICAÇÃO ELETRONICA        08072010REGI                                            000001
100002305700300999070720100030099907072010               0000000000000105011-1                000002
100002305800301000070720100030100007072010               0000000000000105011-2                000003
100002305900301001070720100030100107072010               0000000000000105011-3                000004
100002306000301002070720100030100207072010               0000000000000105011-4                000005
100002308600301003070720100030100307072010               0000000000000105152-1                000006
100002308700301004070720100030100407072010               0000000000000105152-2                000007
100002308800301005070720100030100507072010               0000000000000105152-10               000008
100002308900301006070720100030100607072010               0000000000000105152-12               000009
9000008                                                                                       000010
