0RETORNONOTIFICAÇÃO ELETRONICA        24022011REGI                                            000001
100002645100480954240220110048095424022011               0000000000000123236-1                000002
100002645200480955240220110048095524022011               0000000000000123236-2                000003
100002645300480956240220110048095624022011               0000000000000123236-5                000004
100002645400480957240220110048095724022011               0000000000000123236-6                000005
9000004                                                                                       000006
