0RETORNONOTIFICAÇÃO ELETRONICA        05102011REGI                                            000001
100003082600637612041020110063761204102011               0000000000000146910-1                000002
100003083700637613041020110063761304102011               0000000000000146910-2                000003
100003097800637614041020110063761404102011               0000000000000146910-3                000004
100003097900637615041020110063761504102011               0000000000000146910-7                000005
100003098000637616041020110063761604102011               0000000000000146910-8                000006
100003098100637617041020110063761704102011               0000000000000146910-9                000007
100003102400637618041020110063761804102011               0000000000000146910-10               000008
100003102500637619041020110063761904102011               0000000000000146910-11               000009
100003102700637620041020110063762004102011               0000000000000146910-12               000010
100003102800637621041020110063762104102011               0000000000000146910-13               000011
100003102900637622041020110063762204102011               0000000000000146910-34               000012
100003103000637623041020110063762304102011               0000000000000146910-35               000013
9000012                                                                                       000014
