0RETORNONOTIFICAÇÃO ELETRONICA        22012015REGI                                            000001
100005031101428069190120150142806919012015               0000000000000341025-1                000002
100005034001428070190120150142807019012015               0000000000000341025-2                000003
100005039501428071190120150142807119012015               0000000000000341025-3                000004
100005040601428072190120150142807219012015               0000000000000341025-4                000005
100005040901428073190120150142807319012015FA318595127BR  0000021012015341025-5                000006
100005041101428074190120150142807419012015FA318595135BR  0000021012015341025-6                000007
100005043801428075190120150142807519012015               0000000000000341025-7                000008
100005044801428076190120150142807619012015               0000000000000341025-8                000009
100005045701428077190120150142807719012015               0000000000000341025-9                000010
100005045801428078190120150142807819012015               0000000000000341025-10               000011
100005046101428079190120150142807919012015               0000000000000341025-11               000012
100005046201428080190120150142808019012015               0000000000000341025-12               000013
100005046301428081190120150142808119012015               0000000000000341027-1                000014
100005046501428082190120150142808219012015               0000000000000341261-1                000015
100005046601428083190120150142808319012015               0000000000000341261-2                000016
100005046701428084190120150142808419012015               0000000000000341261-3                000017
100005046801428085190120150142808519012015               0000000000000341261-4                000018
100005047101428086190120150142808619012015               0000000000000341262-1                000019
100005047401428087190120150142808719012015               0000000000000341265-1                000020
100005047501428088190120150142808819012015               0000000000000341265-2                000021
100005047601428089190120150142808919012015               0000000000000341265-3                000022
100005049101428090190120150142809019012015               0000000000000341271-1                000023
100005049201428091190120150142809119012015               0000000000000341271-2                000024
100005049301428092190120150142809219012015               0000000000000341271-3                000025
100005049401428093190120150142809319012015               0000000000000341271-4                000026
100005049801428094190120150142809419012015               0000000000000341273-1                000027
100005049901428095190120150142809519012015               0000000000000341273-2                000028
100005050201428110190120150142811019012015               0000000000000341276-1                000029
100005050601428111190120150142811119012015               0000000000000341481-1                000030
100005051001428338200120150142833820012015               0000000000000341717-1                000031
100005051101428339200120150142833920012015               0000000000000341717-2                000032
100005051201428340200120150142834020012015               0000000000000341717-3                000033
9000032                                                                                       000034
