0RETORNONOTIFICAÇÃO ELETRONICA        27092013REGI                                            000001
100004423201041101260920130104110126092013               0000000000000259163-1                000002
100004423501041102260920130104110226092013               0000000000000259163-2                000003
100004423601041103260920130104110326092013               0000000000000259163-4                000004
100004423701041104260920130104110426092013               0000000000000259163-7                000005
100004426101041105260920130104110526092013               0000000000000259163-8                000006
100004429401041106260920130104110626092013               0000000000000259163-10               000007
100004429301041107260920130104110726092013               0000000000000259163-11               000008
100004429201041108260920130104110826092013               0000000000000259163-13               000009
100004429101041109260920130104110926092013               0000000000000259163-14               000010
100004429001041110260920130104111026092013               0000000000000259163-16               000011
100004428901041111260920130104111126092013               0000000000000259163-17               000012
100004428801041112260920130104111226092013               0000000000000259163-18               000013
100004428701041113260920130104111326092013               0000000000000259163-20               000014
100004428601041114260920130104111426092013               0000000000000259163-22               000015
100004428501041115260920130104111526092013               0000000000000259163-24               000016
100004428401041116260920130104111626092013               0000000000000259163-25               000017
100004428301041117260920130104111726092013               0000000000000259163-27               000018
100004428201041118260920130104111826092013               0000000000000259163-28               000019
100004428101041119260920130104111926092013               0000000000000259163-29               000020
100004428001041120260920130104112026092013               0000000000000259163-30               000021
100004427901041121260920130104112126092013               0000000000000259163-32               000022
100004427801041122260920130104112226092013               0000000000000259163-33               000023
100004427701041123260920130104112326092013               0000000000000259163-35               000024
100004427601041124260920130104112426092013               0000000000000259163-36               000025
100004427501041125260920130104112526092013               0000000000000259163-37               000026
100004427401041126260920130104112626092013               0000000000000259163-38               000027
100004427301041127260920130104112726092013               0000000000000259163-42               000028
100004427201041128260920130104112826092013               0000000000000259163-44               000029
100004427101041129260920130104112926092013               0000000000000259163-49               000030
100004427001041130260920130104113026092013               0000000000000259163-51               000031
100004426901041131260920130104113126092013               0000000000000259163-54               000032
100004426801041132260920130104113226092013               0000000000000259163-57               000033
100004426701041133260920130104113326092013               0000000000000259163-60               000034
100004426601041134260920130104113426092013               0000000000000259163-62               000035
100004426501041135260920130104113526092013               0000000000000259163-64               000036
100004426401041136260920130104113626092013               0000000000000259163-67               000037
100004426301041137260920130104113726092013               0000000000000259163-70               000038
100004426201041138260920130104113826092013               0000000000000259163-72               000039
100004423301041139260920130104113926092013               0000000000000259163-73               000040
100004423401041140260920130104114026092013               0000000000000259163-74               000041
100004429601041141260920130104114126092013               0000000000000259164-1                000042
100004429501041142260920130104114226092013               0000000000000259164-2                000043
100004432401041143260920130104114326092013               0000000000000259386-1                000044
100004432301041144260920130104114426092013               0000000000000259386-2                000045
9000044                                                                                       000046
