0RETORNONOTIFICAÇÃO ELETRONICA        11012011REGI                                            000001
100002572600449783100120110044978310012011               0000000000000119253-1                000002
100002572700449784100120110044978410012011               0000000000000119253-2                000003
100002572800449785100120110044978510012011               0000000000000119253-3                000004
100002572900449786100120110044978610012011               0000000000000119253-5                000005
100002554800449787100120110044978710012011               0000000000000119255-1                000006
100002554900449788100120110044978810012011               0000000000000119255-2                000007
100002555100449789100120110044978910012011               0000000000000119255-3                000008
100002555200449790100120110044979010012011               0000000000000119255-4                000009
100002558300449791100120110044979110012011               0000000000000119255-5                000010
100002558500449792100120110044979210012011               0000000000000119255-6                000011
100002558600449793100120110044979310012011               0000000000000119255-7                000012
100002559000449794100120110044979410012011               0000000000000119255-8                000013
100002559400449795100120110044979510012011               0000000000000119255-9                000014
100002560300449796100120110044979610012011               0000000000000119255-10               000015
100002561300449797100120110044979710012011               0000000000000119255-11               000016
100002562400449798100120110044979810012011               0000000000000119255-12               000017
100002562500449799100120110044979910012011               0000000000000119255-13               000018
100002562800449800100120110044980010012011               0000000000000119255-14               000019
100002562900449801100120110044980110012011               0000000000000119255-15               000020
100002575700449802100120110044980210012011               0000000000000119257-1                000021
100002575800449803100120110044980310012011               0000000000000119257-2                000022
100002575900449804100120110044980410012011               0000000000000119258-1                000023
100002576000449805100120110044980510012011               0000000000000119258-2                000024
100002576100449806100120110044980610012011               0000000000000119258-3                000025
100002576200449807100120110044980710012011               0000000000000119258-5                000026
9000025                                                                                       000027
