0RETORNONOTIFICAÇÃO ELETRONICA        20092010REGI                                            000001
100002400600389651100920100038965110092010               0000000000000110611-1                000002
100002400700389652100920100038965210092010               0000000000000110611-3                000003
100002400800389653100920100038965310092010RL793212239BR  0000017092010110611-4                000004
100002400900389654100920100038965410092010               0000000000000110611-5                000005
100002401000389655100920100038965510092010RL793212256BR  0000017092010110611-6                000006
100002401100389656100920100038965610092010RL793212260BR  0000017092010110611-7                000007
100002401200389657100920100038965710092010RL793212273BR  0000017092010110611-8                000008
100002401300389658100920100038965810092010RL793212287BR  0000017092010110611-11               000009
100002401400389659100920100038965910092010               0000000000000110611-12               000010
100002403700389660100920100038966010092010RL793212300BR  0000117092010110611-13               000011
100002403800389661100920100038966110092010RL793212313BR  0000117092010110611-14               000012
100002403900389662100920100038966210092010RL793212327BR  0000117092010110611-15               000013
100002404000389663100920100038966310092010RL793212335BR  0000017092010110611-16               000014
100002404100389664100920100038966410092010               0000000000000110611-26               000015
100002404100389682100920100038968210092010               0000000000000110611-50               000016
100002404200389665100920100038966510092010RL793212358BR  0000017092010110612-1                000017
100002404300389666100920100038966610092010               0000000000000110612-2                000018
100002404400389667100920100038966710092010RL793212375BR  0000017092010110612-5                000019
100002404500389668100920100038966810092010               0000000000000110612-6                000020
100002404600389669100920100038966910092010RL793212392BR  0000017092010110612-7                000021
100002404700389670100920100038967010092010RL793212401BR  0000017092010110612-8                000022
100002406900390282140920100039028214092010               0000000000000110963-1                000023
100002407000390283140920100039028314092010               0000000000000110963-4                000024
100002407100390284140920100039028414092010               0000000000000110963-5                000025
100002410300390285140920100039028514092010               0000000000000110963-6                000026
100002400400390735150920100039073515092010               0000000000000111131-1                000027
100002401700390736150920100039073615092010               0000000000000111131-2                000028
100002410100390737150920100039073715092010               0000000000000111131-3                000029
100002410400390738150920100039073815092010               0000000000000111131-4                000030
100002410500390739150920100039073915092010               0000000000000111131-5                000031
100002410600390740150920100039074015092010               0000000000000111131-6                000032
100002410700390741150920100039074115092010               0000000000000111131-7                000033
100002410800390742150920100039074215092010               0000000000000111131-8                000034
100002410900390743150920100039074315092010               0000000000000111131-9                000035
100002411000390744150920100039074415092010               0000000000000111131-15               000036
100002411100390745150920100039074515092010               0000000000000111131-16               000037
100002411200390746150920100039074615092010               0000000000000111131-17               000038
100002411300390747150920100039074715092010               0000000000000111131-18               000039
100002411400390748150920100039074815092010               0000000000000111131-19               000040
100002413100390749150920100039074915092010               0000000000000111131-20               000041
100002413300390750150920100039075015092010               0000000000000111131-21               000042
100002418600391531170920100039153117092010               0000000000000111380-1                000043
100002418200391532170920100039153217092010               0000000000000111380-2                000044
100002418300391533170920100039153317092010               0000000000000111380-3                000045
100002418400391534170920100039153417092010               0000000000000111380-4                000046
100002418500391535170920100039153517092010               0000000000000111380-12               000047
100002418700391536170920100039153617092010               0000000000000111380-13               000048
100002418800391537170920100039153717092010               0000000000000111380-14               000049
9000048                                                                                       000050
