0RETORNONOTIFICAÇÃO ELETRONICA        16082010REGI                                            000001
100002364500317361130820100031736113082010               0000000000000108477-1                000002
100002364600317362130820100031736213082010               0000000000000108477-2                000003
100002364700317363130820100031736313082010               0000000000000108477-3                000004
100002364800317364130820100031736413082010               0000000000000108477-4                000005
100002362200317365130820100031736513082010               0000000000000108605-1                000006
100002364900317366130820100031736613082010               0000000000000108605-2                000007
100002365000317367130820100031736713082010               0000000000000108605-3                000008
100002365100317368130820100031736813082010               0000000000000108605-4                000009
100002365200317369130820100031736913082010               0000000000000108605-5                000010
100002365300317370130820100031737013082010               0000000000000108605-6                000011
100002367300317371130820100031737113082010               0000000000000108605-7                000012
100002367400317372130820100031737213082010               0000000000000108605-11               000013
9000012                                                                                       000014
