0RETORNONOTIFICAÇÃO ELETRONICA        25112010REGI                                            000001
100002502600429466231120100042946623112010               0000000000000115820-1                000002
100002502700429467231120100042946723112010               0000000000000115820-2                000003
100002502800429468231120100042946823112010               0000000000000115820-3                000004
100002502900429469231120100042946923112010               0000000000000115820-6                000005
100002503000429470231120100042947023112010               0000000000000115820-9                000006
100002504800429471231120100042947123112010               0000000000000115820-11               000007
100002504900429472231120100042947223112010               0000000000000115820-14               000008
100002505000429473231120100042947323112010               0000000000000115820-16               000009
100002503600429474231120100042947423112010               0000000000000115909-1                000010
100002503700429475231120100042947523112010               0000000000000115909-2                000011
100002503800429476231120100042947623112010               0000000000000115909-3                000012
100002504100429477231120100042947723112010               0000000000000115909-4                000013
100002505100429478231120100042947823112010               0000000000000115909-5                000014
100002505200429479231120100042947923112010               0000000000000115909-6                000015
100002505300429480231120100042948023112010               0000000000000115909-7                000016
100002505400429481231120100042948123112010               0000000000000115909-8                000017
100002505500429482231120100042948223112010               0000000000000115909-9                000018
100002505600429483231120100042948323112010               0000000000000115909-12               000019
100002506400429451231120100042945123112010               0000000000000116140-1                000020
100002506600429452231120100042945223112010               0000000000000116140-2                000021
100002507400429453231120100042945323112010               0000000000000116140-3                000022
100002507500429454231120100042945423112010               0000000000000116140-4                000023
100002507600429455231120100042945523112010               0000000000000116140-5                000024
100002507700429456231120100042945623112010               0000000000000116140-6                000025
100002507800429457231120100042945723112010               0000000000000116140-7                000026
100002509600430065241120100043006524112010               0000000000000116224-1                000027
100002509700430066241120100043006624112010               0000000000000116224-2                000028
100002509800430067241120100043006724112010               0000000000000116224-3                000029
100002509900430068241120100043006824112010               0000000000000116224-5                000030
100002510000430069241120100043006924112010               0000000000000116224-7                000031
100002510100430070241120100043007024112010               0000000000000116224-8                000032
100002510200430071241120100043007124112010               0000000000000116224-9                000033
9000032                                                                                       000034
