0RETORNONOTIFICAÇÃO ELETRONICA        01082011REGI                                            000001
100002919700587809290720110058780929072011               0000000000000138694-1                000002
100002917900587810290720110058781029072011               0000000000000138821-1                000003
100002920200587811290720110058781129072011               0000000000000138821-2                000004
100002921700587812290720110058781229072011               0000000000000138821-3                000005
100002921800587813290720110058781329072011               0000000000000138821-9                000006
100002921900587814290720110058781429072011               0000000000000138821-11               000007
100002922000587815290720110058781529072011               0000000000000138821-12               000008
100002923200587816290720110058781629072011               0000000000000138821-13               000009
100002923500587817290720110058781729072011               0000000000000138821-14               000010
9000009                                                                                       000011
