0RETORNONOTIFICAÇÃO ELETRONICA        30052012REGI                                            000001
100003555400772091300520120077209130052012               0000000000000177060-1                000002
100003555500772092300520120077209230052012               0000000000000177060-2                000003
100003555600772093300520120077209330052012               0000000000000177060-3                000004
100003555700772094300520120077209430052012               0000000000000177060-4                000005
100003555800772095300520120077209530052012               0000000000000177060-5                000006
100003555900772096300520120077209630052012               0000000000000177060-7                000007
100003556000772097300520120077209730052012               0000000000000177060-8                000008
100003556100772098300520120077209830052012               0000000000000177060-9                000009
100003556200772099300520120077209930052012               0000000000000177060-10               000010
100003557400772100300520120077210030052012               0000000000000177060-11               000011
100003557600772101300520120077210130052012               0000000000000177062-1                000012
100003558000772102300520120077210230052012               0000000000000177062-2                000013
100003558100772103300520120077210330052012               0000000000000177062-3                000014
100003558500772104300520120077210430052012               0000000000000177062-4                000015
100003559200772105300520120077210530052012               0000000000000177062-5                000016
100003559500772106300520120077210630052012               0000000000000177062-6                000017
100003559800772107300520120077210730052012               0000000000000177062-7                000018
100003559900772108300520120077210830052012               0000000000000177062-9                000019
100003560000772109300520120077210930052012               0000000000000177062-10               000020
100003560100772110300520120077211030052012               0000000000000177062-11               000021
100003560200772111300520120077211130052012               0000000000000177062-14               000022
100003560300772112300520120077211230052012               0000000000000177062-16               000023
100003560400772113300520120077211330052012               0000000000000177062-17               000024
100003560500772114300520120077211430052012               0000000000000177062-18               000025
100003560600772115300520120077211530052012               0000000000000177062-22               000026
100003560700772116300520120077211630052012               0000000000000177062-23               000027
100003560800772117300520120077211730052012               0000000000000177062-24               000028
100003560900772081300520120077208130052012               0000000000000177064-1                000029
100003561000772082300520120077208230052012               0000000000000177064-2                000030
100003561700772083300520120077208330052012               0000000000000177064-3                000031
100003562400772084300520120077208430052012               0000000000000177064-4                000032
100003563000772085300520120077208530052012               0000000000000177064-5                000033
100003563100772086300520120077208630052012               0000000000000177064-7                000034
100003563200772087300520120077208730052012               0000000000000177064-11               000035
100003563300772088300520120077208830052012               0000000000000177064-14               000036
100003563400772089300520120077208930052012               0000000000000177064-17               000037
100003563500772090300520120077209030052012               0000000000000177064-18               000038
9000037                                                                                       000039
