0RETORNONOTIFICAÇÃO ELETRONICA        13092013REGI                                            000001
100004395401031969110920130103196911092013               0000000000000256373-1                000002
100004393701031970110920130103197011092013               0000000000000256373-2                000003
100004385901031971110920130103197111092013               0000000000000256373-3                000004
100004388301031972110920130103197211092013               0000000000000256373-4                000005
100004394101031973110920130103197311092013               0000000000000256373-5                000006
100004388001031974110920130103197411092013               0000000000000256373-6                000007
100004384801031975110920130103197511092013               0000000000000256373-7                000008
100004387601031976110920130103197611092013               0000000000000256373-8                000009
100004393801031977110920130103197711092013               0000000000000256373-9                000010
100004395501031959110920130103195911092013               0000000000000256568-1                000011
100004398301031960110920130103196011092013               0000000000000256576-1                000012
100004398701031961110920130103196111092013               0000000000000256576-2                000013
100004398401031962110920130103196211092013               0000000000000256576-4                000014
100004398501031963110920130103196311092013               0000000000000256576-5                000015
100004398601031964110920130103196411092013               0000000000000256576-7                000016
100004401901031965110920130103196511092013               0000000000000256584-1                000017
100004403501031966110920130103196611092013               0000000000000256584-2                000018
100004403601031967110920130103196711092013               0000000000000256584-3                000019
100004401801031968110920130103196811092013               0000000000000256584-5                000020
100004397701033035120920130103303512092013               0000000000000256955-1                000021
100004397801033036120920130103303612092013               0000000000000256955-2                000022
100004404701033037120920130103303712092013               0000000000000256955-3                000023
100004404601033038120920130103303812092013               0000000000000256955-4                000024
100004403901033039120920130103303912092013               0000000000000256955-6                000025
100004403701033040120920130103304012092013               0000000000000256955-7                000026
100004403801033041120920130103304112092013               0000000000000256955-8                000027
100004404801033042120920130103304212092013               0000000000000257047-1                000028
100004405101033043120920130103304312092013               0000000000000257047-2                000029
100004404901033044120920130103304412092013               0000000000000257047-3                000030
100004405201033045120920130103304512092013               0000000000000257047-4                000031
100004405001033046120920130103304612092013               0000000000000257047-5                000032
100004407901033047120920130103304712092013               0000000000000257047-6                000033
100004408601033048120920130103304812092013               0000000000000257047-8                000034
100004408501033049120920130103304912092013               0000000000000257047-18               000035
100004408401033050120920130103305012092013               0000000000000257047-27               000036
100004408301033051120920130103305112092013               0000000000000257047-28               000037
100004408201033052120920130103305212092013               0000000000000257047-29               000038
100004408101033053120920130103305312092013               0000000000000257047-35               000039
100004408001033054120920130103305412092013               0000000000000257047-37               000040
9000039                                                                                       000041
