0RETORNONOTIFICAÇÃO ELETRONICA        27082014REGI                                            000001
100004884701304984210820140130498421082014               0000000000000317372-1                000002
100004884801304985210820140130498521082014               0000000000000317372-2                000003
100004884901304986210820140130498621082014               0000000000000317372-3                000004
100004885001304987210820140130498721082014               0000000000000317372-4                000005
100004885101304988210820140130498821082014               0000000000000317372-5                000006
100004885201304989210820140130498921082014               0000000000000317372-6                000007
100004886701304990210820140130499021082014FA283442976BR  0000025082014317373-1                000008
100004886801305553220820140130555322082014               0000000000000317646-1                000009
100004886901305554220820140130555422082014               0000000000000317646-2                000010
100004887001305555220820140130555522082014               0000000000000317646-3                000011
100004887101305556220820140130555622082014               0000000000000317646-4                000012
100004887301305557220820140130555722082014               0000000000000317646-5                000013
100004887401305558220820140130555822082014               0000000000000317646-6                000014
100004887501305559220820140130555922082014               0000000000000317646-7                000015
100004887601305560220820140130556022082014               0000000000000317646-8                000016
100004888601305561220820140130556122082014               0000000000000317646-9                000017
100004888801305562220820140130556222082014               0000000000000317646-10               000018
100004889001305563220820140130556322082014               0000000000000317646-11               000019
100004889101305564220820140130556422082014               0000000000000317646-12               000020
100004889201305565220820140130556522082014               0000000000000317646-13               000021
100004889301305566220820140130556622082014               0000000000000317646-14               000022
100004889401305567220820140130556722082014               0000000000000317646-15               000023
9000022                                                                                       000024
