0RETORNONOTIFICAÇÃO ELETRONICA        01032011REGI                                            000001
100002648200482318280220110048231828022011               0000000000000123486-1                000002
100002649900482319280220110048231928022011               0000000000000123486-4                000003
100002650000482320280220110048232028022011               0000000000000123486-5                000004
100002650100482321280220110048232128022011               0000000000000123486-6                000005
9000004                                                                                       000006
