0RETORNONOTIFICAÇÃO ELETRONICA        07122010REGI                                            000001
100002526700435916071220100043591607122010               0000000000000117106-1                000002
100002526800435917071220100043591707122010               0000000000000117106-2                000003
100002526900435918071220100043591807122010               0000000000000117106-3                000004
100002527000435919071220100043591907122010               0000000000000117106-4                000005
100002527100435920071220100043592007122010               0000000000000117106-5                000006
100002527200435921071220100043592107122010               0000000000000117106-6                000007
100002527300435922071220100043592207122010               0000000000000117106-7                000008
100002525500435923071220100043592307122010               0000000000000117210-1                000009
100002528500435924071220100043592407122010               0000000000000117210-2                000010
100002529500435925071220100043592507122010               0000000000000117210-3                000011
100002530400435926071220100043592607122010               0000000000000117210-4                000012
100002530700435927071220100043592707122010               0000000000000117210-5                000013
100002530800435928071220100043592807122010               0000000000000117210-6                000014
100002530900435929071220100043592907122010               0000000000000117210-7                000015
100002531000435930071220100043593007122010               0000000000000117210-8                000016
100002531100435931071220100043593107122010               0000000000000117210-9                000017
100002531200435932071220100043593207122010               0000000000000117210-10               000018
100002531300435933071220100043593307122010               0000000000000117210-11               000019
100002531400435934071220100043593407122010               0000000000000117210-12               000020
100002531500435935071220100043593507122010               0000000000000117210-13               000021
100002531600435936071220100043593607122010               0000000000000117210-14               000022
100002531700435937071220100043593707122010               0000000000000117210-17               000023
100002531800435938071220100043593807122010               0000000000000117210-18               000024
100002533500435939071220100043593907122010               0000000000000117210-19               000025
100002533600435940071220100043594007122010               0000000000000117210-20               000026
100002533700435941071220100043594107122010               0000000000000117210-22               000027
9000026                                                                                       000028
