0RETORNONOTIFICAÇÃO ELETRONICA        29102010REGI                                            000001
100002476600418720291020100041872029102010               0000000000000114432-1                000002
100002476700418721291020100041872129102010               0000000000000114432-2                000003
100002476800418722291020100041872229102010               0000000000000114432-5                000004
100002477800418723291020100041872329102010               0000000000000114432-6                000005
100002478000418724291020100041872429102010               0000000000000114432-7                000006
100002478500418725291020100041872529102010               0000000000000114432-8                000007
9000006                                                                                       000008
