0RETORNONOTIFICAÇÃO ELETRONICA        17022011REGI                                            000001
100002631500476299170220110047629917022011               0000000000000122595-1                000002
100002631600476300170220110047630017022011               0000000000000122595-2                000003
100002631700476301170220110047630117022011               0000000000000122595-4                000004
100002631800476302170220110047630217022011               0000000000000122595-6                000005
100002633100476303170220110047630317022011               0000000000000122595-7                000006
100002633200476304170220110047630417022011               0000000000000122596-1                000007
100002633300476305170220110047630517022011               0000000000000122596-2                000008
9000007                                                                                       000009
