0RETORNONOTIFICAÇÃO ELETRONICA        26012012REGI                                            000001
100003261000707415190120120070741519012012               0000000000000159382-5                000002
100003333600707416190120120070741619012012               0000000000000159382-6                000003
100003333700707417190120120070741719012012               0000000000000159382-8                000004
100003333800707418190120120070741819012012               0000000000000159382-9                000005
100003246500707925230120120070792523012012               0000000000000159618-1                000006
100003258300707926230120120070792623012012               0000000000000159618-2                000007
100003259200707927230120120070792723012012               0000000000000159618-3                000008
100003335000707928230120120070792823012012               0000000000000159618-4                000009
100003335100707929230120120070792923012012               0000000000000159618-8                000010
100003269900708987250120120070898725012012               0000000000000160110-1                000011
100003271300708988250120120070898825012012               0000000000000160110-2                000012
100003337100708989250120120070898925012012               0000000000000160110-3                000013
100003337200708990250120120070899025012012               0000000000000160110-4                000014
100003337300708991250120120070899125012012               0000000000000160110-5                000015
100003337400708992250120120070899225012012               0000000000000160110-6                000016
100003337500708993250120120070899325012012               0000000000000160110-9                000017
100003337600708994250120120070899425012012               0000000000000160110-15               000018
100003337700708995250120120070899525012012               0000000000000160110-16               000019
100003315700708996250120120070899625012012               0000000000000160112-1                000020
100003317000708997250120120070899725012012               0000000000000160112-2                000021
100003330000708998250120120070899825012012               0000000000000160112-3                000022
100003340000708999250120120070899925012012               0000000000000160112-4                000023
100003340100709000250120120070900025012012               0000000000000160112-9                000024
100003341400709001250120120070900125012012               0000000000000160112-10               000025
100003341600709002250120120070900225012012               0000000000000160112-22               000026
100003341700709003250120120070900325012012               0000000000000160112-41               000027
100003341800709004250120120070900425012012               0000000000000160112-47               000028
9000027                                                                                       000029
