0RETORNONOTIFICAÇÃO ELETRONICA        18032011REGI                                            000001
100002626500488293140320110048829314032011               0000000000000124338-1                000002
100002628200488294140320110048829414032011               0000000000000124338-2                000003
100002628300488295140320110048829514032011               0000000000000124338-3                000004
100002630900488296140320110048829614032011               0000000000000124338-4                000005
100002631200488297140320110048829714032011               0000000000000124338-5                000006
100002632800488298140320110048829814032011               0000000000000124338-6                000007
100002633000488299140320110048829914032011               0000000000000124338-7                000008
100002634000488300140320110048830014032011               0000000000000124338-8                000009
100002634700488301140320110048830114032011               0000000000000124338-9                000010
100002635000488302140320110048830214032011               0000000000000124338-10               000011
100002635200488303140320110048830314032011               0000000000000124338-11               000012
100002638200488304140320110048830414032011               0000000000000124338-12               000013
100002640200488305140320110048830514032011               0000000000000124338-13               000014
100002640300488306140320110048830614032011               0000000000000124338-14               000015
100002643900488307140320110048830714032011               0000000000000124338-15               000016
100002644400488308140320110048830814032011               0000000000000124338-16               000017
100002644500488309140320110048830914032011               0000000000000124338-17               000018
100002644600488310140320110048831014032011               0000000000000124338-18               000019
100002655200488311140320110048831114032011               0000000000000124338-19               000020
100002655300488312140320110048831214032011               0000000000000124338-20               000021
100002655400488313140320110048831314032011               0000000000000124338-21               000022
100002655500488314140320110048831414032011               0000000000000124338-22               000023
100002655600488315140320110048831514032011               0000000000000124338-23               000024
100002646600488316140320110048831614032011               0000000000000124339-1                000025
100002647200488317140320110048831714032011               0000000000000124339-2                000026
100002647900488318140320110048831814032011               0000000000000124339-3                000027
100002648000488319140320110048831914032011               0000000000000124339-4                000028
100002648400488320140320110048832014032011               0000000000000124339-5                000029
100002651200488321140320110048832114032011               0000000000000124339-6                000030
100002651300488322140320110048832214032011               0000000000000124339-7                000031
100002653500488323140320110048832314032011               0000000000000124339-8                000032
100002654200488324140320110048832414032011               0000000000000124339-9                000033
100002654400488325140320110048832514032011               0000000000000124339-10               000034
100002655900488326140320110048832614032011               0000000000000124339-11               000035
100002657600488327140320110048832714032011               0000000000000124339-12               000036
100002658100488328140320110048832814032011               0000000000000124339-13               000037
100002658400488329140320110048832914032011               0000000000000124339-14               000038
100002658500488330140320110048833014032011               0000000000000124339-15               000039
100002658600488331140320110048833114032011               0000000000000124339-16               000040
100002659600488332140320110048833214032011               0000000000000124339-17               000041
100002659700488333140320110048833314032011               0000000000000124339-18               000042
100002659800488334140320110048833414032011               0000000000000124339-19               000043
100002659900488335140320110048833514032011               0000000000000124339-20               000044
100002660000488336140320110048833614032011               0000000000000124339-21               000045
100002660100488337140320110048833714032011               0000000000000124339-23               000046
100002660200488338140320110048833814032011               0000000000000124339-24               000047
100002660300488339140320110048833914032011               0000000000000124340-1                000048
100002661000488340140320110048834014032011               0000000000000124340-2                000049
100002661100488341140320110048834114032011               0000000000000124340-3                000050
100002661200488342140320110048834214032011               0000000000000124340-4                000051
100002661800488343140320110048834314032011               0000000000000124340-5                000052
100002662200488344140320110048834414032011               0000000000000124340-6                000053
100002662300488345140320110048834514032011               0000000000000124340-7                000054
100002662400488346140320110048834614032011               0000000000000124340-8                000055
100002664500488347140320110048834714032011               0000000000000124340-9                000056
100002664800488348140320110048834814032011               0000000000000124340-10               000057
100002664900488349140320110048834914032011               0000000000000124341-1                000058
100002665000488350140320110048835014032011               0000000000000124341-2                000059
100002665100488351140320110048835114032011               0000000000000124341-3                000060
100002665200488352140320110048835214032011               0000000000000124341-4                000061
100002665300488353140320110048835314032011               0000000000000124341-5                000062
100002665400488354140320110048835414032011               0000000000000124341-6                000063
100002668000488355140320110048835514032011               0000000000000124341-7                000064
100002668100488356140320110048835614032011               0000000000000124443-1                000065
100002668200488357140320110048835714032011               0000000000000124443-2                000066
100002668300488358140320110048835814032011               0000000000000124443-5                000067
100002668400488359140320110048835914032011               0000000000000124601-1                000068
100002668500488360140320110048836014032011               0000000000000124601-2                000069
100002668600488361140320110048836114032011               0000000000000124601-6                000070
100002659200489845160320110048984516032011               0000000000000124747-1                000071
100002661900489846160320110048984616032011               0000000000000124747-2                000072
100002664300489847160320110048984716032011               0000000000000124747-3                000073
100002665500489848160320110048984816032011               0000000000000124747-4                000074
100002665800489849160320110048984916032011               0000000000000124747-5                000075
100002665900489850160320110048985016032011               0000000000000124747-6                000076
100002667200489851160320110048985116032011               0000000000000124747-7                000077
100002667300489852160320110048985216032011               0000000000000124747-8                000078
100002667500489853160320110048985316032011               0000000000000124747-9                000079
100002670500489854160320110048985416032011               0000000000000124747-10               000080
100002670600489855160320110048985516032011               0000000000000124747-11               000081
100002670700489856160320110048985616032011               0000000000000124747-12               000082
100002670800489857160320110048985716032011               0000000000000124747-13               000083
9000082                                                                                       000084
