0RETORNONOTIFICAÇÃO ELETRONICA        21122012REGI                                            000001
100003932500874647201220120087464720122012               0000000000000211940-1                000002
100003932600874648201220120087464820122012               0000000000000211940-2                000003
100003934100874649201220120087464920122012               0000000000000211943-1                000004
100003933900874650201220120087465020122012               0000000000000211943-2                000005
100003933800874651201220120087465120122012               0000000000000211943-3                000006
100003934000874652201220120087465220122012               0000000000000211943-4                000007
100003934200874653201220120087465320122012               0000000000000211943-5                000008
100003936600874654201220120087465420122012               0000000000000211948-1                000009
100003936700874655201220120087465520122012               0000000000000211948-2                000010
100003936800874656201220120087465620122012               0000000000000211948-3                000011
100003936900874657201220120087465720122012               0000000000000211948-4                000012
100003936500874658201220120087465820122012               0000000000000211948-5                000013
100003937000874659201220120087465920122012               0000000000000211948-6                000014
100003937100874660201220120087466020122012               0000000000000211948-7                000015
9000014                                                                                       000016
