0RETORNONOTIFICAÇÃO ELETRONICA        03122012REGI                                            000001
100003877700864460281120120086446028112012               0000000000000207251-1                000002
100003876900864461281120120086446128112012               0000000000000207251-2                000003
100003877600864462281120120086446228112012               0000000000000207251-3                000004
100003877900864463281120120086446328112012               0000000000000207251-4                000005
100003878000864464281120120086446428112012               0000000000000207251-5                000006
100003877000864465281120120086446528112012               0000000000000207251-6                000007
100003875800864466281120120086446628112012               0000000000000207251-7                000008
100003876000864467281120120086446728112012               0000000000000207251-8                000009
100003875900864468281120120086446828112012               0000000000000207251-9                000010
100003879400864469281120120086446928112012               0000000000000207252-1                000011
100003881600864470281120120086447028112012               0000000000000207252-2                000012
100003881700864471281120120086447128112012               0000000000000207252-3                000013
100003879700864472281120120086447228112012               0000000000000207252-4                000014
100003879800864473281120120086447328112012               0000000000000207252-5                000015
100003879500864474281120120086447428112012               0000000000000207252-6                000016
100003879600864475281120120086447528112012               0000000000000207252-7                000017
100003882300864476281120120086447628112012               0000000000000207253-1                000018
100003881800864477281120120086447728112012               0000000000000207253-2                000019
100003881900864478281120120086447828112012               0000000000000207253-3                000020
100003882000864479281120120086447928112012               0000000000000207253-4                000021
100003882100864480281120120086448028112012               0000000000000207253-6                000022
100003882200864481281120120086448128112012               0000000000000207253-8                000023
100003884100864482281120120086448228112012               0000000000000207255-1                000024
100003883800864483281120120086448328112012               0000000000000207255-5                000025
100003883700864484281120120086448428112012               0000000000000207255-6                000026
100003884300864485281120120086448528112012               0000000000000207255-7                000027
100003883900864486281120120086448628112012               0000000000000207255-8                000028
100003884000864487281120120086448728112012               0000000000000207255-9                000029
100003885200864488281120120086448828112012               0000000000000207255-10               000030
100003885800864489281120120086448928112012               0000000000000207255-11               000031
100003885700864490281120120086449028112012               0000000000000207255-12               000032
100003885600864491281120120086449128112012               0000000000000207255-13               000033
100003885500864492281120120086449228112012               0000000000000207255-14               000034
100003885400864493281120120086449328112012               0000000000000207255-15               000035
100003885300864494281120120086449428112012               0000000000000207255-16               000036
100003884200864495281120120086449528112012               0000000000000207255-17               000037
100003886600865158301120120086515830112012               0000000000000207724-1                000038
100003886200865159301120120086515930112012               0000000000000207724-2                000039
100003887000865160301120120086516030112012               0000000000000207733-1                000040
100003887100865161301120120086516130112012               0000000000000207733-2                000041
100003887200865162301120120086516230112012               0000000000000207733-3                000042
100003887300865163301120120086516330112012               0000000000000207733-4                000043
100003887500865164301120120086516430112012               0000000000000207733-5                000044
100003887400865165301120120086516530112012               0000000000000207733-6                000045
100003887600865166301120120086516630112012               0000000000000207733-7                000046
100003890000865167301120120086516730112012               0000000000000207753-1                000047
100003890100865168301120120086516830112012               0000000000000207753-2                000048
100003892300865169301120120086516930112012               0000000000000207753-3                000049
100003889900865170301120120086517030112012               0000000000000207753-33               000050
100003892600865171301120120086517130112012               0000000000000207805-1                000051
100003892500865172301120120086517230112012               0000000000000207805-2                000052
100003892400865173301120120086517330112012               0000000000000207805-3                000053
100003892700865174301120120086517430112012               0000000000000207805-4                000054
100003892800865175301120120086517530112012               0000000000000207805-6                000055
100003892900865176301120120086517630112012               0000000000000207805-7                000056
100003894300865177301120120086517730112012               0000000000000207893-1                000057
100003893900865178301120120086517830112012               0000000000000207901-1                000058
100003895900865179301120120086517930112012               0000000000000207901-2                000059
100003884600865180301120120086518030112012               0000000000000207901-3                000060
100003896100865181301120120086518130112012               0000000000000207901-4                000061
100003896200865182301120120086518230112012               0000000000000207901-5                000062
100003888100865183301120120086518330112012               0000000000000207901-6                000063
100003895400865184301120120086518430112012               0000000000000207901-7                000064
100003895500865185301120120086518530112012               0000000000000207901-8                000065
100003895800865186301120120086518630112012               0000000000000207901-9                000066
100003898500865187301120120086518730112012               0000000000000207901-10               000067
100003898900865189301120120086518930112012               0000000000000207901-60               000068
100003898800865190301120120086519030112012               0000000000000207901-90               000069
100003898700865191301120120086519130112012               0000000000000207901-108              000070
100003898600865192301120120086519230112012               0000000000000207901-111              000071
100003896000865193301120120086519330112012               0000000000000207901-129              000072
100003895700865194301120120086519430112012               0000000000000207901-130              000073
100003899100865195301120120086519530112012               0000000000000207901-132              000074
100003895600865196301120120086519630112012               0000000000000207901-133              000075
100003889300865197301120120086519730112012               0000000000000207901-134              000076
100003891400865198301120120086519830112012               0000000000000207901-135              000077
9000076                                                                                       000078
