0RETORNONOTIFICAÇÃO ELETRONICA        06112014REGI                                            000001
100004999401366359031120140136635903112014               0000000000000330846-1                000002
100004999501366360031120140136636003112014               0000000000000330846-2                000003
100004999901366361031120140136636103112014               0000000000000330846-3                000004
100004999701369637041120140136963704112014               0000000000000331065-1                000005
100005000201369638041120140136963804112014               0000000000000331065-2                000006
100005000301369639041120140136963904112014               0000000000000331065-4                000007
9000006                                                                                       000008
