0RETORNONOTIFICAÇÃO ELETRONICA        28102010REGI                                            000001
100002476000418031281020100041803128102010               0000000000000114343-1                000002
100002476100418032281020100041803228102010               0000000000000114343-3                000003
100002476200418033281020100041803328102010               0000000000000114343-4                000004
100002476300418034281020100041803428102010               0000000000000114343-12               000005
100002476400418035281020100041803528102010               0000000000000114343-14               000006
100002476500418036281020100041803628102010               0000000000000114343-15               000007
9000006                                                                                       000008
