0RETORNONOTIFICAÇÃO ELETRONICA        11022014REGI                                            000001
100004619001128960300120140112896030012014FA245761909BR  0000007022014281903-1                000002
100004619101128961300120140112896130012014FA245761912BR  0000006022014281903-2                000003
100004619201128962300120140112896230012014FA245761926BR  0000006022014281903-3                000004
100004619301128963300120140112896330012014FA245761930BR  0000006022014281903-4                000005
100004619401128964300120140112896430012014               0000000000000281903-5                000006
100004622301130399310120140113039931012014               0000000000000282142-1                000007
100004622401130400310120140113040031012014FA245775837BR  0000006022014282142-2                000008
100004622501130401310120140113040131012014               0000000000000282142-3                000009
100004622601130402310120140113040231012014               0000000000000282142-4                000010
100004622701130403310120140113040331012014FA245775868BR  0000004022014282142-6                000011
100004622801130404310120140113040431012014               0000000000000282142-7                000012
100004622901130405310120140113040531012014FA245775885BR  0000005022014282142-8                000013
100004623001130406310120140113040631012014               0000000000000282142-9                000014
100004623101130407310120140113040731012014               0000000000000282142-12               000015
100004623201130408310120140113040831012014               0000000000000282142-13               000016
100004623301130409310120140113040931012014FA245775925BR  0000007022014282142-23               000017
100004623401130410310120140113041031012014               0000000000000282142-24               000018
100004605001132414040220140113241404022014               0000000000000282557-1                000019
100004605301132415040220140113241504022014               0000000000000282557-2                000020
100004606701132416040220140113241604022014               0000000000000282557-3                000021
100004610001132417040220140113241704022014               0000000000000282557-4                000022
100004612601132418040220140113241804022014FA245794822BR  0000007022014282557-5                000023
100004612801132419040220140113241904022014               0000000000000282557-6                000024
100004612901132420040220140113242004022014               0000000000000282557-7                000025
100004613001132421040220140113242104022014               0000000000000282557-8                000026
100004613101132422040220140113242204022014               0000000000000282557-9                000027
100004613801132423040220140113242304022014               0000000000000282557-10               000028
100004614001132424040220140113242404022014               0000000000000282557-11               000029
100004614101132425040220140113242504022014               0000000000000282557-12               000030
100004614301132426040220140113242604022014               0000000000000282557-13               000031
100004614401132427040220140113242704022014               0000000000000282557-14               000032
100004615401132428040220140113242804022014               0000000000000282557-15               000033
100004615501132429040220140113242904022014               0000000000000282557-16               000034
100004615901132430040220140113243004022014               0000000000000282557-17               000035
100004616701132431040220140113243104022014               0000000000000282557-18               000036
100004617801132432040220140113243204022014               0000000000000282557-19               000037
100004618201132433040220140113243304022014FA245794972BR  0000006022014282557-20               000038
100004619801132434040220140113243404022014FA245794986BR  0000007022014282557-21               000039
100004620201132435040220140113243504022014               0000000000000282557-22               000040
100004623501132436040220140113243604022014               0000000000000282557-23               000041
100004623601132437040220140113243704022014               0000000000000282557-24               000042
100004623701132438040220140113243804022014               0000000000000282557-25               000043
100004623801132439040220140113243904022014FA245795037BR  0000007022014282557-26               000044
100004624401132440040220140113244004022014               0000000000000282557-27               000045
100004625501132441040220140113244104022014FA245795054BR  0000107022014282810-1                000046
100004625601132442040220140113244204022014FA245795068BR  0000007022014282810-2                000047
100004625701132443040220140113244304022014               0000000000000282810-3                000048
100004625801132444040220140113244404022014               0000000000000282810-4                000049
100004625901132445040220140113244504022014               0000000000000282810-5                000050
100004627101137934070220140113793407022014               0000000000000283428-1                000051
100004627201137935070220140113793507022014               0000000000000283428-2                000052
100004627301137936070220140113793607022014               0000000000000283428-3                000053
100004627401137937070220140113793707022014               0000000000000283428-4                000054
100004627001137938070220140113793807022014               0000000000000283429-1                000055
100004627501137939070220140113793907022014               0000000000000283429-2                000056
100004627601137940070220140113794007022014               0000000000000283429-3                000057
100004629501137941070220140113794107022014               0000000000000283429-4                000058
100004629601137942070220140113794207022014               0000000000000283429-5                000059
100004629701137943070220140113794307022014               0000000000000283429-6                000060
100004629801137944070220140113794407022014               0000000000000283429-7                000061
100004630901137945070220140113794507022014               0000000000000283429-8                000062
100004631001137946070220140113794607022014               0000000000000283429-9                000063
100004631101137947070220140113794707022014               0000000000000283429-10               000064
9000063                                                                                       000065
