0RETORNONOTIFICAÇÃO ELETRONICA        06032013REGI                                            000001
100004049800907330250220130090733025022013FA063355314BR  0000004032013223204-1                000002
100004050000907331250220130090733125022013               0000000000000223204-2                000003
100004049900907332250220130090733225022013FA063355331BR  0000004032013223204-8                000004
100004052200909537260220130090953726022013               0000000000000223538-1                000005
100004052300909538260220130090953826022013FA104732834BR  0000004032013223538-2                000006
100004052400909539260220130090953926022013               0000000000000223538-3                000007
100004052500909540260220130090954026022013               0000000000000223538-4                000008
100004052100909541260220130090954126022013               0000000000000223538-5                000009
100004051800909542260220130090954226022013               0000000000000223538-6                000010
100004051900909543260220130090954326022013               0000000000000223538-7                000011
100004052000909544260220130090954426022013FA104732896BR  0000005032013223538-8                000012
100004054900910173270220130091017327022013FA104738899BR  0000004032013223790-1                000013
100004054300910174270220130091017427022013               0000000000000223790-2                000014
100004054400910175270220130091017527022013               0000000000000223790-3                000015
100004054800910176270220130091017627022013               0000000000000223790-6                000016
100004054700910177270220130091017727022013               0000000000000223790-9                000017
100004054600910178270220130091017827022013               0000000000000223790-11               000018
100004054500910179270220130091017927022013               0000000000000223790-14               000019
100004054200910180270220130091018027022013               0000000000000223790-15               000020
100004058700910851280220130091085128022013               0000000000000224040-1                000021
100004059200910852280220130091085228022013               0000000000000224040-2                000022
100004059100910853280220130091085328022013               0000000000000224040-9                000023
100004059000910854280220130091085428022013               0000000000000224040-10               000024
100004058900910855280220130091085528022013               0000000000000224040-11               000025
100004058800910856280220130091085628022013               0000000000000224040-12               000026
100004058200910857280220130091085728022013               0000000000000224040-13               000027
100004058400910858280220130091085828022013               0000000000000224040-16               000028
100004058300910859280220130091085928022013               0000000000000224040-25               000029
100004056300910860280220130091086028022013               0000000000000224040-29               000030
100004058600910861280220130091086128022013               0000000000000224040-30               000031
100004058500910862280220130091086228022013               0000000000000224040-31               000032
100004056200910863280220130091086328022013               0000000000000224040-32               000033
100004056100910864280220130091086428022013               0000000000000224040-33               000034
100004059700913072040320130091307204032013               0000000000000224444-1                000035
100004059800913073040320130091307304032013               0000000000000224444-2                000036
100004059500913074040320130091307404032013               0000000000000224444-3                000037
100004059600913075040320130091307504032013               0000000000000224444-4                000038
100004059400913076040320130091307604032013               0000000000000224444-5                000039
100004059300913077040320130091307704032013               0000000000000224444-12               000040
9000039                                                                                       000041
