0RETORNONOTIFICAÇÃO ELETRONICA        02072014REGI                                            000001
100004826401260321010720140126032101072014               0000000000000308139-1                000002
100004826501260322010720140126032201072014               0000000000000308139-2                000003
100004827601260323010720140126032301072014               0000000000000308141-1                000004
100004827701260324010720140126032401072014               0000000000000308141-2                000005
100004827801260325010720140126032501072014               0000000000000308141-3                000006
100004827901260326010720140126032601072014               0000000000000308141-4                000007
100004828001260327010720140126032701072014               0000000000000308141-5                000008
100004828101260328010720140126032801072014               0000000000000308141-6                000009
100004828701260329010720140126032901072014               0000000000000308141-12               000010
100004829401260330010720140126033001072014               0000000000000308141-13               000011
100004829501260331010720140126033101072014               0000000000000308141-14               000012
100004829601260332010720140126033201072014               0000000000000308141-16               000013
100004829701260333010720140126033301072014               0000000000000308141-28               000014
100004829801260334010720140126033401072014               0000000000000308141-31               000015
100004829901260335010720140126033501072014               0000000000000308141-35               000016
100004830001260336010720140126033601072014               0000000000000308141-40               000017
100004830101260337010720140126033701072014               0000000000000308210-1                000018
100004830201260338010720140126033801072014               0000000000000308210-2                000019
9000018                                                                                       000020
