0RETORNONOTIFICAÇÃO ELETRONICA        16082013REGI                                            000001
100004349501015225140820130101522514082013               0000000000000251535-1                000002
100004350401015226140820130101522614082013               0000000000000251535-2                000003
100004350501015227140820130101522714082013               0000000000000251535-5                000004
100004350201015228140820130101522814082013               0000000000000251535-12               000005
100004349601015229140820130101522914082013               0000000000000251535-13               000006
100004349701015230140820130101523014082013               0000000000000251535-16               000007
100004350101015231140820130101523114082013               0000000000000251535-17               000008
100004350301015232140820130101523214082013               0000000000000251535-18               000009
100004350601015233140820130101523314082013               0000000000000251535-19               000010
100004349801015234140820130101523414082013               0000000000000251535-20               000011
100004350001015235140820130101523514082013               0000000000000251535-21               000012
100004349901015236140820130101523614082013               0000000000000251535-22               000013
100004352201015237140820130101523714082013               0000000000000251547-1                000014
100004352401015238140820130101523814082013               0000000000000251547-3                000015
100004352501015239140820130101523914082013               0000000000000251547-4                000016
100004352101015240140820130101524014082013               0000000000000251547-5                000017
100004352301015241140820130101524114082013               0000000000000251547-6                000018
9000017                                                                                       000019
