0RETORNONOTIFICAÇÃO ELETRONICA        15062012REGI                                            000001
100003587300778611140620120077861114062012               0000000000000178949-1                000002
100003587400778612140620120077861214062012               0000000000000178949-2                000003
100003587500778613140620120077861314062012               0000000000000178949-4                000004
100003587600778614140620120077861414062012               0000000000000178949-7                000005
100003587700778615140620120077861514062012               0000000000000178949-8                000006
100003587800778616140620120077861614062012               0000000000000178949-9                000007
100003587900778617140620120077861714062012               0000000000000178949-10               000008
100003588300778618140620120077861814062012               0000000000000178949-12               000009
100003588400778619140620120077861914062012               0000000000000178949-13               000010
100003588500778620140620120077862014062012               0000000000000178949-14               000011
100003589200778621140620120077862114062012               0000000000000178949-15               000012
9000011                                                                                       000013
