01REMESSA01COBRANCA       00000000000004130991SISTEMA DE CARTÛRIO CERTIDıES 237BRADESCO       041114        MX0000747                                                                                                                                                                                                                                                                                     000001
1                   000902692011248461-12282                  0000000000000012282600000000002               0112282     06111400000000100000000000012N271014120000000000000330000000000000000000000000000000000000000000000200360305025441104 Caixa EconÙmica Federal             Rua Joaquim Floriano,446                            04534002                                                            000002
1                   000902692011248461-12283                  0000000000000012283400000000002               0112283     06111400000000100000000000012N271014120000000000000330000000000000000000000000000000000000000000000200360305025441104 Caixa EconÙmica Federal             Rua Joaquim Floriano,446                            04534002                                                            000003
1                   000902692011248461-12284                  0000000000000012284200000000002               0112284     06111400000000100000000000012N271014120000000000000330000000000000000000000000000000000000000000000200360305025441104 Caixa EconÙmica Federal             Rua Joaquim Floriano,446                            04534002                                                            000004
1                   000902692011248461-12285                  0000000000000012285000000000002               0112285     06111400000000400000000000012N271014120000000000001330000000000000000000000000000000000000000000000262232889000190Banco Daycoval S/A                      Avenida Paulista ,1793-02∫ Andar                    01311200                                                            000005
1                   000902692011248461-12286                  0000000000000012286900000000002               0112286     06111400000000190000000000012N271014120000000000000630000000000000000000000000000000000000000000000200360305267887104 Caixa EconÙmica Federal             Rua S„o Joaquim ,69-5∫ andar                        01508001                                                            000006
1                   000902692011248461-12287                  0000000000000012287700000000002               0112287     06111400000000420000000000012N271014120000000000001400000000000000000000000000000000000000000000000262232889000190Banco Daycoval S/A                      Avenida Paulista ,1793-02∫ Andar                    01311200                                                            000007
1                   000902692011248461-12288                  0000000000000012288500000000002               0112288     06111400000000176000000000012N271014120000000000000590000000000000000000000000000000000000000000000271731335000128Seval administraÁ„o de condomÌnios Ltda Avenida Doutor Gentil de Moura,,287                 04278080                                                            000008
1                   000902692011248461-12289                  0000000000000012289300000000002               0112289     07111400000000100000000000012N281014120000000000000330000000000000000000000000000000000000000000000200360305025441104 Caixa EconÙmica Federal             Rua Joaquim Floriano,446                            04534002                                                            000009
1                   000902692011248461-12290                  0000000000000012290700000000002               0112290     07111400000000060000000000012N281014120000000000000200000000000000000000000000000000000000000000000100030327108800RAFAEL DANIEL                           Rua Santa Rosa,254                                  03007040                                                            000010
1                   000902692011248461-12291                  0000000000000012291500000000002               0112291     05111400000001717000000000012N291014090000000000000000000000000000000000000000000000000000000000000253283180000122Tesheiner Cavassani e Giacomazi AdvogadoRua Jo„o Adolfo, 118                                01050020Boleto referente as custas do serviÁo                       000011
1                   000902692011248461-12292                  0000000000000012292300000000002               0112292     08111400000000176000000000012N291014120000000000000590000000000000000000000000000000000000000000000217184037010506389 Banco Mercantil do Brasil S.A.      Avenida Paulista ,923                               01311100                                                            000012
1                   000902692011248461-12293                  0000000000000012293100000000002               0112293     08111400000000250000000000012N291014120000000000000830000000000000000000000000000000000000000000000262232889000190Banco Daycoval S/A                      Avenida Paulista ,1793-02∫ Andar                    01311200                                                            000013
1                   000902692011248461-12294                  0000000000000012294P00000000002               0112294     09111400000000130000000000012N301014120000000000000430000000000000000000000000000000000000000000000210377191000169ACM ASSESSORIA CONTABIL LTDA            Avenida Capit„o M·rio Toledo de Camargo,            09170150                                                            000014
1                   000902692011248461-12295                  0000000000000012295800000000002               0112295     09111400000002561000000000012N301014120000000000008540000000000000000000000000000000000000000000000262232889000190Banco Daycoval S/A                      Avenida Paulista ,1793-02∫ Andar                    01311200                                                            000015
1                   000902692011248461-12296                  0000000000000012296600000000002               0112296     10111400000000050000000000012N311014120000000000000170000000000000000000000000000000000000000000000200360305267887104 Caixa EconÙmica Federal             Rua S„o Joaquim,69-5∫ andar                         01508000                                                            000016
1                   000902692011248461-12297                  0000000000000012297400000000002               0112297     10111400000000945600000000012N311014120000000000003150000000000000000000000000000000000000000000000262232889000190Banco Daycoval S/A                      Avenida Paulista ,1793-02∫ Andar                    01311200                                                            000017
1                   000902692011248461-12298                  0000000000000012298200000000002               0112298     08111400000000300550000000012N031114000000000000001000000000000000000000000000000000000000000000000111029315000188SUZAN CART CERTIDOES LTDA - ME          Rua Gal. Francisco GlicÈrio,1185                    08674003Protesto apÛs 5 dias                                        000018
1                   000902692011248461-12299                  0000000000000012299000000000002               0112299     08111400000001060800000000012N031114000000000000003540000000000000000000000000000000000000000000000111163439000151RF-SERVICOS DE DOCUMENTACAO LTDA.       Av. Mal. Castelo Branco,173-A                       65076090Protesto apÛs 5 dias                                        000019
1                   000902692011248461-12300                  0000000000000012300800000000002               0112300     08111400000001800000000000012N031114000000000000006000000000000000000000000000000000000000000000000110999668000148ASSESSORIA E CONSULTORIA DE DOCUMENTOS ER. Leopoldo Machado,242-Loja 02                     18035075Protesto apÛs 5 dias                                        000020
1                   000902692011248461-12301                  0000000000000012301600000000002               0112301     08111400000001300000000000012N031114000000000000004330000000000000000000000000000000000000000000000111165549000152D¥ VASQUEZ SERVI«OS CARTORARIOS LTDA - EAv. Dr. Jo„o Guilhermino,293                        12210131Protesto apÛs 5 dias                                        000021
1                   000902692011248461-12302                  0000000000000012302400000000002               0112302     08111400000000500000000000012N031114000000000000001670000000000000000000000000000000000000000000000111144435000126DOCK STATION INTERMEDIA«√O CARTOR¡RIA LTRua da Quitanda 20,20-4∫ andar ñ Sala 40            20011972Protesto apÛs 5 dias                                        000022
1                   000902692011248461-12303                  0000000000000012303200000000002               0112303     08111400000001000000000000012N031114000000000000003330000000000000000000000000000000000000000000000114816778000188Oliveira IntermediaÁ„o Cartor·ria LTDA MRua Delfino Cintra,500 AxB                          13020100Protesto apÛs 5 dias                                        000023
1                   000902692011248461-12304                  0000000000000012304000000000002               0112304     08111400000000500000000000012N031114000000000000001670000000000000000000000000000000000000000000000111253279000131¡GAPE SERVI«OS E INTERMEDIA«’ES CARTOR¡RR. Gov. Pedro de Toledo,569                         13400070Protesto apÛs 5 dias                                        000024
1                   000902692011248461-12305                  0000000000000012305900000000002               0112305     08111400000001000000000000012N031114000000000000003330000000000000000000000000000000000000000000000106058057000128CTPOST SERVI«OS LTDA ME                 R. Chaves Barcelos,131                              90030120Protesto apÛs 5 dias                                        000025
1                   000902692011248461-12306                  0000000000000012306700000000002               0112306     08111400000000211500000000012N031114000000000000000710000000000000000000000000000000000000000000000113238744000190ARCHANJO TEIXEIRA PREPARA«√O DE DOCUMENTAv. Brasil,1586-Loja 06                             30140003Protesto apÛs 5 dias                                        000026
1                   000902692011248461-12307                  0000000000000012307500000000002               0112307     08111400000000500000000000012N031114000000000000001670000000000000000000000000000000000000000000000111479061000108ANDRADE SOARES LOPES LTDA               Rua Lehar David,05                                  45000445Protesto apÛs 5 dias                                        000027
1                   000902692011248461-12308                  0000000000000012308300000000002               0112308     08111400000000019210000000012N031114000000000000000060000000000000000000000000000000000000000000000111777632000182CFN ASSESSORIA EM DOCUMENTOS LTDA       R Prefeito Carlos JosÈ Carlson,226-CJ 01            09450000Protesto apÛs 5 dias                                        000028
1                   000902692011248461-12309                  0000000000000012309100000000002               0112309     08111400000000500000000000012N031114000000000000001670000000000000000000000000000000000000000000000111222886000134ELIDA ASSESSORIA EMPRESARIAL LTDA       R. Neo Alves Martins,2955-Sala 03                   87013060Protesto apÛs 5 dias                                        000029
1                   000902692011248461-12310                  0000000000000012310500000000002               0112310     08111400000001066500000000012N031114000000000000003560000000000000000000000000000000000000000000000111834699000101REGIS ORLANDINI ASSESSORIA CARTORARIA LTAv. Jo„o Naves de ¡vila,81                          38400600Protesto apÛs 5 dias                                        000030
1                   000902692011248461-12311                  0000000000000012311300000000002               0112311     08111400000000500000000000012N031114000000000000001670000000000000000000000000000000000000000000000119762311000116J. LOPES - ME                           Rua Afonso Pena,5-47                                17060250Protesto apÛs 5 dias                                        000031
1                   000902692011248461-12312                  0000000000000012312100000000002               0112312     08111400000000004000000000012N031114000000000000000010000000000000000000000000000000000000000000000111838860000115M.L. CARDOSO - PRESTA«√O DE SERVI«OS - ERua Luiz Pereira Barreto,304                        16010320Protesto apÛs 5 dias                                        000032
1                   000902692011248461-12313                  0000000000000012313P00000000002               0112313     08111400000000500000000000012N031114000000000000001670000000000000000000000000000000000000000000000119450025000115SAITO & SAITO ASSESSORIA E SERVI«OS LTDAAv. Francisco de Paula Leite,1699                   13344325Protesto apÛs 5 dias                                        000033
1                   000902692011248461-12314                  0000000000000012314800000000002               0112314     08111400000000004000000000012N031114000000000000000010000000000000000000000000000000000000000000000112462165000164Viviane Aparecida Henriques - EPP       Rua Rui Barbosa,164                                 19010260Protesto apÛs 5 dias                                        000034
1                   000902692011248461-12315                  0000000000000012315600000000002               0112315     08111400000000500000000000012N031114000000000000001670000000000000000000000000000000000000000000000112443155000181ASSESSORIA E CONSULTORIA CARTORARIA DE DRua Santa Cruz,652                                  13300090Protesto apÛs 5 dias                                        000035
1                   000902692011248461-12316                  0000000000000012316400000000002               0112316     08111400000000500000000000012N031114000000000000001670000000000000000000000000000000000000000000000112632803000148RUBIANA SERVI«OS DE CARTORIO, CERTID’ES Rua das Esmeraldas,186                              09920520Protesto apÛs 5 dias                                        000036
1                   000902692011248461-12317                  0000000000000012317200000000002               0112317     08111400000000500000000000012N031114000000000000001670000000000000000000000000000000000000000000000102248702000114MOURA E MENEZES SERVI«OS ADMINISTRATIVOSRua Dr. Curvelo Cavalcante,189-Loja 101             23810201Protesto apÛs 5 dias                                        000037
1                   000902692011248461-12318                  0000000000000012318000000000002               0112318     08111400000000500000000000012N031114000000000000001670000000000000000000000000000000000000000000000111619454000161ASSESSORIA CARTOR¡RIA DO NORDESTE LTDA  Rua AntÙnio de Castro,114-LJ 05                     52070080Protesto apÛs 5 dias                                        000038
1                   000902692011248461-12319                  0000000000000012319900000000002               0112319     08111400000000500000000000012N031114000000000000001670000000000000000000000000000000000000000000000112572498000146Alphacentral Documentos e ServiÁos LTDA Rua Cel. Siqueira de Moraes,125/127                 13201032Protesto apÛs 5 dias                                        000039
1                   000902692011248461-12320                  0000000000000012320200000000002               0112320     08111400000000500000000000012N031114000000000000001670000000000000000000000000000000000000000000000121117773000122JR CONSULTORIA INTERMEDIACAO CARTORARIA Rua Visconde de Sepetiba,935-SL 625                 24020206Protesto apÛs 5 dias                                        000040
1                   000902692011248461-12321                  0000000000000012321000000000002               0112321     08111400000000300000000000012N031114000000000000001000000000000000000000000000000000000000000000000112139078000170RW MARIZ ESTRUTURA CARTORAL LTDA        Av Epit·cio Pessoa,475-Sala 05                      58030906Protesto apÛs 5 dias                                        000041
1                   000902692011248461-12322                  0000000000000012322900000000002               0112322     08111400000000900000000000012N031114000000000000003000000000000000000000000000000000000000000000000113133167000172G I CART SERVI«OS ORGANIZACIONAIS LTDA  Rua dos Marianos,132                                06016050Protesto apÛs 5 dias                                        000042
1                   000902692011248461-12323                  0000000000000012323700000000002               0112323     08111400000000004700000000012N031114000000000000000020000000000000000000000000000000000000000000000113287999000143ASSESSORIA CARTOR¡RIA P¡DUA LTDA        Rua Tiradentes,112-SL 201                           28300000Protesto apÛs 5 dias                                        000043
1                   000902692011248461-12324                  0000000000000012324500000000002               0112324     08111400000000350000000000012N031114000000000000001170000000000000000000000000000000000000000000000115369569000104FERRAGUT E MUZEL SERVI«OS ADMINISTRATIVORua Bar„o de Mau·,1152-Piso Superior, SL            13276080Protesto apÛs 5 dias                                        000044
1                   000902692011248461-12325                  0000000000000012325300000000002               0112325     08111400000000023500000000012N031114000000000000000080000000000000000000000000000000000000000000000113913099000164ERM ServiÁos Administrativos LTDA       Rua 7 de Setembro,1315                              89010203Protesto apÛs 5 dias                                        000045
1                   000902692011248461-12326                  0000000000000012326100000000002               0112326     08111400000000030700000000012N031114000000000000000100000000000000000000000000000000000000000000000113321680000197Ana Claudia Barbiere Alves Ferreira - MEAv. Brasil,326                                      14801050Protesto apÛs 5 dias                                        000046
1                   000902692011248461-12327                  0000000000000012327P00000000002               0112327     08111400000000017500000000012N031114000000000000000060000000000000000000000000000000000000000000000117655488000198KAEL INTERMEDIA«’ES CARTOR¡RIAS LTDA ME Av. Monte Castelo,720                               13450032Protesto apÛs 5 dias                                        000047
1                   000902692011248461-12328                  0000000000000012328800000000002               0112328     08111400000000013750000000012N031114000000000000000050000000000000000000000000000000000000000000000113350598000190CP SERVI«OS ADMINISTRATIVO LTDA - ME    Rua Arnaldo Estev„o de Figueiredo,640               78700150Protesto apÛs 5 dias                                        000048
1                   000902692011248461-12329                  0000000000000012329600000000002               0112329     08111400000000192450000000012N031114000000000000000640000000000000000000000000000000000000000000000113406670000154RODRIGUES E VIEIRA LTDA.                104 SUL RUA SE 05 LOTE 23 | AC JK CAIXA             77006970Protesto apÛs 5 dias                                        000049
1                   000902692011248461-12330                  0000000000000012330P00000000002               0112330     08111400000000500000000000012N031114000000000000001670000000000000000000000000000000000000000000000113743219000122Valentim e Silva ServiÁos               PraÁa AntÙnio Dias,584                              38700110Protesto apÛs 5 dias                                        000050
1                   000902692011248461-12331                  0000000000000012331800000000002               0112331     08111400000000033820000000012N031114000000000000000110000000000000000000000000000000000000000000000113576355000175LEME ASSESSORIA E CONSULTORIA DE DOCUMENRua Prudente de Moraes,933                          13320160Protesto apÛs 5 dias                                        000051
1                   000902692011248461-12332                  0000000000000012332600000000002               0112332     08111400000000046500000000012N031114000000000000000160000000000000000000000000000000000000000000000114495115000109MSC ASSESSORIA E CONSULTORIA CARTORARIA Rua Duque de Caxias,161                             06401010Protesto apÛs 5 dias                                        000052
1                   000902692011248461-12333                  0000000000000012333400000000002               0112333     08111400000000500000000000012N031114000000000000001670000000000000000000000000000000000000000000000113845551000106MACEDO & MELO INTERMEDIACOES CARTORARIASRUA LIZANDRO NOGUEIRA,1223-SALA 304                 64000200Protesto apÛs 5 dias                                        000053
1                   000902692011248461-12334                  0000000000000012334200000000002               0112334     08111400000000016600000000012N031114000000000000000060000000000000000000000000000000000000000000000113800899000179TEIXEIRA CARREIRO INTERMEDIACAO CARTORARRua Alan Kardec,50-SL 712                           27541290Protesto apÛs 5 dias                                        000054
1                   000902692011248461-12335                  0000000000000012335000000000002               0112335     08111400000000500000000000012N031114000000000000001670000000000000000000000000000000000000000000000114142222000153Araujo Oliveira Assessoria Cartoraria LTAv. Radial B,60-LJ 02                               42807380Protesto apÛs 5 dias                                        000055
1                   000902692011248461-12336                  0000000000000012336900000000002               0112336     08111400000000009640000000012N031114000000000000000030000000000000000000000000000000000000000000000114041706000106HMR - EXPRESS DOCUMENTOS LTDA - ME      Rua Daniel de Oliveira Carvalho,253                 13660000Protesto apÛs 5 dias                                        000056
1                   000902692011248461-12337                  0000000000000012337700000000002               0112337     08111400000000500000000000012N031114000000000000001670000000000000000000000000000000000000000000000114456232000163ALVES & UEMURA ASSESSORIA COMERCIAL E INRua Juscelino K. de Oliveira,710-LJ 02              37580000Protesto apÛs 5 dias                                        000057
1                   000902692011248461-12338                  0000000000000012338500000000002               0112338     08111400000000500000000000012N031114000000000000001670000000000000000000000000000000000000000000000115779004000197BONESSO & GIANETTI LTDA ME              Rua Nove de Julho,430-Lj 03 - Galeria de            13280000Protesto apÛs 5 dias                                        000058
1                   000902692011248461-12339                  0000000000000012339300000000002               0112339     08111400000000500000000000012N031114000000000000001670000000000000000000000000000000000000000000000111834699000292REGIS ORLANDINI ASSESSORIA CARTOR¡RIA EPPraÁa Manoel Bonito,65                              38440076Protesto apÛs 5 dias                                        000059
1                   000902692011248461-12340                  0000000000000012340700000000002               0112340     08111400000000500000000000012N031114000000000000001670000000000000000000000000000000000000000000000115003436000101Via R·pida IntermediaÁ„o Cartor·ria LTDARua Vereador Juca Pena,10                           36400000Protesto apÛs 5 dias                                        000060
1                   000902692011248461-12341                  0000000000000012341500000000002               0112341     08111400000000500000000000012N031114000000000000001670000000000000000000000000000000000000000000000114467333000130Sirley Santos Niemic - ME               Av. Municipal,1779 A                                78250000Protesto apÛs 5 dias                                        000061
1                   000902692011248461-12342                  0000000000000012342300000000002               0112342     08111400000000500000000000012N031114000000000000001670000000000000000000000000000000000000000000000114567761000134ABEN INTERMEDIACAO CARTORARIA LTDA ME   Av. Leopoldino de Oliveira,4464-Ed. Diam            38060000Protesto apÛs 5 dias                                        000062
1                   000902692011248461-12343                  0000000000000012343100000000002               0112343     08111400000000500000000000012N031114000000000000001670000000000000000000000000000000000000000000000114547088000170SPEED FOX ASSESSORIA CARTORARIA LTDA ME Rua General Dionisio,410-LOJA                       25075095Protesto apÛs 5 dias                                        000063
1                   000902692011248461-12344                  0000000000000012344P00000000002               0112344     08111400000000048500000000012N031114000000000000000160000000000000000000000000000000000000000000000114911193000147LOPES E LOPES INTERMEDIA√á√ÉO CARTOR√ÅRIRua Marechal Deodoro,444-loja 322                   36010904Protesto apÛs 5 dias                                        000064
1                   000902692011248461-12345                  0000000000000012345800000000002               0112345     08111400000000400000000000012N031114000000000000001330000000000000000000000000000000000000000000000115220454000226RENAULT ASSOCIADOS INTERMEDIACOES CARTORRua Benedito Valadares,520-LJ 03                    35660630Protesto apÛs 5 dias                                        000065
1                   000902692011248461-12346                  0000000000000012346600000000002               0112346     08111400000000500000000000012N031114000000000000001670000000000000000000000000000000000000000000000120019555000192SERV MASTER SERVICOS E LOGISTICA LTDA ñMRua Bar„o do Rio Branco,1089                        16200001Protesto apÛs 5 dias                                        000066
1                   000902692011248461-12347                  0000000000000012347400000000002               0112347     08111400000001000000000000012N031114000000000000003330000000000000000000000000000000000000000000000115447264000165CAMPDOC INTERMEDIA«√O CARTOR¡RIA LTDA ñ Av. Carlos de Ara˙jo Gobbi,325                      13034670Protesto apÛs 5 dias                                        000067
1                   000902692011248461-12348                  0000000000000012348200000000002               0112348     08111400000001000000000000012N031114000000000000003330000000000000000000000000000000000000000000000115274886000139RJR SERVI«OS ADMINISTRATIVOS            Rua Benedito Laboissiere,270                        38600000Protesto apÛs 5 dias                                        000068
1                   000902692011248461-12349                  0000000000000012349000000000002               0112349     08111400000000500000000000012N031114000000000000001670000000000000000000000000000000000000000000000115328775000168Bagini e Okumura IntermediaÁıes Cartor·rRua Laurindo Borges,1494                            87303240Protesto apÛs 5 dias                                        000069
1                   000902692011248461-12350                  0000000000000012350400000000002               0112350     08111400000000500000000000012N031114000000000000001670000000000000000000000000000000000000000000000115776815000134RCA - PREST CART INTERMEDIA«√O CARTORARIRua Jo„o Caetano,185-LJ 103                         24710405Protesto apÛs 5 dias                                        000070
1                   000902692011248461-12351                  0000000000000012351200000000002               0112351     08111400000000500000000000012N031114000000000000001670000000000000000000000000000000000000000000000115523647000175TGD ASSESSORIA E CONSULTORIA LTDA       Rua Coronel Antonio Cardoso Pinto,34 A              37640000Protesto apÛs 5 dias                                        000071
1                   000902692011248461-12352                  0000000000000012352000000000002               0112352     08111400000000500000000000012N031114000000000000001670000000000000000000000000000000000000000000000116465255000160Tocantins IntermediaÁ„o Cartor·ria LTDA-RUA RODOVI¡RIA,193-SALA 01                          77805040Protesto apÛs 5 dias                                        000072
1                   000902692011248461-12353                  0000000000000012353900000000002               0112353     08111400000000500000000000012N031114000000000000001670000000000000000000000000000000000000000000000115731322000188MEIRELES SERVI«OS DE APOIO ADMINISTRATIVRua JosÈ Marcelino de Oliveira,374-BAIXO            67030170Protesto apÛs 5 dias                                        000073
1                   000902692011248461-12354                  0000000000000012354700000000002               0112354     08111400000001000000000000012N031114000000000000003330000000000000000000000000000000000000000000000115803475000193PEDRO, BASTOS & JONES SERVI«OS ASMINISTRRua Duque de Caxias,01-SL 31                        28613060Protesto apÛs 5 dias                                        000074
1                   000902692011248461-12355                  0000000000000012355500000000002               0112355     08111400000000500000000000012N031114000000000000001670000000000000000000000000000000000000000000000115872523000103HEITOR PIGHINI BARBADO ME               Rua Senador JosÈ Bonif·cio,312-B                    13800060Protesto apÛs 5 dias                                        000075
1                   000902692011248461-12356                  0000000000000012356300000000002               0112356     08111400000000500000000000012N031114000000000000001670000000000000000000000000000000000000000000000118997889000199CP CAMPO GRANDE INTERMEDIACOES CARTORARIRua Amaral Costa,408-LJ 01                          23050260Protesto apÛs 5 dias                                        000076
1                   000902692011248461-12357                  0000000000000012357100000000002               0112357     08111400000000500000000000012N031114000000000000001670000000000000000000000000000000000000000000000115566079000190Marins Consultoria e IntermediaÁ„o CartoAvenida Brasil,4140-Sala 13                         87503420Protesto apÛs 5 dias                                        000077
1                   000902692011248461-12358                  0000000000000012358P00000000002               0112358     08111400000001000000000000012N031114000000000000003330000000000000000000000000000000000000000000000115703802000135Assecar Apoio Administrativo de MArilia Rua Carlos Gomes,343                                17501000Protesto apÛs 5 dias                                        000078
1                   000902692011248461-12359                  0000000000000012359800000000002               0112359     08111400000000500000000000012N031114000000000000001670000000000000000000000000000000000000000000000115723896000104Walter Shuji Kishi eireli-ME            Avenida Presidente Get˙io Vargas,2214-Lo            45990289Protesto apÛs 5 dias                                        000079
1                   000902692011248461-12360                  0000000000000012360100000000002               0112360     08111400000000500000000000012N031114000000000000001670000000000000000000000000000000000000000000000115665799000102OLIVEIRA E PEIXOTO LTDA                 Rua Barbosa de Sousa,25-SL 006 - Centro             45203640Protesto apÛs 5 dias                                        000080
1                   000902692011248461-12361                  0000000000000012361P00000000002               0112361     08111400000000500000000000012N031114000000000000001670000000000000000000000000000000000000000000000116911487000102L & A INTERMEDIA«’ES CARTOR¡RIAS LTDA   Rua Marechal Deodoro,111                            48005020Protesto apÛs 5 dias                                        000081
1                   000902692011248461-12362                  0000000000000012362800000000002               0112362     08111400000000500000000000012N031114000000000000001670000000000000000000000000000000000000000000000116615091000100MEG INTERMEDIA«√O CARTOR¡RIA            Av. 13,625                                          13500340Protesto apÛs 5 dias                                        000082
1                   000902692011248461-12363                  0000000000000012363600000000002               0112363     08111400000000200000000000012N031114000000000000000670000000000000000000000000000000000000000000000115696350000101Almeida IntermediaÁ„o cartor·ria LTDA MERua JosÈ Brenha Ribeiro,23                          18130495Protesto apÛs 5 dias                                        000083
1                   000902692011248461-12364                  0000000000000012364400000000002               0112364     08111400000000500000000000012N031114000000000000001670000000000000000000000000000000000000000000000119373945000187MR Sistema de IntermediaÁ„o Cartor·ria LRua 29 de Abril,123                                 13256000Protesto apÛs 5 dias                                        000084
1                   000902692011248461-12365                  0000000000000012365200000000002               0112365     08111400000000500000000000012N031114000000000000001670000000000000000000000000000000000000000000000115761167000142DOC SERVICE SERVI«OS DOCUMENTAIS LTDA   Rua Marechal Floriano Peixoto,1562-Sala             85851020Protesto apÛs 5 dias                                        000085
1                   000902692011248461-12366                  0000000000000012366000000000002               0112366     08111400000000500000000000012N0311140000000000000016700000000000000000000000000000000000000000000001157926280001442 W V INTERMEDIA«√O CARTOR¡RIA LTDA-ME  Rua Marechal Deodoro,44                             12500210Protesto apÛs 5 dias                                        000086
1                   000902692011248461-12367                  0000000000000012367900000000002               0112367     08111400000000500000000000012N031114000000000000001670000000000000000000000000000000000000000000000115779486000185ANA LIDIA ANDRADE VASCONCELOS CISOTTO - Rua M·rio Pedro Vercellino,411                      18550000Protesto apÛs 5 dias                                        000087
1                   000902692011248461-12368                  0000000000000012368700000000002               0112368     08111400000001000000000000012N031114000000000000003330000000000000000000000000000000000000000000000116566686000112SOMARX INTERMEDIA«√O CARTOR¡RIA LTDA    QN 07 - AREA ESPECIAL 1 TERREO LOJA,11-R            71805731Protesto apÛs 5 dias                                        000088
1                   000902692011248461-12369                  0000000000000012369500000000002               0112369     08111400000001000000000000012N031114000000000000003330000000000000000000000000000000000000000000000116651907000150COTIA CENTRAL - SERVI«OS ADMINISTRATIVOSRua Joaquim Nunes Filho,204                         06717180Protesto apÛs 5 dias                                        000089
1                   000902692011248461-12370                  0000000000000012370900000000002               0112370     08111400000001500000000000012N031114000000000000005000000000000000000000000000000000000000000000000117013577000130RIBEIRO INTERMEDIA«√O CARTOR¡RIA LTDA.  Av. Presidente Marques,1212                         78045008Protesto apÛs 5 dias                                        000090
1                   000902692011248461-12371                  0000000000000012371700000000002               0112371     08111400000000500000000000012N031114000000000000001670000000000000000000000000000000000000000000000116455215000137MIM Consultoria, Assessoria e IntermediaRua Gal. Bacelar,504                                96200370Protesto apÛs 5 dias                                        000091
1                   000902692011248461-12372                  0000000000000012372500000000002               0112372     08111400000000500000000000012N031114000000000000001670000000000000000000000000000000000000000000000116850829000113FORMAGIO & MILARE LTDA ME               Rua Princesa Izabel,994                             17900000Protesto apÛs 5 dias                                        000092
1                   000902692011248461-12373                  0000000000000012373300000000002               0112373     08111400000001000000000000012N031114000000000000003330000000000000000000000000000000000000000000000116988183000135MENEZES & AMARAL INTERMEDIA«√O CARTOR¡RIRua Israel Pinheiro,2500-LJ 1                       35020220Protesto apÛs 5 dias                                        000093
1                   000902692011248461-12374                  0000000000000012374100000000002               0112374     08111400000000500000000000012N031114000000000000001670000000000000000000000000000000000000000000000117163022000175DEFTHJ CONSULTORIA E ASSESSORIA CARTOR¡RR. Pedro ProcÛpio,48                                06501130Protesto apÛs 5 dias                                        000094
1                   000902692011248461-12375                  0000000000000012375P00000000002               0112375     08111400000000500000000000012N031114000000000000001670000000000000000000000000000000000000000000000116943517000154SOUZA SERVI«OS DE DOCUMENTOS S/S LTDA EPR. Coronel Aureliano de Camargo,666                 18270170Protesto apÛs 5 dias                                        000095
1                   000902692011248461-12376                  0000000000000012376800000000002               0112376     08111400000001000000000000012N031114000000000000003330000000000000000000000000000000000000000000000117206713000109FABIO TOMAZ CARDOSO - ME                Rua Primeiro de Maio,202-SL 507                     09015030Protesto apÛs 5 dias                                        000096
1                   000902692011248461-12377                  0000000000000012377600000000002               0112377     08111400000000500000000000012N031114000000000000001670000000000000000000000000000000000000000000000111834699000373REGIS ORLANDINI ASSESSORIA CARTOR¡RIA EPRua Dr. Frankilin de Castro,238                     38183120Protesto apÛs 5 dias                                        000097
1                   000902692011248461-12378                  0000000000000012378400000000002               0112378     08111400000000500000000000012N031114000000000000001670000000000000000000000000000000000000000000000116899904000130E. F. AURELIA NEGOCIOS E INTERMEDIA«√O CRua Liberdade,596                                   06853700Protesto apÛs 5 dias                                        000098
1                   000902692011248461-12379                  0000000000000012379200000000002               0112379     08111400000000500000000000012N031114000000000000001670000000000000000000000000000000000000000000000116949930000126CIRENO FILHO INTERMEDIA«√O CARTORARIA   Rua Carlos Eduardo Nichele,1382-LJ01                83833022Protesto apÛs 5 dias                                        000099
1                   000902692011248461-12380                  0000000000000012380600000000002               0112380     08111400000000350000000000012N031114000000000000001170000000000000000000000000000000000000000000000116811847000196TOLEDO & PEREIRA VASSALO LTDA ME        Rua Santos Pereira,212                              37500026Protesto apÛs 5 dias                                        000100
1                   000902692011248461-12381                  0000000000000012381400000000002               0112381     08111400000001000000000000012N031114000000000000003330000000000000000000000000000000000000000000000116819238000183CARLOS ALBERTO ROCHA DE MELO - ME       R. HermÛgenes Freire da Costa,02-LJ 05              28940000Protesto apÛs 5 dias                                        000101
1                   000902692011248461-12382                  0000000000000012382200000000002               0112382     08111400000000500000000000012N031114000000000000001670000000000000000000000000000000000000000000000116945793000151JLM INTERMEDIA«√O CARTOR¡RIA LTDA       Av. Tiradentes,618-LJ 03                            36307348Protesto apÛs 5 dias                                        000102
1                   000902692011248461-12383                  0000000000000012383000000000002               0112383     08111400000001750000000000012N031114000000000000005830000000000000000000000000000000000000000000000116927836000176C. M. MILROT CONSULTORIA E INTERMEDIA«√OAl. Ribeir„o Preto,551-SL 24                        01331001Protesto apÛs 5 dias                                        000103
1                   000902692011248461-12384                  0000000000000012384900000000002               0112384     08111400000000500000000000012N031114000000000000001670000000000000000000000000000000000000000000000116964316000133CAMARGO & ESTRACINE INTERMEDIA«√O CARTORRua Miguel Anselmo,260                              15900000Protesto apÛs 5 dias                                        000104
1                   000902692011248461-12385                  0000000000000012385700000000002               0112385     08111400000001000000000000012N031114000000000000003330000000000000000000000000000000000000000000000117829100000128JS & BOIM INTERMEDIA«√O CARTOR¡RIA LTDA Rua Tabatinguera,140-SL 409 e 410                   01020000Protesto apÛs 5 dias                                        000105
1                   000902692011248461-12386                  0000000000000012386500000000002               0112386     08111400000001000000000000012N031114000000000000003330000000000000000000000000000000000000000000000112587280000165RTC INTERMEDIA«√O CARTOR¡RIA LTDA - ME  Rua Montenegro,171 A                                11410040Protesto apÛs 5 dias                                        000106
1                   000902692011248461-12387                  0000000000000012387300000000002               0112387     08111400000000500000000000012N031114000000000000001670000000000000000000000000000000000000000000000116729531000150GOMES VERAS INTERMEDIA«√O CARTOR¡RIA LTDRua Maranh„o,763-Sala 17 R                          65901590Protesto apÛs 5 dias                                        000107
1                   000902692011248461-12388                  0000000000000012388100000000002               0112388     08111400000002000000000000012N031114000000000000006670000000000000000000000000000000000000000000000116970183000108NR INTERMEDIA«√O CARTOR¡RIA LTDA        Av. Dom Luis,500-Piso L0, Loja 38, Shopp            60160196Protesto apÛs 5 dias                                        000108
1                   000902692011248461-12389                  0000000000000012389P00000000002               0112389     08111400000000500000000000012N031114000000000000001670000000000000000000000000000000000000000000000117103695000210Vale Rio - IntermediaÁ„o Cartor·ria LtdaRua do ParaÌso,97-SL 29                             48903050Protesto apÛs 5 dias                                        000109
1                   000902692011248461-12390                  0000000000000012390300000000002               0112390     08111400000000500000000000012N031114000000000000001670000000000000000000000000000000000000000000000117103695000130VALE RIO - INTERMEDIA«√O CARTOR¡RIA LTDAPraÁa Pio XII,290-2∫ Andar, SL 01                   56304430Protesto apÛs 5 dias                                        000110
1                   000902692011248461-12391                  0000000000000012391100000000002               0112391     08111400000001000000000000012N031114000000000000003330000000000000000000000000000000000000000000000117488037000103LG INTERMEDIA«√O CARTOR¡RIA LTDA ME     Rua Rafael Nascimento,300 C                         75901290Protesto apÛs 5 dias                                        000111
1                   000902692011248461-12392                  0000000000000012392P00000000002               0112392     08111400000001000000000000012N031114000000000000003330000000000000000000000000000000000000000000000117197147000116POSTCAR INTERMEDIA«√O CARTOR¡RIA LTDA   Rua Amaro Genari,40-Sala 33                         09810270Protesto apÛs 5 dias                                        000112
1                   000902692011248461-12393                  0000000000000012393800000000002               0112393     08111400000000300000000000012N031114000000000000001000000000000000000000000000000000000000000000000117216619000130F E M INTERMEDIA«√O CARTORARIA LTDA ME  Av. Dom Pedro II,135-Sala 22                        37470000Protesto apÛs 5 dias                                        000113
1                   000902692011248461-12394                  0000000000000012394600000000002               0112394     08111400000000500000000000012N031114000000000000001670000000000000000000000000000000000000000000000118294473000104VIEIRA E SCORALICK LTDA                 Rua Get˙lio Vargas,53                               34800000Protesto apÛs 5 dias                                        000114
1                   000902692011248461-12395                  0000000000000012395400000000002               0112395     08111400000000500000000000012N031114000000000000001670000000000000000000000000000000000000000000000112762841000115SM GERENCIAMENTO DE CERTID’ES E DOCUMENTRua 18,81                                           76380000Protesto apÛs 5 dias                                        000115
1                   000902692011248461-12396                  0000000000000012396200000000002               0112396     08111400000000500000000000012N031114000000000000001670000000000000000000000000000000000000000000000118325368000195FERREIRA CAMPOS CONSULTORIA E INTERMEDIARua Joaquim Manuel,248                              46430000Protesto apÛs 5 dias                                        000116
1                   000902692011248461-12397                  0000000000000012397000000000002               0112397     08111400000001500000000000012N031114000000000000005000000000000000000000000000000000000000000000000117234137000103Postal Services - Assessoria e ServiÁos PÁ das Orquideas,186-SL 04 | 1∫ Andar               06453002Protesto apÛs 5 dias                                        000117
1                   000902692011248461-12398                  0000000000000012398900000000002               0112398     08111400000000500000000000012N031114000000000000001670000000000000000000000000000000000000000000000117344439000134Carneiro e Santana IntermediaÁ„o Cartor·Rua Brasil,210-SALA A                               19800100Protesto apÛs 5 dias                                        000118
1                   000902692011248461-12399                  0000000000000012399700000000002               0112399     08111400000000500000000000012N031114000000000000001670000000000000000000000000000000000000000000000117474125000156MAGAVIX INTERMEDIA«√O E LOGISTICA DE DISRua Amap·,1777                                      87704070Protesto apÛs 5 dias                                        000119
1                   000902692011248461-12400                  0000000000000012400400000000002               0112400     08111400000000500000000000012N031114000000000000001670000000000000000000000000000000000000000000000118726605000120OLIVEIRA CECHET INTERMEDIA«√O CARTOR¡RIARua Cleriston Andrade,132-QD 23 LT 03 SL            47850000Protesto apÛs 5 dias                                        000120
1                   000902692011248461-12401                  0000000000000012401200000000002               0112401     08111400000000500000000000012N031114000000000000001670000000000000000000000000000000000000000000000117569606000145RP SERVI«OS CARTORARIOS LTDA            Av. Santos Dumont,3257-Comercial MM501 L            42700000Protesto apÛs 5 dias                                        000121
1                   000902692011248461-12402                  0000000000000012402000000000002               0112402     08111400000000500000000000012N031114000000000000001670000000000000000000000000000000000000000000000118532030000104ASSESSORIA POSTAL LTDA - ME             Rua 22,1225                                         38300076Protesto apÛs 5 dias                                        000122
1                   000902692011248461-12403                  0000000000000012403900000000002               0112403     08111400000000400000000000012N031114000000000000001330000000000000000000000000000000000000000000000109532074000143OTTIMIZA ASSESSORIA CARTORARIA LTDA - MERua Raimundo Chaves,1584                            59064390Protesto apÛs 5 dias                                        000123
1                   000902692011248461-12404                  0000000000000012404700000000002               0112404     08111400000000500000000000012N031114000000000000001670000000000000000000000000000000000000000000000118275563000158FEITOZA SERVI«OS POSTAL LTDA            Rua AntÙnio Guimar„es,604                           65631100Protesto apÛs 5 dias                                        000124
1                   000902692011248461-12405                  0000000000000012405500000000002               0112405     08111400000000500000000000012N031114000000000000001670000000000000000000000000000000000000000000000117497344000150VAP POSTAL INTERMEDIA«√O CARTOR¡RIA LTDARua Teodorico Tourinho,304                          39800010Protesto apÛs 5 dias                                        000125
1                   000902692011248461-12406                  0000000000000012406300000000002               0112406     08111400000000500000000000012N031114000000000000001670000000000000000000000000000000000000000000000113622593000170Moraes & Vessoni Serv. e Ass. CartorariaRua Paran·,629                                      19900021Protesto apÛs 5 dias                                        000126
1                   000902692011248461-12407                  0000000000000012407100000000002               0112407     08111400000000500000000000012N031114000000000000001670000000000000000000000000000000000000000000000117736384000108JANAINA FERREIRA DE TOLEDO PEREIRA      Rua Vanor Junqueira Franco,300-Fundos               14701010Protesto apÛs 5 dias                                        000127
1                   000902692011248461-12408                  0000000000000012408P00000000002               0112408     08111400000000700000000000012N031114000000000000002330000000000000000000000000000000000000000000000117966691000185GERENCIAMENTO DE CERTIDOES E DOCUMENTOS Rua Cincinato Pinto,297-SL 105                      57020670Protesto apÛs 5 dias                                        000128
1                   000902692011248461-12409                  0000000000000012409800000000002               0112409     08111400000000350000000000012N031114000000000000001170000000000000000000000000000000000000000000000117882102000180JK INTERMEDIA«’ES CARTOR¡RIAS           Av. Francisco Monteiro,95                           09400310Protesto apÛs 5 dias                                        000129
1                   000902692011248461-12410                  0000000000000012410100000000002               0112410     08111400000000500000000000012N031114000000000000001670000000000000000000000000000000000000000000000118268113000138LINS E SILVA INTERMEDIA«’ES CARTOR¡RIAS Rua Visconde de Campo Alegre,149-1∫ Anda            54505370Protesto apÛs 5 dias                                        000130
1                   000902692011248461-12411                  0000000000000012411P00000000002               0112411     08111400000000500000000000012N031114000000000000001670000000000000000000000000000000000000000000000120794197000195ANH SERVI«OS CARTOR¡RIOS E DOCUMENTAIS LRua AntÙnio Teles de Menezes,41-SL 407              25520630Protesto apÛs 5 dias                                        000131
1                   000902692011248461-12412                  0000000000000012412800000000002               0112412     08111400000001000000000000012N031114000000000000003330000000000000000000000000000000000000000000000118133083000152MALTAURO BEZERRA CONSULTORIA E INTERMEDIAv. Tancredo Neves,1485-SL 408 | Ed. Esp            41820021Protesto apÛs 5 dias                                        000132
1                   000902692011248461-12413                  0000000000000012413600000000002               0112413     08111400000001750000000000012N031114000000000000005830000000000000000000000000000000000000000000000118384480000105INTERMEDIA«√O CARTOR¡RIA INTERLAGOS LTDAAv. Nossa Senhora do Sabar·,1687                    04685004Protesto apÛs 5 dias                                        000133
1                   000902692011248461-12414                  0000000000000012414400000000002               0112414     08111400000000500000000000012N031114000000000000001670000000000000000000000000000000000000000000000118209597000144T A Mendes ServiÁos Administrativos - MERua Visconde do Rio Branco,128                      13600080Protesto apÛs 5 dias                                        000134
1                   000902692011248461-12415                  0000000000000012415200000000002               0112415     08111400000000500000000000012N031114000000000000001670000000000000000000000000000000000000000000000117961015000119ADALBERTO ROCHA THOBIAS - ME            Av. Paulista,259-Oeste                              17280000Protesto apÛs 5 dias                                        000135
1                   000902692011248461-12416                  0000000000000012416000000000002               0112416     08111400000000500000000000012N031114000000000000001670000000000000000000000000000000000000000000000118117942000110Rocha OrÁai IntermediaÁ„o Cartor·ria LtdRua dos Leites,69-Sala 118, Galeria PÙr             28470000Protesto apÛs 5 dias                                        000136
1                   000902692011248461-12417                  0000000000000012417900000000002               0112417     08111400000000500000000000012N031114000000000000001670000000000000000000000000000000000000000000000118840724000109RM SERVI«OS DE INTERMEDIA«√O CARTOR¡RIA Av. Get˙lio Vargas,44                               48601260Protesto apÛs 5 dias                                        000137
1                   000902692011248461-12418                  0000000000000012418700000000002               0112418     08111400000001500000000000012N031114000000000000005000000000000000000000000000000000000000000000000118379292000180DOCUMENTUM BRASILIA LTDA - ME           CLN 316-BL E, LJ 06                                 70775550Protesto apÛs 5 dias                                        000138
1                   000902692011248461-12419                  0000000000000012419500000000002               0112419     08111400000001000000000000012N031114000000000000003330000000000000000000000000000000000000000000000115007025000194FV RepresentaÁ„o Comercial LTDA         Alameda AbricÛ,1856-LJ 03                           28890254Protesto apÛs 5 dias                                        000139
1                   000902692011248461-12420                  0000000000000012420900000000002               0112420     08111400000000500000000000012N031114000000000000001670000000000000000000000000000000000000000000000118254685000168CASTELO BRANCO - INTERMEDIA«√O CART”RARIRua do Sol,382-Loja 06 - Centro Empresar            65300000Protesto apÛs 5 dias                                        000140
1                   000902692011248461-12421                  0000000000000012421700000000002               0112421     08111400000000500000000000012N031114000000000000001670000000000000000000000000000000000000000000000118354262000110BOFF E MULLER INTERMEDIA«√O CARTOR¡RIA LAv. J˙lio de Castilhos,1340-SL 05 - Cent            95010003Protesto apÛs 5 dias                                        000141
1                   000902692011248461-12422                  0000000000000012422500000000002               0112422     08111400000000500000000000012N031114000000000000001670000000000000000000000000000000000000000000000119503612000125BORGES & SARTORI SERVI«OS ADMINISTRATIVOAv. Presidente Kennedy,6920-SL 6                    11704100Protesto apÛs 5 dias                                        000142
1                   000902692011248461-12423                  0000000000000012423300000000002               0112423     08111400000000500000000000012N031114000000000000001670000000000000000000000000000000000000000000000118596649000182LHL SERVI«OS ADMINISTRATIVOS E INTERMEDIRua AssemblÈia de Deus,39-SL 411                    11500040Protesto apÛs 5 dias                                        000143
1                   000902692011248461-12424                  0000000000000012424100000000002               0112424     08111400000000350000000000012N031114000000000000001170000000000000000000000000000000000000000000000119490850000143VA VIOTTO INTERMEDIACAO CAROTARIA - ME  Av. Farid Miguel Safatle,509-LJ 01                  75701040Protesto apÛs 5 dias                                        000144
1                   000902692011248461-12425                  0000000000000012425P00000000002               0112425     08111400000000500000000000012N031114000000000000001670000000000000000000000000000000000000000000000119289512000148P W INTERMEDIA«√O CARTOR¡RIA LTDA       Rua Bonaire,312                                     65930000Protesto apÛs 5 dias                                        000145
1                   000902692011248461-12426                  0000000000000012426800000000002               0112426     08111400000001000000000000012N031114000000000000003330000000000000000000000000000000000000000000000118758648000197CASANOVA E CAL INTERMEDIA«√O CARTOR¡RIA Rua Osvaldo Cruz,372-LJ 106                         41940000Protesto apÛs 5 dias                                        000146
1                   000902692011248461-12427                  0000000000000012427600000000002               0112427     08111400000000500000000000012N031114000000000000001670000000000000000000000000000000000000000000000118607091000193ROBERTA CORREA BUENO GOLO ME            PraÁa 9 de Julho,123                                13960000Protesto apÛs 5 dias                                        000147
1                   000902692011248461-12428                  0000000000000012428400000000002               0112428     08111400000000350000000000012N031114000000000000001170000000000000000000000000000000000000000000000103781158000134DESTRO & CABRAL INTERMEDIA«√O CARTOR¡RIAAv. da Saudade,246                                  14840000Protesto apÛs 5 dias                                        000148
1                   000902692011248461-12429                  0000000000000012429200000000002               0112429     08111400000000500000000000012N031114000000000000001670000000000000000000000000000000000000000000000118678770000153CHIMACHI E COGHI INTERMEDIA«√O CARTOR¡RIRua AntÙnio Mour„o,84-SL 03                         13610090Protesto apÛs 5 dias                                        000149
1                   000902692011248461-12430                  0000000000000012430600000000002               0112430     08111400000000350000000000012N031114000000000000001170000000000000000000000000000000000000000000000118465701000161SANDRA RODRIGUES DE JESUS - EIRELI - ME Rua Tito FulgÍncio,164-SL 106, Galeria C            38500000Protesto apÛs 5 dias                                        000150
1                   000902692011248461-12431                  0000000000000012431400000000002               0112431     08111400000000500000000000012N031114000000000000001670000000000000000000000000000000000000000000000118950650000163NOVA ERA INTERMEDIA«√O CARTORARIA LTDA -Av. Rui Barbosa,72-SL 13                            11740970Protesto apÛs 5 dias                                        000151
1                   000902692011248461-12432                  0000000000000012432200000000002               0112432     08111400000000500000000000012N031114000000000000001670000000000000000000000000000000000000000000000118536552000184CAMPOS DO JORDAO INTERMEDIACAO CARTORARIRua Brigadeiro Jord„o,636                           12460000Protesto apÛs 5 dias                                        000152
1                   000902692011248461-12433                  0000000000000012433000000000002               0112433     08111400000000600000000000012N031114000000000000002000000000000000000000000000000000000000000000000118758564000153M & M INTERMEDIA«√O CARTOR¡RIA LTDA - MERua Dom Luis Felipe de Orleans,1177                 02118001Protesto apÛs 5 dias                                        000153
1                   000902692011248461-12434                  0000000000000012434900000000002               0112434     08111400000001000000000000012N031114000000000000003330000000000000000000000000000000000000000000000119166528000163ESANNF ‚Äì SERVI√áOS DE APOIO AS EMPRESARua do Arroz,90-SL 451                              21011070Protesto apÛs 5 dias                                        000154
1                   000902692011248461-12435                  0000000000000012435700000000002               0112435     08111400000000500000000000012N031114000000000000001670000000000000000000000000000000000000000000000101507315000192MG BUSINARI                             Av. Brasil,1955-SL 4A                               13468000Protesto apÛs 5 dias                                        000155
1                   000902692011248461-12436                  0000000000000012436500000000002               0112436     08111400000000350000000000012N031114000000000000001170000000000000000000000000000000000000000000000118717359000140FAVARO INTERMEDIA«√O CARTOR¡RIA LTDA -MEAv. Cinco,300                                       14620000Protesto apÛs 5 dias                                        000156
1                   000902692011248461-12437                  0000000000000012437300000000002               0112437     08111400000000500000000000012N031114000000000000001670000000000000000000000000000000000000000000000118995227000180MM SERVI«O DE INTERMEDIA«√O DE NEGOCIO LAv. Coumbiara,4489                                  76940000Protesto apÛs 5 dias                                        000157
1                   000902692011248461-12438                  0000000000000012438100000000002               0112438     08111400000000500000000000012N031114000000000000001670000000000000000000000000000000000000000000000119204476000172ICSF - INTERMEDIA«√O CARTORARIA SAPONARARua Sebasti„o Silvestre Neves,279-LJ 28             11600000Protesto apÛs 5 dias                                        000158
1                   000902692011248461-12439                  0000000000000012439P00000000002               0112439     08111400000000500000000000012N031114000000000000001670000000000000000000000000000000000000000000000114445177000106Bruce Costa Vilafranca - ME             Rua Paschoal Gianfrancesco,60-Sal„o 10              13224700Protesto apÛs 5 dias                                        000159
1                   000902692011248461-12440                  0000000000000012440300000000002               0112440     08111400000000500000000000012N031114000000000000001670000000000000000000000000000000000000000000000118917837000165VALE FV - INTERMEDIACAO CARTORARIA LTDA Rua Bernardino de Campos,44-SL 26/27, 1∫            12308010Protesto apÛs 5 dias                                        000160
1                   000902692011248461-12441                  0000000000000012441100000000002               0112441     08111400000000500000000000012N031114000000000000001670000000000000000000000000000000000000000000000119448391000130YANA SANTOS SOUTO MAIOR VIEIRA - ME     Av. Agamenon Magalh„es,444-SL 426                   55012290Protesto apÛs 5 dias                                        000161
1                   000902692011248461-12442                  0000000000000012442P00000000002               0112442     08111400000000500000000000012N031114000000000000001670000000000000000000000000000000000000000000000119044805000165RB CONSULTORIA E ASSESSORIA EIRELI      Rua Eliseu Guilherme,724                            14025020Protesto apÛs 5 dias                                        000162
1                   000902692011248461-12443                  0000000000000012443800000000002               0112443     08111400000001000000000000012N031114000000000000003330000000000000000000000000000000000000000000000119137241000105OLIVEIRA E VALDEZ INTERMEDIA«’ES CARTOR¡Alameda Doutor Carlos de Carvalho,655-LJ            80430180Protesto apÛs 5 dias                                        000163
1                   000902692011248461-12444                  0000000000000012444600000000002               0112444     08111400000001000000000000012N031114000000000000003330000000000000000000000000000000000000000000000116990226000117E. ROFELD SERVI«OS ADMINISTRATIVOS ME   Av. AngÈlica,1814-CJ 606                            01228200Protesto apÛs 5 dias                                        000164
1                   000902692011248461-12445                  0000000000000012445400000000002               0112445     08111400000001000000000000012N031114000000000000003330000000000000000000000000000000000000000000000113031763000141QUALY SERVI«OS CARTOR¡RIOS LTDA         Est. do Gabinal,313-LJ 215-216                      22760151Protesto apÛs 5 dias                                        000165
1                   000902692011248461-12446                  0000000000000012446200000000002               0112446     08111400000000500000000000012N031114000000000000001670000000000000000000000000000000000000000000000119219421000136OK INTERMEDIA«AO CARTORARIA LTDA        Rua Jeronimo Coelho,140-SL 04                       89201205Protesto apÛs 5 dias                                        000166
1                   000902692011248461-12447                  0000000000000012447000000000002               0112447     08111400000000500000000000012N031114000000000000001670000000000000000000000000000000000000000000000120513848000121FACILITY SOLU«’ES EM INTERMEDIA«√O CARTORua Quinze de Janeiro,121-SL 905, Centro            92010300Protesto apÛs 5 dias                                        000167
1                   000902692011248461-12448                  0000000000000012448900000000002               0112448     08111400000001000000000000012N031114000000000000003330000000000000000000000000000000000000000000000119344677000175Fontenelle, Viana & Santos IntermediaÁ„oRua Conde de Bonfim,310-Subsolo - LJ G              20520054Protesto apÛs 5 dias                                        000168
1                   000902692011248461-12449                  0000000000000012449700000000002               0112449     08111400000000300000000000012N031114000000000000001000000000000000000000000000000000000000000000000119152213000167MAIS FACIL INTERMEDIA«√O CARTORARIA     Av. Cel. Manoel InocÍncio,631-LJ 17                 12281010Protesto apÛs 5 dias                                        000169
1                   000902692011248461-12450                  0000000000000012450000000000002               0112450     08111400000000500000000000012N031114000000000000001670000000000000000000000000000000000000000000000119571061000137KAIROS PRESTA«√O DE SERVI«OS E INTERMEDIRua T,02-QD 02, Lote 09, Sala 08                    77064566Protesto apÛs 5 dias                                        000170
1                   000902692011248461-12451                  0000000000000012451900000000002               0112451     08111400000000500000000000012N031114000000000000001670000000000000000000000000000000000000000000000117909648000188CAME - CACIM AMOEDO MEDRADO EMPREENDIMENRua Francisco Drumond,36 A                          42800500Protesto apÛs 5 dias                                        000171
1                   000902692011248461-12452                  0000000000000012452700000000002               0112452     08111400000000500000000000012N031114000000000000001670000000000000000000000000000000000000000000000119376967000109INOVA«√O SERVI«OS DE APOIO ADMINISTRATIVRua Coronel Jo„o Urbano,85                          37002350Protesto apÛs 5 dias                                        000172
1                   000902692011248461-12453                  0000000000000012453500000000002               0112453     08111400000000500000000000012N031114000000000000001670000000000000000000000000000000000000000000000118939109000154J.B. NASCIMENTO INTERMEDIA«√O CARTORARIARua Par·,3222                                       15502236Protesto apÛs 5 dias                                        000173
1                   000902692011248461-12454                  0000000000000012454300000000002               0112454     08111400000001000000000000012N031114000000000000003330000000000000000000000000000000000000000000000119353380000176RODOPOSTALLE SERVICOS CARTORARIOS LTDA -Rua Flores do PiauÌ,99-SL 03, 1∫ Andar              08210200Protesto apÛs 5 dias                                        000174
1                   000902692011248461-12455                  0000000000000012455100000000002               0112455     08111400000000500000000000012N031114000000000000001670000000000000000000000000000000000000000000000119079601000160M & E INTERMEDIA«√O CARTOR¡RIA LTDA - MERua Jo„o Cesar de Oliveira,2295-SL 101,             32315000Protesto apÛs 5 dias                                        000175
1                   000902692011248461-12456                  0000000000000012456P00000000002               0112456     08111400000000500000000000012N031114000000000000001670000000000000000000000000000000000000000000000119318001000107SOBRAL INTERMEDIA«√O DE DOCUMENTOS LTDA Rua Tabeli„o Ildefonso Cavalcante,417               62010015Protesto apÛs 5 dias                                        000176
1                   000902692011248461-12457                  0000000000000012457800000000002               0112457     08111400000000500000000000012N031114000000000000001670000000000000000000000000000000000000000000000111836017000108F.L. DE A. Lima - ME                    Rua 45,63-Loja 65/66                                61.90105Protesto apÛs 5 dias                                        000177
1                   000902692011248461-12458                  0000000000000012458600000000002               0112458     08111400000001000000000000012N031114000000000000003330000000000000000000000000000000000000000000000119451478000166MELLO 7 LEBLON SERVI«OS DE DESPACHANTES Av. Ataulfo de Paiva,1174-SL 05                     22440035Protesto apÛs 5 dias                                        000178
1                   000902692011248461-12459                  0000000000000012459400000000002               0112459     08111400000001000000000000012N031114000000000000003330000000000000000000000000000000000000000000000119667269000154ANDRADE CONSULTORIA E INTERMEDIA«√O CARTAv. Dantas Barreto,1090-5∫Andar, Edf. Sa            50020000Protesto apÛs 5 dias                                        000179
1                   000902692011248461-12460                  0000000000000012460800000000002               0112460     08111400000001000000000000012N031114000000000000003330000000000000000000000000000000000000000000000110329307000194MCDI INTERMEDIA«’ES CARTOR¡RIAS LTDA - MRua Sargento Jo„o Lopes,263                         21931420Protesto apÛs 5 dias                                        000180
1                   000902692011248461-12461                  0000000000000012461600000000002               0112461     08111400000000500000000000012N031114000000000000001670000000000000000000000000000000000000000000000108490584000132M.C. RABHA SERVI«OS ADMINISTRATIVOS     Rua da ConceiÁ„o,136-SL 201                         23900435Protesto apÛs 5 dias                                        000181
1                   000902692011248461-12462                  0000000000000012462400000000002               0112462     08111400000000500000000000012N031114000000000000001670000000000000000000000000000000000000000000000119780195000168FRAN«A E SOUZA INTERMEDIA«√O CARTOR¡RIA Av. Braz de Pina,2073-SL 204                        21235604Protesto apÛs 5 dias                                        000182
1                   000902692011248461-12463                  0000000000000012463200000000002               0112463     08111400000000350000000000012N031114000000000000001170000000000000000000000000000000000000000000000117961015000208ADALBERTO ROCHA THOBIAS - ME            Rua das Palmeiras,43                                17210120Protesto apÛs 5 dias                                        000183
1                   000902692011248461-12464                  0000000000000012464000000000002               0112464     08111400000001000000000000012N031114000000000000003330000000000000000000000000000000000000000000000116731938000111ANTTARES CONSULTORIA E INTERMEDIA«√O CARAv. Dr. Eduardo Cotching,1800 A                     03356000Protesto apÛs 5 dias                                        000184
1                   000902692011248461-12465                  0000000000000012465900000000002               0112465     08111400000000500000000000012N031114000000000000001670000000000000000000000000000000000000000000000119899797000139GESING E SILVA PREPARA«√O DE DOCUMENTOS Rua Alameda Aristiliano Ramos,768-SL 03             81160000Protesto apÛs 5 dias                                        000185
1                   000902692011248461-12466                  0000000000000012466700000000002               0112466     08111400000000500000000000012N031114000000000000001670000000000000000000000000000000000000000000000119725172000150CNF INTERMEDIA«√O CARTOR¡RIA ME         Rua Sete,2353                                       15700014Protesto apÛs 5 dias                                        000186
1                   000902692011248461-12467                  0000000000000012467500000000002               0112467     08111400000000500000000000012N031114000000000000001670000000000000000000000000000000000000000000000118101849000117ANA PAULA CALICCHIO FERRAZ ME           Av. Dr. Jo„o Carlos,14                              37800000Protesto apÛs 5 dias                                        000187
1                   000902692011248461-12468                  0000000000000012468300000000002               0112468     08111400000000500000000000012N031114000000000000001670000000000000000000000000000000000000000000000120063736000116RAHJ SOLU«’ES LTDA EPP                  Estrada Rio-S„o Paulo,17-LJ 19                      23898000Protesto apÛs 5 dias                                        000188
1                   000902692011248461-12469                  0000000000000012469100000000002               0112469     08111400000000500000000000012N031114000000000000001670000000000000000000000000000000000000000000000120175730000130FORMICOLI & ALVES LTDA                  Rua Porto Seguro,188                                87200258Protesto apÛs 5 dias                                        000189
1                   000902692011248461-12470                  0000000000000012470500000000002               0112470     08111400000000500000000000012N031114000000000000001670000000000000000000000000000000000000000000000119756945000166MADAME¥S INTERMEDIA«√O CARTORARIA LTDA -Av. Caminho do Mar,3215                             09611000Protesto apÛs 5 dias                                        000190
1                   000902692011248461-12471                  0000000000000012471300000000002               0112471     08111400000001000000000000012N031114000000000000003330000000000000000000000000000000000000000000000119831382000123INTERMEDIA«√O CARTOR¡RIA GADINI LTDA - MRua Maria C‚ndida,1159-Sala 02                      02071012Protesto apÛs 5 dias                                        000191
1                   000902692011248461-12472                  0000000000000012472100000000002               0112472     08111400000001000000000000012N031114000000000000003330000000000000000000000000000000000000000000000120307190000100IRM√OS FINGOLO INTERMEDIA«√O CARTOR¡RIA Rua Tenente Coronel Cardoso,379                     28010280Protesto apÛs 5 dias                                        000192
1                   000902692011248461-12473                  0000000000000012473P00000000002               0112473     08111400000000500000000000012N031114000000000000001670000000000000000000000000000000000000000000000119955865000130V G M SERVI«OS E INTERMEDIA«√O CART”RARIRua Dr. Justo Pedrosa,380 A                         65800000Protesto apÛs 5 dias                                        000193
1                   000902692011248461-12474                  0000000000000012474800000000002               0112474     08111400000000500000000000012N031114000000000000001670000000000000000000000000000000000000000000000120284459000171FIGUEIREDO INTERMEDIA«√O CARTORARIA LTDARua Monsenhor Leite,200-LJ 02                       37170000Protesto apÛs 5 dias                                        000194
1                   000902692011248461-12475                  0000000000000012475600000000002               0112475     08111400000000500000000000012N031114000000000000001670000000000000000000000000000000000000000000000120062349000165MASTER INTERMEDIA«’ES CARTOR¡RIAS E SERVRua Salvador MendonÁa,51-SL 101                     24800161Protesto apÛs 5 dias                                        000195
1                   000902692011248461-12476                  0000000000000012476400000000002               0112476     08111400000000500000000000012N031114000000000000001670000000000000000000000000000000000000000000000120348170000179PIMENTEL INTERMEDIA«’ES CARTORARIAS     Av. Padre Anchieta,2522-LJ 02                       11750000Protesto apÛs 5 dias                                        000196
1                   000902692011248461-12477                  0000000000000012477200000000002               0112477     08111400000000500000000000012N031114000000000000001670000000000000000000000000000000000000000000000119790066000150CAMARGO E JARABIZA LTDA - ME            Rua Raimundo Leonardi,1656-Sala 01                  85900110Protesto apÛs 5 dias                                        000197
1                   000902692011248461-12478                  0000000000000012478000000000002               0112478     08111400000000500000000000012N031114000000000000001670000000000000000000000000000000000000000000000120456184000106JULIO CESAR SILVA LUCAS ME              Rua General Neto,161-SL 404                         96400380Protesto apÛs 5 dias                                        000198
1                   000902692011248461-12479                  0000000000000012479900000000002               0112479     08111400000001000000000000012N031114000000000000003330000000000000000000000000000000000000000000000120354043000182Clarice Lopes Moraes Marcheti - ME      Rua Ot·vio Nunes da Silva,57                        07021001Protesto apÛs 5 dias                                        000199
1                   000902692011248461-12480                  0000000000000012480200000000002               0112480     08111400000001000000000000012N031114000000000000003330000000000000000000000000000000000000000000000120530368000179QUEIROZ & LAPORTA INTERMEDIA«√O CARTORARRua Jorge Augusto,83-SL 76                          03645000Protesto apÛs 5 dias                                        000200
1                   000902692011248461-12481                  0000000000000012481000000000002               0112481     08111400000001000000000000012N031114000000000000003330000000000000000000000000000000000000000000000114045659000179B. DE A. REBOU«AS SISTEMA DE INTERMEDIA«Rua Par·,510                                        69053575Protesto apÛs 5 dias                                        000201
1                   000902692011248461-12482                  0000000000000012482900000000002               0112482     08111400000000500000000000012N031114000000000000001670000000000000000000000000000000000000000000000120306428000174INTERMEDIA«√O CARTOR¡RIA GALLO ANDREAZZAAv. Minas Gerais,405                                75110770Protesto apÛs 5 dias                                        000202
1                   000902692011248461-12483                  0000000000000012483700000000002               0112483     08111400000000500000000000012N031114000000000000001670000000000000000000000000000000000000000000000120346515000155R. DE S. ELIAS - ME                     Av. Deputado Gast„o Mariz de Faria,210-S            59152110Protesto apÛs 5 dias                                        000203
1                   000902692011248461-12484                  0000000000000012484500000000002               0112484     08111400000001000000000000012N031114000000000000003330000000000000000000000000000000000000000000000120460981000167RICARDO OLIVA FERREIRA - INTERMEDIACAO CRua Carmine Di Genio,79                             04349030Protesto apÛs 5 dias                                        000204
1                   000902692011248461-12485                  0000000000000012485300000000002               0112485     08111400000000500000000000012N031114000000000000001670000000000000000000000000000000000000000000000112016343000123RICARDO CANDIOTA ROMANO 00351305980     Rua Arnoldo Candido Raulino,27-SL 103               88070710Protesto apÛs 5 dias                                        000205
1                   000902692011248461-12486                  0000000000000012486100000000002               0112486     08111400000001000000000000012N031114000000000000003330000000000000000000000000000000000000000000000120925860000143CARTEX INTERMEDIA«√O CARTOR¡RIA LTDA - MSQS QD 01 BL A,LOJA 05                              70322900Protesto apÛs 5 dias                                        000206
1                   000902692011248461-12487                  0000000000000012487P00000000002               0112487     08111400000001000000000000012N031114000000000000003330000000000000000000000000000000000000000000000120744410000154INTERMEDIACAO CARTORARIA LTDA - EPP     Av Dr Cristiano Guimaraes,1898                      31720300Protesto apÛs 5 dias                                        000207
1                   000902692011248461-12488                  0000000000000012488800000000002               0112488     08111400000000500000000000012N031114000000000000001670000000000000000000000000000000000000000000000120665644000106LM SOLUCOES EM INTERMEDIA«AO CARTORARIA Av. Terceira,271-SL 01                              88330083Protesto apÛs 5 dias                                        000208
1                   000902692011248461-12489                  0000000000000012489600000000002               0112489     08111400000000500000000000012N031114000000000000001670000000000000000000000000000000000000000000000111198466000160INTERMEDIACAO CARTORARIA CAICARA CARAGUAAv. Prisciliana de Castilho,374-SL 06               11660330Protesto apÛs 5 dias                                        000209
1                   000902692011248461-12490                  0000000000000012490P00000000002               0112490     08111400000000500000000000012N031114000000000000001670000000000000000000000000000000000000000000000120674886000166THOMAZ INTERMEDIA«√O CARTOR¡RIA LTDA - MRua Prof. Luiz Nardy,137                            12900020Protesto apÛs 5 dias                                        000210
1                   000902692011248461-12491                  0000000000000012491800000000002               0112491     08111400000001000000000000012N031114000000000000003330000000000000000000000000000000000000000000000116456499000267FILADELFIA SERVI«OS CARTOR¡RIOS E DOCUMEAv. Almirante Barroso,6-SL 1404, 14∫ Car            20031000Protesto apÛs 5 dias                                        000211
1                   000902692011248461-12492                  0000000000000012492600000000002               0112492     25111400000001554500000000012N031114120000000000005180000000000000000000000000000000000000000000000208346093000112ARARAJUBA EMPREENDIMENTO IMOBILI¡RIO SPEAvenida Paulista,1374-13∫ e 14∫ andar               01310100                                                            000212
1                   000902692011248461-12493                  0000000000000012493400000000002               0112493     25111400000000634000000000012N031114120000000000002110000000000000000000000000000000000000000000000208537658000149BR¡S EMPREENDIMENTO IMOBILI¡RIO SPE LTDAAvenida Paulista,1374-13∫ e 14∫ andar               01310100                                                            000213
1                   000902692011248461-12494                  0000000000000012494200000000002               0112494     25111400000000093000000000012N031114120000000000000310000000000000000000000000000000000000000000000208421706000139COLORE EMPREENDIMENTO IMOBILI¡RIO SPE S/Avenida Paulista,1374-13∫ e 14∫ andar               01310100                                                            000214
1                   000902692011248461-12495                  0000000000000012495000000000002               0112495     25111400000000214500000000012N031114120000000000000720000000000000000000000000000000000000000000000207698561000155CONDESSA EMPREENDIMENTOS IMOBILIARIOS LTAvenida Paulista,1374-13∫ e 14∫ andar               01310100                                                            000215
1                   000902692011248461-12496                  0000000000000012496900000000002               0112496     25111400000000085400000000012N031114120000000000000280000000000000000000000000000000000000000000000208536102000138CONQUISTA EMPREENDIMENTO IMOBILI¡RIO SPEAvenida Paulista,1374-13∫ e 14∫ andar               01310100                                                            000216
1                   000902692011248461-12497                  0000000000000012497700000000002               0112497     25111400000000232200000000012N031114120000000000000770000000000000000000000000000000000000000000000208188603000170ELTANIN INCORPORADORA LTDA              Avenida Paulista,1374-13∫ e 14∫ andar               01310100                                                            000217
1                   000902692011248461-12498                  0000000000000012498500000000002               0112498     25111400000000158500000000012N031114120000000000000530000000000000000000000000000000000000000000000211837088000117GDP 16 INCORPORA«√OES SPE LTDA          Avenida Paulista,1374-13∫ e 14∫ andar               01310100                                                            000218
1                   000902692011248461-12499                  0000000000000012499300000000002               0112499     25111400000000488400000000012N031114120000000000001630000000000000000000000000000000000000000000000208982379000194GOLD ACRE EMPREENDIMENTOS IMOBILI¡RIOS SAvenida Paulista,1374-13∫ e 14∫ andar               01310100                                                            000219
1                   000902692011248461-12500                  0000000000000012500000000000002               0112500     25111400000000102500000000012N031114120000000000000340000000000000000000000000000000000000000000000209312936000122GOLD BEIGE EMPREEENDIMENTOS IMOBILI¡RIOSAvenida Paulista,1374-13∫ e 14∫ andar               01310100                                                            000220
1                   000902692011248461-12501                  0000000000000012501900000000002               0112501     25111400000000112000000000012N031114120000000000000370000000000000000000000000000000000000000000000209665940000174GOLD FOLEGANDROS EMPREENDIMENTOS IMOBILIAvenida Paulista,1374-13∫ e 14∫ andar               01310100                                                            000221
1                   000902692011248461-12502                  0000000000000012502700000000002               0112502     25111400000000046500000000012N031114120000000000000160000000000000000000000000000000000000000000000210973245000159GOLD GANA EMPREENDIMENTOS IMOBILI¡RIOS SAvenida Paulista,1374-13∫ e 14∫ andar               01310100                                                            000222
1                   000902692011248461-12503                  0000000000000012503500000000002               0112503     25111400000000056000000000012N031114120000000000000190000000000000000000000000000000000000000000000209185024000137GOLD IRLANDA EMPREENDIMENTOS IMOBILIARIOAvenida Paulista,1374-13∫ e 14∫ andar               01310100                                                            000223
1                   000902692011248461-12504                  0000000000000012504300000000002               0112504     25111400000000112000000000012N031114120000000000000370000000000000000000000000000000000000000000000210899967000100GOLD LEROS EMPREENDIMENTOS IMOBILIARIOS Avenida Paulista,1374-13∫ e 14∫ andar               01310100                                                            000224
1                   000902692011248461-12505                  0000000000000012505100000000002               0112505     25111400000000056000000000012N031114120000000000000190000000000000000000000000000000000000000000000208712682000177GOLD LISBOA EMPREENDIMENTOS IMOBILI¡RIOSAvenida Paulista,1374-13∫ e 14∫ andar               01310100                                                            000225
1                   000902692011248461-12506                  0000000000000012506P00000000002               0112506     25111400000000149000000000012N031114120000000000000500000000000000000000000000000000000000000000000208908797000131GOLD MALI EMPREENDIMENTOS IMOBILI¡RIOS SAvenida Paulista ,1374-13∫ andar                    01310100                                                            000226
1                   000902692011248461-12507                  0000000000000012507800000000002               0112507     25111400000000168000000000012N031114120000000000000560000000000000000000000000000000000000000000000209185079000147GOLD NIG…RIA EMPREENDIMENTOS IMOBILI¡RIOAvenida Paulista,1374-13∫ e 14∫ andar               01310100                                                            000227
1                   000902692011248461-12508                  0000000000000012508600000000002               0112508     25111400000000456500000000012N031114120000000000001520000000000000000000000000000000000000000000000211405508000196GOLDFARB 19  EMPREENDIMENTO IMOBILI¡RIO Avenida Paulista,1374-13∫ e 14∫ andar               01310100                                                            000228
1                   000902692011248461-12509                  0000000000000012509400000000002               0112509     25111400000000587500000000012N031114120000000000001960000000000000000000000000000000000000000000000211405518000121GOLDFARB 25 EMPREENDIMENTO IMOBILIARIO LAvenida Paulista,1374-13∫ andar                     01310100                                                            000229
1                   000902692011248461-12510                  0000000000000012510800000000002               0112510     25111400000000056000000000012N031114120000000000000190000000000000000000000000000000000000000000000211444236000133GOLDFARB 36 EMPREENDIMENTO IMOBILIARIO LAvenida Paulista,1374-13∫ e 14∫ andar               01310100                                                            000230
1                   000902692011248461-12511                  0000000000000012511600000000002               0112511     25111400000000158500000000012N031114120000000000000530000000000000000000000000000000000000000000000211444235000199GOLDFARB 38 EMPREENDIMENTOS IMOBILI¡RIOSAvenida Paulista,1374-13∫ e 14∫ andar               01310100                                                            000231
1                   000902692011248461-12512                  0000000000000012512400000000002               0112512     25111400000000112000000000012N031114120000000000000370000000000000000000000000000000000000000000000211134271000156GOLDFARB 6 EMPREENDIMENTO IMOBILI¡RIO LTAvenida Paulista,1374-13∫ e 14∫ andar               01310100                                                            000232
1                   000902692011248461-12513                  0000000000000012513200000000002               0112513     25111400000003751370000000012N031114120000000000012500000000000000000000000000000000000000000000000207421434000104JARDIM DAS VERTENTES INCORPORADORA SPE LAvenida Paulista,1374                               01310100                                                            000233
1                   000902692011248461-12514                  0000000000000012514000000000002               0112514     25111400000000112000000000012N031114120000000000000370000000000000000000000000000000000000000000000212436890000168JLO BROOKLIN EMPREENDIMENTO IMOBILI¡RIO Avenida Paulista,1374-13∫ e 14∫ andar               01310100                                                            000234
1                   000902692011248461-12515                  0000000000000012515900000000002               0112515     25111400000000046500000000012N031114120000000000000160000000000000000000000000000000000000000000000211403677000197LBC  EMPREENDIMENTO IMOBILI¡RIO SPE LTDAAvenida Paulista,1374-13∫ e 14∫ andar               01310100                                                            000235
1                   000902692011248461-12516                  0000000000000012516700000000002               0112516     25111400000001366690000000012N031114120000000000004560000000000000000000000000000000000000000000000211864661000181PDG SP 15 INCORPORA«√OES SPE LTDA       Avenida Paulista,1374-13∫ e 14∫ andar               01310100                                                            000236
1                   000902692011248461-12517                  0000000000000012517500000000002               0112517     25111400000000102500000000012N031114120000000000000340000000000000000000000000000000000000000000000211837131000144PDG SP 2 INCORPORA«√OES  SPE LTDA       Avenida Paulista,1374-13∫ e 14∫ andar               01310100                                                            000237
1                   000902692011248461-12518                  0000000000000012518300000000002               0112518     25111400000000056000000000012N031114120000000000000190000000000000000000000000000000000000000000000211837193000156PDG SP 6 INCORPORA«√OES SPE LTDA        Avenida Paulista,1374-13∫ e 14∫ andar               01310100                                                            000238
1                   000902692011248461-12519                  0000000000000012519100000000002               0112519     25111400000000056000000000012N031114120000000000000190000000000000000000000000000000000000000000000214068577000140PDG SPE 15 EMPREENDIMENTOS IMOBILI¡RIOS Avenida Paulista,1374-13∫ e 14∫ andar               01310100                                                            000239
1                   000902692011248461-12520                  0000000000000012520500000000002               0112520     25111400000000900290000000012N031114120000000000003000000000000000000000000000000000000000000000000208156644000185PENIDRE ADMINISTRA«√O DE BENS LTDA      Avenida Paulista ,1374-13∫ andar                    01310100                                                            000240
1                   000902692011248461-12521                  0000000000000012521300000000002               0112521     25111400000000914870000000012N031114120000000000003050000000000000000000000000000000000000000000000207273982000134PEREIRA BARRETO EMPREENDIMENTOS IMOBILI¡Avenida Paulista,1374-13∫ e 14∫ andar               01310100                                                            000241
1                   000902692011248461-12522                  0000000000000012522100000000002               0112522     25111400000000056000000000012N031114120000000000000190000000000000000000000000000000000000000000000208995916000130RAGUSA EMPREENDIMENTOS IMOBILI¡RIOS LTDAAvenida Paulista,1374-13∫ e 14∫ andar               01310100                                                            000242
1                   000902692011248461-12523                  0000000000000012523P00000000002               0112523     25111400000000085400000000012N031114120000000000000280000000000000000000000000000000000000000000000208603903000179GOLD SINGAPURA EMPREENDIMENTOS IMOBILI¡RAvenida Paulista,1374-13∫ e 14∫ andar               01310100                                                            000243
1                   000902692011248461-12524                  0000000000000012524800000000002               0112524     14111400000000176000000000012N041114120000000000000590000000000000000000000000000000000000000000000271731335000128Seval administraÁ„o de condomÌnios Ltda Avenida Doutor Gentil de Moura,,287                 04278080                                                            000244
1                   000902692011248461-12525                  0000000000000012525600000000002               0112525     14111400000000080000000000012N041114120000000000000270000000000000000000000000000000000000000000000201190978000126ITALIA COMERCIAL TEXTIL LTDA ME         Rua Bar„o de Itapetininga ,298-04∫ Andar            01042001                                                            000245
1                   000902692011248461-12526                  0000000000000012526400000000002               0112526     14111400000000200000000000012N041114120000000000000670000000000000000000000000000000000000000000000200360305025441104 Caixa EconÙmica Federal             Rua Joaquim Floriano,446                            04534002                                                            000246
1                   000902692011248461-12267                  0000000000000012267200000000002               0612267     10111400000003475080000000012N221014120000000000010000000000000000000000000000000000000000000000000202105040000123CIBRASEC COMPANHIA BRASILEIRA DE SECURITAvenida Arnolfo Azevedo,139                         01236030                                                            000247
1                   000902692011248461-12023                  0000000000000012023800000000002               0612023     05111400000001869530000000012N021014120000000000010000000000000000000000000000000000000000000000000208346093000112ARARAJUBA EMPREENDIMENTO IMOBILI¡RIO SPEAvenida Paulista,1374-13∫ e 14∫ andar               01310100                                                            000248
1                   000902692011248461-11997                  0000000000000011997300000000002               0211997     25101400000000317600000000012N021014120000000000010000000000000000000000000000000000000000000000000208188603000170ELTANIN INCORPORADORA LTDA              Avenida Paulista,1374-13∫ e 14∫ andar               01310100                                                            000249
