01REMESSA01COBRANCA       00000000000004130991SISTEMA DE CARTóRIO CERTIDõES 237BRADESCO       161014        MX0000744                                                                                                                                                                                                                                                                                     000001
1                   000902692011248461-11570                  0000000000000011570600000000002               0111570     05101400000000200000000000012N250914120000000000000670000000000000000000000000000000000000000000000262232889000190Banco Daycoval S/A                      Avenida Paulista ,1793-02º Andar                    01311200                                                            000002
1                   000902692011248461-11571                  0000000000000011571400000000002               0111571     06101400000000788000000000012N260914120000000000002630000000000000000000000000000000000000000000000210377191000169ACM ASSESSORIA CONTABIL LTDA            Avenida Capitão Mário Toledo de Camargo,            09170150                                                            000003
1                   000902692011248461-11572                  0000000000000011572200000000002               0111572     06101400000000180000000000012N260914120000000000000600000000000000000000000000000000000000000000000205888414000112Creações MX Fashion LTDA                Rua Aimorés - lado par,210                          01122010                                                            000004
1                   000902692011248461-11574                  0000000000000011574900000000002               0111574     09101400000000242000000000012N290914120000000000000810000000000000000000000000000000000000000000000262232889000190Banco Daycoval S/A                      Avenida Paulista ,1793-02º Andar                    01311200                                                            000005
1                   000902692011248461-11575                  0000000000000011575700000000002               0111575     09101400000000200000000000012N290914120000000000000670000000000000000000000000000000000000000000000262232889000190Banco Daycoval S/A                      Avenida Paulista ,1793-02º Andar                    01311200                                                            000006
1                   000902692011248461-11576                  0000000000000011576500000000002               0111576     09101400000000200000000000012N290914120000000000000670000000000000000000000000000000000000000000000262232889000190Banco Daycoval S/A                      Avenida Paulista ,1793-02º Andar                    01311200                                                            000007
1                   000902692011248461-11577                  0000000000000011577300000000002               0111577     10101400000000180000000000012N300914120000000000000600000000000000000000000000000000000000000000000210377191000169ACM ASSESSORIA CONTABIL LTDA            Avenida Capitão Mário Toledo de Camargo,            09170150                                                            000008
1                   000902692011248461-11578                  0000000000000011578100000000002               0111578     10101400000000240000000000012N300914120000000000000800000000000000000000000000000000000000000000000260746948224061237 Banco Bradesco S.A.                 Rua Borba Gato,59-Lj 317/318                        04747030                                                            000009
1                   000902692011248461-11579                  0000000000000011579P00000000002               0111579     10101400000000223000000000012N300914120000000000000740000000000000000000000000000000000000000000000216587135000135SBA Torres Brasil, Limitada             Avenida das Nações Unidas,11.857-7º Anda            04795100                                                            000010
1                   000902692011248461-11580                  0000000000000011580300000000002               0111580     08091400000000512060000000012N300914000000000000001710000000000000000000000000000000000000000000000111029315000188SUZAN CART CERTIDOES LTDA - ME          Rua Gal. Francisco Glicério,1185                    08674003Protesto após 5 dias                                        000011
1                   000902692011248461-11581                  0000000000000011581100000000002               0111581     08091400000001034500000000012N300914000000000000003450000000000000000000000000000000000000000000000111163439000151RF-SERVICOS DE DOCUMENTACAO LTDA.       Av. Mal. Castelo Branco,173-A                       65076090Protesto após 5 dias                                        000012
1                   000902692011248461-11582                  0000000000000011582P00000000002               0111582     08091400000001800000000000012N300914000000000000006000000000000000000000000000000000000000000000000110999668000148ASSESSORIA E CONSULTORIA DE DOCUMENTOS ER. Leopoldo Machado,242-Loja 02                     18035075Protesto após 5 dias                                        000013
1                   000902692011248461-11583                  0000000000000011583800000000002               0111583     08091400000001300000000000012N300914000000000000004330000000000000000000000000000000000000000000000111165549000152D´ VASQUEZ SERVIÇOS CARTORARIOS LTDA - EAv. Dr. João Guilhermino,293                        12210131Protesto após 5 dias                                        000014
1                   000902692011248461-11584                  0000000000000011584600000000002               0111584     08091400000001000000000000012N300914000000000000003330000000000000000000000000000000000000000000000114816778000188Oliveira Intermediação Cartorária LTDA MRua Delfino Cintra,500 AxB                          13020100Protesto após 5 dias                                        000015
1                   000902692011248461-11585                  0000000000000011585400000000002               0111585     08091400000000500000000000012N300914000000000000001670000000000000000000000000000000000000000000000111253279000131ÁGAPE SERVIÇOS E INTERMEDIAÇÕES CARTORÁRR. Gov. Pedro de Toledo,569                         13400070Protesto após 5 dias                                        000016
1                   000902692011248461-11586                  0000000000000011586200000000002               0111586     08091400000001000000000000012N300914000000000000003330000000000000000000000000000000000000000000000106058057000128CTPOST SERVIÇOS LTDA ME                 R. Chaves Barcelos,131                              90030120Protesto após 5 dias                                        000017
1                   000902692011248461-11587                  0000000000000011587000000000002               0111587     08091400000000255500000000012N300914000000000000000850000000000000000000000000000000000000000000000113238744000190ARCHANJO TEIXEIRA PREPARAÇÃO DE DOCUMENTAv. Brasil,1586-Loja 06                             30140003Protesto após 5 dias                                        000018
1                   000902692011248461-11588                  0000000000000011588900000000002               0111588     08091400000000008800000000012N300914000000000000000030000000000000000000000000000000000000000000000111564744000155SARAIVA´S CONSULTORIA EMPRESARIAL LTDA  Rua Prefeito José Santana Trigueiro,183             32604188Protesto após 5 dias                                        000019
1                   000902692011248461-11589                  0000000000000011589700000000002               0111589     08091400000000500000000000012N300914000000000000001670000000000000000000000000000000000000000000000111479061000108ANDRADE SOARES LOPES LTDA               Rua Lehar David,05                                  45000445Protesto após 5 dias                                        000020
1                   000902692011248461-11590                  0000000000000011590000000000002               0111590     08091400000000032750000000012N300914000000000000000110000000000000000000000000000000000000000000000111777632000182CFN ASSESSORIA EM DOCUMENTOS LTDA       R Prefeito Carlos José Carlson,226-CJ 01            09450000Protesto após 5 dias                                        000021
1                   000902692011248461-11591                  0000000000000011591900000000002               0111591     08091400000000500000000000012N300914000000000000001670000000000000000000000000000000000000000000000111222886000134ELIDA ASSESSORIA EMPRESARIAL LTDA       R. Neo Alves Martins,2955-Sala 03                   87013060Protesto após 5 dias                                        000022
1                   000902692011248461-11592                  0000000000000011592700000000002               0111592     08091400000001328570000000012N300914000000000000004430000000000000000000000000000000000000000000000111834699000101REGIS ORLANDINI ASSESSORIA CARTORARIA LTAv. João Naves de Ávila,81                          38400600Protesto após 5 dias                                        000023
1                   000902692011248461-11593                  0000000000000011593500000000002               0111593     08091400000000500000000000012N300914000000000000001670000000000000000000000000000000000000000000000119762311000116J. LOPES - ME                           Rua Afonso Pena,5-47                                17060250Protesto após 5 dias                                        000024
1                   000902692011248461-11594                  0000000000000011594300000000002               0111594     08091400000000177290000000012N300914000000000000000590000000000000000000000000000000000000000000000118433773000127MUZETI ASSESSORIA CARTORARIA LTDA ME    Rua 20,1022                                         14780070Protesto após 5 dias                                        000025
1                   000902692011248461-11595                  0000000000000011595100000000002               0111595     08091400000000500000000000012N300914000000000000001670000000000000000000000000000000000000000000000119450025000115SAITO & SAITO ASSESSORIA E SERVIÇOS LTDAAv. Francisco de Paula Leite,1699                   13344325Protesto após 5 dias                                        000026
1                   000902692011248461-11596                  0000000000000011596P00000000002               0111596     08091400000000019910000000012N300914000000000000000070000000000000000000000000000000000000000000000112462165000164Viviane Aparecida Henriques - EPP       Rua Rui Barbosa,164                                 19010260Protesto após 5 dias                                        000027
1                   000902692011248461-11597                  0000000000000011597800000000002               0111597     08091400000000500000000000012N300914000000000000001670000000000000000000000000000000000000000000000112443155000181ASSESSORIA E CONSULTORIA CARTORARIA DE DRua Santa Cruz,652                                  13300090Protesto após 5 dias                                        000028
1                   000902692011248461-11598                  0000000000000011598600000000002               0111598     08091400000000500000000000012N300914000000000000001670000000000000000000000000000000000000000000000112632803000148RUBIANA SERVIÇOS DE CARTORIO, CERTIDÕES Rua das Esmeraldas,186                              09920520Protesto após 5 dias                                        000029
1                   000902692011248461-11599                  0000000000000011599400000000002               0111599     08091400000000512060000000012N300914000000000000001710000000000000000000000000000000000000000000000111029315000188SUZAN CART CERTIDOES LTDA - ME          Rua Gal. Francisco Glicério,1185                    08674003Protesto após 5 dias                                        000030
1                   000902692011248461-11600                  0000000000000011600100000000002               0111600     08091400000001034500000000012N300914000000000000003450000000000000000000000000000000000000000000000111163439000151RF-SERVICOS DE DOCUMENTACAO LTDA.       Av. Mal. Castelo Branco,173-A                       65076090Protesto após 5 dias                                        000031
1                   000902692011248461-11601                  0000000000000011601P00000000002               0111601     08091400000001800000000000012N300914000000000000006000000000000000000000000000000000000000000000000110999668000148ASSESSORIA E CONSULTORIA DE DOCUMENTOS ER. Leopoldo Machado,242-Loja 02                     18035075Protesto após 5 dias                                        000032
1                   000902692011248461-11602                  0000000000000011602800000000002               0111602     08091400000001300000000000012N300914000000000000004330000000000000000000000000000000000000000000000111165549000152D´ VASQUEZ SERVIÇOS CARTORARIOS LTDA - EAv. Dr. João Guilhermino,293                        12210131Protesto após 5 dias                                        000033
1                   000902692011248461-11603                  0000000000000011603600000000002               0111603     08091400000001000000000000012N300914000000000000003330000000000000000000000000000000000000000000000114816778000188Oliveira Intermediação Cartorária LTDA MRua Delfino Cintra,500 AxB                          13020100Protesto após 5 dias                                        000034
1                   000902692011248461-11604                  0000000000000011604400000000002               0111604     08091400000000500000000000012N300914000000000000001670000000000000000000000000000000000000000000000111253279000131ÁGAPE SERVIÇOS E INTERMEDIAÇÕES CARTORÁRR. Gov. Pedro de Toledo,569                         13400070Protesto após 5 dias                                        000035
1                   000902692011248461-11605                  0000000000000011605200000000002               0111605     08091400000001000000000000012N300914000000000000003330000000000000000000000000000000000000000000000106058057000128CTPOST SERVIÇOS LTDA ME                 R. Chaves Barcelos,131                              90030120Protesto após 5 dias                                        000036
1                   000902692011248461-11606                  0000000000000011606000000000002               0111606     08091400000000255500000000012N300914000000000000000850000000000000000000000000000000000000000000000113238744000190ARCHANJO TEIXEIRA PREPARAÇÃO DE DOCUMENTAv. Brasil,1586-Loja 06                             30140003Protesto após 5 dias                                        000037
1                   000902692011248461-11607                  0000000000000011607900000000002               0111607     08091400000000500000000000012N300914000000000000001670000000000000000000000000000000000000000000000102248702000114MOURA E MENEZES SERVIÇOS ADMINISTRATIVOSRua Dr. Curvelo Cavalcante,189-Loja 101             23810201Protesto após 5 dias                                        000038
1                   000902692011248461-11608                  0000000000000011608700000000002               0111608     08091400000000500000000000012N300914000000000000001670000000000000000000000000000000000000000000000111619454000161ASSESSORIA CARTORÁRIA DO NORDESTE LTDA  Rua Antônio de Castro,114-LJ 05                     52070080Protesto após 5 dias                                        000039
1                   000902692011248461-11609                  0000000000000011609500000000002               0111609     08091400000000500000000000012N300914000000000000001670000000000000000000000000000000000000000000000112572498000146Alphacentral Documentos e Serviços LTDA Rua Cel. Siqueira de Moraes,125/127                 13201032Protesto após 5 dias                                        000040
1                   000902692011248461-11610                  0000000000000011610900000000002               0111610     08091400000000008800000000012N300914000000000000000030000000000000000000000000000000000000000000000111564744000155SARAIVA´S CONSULTORIA EMPRESARIAL LTDA  Rua Prefeito José Santana Trigueiro,183             32604188Protesto após 5 dias                                        000041
1                   000902692011248461-11611                  0000000000000011611700000000002               0111611     08091400000000500000000000012N300914000000000000001670000000000000000000000000000000000000000000000112837049000182TOWER NITEROI SERVIÇOS DE CARTÓRIO E CERRua Visconde de Sepetiba,935-SL 625                 24020206Protesto após 5 dias                                        000042
1                   000902692011248461-11612                  0000000000000011612500000000002               0111612     08091400000000090940000000012N300914000000000000000300000000000000000000000000000000000000000000000112139078000170RW MARIZ ESTRUTURA CARTORAL LTDA        Av Epitácio Pessoa,475-Sala 05                      58030906Protesto após 5 dias                                        000043
1                   000902692011248461-11613                  0000000000000011613300000000002               0111613     08091400000000500000000000012N300914000000000000001670000000000000000000000000000000000000000000000111479061000108ANDRADE SOARES LOPES LTDA               Rua Lehar David,05                                  45000445Protesto após 5 dias                                        000044
1                   000902692011248461-11614                  0000000000000011614100000000002               0111614     08091400000000900000000000012N300914000000000000003000000000000000000000000000000000000000000000000113133167000172G I CART SERVIÇOS ORGANIZACIONAIS LTDA  Rua dos Marianos,132                                06016050Protesto após 5 dias                                        000045
1                   000902692011248461-11615                  0000000000000011615P00000000002               0111615     08091400000000032750000000012N300914000000000000000110000000000000000000000000000000000000000000000111777632000182CFN ASSESSORIA EM DOCUMENTOS LTDA       R Prefeito Carlos José Carlson,226-CJ 01            09450000Protesto após 5 dias                                        000046
1                   000902692011248461-11616                  0000000000000011616800000000002               0111616     08091400000000006000000000012N300914000000000000000020000000000000000000000000000000000000000000000113287999000143ASSESSORIA CARTORÁRIA PÁDUA LTDA        Rua Tiradentes,112-SL 201                           28300000Protesto após 5 dias                                        000047
1                   000902692011248461-11617                  0000000000000011617600000000002               0111617     08091400000000500000000000012N300914000000000000001670000000000000000000000000000000000000000000000111222886000134ELIDA ASSESSORIA EMPRESARIAL LTDA       R. Neo Alves Martins,2955-Sala 03                   87013060Protesto após 5 dias                                        000048
1                   000902692011248461-11618                  0000000000000011618400000000002               0111618     08091400000000350000000000012N300914000000000000001170000000000000000000000000000000000000000000000115369569000104FERRAGUT E MUZEL SERVIÇOS ADMINISTRATIVORua Barão de Mauá,1152-Piso Superior, SL            13276080Protesto após 5 dias                                        000049
1                   000902692011248461-11619                  0000000000000011619200000000002               0111619     08091400000001328570000000012N300914000000000000004430000000000000000000000000000000000000000000000111834699000101REGIS ORLANDINI ASSESSORIA CARTORARIA LTAv. João Naves de Ávila,81                          38400600Protesto após 5 dias                                        000050
1                   000902692011248461-11620                  0000000000000011620600000000002               0111620     08091400000000046350000000012N300914000000000000000150000000000000000000000000000000000000000000000113913099000164ERM Serviços Administrativos LTDA       Rua 7 de Setembro,1315                              89010203Protesto após 5 dias                                        000051
1                   000902692011248461-11621                  0000000000000011621400000000002               0111621     08091400000000500000000000012N300914000000000000001670000000000000000000000000000000000000000000000119762311000116J. LOPES - ME                           Rua Afonso Pena,5-47                                17060250Protesto após 5 dias                                        000052
1                   000902692011248461-11622                  0000000000000011622200000000002               0111622     08091400000000054650000000012N300914000000000000000180000000000000000000000000000000000000000000000113321680000197Ana Claudia Barbiere Alves Ferreira - MEAv. Brasil,326                                      14801050Protesto após 5 dias                                        000053
1                   000902692011248461-11623                  0000000000000011623000000000002               0111623     08091400000000029090000000012N300914000000000000000100000000000000000000000000000000000000000000000117655488000198KAEL INTERMEDIAÇÕES CARTORÁRIAS LTDA ME Av. Monte Castelo,720                               13450032Protesto após 5 dias                                        000054
1                   000902692011248461-11624                  0000000000000011624900000000002               0111624     08091400000000177290000000012N300914000000000000000590000000000000000000000000000000000000000000000118433773000127MUZETI ASSESSORIA CARTORARIA LTDA ME    Rua 20,1022                                         14780070Protesto após 5 dias                                        000055
1                   000902692011248461-11625                  0000000000000011625700000000002               0111625     08091400000000026500000000012N300914000000000000000090000000000000000000000000000000000000000000000113350598000190CP SERVIÇOS ADMINISTRATIVO LTDA - ME    Rua Arnaldo Estevão de Figueiredo,640               78700150Protesto após 5 dias                                        000056
1                   000902692011248461-11626                  0000000000000011626500000000002               0111626     08091400000000500000000000012N300914000000000000001670000000000000000000000000000000000000000000000119450025000115SAITO & SAITO ASSESSORIA E SERVIÇOS LTDAAv. Francisco de Paula Leite,1699                   13344325Protesto após 5 dias                                        000057
1                   000902692011248461-11627                  0000000000000011627300000000002               0111627     08091400000000024500000000012N300914000000000000000080000000000000000000000000000000000000000000000113585685000127ASSESSORIA CARTORÁRIA LIMEIRA LTDA ME   Rua Deputado Octavio Lopes,304 B                    13480021Protesto após 5 dias                                        000058
1                   000902692011248461-11628                  0000000000000011628100000000002               0111628     08091400000000019910000000012N300914000000000000000070000000000000000000000000000000000000000000000112462165000164Viviane Aparecida Henriques - EPP       Rua Rui Barbosa,164                                 19010260Protesto após 5 dias                                        000059
1                   000902692011248461-11629                  0000000000000011629P00000000002               0111629     08091400000000901790000000012N300914000000000000003010000000000000000000000000000000000000000000000113406670000154RODRIGUES E VIEIRA LTDA.                104 SUL RUA SE 05 LOTE 23 | AC JK CAIXA             77006970Protesto após 5 dias                                        000060
1                   000902692011248461-11630                  0000000000000011630300000000002               0111630     08091400000000500000000000012N300914000000000000001670000000000000000000000000000000000000000000000112443155000181ASSESSORIA E CONSULTORIA CARTORARIA DE DRua Santa Cruz,652                                  13300090Protesto após 5 dias                                        000061
1                   000902692011248461-11631                  0000000000000011631100000000002               0111631     08091400000000500000000000012N300914000000000000001670000000000000000000000000000000000000000000000113743219000122Valentim e Silva Serviços               Praça Antônio Dias,584                              38700110Protesto após 5 dias                                        000062
1                   000902692011248461-11632                  0000000000000011632P00000000002               0111632     08091400000000500000000000012N300914000000000000001670000000000000000000000000000000000000000000000112632803000148RUBIANA SERVIÇOS DE CARTORIO, CERTIDÕES Rua das Esmeraldas,186                              09920520Protesto após 5 dias                                        000063
1                   000902692011248461-11633                  0000000000000011633800000000002               0111633     08091400000000004000000000012N300914000000000000000010000000000000000000000000000000000000000000000113433192000171CONSULT SERVICE ASSESSORIA CARTORÁRIA LTRua Episcopal,1714-Loja 02                          13560570Protesto após 5 dias                                        000064
1                   000902692011248461-11634                  0000000000000011634600000000002               0111634     08091400000000500000000000012N300914000000000000001670000000000000000000000000000000000000000000000102248702000114MOURA E MENEZES SERVIÇOS ADMINISTRATIVOSRua Dr. Curvelo Cavalcante,189-Loja 101             23810201Protesto após 5 dias                                        000065
1                   000902692011248461-11635                  0000000000000011635400000000002               0111635     08091400000000013500000000012N300914000000000000000050000000000000000000000000000000000000000000000113576355000175LEME ASSESSORIA E CONSULTORIA DE DOCUMENRua Prudente de Moraes,933                          13320160Protesto após 5 dias                                        000066
1                   000902692011248461-11636                  0000000000000011636200000000002               0111636     08091400000000500000000000012N300914000000000000001670000000000000000000000000000000000000000000000111619454000161ASSESSORIA CARTORÁRIA DO NORDESTE LTDA  Rua Antônio de Castro,114-LJ 05                     52070080Protesto após 5 dias                                        000067
1                   000902692011248461-11637                  0000000000000011637000000000002               0111637     08091400000000500000000000012N300914000000000000001670000000000000000000000000000000000000000000000112572498000146Alphacentral Documentos e Serviços LTDA Rua Cel. Siqueira de Moraes,125/127                 13201032Protesto após 5 dias                                        000068
1                   000902692011248461-11638                  0000000000000011638900000000002               0111638     08091400000000500000000000012N300914000000000000001670000000000000000000000000000000000000000000000113845551000106MACEDO & MELO INTERMEDIACOES CARTORARIASRUA LIZANDRO NOGUEIRA,1223-SALA 304                 64000200Protesto após 5 dias                                        000069
1                   000902692011248461-11639                  0000000000000011639700000000002               0111639     08091400000000500000000000012N300914000000000000001670000000000000000000000000000000000000000000000112837049000182TOWER NITEROI SERVIÇOS DE CARTÓRIO E CERRua Visconde de Sepetiba,935-SL 625                 24020206Protesto após 5 dias                                        000070
1                   000902692011248461-11640                  0000000000000011640000000000002               0111640     08091400000000090940000000012N300914000000000000000300000000000000000000000000000000000000000000000112139078000170RW MARIZ ESTRUTURA CARTORAL LTDA        Av Epitácio Pessoa,475-Sala 05                      58030906Protesto após 5 dias                                        000071
1                   000902692011248461-11641                  0000000000000011641900000000002               0111641     08091400000000500000000000012N300914000000000000001670000000000000000000000000000000000000000000000114142222000153Araujo Oliveira Assessoria Cartoraria LTAv. Radial B,60-LJ 02                               42807380Protesto após 5 dias                                        000072
1                   000902692011248461-11642                  0000000000000011642700000000002               0111642     08091400000000900000000000012N300914000000000000003000000000000000000000000000000000000000000000000113133167000172G I CART SERVIÇOS ORGANIZACIONAIS LTDA  Rua dos Marianos,132                                06016050Protesto após 5 dias                                        000073
1                   000902692011248461-11643                  0000000000000011643500000000002               0111643     08091400000000006000000000012N300914000000000000000020000000000000000000000000000000000000000000000113287999000143ASSESSORIA CARTORÁRIA PÁDUA LTDA        Rua Tiradentes,112-SL 201                           28300000Protesto após 5 dias                                        000074
1                   000902692011248461-11644                  0000000000000011644300000000002               0111644     08091400000000350000000000012N300914000000000000001170000000000000000000000000000000000000000000000115369569000104FERRAGUT E MUZEL SERVIÇOS ADMINISTRATIVORua Barão de Mauá,1152-Piso Superior, SL            13276080Protesto após 5 dias                                        000075
1                   000902692011248461-11645                  0000000000000011645100000000002               0111645     08091400000000350000000000012N300914000000000000001170000000000000000000000000000000000000000000000114456232000163ALVES & UEMURA ASSESSORIA COMERCIAL E INRua Juscelino K. de Oliveira,763                    37580000Protesto após 5 dias                                        000076
1                   000902692011248461-11646                  0000000000000011646P00000000002               0111646     08091400000000046350000000012N300914000000000000000150000000000000000000000000000000000000000000000113913099000164ERM Serviços Administrativos LTDA       Rua 7 de Setembro,1315                              89010203Protesto após 5 dias                                        000077
1                   000902692011248461-11647                  0000000000000011647800000000002               0111647     08091400000000500000000000012N300914000000000000001670000000000000000000000000000000000000000000000115779004000197BONESSO & GIANETTI LTDA ME              Rua Nove de Julho,430-Lj 03 - Galeria de            13280000Protesto após 5 dias                                        000078
1                   000902692011248461-11648                  0000000000000011648600000000002               0111648     08091400000000054650000000012N300914000000000000000180000000000000000000000000000000000000000000000113321680000197Ana Claudia Barbiere Alves Ferreira - MEAv. Brasil,326                                      14801050Protesto após 5 dias                                        000079
1                   000902692011248461-11649                  0000000000000011649400000000002               0111649     08091400000000500000000000012N300914000000000000001670000000000000000000000000000000000000000000000111834699000292REGIS ORLANDINI ASSESSORIA CARTORÁRIA EPPraça Manoel Bonito,65                              38440076Protesto após 5 dias                                        000080
1                   000902692011248461-11650                  0000000000000011650800000000002               0111650     08091400000000029090000000012N300914000000000000000100000000000000000000000000000000000000000000000117655488000198KAEL INTERMEDIAÇÕES CARTORÁRIAS LTDA ME Av. Monte Castelo,720                               13450032Protesto após 5 dias                                        000081
1                   000902692011248461-11651                  0000000000000011651600000000002               0111651     08091400000000500000000000012N300914000000000000001670000000000000000000000000000000000000000000000115003436000101Via Rápida Intermediação Cartorária LTDARua Vereador Juca Pena,10                           36400000Protesto após 5 dias                                        000082
1                   000902692011248461-11652                  0000000000000011652400000000002               0111652     08091400000000026500000000012N300914000000000000000090000000000000000000000000000000000000000000000113350598000190CP SERVIÇOS ADMINISTRATIVO LTDA - ME    Rua Arnaldo Estevão de Figueiredo,640               78700150Protesto após 5 dias                                        000083
1                   000902692011248461-11653                  0000000000000011653200000000002               0111653     08091400000000500000000000012N300914000000000000001670000000000000000000000000000000000000000000000114467333000130Sirley Santos Niemic - ME               Av. Municipal,1779 A                                78250000Protesto após 5 dias                                        000084
1                   000902692011248461-11654                  0000000000000011654000000000002               0111654     08091400000000024500000000012N300914000000000000000080000000000000000000000000000000000000000000000113585685000127ASSESSORIA CARTORÁRIA LIMEIRA LTDA ME   Rua Deputado Octavio Lopes,304 B                    13480021Protesto após 5 dias                                        000085
1                   000902692011248461-11655                  0000000000000011655900000000002               0111655     08091400000000500000000000012N300914000000000000001670000000000000000000000000000000000000000000000114567761000134ABEN INTERMEDIACAO CARTORARIA LTDA ME   Av. Leopoldino de Oliveira,4464-Ed. Diam            38060000Protesto após 5 dias                                        000086
1                   000902692011248461-11656                  0000000000000011656700000000002               0111656     08091400000000901790000000012N300914000000000000003010000000000000000000000000000000000000000000000113406670000154RODRIGUES E VIEIRA LTDA.                104 SUL RUA SE 05 LOTE 23 | AC JK CAIXA             77006970Protesto após 5 dias                                        000087
1                   000902692011248461-11657                  0000000000000011657500000000002               0111657     08091400000000500000000000012N300914000000000000001670000000000000000000000000000000000000000000000113743219000122Valentim e Silva Serviços               Praça Antônio Dias,584                              38700110Protesto após 5 dias                                        000088
1                   000902692011248461-11658                  0000000000000011658300000000002               0111658     08091400000000004000000000012N300914000000000000000010000000000000000000000000000000000000000000000113433192000171CONSULT SERVICE ASSESSORIA CARTORÁRIA LTRua Episcopal,1714-Loja 02                          13560570Protesto após 5 dias                                        000089
1                   000902692011248461-11659                  0000000000000011659100000000002               0111659     08091400000000013500000000012N300914000000000000000050000000000000000000000000000000000000000000000113576355000175LEME ASSESSORIA E CONSULTORIA DE DOCUMENRua Prudente de Moraes,933                          13320160Protesto após 5 dias                                        000090
1                   000902692011248461-11660                  0000000000000011660500000000002               0111660     08091400000000500000000000012N300914000000000000001670000000000000000000000000000000000000000000000113845551000106MACEDO & MELO INTERMEDIACOES CARTORARIASRUA LIZANDRO NOGUEIRA,1223-SALA 304                 64000200Protesto após 5 dias                                        000091
1                   000902692011248461-11661                  0000000000000011661300000000002               0111661     08091400000000500000000000012N300914000000000000001670000000000000000000000000000000000000000000000114142222000153Araujo Oliveira Assessoria Cartoraria LTAv. Radial B,60-LJ 02                               42807380Protesto após 5 dias                                        000092
1                   000902692011248461-11662                  0000000000000011662100000000002               0111662     08091400000000350000000000012N300914000000000000001170000000000000000000000000000000000000000000000114456232000163ALVES & UEMURA ASSESSORIA COMERCIAL E INRua Juscelino K. de Oliveira,763                    37580000Protesto após 5 dias                                        000093
1                   000902692011248461-11663                  0000000000000011663P00000000002               0111663     08091400000000500000000000012N300914000000000000001670000000000000000000000000000000000000000000000115779004000197BONESSO & GIANETTI LTDA ME              Rua Nove de Julho,430-Lj 03 - Galeria de            13280000Protesto após 5 dias                                        000094
1                   000902692011248461-11664                  0000000000000011664800000000002               0111664     08091400000000500000000000012N300914000000000000001670000000000000000000000000000000000000000000000111834699000292REGIS ORLANDINI ASSESSORIA CARTORÁRIA EPPraça Manoel Bonito,65                              38440076Protesto após 5 dias                                        000095
1                   000902692011248461-11665                  0000000000000011665600000000002               0111665     08091400000000500000000000012N300914000000000000001670000000000000000000000000000000000000000000000115003436000101Via Rápida Intermediação Cartorária LTDARua Vereador Juca Pena,10                           36400000Protesto após 5 dias                                        000096
1                   000902692011248461-11666                  0000000000000011666400000000002               0111666     08091400000000500000000000012N300914000000000000001670000000000000000000000000000000000000000000000114467333000130Sirley Santos Niemic - ME               Av. Municipal,1779 A                                78250000Protesto após 5 dias                                        000097
1                   000902692011248461-11667                  0000000000000011667200000000002               0111667     08091400000000500000000000012N300914000000000000001670000000000000000000000000000000000000000000000114567761000134ABEN INTERMEDIACAO CARTORARIA LTDA ME   Av. Leopoldino de Oliveira,4464-Ed. Diam            38060000Protesto após 5 dias                                        000098
1                   000902692011248461-11668                  0000000000000011668000000000002               0111668     08091400000000500000000000012N300914000000000000001670000000000000000000000000000000000000000000000114547088000170SPEED FOX ASSESSORIA CARTORARIA LTDA ME Rua General Dionisio,410-LOJA                       25075095Protesto após 5 dias                                        000099
1                   000902692011248461-11669                  0000000000000011669900000000002               0111669     08091400000000500000000000012N300914000000000000001670000000000000000000000000000000000000000000000114547088000170SPEED FOX ASSESSORIA CARTORARIA LTDA ME Rua General Dionisio,410-LOJA                       25075095Protesto após 5 dias                                        000100
1                   000902692011248461-11670                  0000000000000011670200000000002               0111670     08091400000000005500000000012N300914000000000000000020000000000000000000000000000000000000000000000114911193000147LOPES&LOPES INTERMEDIAÇÃO CARTORÁRIA LTDRua Marechal Deodoro,444-loja 322                   36010904Protesto após 5 dias                                        000101
1                   000902692011248461-11671                  0000000000000011671000000000002               0111671     08091400000000005500000000012N300914000000000000000020000000000000000000000000000000000000000000000114911193000147LOPES&LOPES INTERMEDIAÇÃO CARTORÁRIA LTDRua Marechal Deodoro,444-loja 322                   36010904Protesto após 5 dias                                        000102
1                   000902692011248461-11672                  0000000000000011672900000000002               0111672     08091400000000400000000000012N300914000000000000001330000000000000000000000000000000000000000000000115220454000226RENAULT ASSOCIADOS INTERMEDIACOES CARTORRua Benedito Valadares,520-LJ 03                    35660630Protesto após 5 dias                                        000103
1                   000902692011248461-11673                  0000000000000011673700000000002               0111673     08091400000000400000000000012N300914000000000000001330000000000000000000000000000000000000000000000115220454000226RENAULT ASSOCIADOS INTERMEDIACOES CARTORRua Benedito Valadares,520-LJ 03                    35660630Protesto após 5 dias                                        000104
1                   000902692011248461-11674                  0000000000000011674500000000002               0111674     08091400000000500000000000012N300914000000000000001670000000000000000000000000000000000000000000000120019555000192SERV MASTER SERVICOS E LOGISTICA LTDA –MRua Barão do Rio Branco,1089                        16200001Protesto após 5 dias                                        000105
1                   000902692011248461-11675                  0000000000000011675300000000002               0111675     08091400000000500000000000012N300914000000000000001670000000000000000000000000000000000000000000000120019555000192SERV MASTER SERVICOS E LOGISTICA LTDA –MRua Barão do Rio Branco,1089                        16200001Protesto após 5 dias                                        000106
1                   000902692011248461-11676                  0000000000000011676100000000002               0111676     08091400000001000000000000012N300914000000000000003330000000000000000000000000000000000000000000000115447264000165CAMPDOC INTERMEDIAÇÃO CARTORÁRIA LTDA – Av. Carlos de Araújo Gobbi,325                      13034670Protesto após 5 dias                                        000107
1                   000902692011248461-11677                  0000000000000011677P00000000002               0111677     08091400000001000000000000012N300914000000000000003330000000000000000000000000000000000000000000000115447264000165CAMPDOC INTERMEDIAÇÃO CARTORÁRIA LTDA – Av. Carlos de Araújo Gobbi,325                      13034670Protesto após 5 dias                                        000108
1                   000902692011248461-11678                  0000000000000011678800000000002               0111678     08091400000001000000000000012N300914000000000000003330000000000000000000000000000000000000000000000115274886000139RJR SERVIÇOS ADMINISTRATIVOS            Rua Benedito Laboissiere,270                        38600000Protesto após 5 dias                                        000109
1                   000902692011248461-11679                  0000000000000011679600000000002               0111679     08091400000001000000000000012N300914000000000000003330000000000000000000000000000000000000000000000115274886000139RJR SERVIÇOS ADMINISTRATIVOS            Rua Benedito Laboissiere,270                        38600000Protesto após 5 dias                                        000110
1                   000902692011248461-11680                  0000000000000011680P00000000002               0111680     08091400000000025000000000012N300914000000000000000080000000000000000000000000000000000000000000000113372039000262DE PAULA E FRANÇA SERVIÇOS PRIVADOS E INRua Roberto Calmon,140                              29200340Protesto após 5 dias                                        000111
1                   000902692011248461-11681                  0000000000000011681800000000002               0111681     08091400000000025000000000012N300914000000000000000080000000000000000000000000000000000000000000000113372039000262DE PAULA E FRANÇA SERVIÇOS PRIVADOS E INRua Roberto Calmon,140                              29200340Protesto após 5 dias                                        000112
1                   000902692011248461-11682                  0000000000000011682600000000002               0111682     08091400000000500000000000012N300914000000000000001670000000000000000000000000000000000000000000000115328775000168Bagini e Okumura Intermediações CartorárRua Laurindo Borges,1494                            87303240Protesto após 5 dias                                        000113
1                   000902692011248461-11683                  0000000000000011683400000000002               0111683     08091400000000500000000000012N300914000000000000001670000000000000000000000000000000000000000000000115328775000168Bagini e Okumura Intermediações CartorárRua Laurindo Borges,1494                            87303240Protesto após 5 dias                                        000114
1                   000902692011248461-11684                  0000000000000011684200000000002               0111684     08091400000000500000000000012N300914000000000000001670000000000000000000000000000000000000000000000115776815000134RCA - PREST CART INTERMEDIAÇÃO CARTORARIRua João Caetano,185-LJ 103                         24710405Protesto após 5 dias                                        000115
1                   000902692011248461-11685                  0000000000000011685000000000002               0111685     08091400000000500000000000012N300914000000000000001670000000000000000000000000000000000000000000000115776815000134RCA - PREST CART INTERMEDIAÇÃO CARTORARIRua João Caetano,185-LJ 103                         24710405Protesto após 5 dias                                        000116
1                   000902692011248461-11686                  0000000000000011686900000000002               0111686     08091400000000500000000000012N300914000000000000001670000000000000000000000000000000000000000000000115523647000175TGD ASSESSORIA E CONSULTORIA LTDA       Rua Coronel Antonio Cardoso Pinto,34 A              37640000Protesto após 5 dias                                        000117
1                   000902692011248461-11687                  0000000000000011687700000000002               0111687     08091400000000500000000000012N300914000000000000001670000000000000000000000000000000000000000000000115523647000175TGD ASSESSORIA E CONSULTORIA LTDA       Rua Coronel Antonio Cardoso Pinto,34 A              37640000Protesto após 5 dias                                        000118
1                   000902692011248461-11688                  0000000000000011688500000000002               0111688     08091400000000500000000000012N300914000000000000001670000000000000000000000000000000000000000000000116465255000160Tocantins Intermediação Cartorária LTDA-RUA RODOVIÁRIA,193-SALA 01                          77805040Protesto após 5 dias                                        000119
1                   000902692011248461-11689                  0000000000000011689300000000002               0111689     08091400000000500000000000012N300914000000000000001670000000000000000000000000000000000000000000000116465255000160Tocantins Intermediação Cartorária LTDA-RUA RODOVIÁRIA,193-SALA 01                          77805040Protesto após 5 dias                                        000120
1                   000902692011248461-11690                  0000000000000011690700000000002               0111690     08091400000000500000000000012N300914000000000000001670000000000000000000000000000000000000000000000115731322000188MEIRELES SERVIÇOS DE APOIO ADMINISTRATIVRua José Marcelino de Oliveira,374-BAIXO            67030170Protesto após 5 dias                                        000121
1                   000902692011248461-11691                  0000000000000011691500000000002               0111691     08091400000000500000000000012N300914000000000000001670000000000000000000000000000000000000000000000115731322000188MEIRELES SERVIÇOS DE APOIO ADMINISTRATIVRua José Marcelino de Oliveira,374-BAIXO            67030170Protesto após 5 dias                                        000122
1                   000902692011248461-11692                  0000000000000011692300000000002               0111692     08091400000001000000000000012N300914000000000000003330000000000000000000000000000000000000000000000115803475000193PEDRO, BASTOS & JONES SERVIÇOS ASMINISTRRua Duque de Caxias,01-SL 31                        28613060Protesto após 5 dias                                        000123
1                   000902692011248461-11693                  0000000000000011693100000000002               0111693     08091400000001000000000000012N300914000000000000003330000000000000000000000000000000000000000000000115803475000193PEDRO, BASTOS & JONES SERVIÇOS ASMINISTRRua Duque de Caxias,01-SL 31                        28613060Protesto após 5 dias                                        000124
1                   000902692011248461-11694                  0000000000000011694P00000000002               0111694     08091400000000500000000000012N300914000000000000001670000000000000000000000000000000000000000000000115872523000103HEITOR PIGHINI BARBADO ME               Rua Senador José Bonifácio,312-B                    13800060Protesto após 5 dias                                        000125
1                   000902692011248461-11695                  0000000000000011695800000000002               0111695     08091400000000500000000000012N300914000000000000001670000000000000000000000000000000000000000000000115872523000103HEITOR PIGHINI BARBADO ME               Rua Senador José Bonifácio,312-B                    13800060Protesto após 5 dias                                        000126
1                   000902692011248461-11696                  0000000000000011696600000000002               0111696     08091400000000500000000000012N300914000000000000001670000000000000000000000000000000000000000000000118997889000199CP CAMPO GRANDE INTERMEDIACOES CARTORARIRua Amaral Costa,408-LJ 01                          23050260Protesto após 5 dias                                        000127
1                   000902692011248461-11697                  0000000000000011697400000000002               0111697     08091400000000500000000000012N300914000000000000001670000000000000000000000000000000000000000000000118997889000199CP CAMPO GRANDE INTERMEDIACOES CARTORARIRua Amaral Costa,408-LJ 01                          23050260Protesto após 5 dias                                        000128
1                   000902692011248461-11698                  0000000000000011698200000000002               0111698     08091400000000500000000000012N300914000000000000001670000000000000000000000000000000000000000000000115566079000190Marins Consultoria e Intermediação CartoAvenida Brasil,4140-Sala 13                         87503420Protesto após 5 dias                                        000129
1                   000902692011248461-11699                  0000000000000011699000000000002               0111699     08091400000000500000000000012N300914000000000000001670000000000000000000000000000000000000000000000115566079000190Marins Consultoria e Intermediação CartoAvenida Brasil,4140-Sala 13                         87503420Protesto após 5 dias                                        000130
1                   000902692011248461-11700                  0000000000000011700800000000002               0111700     08091400000001000000000000012N300914000000000000003330000000000000000000000000000000000000000000000115703802000135Assecar Apoio Administrativo de MArilia Rua Carlos Gomes,343                                17501000Protesto após 5 dias                                        000131
1                   000902692011248461-11701                  0000000000000011701600000000002               0111701     08091400000001000000000000012N300914000000000000003330000000000000000000000000000000000000000000000115703802000135Assecar Apoio Administrativo de MArilia Rua Carlos Gomes,343                                17501000Protesto após 5 dias                                        000132
1                   000902692011248461-11702                  0000000000000011702400000000002               0111702     08091400000000500000000000012N300914000000000000001670000000000000000000000000000000000000000000000115723896000104Walter Shuji Kishi eireli-ME            Avenida Presidente Getúio Vargas,2214-Lo            45990289Protesto após 5 dias                                        000133
1                   000902692011248461-11703                  0000000000000011703200000000002               0111703     08091400000000500000000000012N300914000000000000001670000000000000000000000000000000000000000000000115723896000104Walter Shuji Kishi eireli-ME            Avenida Presidente Getúio Vargas,2214-Lo            45990289Protesto após 5 dias                                        000134
1                   000902692011248461-11704                  0000000000000011704000000000002               0111704     08091400000000500000000000012N300914000000000000001670000000000000000000000000000000000000000000000115665799000102OLIVEIRA E PEIXOTO LTDA                 Rua Barbosa de Sousa,25-SL 006 - Centro             45203640Protesto após 5 dias                                        000135
1                   000902692011248461-11705                  0000000000000011705900000000002               0111705     08091400000000500000000000012N300914000000000000001670000000000000000000000000000000000000000000000115665799000102OLIVEIRA E PEIXOTO LTDA                 Rua Barbosa de Sousa,25-SL 006 - Centro             45203640Protesto após 5 dias                                        000136
1                   000902692011248461-11706                  0000000000000011706700000000002               0111706     08091400000000500000000000012N300914000000000000001670000000000000000000000000000000000000000000000116911487000102L & A INTERMEDIAÇÕES CARTORÁRIAS LTDA   Rua Marechal Deodoro,111                            48005020Protesto após 5 dias                                        000137
1                   000902692011248461-11707                  0000000000000011707500000000002               0111707     08091400000000500000000000012N300914000000000000001670000000000000000000000000000000000000000000000116911487000102L & A INTERMEDIAÇÕES CARTORÁRIAS LTDA   Rua Marechal Deodoro,111                            48005020Protesto após 5 dias                                        000138
1                   000902692011248461-11708                  0000000000000011708300000000002               0111708     08091400000000500000000000012N300914000000000000001670000000000000000000000000000000000000000000000116615091000100MEG INTERMEDIAÇÃO CARTORÁRIA            Av. 13,625                                          13500340Protesto após 5 dias                                        000139
1                   000902692011248461-11709                  0000000000000011709100000000002               0111709     08091400000000500000000000012N300914000000000000001670000000000000000000000000000000000000000000000116615091000100MEG INTERMEDIAÇÃO CARTORÁRIA            Av. 13,625                                          13500340Protesto após 5 dias                                        000140
1                   000902692011248461-11710                  0000000000000011710500000000002               0111710     08091400000000200000000000012N300914000000000000000670000000000000000000000000000000000000000000000115696350000101Almeida Intermediação cartorária LTDA MERua José Brenha Ribeiro,23                          18130495Protesto após 5 dias                                        000141
1                   000902692011248461-11711                  0000000000000011711300000000002               0111711     08091400000000200000000000012N300914000000000000000670000000000000000000000000000000000000000000000115696350000101Almeida Intermediação cartorária LTDA MERua José Brenha Ribeiro,23                          18130495Protesto após 5 dias                                        000142
1                   000902692011248461-11712                  0000000000000011712100000000002               0111712     08091400000000500000000000012N300914000000000000001670000000000000000000000000000000000000000000000119373945000187MR Sistema de Intermediação Cartorária LRua 29 de Abril,123                                 13256000Protesto após 5 dias                                        000143
1                   000902692011248461-11713                  0000000000000011713P00000000002               0111713     08091400000000500000000000012N300914000000000000001670000000000000000000000000000000000000000000000119373945000187MR Sistema de Intermediação Cartorária LRua 29 de Abril,123                                 13256000Protesto após 5 dias                                        000144
1                   000902692011248461-11714                  0000000000000011714800000000002               0111714     08091400000000500000000000012N300914000000000000001670000000000000000000000000000000000000000000000115761167000142DOC SERVICE SERVIÇOS DOCUMENTAIS LTDA   Rua Marechal Floriano Peixoto,1562-Sala             85851020Protesto após 5 dias                                        000145
1                   000902692011248461-11715                  0000000000000011715600000000002               0111715     08091400000000500000000000012N300914000000000000001670000000000000000000000000000000000000000000000115761167000142DOC SERVICE SERVIÇOS DOCUMENTAIS LTDA   Rua Marechal Floriano Peixoto,1562-Sala             85851020Protesto após 5 dias                                        000146
1                   000902692011248461-11716                  0000000000000011716400000000002               0111716     08091400000000500000000000012N3009140000000000000016700000000000000000000000000000000000000000000001157926280001442 W V INTERMEDIAÇÃO CARTORÁRIA LTDA-ME  Rua Marechal Deodoro,44                             12500210Protesto após 5 dias                                        000147
1                   000902692011248461-11717                  0000000000000011717200000000002               0111717     08091400000000500000000000012N3009140000000000000016700000000000000000000000000000000000000000000001157926280001442 W V INTERMEDIAÇÃO CARTORÁRIA LTDA-ME  Rua Marechal Deodoro,44                             12500210Protesto após 5 dias                                        000148
1                   000902692011248461-11718                  0000000000000011718000000000002               0111718     08091400000000500000000000012N300914000000000000001670000000000000000000000000000000000000000000000115779486000185ANA LIDIA ANDRADE VASCONCELOS CISOTTO - Rua Mário Pedro Vercellino,411                      18550000Protesto após 5 dias                                        000149
1                   000902692011248461-11719                  0000000000000011719900000000002               0111719     08091400000000500000000000012N300914000000000000001670000000000000000000000000000000000000000000000115779486000185ANA LIDIA ANDRADE VASCONCELOS CISOTTO - Rua Mário Pedro Vercellino,411                      18550000Protesto após 5 dias                                        000150
1                   000902692011248461-11720                  0000000000000011720200000000002               0111720     08091400000001000000000000012N300914000000000000003330000000000000000000000000000000000000000000000116566686000112SOMARX INTERMEDIAÇÃO CARTORÁRIA LTDA    QN 07 - AREA ESPECIAL 1 TERREO LOJA,11-R            71805731Protesto após 5 dias                                        000151
1                   000902692011248461-11721                  0000000000000011721000000000002               0111721     08091400000001000000000000012N300914000000000000003330000000000000000000000000000000000000000000000116566686000112SOMARX INTERMEDIAÇÃO CARTORÁRIA LTDA    QN 07 - AREA ESPECIAL 1 TERREO LOJA,11-R            71805731Protesto após 5 dias                                        000152
1                   000902692011248461-11722                  0000000000000011722900000000002               0111722     08091400000001000000000000012N300914000000000000003330000000000000000000000000000000000000000000000116651907000150COTIA CENTRAL - SERVIÇOS ADMINISTRATIVOSRua Joaquim Nunes Filho,204                         06717180Protesto após 5 dias                                        000153
1                   000902692011248461-11723                  0000000000000011723700000000002               0111723     08091400000001000000000000012N300914000000000000003330000000000000000000000000000000000000000000000116651907000150COTIA CENTRAL - SERVIÇOS ADMINISTRATIVOSRua Joaquim Nunes Filho,204                         06717180Protesto após 5 dias                                        000154
1                   000902692011248461-11724                  0000000000000011724500000000002               0111724     08091400000000500000000000012N300914000000000000001670000000000000000000000000000000000000000000000116455215000137MIM Consultoria, Assessoria e IntermediaRua Gal. Bacelar,504                                96200370Protesto após 5 dias                                        000155
1                   000902692011248461-11725                  0000000000000011725300000000002               0111725     08091400000000500000000000012N300914000000000000001670000000000000000000000000000000000000000000000116455215000137MIM Consultoria, Assessoria e IntermediaRua Gal. Bacelar,504                                96200370Protesto após 5 dias                                        000156
1                   000902692011248461-11726                  0000000000000011726100000000002               0111726     08091400000000512060000000012N300914000000000000001710000000000000000000000000000000000000000000000111029315000188SUZAN CART CERTIDOES LTDA - ME          Rua Gal. Francisco Glicério,1185                    08674003Protesto após 5 dias                                        000157
1                   000902692011248461-11727                  0000000000000011727P00000000002               0111727     08091400000000500000000000012N300914000000000000001670000000000000000000000000000000000000000000000116850829000113FORMAGIO & MILARE LTDA ME               Rua Princesa Izabel,994                             17900000Protesto após 5 dias                                        000158
1                   000902692011248461-11728                  0000000000000011728800000000002               0111728     08091400000000500000000000012N300914000000000000001670000000000000000000000000000000000000000000000116850829000113FORMAGIO & MILARE LTDA ME               Rua Princesa Izabel,994                             17900000Protesto após 5 dias                                        000159
1                   000902692011248461-11729                  0000000000000011729600000000002               0111729     08091400000001034500000000012N300914000000000000003450000000000000000000000000000000000000000000000111163439000151RF-SERVICOS DE DOCUMENTACAO LTDA.       Av. Mal. Castelo Branco,173-A                       65076090Protesto após 5 dias                                        000160
1                   000902692011248461-11730                  0000000000000011730P00000000002               0111730     08091400000001000000000000012N300914000000000000003330000000000000000000000000000000000000000000000116988183000135MENEZES & AMARAL INTERMEDIAÇÃO CARTORÁRIRua Israel Pinheiro,2500-LJ 1                       35020220Protesto após 5 dias                                        000161
1                   000902692011248461-11731                  0000000000000011731800000000002               0111731     08091400000001000000000000012N300914000000000000003330000000000000000000000000000000000000000000000116988183000135MENEZES & AMARAL INTERMEDIAÇÃO CARTORÁRIRua Israel Pinheiro,2500-LJ 1                       35020220Protesto após 5 dias                                        000162
1                   000902692011248461-11732                  0000000000000011732600000000002               0111732     08091400000001800000000000012N300914000000000000006000000000000000000000000000000000000000000000000110999668000148ASSESSORIA E CONSULTORIA DE DOCUMENTOS ER. Leopoldo Machado,242-Loja 02                     18035075Protesto após 5 dias                                        000163
1                   000902692011248461-11733                  0000000000000011733400000000002               0111733     08091400000000500000000000012N300914000000000000001670000000000000000000000000000000000000000000000117163022000175DEFTHJ CONSULTORIA E ASSESSORIA CARTORÁRR. Pedro Procópio,48                                06501130Protesto após 5 dias                                        000164
1                   000902692011248461-11734                  0000000000000011734200000000002               0111734     08091400000000500000000000012N300914000000000000001670000000000000000000000000000000000000000000000117163022000175DEFTHJ CONSULTORIA E ASSESSORIA CARTORÁRR. Pedro Procópio,48                                06501130Protesto após 5 dias                                        000165
1                   000902692011248461-11735                  0000000000000011735000000000002               0111735     08091400000001300000000000012N300914000000000000004330000000000000000000000000000000000000000000000111165549000152D´ VASQUEZ SERVIÇOS CARTORARIOS LTDA - EAv. Dr. João Guilhermino,293                        12210131Protesto após 5 dias                                        000166
1                   000902692011248461-11736                  0000000000000011736900000000002               0111736     08091400000000500000000000012N300914000000000000001670000000000000000000000000000000000000000000000116943517000154SOUZA SERVIÇOS DE DOCUMENTOS S/S LTDA EPR. Coronel Aureliano de Camargo,666                 18270170Protesto após 5 dias                                        000167
1                   000902692011248461-11737                  0000000000000011737700000000002               0111737     08091400000000500000000000012N300914000000000000001670000000000000000000000000000000000000000000000116943517000154SOUZA SERVIÇOS DE DOCUMENTOS S/S LTDA EPR. Coronel Aureliano de Camargo,666                 18270170Protesto após 5 dias                                        000168
1                   000902692011248461-11738                  0000000000000011738500000000002               0111738     08091400000001000000000000012N300914000000000000003330000000000000000000000000000000000000000000000114816778000188Oliveira Intermediação Cartorária LTDA MRua Delfino Cintra,500 AxB                          13020100Protesto após 5 dias                                        000169
1                   000902692011248461-11739                  0000000000000011739300000000002               0111739     08091400000001000000000000012N300914000000000000003330000000000000000000000000000000000000000000000117206713000109FABIO TOMAZ CARDOSO - ME                Rua Primeiro de Maio,202-SL 507                     09015030Protesto após 5 dias                                        000170
1                   000902692011248461-11740                  0000000000000011740700000000002               0111740     08091400000001000000000000012N300914000000000000003330000000000000000000000000000000000000000000000117206713000109FABIO TOMAZ CARDOSO - ME                Rua Primeiro de Maio,202-SL 507                     09015030Protesto após 5 dias                                        000171
1                   000902692011248461-11741                  0000000000000011741500000000002               0111741     08091400000000500000000000012N300914000000000000001670000000000000000000000000000000000000000000000111253279000131ÁGAPE SERVIÇOS E INTERMEDIAÇÕES CARTORÁRR. Gov. Pedro de Toledo,569                         13400070Protesto após 5 dias                                        000172
1                   000902692011248461-11742                  0000000000000011742300000000002               0111742     08091400000000500000000000012N300914000000000000001670000000000000000000000000000000000000000000000111834699000373REGIS ORLANDINI ASSESSORIA CARTORÁRIA EPRua Dr. Frankilin de Castro,238                     38183120Protesto após 5 dias                                        000173
1                   000902692011248461-11743                  0000000000000011743100000000002               0111743     08091400000000500000000000012N300914000000000000001670000000000000000000000000000000000000000000000111834699000373REGIS ORLANDINI ASSESSORIA CARTORÁRIA EPRua Dr. Frankilin de Castro,238                     38183120Protesto após 5 dias                                        000174
1                   000902692011248461-11744                  0000000000000011744P00000000002               0111744     08091400000001000000000000012N300914000000000000003330000000000000000000000000000000000000000000000106058057000128CTPOST SERVIÇOS LTDA ME                 R. Chaves Barcelos,131                              90030120Protesto após 5 dias                                        000175
1                   000902692011248461-11745                  0000000000000011745800000000002               0111745     08091400000000500000000000012N300914000000000000001670000000000000000000000000000000000000000000000116899904000130E. F. AURELIA NEGOCIOS E INTERMEDIAÇÃO CRua Liberdade,596                                   06853700Protesto após 5 dias                                        000176
1                   000902692011248461-11746                  0000000000000011746600000000002               0111746     08091400000000500000000000012N300914000000000000001670000000000000000000000000000000000000000000000116899904000130E. F. AURELIA NEGOCIOS E INTERMEDIAÇÃO CRua Liberdade,596                                   06853700Protesto após 5 dias                                        000177
1                   000902692011248461-11747                  0000000000000011747400000000002               0111747     08091400000000255500000000012N300914000000000000000850000000000000000000000000000000000000000000000113238744000190ARCHANJO TEIXEIRA PREPARAÇÃO DE DOCUMENTAv. Brasil,1586-Loja 06                             30140003Protesto após 5 dias                                        000178
1                   000902692011248461-11748                  0000000000000011748200000000002               0111748     08091400000000500000000000012N300914000000000000001670000000000000000000000000000000000000000000000116949930000126CIRENO FILHO INTERMEDIAÇÃO CARTORARIA   Rua Carlos Eduardo Nichele,1382-LJ01                83833022Protesto após 5 dias                                        000179
1                   000902692011248461-11749                  0000000000000011749000000000002               0111749     08091400000000500000000000012N300914000000000000001670000000000000000000000000000000000000000000000116949930000126CIRENO FILHO INTERMEDIAÇÃO CARTORARIA   Rua Carlos Eduardo Nichele,1382-LJ01                83833022Protesto após 5 dias                                        000180
1                   000902692011248461-11750                  0000000000000011750400000000002               0111750     08091400000000350000000000012N300914000000000000001170000000000000000000000000000000000000000000000116811847000196TOLEDO & PEREIRA VASSALO LTDA ME        Rua Santos Pereira,212                              37500026Protesto após 5 dias                                        000181
1                   000902692011248461-11751                  0000000000000011751200000000002               0111751     08091400000000350000000000012N300914000000000000001170000000000000000000000000000000000000000000000116811847000196TOLEDO & PEREIRA VASSALO LTDA ME        Rua Santos Pereira,212                              37500026Protesto após 5 dias                                        000182
1                   000902692011248461-11752                  0000000000000011752000000000002               0111752     08091400000001000000000000012N300914000000000000003330000000000000000000000000000000000000000000000116819238000183CARLOS ALBERTO ROCHA DE MELO - ME       R. Hermógenes Freire da Costa,02-LJ 05              28940000Protesto após 5 dias                                        000183
1                   000902692011248461-11753                  0000000000000011753900000000002               0111753     08091400000001000000000000012N300914000000000000003330000000000000000000000000000000000000000000000116819238000183CARLOS ALBERTO ROCHA DE MELO - ME       R. Hermógenes Freire da Costa,02-LJ 05              28940000Protesto após 5 dias                                        000184
1                   000902692011248461-11754                  0000000000000011754700000000002               0111754     08091400000000500000000000012N300914000000000000001670000000000000000000000000000000000000000000000116945793000151JLM INTERMEDIAÇÃO CARTORÁRIA LTDA       Av. Tiradentes,618-LJ 03                            36307348Protesto após 5 dias                                        000185
1                   000902692011248461-11755                  0000000000000011755500000000002               0111755     08091400000000500000000000012N300914000000000000001670000000000000000000000000000000000000000000000116945793000151JLM INTERMEDIAÇÃO CARTORÁRIA LTDA       Av. Tiradentes,618-LJ 03                            36307348Protesto após 5 dias                                        000186
1                   000902692011248461-11756                  0000000000000011756300000000002               0111756     08091400000000008800000000012N300914000000000000000030000000000000000000000000000000000000000000000111564744000155SARAIVA´S CONSULTORIA EMPRESARIAL LTDA  Rua Prefeito José Santana Trigueiro,183             32604188Protesto após 5 dias                                        000187
1                   000902692011248461-11757                  0000000000000011757100000000002               0111757     08091400000001750000000000012N300914000000000000005830000000000000000000000000000000000000000000000116927836000176C. M. MILROT CONSULTORIA E INTERMEDIAÇÃOAl. Ribeirão Preto,551-SL 24                        01331001Protesto após 5 dias                                        000188
1                   000902692011248461-11758                  0000000000000011758P00000000002               0111758     08091400000001750000000000012N300914000000000000005830000000000000000000000000000000000000000000000116927836000176C. M. MILROT CONSULTORIA E INTERMEDIAÇÃOAl. Ribeirão Preto,551-SL 24                        01331001Protesto após 5 dias                                        000189
1                   000902692011248461-11759                  0000000000000011759800000000002               0111759     08091400000000500000000000012N300914000000000000001670000000000000000000000000000000000000000000000116935668000160FLASH DOC INTERMEDIAÇÕES CARTORARIAS    Av. Caetano Barrela,209                             06763460Protesto após 5 dias                                        000190
1                   000902692011248461-11760                  0000000000000011760100000000002               0111760     08091400000000500000000000012N300914000000000000001670000000000000000000000000000000000000000000000116935668000160FLASH DOC INTERMEDIAÇÕES CARTORARIAS    Av. Caetano Barrela,209                             06763460Protesto após 5 dias                                        000191
1                   000902692011248461-11761                  0000000000000011761P00000000002               0111761     08091400000000500000000000012N300914000000000000001670000000000000000000000000000000000000000000000111479061000108ANDRADE SOARES LOPES LTDA               Rua Lehar David,05                                  45000445Protesto após 5 dias                                        000192
1                   000902692011248461-11762                  0000000000000011762800000000002               0111762     08091400000000500000000000012N300914000000000000001670000000000000000000000000000000000000000000000116964316000133CAMARGO & ESTRACINE INTERMEDIAÇÃO CARTORRua Miguel Anselmo,260                              15900000Protesto após 5 dias                                        000193
1                   000902692011248461-11763                  0000000000000011763600000000002               0111763     08091400000000500000000000012N300914000000000000001670000000000000000000000000000000000000000000000116964316000133CAMARGO & ESTRACINE INTERMEDIAÇÃO CARTORRua Miguel Anselmo,260                              15900000Protesto após 5 dias                                        000194
1                   000902692011248461-11764                  0000000000000011764400000000002               0111764     08091400000000032750000000012N300914000000000000000110000000000000000000000000000000000000000000000111777632000182CFN ASSESSORIA EM DOCUMENTOS LTDA       R Prefeito Carlos José Carlson,226-CJ 01            09450000Protesto após 5 dias                                        000195
1                   000902692011248461-11765                  0000000000000011765200000000002               0111765     08091400000001750000000000012N300914000000000000005830000000000000000000000000000000000000000000000117829100000128JS & BOIM INTERMEDIAÇÃO CARTORÁRIA LTDA Rua Tabatinguera,140-SL 409 e 410                   01020000Protesto após 5 dias                                        000196
1                   000902692011248461-11766                  0000000000000011766000000000002               0111766     08091400000001750000000000012N300914000000000000005830000000000000000000000000000000000000000000000117829100000128JS & BOIM INTERMEDIAÇÃO CARTORÁRIA LTDA Rua Tabatinguera,140-SL 409 e 410                   01020000Protesto após 5 dias                                        000197
1                   000902692011248461-11767                  0000000000000011767900000000002               0111767     08091400000000500000000000012N300914000000000000001670000000000000000000000000000000000000000000000111222886000134ELIDA ASSESSORIA EMPRESARIAL LTDA       R. Neo Alves Martins,2955-Sala 03                   87013060Protesto após 5 dias                                        000198
1                   000902692011248461-11768                  0000000000000011768700000000002               0111768     08091400000001000000000000012N300914000000000000003330000000000000000000000000000000000000000000000112587280000165RTC INTERMEDIAÇÃO CARTORÁRIA LTDA - ME  Rua Montenegro,171 A                                11410040Protesto após 5 dias                                        000199
1                   000902692011248461-11769                  0000000000000011769500000000002               0111769     08091400000001000000000000012N300914000000000000003330000000000000000000000000000000000000000000000112587280000165RTC INTERMEDIAÇÃO CARTORÁRIA LTDA - ME  Rua Montenegro,171 A                                11410040Protesto após 5 dias                                        000200
1                   000902692011248461-11770                  0000000000000011770900000000002               0111770     08091400000000500000000000012N300914000000000000001670000000000000000000000000000000000000000000000116729531000150GOMES VERAS INTERMEDIAÇÃO CARTORÁRIA LTDRua Maranhão,763-Sala 17 R                          65901590Protesto após 5 dias                                        000201
1                   000902692011248461-11771                  0000000000000011771700000000002               0111771     08091400000001328570000000012N300914000000000000004430000000000000000000000000000000000000000000000111834699000101REGIS ORLANDINI ASSESSORIA CARTORARIA LTAv. João Naves de Ávila,81                          38400600Protesto após 5 dias                                        000202
1                   000902692011248461-11772                  0000000000000011772500000000002               0111772     08091400000000500000000000012N300914000000000000001670000000000000000000000000000000000000000000000116729531000150GOMES VERAS INTERMEDIAÇÃO CARTORÁRIA LTDRua Maranhão,763-Sala 17 R                          65901590Protesto após 5 dias                                        000203
1                   000902692011248461-11773                  0000000000000011773300000000002               0111773     08091400000001000000000000012N300914000000000000003330000000000000000000000000000000000000000000000116970183000108NR INTERMEDIAÇÃO CARTORÁRIA LTDA        Av. Dom Luis,500-Piso L0, Loja 38, Shopp            60160196Protesto após 5 dias                                        000204
1                   000902692011248461-11774                  0000000000000011774100000000002               0111774     08091400000001000000000000012N300914000000000000003330000000000000000000000000000000000000000000000116970183000108NR INTERMEDIAÇÃO CARTORÁRIA LTDA        Av. Dom Luis,500-Piso L0, Loja 38, Shopp            60160196Protesto após 5 dias                                        000205
1                   000902692011248461-11775                  0000000000000011775P00000000002               0111775     08091400000000500000000000012N300914000000000000001670000000000000000000000000000000000000000000000119762311000116J. LOPES - ME                           Rua Afonso Pena,5-47                                17060250Protesto após 5 dias                                        000206
1                   000902692011248461-11776                  0000000000000011776800000000002               0111776     08091400000000500000000000012N300914000000000000001670000000000000000000000000000000000000000000000117103695000210Vale Rio - Intermediação Cartorária LtdaRua do Paraíso,97-SL 29                             48903050Protesto após 5 dias                                        000207
1                   000902692011248461-11777                  0000000000000011777600000000002               0111777     08091400000000500000000000012N300914000000000000001670000000000000000000000000000000000000000000000117103695000210Vale Rio - Intermediação Cartorária LtdaRua do Paraíso,97-SL 29                             48903050Protesto após 5 dias                                        000208
1                   000902692011248461-11778                  0000000000000011778400000000002               0111778     08091400000000500000000000012N300914000000000000001670000000000000000000000000000000000000000000000117103695000130VALE RIO - INTERMEDIAÇÃO CARTORÁRIA LTDAPraça Pio XII,290-2º Andar, SL 01                   56304430Protesto após 5 dias                                        000209
1                   000902692011248461-11779                  0000000000000011779200000000002               0111779     08091400000000500000000000012N300914000000000000001670000000000000000000000000000000000000000000000117103695000130VALE RIO - INTERMEDIAÇÃO CARTORÁRIA LTDAPraça Pio XII,290-2º Andar, SL 01                   56304430Protesto após 5 dias                                        000210
1                   000902692011248461-11780                  0000000000000011780600000000002               0111780     08091400000000177290000000012N300914000000000000000590000000000000000000000000000000000000000000000118433773000127MUZETI ASSESSORIA CARTORARIA LTDA ME    Rua 20,1022                                         14780070Protesto após 5 dias                                        000211
1                   000902692011248461-11781                  0000000000000011781400000000002               0111781     08091400000001000000000000012N300914000000000000003330000000000000000000000000000000000000000000000117488037000103LG INTERMEDIAÇÃO CARTORÁRIA LTDA ME     Rua Rafael Nascimento,300 C                         75901290Protesto após 5 dias                                        000212
1                   000902692011248461-11782                  0000000000000011782200000000002               0111782     08091400000001000000000000012N300914000000000000003330000000000000000000000000000000000000000000000117488037000103LG INTERMEDIAÇÃO CARTORÁRIA LTDA ME     Rua Rafael Nascimento,300 C                         75901290Protesto após 5 dias                                        000213
1                   000902692011248461-11783                  0000000000000011783000000000002               0111783     08091400000000500000000000012N300914000000000000001670000000000000000000000000000000000000000000000119450025000115SAITO & SAITO ASSESSORIA E SERVIÇOS LTDAAv. Francisco de Paula Leite,1699                   13344325Protesto após 5 dias                                        000214
1                   000902692011248461-11784                  0000000000000011784900000000002               0111784     08091400000001000000000000012N300914000000000000003330000000000000000000000000000000000000000000000117197147000116POSTCAR INTERMEDIAÇÃO CARTORÁRIA LTDA   Rua Amaro Genari,40-Sala 33                         09810270Protesto após 5 dias                                        000215
1                   000902692011248461-11785                  0000000000000011785700000000002               0111785     08091400000001000000000000012N300914000000000000003330000000000000000000000000000000000000000000000117197147000116POSTCAR INTERMEDIAÇÃO CARTORÁRIA LTDA   Rua Amaro Genari,40-Sala 33                         09810270Protesto após 5 dias                                        000216
1                   000902692011248461-11786                  0000000000000011786500000000002               0111786     08091400000000019910000000012N300914000000000000000070000000000000000000000000000000000000000000000112462165000164Viviane Aparecida Henriques - EPP       Rua Rui Barbosa,164                                 19010260Protesto após 5 dias                                        000217
1                   000902692011248461-11787                  0000000000000011787300000000002               0111787     08091400000000300000000000012N300914000000000000001000000000000000000000000000000000000000000000000117216619000130F E M INTERMEDIAÇÃO CARTORARIA LTDA ME  Av. Dom Pedro II,135-Sala 22                        37470000Protesto após 5 dias                                        000218
1                   000902692011248461-11788                  0000000000000011788100000000002               0111788     08091400000000300000000000012N300914000000000000001000000000000000000000000000000000000000000000000117216619000130F E M INTERMEDIAÇÃO CARTORARIA LTDA ME  Av. Dom Pedro II,135-Sala 22                        37470000Protesto após 5 dias                                        000219
1                   000902692011248461-11789                  0000000000000011789P00000000002               0111789     08091400000000500000000000012N300914000000000000001670000000000000000000000000000000000000000000000112443155000181ASSESSORIA E CONSULTORIA CARTORARIA DE DRua Santa Cruz,652                                  13300090Protesto após 5 dias                                        000220
1                   000902692011248461-11790                  0000000000000011790300000000002               0111790     08091400000000500000000000012N300914000000000000001670000000000000000000000000000000000000000000000118294473000104VIEIRA E SCORALICK LTDA                 Rua Getúlio Vargas,53                               34800000Protesto após 5 dias                                        000221
1                   000902692011248461-11791                  0000000000000011791100000000002               0111791     08091400000000500000000000012N300914000000000000001670000000000000000000000000000000000000000000000118294473000104VIEIRA E SCORALICK LTDA                 Rua Getúlio Vargas,53                               34800000Protesto após 5 dias                                        000222
1                   000902692011248461-11792                  0000000000000011792P00000000002               0111792     08091400000000500000000000012N300914000000000000001670000000000000000000000000000000000000000000000112632803000148RUBIANA SERVIÇOS DE CARTORIO, CERTIDÕES Rua das Esmeraldas,186                              09920520Protesto após 5 dias                                        000223
1                   000902692011248461-11793                  0000000000000011793800000000002               0111793     08091400000000500000000000012N300914000000000000001670000000000000000000000000000000000000000000000112762841000115SM GERENCIAMENTO DE CERTIDÕES E DOCUMENTRua 18,81                                           76380000Protesto após 5 dias                                        000224
1                   000902692011248461-11794                  0000000000000011794600000000002               0111794     08091400000000500000000000012N300914000000000000001670000000000000000000000000000000000000000000000112762841000115SM GERENCIAMENTO DE CERTIDÕES E DOCUMENTRua 18,81                                           76380000Protesto após 5 dias                                        000225
1                   000902692011248461-11795                  0000000000000011795400000000002               0111795     08091400000000500000000000012N300914000000000000001670000000000000000000000000000000000000000000000102248702000114MOURA E MENEZES SERVIÇOS ADMINISTRATIVOSRua Dr. Curvelo Cavalcante,189-Loja 101             23810201Protesto após 5 dias                                        000226
1                   000902692011248461-11796                  0000000000000011796200000000002               0111796     08091400000000350000000000012N300914000000000000001170000000000000000000000000000000000000000000000118325368000195FERREIRA CAMPOS CONSULTORIA E INTERMEDIARua Joaquim Manuel,248                              46430000Protesto após 5 dias                                        000227
1                   000902692011248461-11797                  0000000000000011797000000000002               0111797     08091400000000350000000000012N300914000000000000001170000000000000000000000000000000000000000000000118325368000195FERREIRA CAMPOS CONSULTORIA E INTERMEDIARua Joaquim Manuel,248                              46430000Protesto após 5 dias                                        000228
1                   000902692011248461-11798                  0000000000000011798900000000002               0111798     08091400000000500000000000012N300914000000000000001670000000000000000000000000000000000000000000000111619454000161ASSESSORIA CARTORÁRIA DO NORDESTE LTDA  Rua Antônio de Castro,114-LJ 05                     52070080Protesto após 5 dias                                        000229
1                   000902692011248461-11799                  0000000000000011799700000000002               0111799     08091400000001500000000000012N300914000000000000005000000000000000000000000000000000000000000000000117234137000103Postal Services - Assessoria e Serviços Pç das Orquideas,186-SL 04 | 1º Andar               06453002Protesto após 5 dias                                        000230
1                   000902692011248461-11800                  0000000000000011800400000000002               0111800     08091400000001500000000000012N300914000000000000005000000000000000000000000000000000000000000000000117234137000103Postal Services - Assessoria e Serviços Pç das Orquideas,186-SL 04 | 1º Andar               06453002Protesto após 5 dias                                        000231
1                   000902692011248461-11801                  0000000000000011801200000000002               0111801     08091400000000500000000000012N300914000000000000001670000000000000000000000000000000000000000000000112572498000146Alphacentral Documentos e Serviços LTDA Rua Cel. Siqueira de Moraes,125/127                 13201032Protesto após 5 dias                                        000232
1                   000902692011248461-11802                  0000000000000011802000000000002               0111802     08091400000000500000000000012N300914000000000000001670000000000000000000000000000000000000000000000117344439000134Carneiro e Santana Intermediação CartoráRua Brasil,210-SALA A                               19800100Protesto após 5 dias                                        000233
1                   000902692011248461-11803                  0000000000000011803900000000002               0111803     08091400000000500000000000012N300914000000000000001670000000000000000000000000000000000000000000000117344439000134Carneiro e Santana Intermediação CartoráRua Brasil,210-SALA A                               19800100Protesto após 5 dias                                        000234
1                   000902692011248461-11804                  0000000000000011804700000000002               0111804     08091400000000500000000000012N300914000000000000001670000000000000000000000000000000000000000000000112837049000182TOWER NITEROI SERVIÇOS DE CARTÓRIO E CERRua Visconde de Sepetiba,935-SL 625                 24020206Protesto após 5 dias                                        000235
1                   000902692011248461-11805                  0000000000000011805500000000002               0111805     08091400000000500000000000012N300914000000000000001670000000000000000000000000000000000000000000000117474125000156MAGAVIX INTERMEDIAÇÃO E LOGISTICA DE DISRua Amapá,1777                                      87704070Protesto após 5 dias                                        000236
1                   000902692011248461-11806                  0000000000000011806300000000002               0111806     08091400000000500000000000012N300914000000000000001670000000000000000000000000000000000000000000000117474125000156MAGAVIX INTERMEDIAÇÃO E LOGISTICA DE DISRua Amapá,1777                                      87704070Protesto após 5 dias                                        000237
1                   000902692011248461-11807                  0000000000000011807100000000002               0111807     08091400000000090940000000012N300914000000000000000300000000000000000000000000000000000000000000000112139078000170RW MARIZ ESTRUTURA CARTORAL LTDA        Av Epitácio Pessoa,475-Sala 05                      58030906Protesto após 5 dias                                        000238
1                   000902692011248461-11808                  0000000000000011808P00000000002               0111808     08091400000000500000000000012N300914000000000000001670000000000000000000000000000000000000000000000118726605000120OLIVEIRA CECHET INTERMEDIAÇÃO CARTORÁRIARua Cleriston Andrade,132-QD 23 LT 03 SL            47850000Protesto após 5 dias                                        000239
1                   000902692011248461-11809                  0000000000000011809800000000002               0111809     08091400000000500000000000012N300914000000000000001670000000000000000000000000000000000000000000000118726605000120OLIVEIRA CECHET INTERMEDIAÇÃO CARTORÁRIARua Cleriston Andrade,132-QD 23 LT 03 SL            47850000Protesto após 5 dias                                        000240
1                   000902692011248461-11810                  0000000000000011810100000000002               0111810     08091400000000900000000000012N300914000000000000003000000000000000000000000000000000000000000000000113133167000172G I CART SERVIÇOS ORGANIZACIONAIS LTDA  Rua dos Marianos,132                                06016050Protesto após 5 dias                                        000241
1                   000902692011248461-11811                  0000000000000011811P00000000002               0111811     08091400000000500000000000012N300914000000000000001670000000000000000000000000000000000000000000000117569606000145RP SERVIÇOS CARTORARIOS LTDA            Av. Santos Dumont,3257-Comercial MM501 L            42700000Protesto após 5 dias                                        000242
1                   000902692011248461-11812                  0000000000000011812800000000002               0111812     08091400000000500000000000012N300914000000000000001670000000000000000000000000000000000000000000000117569606000145RP SERVIÇOS CARTORARIOS LTDA            Av. Santos Dumont,3257-Comercial MM501 L            42700000Protesto após 5 dias                                        000243
1                   000902692011248461-11813                  0000000000000011813600000000002               0111813     08091400000000006000000000012N300914000000000000000020000000000000000000000000000000000000000000000113287999000143ASSESSORIA CARTORÁRIA PÁDUA LTDA        Rua Tiradentes,112-SL 201                           28300000Protesto após 5 dias                                        000244
1                   000902692011248461-11814                  0000000000000011814400000000002               0111814     08091400000000500000000000012N300914000000000000001670000000000000000000000000000000000000000000000118532030000104ASSESSORIA POSTAL LTDA - ME             Rua 22,1225                                         38300076Protesto após 5 dias                                        000245
1                   000902692011248461-11815                  0000000000000011815200000000002               0111815     08091400000000500000000000012N300914000000000000001670000000000000000000000000000000000000000000000118532030000104ASSESSORIA POSTAL LTDA - ME             Rua 22,1225                                         38300076Protesto após 5 dias                                        000246
1                   000902692011248461-11816                  0000000000000011816000000000002               0111816     08091400000000350000000000012N300914000000000000001170000000000000000000000000000000000000000000000115369569000104FERRAGUT E MUZEL SERVIÇOS ADMINISTRATIVORua Barão de Mauá,1152-Piso Superior, SL            13276080Protesto após 5 dias                                        000247
1                   000902692011248461-11817                  0000000000000011817900000000002               0111817     08091400000001000000000000012N300914000000000000003330000000000000000000000000000000000000000000000109532074000143OTTIMIZA ASSESSORIA CARTORARIA LTDA - MERua Raimundo Chaves,1584                            59064390Protesto após 5 dias                                        000248
1                   000902692011248461-11818                  0000000000000011818700000000002               0111818     08091400000001000000000000012N300914000000000000003330000000000000000000000000000000000000000000000109532074000143OTTIMIZA ASSESSORIA CARTORARIA LTDA - MERua Raimundo Chaves,1584                            59064390Protesto após 5 dias                                        000249
